:100000007AC5000094C5000092C5000090C50000AC
:100010008EC500008CC500008AC5000088C50000A0
:1000200086C500000C94A42E0C949C3180C5000061
:100030007EC500007CC500007AC5000078C50000C0
:1000400076C5000075C5000072C5000070C50000CF
:100050006EC500006CC500006AC5000068C50000E0
:1000600066C5000064C5000062C5000060C50000F0
:100070005EC500005CC500005AC5000058C5000000
:1000800056C5000054C5000052C5000050C5000010
:100090000C94EC144CC500004AC5000048C5000093
:1000A00046C5000044C5000042C50000880F900FFF
:1000B000050F580FAA0FBB0FD30FF00F37103710D3
:1000C00037103710FE0F14103710271070510386A9
:1000D000400D4FEB3ECCD18735BDF50B5ED0F8F22D
:1000E000D5E26C310CADFC21C378C106C24C55E69B
:1000F0004A3448111EDAE71A84A096A7E37FAF635B
:100100009CFA235B79C89EBAB2C922124BB3A1B63E
:100110003249A2E189391066C5078F54EA91CA3F76
:10012000F919F0D746BC281B61E82F6AAE9DF64E40
:100130000914774DDB1F2E7B7CF143A300B8138C91
:1001400085B9297588FDD2561C509741E53B60B5AD
:10015000C064EE98D62D25A4AACD7DA883C6ABBEDB
:100160004499263CCE9FBFD3CB767A7E82018A9A71
:10017000801D0EB05CD43862F430E08E53B7025765
:10018000ACA6520A6D9265172433457274B1B4F768
:100190005DED2CFF47375A90BBDF2A165995D9C41D
:1001A000276773C768FEA5DD6B5F93D8EC053A8DB2
:1001B0006EFB3DA96936F394DEEF156F8B9B080F3C
:1001C000DC81182004E471CFE92B425801A0A96218
:1001D000D63F85A7B6D4FA15661709BD5D14342637
:1001E00059729154064FF8B05B7493998CF245CDD7
:1001F000EA4EAD104AE5CAEEDFC66F9F888E02CC8C
:1002000008A877946D21B128E43979966071811638
:100210002EE678B9C4469A42AEB77C43B3221A861A
:10022000C2323D2D9CD229E9639BD131385E1E3606
:1002300041BB03182B3EBF6861FC52C0DEE00A5888
:10024000135A00BE1C900E5312FDE26EBACE242744
:10025000447F87A3A1D55040E3F983F7C7A235C8EF
:10026000DB19AB2F1125ED339E55E148AF7384DACE
:100270002AAA51EB9D95B2CBE77080FE4C6504EF46
:10028000C5F1C33AB4F55F2389DD30A58BD3F6DC25
:100290004D64D7F08FEC56375CA40D07768A2C0B93
:1002A000B5D8C11FE83BF44B1B476C49677B92CF25
:1002B000757E20D97D3C977AD0056B0F1DFB829807
:1002C000578DF36ABCACC9A6FFB8690C4C4D7207D8
:1002D0005A49338DA2AB463D630DA097FFF0F5FA66
:1002E000C0E9DB62E4E17443DC86182937F406E2F6
:1002F000ED6F90481E2D1DEA739454DF25F64727B5
:10030000D91177C9841C5B5C5181A6223E2496C812
:100310008AEC827C09B8454A57BB2F50758E6170B4
:100320008C6CAFD0FDB41BAEDEFE3BB536BD5501C7
:100330000E9C41565FB3260383BA134BCAC50AF815
:1003400060A5B9C7C39832FB12F9A792AA68F378DF
:100350007E05202102E8BFF2B0598FD2CB87651508
:10036000F11AB230ADEE58A38B661F2CD75D1985FC
:10037000A8E6D36BA10C91936A5E0B79E3DD004F85
:100380003C896E7169A9AC40E59928C6314E7ACD99
:10039000089E7DEF17FC88D8A46D4495D1B7D49BF7
:1003A000BE2A34642BCF2EEB38CE23E03A3FF77BC6
:1003B0009F1053BC526716E7807604C4B6C1C27F53
:1003C0009ADAD53942149DB10F35D6CCB9DA380C4A
:1003D000A29C091F06B1B6FD1A692330C4DE01D103
:1003E000F45829371C7DD5BFFFBDC8C9CF65BE7B7A
:1003F0007897986708B32657F7FA40AD8E75A67CB4
:10040000DB918B5199D4177A908DCE63CB4EA0ABF4
:10041000183A5B507F2174C1BBB8B7BA0B35953120
:10042000599A4D04071E5A7613F37183D08603A898
:100430003942AA28E6E4D85DD3D06E6F96FB5EBC45
:1004400056C25F859BE7AFD23B846AA753C5444938
:10045000A5F936723D2CD91BA1F54F939D684741F4
:1004600016CA2A4CA387D6E5192E77156D70C0DF02
:10047000B20046EDC66C4360922DA922458F3455DB
:10048000AEA40A6632E0DC02ACE8208C89624AFE47
:10049000EEC3E33CF17905E9F62733CCF29E1181F6
:1004A0007E80108A829F480DD7B4FC2FB5C7DD88A7
:1004B000146B2B54EA1D945CB0EF1224CDEBE1E2F7
:1004C00064733F0E5261253EF80F4BECC00030F6CE
:1004D00002493D106E20C9A62FFE2C2B752E4526F5
:1004E000AB48A980FC04CCD3B5BAA338317D01D97F
:1004F000A77B96B663694EF7DEE078CA50AA4191B1
:100500006588E42185DA3A27BE1C3E425E17527F99
:100510001F89246F8F5C67740E12878DE934ED7329
:10052000C4F8615B05DF594C97798318A45595EBA6
:10053000BD53F5F15766469FB2810951862216DDFB
:1005400023937629C2D71DD4BF363FEA4B1132B967
:10055000625460D66D439A0D929CB0EF586C9D77B3
:100560002D70FAF3B30BE2407EF48AE58C3C5671B1
:10057000D164E1820ACB131590EC0399AF145D0F9F
:10058000334A94A5A8351BE36AC628FF4DE72584A6
:10059000AC08AEC5A22AB8370C7AA0C3CEAD061AF5
:1005A0009E8BFBD5D0C11ED0B49BB144F247C76827
:1005B000CF72BB4F5AF9DC6BDBD2E87CC8EE98A156
:1005C000E6D839075FFD8E19B73BBCCD7CE381735C
:1005D000B211BF6F2098FE7596EF6CDA50E1097288
:1005E0005445BA34805BED3E532C87A457F3333F18
:1005F0003CB767B4A325604F076B1B47150FE40A90
:10060000EAD1327836498D4BD2BCA5DC1D0D4DCDDB
:100610009A825FFC9465BEE2F4C91E44CB9E0C64D2
:10062000712663B314E840708A0E19426DAC8810CD
:100630005CDF41A9ADE5FB74CCD5068E5986CE1F93
:100640003D76E08FB977277BA6D829D3ECB813F78E
:10065000FAC3516ADE4A5AEBC28B234892CF62A892
:1006600099F8D02E856143C8BDF00593CA4EF17D3F
:1006700030FDC469662F08B152F921E67A2BDD39C5
:1006800084FFC091D637D47F2D9B5DA13B6EB5C54D
:100690004604F590EE7E831C0356B6AA001701357A
:1006A00055790B12BB1A31E7022816C1F6A2DB18E6
:1006B0009C89683897ABC72AD73AF2C6244CB05801
:1006C000A0225E9DD9A7E9AEAF8C959F28B720D711
:1006D000B030C30919C067D6003C7EE7E9F4085A78
:1006E000F8B82E05A6259E5CD8150DE1F611546BC1
:1006F000CD2146665E84AD06382944C5A2CEF1AA56
:10070000C1407186B5EFFC36A8CB0A48274564A3E3
:10071000AF8CB2C69F0789DC17D34979FBFE1DD089
:10072000B9884352BC01782B7D94C70EDEA5D59BBA
:10073000CCF7617AC274813903AB96A037BD2D72B4
:10074000753FC9D48E6FF98DED62DB1CDF04AC1BE5
:100750006C144B63D0BFB482EC7B1A5992D21060F8
:10076000B63D5FE6806E70C4F235D97CEEE541A4FB
:100770005B50DDBB4CF31F9D5D57555197E35842CD
:100780004D9C73BAC877316926AEEA8ADA22B387FC
:1007900056FA930B341633E8E453BEA9B13A3EF54A
:1007A000906ACF3B12FD8F9AA7479199EB0F24FFD8
:1007B0002318854E7F0CE0A1D2D12C2A4A024F1E6D
:1007C00095688B98836D76CA6532132FC3829AA47D
:1007D000BA8160373435FC80A8516567ED305F1011
:1007E000D34A272F13B92AD2CCE1EFAEEBBEF4BD2A
:1007F000CF43B3C58884B7DD3940CE486D9B726165
:100800007EE7A14E532E773BE2C936221B6E73B1B1
:1008100003B24C87A9D44D0FD8156CAA18F64957C6
:100820005DFB7A149463A011B09EDE0546C8EE47C6
:10083000DBDC24899C919729E97BC1071EB8FDFE6A
:10084000ACC662984FF179E0E86B7856B68D0450EB
:1008500086CA6F20E6EAE576171C747FBC0D2C85EE
:10086000F76696E48B753F4BD938AF7CDA0B832D56
:100870003132A2F51D594145BF3C1FF8F98AD01607
:10088000256912999D2195AB01A6D7B5C07DFF586A
:100890000E3A92D155E3089FD63E528EFAA3C70274
:1008A000CDDF8F64198CF3A70C5E0A6A09F0935BA5
:1008B00042C20623EC71ADB4CBBB7028D51A5C33B1
:1008C000685A004490A5C4263D2BF25496ADDA1F19
:1008D000ED33E18169080D0ADB35779A64D1FC7844
:1008E000AA1BD067A0DDFA6C63710584176A894F73
:1008F000667FC65055926FBDE7D240728DBBEC0645
:10090000428AE4889D7E7A822713411AAFC8A47672
:10091000B4C2FE6D1CD96130B37CEAF7290FF23BFB
:1009200051C1DE5FE52A2F990B5DA32B4AAB95A53C
:10093000D35856EE283100CC1546CAE686383C65B9
:10094000F5E39FD65B094983702D53A97DE2C4ACC2
:100950008E5EB825F4B957F3F16847B2A25920CE9C
:1009600034795C900E1EBED52223B1C91862162EB2
:10097000913E078FD83F933DD49BDF8521FB1174B7
:1009800097C7D7DC4C194598E943024BBCC3049C7C
:100990006BF07552A726F6C5BACFB0B7AE5AA1BF55
:1009A000038B80126E0CEBF9C04424EF10F8A88C76
:1009B000E87BFF9E2CCD603687B594A654733A141D
:1009C0004E011DB6FD37484D39CBE0320000000026
:1009D0000000000000000000000000000000000017
:1009E0000000000000000000000000000000000007
:1009F00000000000000000000000000000000000F7
:100A000000000000000000000000000000000000E6
:100A100000000000000000000000000000000000D6
:100A200000000000000000000000000000000000C6
:100A300000000000000000000000000000000000B6
:100A400000000000000000000000000000000000A6
:100A50000000000000000000000000000000000096
:100A60000000000000000000000000000000000086
:100A70000000000000000000000000000000000076
:100A80000000000000000000000000000000000066
:100A90000000000000000000000000000000000056
:100AA0000000000000000000000000000000000046
:100AB0000000000000000000000000000000000036
:100AC000000000000000000000000000A877A6E081
:100AD000F7435A3585E272978FB71A6287380D67E8
:100AE000C7BE4F3E2076378F68B7A9263F2B10E34D
:100AF000307E900E850A11241FBECFEFDAE0DEBFF4
:100B0000CDBF12E0A0E0B1E0ECE6F5E602C0059052
:100B10000D92A83EB107D9F726E0A8EEB2E001C0D9
:100B20001D92A335B207E1F7E1D20C94B43268CA42
:100B30001F920F920FB60F9211242F933F934F9352
:100B40005F936F937F938F939F93AF93BF93EF9335
:100B5000FF9381E08093E905109285001092840054
:100B600080910E068531E9F4509A589A5898589A0F
:100B7000509A589A5898589A509A589A5898589AF9
:100B8000E0912A06F0912B060190F081E02D099565
:100B9000E0913506F09136060480F581E02D80E085
:100BA0000995FF91EF91BF91AF919F918F917F91A7
:100BB0006F915F914F913F912F910F900FBE0F90CA
:100BC0001F901895E0913506F09136060480F58166
:100BD000E02D81E209958F3FC1F1E0913506F0915A
:100BE00036060280F381E02D82E00995803F50F0C7
:100BF000E0913506F09136060480F581E02D80E025
:100C00000995E0CF8091EA05809334068091EB0549
:100C1000982F917090932E0683FB992790F99093CB
:100C2000330684FB992790F99093320685FB992728
:100C300090F99093300686FB992790F990932F06B0
:100C4000881F8827881F8093310608958091340675
:100C5000893721F0833311F08F3721F491E090939D
:100C60002D0602C010922D06982F977F973759F0C6
:100C7000893749F0982F9F7B933329F0893019F0F9
:100C80008251823020F481E080932C0608951092E6
:100C90002C060895CF9380912E06882311F1E091C0
:100CA0003506F09136060480F581E02D80E0099547
:100CB0008F3F11F48EEFF1C0E0913506F0913606CA
:100CC0000480F581E02D81E009958F3F99F3E09153
:100CD0003506F09136060280F381E02D8DE0CF914C
:100CE000099480911306893218F0109213066ADF76
:100CF000809113068F5F80931306E0913506F09183
:100D000036060480F581E02D81E009958F3F91F250
:100D1000E0913506F09136060280F381E02D8DE0FA
:100D20000995C82F803F48F5809134068C1791F1C2
:100D3000E0913506F09136060480F581E02D80E0E3
:100D4000099540DFE0913506F09136060480F58183
:100D5000E02D81E009958F3F09F4ACCFE091350695
:100D6000F09136060280F381E02D8DE00995C82FC1
:100D700081E08093E802C03F68F0E0913506F09191
:100D800036060480F581E02D80E009958F3F09F05B
:100D900083C090CF80910C06882309F46DC08091A8
:100DA0002C06882309F468C09091E7058091F70527
:100DB000981305C08091E902882309F45DC0E09191
:100DC0003506F09136060480F581E02D8CE1099519
:100DD000E0913506F09136060480F581E02D809192
:100DE000F7050995E0913506F091360681E090917E
:100DF000F705911101C080E00480F581E02D819517
:100E00000995E0913506F09136060480F581E02DD4
:100E100081E10995E0913506F09136060480F5816F
:100E2000E02D8CE10995E0913506F09136060480BD
:100E3000F581E02D8091E7050995E0913506F09167
:100E4000360681E09091E705911101C080E00480B1
:100E5000F581E02D81950995E0913506F0913606F2
:100E60000480F581E02D84E109958091E70590915A
:100E7000F70589278093E9028091E802882319F019
:100E80001092E80248D2E0913506F09136060480CF
:100E9000F581E02D80E009958C2FCF910895CF93B7
:100EA000DF931F92CDB7DEB7F5DE8F3F19F491E0E7
:100EB00090932E0690912E0691112AC0803FE0F06B
:100EC0009091EC052091EB05922398239F3F29F008
:100ED0008F3F19F481E080932E0681E080933106E4
:100EE0008DE0EFEFF5E0AAEEB5E001900D928A9566
:100EF000E1F78091340619C09DE0EAEEF5E0AFEF2E
:100F0000B5E001900D929A95E1F7809334060DC0FB
:100F10009DE0EFEFF5E0AAEEB5E001900D929A9515
:100F2000E1F7803F10F410922E0620912E0690914A
:100F3000F905222369F02091EB05911105C091E09C
:100F40009093F905206201C02F7D2093EB050AC024
:100F5000992341F01092F905898334DE91E0909352
:100F6000E802898190913406993009F484C0909107
:100F7000F102F091F002E091EF027091EE024F2F3A
:100F800049274E2747272091ED0242272091EC0266
:100F900042272091EB02422750E021E030E06091AF
:100FA000EA02662311F020E030E04217530709F00F
:100FB00062C06091EE056F3F21F0961710F46093C8
:100FC000F1029091EF059F3F21F0F91710F49093F3
:100FD000F002662321F06E1710F46093EF0299235C
:100FE00021F0971710F49093EE026F3F79F0709113
:100FF000F102462F50E0272F30E025503109241709
:10100000350724F46150671B6093EE059F3F79F02C
:101010006091F002492F50E0262F30E02550310931
:101020002417350724F49150961B9093EF05909167
:10103000EE05992371F06091EF02492F50E0262FC1
:1010400030E02B5F3F4F421753071CF4961B9093E1
:10105000EE059091EF05992371F06091EE02492F12
:1010600050E0262F30E02B5F3F4F421753071CF410
:10107000961B9093EF058093FA05C5D28091EB05FE
:10108000809316068091EC05809317068091ED05FC
:10109000809329068091EE05809319068091EF05D3
:1010A00080931A068091F00580931F068091F105C8
:1010B00080931B068091F20580931C068091F305B6
:1010C0008093200680913406893741F08091F405A1
:1010D00080931E068091F50580931D068091F6058C
:1010E000809318060F90DF91CF91B0CDCF93DF930F
:1010F0001F92CDB7DEB71AB817B814B88FEF8BB9F7
:1011000088B985B990E8909361001092610095B715
:10111000906895BF95B7906895BF1AB817B814B87E
:101120008BB988B985B988E090E00E94AC32809391
:10113000140689E090E00E94AC32809312068AE0A7
:1011400090E00E94AC328093FB058BE090E00E941F
:10115000AC328093E80510922E061092F905109299
:10116000E9021092130681E08093E8025FD20E94A8
:1011700072318091D80080628093D80089B58D7FCC
:1011800089BD8091D8008F778093D8001CBC1092C5
:10119000CA001092C8001092C90010927A00809183
:1011A000BC008B7F8093BC001092C0001092910015
:1011B0001092900015BC14BC109281001092800017
:1011C0008FE99FE00197F1F700C0000043D2882328
:1011D000E9F30E943A319093360680933506DC019C
:1011E000ED91FC91099580E88093EA028093EB02EF
:1011F0008093EC028093ED028093EE028093EF02E5
:101200008093F0028093F102FED1E0913506F091D7
:1012100036060480F581E02D80E009953BDD803FB6
:10122000E8F78983CFDC89818093340610E837DEC4
:101230008091FB058F3FA1F020911A06811104C017
:10124000209520931A060CC090911C06813029F03D
:10125000823031F4209520931A06909590931C06C5
:101260006091190670E06058710920911A0630E00B
:10127000205831098091E80590E00196982F882741
:10128000990F229FA001239F500D500D112457FF4D
:1012900003C0519541955109669F9001679F300D9C
:1012A000300D112437FF03C0319521953109240FEA
:1012B000351F2817390720F410931A0610931906C2
:1012C00060911B0670E06058710920911C0630E0A7
:1012D00020583109229FA001239F500D500D112449
:1012E00057FF03C0519541955109669F9001679F33
:1012F000300D300D112437FF03C031952195310990
:10130000240F351F2817390720F410931C0610935B
:101310001B0698D18CCFE0913506F09136060480FB
:10132000F581E02D84E20995E0913506F0913606CD
:101330000480F581E02D80E00995E0913506F0917B
:1013400036060480F581E02D85E20995E0913506A9
:10135000F09136060480F581E02D80E009958091BA
:101360000E0621E0823309F020E091E0853209F099
:1013700090E0292B91E0382F3D7F393209F090E041
:10138000922B29F4982F9F7E953009F041C08091CF
:10139000340621E0803109F020E091E0833209F049
:1013A00090E0922B21E08F3109F020E0292B91E091
:1013B0008F3209F090E0922B31E0813409F030E077
:1013C000392B21E0893709F020E0232B91E0382FD9
:1013D0003F7D333509F090E0922B41F4873731F0AF
:1013E000893021F0877F833109F0B4C0E091350660
:1013F000F09136060480F581E02D84E20995E091B4
:101400003506F09136060480F581E02D84E0A1C018
:1014100021E0893109F020E091E08F3209F090E07D
:10142000292B91E08F3109F090E0922B21F4982F35
:101430009B7F933181F580913406982F977F31E01F
:10144000933009F030E0982F9F7E985021E0923041
:1014500008F020E0232B91E0382F3B7F313209F058
:1014600090E0922B31F4883221F08351833008F0E0
:1014700071C0E0913506F09136060480F581E02DCB
:1014800085E20995E0913506F09136060480F581F4
:10149000E02D83E05EC0833209F048C080913406BD
:1014A000982F977F21E0933009F020E091E0382FCA
:1014B0003F7D383009F090E0922B21E03CEE380F70
:1014C000323008F020E0292B91E038EE380F33302D
:1014D00008F090E0922B31F4982F9B7F913211F01D
:1014E0008633C1F5E0913506F09136060480F5812A
:1014F000E02D84E20995E0913506F09136060480EE
:10150000F581E02D84E00995E0913506F0913606ED
:101510000480F581E02D85E20995E0913506F09192
:1015200036060480F581E02D81E013C08B3091F404
:10153000E0913506F09136060480F581E02D80E2D9
:101540000995E0913506F09136060480F581E02D8D
:1015500080E10994089540911A0690911C0621E0BB
:101560009E3408F020E081E04E3408F080E0282B23
:1015700080911B06222341F08E3420F03091190611
:101580003E3410F487E03CC031E0933B08F430E097
:1015900091E0433B08F490E0932B41F08E3420F02F
:1015A000309119063E3410F485E02AC0222341F020
:1015B000833B20F430911906333B10F081E020C0CA
:1015C000992341F0833B20F430911906333B10F00E
:1015D00083E016C0309119068E3410F03E3410F4BA
:1015E00086E00EC0833B10F4333B10F082E008C06D
:1015F000222319F0109218060895992319F084E017
:1016000080931806089510922006109217061092E3
:1016100016068FE08093180680E880931C0680935E
:101620001B0680931A0680931906089514BEA89588
:1016300088E10FB6F89480936000109260000FBEAE
:10164000F8940895E0912A06F0912B060280F38128
:10165000E02D09941F93CF93DF931F92CDB7DEB790
:1016600010920C0610920D061AB817B814B81FEF96
:101670001BB918B915B90E94033090932B068093BB
:101680002A06DC011496ED91FC911597099580933B
:101690000E06E0912A06F0912B06811199C1008473
:1016A000F185E02D09951AB817B814B81BB918B907
:1016B00015B90E943B2F90932B0680932A06DC01DC
:1016C0001496ED91FC911597099580930E06E09183
:1016D0002A06F0912B0681117BC10084F185E02D53
:1016E00009951AB817B814B81BB918B915B90E94DA
:1016F000C62B90932B0680932A06DC011496ED915D
:10170000FC911597099580930E06E0912A06F091B9
:101710002B0681115DC10084F185E02D09951AB871
:1017200017B814B81BB918B915B90E94612A90935B
:101730002B0680932A06DC011496ED91FC911597F7
:10174000099580930E06E0912A06F0912B068111EF
:101750003FC10084F185E02D09951AB817B814B877
:101760001BB918B915B999D490932B0680932A0602
:10177000DC011496ED91FC911597099580930E0666
:10178000E0912A06F0912B06882351F00190F08118
:10179000E02D099581E080930C0680930D064FC1E2
:1017A0000084F185E02D09951AB817B814B81BB953
:1017B00018B915B90E94392890932B0680932A06F0
:1017C000DC011496ED91FC911597099580930E0616
:1017D000E0912A06F0912B068111FAC00084F18570
:1017E000E02D09951AB817B814B81BB918B915B96E
:1017F0000E94811C90932B0680932A06DC0114968C
:10180000ED91FC911597099580930E06E0912A06BB
:10181000F0912B068111DCC00084F185E02D099543
:1018200089B18C3F81F41AB817B814B81BB918B92C
:1018300015B90E94102A90932B0680932A06DC018A
:10184000ED91FC91C8C0E0912A06F0912B0600842E
:10185000F185E02D099583B18F3F09F0BEC01AB81C
:1018600017B814B88BB988B985B90E94011F909335
:101870002B0680932A06DC011496ED91FC911597B6
:10188000099580930E06E0912A06F0912B068111AE
:101890009FC00084F185E02D09951AB817B814B8D7
:1018A0001FEF1BB918B915B90E94E51790932B06C5
:1018B00080932A06DC011496ED91FC911597099509
:1018C00080930E06E0912A06F0912B0681111EC02E
:1018D0000084F185E02D09951AB817B814B81BB922
:1018E00018B915B90E94B61B90932B0680932A064F
:1018F000DC011496ED91FC911597099580930E06E5
:10190000E0912A06F0912B06882341F00190F081A6
:10191000E02D099581E080930C0691C00084F1854B
:10192000E02D09951AB817B814B81BB918B915B92C
:101930000E94ED2090932B0680932A06DC011496DA
:10194000ED91FC911597099580930E06E0912A067A
:10195000F0912B0681113CC00084F185E02D0995A2
:101960001AB817B814B81BB918B915B90E946E2463
:1019700090932B0680932A06DC011496ED91FC913E
:101980001597099580930E06E0912A06F0912B0693
:1019900081111EC00084F185E02D09951AB817B891
:1019A00014B81BB918B915B90E94FA2890932B06E0
:1019B00080932A06DC011496ED91FC911597099508
:1019C00080930E06E0912A06F0912B06882389F178
:1019D0000190F081E02D09951FC083B11AB817B8A6
:1019E00014B88F35D9F48FEF8BB988B985B986D4FF
:1019F00090932B0680932A06DC01ED91FC910995CA
:101A0000E0912A06F0912B060480F581E02D0995DE
:101A100080930E06882349F081E011C08FEF8BB9C7
:101A200088B985B90E941722E3CFE0912A06F09188
:101A30002B060084F185E02D8983099589810F901B
:101A4000DF91CF911F91089508951CBC80913106BC
:101A50008093F4021092F9021092FA021092F802A6
:101A60001092F70288E184B98FEF85B98FE68CBDBB
:101A70008CB58F7B8CBD2B9808951CBC08956EBDD2
:101A80000DB407FEFDCF882371F08091FA02811119
:101A900004C08AE28A95F1F700C02C9885E08A9507
:101AA000F1F700002C9A189902C08EB5089580E0D5
:101AB0000895CBDF2B9A8CB580648CBD0895CF93AD
:101AC000C82F60911B0681E0DADF81508E3F38F429
:101AD0008FEA94E00197F1F700C00000EADF60911F
:101AE0001C0681E0CCDF6091190681E0C8DF6091BF
:101AF0001A068C2FCF91C3CFCF9380E090E0DC010A
:101B0000189B0AC00196A11DB11D843027E19207E0
:101B100023E0A207B105A1F7E7ECF0E03197F1F778
:101B200000C00000189B02C080E02FC0EFE9FFE07A
:101B30003197F1F700C0000084309741A340B10510
:101B400099F3189BF1CFB5DF60E080E098DF81303A
:101B500029F06FEF80E093DF813031F76FEF81E0A4
:101B60008EDF61E481E08BDFC82F6AE581E087DFEB
:101B70006FEF81E084DF6FEF81E081DF25E32A955D
:101B8000F1F70000C23451F787E1CF9108951F9318
:101B9000CF93DF93189BFECF8AEB98E8189B06C083
:101BA00001970097D9F788EC8093F7028091180687
:101BB000882309F46EC2823009F46DC2843049F082
:101BC000863089F0813089F0DFEF833021F4DFE95E
:101BD0000DC0DFEB0BC0853011F4DFE307C08730A9
:101BE00029F4DFE603C0DFE701C0DFEC80911606D1
:101BF00084FDDE7F85FDD77F9091170696FDDD7F02
:101C000097FDDB7F80FD02C0CFEF01C0CFEB81FDF0
:101C1000CF7D82FDCF7783FDCF7E86FDCB7F87FD95
:101C2000C77F90FDCE7F91FDCD7F8CB580648CBD4C
:101C300084B1886184B92B9A8091F70287FD39DFDE
:101C40008091F7028F5F8093F7026FEF81E017DFDB
:101C5000813009F00CC28091F8028111C0C09091CE
:101C6000FA029923C1F080913406893751F0282F68
:101C70002D7F203131F08F3121F028EF280F2230D5
:101C800010F4923051F0833351F08F3751F0833597
:101C900051F463E509C061E407C069E705C063E288
:101CA00003C063EE01C063E781E0E9DE182F2091F5
:101CB000FA028091F502281729F09091F3029E5FB5
:101CC0009093F3022093F5026AE581E0D8DE6D2F50
:101CD00081E0133479F5D3DE8093F802811102C0DC
:101CE00060E026C08091F20281112BC08091F30246
:101CF000811131C08091FA02823009F048C06C2F06
:101D000081E0BDDE8093F70581E0D9DE8091FA02A3
:101D1000823009F04BC0CAE060E081E0B0DEC15023
:101D2000D9F760911F0681E0AADE6091200680E06D
:101D3000A6DE3CC0A4DE8093E7058091F2028823F2
:101D400031F081508093F2026C2F81E023C08091AA
:101D5000F302882331F081508093F3026C2F80E0EE
:101D600022C08091FA02823091F46C2F81E087DEEC
:101D70008093F70581E0A3DE8091FA028230B1F40E
:101D8000CAE060E081E07BDEC150D9F7CACF813084
:101D900039F46C2F74DE8093F70580E090DE06C086
:101DA000811104C06C2F6BDE8093F70540913106E2
:101DB000242F30E08091F40290E02817390709F4CD
:101DC00056C14093F40281E09091FA02911180E0B3
:101DD0008093FA028093F5028093F90248C1813022
:101DE00009F045C163EF4BDE182F6AE581E047DE5D
:101DF000812F90E0FC01E054F109E031F10508F099
:101E000036C1EA5AFF4F0C9481326D2F81E037DEE4
:101E10008093E7058091F202882331F0815080930E
:101E2000F2026C2F81E02BC08091F302882331F005
:101E300081508093F3026C2F80E02AC08091FA02D7
:101E40008230D1F46C2F81E01ADE8093F70581E0B7
:101E500036DE8091FA028230F1F4CAE060E081E07F
:101E60000EDEC150D9F760911F0681E008DE609157
:101E7000200680E004DE0FC0813039F46C2FFFDDD6
:101E80008093F70580E01BDE06C0811104C06C2F33
:101E9000F6DD8093F7058091F6028F5F8093F6025E
:101EA0008B3008F4E4C01092F6021092F802DFC002
:101EB00060E081E0E4DD8093F802813099F4809164
:101EC000FA02823011F0C4E007C0CCE060E081E0AB
:101ED000D6DDC150D9F7F7CF60E081E0D0DDC15049
:101EE000D9F7A0C060E081E0CADD8A3561F460E026
:101EF00081E0C5DD60E081E0C2DD60E081E0BFDD62
:101F000060E080E0BCDD8091F9028093FA02AFC00E
:101F100060E081E0B4DD60E081E0B1DD62E010C04E
:101F200081E08093F3029091F902911102C08093B5
:101F3000F9026FEF81E0A3DD6FEF81E0A0DD63E0E8
:101F400081E09DDD60E081E09ADD60E081E097DD89
:101F50006AE57AC060E081E092DD8093F9028091C9
:101F6000F40281111092F902C4E060E081E087DDA3
:101F7000C150D9F757C081E08093F30280912D06BC
:101F8000882311F063E001C061E081E078DD62E068
:101F900081E075DD61E08091F402811160E081E013
:101FA0006EDD62E027C060E081E069DD811102C082
:101FB000CAE001C0C4E160E081E061DD61E081E090
:101FC0005EDDCA3011F462E001C061E081E057DDFE
:101FD00061E0CA3009F460E081E051DD6C2F34C06B
:101FE00060E081E04CDD60E081E049DD62E081E0BD
:101FF00046DD60E081E043DD61E012C060E081E049
:102000003EDD811102C0C4E001C0C7E060E081E0B4
:1020100036DD60E081E033DD6C2F81E030DD60E0B3
:1020200081E02DDD60E010C060E081E028DD61E04E
:1020300081E025DD6FEF81E022DD6FEF81E01FDDC4
:102040006FEF81E01CDD6FEF80E019DD10C081E0F3
:102050008093F20282E08093F90260E081E00FDD7C
:10206000C4E060E081E00BDDC150D9F7DBCF109216
:10207000F7028CB58F7B8CBD8FE193E00197F1F770
:1020800000C0000084B1877E84B9DF91CF911F9199
:102090000895DFEEABCDDFEDA9CD80E091E00895AE
:1020A000089581E08093FB020895ECEBF0E08081DD
:1020B0008B7F808308951092FB028091FB0288231E
:1020C000E1F38FE99FE00197F1F700C0000085E19F
:1020D000ECEFF2E0DF011D928A95E9F780E880934A
:1020E000FF028093FE028093FD028093FC028091A8
:1020F000190692E9980F943210F08093FC028091B7
:102100001B0692E9980F943210F08093FD028091A3
:102110001A0692E9980F943218F080958093FE0287
:1021200080911C0692E9980F943218F08095809364
:10213000FF0280911F068093000360912006609348
:1021400001039FEF9093020390930303909116066F
:1021500097FF03C02DEF2093020395FF05C0209148
:1021600002032B7F209302032091290622FF05C042
:1021700020910203277F2093020394FF05C0209142
:1021800002032F7E2093020396FF05C020910203D5
:102190002F7D2093020320911806243021F42091F2
:1021A00002032F7B05C0223031F4209102032F77E8
:1021B0002093020309C0211102C02EEF03C0263074
:1021C00019F42DEF209303033091170631FF05C05A
:1021D000209103032B7F2093030330FF05C0209140
:1021E00003032F772093030390FF05C0209103037F
:1021F0002F7B2093030391FF05C0209103032F7EC3
:102200002093030392FF05C0209103032F7D2093A9
:10221000030393FF05C020910303277F209303034B
:1022200090913706911142C02091FD022695269586
:102230002695422F4871B8E04B9FA0011124909140
:10224000FC0296959695942B9093FC02267090E252
:10225000299F900111249091FE0296959695922BBC
:102260009093FD02869586958695282F2871A4E087
:102270002A9F900111249091FF029695969596952C
:10228000922B9093FE02B0E28B9FC0011124962FF7
:10229000969596959695982B9093FF0280910203C0
:1022A00080930003809103038093010365E18CEF29
:1022B00092E01DC30F931F938BB183608BB98AB1DA
:1022C0008C7F8AB985E1ECEFF2E0DF011D928A95FF
:1022D000E9F701E510E124E131E045E1BF0184E3E4
:1022E00091E00CD31F910F9169C3E4DF1092FB02C0
:1022F0008091FB028823E1F389E108958AE091E06F
:1023000008952F923F924F925F926F927F928F9299
:102310009F92AF92BF92CF92DF92EF92FF920F9374
:102320001F93CF93DF93CDB7DEB7E2970FB6F89444
:10233000DEBF0FBECDBF1DA61CA6A12CB12C78E020
:10234000E72EF12CDE01519680E090E02CA53DA512
:102350002453354FF901E80FF91FE491ED930196ED
:1023600086309105B9F7DE01119680E090E0FC011E
:10237000EC5CFB4FE081F0E0E453FF4FE491ED9320
:1023800001968A30910599F7AB817E8189898727EB
:1023900090E04A2F47702A8528ABFD819701241BC6
:1023A00031093AAB29AB9C0109A802C0220F331FA7
:1023B0000A94E2F702C0959587954A95E2F7822B39
:1023C00038A9831B8F278B87B9814A814EA78A89B9
:1023D000842790E04B2F4770E8859701241B310933
:1023E0003AAB29AB9C0109A802C0220F331F0A9403
:1023F000E2F702C0959587954A95E2F7822B871BF5
:102400008E278C873F813FA72B89232730E0698562
:102410006770C701861B9109A901082E01C0440FEE
:102420000A94EAF7062E02C0359527950A94E2F73A
:10243000242B2A1B2B272D872C892F2730E04E2F6A
:1024400047704BA79C81A701BBA54B1B51095AABF9
:1024500049ABA90109A802C0440F551F0A94E2F72D
:1024600002C035952795BA95E2F7242B291B2A2718
:102470002E872D895EA5252730E0AFA5A770A7017F
:102480004A1B51095AAB49ABA90109A802C0440F24
:10249000551F0A94E2F75AAB49AB02C03595279510
:1024A000AA95E2F7242B291B2F272F872E892E2769
:1024B00030E0F90102C0EE0FFF1F8A95E2F7CF016D
:1024C00002C0359527956A95E2F7822B871BF8A9FC
:1024D0008F27888B46E050E06EE274E0CE010B96C9
:1024E0000E94873295012F5F3F4F892B79F0590168
:1024F0002CA53DA52A5F3F4F3DA72CA737E0A3168B
:10250000B10409F01FCF10923F0480C1822F909137
:102510003204122F00E0090F111D04531F4FF80160
:102520000491F2E0AF0EB11C90913704FA2DEE2722
:10253000E90FF11DE453FF4FE491E027E0932604F7
:1025400090913004782E612C690E711C93012453F4
:102550003F4FF901649090913904FA2DEE27E90F6D
:10256000F11DE453FF4FE491E625E0932704909199
:102570003304582E412C490E511C920124533F4FD5
:10258000F901449090913B04FA2DEE27E90FF11DDB
:10259000E453FF4FE491E425E093280490912E0446
:1025A000D82EC12CC90ED11C960124533F4FF901DE
:1025B000949120913604FA2DEE27E20FF11DE45399
:1025C000FF4FE491E927E093290490912F04982E7E
:1025D000812C890E911C940124533F4FF901949151
:1025E00020913804FA2DEE27E20FF11DE453FF4F3E
:1025F000E491E927E0932A0490913104888F1F8A9F
:102600002F89388D290F311D24533F4FF9019491A3
:1026100020913D04FA2DEE27E20FF11DE453FF4F08
:10262000E491E927E0932B04909134048A8F198E6A
:10263000298D3A8D290F311D24533F4FF901949173
:1026400020913A04FA2DEE27E20FF11DE453FF4FDB
:10265000E491E927E0932C04909135048C8F1B8E34
:102660002B8D3C8D290F311D24533F4FF90194913F
:1026700020913C04FA2DEE27E20FF11DE453FF4FA9
:10268000E491E927E0932D0490912E048E8F1D8E06
:102690002D8D3E8D290F311D24533F4FF90194910B
:1026A00020913504FA2DEE27E20FF11DE453FF4F80
:1026B000E491E927E0931E049091330488A31F8ED0
:1026C0002F8D38A1290F311D24533F4FF9019491CB
:1026D00020913804FA2DEE27E20FF11DE453FF4F4D
:1026E000E491E927E0931F04909131048AA319A291
:1026F00029A13AA1290F311D24533F4FF90194918B
:1027000020913404FA2DEE27E20FF11DE453FF4F20
:10271000E491E927E0932004909130048CA31BA25C
:102720002BA13CA1290F311D24533F4FF901949156
:1027300020913D04FA2DEE27E20FF11DE453FF4FE7
:10274000E491E927E0932104909132048EA31DA225
:102750002DA13EA1290F311D24533F4FF901949122
:1027600020913B04FA2DEE27E20FF11DE453FF4FB9
:10277000E491E927E093220490912F0488A71FA2F7
:102780002FA138A5290F311D24533F4FF9019491F2
:1027900020913C04FA2DEE27E20FF11DE453FF4F88
:1027A000E491E927E0932304909137048AA719A6BE
:1027B00029A53AA5290F311D24533F4FF9019491C2
:1027C00020913904FA2DEE27E20FF11DE453FF4F5B
:1027D000E491E927E093240490913604382E212CCB
:1027E000290E311C910124533F4FF901249080910F
:1027F0003A04FA2DEE27E80FF11DE453FF4FE49160
:10280000E225E093250481E080933F04E2960FB631
:10281000F894DEBF0FBECDBFDF91CF911F910F9116
:10282000FF90EF90DF90CF90BF90AF909F908F90F0
:102830007F906F905F904F903F902F9008958630DB
:1028400028F4E0914004F09141040994089590EC3B
:10285000980F963098F480E490E029E430E0F90194
:10286000E81BF90BDC01A25EBC4F4C91EC5CFB4F0A
:10287000408301968634910591F708959AEB980F5D
:102880009630C8F480916403809337048091650387
:1028900080933604809166038093350480916703AA
:1028A000809334048091680380933304809169039A
:1028B00080933204089594EB980F9430B8F490917B
:1028C0006A039093310490916B039093300490913C
:1028D0006C0390932F0490916D0390932E0470E0FD
:1028E000680F711D6035710509F40BCD0895462FF1
:1028F00050E0BC018EE193E00C949432EF92FF9291
:102900000F931F93CF93DF9300D0CDB7DEB77C0139
:10291000CB0110923E041093410400934004642FB5
:1029200029833A83E4DF10920E0486E0F701ACE0DD
:10293000B3E001900D928A95E1F786E0ECE0F3E0D8
:10294000A8E1B4E001900D928A95E1F72981E22F88
:102950003A81F32F80E290E02191DC01A25EBC4F2E
:102960002C93019680349105B9F72FEF89E698E111
:10297000215080409040E1F700C0000058985998DD
:10298000509A8AB18C7F8AB910921D0310921C0351
:1029900084EA8093BA001092B90088E48093B8006A
:1029A00081EC8093BC00109237060F900F90DF915E
:1029B000CF911F910F91FF90EF90089580913E0469
:1029C000811109C08091BC0084608093BC0081E0CB
:1029D00080933E04789408951F920F920FB60F9241
:1029E00011242F933F934F935F936F937F938F9314
:1029F0009F93AF93BF93EF93FF938091B900887F2C
:102A0000803951F188F4803721F128F4803609F1BA
:102A10008836F9F0DEC08038F9F0883809F4D9C07A
:102A2000883709F0D6C015C0803B09F498C038F447
:102A3000803A09F489C0883A09F0CBC090C0803C44
:102A400009F4C5C0883C09F4C2C0883B09F48EC0B3
:102A5000C0C010921B03BBC080911B03882309F4E4
:102A600066C02091BB0080911C0390911D038E3F96
:102A7000910529F4233019F481E080933706809181
:102A80001C0390911D03803F910589F4253511F0B9
:102A90002A3A69F410923F0486E0ECE0F3E0A8E102
:102AA000B4E001900D928A95E1F71092180380919D
:102AB0001C0390911D03892B91F4243681F480919D
:102AC0001903882361F086E0E2E1F3E0A8E1B4E0D5
:102AD00001900D928A95E1F781E08093180380912F
:102AE0003F048823E1F0A0911C03B0911D03E09105
:102AF0001C03F0911D03E770FF27E25EFB4F80810E
:102B0000E0911C03F0911D03E770FF27EA5DFB4F86
:102B100090818227890FA25EBC4F8C934AC0E091BE
:102B20001C03F0911D03E25EFC4F208342C08091A4
:102B3000BB0090E090931D0380931C0381E0809381
:102B40001B0310921A0343C060911A0380911C0367
:102B500090911D0390911A03891B79DE38C08091F2
:102B60001C0390911D036BDE10921A0380913F04A9
:102B7000E0911C03F0911D03E25EFC4F8823B1F04D
:102B80008081E0911C03F0911D03E770FF27EA5D4F
:102B9000FB4F2081E0911C03F0911D03E770FF279C
:102BA000E25EFB4F9081821B892701C08081809368
:102BB000BB0080911C0390911D03019690931D030F
:102BC00080931C0380911A038F5F80931A0385EC16
:102BD00001C085E88093BC00FF91EF91BF91AF9158
:102BE0009F918F917F916F915F914F913F912F9125
:102BF0000F900FBE0F901F901895089510923806F1
:102C000057985F9A08950895549A57989BB19BB925
:102C1000811105C081E090E0A0E0B0E01CC081E03F
:102C200090E0A0E0B0E04F9B1FC000000196A11D06
:102C3000B11D883E23E09207A105B105A1F712C09E
:102C400000000196A11DB11D811523E5920727E023
:102C5000A207B10539F04F99F3CF883E9340A10503
:102C6000B10511F48FEF089598E080E0880F2BE014
:102C70002A95F1F700004F9981602CE02A95F1F731
:102C80000000915099F7803461F48FE291E0019750
:102C9000F1F700C0000089B180788093380680E4A5
:102CA000089508953AE03A95F1F700C0579A5F9871
:102CB00028E180E093E0A0E0B9E0B7FF09C035E08B
:102CC0003A95F1F700005F9A35E13A95F1F708C0BF
:102CD00035E13A95F1F700005F9A35E03A95F1F762
:102CE00000005F98880F991FAA1FBB1F215029F76A
:102CF0008AE08A95F1F700C057985F9A81E084CF07
:102D00002F923F924F925F926F927F928F929F92FB
:102D1000AF92BF92CF92DF92EF92FF920F931F93E9
:102D2000CF93DF93CDB7DEB765970FB6F894DEBFCC
:102D30000FBECDBF1092380680E066DF8D8B81110B
:102D400002C0B0DF8D8B412C512C3201D301C20166
:102D5000A66089839A83AB83BC83D301C201AA6036
:102D60008D839E83AF83B887D301C201A960898711
:102D70009A87AB87BC87D301C201A5608D879E87E8
:102D8000AF87B88BD301C201A460898B9A8BAB8BC0
:102D9000BC8B730162016894E3F8530142016894AB
:102DA000A1F8689460F822242A94312C9D899F3FD1
:102DB00009F4D8C09D89911102C074DF8D8BA0E108
:102DC000AA95F1F780911806863019F4B301A20193
:102DD0002FC0823019F4B501A4012AC0811103C0AB
:102DE000B701A60125C0843029F449895A896B8925
:102DF0007C891EC0853029F44D855E856F85788974
:102E000017C040E050E0BA01873029F449855A855F
:102E10006B857C850DC0813029F44D815E816F8189
:102E2000788506C0833021F449815A816B817C8189
:102E30008091160684FD606187FD606286FD606496
:102E400081FD02C0606802C06068716080FD7260D0
:102E500083FD746082FD786085FD70618091190644
:102E600090911A068101091B1109222717FD20954F
:102E7000322F182B042B152B262B372B40911B069A
:102E800050E060E070E080911C06F101E81BF10960
:102E9000CF01AA2797FDA095BA2FF0911F06742F96
:102EA000662755274427E09120064E2B5F2BDC0137
:102EB00099278827482B592B6A2B7B2B579A5F9889
:102EC00080E237FF09C0F5E0FA95F1F700005F9A5C
:102ED00095E19A95F1F708C0A5E1AA95F1F70000F0
:102EE0005F9AB5E0BA95F1F700005F98000F111FE7
:102EF000221F331F815029F780E277FF09C0E5E0E8
:102F0000EA95F1F700005F9AF5E1FA95F1F708C04C
:102F100095E19A95F1F700005F9AA5E0AA95F1F77F
:102F200000005F98440F551F661F771F815029F7D7
:102F3000BD89B13469F480E1E5E1EA95F1F700007B
:102F40005F9AF5E0FA95F1F700005F988150A1F7DC
:102F500085E08A95F1F7000057985F9A81E054DE8A
:102F60008D8B24CF80913806882319F09093E70544
:102F700002C01092E70565960FB6F894DEBF0FBE4B
:102F8000CDBFDF91CF911F910F91FF90EF90DF9018
:102F9000CF90BF90AF909F908F907F906F905F90F9
:102FA0004F903F902F90089529DE80E02DDE99B15B
:102FB00020E12A95F1F7811106C04F9B04C097FDCF
:102FC00002C081E1089580E008958AE391E00895C8
:102FD000089510923C0610923B0657985F9A089508
:102FE000089520E22A95F1F7579A5F9894E09A9510
:102FF000F1F7000098E087FF05C05F9A2DE02A9561
:10300000F1F708C029E02A95F1F700005F9A24E063
:103010002A95F1F700005F98880F24E02A95F1F7D0
:10302000915049F784E08A95F1F757985F9A08958F
:103030003AE03A95F1F700C0579A5F9884E08A9594
:10304000F1F7000020E180E095E097FF05C05F9A6E
:103050003DE03A95F1F708C039E03A95F1F7000004
:103060005F9A34E03A95F1F700005F98880F991F56
:1030700034E03A95F1F7215041F728E081E090E003
:1030800087FF05C05F9A3DE03A95F1F708C039E047
:103090003A95F1F700005F9A34E03A95F1F70000B5
:1030A0005F98880F991F34E03A95F1F7215041F766
:1030B00084E08A95F1F757985F9A089557989BB1E5
:1030C0009BB98F3F19F44F99FECF14C041E050E0F7
:1030D00060E070E08130A9F44F9B10C000004F5FAA
:1030E0005F4F6F4F7F4F403D37E0530761057105DC
:1030F00099F704C041E050E060E070E028E090E023
:1031000026C08230D9F44F9BF9CF00004F5F5F4F4C
:103110006F4F7F4F403990ED590793E06907710574
:1031200091F7ECCF00004F5F5F4F6F4F7F4F4039FB
:1031300030ED530733E06307710501F34F99F2CF88
:10314000DDCF3AE03A95F1F700C0215041F0990FF8
:1031500039E03A95F1F74F9BF4CF9160F2CF8111AE
:1031600007C040325E446105710589F0892F0895DA
:10317000813031F4403D574061057105B9F707C012
:103180008230A1F74039504D6340710579F78EEFD9
:1031900008951FDF82E092DF9AE19A95F1F700C06F
:1031A00099B1813031F4892F8078803811F483E22D
:1031B000089580E0089580913106882309F4A1C024
:1031C0008091340621E0833209F020E091E08031E3
:1031D00009F090E0922B21E08F3209F020E0292BBA
:1031E00091E0813409F090E0922B31E0893709F0C9
:1031F00030E0392B21E0873709F020E0232B91E0E4
:10320000382F3F7D333509F090E0922B21F48B7FEE
:103210008B3109F048C080911606982F9C709C3025
:1032200021F48061809316063EC082FF04C08B7F2C
:1032300080931606089583FF36C0982F977F90934A
:10324000160680911806863011F4946013C08230FF
:1032500021F48091170682601BC0811104C0809107
:103260001706816015C0843011F4986003C0873060
:1032700021F495609093160641C0853021F4809129
:1032800017068C6005C0813031F480911706836089
:103290008093170633C0833089F5809116068A60C3
:1032A000809316062BC0809118068630B9F08230C4
:1032B000E1F0811103C010921A0620C0843021F47D
:1032C0008FEF80931A061AC0873019F410921A06ED
:1032D00005C0853031F48FEF80931A0610921906DD
:1032E0000DC0813021F410921A068FEF05C0833093
:1032F00029F48FEF80931A06809319068FEF80933D
:1033000018060895DF92EF92FF920F931F93CF93C9
:10331000DF931F92CDB7DEB78BB18F7C8BB925E3DE
:103320002A95F1F700008FEFEFECEE2EFFE2DF2E93
:103330001FE70FEFFF24F39420ED37E090E049B151
:10334000440F440B9F5F942321503109211531050F
:1033500009F403C2953098F310923A061092390698
:1033600010923E0610923D06898325DF9091180643
:103370008981963031F42091390630913A063260D5
:1033800037C0923031F42091390630913A063160DD
:103390002FC0911106C02091390630913A0638604D
:1033A00027C0943031F42091390630913A063460C8
:1033B0001FC0953031F42091390630913A063660BD
:1033C00017C0973031F42091390630913A063A60AF
:1033D0000FC0913031F42091390630913A063960AE
:1033E00007C0933049F42091390630913A06356090
:1033F00030933A06209339069091160694FF09C03F
:103400002091390630913A06306230933A06209383
:10341000390697FF09C02091390630913A0620619C
:1034200030933A062093390696FF09C02091390659
:1034300030913A06206230933A0620933906409143
:10344000170640FD04C020911C06243648F4209144
:10345000390630913A06286030933A0620933906AF
:1034600093FD04C020911C06273948F020913906AD
:1034700030913A06246030933A062093390692FD43
:1034800004C020911B06243648F42091390630915F
:103490003A06226030933A062093390641FD04C073
:1034A00020911B06273948F02091390630913A06C1
:1034B000216030933A062093390691FF09C020918C
:1034C000390630913A06306830933A06209339062F
:1034D00090FF09C02091390630913A06306430934C
:1034E0003A062093390695FF09C02091390630919C
:1034F0003A06306130933A062093390690911906C6
:10350000903D10F0E0921906909119069F3210F448
:10351000D092190690911A06903D10F0E0921A068A
:1035200090911A069F3210F4D0921A062091190633
:10353000205830E0322F222790911A06412F491B44
:10354000242B30933E0620933D06B8DD813009F0F0
:1035500051C08AE08A95F1F700C0579A5F9894E0CD
:103560009A95F1F7000020E18091390690913A0692
:1035700097FF05C05F9AEDE0EA95F1F708C0F9E022
:10358000FA95F1F700C05F9A34E03A95F1F7000040
:103590005F988091390690913A06880F991F909311
:1035A0003A06809339062150F9F620E180913D06D4
:1035B00090913E0697FF05C05F9A4DE04A95F1F75E
:1035C00008C089E08A95F1F700C05F9A94E09A9567
:1035D000F1F700005F9880913D0690913E06880FBC
:1035E000991F90933E0680933D062150F9F600C046
:1035F00000C084C0811103C01BDD81E09DCE8F3FE0
:1036000049F40F90DF91CF911F910F91FF90EF90B0
:10361000DF900ECD823009F075C0E3E0F1E0319724
:10362000F1F700C0000080913B06882309F452C0E6
:10363000FAE2FA95F1F700C0579A5F9822E02A95CE
:10364000F1F7000080E091E020E827FF0AC032E0B7
:103650003A95F1F700005F9A4DE04A95F1F70000C6
:1036600008C0E8E0EA95F1F700C05F9AF5E0FA9546
:10367000F1F75F98269529F032E03A95F1F700C00E
:1036800001C020E80197009701F700C000C00000CA
:1036900088E098EB97FF05C05F9A4DE04A95F1F7F7
:1036A00008C0E9E0EA95F1F700005F9AF4E0FA95C6
:1036B000F1F700005F98990F24E02A95F1F7815007
:1036C00049F734E03A95F1F7000057985F9A109265
:1036D0003B0693CF40E24A95F1F7579A80E191E09B
:1036E0005F9AE4E0EA95F1F75F98FCE0FA95F1F76C
:1036F00001970097A9F725E02A95F1F70000579860
:103700005F9A7BCF833031F587EF90E00197F1F737
:1037100000C0000080E0D2DCE8EDFFE03197F1F777
:10372000803821F4F0923B0688EB12C08E3F11F4F2
:1037300081EE0EC08B3111F480E00AC0813021F49B
:103740000093E7058BEE04C0811157CF1092E70577
:1037500048DC53CF8E3F09F050CF0F90DF91CF91CF
:103760001F910F91FF90EF90DF90089584E491E016
:10377000089508950895089580E008958AB1836FAB
:103780008AB93E9A84B1886F84B929990AC0219A6E
:10379000299A8FE193E00197F1F700C0000021988A
:1037A00029988BB1806F8BB980911806873019F4F6
:1037B0008BB18F7504C0813021F48BB18F768BB9BA
:1037C00019C0853019F48BB18F79F9CF833019F492
:1037D0008BB18F7AF4CF811102C05F980BC0843017
:1037E00011F45E9807C0863011F45D9803C08230F2
:1037F00009F45C988091160681FF02C0589801C0B8
:10380000589A8091160687FF02C0599801C0599AAC
:103810008091160680FF02C0469801C0469A8091AA
:10382000160685FF02C02B9801C02B9A29991CC04F
:103830008091160684FF02C02C9801C02C9A8091BA
:10384000160686FF02C02D9801C02D9A809116069B
:1038500083FF02C02E9801C02E9A8091160682FF27
:1038600002C02F9801C02F9A1A9B03C08FEC94E8D6
:103870000AC09AE69A95F1F700C01A99F7CF3EC0B0
:103880000197009711F01A99FBCF8FEC97E01A99E6
:1038900003C001970097D9F78FEC97E01A9B04C0FB
:1038A00001970097D9F72AC08FEC97E01A9904C0C6
:1038B00001970097D9F724C08FEC97E01A9B04C0BA
:1038C00001970097D9F71CC08FEC97E01A9904C0B4
:1038D00001970097D9F714C08FEC97E01A9B04C0AA
:1038E00001970097D9F70CC08FEC97E01A9903C0A5
:1038F00001970097D9F7219829980895219A299A34
:1039000008958EE491E00895089510924204109273
:10391000430481E080934404579856988AB18F7C81
:103920008AB93E985E9A5F9A8BB180638BB9469A4A
:1039300088E08093810082E080936F00E8E8F0E007
:103940008FEF91E09183808386E090E09183808384
:10395000089508954E9BFECF8FEC97E00197F1F705
:1039600000C000004F9B14C04E9912C04E9BFECF6A
:103970004F99FECF8FE891E00197F1F700C000006A
:103980004F9B02C080E001C08FE24F9903C00895B1
:1039900080E0089581E20895CF93809142048823C6
:1039A00069F080911606882309F429C21092420416
:1039B0005D988FE891E00197F1F71FC2559A549AEC
:1039C0003E9A80910E06813211F08F3219F40E94D6
:1039D000AB0A4EC08F3109F04BC090911A0680910E
:1039E00019069E3420F48E3440F487E01EC0933BC9
:1039F00060F08E3430F485E018C0833B30F081E015
:103A000014C0833B10F083E010C08E3410F486E0C5
:103A10000CC0833B10F082E008C09E3418F4109272
:103A2000180605C0933B18F084E080931806909127
:103A30001C0680911B069E3418F48E34E0F005C0FD
:103A4000933B40F08E34D0F003C0833B18F502C0A6
:103A5000833BB8F48E34C0F0833BC8F49E34D0F07E
:103A600031E020E0933B08F430E0832F922F14C024
:103A700080E090E011C082E290E00EC083E090E030
:103A80000BC081E190E008C082E090E005C080E1D9
:103A900090E002C080E390E020911806211102C05E
:103AA00080611BC0243011F4806217C0263011F4ED
:103AB000806413C0223011F480680FC0273011F4E5
:103AC00080650BC0253011F4806607C0213011F4E9
:103AD000806903C0233009F4806A4091160645FDD1
:103AE000886044FD846020910E062132A1F541FDDD
:103AF000816040FD826020911D0621110FC0209140
:103B00001E0621110BC0209131062111F2C0209117
:103B1000190630E02115310509F4EDC0642F6370FA
:103B200041E050E011F040E050E0519541955109DD
:103B300031EE321B330F311D232F31FB27F932FBBE
:103B400026F933FB25F935FB23F936FB22F937FB40
:103B500021F930E0D2C02F31B1F440FD906141FD38
:103B60009062342F347042FD8260242F287043FD10
:103B70008160311192602111916046FD946047FD92
:103B80009860906CB6C02F3209F0B3C040FD8160E0
:103B900042FD826043FD926041FD916046FD94606C
:103BA00047FF02C09860A5C03091440420913106BF
:103BB0003430C1F1211105C0209143042F5F2093BF
:103BC000430420914304233310F12091190630E07F
:103BD0002B303105CCF420911B0630E02B30310521
:103BE0009CF420911A0630E02B3031056CF42091C2
:103BF0001C0630E02B3031053CF420911D062111CC
:103C000003C020911E06211190681092430434E6EF
:103C10003093480420EA20934704309346042093CD
:103C2000450467C09068222351F021E020934404AA
:103C30009F77EFE3FCE93197F1F700C00000609156
:103C40001D06E09116062091340661112DC0609189
:103C50001E06611129C0E6FD02C0253429F420E8C2
:103C600020931C0620931B06E7FF05C020E8209345
:103C70001A06209319067091190660911B06472FAA
:103C800050E0262F30E0421753070CF0672FF091D9
:103C90001A0670911C064F2F50E0272F30E0421774
:103CA00053071CF07F2F01C070E8209147042717AD
:103CB00010F47093470420914804721710F4709325
:103CC000480420914504261710F460934504209180
:103CD0004604621710F4609346047093490460939D
:103CE0004A048827907F2E2F2F7009F09260E5FDFF
:103CF000916020E030E040E050E060910E066F32CD
:103D000021F06F3111F0B8E001C0B0E16FE074EA6A
:103D10004E9906C06150710961157105C9F769C0F6
:103D2000A9E16BB160636BB9C0E061E070E0FB01D9
:103D3000E823F923EF2B11F05D9801C05D9AFB0198
:103D4000E423F523EF2B11F05C9801C05C9AFB0192
:103D5000E223F323EF2B11F0469801C0469A660F39
:103D6000771FE0910E06E132C9F4E0918100E56031
:103D7000E093810078941092850010928400109254
:103D8000E905B19924C04F99FCCFB19A10928500F2
:103D90001092840010928100F8940BC0EF3119F456
:103DA0004F99FECF06C0EF3221F44F99FECF4F9BC3
:103DB000FECFCF5FCB1708F4BACFE0910E06E13209
:103DC00031F4A15009F0ADCF81E080934204B19A63
:103DD000109285001092840010928100F8948091D6
:103DE0000E06813219F46230710519F45D985C9801
:103DF000469887EC90E00197F1F700C00000CF9162
:103E0000089588E591E0089508955198599A3E984B
:103E1000469A509A10924C0410924B0408950895BB
:103E200070E090E06115710569F19B012823392349
:103E3000232B11F0589A0AC0589808C0369917C019
:103E40002F5F3F4F30936D0120936C0120916C01E7
:103E500030916D01283840E9340780F308C0369B63
:103E60000EC02F5F3F4F30936D0120936C01209166
:103E70006C0130916D01283840E9340780F3769564
:103E80006795D0CF58980895DF92EF92FF920F93E5
:103E90001F93CF93DF93D0901906E0901A06F0900D
:103EA0001E0680913106882329F010924C0410924E
:103EB0004B040AC08EEC8D0D873930F081E090E024
:103EC00090934C0480934B0480914B0490914C044C
:103ED000209118063091160640911706019741F57A
:103EE000243049F0222351F0223059F0263061F07D
:103EF00000E010E00BC000E014E008C000E018E0B3
:103F000005C000E012E002C000E011E030FD1064E6
:103F100031FD106136FD106837FD106135FD006818
:103F200034FD006441FD006140FF37C0006235C0D0
:103F3000253009F404C1273009F404C1213059F0B7
:103F40002330B1F02430B9F0C0E0D0E8211106C030
:103F5000C0E0D8E812C0C0E0D4E90FC0223019F4A4
:103F6000C0E0D4E80AC0263041F4C0E0D2E805C081
:103F7000C0E0D2E902C0C0E0D0E930FDD16031FD3F
:103F8000C06837FDC06435FDC06234FDC06141FDCD
:103F9000C86040FF04C0C46002C0CBE7D1E020EDA0
:103FA00037E080E0369902C08F5F01C080E090E189
:103FB0009A95F1F7215031092115310509F4C5C051
:103FC000853080F3509A20916C0130916D01283832
:103FD00080E9380748F4369913C02F5F3F4F30937C
:103FE0006D0120936C01EFCF2838304949F4ADC002
:103FF000369B0EC02F5F3F4F30936D0120936C01B5
:1040000020916C0130916D01283880E9380780F3E8
:1040100080914B0490914C04019711F458980AC078
:10402000589A08C036990EC02F5F3F4F30936D01EC
:1040300020936C0120916C0130916D01283890E93A
:10404000390780F381E090E090936D0180936C01DB
:10405000D7FF02C0589A01C0589885E18A95F1F7B8
:10406000000036996AC060E48D2FDADE60E88C2F9C
:10407000D7DE20914B0430914C04232B09F45DC012
:1040800060E888E0CDDE60E88D2DCADE82E0209118
:104090006C0130916D01283890E9390788F4369920
:1040A0000FC02F5F3F4F30936D0120936C01EFCF16
:1040B000369B0EC02F5F3F4F30936D0120936C01F4
:1040C00020916C0130916D01283890E9390780F317
:1040D0008150E9F660E88E2DA3DE82E020916C012C
:1040E00030916D01283890E9390788F436990FC06E
:1040F0002F5F3F4F30936D0120936C01EFCF369BC4
:104100000EC02F5F3F4F30936D0120936C012091C3
:104110006C0130916D01283890E9390780F38150A6
:10412000E9F660E88F2D7CDE68E082E079DE60E809
:10413000812F76DE60E8802F73DE589A06C0C0E0DB
:10414000D2EA1BCFC0E0D4EA18CFDF91CF911F9104
:104150000F91FF90EF90DF90089581E090E09093B1
:104160006D0180936C0180916C0190916D01883894
:1041700020E9920720F4369907C00196F0CF8838DD
:10418000904911F480E0089587E998E00197F1F7EC
:1041900000C000003699F6CF81E090E090936D0169
:1041A00080936C0180916C0190916D01883820E9B9
:1041B000920720F4369905C00196F0CF88389049CF
:1041C00009F3499BDFCF8FED9EE20197F1F700C025
:1041D00000004F9BD7CF8BE2089582E691E00895CF
:1041E00008951092400610923F060895089583B1F5
:1041F0008E3F59F481E090E09093400680933F0613
:1042000090934E0480934D040DC083B18C3F61F4B4
:1042100081E090E09093400680933F0610924E0418
:1042200010924D0481E3089580E008950E94AB0A46
:1042300080911806843081F0823081F0882381F0EB
:10424000863081F0873081F0853081F0813081F0D7
:10425000833081F020E00FC020E40DC020E10BC0CE
:1042600020E809C020E207C020EA05C020E603C01C
:1042700020E901C020E540911606642F617040FDE1
:1042800002C050E001C050E480913F06909140068A
:10429000342F32708130910571F461112160311138
:1042A00022603091290632FD206C44FD206345FFD9
:1042B0001DC0206E1BC0611121603111226042FDC2
:1042C00002C030E001C030E843FD306446FD30629A
:1042D00047FD30614091170640FD386041FD346074
:1042E00046FD326047FF03C0316001C030E0EBB1F2
:1042F00078B165B1009709F499C0422F4095E36FFA
:104300004E23019719F483E0842701C0842F8BB9D1
:1043100080914D0490914E04892B09F068C0409122
:104320001D0641110DC080911E06811109C08091AA
:104330003106811157C080911606807F09F452C062
:104340008AB1816F8AB93E9A8091160680FF02C0B9
:10435000469801C0469A411126C040911E0641115F
:1043600022C08091310681111EC080911606807F87
:10437000D1F05091190640911B06252F30E02058AE
:10438000310937FF03C0319521953109842F90E021
:104390008058910997FF03C091958195910928173D
:1043A00039070CF0452F40FB87F941FB86F942FBAA
:1043B00085F943FB84F9042E04FA47F905FA46F916
:1043C00006FA45F907FA44F9589A807F8BB983EDCC
:1043D00090E00197F1F700C000005898407F4160DD
:1043E0004BB908958BB183608BB921FD5898852F07
:1043F0008095972F9064892388B9832F8095962F75
:104400009E6F892385B980913F0690914006019760
:1044100009F423602AB980914D0490914E04892BB0
:1044200019F48AB183608AB957B934B908958EE610
:1044300091E0089508950895109256041092500442
:104440003E9A469A8AB1806F8AB98BB18FEF8BB949
:104450001092580482E08093570410924F040895FC
:104460008FEC8BB989B18370833011F580E090E0D7
:1044700029B12370213029F0019681152AEF920786
:10448000B9F72FEF2BB981159A4F91F020E030E06A
:1044900089B18370813031F42F5F3F4F21158AEF4E
:1044A0003807B1F78FEC8BB981E021153A4F09F449
:1044B00080E008953E9A46988AE38A95F1F700C015
:1044C000469ACEDF882359F08FE39CE90197F1F7F4
:1044D00000C00000C5DF89B1837019F0089580E045
:1044E000089585E0089599B19370E9F7982F9F603A
:1044F0009BB9469899B193709130E1F720E1829F82
:10450000C00111248F608BB9469A08951F93CF93F1
:10451000DF9380911806853089F0873091F08130E3
:1045200099F08330A1F08823A9F08430B1F086306F
:10453000B9F08230C1F0CFEFDFEF17C0CFE9DFEF86
:1045400014C0CFEADFEF11C0CFE6DFEF0EC0CFE53A
:10455000DFEF0BC0CFEEDFEF08C0CFEDDFEF05C020
:10456000CFEBDFEF02C0CFE7DFEF90911606792F98
:10457000727091FDCE7F97FF05C0811102C0DF7779
:1045800001C0CD7F90FDCB7F95FDC77FF92FF074E3
:1045900096FF05C0811102C0D77F01C0DF7E93FD69
:1045A000DF7DE92FE47092FDDF7B2091170621FD6E
:1045B000DF7720FDD77F20913406522F5B7F31E0DB
:1045C000293709F030E061E0233209F060E041E092
:1045D000203109F040E0462B61E02F3209F060E025
:1045E000462B61E0213409F060E0462B432B61E06B
:1045F000273709F060E0462B61E0A22FAF7DA3359D
:1046000009F060E0642B11F45B31A1F4492F4F7085
:104610004F3081F4882321F040911A06423320F470
:1046200041E040934F0406C0843011F04B3A10F043
:1046300010924F0440914F04442309F446C09E0158
:1046400022273071CE0182709927AE014170552723
:10465000C2FF03C0C560D06103C0CE7FC460D0611B
:10466000452B09F4DF7E232B09F4D77F892B09F42E
:10467000DF77809119068E3410F4CF7B0DC0833B19
:1046800010F0CF7709C080911A068E3410F4CF7ED7
:1046900003C0833B08F0CF7D80911B068E3410F45D
:1046A000DF7B0DC0833B10F0DF7E09C080911C06CC
:1046B0008E3410F4DF7D03C0833B08F0CE7F8FE1A2
:1046C0008BB989B18370E9F75FC0409156044130DE
:1046D00009F448C010925004253451F0203431F0D0
:1046E0002A3079F4FF2321F0CE7F02C0E111D77F79
:1046F0001092560422E02093580423E0209357049C
:1047000021C020911D06222391F0533711F033234D
:1047100071F07111CB7F23E02093570422E02093A6
:1047200058042093560421E0209350040BC020919C
:1047300019062253273930F026E02093570421E050
:1047400020935804843071F49378933859F482E0BC
:104750008093580483E08093570481E0809356044B
:104760008093500480913106882349F010925804B8
:1047700082E08093570410925604109250048FE107
:104780008BB989B18370E9F710915704809158046F
:1047900020E1829FC0011124812BA5DE133009F096
:1047A00078C0C095D09580915604823019F420913C
:1047B0001D0607C0833019F420911E0602C0209107
:1047C0001906822F90E030915504831B91092093A4
:1047D000550497FD02C0CF7E01C0C0613091340600
:1047E00040915004343471F0442361F0283C20F0AF
:1047F000CF7E88E39FEF13C0213420F4C06188ECA2
:1048000090E00DC09C012A513F4F2D3C314038F0C3
:10481000CF7E8091530484FDC0618091520491E069
:10482000980F909319068093520420911A06822FB4
:1048300090E030915404831B91092093540418167E
:10484000190614F4C06201C0CF7D442361F0283CF6
:1048500020F0C06282E390E013C0213420F4CF7DC9
:104860008EEC9FEF0DC09C0126503F4F253F3140FD
:1048700038F0CF7D8091530485FDC0628091510452
:10488000982F919590931A0680935104CF73C093FB
:1048900053048C2F28DE1330E1F48091190623DEB7
:1048A00080911A0620DE153040F080911F061BDE35
:1048B000153019F08091200616DE81E014DE87ECB9
:1048C00090E00197F1F700C00000DF91CF911F91B8
:1048D00008958D2F08DE133080F3DFCF88E791E055
:1048E000089508952FEF20935F0420935E04209392
:1048F0005D0420935C048AB1836F8AB9E1E8F0E03B
:1049000088E0808382E080936F00A8E8B0E08FEFBA
:1049100091E011969C938E9380E098E011969C9381
:104920008E93209360041092650410926404109298
:104930005B0420935A048081856080837894109270
:1049400085001092840081E0809359040895B19A03
:10495000109285001092840010928100F8940895BE
:10496000109265041092640483B1807F803FC9F483
:1049700080916404909165040196909365048093FE
:10498000640481159A4F81F70CC080916404909162
:1049900065040196909365048093640481159A4F91
:1049A00021F083B1807F803F81F3809164049091F6
:1049B000650481159A4F28F523B1207F35E01092C8
:1049C00065041092640443B180916404909165047D
:1049D00081155AEF9507B8F401969093650480937A
:1049E000640483B1841781F383B12823822F8295D5
:1049F0008F7079F0809164049091650481159A4FCD
:104A000028F080E0089580EF90E0EFCF3150B9F6C4
:104A1000F8CF85E1089523B190E0981749F035E08B
:104A20003A95F1F7000033B1321304C09F5FF5CF20
:104A300080E0089581E00895823009F478C028F478
:104A4000882369F0813051F10895843021F0853058
:104A500009F4FEC0089540E021E030E097C0809165
:104A60005E048BB91D9BFECF80915C048BB91F9BAC
:104A7000FECF80915F048BB91C9BFECF80915E04BA
:104A80008BB91D9BFECF80915D048BB91E9BFECF21
:104A900080915C048BB91F9BFECF089580915C04CC
:104AA0008BB983B1807F803FE1F31F9BFACF809168
:104AB0005F048BB983B1807F803FE1F31C9BFACF09
:104AC00080915E048BB983B1807F803FE1F31D9BB1
:104AD000FACF80915D048BB91E9BFECF80915A0462
:104AE0008F3F09F486C0813009F0C6C080915C0414
:104AF0008BB983B1807F803FE1F31F9BFACF809118
:104B00005F048BB983B1807F803FE1F31C9BFACFB8
:104B100080915E048BB983B1807F803FE1F31D9B60
:104B2000FACF80915D048BB91E9BFECF08958091D2
:104B30005F048BB91C9BFECF80915C048BB91F9BDB
:104B4000FECF80915D048BB91E9BFECF80915E04E9
:104B50008BB91D9BFECF80915F048DC01C9BFECF47
:104B600080915E048BB91D9BFECF80915D048BB953
:104B70001E9BFECF80915C048BB91F9BFECF413002
:104B800029F5809159048230C1F04F5F809159041A
:104B9000481740F5309365042093640480915F04C6
:104BA0008BB91C9BDBCF80916404909165040196C6
:104BB0009093650480936404F4CF88EC2CDF8130FB
:104BC00009F05AC083E08093590408954230E9F611
:104BD00080916404909165048D329140B0F24093CD
:104BE0005904D3CF823008F047C080915A048F3FD8
:104BF00029F488EC10DF80935A0408958130E1F5A0
:104C000080915D048BB91E9BFECF80915E048BB9B1
:104C10001D9BFECF80915F048BB989B1807F803F5F
:104C200039F488ECF8DE813019F482E0809359047D
:104C300080915F0481FF20C088ECEDDE8130E1F4DB
:104C400080915F048BB985E38A95F1F700000895A0
:104C50001F9BFECF80915F048BB91C9BFECF809180
:104C60005D048BB91E9BFECF80915E048BB91D9BAA
:104C7000FECF80915C048BB90895809160048830E8
:104C8000B1F480916104823009F040C080916204E7
:104C9000883009F05EC080916304813009F059C00A
:104CA00010925B04509A589A5898589A08958130F7
:104CB00009F04FC0809161048230A1F480916204B8
:104CC000843009F046C090916304983009F041C0E7
:104CD00080935B0482E0509A589A5898589A815071
:104CE000D1F708958830A9F580916204843089F560
:104CF00080916304823069F580935B0483E0509A6D
:104D0000589A5898589A8150D1F70895813009F5EA
:104D100090916204923071F4909163049430C9F4DC
:104D200080935B0484E0509A589A5898589A81501E
:104D3000D1F70895943069F480916304823049F486
:104D400085E080935B04509A589A5898589A8150FD
:104D5000D1F708958FEF80935F0480935E04809372
:104D60005D0480935C040E94AB0A9091160695FF47
:104D700005C080915F048D7F80935F0497FF05C01D
:104D800080915F048F7780935F0480911806823052
:104D900021F480915F048F7B29C0863021F48091BB
:104DA0005F048F7D23C0843021F480915F048F7E67
:104DB0001DC0811104C080915F048E7F17C08730B1
:104DC00021F480915F048E7D11C0853021F48091A3
:104DD0005F048F7C0BC0813021F480915F048E7B57
:104DE00005C0833029F480915F048F7A80935F043B
:104DF00091FF05C080915E048F7780935E0480915F
:104E00001706582F517080FF05C020915E042F7B3C
:104E100020935E0483FF05C020915E042F7D2093C4
:104E20005E0486FF05C020915E042F7E20935E0401
:104E30002091290621FF05C030915E043E7F30930A
:104E40005E0490FF05C030915D043F7730935D04B0
:104E5000482F427081FF05C030915D043F7B309345
:104E60005D0484FF05C030915D043F7D30935D0497
:104E700087FF05C030915D043F7E30935D0422FFC3
:104E800005C030915D043E7F30935D0494FF05C002
:104E900030915C043F7730935C0482FF05C0309111
:104EA0005C043F7B30935C0485FF05C080915C040B
:104EB0008F7D80935C0420FF05C080915C048F7E11
:104EC00080935C0423FF05C080915C048E7F8093F7
:104ED0005C04809134068B3009F45CC031E0282FEB
:104EE0002F7D283009F030E021E0833009F020E008
:104EF000232B31E06CEE680F623008F030E0322B8B
:104F000021E068EE680F623008F020E0232B392F93
:104F10003074211103C08B7F813271F520915E04C2
:104F2000822F806480935E0480915D04682F6064AA
:104F300060935D04552321F02F7D206420935E044F
:104F4000442329F020915C042F7D20935C043323BB
:104F500029F020915C042F7E20935C0493FF04C011
:104F60008F7E806480935D0492FF14C080915E0404
:104F70008F7E80935E040EC0332329F080915E04FF
:104F80008F7D80935E0497FF05C080915C048F7DC8
:104F900080935C04809160048F3F09F049C083EFE7
:104FA0008BB9B19A10928500109284001092810002
:104FB000F8941092E90583B1807F803FE1F333B12B
:104FC00030953093600483B18323E9F383B1807F0C
:104FD000803FE1F323B120952093610483B18223C4
:104FE000E9F383B1807F803FE1F393B19095909393
:104FF000620483B18923E9F383B1807F803FE1F3C9
:1050000083B180958093630443B14823E9F33295DB
:105010003F703093600422952F7020936104929525
:105020009F709093620482958F70809363040895BB
:1050300080915B04811101C020DE80918100856038
:1050400080938100789410928500109284001092D1
:1050500065041092640480915B04EEDCB19A1092B6
:1050600085001092840010928100F8941092E90556
:10507000089582E891E0089508958AB181678AB918
:1050800008950895CF93DF93F8DFC03184EAD807FD
:1050900020F44F9906C02196F8CFC03184EAD80792
:1050A00039F088E08A95F1F7369B02C04F9905C028
:1050B00080E01FC0369B09C02196C03184EAD80722
:1050C000C8F3C03184EAD80799F34F9BF1CF03C0EE
:1050D0004F9B08C02196C03184EAD807C8F3C0317D
:1050E000D44A31F396B1892F807496FDE1CF4F9B5E
:1050F00087E2DF91CF910895CF93DF930E94AB0AAF
:105100003091160635FD02C09FEF01C09FEE209141
:105110001806223009F46AC0263009F469C0243028
:1051200049F0222389F0273089F08FEF253021F4D0
:105130008FEA0DC08FEB0BC0213011F48EED07C04C
:10514000233029F48EEB03C08FED01C08FEC31FDCD
:105150009F7D30FD9E7F34FD9F7B232F2C7C69F04B
:1051600037FD02C02FEF01C02FED33FD2F7E32FD42
:105170002F7B36FF07C02E7F05C0292F382F9FEFCA
:105180008FEF05C03EE803C0369905C02196C031B7
:1051900044EAD407C8F33BB903C04F9B05C021962E
:1051A000C03144EAD407C8F32BB93E3841F084EF4C
:1051B00091E0369906C001970097D9F702C0292FD0
:1051C000382F80E090E0369905C00196843F41E099
:1051D0009407C9F73BB94F9B05C00196803134EA6B
:1051E0009307C8F32BB9DF91CF9108958EEFAFCF1E
:1051F0008FEEADCF8CE891E00895089584B18FEFE4
:1052000084B9089508958BE10895CF93E1EDF1E01D
:1052100020E030E0C0E0DC01022E02C0B595A79589
:105220000A94E2F7AB01022E02C0559547950A9405
:10523000E2F7181619063CF46A0F7B1F841B950BC6
:105240004081C40F06C06A1B7B0B840F951F4081F1
:10525000C41B2F5F3F4F319625303105E1F68C2F6F
:10526000CF910895CF93DF93D0911906D058C09174
:105270001A06C0586D2F772767FD709577FF03C01A
:105280007195619571098C2F992787FD90956333EE
:10529000710564F49C0197FF04C022273327281B63
:1052A000390B2333310514F48FEF68C097FF03C027
:1052B000919581959109A9DF90E0D7FD1FC01C163B
:1052C00074F48B3091050CF444C081329105DCF10B
:1052D00088339105D4F18E349105CCF12EC0CC23C6
:1052E00019F38B309105ACF181329105A4F188332B
:1052F00091059CF18E34910594F10EC0C7FF11C049
:105300008B309105A4F1813291055CF188339105D0
:1053100054F18E3491054CF18A3591052CF68FEBC2
:105320002DC08B3091051CF18132910514F1883329
:1053300091050CF18E34910504F18A3591050CF03C
:10534000B3CF8FEE1BC08EED19C08EEC17C08FEC63
:1053500015C08FED13C08FE911C08EE90FC08EEB21
:105360000DC08EE70BC08EE309C08FE307C08FE747
:1053700005C08FE603C08EE601C08EEE9091180640
:10538000209116069F3F01F1943011F48F7E3CC0AE
:10539000923011F48F7D38C0911102C08F7B34C0E0
:1053A000963011F48F7730C0973011F48E732CC083
:1053B000953011F48E7628C0913011F48E7924C086
:1053C000933011F58E7C20C09091170690FD877E5A
:1053D00091FD8B7E92FD8D7E93FD877D94FD8B7D6F
:1053E00095FD8D7D96FD877B97FD8B7B90912906A2
:1053F00090FD8D7B91FD01C024FD877792FD8B7719
:1054000093FD01C025FD8D7720FD897F21FD857FDE
:1054100022FD01C027FD837F85B9DF91CF910895DB
:1054200086E991E008950895109269041092680445
:105430008FEF85B98BB93E988AB18F738AB98FE0A7
:1054400084B98AB180638AB9089508950895109245
:105450006704109266042FEF89EF90E0215080409E
:105460009040E1F700C000008091660490916704CD
:105470008031E7E29E07E8F41C9B06C001969093FA
:10548000670480936604F0CF99E080E123B128237C
:1054900081F423B1207F69F0880F803108F480E126
:1054A000915069F0E3E1F2E03197F1F700C00000BC
:1054B000EDCF509A589A5898589A80E008958BE00A
:1054C000089580EA91E008950895579A82E08093C4
:1054D000440608950895E3E0FDE03197F1F700C038
:1054E00000005F9AE3E0FDE03197F1F700C00000B3
:1054F00020E030E090E0AC01022E02C055954795C7
:105500000A94E2F740FF02C05F9801C05F9AE3E0AF
:10551000FDE03197F1F700C000002F5F3F4F2730CB
:10552000310549F75F9883E09DE00197F1F700C0EE
:105530000000E3E0FDE03197F1F700C000005F9864
:105540000895CF93DF936091160690914106809164
:10555000180669130FC0209119069091430629136C
:1055600009C020911A0690914206291303C08F3F6B
:1055700009F4D0C065FF09C090914406923011F43F
:105580009AE001C092E090934406811105C020E8A2
:1055900080914406281B05C0843029F420914406DC
:1055A000205890E891C0863029F490E88091440614
:1055B000981B05C0823029F490914406905820E849
:1055C00083C0873029F490E880914406981B16C068
:1055D000853039F48091440620E8280F90E8981B24
:1055E00073C0813031F49091440620E8291B905813
:1055F0006BC0833029F4909144069058292F64C0E1
:1056000050911A0640911C06252F30E02058310990
:1056100037FF03C0319521953109842F90E08058E0
:10562000910997FF03C09195819591092817390732
:105630000CF0452F7091190650911B06272F30E072
:105640002058310937FF03C0319521953109852F45
:1056500090E08058910997FF03C091958195910939
:10566000281739070CF0572F5093190640931A0644
:1056700089E8850F833110F0952F01C090E889E803
:10568000840F833110F0242F01C020E880911D0683
:1056900081110CC080911E06811108C080913406D2
:1056A000853421F0803411F08A3071F420E8809143
:1056B0004306922F981B950F80914206281B240FBA
:1056C00050934306409342066093410660FD02C03A
:1056D00030E401C030E561FD306266FD30E7D0E8BE
:1056E000D90FC0E8C20F4C2F459545954595459576
:1056F0004C708D2F8295869586958370482B842FCC
:10570000832BE9DE8D2F8F73E6DE8C2F8F73DF9175
:10571000CF91E1CEDF91CF9108954D9BFECF8CE2EA
:10572000DACE80916A04882311F080E0089581E048
:1057300080936A044D99F9CF25E32A95F1F700008B
:105740004D99F3CFC2DEE9DFE8DF4D9BFECF8AE45F
:10575000C2DE80E0C0DE80E0BEDE80E0BCDE4D99CF
:10576000FECF4D9BFECF8AE4B6DE80E0B4DE80E063
:10577000B2DE80E0B0DE8FEF99E628E18150904004
:105780002040E1F700C0000082E308958AEA91E03A
:105790000895089584B1806C84B985B1806C85B911
:1057A0002F9888E020E495B1922795B98150D9F7D8
:1057B00085B1806C85B908958BB18F738BB98AB12F
:1057C0008F738AB985B1806C85B984B18F7384B9C0
:1057D00080916B00806880936B0078948091680062
:1057E0008E7F809368001092720480E2809371042F
:1057F00080913406853421F0803411F08A3019F418
:1058000080E092E002C081E090E090936F0480938A
:105810006E040895E8E6F0E080818E7F808308952D
:1058200028E030E040E89FEB60E370EC592F5095A2
:10583000E42FE82395B9EE2329F000C075B900C024
:1058400055B902C000C065B9952F46952150310960
:105850002115310559F70895CF92DF92EF92FF920B
:105860000F931F93CF93DF931F92CDB7DEB7E82E30
:105870006C01F12C8C2D8E19861758F48601F601D7
:1058800081916F016983CCDFF8018081F8266981FD
:10589000F1CF8F2D0F90DF91CF911F910F91FF903E
:1058A000EF90DF90CF90089587DF109270041092F0
:1058B0000F06D89AE8E6F0E080818160808383B1AA
:1058C0002FEF8AE693E0215080409040E1F700C03E
:1058D000000083B180E00895CF93DF9310927004AD
:1058E00010920F06D89A80916800816080936800BA
:1058F00080910F06811105C025E02A95F1F700007F
:10590000F7CF209170048FEF820F8E3F08F019C2FD
:10591000213008F403C2233020F0293009F452C0AA
:10592000FDC185E08093A204809172048093A1045C
:10593000809171048093A0048CE180939F048091F6
:105940006E0490916F048130910521F480E7E6E4C4
:10595000F2E006C08115924049F480E7E6EDF1E0FF
:10596000A3EAB4E001900D928A95E1F7213029F481
:1059700011DF64E78FE994E0CFC180919F0490919B
:10598000A004A091A104B091A20480931305909368
:105990001405A0931505B093160580E7E3EAF4E03B
:1059A000A7E1B5E001900D928A95E1F740E550E05E
:1059B00066EB72E087E895E0C0D5ECDE64EC83E14D
:1059C00095E0AAC160911806653089F0673091F0C2
:1059D000613099F06330A1F06623A9F06430B1F032
:1059E0006630B9F06230C1F02FEF30E017C02FE918
:1059F00030E014C02FEA30E011C02FE630E00EC0D6
:105A00002FE530E00BC02FEE30E008C02FED30E086
:105A100005C02FEB30E002C02FE730E07091160692
:105A200070FD2B7F71FD2D7F77FF03C08FEF80937B
:105A3000200672FD03C04FEF50E002C04BEF50E074
:105A400073FD4D7FE72FE07476FF03C08FEF8093E7
:105A50001F0675FD277FB0911A06D0911C067F3076
:105A600011F5643071F480E092E090936F048093BC
:105A70006E044FEF85EA9EE0415080409040E1F790
:105A80000FC0611110C081E090E090936F0480938B
:105A90006E042FEF35EA4EE0215030404040E1F7F0
:105AA00000C000004EC180916E0490916F0481305F
:105AB000910509F04CC0809134068A30A1F46091C0
:105AC000190690E8960F80916D04981B80E88B0F63
:105AD00070916C04871BB0936C0460936D04909379
