:100000007AC5000094C5000092C5000090C50000AC
:100010008EC500008CC500008AC5000088C50000A0
:1000200086C5000084C500000C94BC2580C5000076
:100030007EC500007CC500007AC5000078C50000C0
:1000400076C5000075C5000072C5000070C50000CF
:100050006EC500006CC500006AC5000068C50000E0
:1000600066C5000064C5000062C5000060C50000F0
:100070005EC500005CC500005AC5000058C5000000
:1000800056C5000054C5000052C5000050C5000010
:100090000C94BD124CC500004AC5000048C50000C4
:1000A00046C5000044C5000042C50000A70CAF0CC7
:1000B000250C770CC90CDA0CF80C150D120E120E6B
:1000C000120E120E230D3B0D120E4C0D70510386B5
:1000D000400D4FEB3ECCD18735BDF50B5ED0F8F22D
:1000E000D5E26C310CADFC21C378C106C24C55E69B
:1000F0004A3448111EDAE71A84A096A7E37FAF635B
:100100009CFA235B79C89EBAB2C922124BB3A1B63E
:100110003249A2E189391066C5078F54EA91CA3F76
:10012000F919F0D746BC281B61E82F6AAE9DF64E40
:100130000914774DDB1F2E7B7CF143A300B8138C91
:1001400085B9297588FDD2561C509741E53B60B5AD
:10015000C064EE98D62D25A4AACD7DA883C6ABBEDB
:100160004499263CCE9FBFD3CB767A7E82018A9A71
:10017000801D0EB05CD43862F430E08E53B7025765
:10018000ACA6520A6D9265172433457274B1B4F768
:100190005DED2CFF47375A90BBDF2A165995D9C41D
:1001A000276773C768FEA5DD6B5F93D8EC053A8DB2
:1001B0006EFB3DA96936F394DEEF156F8B9B080F3C
:1001C000DC81182004E471CFE92B425801A0A96218
:1001D000D63F85A7B6D4FA15661709BD5D14342637
:1001E00059729154064FF8B05B7493998CF245CDD7
:1001F000EA4EAD104AE5CAEEDFC66F9F888E02CC8C
:1002000008A877946D21B128E43979966071811638
:100210002EE678B9C4469A42AEB77C43B3221A861A
:10022000C2323D2D9CD229E9639BD131385E1E3606
:1002300041BB03182B3EBF6861FC52C0DEE00A5888
:10024000135A00BE1C900E5312FDE26EBACE242744
:10025000447F87A3A1D55040E3F983F7C7A235C8EF
:10026000DB19AB2F1125ED339E55E148AF7384DACE
:100270002AAA51EB9D95B2CBE77080FE4C6504EF46
:10028000C5F1C33AB4F55F2389DD30A58BD3F6DC25
:100290004D64D7F08FEC56375CA40D07768A2C0B93
:1002A000B5D8C11FE83BF44B1B476C49677B92CF25
:1002B000757E20D97D3C977AD0056B0F1DFB829807
:1002C000578DF36ABCACC9A6FFB8690C4C4D7207D8
:1002D0005A49338DA2AB463D630DA097FFF0F5FA66
:1002E000C0E9DB62E4E17443DC86182937F406E2F6
:1002F000ED6F90481E2D1DEA739454DF25F64727B5
:10030000D91177C9841C5B5C5181A6223E2496C812
:100310008AEC827C09B8454A57BB2F50758E6170B4
:100320008C6CAFD0FDB41BAEDEFE3BB536BD5501C7
:100330000E9C41565FB3260383BA134BCAC50AF815
:1003400060A5B9C7C39832FB12F9A792AA68F378DF
:100350007E05202102E8BFF2B0598FD2CB87651508
:10036000F11AB230ADEE58A38B661F2CD75D1985FC
:10037000A8E6D36BA10C91936A5E0B79E3DD004F85
:100380003C896E7169A9AC40E59928C6314E7ACD99
:10039000089E7DEF17FC88D8A46D4495D1B7D49BF7
:1003A000BE2A34642BCF2EEB38CE23E03A3FF77BC6
:1003B0009F1053BC526716E7807604C4B6C1C27F53
:1003C0009ADAD53942149DB10F35D6CCB9DA380C4A
:1003D000A29C091F06B1B6FD1A692330C4DE01D103
:1003E000F45829371C7DD5BFFFBDC8C9CF65BE7B7A
:1003F0007897986708B32657F7FA40AD8E75A67CB4
:10040000DB918B5199D4177A908DCE63CB4EA0ABF4
:10041000183A5B507F2174C1BBB8B7BA0B35953120
:10042000599A4D04071E5A7613F37183D08603A898
:100430003942AA28E6E4D85DD3D06E6F96FB5EBC45
:1004400056C25F859BE7AFD23B846AA753C5444938
:10045000A5F936723D2CD91BA1F54F939D684741F4
:1004600016CA2A4CA387D6E5192E77156D70C0DF02
:10047000B20046EDC66C4360922DA922458F3455DB
:10048000AEA40A6632E0DC02ACE8208C89624AFE47
:10049000EEC3E33CF17905E9F62733CCF29E1181F6
:1004A0007E80108A829F480DD7B4FC2FB5C7DD88A7
:1004B000146B2B54EA1D945CB0EF1224CDEBE1E2F7
:1004C00064733F0E5261253EF80F4BECC00030F6CE
:1004D00002493D106E20C9A62FFE2C2B752E4526F5
:1004E000AB48A980FC04CCD3B5BAA338317D01D97F
:1004F000A77B96B663694EF7DEE078CA50AA4191B1
:100500006588E42185DA3A27BE1C3E425E17527F99
:100510001F89246F8F5C67740E12878DE934ED7329
:10052000C4F8615B05DF594C97798318A45595EBA6
:10053000BD53F5F15766469FB2810951862216DDFB
:1005400023937629C2D71DD4BF363FEA4B1132B967
:10055000625460D66D439A0D929CB0EF586C9D77B3
:100560002D70FAF3B30BE2407EF48AE58C3C5671B1
:10057000D164E1820ACB131590EC0399AF145D0F9F
:10058000334A94A5A8351BE36AC628FF4DE72584A6
:10059000AC08AEC5A22AB8370C7AA0C3CEAD061AF5
:1005A0009E8BFBD5D0C11ED0B49BB144F247C76827
:1005B000CF72BB4F5AF9DC6BDBD2E87CC8EE98A156
:1005C000E6D839075FFD8E19B73BBCCD7CE381735C
:1005D000B211BF6F2098FE7596EF6CDA50E1097288
:1005E0005445BA34805BED3E532C87A457F3333F18
:1005F0003CB767B4A325604F076B1B47150FE40A90
:10060000EAD1327836498D4BD2BCA5DC1D0D4DCDDB
:100610009A825FFC9465BEE2F4C91E44CB9E0C64D2
:10062000712663B314E840708A0E19426DAC8810CD
:100630005CDF41A9ADE5FB74CCD5068E5986CE1F93
:100640003D76E08FB977277BA6D829D3ECB813F78E
:10065000FAC3516ADE4A5AEBC28B234892CF62A892
:1006600099F8D02E856143C8BDF00593CA4EF17D3F
:1006700030FDC469662F08B152F921E67A2BDD39C5
:1006800084FFC091D637D47F2D9B5DA13B6EB5C54D
:100690004604F590EE7E831C0356B6AA001701357A
:1006A00055790B12BB1A31E7022816C1F6A2DB18E6
:1006B0009C89683897ABC72AD73AF2C6244CB05801
:1006C000A0225E9DD9A7E9AEAF8C959F28B720D711
:1006D000B030C30919C067D6003C7EE7E9F4085A78
:1006E000F8B82E05A6259E5CD8150DE1F611546BC1
:1006F000CD2146665E84AD06382944C5A2CEF1AA56
:10070000C1407186B5EFFC36A8CB0A48274564A3E3
:10071000AF8CB2C69F0789DC17D34979FBFE1DD089
:10072000B9884352BC01782B7D94C70EDEA5D59BBA
:10073000CCF7617AC274813903AB96A037BD2D72B4
:10074000753FC9D48E6FF98DED62DB1CDF04AC1BE5
:100750006C144B63D0BFB482EC7B1A5992D21060F8
:10076000B63D5FE6806E70C4F235D97CEEE541A4FB
:100770005B50DDBB4CF31F9D5D57555197E35842CD
:100780004D9C73BAC877316926AEEA8ADA22B387FC
:1007900056FA930B341633E8E453BEA9B13A3EF54A
:1007A000906ACF3B12FD8F9AA7479199EB0F24FFD8
:1007B0002318854E7F0CE0A1D2D12C2A4A024F1E6D
:1007C00095688B98836D76CA6532132FC3829AA47D
:1007D000BA8160373435FC80A8516567ED305F1011
:1007E000D34A272F13B92AD2CCE1EFAEEBBEF4BD2A
:1007F000CF43B3C58884B7DD3940CE486D9B726165
:100800007EE7A14E532E773BE2C936221B6E73B1B1
:1008100003B24C87A9D44D0FD8156CAA18F64957C6
:100820005DFB7A149463A011B09EDE0546C8EE47C6
:10083000DBDC24899C919729E97BC1071EB8FDFE6A
:10084000ACC662984FF179E0E86B7856B68D0450EB
:1008500086CA6F20E6EAE576171C747FBC0D2C85EE
:10086000F76696E48B753F4BD938AF7CDA0B832D56
:100870003132A2F51D594145BF3C1FF8F98AD01607
:10088000256912999D2195AB01A6D7B5C07DFF586A
:100890000E3A92D155E3089FD63E528EFAA3C70274
:1008A000CDDF8F64198CF3A70C5E0A6A09F0935BA5
:1008B00042C20623EC71ADB4CBBB7028D51A5C33B1
:1008C000685A004490A5C4263D2BF25496ADDA1F19
:1008D000ED33E18169080D0ADB35779A64D1FC7844
:1008E000AA1BD067A0DDFA6C63710584176A894F73
:1008F000667FC65055926FBDE7D240728DBBEC0645
:10090000428AE4889D7E7A822713411AAFC8A47672
:10091000B4C2FE6D1CD96130B37CEAF7290FF23BFB
:1009200051C1DE5FE52A2F990B5DA32B4AAB95A53C
:10093000D35856EE283100CC1546CAE686383C65B9
:10094000F5E39FD65B094983702D53A97DE2C4ACC2
:100950008E5EB825F4B957F3F16847B2A25920CE9C
:1009600034795C900E1EBED52223B1C91862162EB2
:10097000913E078FD83F933DD49BDF8521FB1174B7
:1009800097C7D7DC4C194598E943024BBCC3049C7C
:100990006BF07552A726F6C5BACFB0B7AE5AA1BF55
:1009A000038B80126E0CEBF9C04424EF10F8A88C76
:1009B000E87BFF9E2CCD603687B594A654733A141D
:1009C0004E011DB6FD37484D39CBE0320000000026
:1009D0000000000000000000000000000000000017
:1009E0000000000000000000000000000000000007
:1009F00000000000000000000000000000000000F7
:100A000000000000000000000000000000000000E6
:100A100000000000000000000000000000000000D6
:100A200000000000000000000000000000000000C6
:100A300000000000000000000000000000000000B6
:100A400000000000000000000000000000000000A6
:100A50000000000000000000000000000000000096
:100A60000000000000000000000000000000000086
:100A70000000000000000000000000000000000076
:100A80000000000000000000000000000000000066
:100A90000000000000000000000000000000000056
:100AA0000000000000000000000000000000000046
:100AB0000000000000000000000000000000000036
:100AC000000000000000000000000000A877A6E081
:100AD000F7435A3585E272978FB71A6287380D67E8
:100AE000C7BE4F3E2076378F68B7A9263F2B10E34D
:100AF000307E900E850A11241FBECFEFDAE0DEBFF4
:100B0000CDBF11E0A0E0B1E0EEE3FDE402C005904E
:100B10000D92A838B107D9F723E0A8E8B1E001C0E9
:100B20001D92AA36B207E1F765D20C949D2668CAD9
:100B30001F920F920FB60F9211242F933F934F9352
:100B40005F936F937F938F939F93AF93BF93EF9335
:100B5000FF9381E080930C03109285001092840033
:100B600085E180932F03E0915103F09152030480BB
:100B7000F581E02D80E0099585E280932F03259A89
:100B80002D9A80E38A95F1F72D98369B02C04698FE
:100B900001C0469A3E9AFF91EF91BF91AF919F910C
:100BA0008F917F916F915F914F913F912F910F9016
:100BB0000FBE0F901F901895CF93DF93E0915103D4
:100BC000F09152030480F581E02D81E20995C82F50
:100BD000E0915103F09152030280F381E02D82E015
:100BE000099590910E03892F817080934A0393FB9E
:100BF000882780F980934F0394FB882780F980939E
:100C00004E0395FB882780F980934C0396FB882739
:100C100080F980934B03991F9927991F90934D0357
:100C20008FE99FE00197F1F700C00000CF3F51F43A
:100C3000E0915103F09152030480F581E02D80E0B2
:100C40000995BCCFC03F08F0B9CFDF91CF9108958F
:100C500080915003893721F0833311F08F3749F4A5
:100C600091E090934903893759F481E080934803D8
:100C70000895109249038337C1F3893041F4F5CFC9
:100C8000982F9F7B933389F38F37B9F7EECF82513B
:100C9000823058F3109248030895CF9380914A030D
:100CA000811105C08091490381110EC032C0E091CD
:100CB0005103F09152030480F581E02D80E0099505
:100CC0008F3F81F78EEFF2C0E0915103F091520314
:100CD0000480F581E02D82E00995E0915103F091C7
:100CE00052030280F381E02D8DE00995EFEAF4E0F4
:100CF0003197F1F700C00000803F08F0D7C0EEE068
:100D0000F3E0AFEFB2E081918D9383E0EA31F80731
:100D1000D1F7259A2D9AE0915103F0915203048066
:100D2000F581E02D81E00995E0915103F0915203A6
:100D30000280F381E02D8DE00995C82F2D98803F2A
:100D400008F0B3C0809150038C1731F1E09151034A
:100D5000F09152030480F581E02D80E009952CDFAD
:100D6000E0915103F09152030480F581E02D81E080
:100D70000995E0915103F09152030280F381E02D37
:100D80008DE00995C82F8FEF90E090931F0380931B
:100D90001E03C03F08F089C080912D03882309F409
:100DA0006DC080914803882309F468C090910B03BB
:100DB00080911A03981305C080918801882309F453
:100DC0005DC0E0915103F09152030480F581E02D64
:100DD0008CE10995E0915103F09152030480F58173
:100DE000E02D80911A030995E0915103F09152038F
:100DF00081E090911A03911101C080E00480F58197
:100E0000E02D81950995E0915103F0915203048002
:100E1000F581E02D81E10995E0915103F0915203B4
:100E20000480F581E02D8CE10995E0915103F0916A
:100E300052030480F581E02D80910B030995E09128
:100E40005103F091520381E090910B03911101C085
:100E500080E00480F581E02D81950995E0915103B2
:100E6000F09152030480F581E02D84E10995809191
:100E70000B0390911A0389278093880120911E0308
:100E800030911F032115310539F02150310930937C
:100E90001F0320931E0335D1E0915103F0915203BB
:100EA0000480F581E02D80E009958C2FCF91089585
:100EB000F4DE90914A03911128C0803FD0F09091C8
:100EC0000F0320910E03922398239F3F29F08F3F19
:100ED00019F481E080934A0381E080934D038DE013
:100EE000E0E2F3E0ADE0B3E001900D928A95E1F726
:100EF00019C09DE0EDE0F3E0A0E2B3E001900D92B7
:100F00009A95E1F7809350030DC09DE0E0E2F3E095
:100F1000ADE0B3E001900D929A95E1F7803F10F4B7
:100F200010924A0390914A0380911C03992369F01F
:100F300090910E03811105C081E080931C039062A3
:100F400001C09F7D90930E030BC0882349F010923F
:100F50001C0332DE8FEF90E090931F0380931E03FB
:100F600080910E038093320380910F0380933303AB
:100F70008091100380934503809111038093350382
:100F800080911203809336039091130390933B0357
:100F90008091140380933703809115038093380365
:100FA0008091160380933C0320915003293741F030
:100FB0002091170320933A032091180320933903BB
:100FC00020914903211104C09093090380930A03DF
:100FD00080911903809334033BDE80913103833386
:100FE00018F010923103E8DD809131038F5F809318
:100FF0003103089510924A0310921C031092880145
:10100000109231038FEF90E090931F0380931E03A3
:1010100080E8809361001092610085B7806885BF89
:1010200085B7806885BF1AB817B814B88FEF8BB929
:1010300088B985B9A7D10E9497258091D800806290
:101040008093D80089B58D7F89BD8091D8008F7736
:101050008093D8001CBC1092CA001092C800109255
:10106000C90010927A008091BC008B7F8093BC00F5
:101070001092C000109291001092900015BC14BC08
:101080001092810010928000259A2D982D9A2D980B
:101090002FEF87EA91E6215080409040E1F700C0B1
:1010A00000002D9A2D9882D18823E9F30E945F25B4
:1010B0009093520380935103DC01ED91FC910995CB
:1010C0001092890110928A0110928B0110928C016A
:1010D00010928D0110928E0110928F01109290014A
:1010E00040D1E0915103F09152030480F581E02D4D
:1010F00080E00995D2DD803FE8F733D1D9DE4ED1CB
:10110000FCCF80912F03982F9F7E21E0953009F02E
:1011100020E091E0382F3D7F393209F090E0922BAA
:1011200011F48532E1F58091500331E0803109F00E
:1011300030E091E0833209F090E0392B91E08F317B
:1011400009F090E0932B31E08F3209F030E0392B39
:1011500021E0813409F020E0232B91E0893709F068
:1011600090E0922B51F4982F9F7D933531F0893088
:1011700021F0877F833109F09BC0E0915103F0910A
:1011800052030480F581E02D84E20995E09151033A
:10119000F09152030480F581E02D84E088C021E0C5
:1011A000893109F020E091E08F3209F090E0922B34
:1011B00021F4982F9B7F933181F580915003982FD4
:1011C000977F31E0933009F030E0982F9F7E985060
:1011D00021E0923008F020E0232B91E0382F3B7F74
:1011E000313209F090E0922B31F4883221F08351B2
:1011F000833008F05DC0E0915103F0915203048008
:10120000F581E02D85E20995E0915103F0915203BB
:101210000480F581E02D83E04AC0833209F048C0A4
:1012200080915003982F977F21E0933009F020E0C0
:1012300091E0382F3F7D383009F090E0922B21E08B
:101240003CEE380F323008F020E0292B91E038EEE8
:10125000380F333008F090E0922B31F4982F9B7FB9
:10126000913211F0863321F5E0915103F091520350
:101270000480F581E02D84E20995E0915103F0911D
:1012800052030480F581E02D84E00995E09151033B
:10129000F09152030480F581E02D85E20995E091FB
:1012A0005103F09152030480F581E02D81E009940F
:1012B0000895409136039091380321E09E3408F060
:1012C00020E081E04E3408F080E0282B8091370345
:1012D000222341F08E3420F0309135033E3410F457
:1012E00087E03CC031E0933B08F430E091E0433BC1
:1012F00008F490E0932B41F08E3420F030913503C8
:101300003E3410F485E02AC0222341F0833B20F4D0
:1013100030913503333B10F081E020C0992341F038
:10132000833B20F430913503333B10F083E016C04B
:10133000309135038E3410F03E3410F486E00EC048
:10134000833B10F4333B10F082E008C0222319F0F5
:10135000109234030895992319F084E080933403A4
:10136000089510923303109232038FE08093340378
:1013700080E880933803809337038093360380930B
:101380003503089514BEA89588E10FB6F8948093AC
:101390006000109260000FBEF8940895E09146033B
:1013A000F09147030280F381E02D0994CF931092CE
:1013B0002D0310922E031AB817B814B8CFEFCBB97B
:1013C000C8B9C5B941D49093470380934603DC0163
:1013D000ED91FC910995E0914603F091470304805B
:1013E000F581E02D099580932F03882331F081E06A
:1013F00080932D0380932E037CC01AB817B814B8BD
:10140000CBB9C8B9C5B90E9478239093470380939C
:101410004603DC01ED91FC910995E0914603F091C2
:1014200047030480F581E02D099580932F038111F6
:1014300060C0C3B1CF3F31F083B18F3509F0CDC06B
:101440002ED5D4C01AB817B814B8CBB9C8B9C5B915
:101450000E94F11D9093470380934603DC01ED91B8
:10146000FC910995E0914603F09147030480F581D2
:10147000E02D099580932F0381113BC01AB817B84E
:1014800014B8CBB9C8B9C5B90E94B4159093470335
:1014900080934603DC01ED91FC910995E0914603B0
:1014A000F09147030480F581E02D099580932F0387
:1014B00081111CC01AB817B814B8CBB9C8B9C5B9CE
:1014C0000E947E199093470380934603DC01ED91BF
:1014D000FC910995E0914603F09147030480F58162
:1014E000E02D099580932F03882329F081E08093D4
:1014F0002D0391E091C01AB817B814B8CBB9C8B988
:10150000C5B90E94F91A9093470380934603DC0102
:10151000ED91FC910995E0914603F0914703048019
:10152000F581E02D099580932F038111E2CF1AB840
:1015300017B814B8CBB9C8B9C5B90E94DC1F9093CD
:10154000470380934603DC01ED91FC910995E091FE
:101550004603F09147030480F581E02D09958093BF
:101560002F038111C6CF1AB817B814B8CBB9C8B9B0
:10157000C5B90E9464229093470380934603DC011F
:10158000ED91FC910995E0914603F09147030480A9
:10159000F581E02D099580932F038111AACF1AB808
:1015A00017B814B8CBB9C8B9C5B90E943324909301
:1015B000470380934603DC01ED91FC910995E0918E
:1015C0004603F09147030480F581E02D099580934F
:1015D0002F03882309F430CF8CCF1AB817B814B86A
:1015E0008FEF8BB988B985B90E94A02090934703EB
:1015F00080934603DC01ED91FC910995E09146034F
:10160000F09147030480F581E02D099580932F0325
:1016100091E0811101C090E0892FCF910895089544
:1016200080914D038093930110929801109299013B
:10163000109297011092960188E184B98FEF85B9D5
:101640008FE68CBD08956EBD0DB407FEFDCF8823D7
:1016500071F080919901811104C08AE28A95F1F7B5
:1016600000C02C9885E08A95F1F700002C9A189913
:1016700002C08EB5089580E00895CF93C82F609181
:10168000370381E0E0DF81508E3F38F48FEA94E049
:101690000197F1F700C00000C3DF6091380381E0DB
:1016A000D2DF6091350381E0CEDF609136038C2F6D
:1016B000CF91C9CFCF9380E194EA189B07C025E86A
:1016C0002A95F1F7000001970097B9F787EC90E0B1
:1016D0000197F1F700C0000083B1C82FC17080FDF1
:1016E0000EC08FE891E00197F1F700C000008FE98C
:1016F0009FE00197F1F700C00000189903C01CBCDF
:10170000C0E023C060E080E09EDF6FEF80E09BDF01
:101710008130D1F46FEF97DF61E481E094DF6AE517
:1017200081E091DF6FEF81E08EDF6FEF81E08BDF93
:1017300095E39A95F1F700008CB58F7B8CBD84B151
:10174000877E84B9C7E101C01CBC8C2FCF9108955E
:101750001F93CF93DF93189BFECF8AEB98E8189BDB
:1017600006C001970097D9F788EC80939601809185
:101770003403882309F464C2823009F463C28430DC
:1017800049F0863089F0813089F0DFEF833021F431
:10179000DFE90DC0DFEB0BC0853011F4DFE307C0DC
:1017A000873029F4DFE603C0DFE701C0DFEC80917A
:1017B000320384FDDE7F85FDD77F9091330396FD54
:1017C000DD7F97FDDB7F80FD02C0CFEF01C0CFEB57
:1017D00081FDCF7D82FDCF7783FDCF7E86FDCB7FE0
:1017E00087FDC77F90FDCE7F91FDCD7F8CB5806456
:1017F0008CBD84B1886184B98091960187FD10DF2A
:10180000809196018F5F809396016FEF81E01BDFDF
:10181000813009F007C210929601809197018130C2
:1018200009F04AC163EF0FDF182F6AE581E00BDF93
:10183000812F90E0FC01E054F109E031F10508F05E
:10184000F1C1EA5AFF4F0C9481266D2F81E0FBDE37
:1018500080930B0380919101882331F08150809314
:1018600091016C2F81E02AC080919201882331F090
:101870008150809392016C2F80E029C08091990162
:101880008230C9F46C2F81E0DEDE80931A0381E0A0
:10189000F4DE809199018230E9F4CFEFD2E06991D2
:1018A00081E0D1DE83E0CA30D807C9F760910A032E
:1018B00080E0C9DE0FC0813039F46C2FC4DE809324
:1018C0001A0380E0DADE06C0811104C06C2FBBDE93
:1018D00080931A03809195018F5F809395018B30DF
:1018E00008F4A0C110929501109297019BC160E08D
:1018F00081E0A9DE80939701813099F4809199016C
:10190000823011F0C4E007C0CCE060E081E09BDEF3
:10191000C150D9F7F7CF60E081E095DEC150D9F72B
:10192000A6C060E081E08FDE8A3561F460E081E08E
:101930008ADE60E081E087DE60E081E084DE60E0F6
:1019400080E081DE80919801809399016BC160E015
:1019500081E079DE60E081E076DE62E010C081E067
:101960008093920190919801911102C08093980107
:101970006FEF81E068DE6FEF81E065DE63E081E0BC
:1019800062DE60E081E05FDE60E081E05CDE6AE50F
:101990006FC060E081E057DE8093980180919301F1
:1019A000811110929801C4E060E081E04CDEC150EA
:1019B000D9F75DC081E080939201809193018823E3
:1019C00011F060E007C080914903882311F063E0C3
:1019D00001C061E081E037DE62E081E034DE61E099
:1019E00080919301811160E081E02DDE62E027C0EB
:1019F00060E081E028DE811102C0CAE001C0C4E1DC
:101A000060E081E020DE61E081E01DDECA3011F49B
:101A100062E001C061E081E016DE61E0CA3009F4F5
:101A200060E081E010DE6C2F23C060E081E00BDE1F
:101A300060E081E008DE62E081E005DE60E081E0F8
:101A400002DE61E012C060E081E0FDDD811102C0D4
:101A5000C4E001C0C7E060E081E0F5DD60E081E066
:101A6000F2DD6C2F81E0EFDD60E081E0ECDD60E035
:101A700080E0E9DDD7C060E081E0E5DD61E081E0A4
:101A8000E2DD6FEF81E0DFDD6FEF81E0DCDD6FEF46
:101A900081E0D9DD6FEFECCF81E08093910182E0AE
:101AA0008093980160E081E0CEDDC4E060E081E0F9
:101AB000CADDC150D9F7DBCF8111B4C08091990143
:101AC000882381F090915003993721F4823061F09E
:101AD00063E70FC0933351F09F3751F09335C1F74F
:101AE00063E507C061E405C069E703C063E201C0C4
:101AF00063EE90919401891729F0909192019E5F75
:101B0000909392018093940181E09DDD182F6AE506
:101B100081E099DD6D2F81E0133471F594DD8093C0
:101B20009701811102C060E025C08091910181116F
:101B30002AC080919201811130C080919901823038
:101B400009F04AC06C2F81E07EDD80931A0381E0AA
:101B500094DD80919901823009F04DC0CFEFD2E041
:101B6000699181E070DD83E0CA30D807C9F76091E0
:101B70000A0380E068DD3FC066DD80930B0380913F
:101B80009101882331F08150809391016C2F81E085
:101B900026C080919201882331F081508093920178
:101BA0006C2F80E025C0809199018230A9F46C2FC0
:101BB00081E049DD80931A0381E05FDD8091990126
:101BC0008230C9F4CFEFD2E0699181E03CDD83E05F
:101BD000CA30D807C9F7CBCF813039F46C2F33DD49
:101BE00080931A0380E049DD06C0811104C06C2F88
:101BF0002ADD80931A0340914D03242F30E0809119
:101C0000930190E02817390769F04093930181E030
:101C100090919901911180E08093990180939401B2
:101C20008093980185E38A95F1F700008CB58F7B4E
:101C30008CBD84B1877E84B9DF91CF911F910895C7
:101C4000DFEEB5CDDFEDB3CD80E091E008950895EE
:101C500081E080939A01089510929A0180919A01EF
:101C60008823E1F389E1089510929A0180919A0105
:101C70008823E1F38FE99FE00197F1F700C00000AE
:101C800085E1EBE9F1E0DF011D928A95E9F780E853
:101C900080939E0180939D0180939C0180939B0182
:101CA0008091350392E9980F943210F080939B0154
:101CB0008091370392E9980F943210F080939C0141
:101CC0008091360392E9980F943218F080958093B2
:101CD0009D018091380392E9980F943218F0809515
:101CE00080939E018CE080939F0188E08093A00107
:101CF0008FEF8093A1018093A2018091320387FF2F
:101D000003C09DEF9093A10185FF05C09091A101B3
:101D10009B7F9093A1019091450392FF05C0909104
:101D2000A101977F9093A10184FF05C09091A1012B
:101D30009F7E9093A10186FF05C09091A1019F7D98
:101D40009093A10190913403943021F49091A101DA
:101D50009F7B05C0923031F49091A1019F779093C1
:101D6000A10109C0911102C09EEF03C0963019F481
:101D70009DEF9093A2012091330321FF05C0909124
:101D8000A2019B7F9093A20120FF05C09091A20128
:101D90009F779093A20180FF05C09091A2019F7B45
:101DA0009093A20181FF05C09091A2019F7E909324
:101DB000A20182FF05C09091A2019F7D9093A20194
:101DC00083FF05C08091A201877F8093A20180914B
:101DD0005303811145C080919C0186958695869517
:101DE000282F2871B8E02B9F9001112490919B011E
:101DF00096959695922B90939B01867020E2829FF8
:101E0000C001112490919D0196959695982B9093E1
:101E10009C0180910903869586958695282F2871C7
:101E200094E0299F9001112490919E01969596959A
:101E30009695922B90939D01A0E28A9FC001112458
:101E400090910A03969596959695982B90939E015E
:101E50008091A10180939F018091A2018093A001B4
:101E600065E18BE991E014C30F931F938BB18360FD
:101E70008BB98AB18C7F8AB985E1EBE9F1E0DF01AA
:101E80001D928A95E9F708E21EE020E131E045E184
:101E9000BF0180E391E003D31F910F9160C388E0FD
:101EA00091E008952F923F924F925F926F927F92AE
:101EB0008F929F92AF92BF92CF92DF92EF92FF925A
:101EC0000F931F93CF93DF93CDB7DEB7E2970FB693
:101ED000F894DEBF0FBECDBF1DA61CA6A12CB12C51
:101EE00078E0E72EF12CDE01519680E090E02CA501
:101EF0003DA52453354FF901E80FF91FE491ED9307
:101F0000019686309105B9F7DE01119680E090E0E8
:101F1000FC01ED52FD4FE081F0E0E453FF4FE4910E
:101F2000ED9301968A30910599F7AB817E8189897D
:101F3000872790E04A2F47702A8528ABFD819701BB
:101F4000241B31093AAB29AB9C0109A802C0220F1E
:101F5000331F0A94E2F702C0959587954A95E2F7F8
:101F6000822B38A9831B8F278B87B9814A814EA783
:101F70008A89842790E04B2F4770E8859701241BBE
:101F800031093AAB29AB9C0109A802C0220F331FCB
:101F90000A94E2F702C0959587954A95E2F7822B5D
:101FA000871B8E278C873F813FA72B89232730E013
:101FB00069856770C701861B9109A901082E01C0B8
:101FC000440F0A94EAF7062E02C0359527950A9425
:101FD000E2F7242B2A1B2B272D872C892F2730E073
:101FE0004E2F47704BA79C81A701BBA54B1B5109E6
:101FF0005AAB49ABA90109A802C0440F551F0A9466
:10200000E2F702C035952795BA95E2F7242B291BF4
:102010002A272E872D895EA5252730E0AFA5A7703A
:10202000A7014A1B51095AAB49ABA90109A802C033
:10203000440F551F0A94E2F75AAB49AB02C03595DD
:102040002795AA95E2F7242B291B2F272F872E8966
:102050002E2730E0F90102C0EE0FFF1F8A95E2F74C
:10206000CF0102C0359527956A95E2F7822B871B31
:10207000F8A98F27888B46E050E06DEC72E0CE0126
:102080000B960E94872695012F5F3F4F892B79F091
:1020900059012CA53DA52A5F3F4F3DA72CA737E04E
:1020A000A316B10409F01FCF1092DE0280C1822F67
:1020B0009091D102122F00E0090F111D04531F4F00
:1020C000F8010491F2E0AF0EB11C9091D602FA2D06
:1020D000EE27E90FF11DE453FF4FE491E027E09371
:1020E000C5029091CF02782E612C690E711C93016C
:1020F00024533F4FF90164909091D802FA2DEE27B6
:10210000E90FF11DE453FF4FE491E625E093C60289
:102110009091D202582E412C490E511C9201245309
:102120003F4FF90144909091DA02FA2DEE27E90F22
:10213000F11DE453FF4FE491E425E093C702909131
:10214000CD02D82EC12CC90ED11C960124533F4F6D
:10215000F90194912091D502FA2DEE27E20FF11D9D
:10216000E453FF4FE491E927E093C8029091CE0237
:10217000982E812C890E911C940124533F4FF90114
:1021800094912091D702FA2DEE27E20FF11DE4532E
:10219000FF4FE491E927E093C9029091D002888F24
:1021A0001F8A2F89388D290F311D24533F4FF90184
:1021B00094912091DC02FA2DEE27E20FF11DE453F9
:1021C000FF4FE491E927E093CA029091D3028A8FEE
:1021D000198E298D3A8D290F311D24533F4FF90156
:1021E00094912091D902FA2DEE27E20FF11DE453CC
:1021F000FF4FE491E927E093CB029091D4028C8FBA
:102200001B8E2B8D3C8D290F311D24533F4FF9011F
:1022100094912091DB02FA2DEE27E20FF11DE45399
:10222000FF4FE491E927E093CC029091CD028E8F8D
:102230001D8E2D8D3E8D290F311D24533F4FF901E9
:1022400094912091D402FA2DEE27E20FF11DE45370
:10225000FF4FE491E927E093BD029091D20288A359
:102260001F8E2F8D38A1290F311D24533F4FF901A7
:1022700094912091D702FA2DEE27E20FF11DE4533D
:10228000FF4FE491E927E093BE029091D0028AA328
:1022900019A229A13AA1290F311D24533F4FF90159
:1022A00094912091D302FA2DEE27E20FF11DE45311
:1022B000FF4FE491E927E093BF029091CF028CA3F6
:1022C0001BA22BA13CA1290F311D24533F4FF90123
:1022D00094912091DC02FA2DEE27E20FF11DE453D8
:1022E000FF4FE491E927E093C0029091D1028EA3C1
:1022F0001DA22DA13EA1290F311D24533F4FF901ED
:1023000094912091DA02FA2DEE27E20FF11DE453A9
:10231000FF4FE491E927E093C1029091CE0288A794
:102320001FA22FA138A5290F311D24533F4FF901BA
:1023300094912091DB02FA2DEE27E20FF11DE45378
:10234000FF4FE491E927E093C2029091D6028AA759
:1023500019A629A53AA5290F311D24533F4FF9018C
:1023600094912091D802FA2DEE27E20FF11DE4534B
:10237000FF4FE491E927E093C3029091D502382EF4
:10238000212C290E311C910124533F4FF901249037
:102390008091D902FA2DEE27E80FF11DE453FF4F8B
:1023A000E491E225E093C40281E08093DE02E296AC
:1023B0000FB6F894DEBF0FBECDBFDF91CF911F9156
:1023C0000F91FF90EF90DF90CF90BF90AF909F90D4
:1023D0008F907F906F905F904F903F902F900895D7
:1023E000863028F4E091DF02F091E002099408952C
:1023F00090EC980F963098F480E490E029E430E077
:10240000F901E81BF90BDC01A354BE4F4C91ED52CE
:10241000FD4F408301968634910591F708959AEB1C
:10242000980F9630C8F4809103028093D602809171
:1024300004028093D502809105028093D40280919A
:1024400006028093D302809107028093D20280918A
:1024500008028093D102089594EB980F9430B8F459
:10246000909109029093D00290910A029093CF022A
:1024700090910B029093CE0290910C029093CD021A
:1024800070E0680F711D6035710509F40BCD08957A
:10249000462F50E0BC018DEB91E00C949426EF9216
:1024A000FF920F931F93CF93DF9300D0CDB7DEB78A
:1024B0007C01CB011092DD021093E0020093DF0259
:1024C000642F29833A83E4DF1092AD0286E0F7019E
:1024D000ABEAB1E001900D928A95E1F786E0EBEA74
:1024E000F1E0A7EBB2E001900D928A95E1F7298126
:1024F000E22F3A81F32F80E290E02191DC01A35496
:10250000BE4F2C93019680349105B9F72FEF89E6E1
:1025100098E1215080409040E1F700C000005898B9
:102520005998509A8AB18C7F8AB91092BC01109246
:10253000BB0184EA8093BA001092B90088E48093CA
:10254000B80081EC8093BC00109253030F900F9061
:10255000DF91CF911F910F91FF90EF90089580919F
:10256000DD02811109C08091BC0084608093BC00B1
:1025700081E08093DD02789408951F920F920FB648
:102580000F9211242F933F934F935F936F937F93F9
:102590008F939F93AF93BF93EF93FF938091B90075
:1025A000887F803951F188F4803721F128F4803612
:1025B00009F18836F9F0DEC08038F9F0883809F47E
:1025C000D9C0883709F0D6C015C0803B09F498C03F
:1025D00038F4803A09F489C0883A09F0CBC090C039
:1025E000803C09F4C5C0883C09F4C2C0883B09F4AA
:1025F0008EC0C0C01092BA01BBC08091BA018823BE
:1026000009F466C02091BB008091BB019091BC0190
:102610008E3F910529F4233019F481E08093530310
:102620008091BB019091BC01803F910589F42535D3
:1026300011F02A3A69F41092DE0286E0EBEAF1E04A
:10264000A7EBB2E001900D928A95E1F71092B701E5
:102650008091BB019091BC01892B91F4243681F4C7
:102660008091B801882361F086E0E1EBF1E0A7EB0F
:10267000B2E001900D928A95E1F781E08093B70175
:102680008091DE028823E1F0A091BB01B091BC01F2
:10269000E091BB01F091BC01E770FF27E354FD4FCF
:1026A0008081E091BB01F091BC01E770FF27EB5303
:1026B000FD4F90818227890FA354BE4F8C934AC04F
:1026C000E091BB01F091BC01E354FE4F208342C076
:1026D0008091BB0090E09093BC018093BB0181E0AE
:1026E0008093BA011092B90143C06091B901809101
:1026F000BB019091BC019091B901891B79DE38C072
:102700008091BB019091BC016BDE1092B901809168
:10271000DE02E091BB01F091BC01E354FE4F88233F
:10272000B1F08081E091BB01F091BC01E770FF271F
:10273000EB53FD4F2081E091BB01F091BC01E770AC
:10274000FF27E354FD4F9081821B892701C08081C0
:102750008093BB008091BB019091BC010196909346
:10276000BC018093BB018091B9018F5F8093B90157
:1027700085EC01C085E88093BC00FF91EF91BF918B
:10278000AF919F918F917F916F915F914F913F9109
:102790002F910F900FBE0F901F90189508951092D3
:1027A000540357985F9A0895549A57989BB19BB9D0
:1027B000811105C081E090E0A0E0B0E01CC081E0A4
:1027C00090E0A0E0B0E04F9B1FC000000196A11D6B
:1027D000B11D883E23E09207A105B105A1F712C003
:1027E00000000196A11DB11D811523E5920727E088
:1027F000A207B10539F04F99F3CF883E9340A10568
:10280000B10511F48FEF089598E080E0880F2BE078
:102810002A95F1F700004F9981602CE02A95F1F795
:102820000000915099F7803461F48FE291E00197B4
:10283000F1F700C0000089B180788093540380E4F0
:10284000089508953AE03A95F1F700C0579A5F98D5
:1028500028E180E093E0A0E0B9E0B7FF09C035E0EF
:102860003A95F1F700005F9A35E13A95F1F708C023
:1028700035E13A95F1F700005F9A35E03A95F1F7C6
:1028800000005F98880F991FAA1FBB1F215029F7CE
:102890008AE08A95F1F700C057985F9A81E084CF6B
:1028A0002F923F924F925F926F927F928F929F9260
:1028B000AF92BF92CF92DF92EF92FF920F931F934E
:1028C000CF93DF93CDB7DEB765970FB6F894DEBF31
:1028D0000FBECDBF1092540380E066DF8D8B811157
:1028E00002C0B0DF8D8B412C512C3201D301C201CB
:1028F000A66089839A83AB83BC83D301C201AA609B
:102900008D839E83AF83B887D301C201A960898775
:102910009A87AB87BC87D301C201A5608D879E874C
:10292000AF87B88BD301C201A460898B9A8BAB8B24
:10293000BC8B730162016894E3F85301420168940F
:10294000A1F8689460F822242A94312C9D899F3F35
:1029500009F4D8C09D89911102C074DF8D8BA0E16C
:10296000AA95F1F780913403863019F4B301A201DE
:102970002FC0823019F4B501A4012AC0811103C00F
:10298000B701A60125C0843029F449895A896B8989
:102990007C891EC0853029F44D855E856F857889D8
:1029A00017C040E050E0BA01873029F449855A85C4
:1029B0006B857C850DC0813029F44D815E816F81EE
:1029C000788506C0833021F449815A816B817C81EE
:1029D0008091320384FD606187FD606286FD6064E2
:1029E00081FD02C0606802C06068716080FD726035
:1029F00083FD746082FD786085FD70618091350390
:102A0000909136038101091B1109222717FD20959A
:102A1000322F182B042B152B262B372B40913703E5
:102A200050E060E070E080913803F101E81BF109AB
:102A3000CF01AA2797FDA095BA2FF0910903742F13
:102A4000662755274427E0910A034E2B5F2BDC01B4
:102A500099278827482B592B6A2B7B2B579A5F98ED
:102A600080E237FF09C0F5E0FA95F1F700005F9AC0
:102A700095E19A95F1F708C0A5E1AA95F1F7000054
:102A80005F9AB5E0BA95F1F700005F98000F111F4B
:102A9000221F331F815029F780E277FF09C0E5E04C
:102AA000EA95F1F700005F9AF5E1FA95F1F708C0B1
:102AB00095E19A95F1F700005F9AA5E0AA95F1F7E4
:102AC00000005F98440F551F661F771F815029F73C
:102AD000BD89B13469F480E1E5E1EA95F1F70000E0
:102AE0005F9AF5E0FA95F1F700005F988150A1F741
:102AF00085E08A95F1F7000057985F9A81E054DEEF
:102B00008D8B24CF80915403882319F090930B036D
:102B100002C010920B0365960FB6F894DEBF0FBE8D
:102B2000CDBFDF91CF911F910F91FF90EF90DF907C
:102B3000CF90BF90AF909F908F907F906F905F905D
:102B40004F903F902F90089580E02EDE99B120E1C4
:102B50002A95F1F7811106C04F9B04C097FD02C072
:102B600081E1089580E0089586E391E00895089555
:102B7000109258031092570357985F9A089520E2D5
:102B80002A95F1F7579A5F9894E09A95F1F700002B
:102B900098E087FF05C05F9A2DE02A95F1F708C0FD
:102BA00029E02A95F1F700005F9A24E02A95F1F7D1
:102BB00000005F98880F24E02A95F1F7915049F7BB
:102BC00084E08A95F1F757985F9A08953AE03A952C
:102BD000F1F700C0579A5F9884E08A95F1F70000FA
:102BE00020E180E095E097FF05C05F9A3DE03A95CF
:102BF000F1F708C039E03A95F1F700005F9A34E048
:102C00003A95F1F700005F98880F991F34E03A95E4
:102C1000F1F7215041F728E081E090E087FF05C0FF
:102C20005F9A3DE03A95F1F708C039E03A95F1F73F
:102C300000005F9A34E03A95F1F700005F98880F42
:102C4000991F34E03A95F1F7215041F784E08A95D5
:102C5000F1F757985F9A089557989BB19BB98F3FAA
:102C600019F44F99FECF14C041E050E060E070E0ED
:102C70008130A9F44F9B10C000004F5F5F4F6F4F32
:102C80007F4F403D37E053076105710599F704C058
:102C900041E050E060E070E028E090E026C0823043
:102CA000D9F44F9BF9CF00004F5F5F4F6F4F7F4FBD
:102CB000403990ED590793E06907710591F7ECCF22
:102CC00000004F5F5F4F6F4F7F4F403930ED53072C
:102CD00033E06307710501F34F99F2CFDDCF3AE09E
:102CE0003A95F1F700C0215041F0990F39E03A953B
:102CF000F1F74F9BF4CF9160F2CF811107C04032C2
:102D00005E446105710589F0892F0895813031F4A1
:102D1000403D574061057105B9F707C08230A1F702
:102D20004039504D6340710579F78EEF089582E088
:102D300093DF9AE19A95F1F700C099B1813031F4AF
:102D4000892F8078803811F483E2089580E0089517
:102D500080914D03882309F49CC08091500331E099
:102D6000833209F030E091E0803109F090E0392BB6
:102D700091E08F3209F090E0932B31E0813409F03B
:102D800030E0392B21E0893709F020E0232B91E056
:102D9000382F3F7D333509F090E0922B21F48B7F63
:102DA0008B3109F048C080913203982F9C709C3081
:102DB00021F48061809332033EC082FF04C08B7F88
:102DC00080933203089583FF36C0982F977F9093A6
:102DD000320380913403863011F4946013C0823042
:102DE00021F48091330382601BC0811104C0809163
:102DF0003303816015C0843011F4986003C08730BC
:102E000021F495609093320341C0853021F4809184
:102E100033038C6005C0813031F4809133038360CB
:102E20008093330333C0833089F5809132038A6005
:102E3000809332032BC0809134038630B9F0823006
:102E4000E1F0811103C01092360320C0843021F4D8
:102E50008FEF809336031AC0873019F4109236032F
:102E600005C0853031F48FEF80933603109235031F
:102E70000DC0813021F4109236038FEF05C08330EE
:102E800029F48FEF80933603809335038FEF80937F
:102E900034030895DF92EF92FF920F931F93CF9325
:102EA000DF931F92CDB7DEB78BB18F7C8BB925E353
:102EB0002A95F1F700008FEFEFECEE2EFFE2DF2E08
:102EC0001FE70FEFFF24F39420ED37E090E049B1C6
:102ED000440F440B9F5F9423215031092115310584
:102EE00009F403C2953098F31092560310925503DB
:102EF00010925A031092590389832ADF9091340368
:102F00008981963031F42091550330915603326017
:102F100037C0923031F4209155033091560331601F
:102F20002FC0911106C0209155033091560338608F
:102F300027C0943031F4209155033091560334600A
:102F40001FC0953031F420915503309156033660FF
:102F500017C0973031F420915503309156033A60F1
:102F60000FC0913031F420915503309156033960F0
:102F700007C0933049F420915503309156033560D2
:102F800030935603209355039091320394FF09C068
:102F900020915503309156033062309356032093AD
:102FA000550397FF09C020915503309156032061C6
:102FB000309356032093550396FF09C02091550383
:102FC000309156032062309356032093550340916D
:102FD000330340FD04C020913803243648F4209187
:102FE00055033091560328603093560320935503C0
:102FF00093FD04C020913803273948F020915503F0
:10300000309156032460309356032093550392FD6C
:1030100004C020913703243648F4209155033091A1
:1030200056032260309356032093550341FD04C09C
:1030300020913703273948F02091550330915603EA
:103040002160309356032093550391FF09C02091CE
:10305000550330915603306830935603209355033F
:1030600090FF09C02091550330915603306430938E
:1030700056032093550395FF09C0209155033091C5
:1030800056033061309356032093550390913503D6
:10309000903D10F0E0923503909135039F3210F48B
:1030A000D092350390913603903D10F0E0923603B4
:1030B000909136039F3210F4D0923603209135035D
:1030C000205830E0322F222790913603412F491BA0
:1030D000242B30935A0320935903BEDD813009F02D
:1030E00051C08AE08A95F1F700C0579A5F9894E042
:1030F0009A95F1F7000020E18091550390915603D5
:1031000097FF05C05F9AEDE0EA95F1F708C0F9E096
:10311000FA95F1F700C05F9A34E03A95F1F70000B4
:103120005F988091550390915603880F991F909353
:103130005603809355032150F9F620E180915903FD
:1031400090915A0397FF05C05F9A4DE04A95F1F7B9
:1031500008C089E08A95F1F700C05F9A94E09A95DB
:10316000F1F700005F988091590390915A03880FFE
:10317000991F90935A03809359032150F9F600C088
:1031800000C084C0811103C021DD81E09DCE8F3F4E
:1031900049F40F90DF91CF911F910F91FF90EF9025
:1031A000DF9014CD823009F075C0E3E0F1E0319793
:1031B000F1F700C0000080915703882309F452C042
:1031C000FAE2FA95F1F700C0579A5F9822E02A9543
:1031D000F1F7000080E091E020E827FF0AC032E02C
:1031E0003A95F1F700005F9A4DE04A95F1F700003B
:1031F00008C0E8E0EA95F1F700C05F9AF5E0FA95BB
:10320000F1F75F98269529F032E03A95F1F700C082
:1032100001C020E80197009701F700C000C000003E
:1032200088E098EB97FF05C05F9A4DE04A95F1F76B
:1032300008C0E9E0EA95F1F700005F9AF4E0FA953A
:10324000F1F700005F98990F24E02A95F1F781507B
:1032500049F734E03A95F1F7000057985F9A1092D9
:10326000570393CF40E24A95F1F7579A80E191E0F6
:103270005F9AE4E0EA95F1F75F98FCE0FA95F1F7E0
:1032800001970097A9F725E02A95F1F700005798D4
:103290005F9A7BCF833031F587EF90E00197F1F7AC
:1032A00000C0000080E0D8DCE8EDFFE03197F1F7E6
:1032B000803821F4F092570388EB12C08E3F11F44E
:1032C00081EE0EC08B3111F480E00AC0813021F410
:1032D00000930B038BEE04C0811157CF10920B03A8
:1032E0004EDC53CF8E3F09F050CF0F90DF91CF913E
:1032F0001F910F91FF90EF90DF9008958EE391E082
:10330000089508958AB18C708AB98BB1836F8BB997
:1033100083EF8093E1028093E2028093E302809343
:10332000E4028093E50246983E9888E0809381000D
:1033300082E080936F008FEF8093880081E080931C
:1033400089001092E7021092E60210920C03089591
:10335000259A2D9A8FE39CE90197F1F700C00000B0
:103360002D98259A2D9A8FE39CE90197F1F700C0DB
:1033700000002D98259A2D9A8FE39CE90197F1F78B
:1033800000C000002D9889B1837F833F69F0259AA2
:103390002D9A9FEF29EF80E0915020408040E1F787
:1033A00000C000002D9808958FEF9CE7369B09C060
:1033B000369B0AC001970097D9F7E9CF019700978C
:1033C00031F3369BFBCF11C089B1837F833FF9F680
:1033D000259A2D9A2D9890E59A95F1F789B1837FDA
:1033E000833FA9F636990EC0D2CF89B1837F833F40
:1033F00071F620E52A95F1F789B1837F833F39F68D
:103400003699C5CF85E2089510920C039091810002
:1034100095609093810078941092850010928400BA
:10342000813031F4862FF82F3699FECFFBB905C0D5
:10343000862FF82F369BFECFFBB9B19A10928500EC
:103440001092840010928100F89480910C038823DC
:1034500069F03E988AE68A95F1F700C0369903C074
:103460008BB18F7302C08BB1836F8BB981E0909168
:103470000C03911101C080E008958AB1836F8AB96D
:1034800083EF8093E1028093E2028093E3028093D2
:10349000E4028093E5028091320385FF03C092EF3E
:1034A0009093E50280FF05C09091E5029D7F909387
:1034B000E5029091E5029F739093E50287FF03C0B8
:1034C00092EF9093E40281FF05C08091E4028D7F2A
:1034D0008093E4020E945909809134039FEF980F72
:1034E000933078F49091E10290689093E10290918A
:1034F000E5029F779093E5029091E4029F77909385
:10350000E4029BEF980F933090F49091E102906465
:103510009093E1029091E5029F7B9093E502909158
:10352000E4029F7B9093E402873099F402C08111FA
:1035300010C09091E10290619093E1029091E502B8
:103540009F7E9093E5029091E4029F7E9093E40227
:1035500002C0813071F38350833078F48091E102AE
:1035600080628093E1028091E5028F7D8093E50285
:103570008091E4028F7D8093E4028091320386FF84
:1035800005C09091E2029F7E9093E20283FF05C006
:103590009091E2029F7D9093E20282FF05C090919C
:1035A000E2029F7B9093E20284FF05C08091E202D9
:1035B0008F778093E20236990AC06091E40280E03E
:1035C00023DF81110DC06091E50281E008C06091A8
:1035D000E50281E019DF811103C06091E40214CF9C
:1035E0000895259A2D9A85E08A95F1F700002D9887
:1035F00044CF86E491E0089508951092E80281E0B6
:103600008093E902579856988AB18F7C8AB93E9880
:103610005E9A5F9A8BB180638BB9469A08954E9BF0
:10362000FECF8FEC97E00197F1F700C000004F9BB1
:1036300014C04E9912C04E9BFECF4F99FECF8FE81B
:1036400091E00197F1F700C000004F9B02C080E0BD
:1036500001C08FE24F9903C0089580E0089581E290
:103660000895CF92DF92FF920F931F93CF93DF9332
:103670001F92CDB7DEB789830E9459099091340318
:103680008981992309F48AC2943009F48AC2963058
:1036900059F09230B1F09730B9F020E030E0953039
:1036A00031F420E630E012C020E430E00FC0913069
:1036B00019F420E930E00AC0933041F420EA30E008
:1036C00005C020E830E002C020E530E090913203F0
:1036D00095FD286094FD246040912F03413291F5BF
:1036E00091FD216090FD22606091390361110EC04F
:1036F00060913A0361110AC040914D0341112AC003
:103700006091350370E06115710531F19370A1E0AE
:10371000B0E011F0A0E0B0E0B195A195B10991EE53
:10372000961B990F911D692F91FB67F992FB66F922
:1037300093FB65F995FB63F996FB62F997FB61F9D9
:1037400070E069C160E070E0A0E0B0E04F3209F0E5
:1037500062C105C060E070E0A0E0B0E05CC190FD37
:10376000216092FD226093FD316091FD326096FDF3
:10377000346097FD38604091E90290914D034430E8
:10378000C1F1911105C09091E8029F5F9093E8020A
:103790009091E802933310F14091350350E04B30A3
:1037A0005105CCF44091370350E04B3051059CF467
:1037B0004091360350E04B3051056CF44091380392
:1037C00050E04B3051053CF490913903911103C006
:1037D00090913A03911130681092E80244E64093C8
:1037E000ED0290EA9093EC024093EB029093EA0290
:1037F00012C13068992351F091E09093E9023F772C
:10380000EFE3FCE93197F1F700C0000010913903B4
:1038100090913203D0905003111132C010913A03AD
:1038200011112EC096FD03C0F5E4DF1205C040E87B
:10383000409338034093370397FF05C040E8409317
:103840003603409335030091350310913703E02F81
:10385000F0E0412F50E0E417F5071CF0102FF12C99
:1038600002C0FF24F394C090360300913803EC2D7E
:10387000F0E0402F50E0E417F50724F00C2D02C0D3
:1038800000E8F12C4CEB4D0D423018F041E04F2593
:1038900001C040E04170D42E4091EC02401710F47A
:1038A0000093EC024091ED02041710F40093ED0236
:1038B0004091EA02411710F41093EA024091EB02A2
:1038C000141710F41093EB02DD20A1F0E02FF0E0CC
:1038D0004091EC0250E04E505109E417F5070CF00E
:1038E00057C14091ED0250E0425F5F4F4E175F07B6
:1038F0000CF051C14091EE024017D0F4502F541BF0
:10390000452F593C08F040E0F1104695440F411D09
:10391000042E01FA47F902FA46F903FA45F905FAC5
:1039200043F906FA42F907FA41F950E04E7F18C010
:10393000401B493C08F040E0F1104695440F411D02
:10394000542F41FB57F942FB56F943FB55F945FB10
:1039500053F946FB52F947FB51F95160452F50E0AE
:10396000DD20A1F0C12ED12CE091EA02F0E03E97DB
:10397000CE16DF0614F05E6F3EC0E091EB02F0E081
:103980003E96EC15FD0514F05F6F35C0E091EF0237
:10399000E117D0F4F12FFE1BEF2FF93C08F0E0E027
:1039A000F110E695EE0FE11D0E2E01FAE7F902FA8D
:1039B000E6F903FAE5F905FAE3F906FAE2F907FA96
:1039C000E1F95E2B5E7F17C0E11BE93C08F0E0E007
:1039D000F110E695EE0FE11D0E2E01FAE7F902FA5D
:1039E000E6F903FAE5F905FAE3F906FAE2F907FA66
:1039F000E1F951605E2B0093EE021093EF024D7FD0
:103A00005D7F2227307FE92FEF7009F0326095FF4C
:103A100004C0316002C040E050E000912F030F323B
:103A200011F018E001C010E1811103C0EFE0F4EAE9
:103A30000CC0E3E8F3E04E990AC031973097D9F70C
:103A4000B3C03197309709F4AFC04E9BFACF9BB10A
:103A500090639BB990E0E1E0F0E06F01C222D322D5
:103A6000CD2811F05D9801C05D9A6F01CA22DB225A
:103A7000CD2811F05C9801C05C9A6F01C622D72254
:103A8000CD2811F0469801C0469AEE0FFF1F4F99BE
:103A9000FECF0F3211F44F9BFECF9F5F9117E8F2DC
:103AA00037FF72C0882309F46FC08091E90281302A
:103AB00009F03DC025E02A95F1F700008093E90266
:103AC0008BE795E124E04E9907C04F9B2093E902D4
:103AD00001970097C1F768C080E090E074E045E08E
:103AE0004A95F1F700006CE021E030E0A90148239D
:103AF0005923452B11F05D9801C05D9A220F331FA9
:103B00004F99FECF615091F77093E9029C5F5D9AE7
:103B100023E833E04E9906C02150310921153105C3
:103B2000C9F742C081155CE09507C9F63DC085E044
:103B30008A95F1F7000081E08093E90280E190E04E
:103B400021E030E0B90164237523672B21F05D98F3
:103B500061E070E002C05D9AFBCF4F9B03C06F5FD6
:103B60007F4FFBCF69397A43F8F4220F331F019757
:103B7000009741F78FE99FE00197F1F700C000003F
:103B800084E08093E90210C05D985C9846980CC070
:103B90004EEF50E0E7CE4FEF50E0E4CE20E130E0D2
:103BA00095CD20E230E092CD0F90DF91CF911F9123
:103BB0000F91FF90DF90CF900895559A549A3E9AB6
:103BC00080E090E04EDD80912F03813219F481E096
:103BD00090E047DD87EC90E00197F1F700C000002E
:103BE00008958EE491E0089508955198599A3E9869
:103BF000469A509A1092F1021092F002089570E0E5
:103C000090E06115710569F19B0128233923232B6D
:103C100011F0589A0AC0589808C0369917C02F5FFB
:103C20003F4F30935F0120935E0120915E01309100
:103C30005F01283840E9340780F308C0369B0EC086
:103C40002F5F3F4F30935F0120935E0120915E0113
:103C500030915F01283840E9340780F37695679505
:103C6000D0CF58980895DF92EF92FF920F931F9351
:103C7000CF93DF93D0903503E0903603F0903A0372
:103C800080914D03882329F01092F1021092F002E6
:103C90000AC08EEC8D0D873930F081E090E0909372
:103CA000F1028093F0028091F0029091F102209154
:103CB00034033091320340913303019741F52430AE
:103CC00049F0222351F0223059F0263061F000E013
:103CD00010E00BC000E014E008C000E018E005C0F0
:103CE00000E012E002C000E011E030FD106431FDA0
:103CF000106136FD106837FD106135FD006834FD38
:103D0000006441FD006140FF37C0006235C02530CE
:103D100009F404C1273009F404C1213059F02330DB
:103D2000B1F02430B9F0C0E0D0E8211106C0C0E005
:103D3000D8E812C0C0E0D4E90FC0223019F4C0E0C6
:103D4000D4E80AC0263041F4C0E0D2E805C0C0E0A3
:103D5000D2E902C0C0E0D0E930FDD16031FDC068D9
:103D600037FDC06435FDC06234FDC06141FDC860EF
:103D700040FF04C0C46002C0CBE7D1E020ED37E0D3
:103D800080E0369902C08F5F01C080E090E19A9593
:103D9000F1F7215031092115310509F4C5C08530ED
:103DA00080F3509A20915E0130915F01283880E9BC
:103DB000380748F4369913C02F5F3F4F30935F01A7
:103DC00020935E01EFCF2838304949F4ADC0369BCF
:103DD0000EC02F5F3F4F30935F0120935E01209113
:103DE0005E0130915F01283880E9380780F38091C7
:103DF000F0029091F102019711F458980AC0589A74
:103E000008C036990EC02F5F3F4F30935F0120935B
:103E10005E0120915E0130915F01283890E93907F9
:103E200080F381E090E090935F0180935E01D7FF83
:103E300002C0589A01C0589885E18A95F1F70000B0
:103E400036996AC060E48D2FDADE60E88C2FD7DE09
:103E50002091F0023091F102232B09F45DC060E85B
:103E600088E0CDDE60E88D2DCADE82E020915E0123
:103E700030915F01283890E9390788F436990FC0EE
:103E80002F5F3F4F30935F0120935E01EFCF369B52
:103E90000EC02F5F3F4F30935F0120935E01209152
:103EA0005E0130915F01283890E9390780F3815035
:103EB000E9F660E88E2DA3DE82E020915E0130916C
:103EC0005F01283890E9390788F436990FC02F5FD1
:103ED0003F4F30935F0120935E01EFCF369B0EC0C2
:103EE0002F5F3F4F30935F0120935E0120915E0171
:103EF00030915F01283890E9390780F38150E9F665
:103F000060E88F2D7CDE68E082E079DE60E8812F5A
:103F100076DE60E8802F73DE589A06C0C0E0D2EAF1
:103F20001BCFC0E0D4EA18CFDF91CF911F910F9142
:103F3000FF90EF90DF90089581E090E090935F0113
:103F400080935E0180915E0190915F01883820E945
:103F5000920720F4369907C00196F0CF883890492F
:103F600011F480E0089587E998E00197F1F700C027
:103F700000003699F6CF81E090E090935F01809346
:103F80005E0180915E0190915F01883820E992077F
:103F900020F4369905C00196F0CF8838904909F38E
:103FA000499BDFCF8FED9EE20197F1F700C0000043
:103FB0004F9BD7CF8BE2089586E591E00895089551
:103FC00010925C0310925B03089583B18E3F59F405
:103FD00081E090E090935C0380935B039093F30205
:103FE0008093F2020FC083B18C3F59F481E090E0DE
:103FF00090935C0380935B031092F3021092F202A1
:1040000001C0089581E308950E9459098091340305
:10401000843081F0823081F0882381F0863081F015
:10402000873081F0853081F0813081F0833081F0FC
:1040300020E00FC020E40DC020E10BC020E809C043
:1040400020E207C020EA05C020E603C020E901C045
:1040500020E540913203642F617040FD02C050E0C2
:1040600001C050E480915B0390915C03342F327067
:104070008130910571F4611121603111226030911C
:10408000450332FD206C44FD206345FF1DC0206EBA
:104090001BC0611121603111226042FD02C030E07D
:1040A00001C030E843FD306446FD306247FD3061B9
:1040B0004091330340FD386041FD346046FD32607D
:1040C00047FF03C0316001C030E0EBB178B165B1AA
:1040D0000097A9F1422F4095E36F4E23019719F401
:1040E00083E0842701C0842F8BB98091F2029091E4
:1040F000F302892B29F48BB183608BB921FD589889
:10410000852F8095972F9064892388B9832F809578
:10411000962F9E6F892385B980915B0390915C03F4
:10412000019709F423602AB98091F2029091F30279
:10413000892B19F48AB183608AB957B934B90895C3
:1041400080E691E0089508951092FA021092F40228
:104150003E9A469A8AB1806F8AB98BB18FEF8BB93C
:104160001092FC0282E08093FB0208958FEC8BB9E1
:1041700089B18370833011F580E090E029B123701C
:10418000213029F0019681152AEF9207B9F72FEF18
:104190002BB981159A4F91F020E030E089B18370FE
:1041A000813031F42F5F3F4F21158AEF3807B1F787
:1041B0008FEC8BB981E021153A4F09F480E0089526
:1041C000D5DF882359F08FE39CE90197F1F700C010
:1041D0000000CCDF89B1837019F0089580E0089564
:1041E00089E1089599B19370E9F7982F9F609BB981
:1041F000469899B193709130E1F720E1829FC00118
:1042000011248F608BB9469A08951F93CF93DF9343
:1042100090913403953089F0973091F0913099F076
:104220009330A1F09923A9F09430B1F09630B9F011
:104230009230C1F0CFEFDFEF17C0CFE9DFEF14C04E
:10424000CFEADFEF11C0CFE6DFEF0EC0CFE5DFEF43
:104250000BC0CFEEDFEF08C0CFEDDFEF05C0CFEB37
:10426000DFEF02C0CFE7DFEF80913203382F3270EB
:1042700081FDCE7F87FF05C0911102C0DF7701C0AD
:10428000CD7F80FDCB7F85FDC77F582F507486FF83
:1042900005C0911102C0D77F01C0DF7E83FDDF7DA5
:1042A000482F447082FDDF7B2091330321FDDF77AF
:1042B00020FDD77F2091FA02213009F448C01092E6
:1042C000F40220915003253451F0203431F02A308B
:1042D00079F4552321F0CE7F02C04111D77F10928F
:1042E000FA0222E02093FC0223E02093FB021FC08D
:1042F00040913903442381F0233771F43111CB7F8E
:1043000023E02093FB0222E02093FC022093FA0298
:1043100021E02093F4020BC020913503225327396A
:1043200030F026E02093FB0221E02093FC02943041
:1043300071F48378833859F482E08093FC0283E03F
:104340008093FB0281E08093FA028093F4028091D3
:104350004D03882349F01092FC0282E08093FB0217
:104360001092FA021092F4028FE18BB989B1837036
:10437000E9F71091FB028091FC0220E1829FC001CD
:104380001124812B2FDF133009F078C0C095D09510
:104390008091FA02823019F42091390307C08330EA
:1043A00019F420913A0302C020913503822F90E046
:1043B0003091F902831B91092093F90297FD02C005
:1043C000CF7E01C0C061309150034091F40234347B
:1043D00071F0442361F0283C20F0CF7E88E39FEF0A
:1043E00013C0213420F4C06188EC90E00DC09C0122
:1043F0002A513F4F2D3C314038F0CF7E8091F7025B
:1044000084FDC0618091F60291E0980F909335038E
:104410008093F60220913603822F90E03091F802CB
:10442000831B91092093F8021816190614F4C06230
:1044300001C0CF7D442361F0283C20F0C06282E3BC
:1044400090E013C0213420F4CF7D8EEC9FEF0DC09F
:104450009C0126503F4F253F314038F0CF7D809161
:10446000F70285FDC0628091F502982F9195909397
:1044700036038093F502CF73C093F7028C2FB2DE20
:10448000133049F480913503ADDE80913603AADE06
:10449000153030F40DC08D2FA5DE133048F0F2CF6B
:1044A00080913B039FDE153019F080913C039ADE2A
:1044B00081E098DE87EC90E00197F1F700C0000002
:1044C000DF91CF911F91089588E691E008950895B6
:1044D0008AB1836F8AB988E08093810082E08093FB
:1044E0006F00A8E8B0E09FEF9C93E9E8F0E081E07E
:1044F00080839C93808308952FEF89E698E1215073
:1045000080409040E1F700C000001C9903C020E209
:104510002A95F1F780E090E01C9B0BC00196811575
:104520002AEF9207C9F712C0019681152AEF920768
:1045300069F01C9BF9CF1D9908C08FE99FE0019796
:10454000F1F700C0000085E10895089508950E94E4
:1045500059099091320395FD02C02FEF01C02DEF54
:1045600097FD2F7780913403823011F42F7B1BC08D
:10457000863011F42F7D17C0843011F42F7E13C0C4
:10458000811102C02E7F0FC0873011F42E7D0BC029
:10459000853011F42F7C07C0813011F42E7B03C0CD
:1045A000833009F42F7A91FD02C05FEF01C05FE70D
:1045B0008091330380FD5F7B83FD5F7D86FD5F7EA1
:1045C0006091450361FD5E7F90FD02C04FEF01C029
:1045D0004FE781FD4F7B84FD4F7D87FD4F7E62FD60
:1045E0004E7F94FF02C03FE701C03FEF82FD3F7B5B
:1045F00085FD3F7D60FD3F7E63FD3E7F1F9B04C0C8
:104600001C9B04C080E003C081E001C082E0909167
:1046100081009560909381007894109285001092AB
:104620008400813029F08230A1F080E090E029C040
:104630001F9BFECF80910C0381114FC02BB91C9B97
:10464000FECF5BB91D9BFECF4BB91E9BFECF3BB986
:1046500044C01C9BFECF80910C0381113EC05BB90E
:104660001D9BFECF4BB91E9BFECF3BB91F9BFECFC0
:104670002BB91C9BFECF31C0019681156AEF9607BE
:10468000B1F11C99F9CF60910C03611126C02BB9CF
:104690001C9906C0019681152AEF9207C9F727C019
:1046A0005BB91D9906C0019681156AEF9607C9F797
:1046B0001EC04BB91E9906C0019681152AEF9207BC
:1046C000C9F715C03BB91F9906C0019681156AEF5D
:1046D0009607C9F70CC083EF8BB9B19A1092850089
:1046E0001092840010928100F89410920C030895A7
:1046F00080E791E0089508958AB181678AB90895A5
:10470000803124EA920720F44F9906C00196F8CF31
:10471000803124EA920739F028E02A95F1F7369B98
:1047200002C04F9905C080E00895369B09C00196EC
:10473000803124EA9207C8F3803124EA920799F382
:104740004F9BF1CF03C04F9B08C00196803124EAF4
:104750009207C8F38031944A31F396B1892F80745F
:1047600096FDE1CF4F9B87E20895CF93DF930E94A0
:1047700059093091320335FD02C09FEF01C09FEE11
:1047800020913403223009F46AC0263009F469C04C
:10479000243049F0222389F0273089F08FEF25302B
:1047A00021F48FEA0DC08FEB0BC0213011F48EED98
:1047B00007C0233029F48EEB03C08FED01C08FECCE
:1047C00031FD9F7D30FD9E7F34FD9F7B232F2C7C10
:1047D00069F037FD02C02FEF01C02FED33FD2F7EB2
:1047E00032FD2F7B36FF07C02E7F05C0292F382FC3
:1047F0009FEF8FEF05C03EE803C0369905C02196B4
:10480000C03144EAD407C8F33BB903C04F9B05C08D
:104810002196C03144EAD407C8F32BB93E3841F0A1
:1048200084EF91E0369906C001970097D9F702C04E
:10483000292F382F80E090E0369905C00196843FFB
:1048400041E09407C9F73BB94F9B05C00196803101
:1048500034EA9307C8F32BB9DF91CF9108958EEF17
:10486000AFCF8FEEADCF88E791E0089580B380663B
:1048700080BB81B3806681BB089520B380B38F79FC
:1048800080BB9FB120BB907681E009F480E0089561
:104890009FB1907651F428E632E49FB1907639F4D6
:1048A0002150310921153105C1F78EEF089596E0A9
:1048B0009A95F1F700C09FB19076B9F790E19A957B
:1048C000F1F7EDE0F3E040E0481709F4B1C0908162
:1048D00096959083000000007D9B03C000C000C03F
:1048E00002C09068908394E19A95F1F79081969533
:1048F0009083000000007D9B03C000C000C002C088
:104900009068908394E19A95F1F7908196959083C1
:10491000000000007D9B03C000C000C002C0906882
:10492000908394E19A95F1F7908196959083000099
:1049300000007D9B03C000C000C002C0906890834F
:1049400094E19A95F1F7908196959083000000008C
:104950007D9B03C000C000C002C09068908394E1BA
:104960009A95F1F7908196959083000000007D9BC9
:1049700003C000C000C002C09068908394E19A9583
:10498000F1F7908196959083000000007D9B03C015
:1049900000C000C002C09068908394E19A95F1F73E
:1049A000908196959083000000007D9B03C000C01D
:1049B00000C002C0906890837D9B17C020E030E06B
:1049C0007D9B0BC02F5F3F4F2C3D95E03907C1F712
:1049D00004C07D9906C02F5F3F4F2C3D95E03907FD
:1049E000C1F796E09A95F1F720C020E030E07D997C
:1049F0000BC02F5F3F4F2C3D95E03907C1F704C036
:104A00007D9B0BC02F5F3F4F2C3D95E03907C1F7D1
:104A100004C07D9906C02F5F3F4F2C3D95E03907BC
:104A2000C1F795E09A95F1F700004F5F31964CCFB2
:104A300085E38A95F1F7000080910D03089590B306
:104A40009F7990BB28E632E49FB1907639F42150EB
:104A5000310921153105C1F78FEF08959AE19A9533
:104A6000F1F700C090B3906690BB91B39F7991BB72
:104A700027E02A95F1F798E08D9A2AE02A95F1F738
:104A800000C080FD8D982AE02A95F1F700C0869538
:104A9000915091F78D9A85E08A95F1F700008D98F5
:104AA00090E19A95F1F781B3806681BB80B38F79ED
:104AB00080BB2AE12A95F1F700C080E0089580E8E4
:104AC00091E00895982F973058F59093E900981742
:104AD00039F07091EC002091ED005091F00003C08E
:104AE000242F762F50E021FF19C03091EB003E7F3C
:104AF0003093EB003091ED003D7F3093ED0030912D
:104B0000EB0031603093EB007093EC002093ED00EC
:104B10005093F0002091EE0027FF07C09F5FD3CF96
:104B20008F708093E90081E0089580E0089517D0A8
:104B30001ED0E0EEF0E0808181608083E8EDF0E05F
:104B400080818F77808319BCA7EDB0E08C918E7F38
:104B50008C9380818F7E8083109260030895E8EDAE
:104B6000F0E080818E7F80831092E20008951092A1
:104B7000DA001092E10008951F920F920FB60F9283
:104B800011242F933F934F935F936F937F938F9352
:104B90009F93AF93BF93EF93FF938091E10082FFC8
:104BA0000AC08091E20082FF06C08091E1008B7F05
:104BB0008093E100A5D08091DA0080FF1DC0809134
:104BC000D80080FF19C08091DA008E7F8093DA00D0
:104BD0008091D90080FF0CC080E189BD82E189BD50
:104BE00009B400FEFDCF81E08093610389D004C049
:104BF00019BC1092610384D08091E10080FF18C03D
:104C00008091E20080FF14C08091E2008E7F80934B
:104C1000E2008091E20080618093E2008091D80000
:104C200080628093D80019BC85E08093610368D0CE
:104C30008091E10084FF2DC08091E20084FF29C0B3
:104C400080E189BD82E189BD09B400FEFDCF80917C
:104C5000D8008F7D8093D8008091E1008F7E809373
:104C6000E1008091E2008F7E8093E2008091E2007B
:104C700081608093E20080915D03811104C0809186
:104C8000E30087FF02C084E001C081E080936103FC
:104C900037D08091E10083FF22C08091E20083FF42
:104CA0001EC08091E100877F8093E10082E08093C5
:104CB000610310925D038091E1008E7F8093E1009B
:104CC0008091E2008E7F8093E2008091E20080611B
:104CD0008093E20042E360E080E0F4DE11D0FF91D7
:104CE000EF91BF91AF919F918F917F916F915F9164
:104CF0004F913F912F910F900FBE0F901F901895DD
:104D00000895EE0FFF1F0590F491E02D0994FB012B
:104D1000DC0104C08D910190801921F44150504074
:104D2000C8F7881B990B0895FB01DC0102C00190B4
:0E4D30000D9241505040D8F70895F894FFCFEF
:104D3E00100BA80B5A0B0F0B340F340E2C0E270E24
:104D4E00E02080E02080E02080E020800000000055
:104D5E00E02080E02080E02080E020800000000045
:104D6E000000A4200101CF135014A415CE13B815C2
:104D7E004A179716B7158219F11AA8198119FD1A33
:104D8E00DD1D0F1BFC1AF51D331E9C1FF41D0100AB
:104D9E00E01F0420E51FDF1FA4200521E020A32033
:104DAE006822A7227C2267227C23B52380237B23C3
:084DBE00362448241F253D2482
:00000001FF
