:100000007AC5000094C5000092C5000090C50000AC
:100010008EC500008CC500008AC5000088C50000A0
:1000200086C500000C94F82D0C941E3080C500008D
:100030007EC500007CC500007AC5000078C50000C0
:1000400076C5000075C5000072C5000070C50000CF
:100050006EC500006CC500006AC5000068C50000E0
:1000600066C5000064C5000062C5000060C50000F0
:100070005EC500005CC500005AC5000058C5000000
:1000800056C5000054C5000052C5000050C5000010
:100090000C9478144CC500004AC5000048C5000007
:1000A00046C5000044C5000042C50000140F1C0FE7
:1000B000910EE40E360F470F5F0F7C0FC30FC30F77
:1000C000C30FC30F8A0FA00FC30FB30F7051038666
:1000D000400D4FEB3ECCD18735BDF50B5ED0F8F22D
:1000E000D5E26C310CADFC21C378C106C24C55E69B
:1000F0004A3448111EDAE71A84A096A7E37FAF635B
:100100009CFA235B79C89EBAB2C922124BB3A1B63E
:100110003249A2E189391066C5078F54EA91CA3F76
:10012000F919F0D746BC281B61E82F6AAE9DF64E40
:100130000914774DDB1F2E7B7CF143A300B8138C91
:1001400085B9297588FDD2561C509741E53B60B5AD
:10015000C064EE98D62D25A4AACD7DA883C6ABBEDB
:100160004499263CCE9FBFD3CB767A7E82018A9A71
:10017000801D0EB05CD43862F430E08E53B7025765
:10018000ACA6520A6D9265172433457274B1B4F768
:100190005DED2CFF47375A90BBDF2A165995D9C41D
:1001A000276773C768FEA5DD6B5F93D8EC053A8DB2
:1001B0006EFB3DA96936F394DEEF156F8B9B080F3C
:1001C000DC81182004E471CFE92B425801A0A96218
:1001D000D63F85A7B6D4FA15661709BD5D14342637
:1001E00059729154064FF8B05B7493998CF245CDD7
:1001F000EA4EAD104AE5CAEEDFC66F9F888E02CC8C
:1002000008A877946D21B128E43979966071811638
:100210002EE678B9C4469A42AEB77C43B3221A861A
:10022000C2323D2D9CD229E9639BD131385E1E3606
:1002300041BB03182B3EBF6861FC52C0DEE00A5888
:10024000135A00BE1C900E5312FDE26EBACE242744
:10025000447F87A3A1D55040E3F983F7C7A235C8EF
:10026000DB19AB2F1125ED339E55E148AF7384DACE
:100270002AAA51EB9D95B2CBE77080FE4C6504EF46
:10028000C5F1C33AB4F55F2389DD30A58BD3F6DC25
:100290004D64D7F08FEC56375CA40D07768A2C0B93
:1002A000B5D8C11FE83BF44B1B476C49677B92CF25
:1002B000757E20D97D3C977AD0056B0F1DFB829807
:1002C000578DF36ABCACC9A6FFB8690C4C4D7207D8
:1002D0005A49338DA2AB463D630DA097FFF0F5FA66
:1002E000C0E9DB62E4E17443DC86182937F406E2F6
:1002F000ED6F90481E2D1DEA739454DF25F64727B5
:10030000D91177C9841C5B5C5181A6223E2496C812
:100310008AEC827C09B8454A57BB2F50758E6170B4
:100320008C6CAFD0FDB41BAEDEFE3BB536BD5501C7
:100330000E9C41565FB3260383BA134BCAC50AF815
:1003400060A5B9C7C39832FB12F9A792AA68F378DF
:100350007E05202102E8BFF2B0598FD2CB87651508
:10036000F11AB230ADEE58A38B661F2CD75D1985FC
:10037000A8E6D36BA10C91936A5E0B79E3DD004F85
:100380003C896E7169A9AC40E59928C6314E7ACD99
:10039000089E7DEF17FC88D8A46D4495D1B7D49BF7
:1003A000BE2A34642BCF2EEB38CE23E03A3FF77BC6
:1003B0009F1053BC526716E7807604C4B6C1C27F53
:1003C0009ADAD53942149DB10F35D6CCB9DA380C4A
:1003D000A29C091F06B1B6FD1A692330C4DE01D103
:1003E000F45829371C7DD5BFFFBDC8C9CF65BE7B7A
:1003F0007897986708B32657F7FA40AD8E75A67CB4
:10040000DB918B5199D4177A908DCE63CB4EA0ABF4
:10041000183A5B507F2174C1BBB8B7BA0B35953120
:10042000599A4D04071E5A7613F37183D08603A898
:100430003942AA28E6E4D85DD3D06E6F96FB5EBC45
:1004400056C25F859BE7AFD23B846AA753C5444938
:10045000A5F936723D2CD91BA1F54F939D684741F4
:1004600016CA2A4CA387D6E5192E77156D70C0DF02
:10047000B20046EDC66C4360922DA922458F3455DB
:10048000AEA40A6632E0DC02ACE8208C89624AFE47
:10049000EEC3E33CF17905E9F62733CCF29E1181F6
:1004A0007E80108A829F480DD7B4FC2FB5C7DD88A7
:1004B000146B2B54EA1D945CB0EF1224CDEBE1E2F7
:1004C00064733F0E5261253EF80F4BECC00030F6CE
:1004D00002493D106E20C9A62FFE2C2B752E4526F5
:1004E000AB48A980FC04CCD3B5BAA338317D01D97F
:1004F000A77B96B663694EF7DEE078CA50AA4191B1
:100500006588E42185DA3A27BE1C3E425E17527F99
:100510001F89246F8F5C67740E12878DE934ED7329
:10052000C4F8615B05DF594C97798318A45595EBA6
:10053000BD53F5F15766469FB2810951862216DDFB
:1005400023937629C2D71DD4BF363FEA4B1132B967
:10055000625460D66D439A0D929CB0EF586C9D77B3
:100560002D70FAF3B30BE2407EF48AE58C3C5671B1
:10057000D164E1820ACB131590EC0399AF145D0F9F
:10058000334A94A5A8351BE36AC628FF4DE72584A6
:10059000AC08AEC5A22AB8370C7AA0C3CEAD061AF5
:1005A0009E8BFBD5D0C11ED0B49BB144F247C76827
:1005B000CF72BB4F5AF9DC6BDBD2E87CC8EE98A156
:1005C000E6D839075FFD8E19B73BBCCD7CE381735C
:1005D000B211BF6F2098FE7596EF6CDA50E1097288
:1005E0005445BA34805BED3E532C87A457F3333F18
:1005F0003CB767B4A325604F076B1B47150FE40A90
:10060000EAD1327836498D4BD2BCA5DC1D0D4DCDDB
:100610009A825FFC9465BEE2F4C91E44CB9E0C64D2
:10062000712663B314E840708A0E19426DAC8810CD
:100630005CDF41A9ADE5FB74CCD5068E5986CE1F93
:100640003D76E08FB977277BA6D829D3ECB813F78E
:10065000FAC3516ADE4A5AEBC28B234892CF62A892
:1006600099F8D02E856143C8BDF00593CA4EF17D3F
:1006700030FDC469662F08B152F921E67A2BDD39C5
:1006800084FFC091D637D47F2D9B5DA13B6EB5C54D
:100690004604F590EE7E831C0356B6AA001701357A
:1006A00055790B12BB1A31E7022816C1F6A2DB18E6
:1006B0009C89683897ABC72AD73AF2C6244CB05801
:1006C000A0225E9DD9A7E9AEAF8C959F28B720D711
:1006D000B030C30919C067D6003C7EE7E9F4085A78
:1006E000F8B82E05A6259E5CD8150DE1F611546BC1
:1006F000CD2146665E84AD06382944C5A2CEF1AA56
:10070000C1407186B5EFFC36A8CB0A48274564A3E3
:10071000AF8CB2C69F0789DC17D34979FBFE1DD089
:10072000B9884352BC01782B7D94C70EDEA5D59BBA
:10073000CCF7617AC274813903AB96A037BD2D72B4
:10074000753FC9D48E6FF98DED62DB1CDF04AC1BE5
:100750006C144B63D0BFB482EC7B1A5992D21060F8
:10076000B63D5FE6806E70C4F235D97CEEE541A4FB
:100770005B50DDBB4CF31F9D5D57555197E35842CD
:100780004D9C73BAC877316926AEEA8ADA22B387FC
:1007900056FA930B341633E8E453BEA9B13A3EF54A
:1007A000906ACF3B12FD8F9AA7479199EB0F24FFD8
:1007B0002318854E7F0CE0A1D2D12C2A4A024F1E6D
:1007C00095688B98836D76CA6532132FC3829AA47D
:1007D000BA8160373435FC80A8516567ED305F1011
:1007E000D34A272F13B92AD2CCE1EFAEEBBEF4BD2A
:1007F000CF43B3C58884B7DD3940CE486D9B726165
:100800007EE7A14E532E773BE2C936221B6E73B1B1
:1008100003B24C87A9D44D0FD8156CAA18F64957C6
:100820005DFB7A149463A011B09EDE0546C8EE47C6
:10083000DBDC24899C919729E97BC1071EB8FDFE6A
:10084000ACC662984FF179E0E86B7856B68D0450EB
:1008500086CA6F20E6EAE576171C747FBC0D2C85EE
:10086000F76696E48B753F4BD938AF7CDA0B832D56
:100870003132A2F51D594145BF3C1FF8F98AD01607
:10088000256912999D2195AB01A6D7B5C07DFF586A
:100890000E3A92D155E3089FD63E528EFAA3C70274
:1008A000CDDF8F64198CF3A70C5E0A6A09F0935BA5
:1008B00042C20623EC71ADB4CBBB7028D51A5C33B1
:1008C000685A004490A5C4263D2BF25496ADDA1F19
:1008D000ED33E18169080D0ADB35779A64D1FC7844
:1008E000AA1BD067A0DDFA6C63710584176A894F73
:1008F000667FC65055926FBDE7D240728DBBEC0645
:10090000428AE4889D7E7A822713411AAFC8A47672
:10091000B4C2FE6D1CD96130B37CEAF7290FF23BFB
:1009200051C1DE5FE52A2F990B5DA32B4AAB95A53C
:10093000D35856EE283100CC1546CAE686383C65B9
:10094000F5E39FD65B094983702D53A97DE2C4ACC2
:100950008E5EB825F4B957F3F16847B2A25920CE9C
:1009600034795C900E1EBED52223B1C91862162EB2
:10097000913E078FD83F933DD49BDF8521FB1174B7
:1009800097C7D7DC4C194598E943024BBCC3049C7C
:100990006BF07552A726F6C5BACFB0B7AE5AA1BF55
:1009A000038B80126E0CEBF9C04424EF10F8A88C76
:1009B000E87BFF9E2CCD603687B594A654733A141D
:1009C0004E011DB6FD37484D39CBE0320000000026
:1009D0000000000000000000000000000000000017
:1009E0000000000000000000000000000000000007
:1009F00000000000000000000000000000000000F7
:100A000000000000000000000000000000000000E6
:100A100000000000000000000000000000000000D6
:100A200000000000000000000000000000000000C6
:100A300000000000000000000000000000000000B6
:100A400000000000000000000000000000000000A6
:100A50000000000000000000000000000000000096
:100A60000000000000000000000000000000000086
:100A70000000000000000000000000000000000076
:100A80000000000000000000000000000000000066
:100A90000000000000000000000000000000000056
:100AA0000000000000000000000000000000000046
:100AB0000000000000000000000000000000000036
:100AC000000000000000000000000000A877A6E081
:100AD000F7435A3585E272978FB71A6287380D67E8
:100AE000C7BE4F3E2076378F68B7A9263F2B10E34D
:100AF000307E900E850A11241FBECFEFDAE0DEBFF4
:100B0000CDBF12E0A0E0B1E0E0E2F2E602C0059065
:100B10000D92AC3DB107D9F726E0ACEDB2E001C0D3
:100B20001D92A833B207E1F777D20C940E3168CA50
:100B30001F920F920FB60F9211242F933F934F9352
:100B40005F936F937F938F939F93AF93BF93EF9335
:100B5000FF9381E08093D705109285001092840066
:100B60008091F805853151F4E0911B06F0911C0647
:100B70000480F581E02D80E0099508C0853231F4CC
:100B8000369B02C0469801C0469A3E9AFF91EF916B
:100B9000BF91AF919F918F917F916F915F914F9195
:100BA0003F912F910F900FBE0F901F901895E091DD
:100BB0001B06F0911C060480F581E02D81E2099569
:100BC0008F3FC1F1E0911B06F0911C060280F3817A
:100BD000E02D82E00995803F50F0E0911B06F091F6
:100BE0001C060480F581E02D80E00995E0CF80911E
:100BF000D80580931A068091D905982F917090930B
:100C0000140683FB992790F99093190684FB992782
:100C100090F99093180685FB992790F99093160602
:100C200086FB992790F990931506881F8827881FBF
:100C300080931706089580911A06893721F083332F
:100C400011F08F3721F491E09093130602C01092B7
:100C50001306982F977F973759F0893749F0982FC7
:100C60009F7B933329F0893019F08251823020F430
:100C700081E0809312060895109212060895CF9392
:100C800080911406882311F1E0911B06F0911C0657
:100C90000480F581E02D80E009958F3F11F48EEFFF
:100CA000F1C0E0911B06F0911C060480F581E02D57
:100CB00081E009958F3F99F3E0911B06F0911C06A6
:100CC0000280F381E02D8DE0CF9109948091FB05A6
:100CD000893218F01092FB056ADF8091FB058F5F67
:100CE0008093FB05E0911B06F0911C060480F581C2
:100CF000E02D81E009958F3F91F2E0911B06F09184
:100D00001C060280F381E02D8DE00995C82F803FFD
:100D100048F580911A068C1791F1E0911B06F0912D
:100D20001C060480F581E02D80E0099540DFE0910C
:100D30001B06F0911C060480F581E02D81E00995E9
:100D40008F3F09F4ACCFE0911B06F0911C060280A6
:100D5000F381E02D8DE00995C82F81E08093DC02BE
:100D6000C03F68F0E0911B06F0911C060480F581FD
:100D7000E02D80E009958F3F09F083C090CF8091EE
:100D8000F605882309F46DC080911206882309F4C2
:100D900068C09091D6058091E505981305C08091B3
:100DA000DD02882309F45DC0E0911B06F0911C066A
:100DB0000480F581E02D8CE10995E0911B06F0910E
:100DC0001C060480F581E02D8091E5050995E091F0
:100DD0001B06F0911C0681E09091E505911101C080
:100DE00080E00480F581E02D81950995E0911B0656
:100DF000F0911C060480F581E02D81E10995E091D8
:100E00001B06F0911C060480F581E02D8CE109950C
:100E1000E0911B06F0911C060480F581E02D809185
:100E2000D6050995E0911B06F0911C0681E0909192
:100E3000D605911101C080E00480F581E02D8195F7
:100E40000995E0911B06F0911C060480F581E02DC8
:100E500084E109958091D6059091E50589278093D5
:100E6000DD028091DC02882319F01092DC026BD144
:100E7000E0911B06F0911C060480F581E02D80E0D6
:100E800009958C2FCF910895CF93DF931F92CDB703
:100E9000DEB7F5DE8F3F19F491E090931406909140
:100EA000140691112AC0803FE0F09091DA0520915C
:100EB000D905922398239F3F29F08F3F19F481E0B1
:100EC0008093140681E0809317068DE0E9EEF5E04B
:100ED000A8EDB5E001900D928A95E1F780911A0690
:100EE00019C09DE0E8EDF5E0A9EEB5E001900D92A6
:100EF0009A95E1F780931A060DC09DE0E9EEF5E0C2
:100F0000A8EDB5E001900D929A95E1F7803F10F4BD
:100F100010921406209114069091E705222369F09F
:100F20002091D905911105C091E09093E7052062C9
:100F300001C02F7D2093D9050AC0992341F010925A
:100F4000E705898334DE91E09093DC028981809308
:100F5000E8058F37E9F0833331F58091E005882388
:100F600029F08091D90584608093D9058091DC05B2
:100F7000882329F08091D90581608093D9058091DB
:100F8000DD05882329F08091D90580648093D905F7
:100F90008091DF058093DC0580E88093DD058093F8
:100FA000DF058093E00547D28091D9058093FC0549
:100FB0008091DA058093FD058091DB0580930F0613
:100FC0008091DC058093FF058091DD05809300060C
:100FD0008091DE05809305068091DF0580930106F0
:100FE0008091E005809302068091E10580930606DA
:100FF00080911A06893741F08091E20580930406BA
:101000008091E305809303068091E4058093FE05BB
:101010000F90DF91CF910FCECF93DF931F92CDB77B
:10102000DEB71AB817B814B88FEF8BB988B985B97D
:1010300090E8909361001092610095B7906895BF19
:1010400095B7906895BF1AB817B814B88BB988B916
:1010500085B9509A589A58982FEF88E393E0215019
:1010600080409040E1F700C00000589A10921406AA
:101070001092E7051092DD021092FB0581E080934B
:10108000DC02ECD10E94F92F8091D800806280931D
:10109000D80089B58D7F89BD8091D8008F778093E6
:1010A000D8001CBC1092CA001092C8001092C9004F
:1010B00010927A008091BC008B7F8093BC001092CC
:1010C000C000109291001092900015BC14BC1092B8
:1010D000810010928000AFE9BFE01197F1F700C0E6
:1010E0000000D0D18823E9F30E94C12F90931C0601
:1010F00080931B06DC01ED91FC9109951092DE02B4
:101100001092DF021092E0021092E1021092E202CD
:101110001092E3021092E4021092E5028CD1E09169
:101120001B06F0911C060480F581E02D80E00995F6
:10113000A6DD803FE8F789833ADD898180931A062E
:10114000A3DE98D1FDCFE0911B06F0911C06048030
:10115000F581E02D84E20995E0911B06F0911C06D3
:101160000480F581E02D80E00995E0911B06F09167
:101170001C060480F581E02D85E20995E0911B06AF
:10118000F0911C060480F581E02D80E009958091A6
:10119000F80521E0823309F020E091E0853209F082
:1011A00090E0292B91E0382F3D7F393209F090E013
:1011B000922B29F4982F9F7E953009F041C08091A1
:1011C0001A0621E0803109F020E091E0833209F035
:1011D00090E0922B21E08F3109F020E0292B91E063
:1011E0008F3209F090E0922B31E0813409F030E049
:1011F000392B21E0893709F020E0232B91E0382FAB
:101200003F7D333509F090E0922B41F4873731F080
:10121000893021F0877F833109F0B4C0E0911B064B
:10122000F0911C060480F581E02D84E20995E0919F
:101230001B06F0911C060480F581E02D84E0A1C01E
:1012400021E0893109F020E091E08F3209F090E04F
:10125000292B91E08F3109F090E0922B21F4982F07
:101260009B7F933181F580911A06982F977F31E00B
:10127000933009F030E0982F9F7E985021E0923013
:1012800008F020E0232B91E0382F3B7F313209F02A
:1012900090E0922B31F4883221F08351833008F0B2
:1012A00071C0E0911B06F0911C060480F581E02DD1
:1012B00085E20995E0911B06F0911C060480F581FA
:1012C000E02D83E05EC0833209F048C080911A06A9
:1012D000982F977F21E0933009F020E091E0382F9C
:1012E0003F7D383009F090E0922B21E03CEE380F42
:1012F000323008F020E0292B91E038EE380F3330FF
:1013000008F090E0922B31F4982F9B7F913211F0EE
:101310008633C1F5E0911B06F0911C060480F5812F
:10132000E02D84E20995E0911B06F0911C060480F3
:10133000F581E02D84E00995E0911B06F0911C06F3
:101340000480F581E02D85E20995E0911B06F0917E
:101350001C060480F581E02D81E013C08B3091F4F0
:10136000E0911B06F0911C060480F581E02D80E2DF
:101370000995E0911B06F0911C060480F581E02D93
:1013800080E109940895409100069091020621E0C1
:101390009E3408F020E081E04E3408F080E0282BF5
:1013A00080910106222341F08E3420F03091FF0518
:1013B0003E3410F487E03CC031E0933B08F430E069
:1013C00091E0433B08F490E0932B41F08E3420F001
:1013D0003091FF053E3410F485E02AC0222341F00D
:1013E000833B20F43091FF05333B10F081E020C0B7
:1013F000992341F0833B20F43091FF05333B10F0FB
:1014000083E016C03091FF058E3410F03E3410F4A6
:1014100086E00EC0833B10F4333B10F082E008C03E
:10142000222319F01092FE050895992319F084E003
:101430008093FE050895109206061092FD05109205
:10144000FC058FE08093FE0580E880930206809380
:101450000106809300068093FF05089514BEA895A9
:1014600088E10FB6F89480936000109260000FBE80
:10147000F8940895E0911006F09111060280F3812E
:10148000E02D0994CF93DF93509A589A58988FE69D
:1014900097E10197F1F700C00000589AAFE9BFE06B
:1014A0001197F1F700C000001092F6051092F705B1
:1014B000509A589A58988FE39CE90197F1F700C029
:1014C0000000589A1AB817B814B88FEF8BB988B9BA
:1014D00085B90E948F2E9093110680931006DC012F
:1014E0001496ED91FC91159709958093F805E0917C
:1014F0001006F09111068111D6C10084F185E02D0E
:101500000995509A589A58988FED9BEA0197F1F7F0
:1015100000C00000589A1AB817B814B88FEF8BB9EA
:1015200088B985B90E94112B9093110680931006FB
:10153000DC011496ED91FC91159709958093F805BF
:10154000E0911006F09111068111ADC10084F18582
:10155000E02D0995509A589A58988FE79BEB019780
:10156000F1F700C00000589A1AB817B814B88FEFF6
:101570008BB988B985B90E94AC29909311068093E4
:101580001006DC011496ED91FC9115970995809356
:10159000F805E0911006F0911106811184C10084D4
:1015A000F185E02D0995509A589A58988FE19BEC57
:1015B0000197F1F700C00000589A1AB817B814B88C
:1015C0008FEF8BB988B985B9F4D4909311068093C5
:1015D0001006DC011496ED91FC9115970995809306
:1015E000F805E0911006F0911106882351F0019062
:1015F000F081E02D099581E08093F6058093F70551
:1016000083C10084F185E02D0995509A589A589825
:10161000BFEF29EF80E0B15020408040E1F700C0EB
:101620000000589A1AB817B814B88FEF8BB988B958
:1016300085B90E94AE259093110680931006DC01B7
:101640001496ED91FC9115970995C82F8093F80594
:10165000E0911006F0911106811125C10084F185F9
:10166000E02D0995509A589A5898BFE726E081E0F6
:10167000B15020408040E1F700C00000589A89B185
:101680008C3F89F41AB817B814B88FEF8BB988B9A2
:1016900085B90E9485279093110680931006DC017E
:1016A000ED91FC9103C1E0911006F09111060084C8
:1016B000F185E02D099583B18F3F09F0F9C0509A6B
:1016C000589A5898BFEF26E781E0B15020408040FB
:1016D000E1F700C00000589A1AB817B814B88FEF95
:1016E0008BB988B985B90E94FD1E9093110680932D
:1016F0001006DC011496ED91FC91159709958093E5
:10170000F805E0911006F09111068111CCC000841B
:10171000F185E02D0995509A589A5898BFE723E82B
:1017200081E0B15020408040E1F700C00000589AAD
:101730001AB817B814B8DFEFDBB9D8B9D5B90E9419
:1017400071179093110680931006DC011496ED91A9
:10175000FC91159709958093F805E0911006F0919A
:10176000110681111EC00084F185E02D09951AB87B
:1017700017B814B8DBB9D8B9D5B90E94421B9093F9
:10178000110680931006DC011496ED91FC911597DB
:1017900009958093F805E0911006F09111068823D1
:1017A00041F00190F081E02D099581E08093F605EC
:1017B000ABC00084F185E02D09951AB817B814B8AC
:1017C000DFEFDBB9D8B9D5B90E94921C909311060E
:1017D00080931006DC011496ED91FC911597099504
:1017E0008093F805E0911006F091110681115BC01D
:1017F0000084F185E02D09951AB817B814B8DBB943
:10180000D8B9D5B90E94E9209093110680931006AB
:10181000DC011496ED91FC91159709958093F805DC
:10182000E0911006F091110681113DC00084F18510
:10183000E02D09951AB817B814B8DBB9D8B9D5B9DD
:101840000E946A249093110680931006DC0114967E
:10185000ED91FC91159709958093F805E09110069C
:10186000F091110681111FC00084F185E02D0995CA
:101870001AB817B814B8DBB9D8B9D5B90E946F2611
:101880009093110680931006DC011496ED91FC9163
:10189000159709958093F805E0911006F0911106CF
:1018A000882309F44BC00190F081E02D09952CC0EC
:1018B00083B1509A589A58988F3541F5BFEF23EF6E
:1018C00081E0B15020408040E1F700C00000589A0C
:1018D0001AB817B814B88FEF8BB988B985B99AD4EC
:1018E0009093110680931006DC01ED91FC9109950F
:1018F000E0911006F09111060480F581E02D099524
:101900008093F8058823B1F0C1E026C0BFEF20E73F
:1019100082E0B15020408040E1F700C00000589ABA
:101920001AB817B814B88FEF8BB988B985B90E9467
:101930001322D6CFE0911006F09111060084F185B4
:10194000E02D0995509A589A58988FE99CE801978C
:10195000F1F700C00000589A8C2FDF91CF910895C5
:1019600008951CBC809117068093E8021092ED0246
:101970001092EE021092EC021092EB0288E184B910
:101980008FEF85B98FE68CBD8CB58F7B8CBD2B9886
:1019900008951CBC08956EBD0DB407FEFDCF8823CD
:1019A00071F08091EE02811104C08AE28A95F1F70C
:1019B00000C02C9885E08A95F1F700002C9A1899C0
:1019C00002C08EB5089580E00895CBDF2B9A8CB5C8
:1019D00080648CBD0895CF93C82F6091010681E08B
:1019E000DADF81508E3F38F48FEA94E00197F1F707
:1019F00000C00000EADF6091020681E0CCDF609168
:101A0000FF0581E0C8DF609100068C2FCF91C3CF26
:101A1000CF9380E090E0DC01189B0AC00196A11DE5
:101A2000B11D843027E1920723E0A207B105A1F799
:101A3000E7ECF0E03197F1F700C00000189B02C01E
:101A400080E02FC0EFE9FFE03197F1F700C0000020
:101A500084309741A340B10599F3189BF1CFB5DFCE
:101A600060E080E098DF813029F06FEF80E093DF65
:101A7000813031F76FEF81E08EDFC82F61E481E0C4
:101A80008ADF6AE581E087DF6FEF81E084DF6FEF57
:101A900081E081DF25E32A95F1F70000C23451F798
:101AA00087E1CF9108951F93CF93DF93189BFECFCB
:101AB0008AEB98E8189B06C001970097D9F788EC45
:101AC0008093EB028091FE05882309F46EC2823078
:101AD00009F46DC2843049F0863089F0813089F094
:101AE000DFEF833021F4DFE90DC0DFEB0BC0853081
:101AF00011F4DFE307C0873029F4DFE603C0DFE736
:101B000001C0DFEC8091FC0584FDDE7F85FDD77F81
:101B10009091FD0596FDDD7F97FDDB7F80FD02C086
:101B2000CFEF01C0CFEB81FDCF7D82FDCF7783FD6D
:101B3000CF7E86FDCB7F87FDC77F90FDCE7F91FD59
:101B4000CD7F8CB580648CBD84B1886184B92B9ABB
:101B50008091EB0287FD39DF8091EB028F5F8093EC
:101B6000EB026FEF81E017DF813009F00CC280914A
:101B7000EC028111C0C09091EE029923C1F08091D6
:101B80001A06893751F0282F2D7F203131F08F31FF
:101B900021F028EF280F223010F4923051F08333D7
:101BA00051F08F3751F0833551F463E509C061E49A
:101BB00007C069E705C063E203C063EE01C063E7E5
:101BC00081E0E9DE182F2091EE028091E9022817CA
:101BD00029F09091E7029E5F9093E7022093E9023B
:101BE0006AE581E0D8DE6D2F81E0133479F5D3DE2C
:101BF0008093EC02811102C060E026C08091E60271
:101C000081112BC08091E702811131C08091EE02D9
:101C1000823009F048C06C2F81E0BDDE8093E5057D
:101C200081E0D9DE8091EE02823009F04BC0CAE03B
:101C300060E081E0B0DEC150D9F76091050681E037
:101C4000AADE6091060680E0A6DE3CC0A4DE80939A
:101C5000D6058091E602882331F081508093E60218
:101C60006C2F81E023C08091E702882331F08150FE
:101C70008093E7026C2F80E022C08091EE028230D8
:101C800091F46C2F81E087DE8093E50581E0A3DE8F
:101C90008091EE028230B1F4CAE060E081E07BDE48
:101CA000C150D9F7CACF813039F46C2F74DE8093DC
:101CB000E50580E090DE06C0811104C06C2F6BDE6C
:101CC0008093E50540911706242F30E08091E802CB
:101CD00090E02817390709F456C14093E80281E0E3
:101CE0009091EE02911180E08093EE028093E902E0
:101CF0008093ED0248C1813009F045C163EF4BDEAE
:101D0000182F6AE581E047DE812F90E0FC01E05466
:101D1000F109E031F10508F036C1EA5AFF4F0C94A1
:101D2000E3306D2F81E037DE8093D6058091E602A7
:101D3000882331F081508093E6026C2F81E02BC024
:101D40008091E702882331F081508093E7026C2F65
:101D500080E02AC08091EE028230D1F46C2F81E0C5
:101D60001ADE8093E50581E036DE8091EE02823056
:101D7000F1F4CAE060E081E00EDEC150D9F7609175
:101D8000050681E008DE6091060680E004DE0FC0F3
:101D9000813039F46C2FFFDD8093E50580E01BDE98
:101DA00006C0811104C06C2FF6DD8093E50580919B
:101DB000EA028F5F8093EA028B3008F4E4C010924D
:101DC000EA021092EC02DFC060E081E0E4DD809383
:101DD000EC02813099F48091EE02823011F0C4E07F
:101DE00007C0CCE060E081E0D6DDC150D9F7F7CF85
:101DF00060E081E0D0DDC150D9F7A0C060E081E0B3
:101E0000CADD8A3561F460E081E0C5DD60E081E033
:101E1000C2DD60E081E0BFDD60E080E0BCDD80919C
:101E2000ED028093EE02AFC060E081E0B4DD60E0DF
:101E300081E0B1DD62E010C081E08093E702909123
:101E4000ED02911102C08093ED026FEF81E0A3DDFE
:101E50006FEF81E0A0DD63E081E09DDD60E081E087
:101E60009ADD60E081E097DD6AE57AC060E081E0BC
:101E700092DD8093ED028091E80281111092ED02D3
:101E8000C4E060E081E087DDC150D9F757C081E050
:101E90008093E70280911306882311F063E001C06C
:101EA00061E081E078DD62E081E075DD61E08091F4
:101EB000E802811160E081E06EDD62E027C060E051
:101EC00081E069DD811102C0CAE001C0C4E160E0C7
:101ED00081E061DD61E081E05EDDCA3011F462E045
:101EE00001C061E081E057DD61E0CA3009F460E0E3
:101EF00081E051DD6C2F34C060E081E04CDD60E0BA
:101F000081E049DD62E081E046DD60E081E043DDC3
:101F100061E012C060E081E03EDD811102C0C4E0FA
:101F200001C0C7E060E081E036DD60E081E033DDE4
:101F30006C2F81E030DD60E081E02DDD60E010C0DD
:101F400060E081E028DD61E081E025DD6FEF81E088
:101F500022DD6FEF81E01FDD6FEF81E01CDD6FEFB1
:101F600080E019DD10C081E08093E60282E080937A
:101F7000ED0260E081E00FDDC4E060E081E00BDDB8
:101F8000C150D9F7DBCF1092EB028CB58F7B8CBDA3
:101F90008FE193E00197F1F700C0000084B1877EE4
:101FA00084B9DF91CF911F910895DFEEABCDDFEDC6
:101FB000A9CD80E091E00895089581E08093EF023B
:101FC0000895ECEBF0E080818B7F80830895109280
:101FD000EF028091EF028823E1F38FE99FE0019700
:101FE000F1F700C0000085E1E0EFF2E0DF011D92B3
:101FF0008A95E9F780E88093F3028093F202809358
:10200000F1028093F0028091FF0592E9980F9432DB
:1020100010F08093F0028091010692E9980F9432BB
:1020200010F08093F1028091000692E9980F9432AB
:1020300018F080958093F2028091020692E9980F41
:10204000943218F080958093F30280910506809376
:10205000F402609106066093F5029FEF9093F602FA
:102060009093F7029091FC0597FF03C02DEF20930A
:10207000F60295FF05C02091F6022B7F2093F60211
:1020800020910F0622FF05C02091F602277F2093A2
:10209000F60294FF05C02091F6022F7E2093F602EF
:1020A00096FF05C02091F6022F7D2093F602209125
:1020B000FE05243021F42091F6022F7B05C022304A
:1020C00031F42091F6022F772093F60209C02111F6
:1020D00002C02EEF03C0263019F42DEF2093F70233
:1020E0003091FD0531FF05C02091F7022B7F209331
:1020F000F70230FF05C02091F7022F772093F702F7
:1021000090FF05C02091F7022F7B2093F70291FFEB
:1021100005C02091F7022F7E2093F70292FF05C0A1
:102120002091F7022F7D2093F70293FF05C02091A5
:10213000F702277F2093F70290911D06911142C06C
:102140002091F102269526952695422F4871B8E0F8
:102150004B9FA00111249091F00296959695942B97
:102160009093F002267090E2299F900111249091A3
:10217000F20296959695922B9093F102869586950C
:102180008695282F2871A4E02A9F90011124909110
:10219000F302969596959695922B9093F202B0E263
:1021A0008B9FC0011124962F969596959695982B06
:1021B0009093F3028091F6028093F4028091F702EB
:1021C0008093F50265E180EF92E01DC30F931F93AA
:1021D0008BB183608BB98AB18C7F8AB985E1E0EFDE
:1021E000F2E0DF011D928A95E9F70DED1FE024E191
:1021F00031E045E1BF0184E391E00CD31F910F91E1
:1022000069C3E4DF1092EF028091EF028823E1F3CB
:1022100089E108958AE091E008952F923F924F92CC
:102220005F926F927F928F929F92AF92BF92CF9266
:10223000DF92EF92FF920F931F93CF93DF93CDB76F
:10224000DEB7E2970FB6F894DEBF0FBECDBF1DA676
:102250001CA6A12CB12C78E0E72EF12CDE015196C2
:1022600080E090E02CA53DA52453354FF901E80FFF
:10227000F91FE491ED93019686309105B9F7DE01DF
:10228000119680E090E0FC01E85DFB4FE081F0E01A
:10229000E453FF4FE491ED9301968A30910599F74D
:1022A000AB817E818989872790E04A2F47702A85F4
:1022B00028ABFD819701241B31093AAB29AB9C0166
:1022C00009A802C0220F331F0A94E2F702C09595B5
:1022D00087954A95E2F7822B38A9831B8F278B8736
:1022E000B9814A814EA78A89842790E04B2F477095
:1022F000E8859701241B31093AAB29AB9C0109A859
:1023000002C0220F331F0A94E2F702C09595879509
:102310004A95E2F7822B871B8E278C873F813FA748
:102320002B89232730E069856770C701861B9109D7
:10233000A901082E01C0440F0A94EAF7062E02C034
:10234000359527950A94E2F7242B2A1B2B272D87F6
:102350002C892F2730E04E2F47704BA79C81A70177
:10236000BBA54B1B51095AAB49ABA90109A802C037
:10237000440F551F0A94E2F702C035952795BA9588
:10238000E2F7242B291B2A272E872D895EA52527D6
:1023900030E0AFA5A770A7014A1B51095AAB49AB62
:1023A000A90109A802C0440F551F0A94E2F75AABCD
:1023B00049AB02C035952795AA95E2F7242B291B36
:1023C0002F272F872E892E2730E0F90102C0EE0F2C
:1023D000FF1F8A95E2F7CF0102C0359527956A95D0
:1023E000E2F7822B871BF8A98F27888B46E050E005
:1023F00062E274E0CE010B960E94E93095012F5FF6
:102400003F4F892B79F059012CA53DA52A5F3F4FFD
:102410003DA72CA737E0A316B10409F01FCF1092F7
:10242000330480C1822F90912604122F00E0090FFF
:10243000111D04531F4FF8010491F2E0AF0EB11CBF
:1024400090912B04FA2DEE27E90FF11DE453FF4F75
:10245000E491E027E0931A0490912404782E612CF3
:10246000690E711C930124533F4FF90164909091C0
:102470002D04FA2DEE27E90FF11DE453FF4FE491EF
:10248000E625E0931B0490912704582E412C490E19
:10249000511C920124533F4FF901449090912F0415
:1024A000FA2DEE27E90FF11DE453FF4FE491E425E7
:1024B000E0931C0490912204D82EC12CC90ED11C8B
:1024C000960124533F4FF901949120912A04FA2D4B
:1024D000EE27E20FF11DE453FF4FE491E927E0936B
:1024E0001D0490912304982E812C890E911C940137
:1024F00024533F4FF901949120912C04FA2DEE279B
:10250000E20FF11DE453FF4FE491E927E0931E042D
:1025100090912504888F1F8A2F89388D290F311DAE
:1025200024533F4FF901949120913104FA2DEE2765
:10253000E20FF11DE453FF4FE491E927E0931F04FC
:10254000909128048A8F198E298D3A8D290F311D7B
:1025500024533F4FF901949120912E04FA2DEE2738
:10256000E20FF11DE453FF4FE491E927E0932004CB
:10257000909129048C8F1B8E2B8D3C8D290F311D42
:1025800024533F4FF901949120913004FA2DEE2706
:10259000E20FF11DE453FF4FE491E927E09321049A
:1025A000909122048E8F1D8E2D8D3E8D290F311D11
:1025B00024533F4FF901949120912904FA2DEE27DD
:1025C000E20FF11DE453FF4FE491E927E093120479
:1025D0009091270488A31F8E2F8D38A1290F311DBC
:1025E00024533F4FF901949120912C04FA2DEE27AA
:1025F000E20FF11DE453FF4FE491E927E093130448
:10260000909125048AA319A229A13AA1290F311D6D
:1026100024533F4FF901949120912804FA2DEE277D
:10262000E20FF11DE453FF4FE491E927E093140416
:10263000909124048CA31BA22BA13CA1290F311D36
:1026400024533F4FF901949120913104FA2DEE2744
:10265000E20FF11DE453FF4FE491E927E0931504E5
:10266000909126048EA31DA22DA13EA1290F311DFC
:1026700024533F4FF901949120912F04FA2DEE2716
:10268000E20FF11DE453FF4FE491E927E0931604B4
:102690009091230488A71FA22FA138A5290F311DCF
:1026A00024533F4FF901949120913004FA2DEE27E5
:1026B000E20FF11DE453FF4FE491E927E093170483
:1026C00090912B048AA719A629A53AA5290F311D97
:1026D00024533F4FF901949120912D04FA2DEE27B8
:1026E000E20FF11DE453FF4FE491E927E093180452
:1026F00090912A04382E212C290E311C910124534B
:102700003F4FF901249080912E04FA2DEE27E80F17
:10271000F11DE453FF4FE491E225E093190481E0B9
:1027200080933304E2960FB6F894DEBF0FBECDBFA0
:10273000DF91CF911F910F91FF90EF90DF90CF909D
:10274000BF90AF909F908F907F906F905F904F90D1
:102750003F902F900895863028F4E0913404F09152
:1027600035040994089590EC980F963098F480E41D
:1027700090E029E430E0F901E81BF90BDC01AE5EE2
:10278000BC4F4C91E85DFB4F408301968634910528
:1027900091F708959AEB980F9630C8F480915803FA
:1027A00080932B048091590380932A0480915A03CB
:1027B0008093290480915B038093280480915C03BB
:1027C0008093270480915D0380932604089594EB01
:1027D000980F9430B8F490915E03909325049091F3
:1027E0005F0390932404909160039093230490914D
:1027F00061039093220470E0680F711D60357105CC
:1028000009F40BCD0895462F50E0BC0182E193E01E
:102810000C94F630EF92FF920F931F93CF93DF93B8
:1028200000D0CDB7DEB77C01CB01109232041093FB
:10283000350400933404642F29833A83E4DF109233
:10284000020486E0F701A0E0B3E001900D928A95C2
:10285000E1F786E0E0E0F3E0ACE0B4E001900D9257
:102860008A95E1F72981E22F3A81F32F80E290E007
:102870002191DC01AE5EBC4F2C9301968034910512
:10288000B9F72FEF89E698E1215080409040E1F7B9
:1028900000C0000058985998509A8AB18C7F8AB924
:1028A000109211031092100384EA8093BA001092E0
:1028B000B90088E48093B80081EC8093BC0010924A
:1028C0001D060F900F90DF91CF911F910F91FF90F8
:1028D000EF90089580913204811109C08091BC006D
:1028E00084608093BC0081E08093320478940895E2
:1028F0001F920F920FB60F9211242F933F934F9375
:102900005F936F937F938F939F93AF93BF93EF9357
:10291000FF938091B900887F803951F188F4803726
:1029200021F128F4803609F18836F9F0DEC08038CC
:10293000F9F0883809F4D9C0883709F0D6C015C035
:10294000803B09F498C038F4803A09F489C0883A89
:1029500009F0CBC090C0803C09F4C5C0883C09F4A4
:10296000C2C0883B09F48EC0C0C010920F03BBC028
:1029700080910F03882309F466C02091BB008091E9
:102980001003909111038E3F910529F4233019F41F
:1029900081E080931D068091100390911103803F88
:1029A000910589F4253511F02A3A69F4109233041F
:1029B00086E0E0E0F3E0ACE0B4E001900D928A95AF
:1029C000E1F710920C038091100390911103892B71
:1029D00091F4243681F480910D03882361F086E020
:1029E000E6E0F3E0ACE0B4E001900D928A95E1F707
:1029F00081E080930C03809133048823E1F0A0915F
:102A00001003B0911103E0911003F0911103E770EE
:102A1000FF27EE5EFB4F8081E0911003F0911103E0
:102A2000E770FF27E65EFB4F90818227890FAE5E3D
:102A3000BC4F8C934AC0E0911003F0911103EE5EFD
:102A4000FC4F208342C08091BB0090E09093110323
:102A50008093100381E080930F0310920E0343C014
:102A600060910E03809110039091110390910E03D9
:102A7000891B79DE38C080911003909111036BDEC1
:102A800010920E0380913304E0911003F091110332
:102A9000EE5EFC4F8823B1F08081E0911003F0914D
:102AA0001103E770FF27E65EFB4F2081E0911003E2
:102AB000F0911103E770FF27EE5EFB4F9081821BC0
:102AC000892701C080818093BB0080911003909181
:102AD00011030196909311038093100380910E03CC
:102AE0008F5F80930E0385EC01C085E88093BC0066
:102AF000FF91EF91BF91AF919F918F917F916F91D6
:102B00005F914F913F912F910F900FBE0F901F90AB
:102B10001895089510921E0657985F9A0895089583
:102B2000549A57989BB19BB9811105C081E090E000
:102B3000A0E0B0E01CC081E090E0A0E0B0E04F9BDE
:102B40001FC000000196A11DB11D883E23E0920721
:102B5000A105B105A1F712C000000196A11DB11D8C
:102B6000811523E5920727E0A207B10539F04F99B7
:102B7000F3CF883E9340A105B10511F48FEF08957E
:102B800098E080E0880F2BE02A95F1F700004F993C
:102B900081602CE02A95F1F70000915099F780347C
:102BA00061F48FE291E00197F1F700C0000089B174
:102BB000807880931E0680E4089508953AE03A955F
:102BC000F1F700C0579A5F9828E180E093E0A0E019
:102BD000B9E0B7FF09C035E03A95F1F700005F9A18
:102BE00035E13A95F1F708C035E13A95F1F7000083
:102BF0005F9A35E03A95F1F700005F98880F991FCA
:102C0000AA1FBB1F215029F78AE08A95F1F700C05F
:102C100057985F9A81E084CF2F923F924F925F92B4
:102C20006F927F928F929F92AF92BF92CF92DF92DC
:102C3000EF92FF920F931F93CF93DF93CDB7DEB741
:102C400065970FB6F894DEBF0FBECDBF10921E067B
:102C500080E066DF8D8B811102C0B0DF8D8B412C4F
:102C6000512C3201D301C201A66089839A83AB83C0
:102C7000BC83D301C201AA608D839E83AF83B887D2
:102C8000D301C201A96089879A87AB87BC87D3012A
:102C9000C201A5608D879E87AF87B88BD301C20123
:102CA000A460898B9A8BAB8BBC8B73016201689497
:102CB000E3F8530142016894A1F8689460F8222473
:102CC0002A94312C9D899F3F09F4D8C09D89911188
:102CD00002C074DF8D8BA0E1AA95F1F78091FE050B
:102CE000863019F4B301A2012FC0823019F4B50166
:102CF000A4012AC0811103C0B701A60125C08430F8
:102D000029F449895A896B897C891EC0853029F448
:102D10004D855E856F85788917C040E050E0BA0127
:102D2000873029F449855A856B857C850DC08130B3
:102D300029F44D815E816F81788506C0833021F44E
:102D400049815A816B817C818091FC0584FD6061A1
:102D500087FD606286FD606481FD02C0606802C01C
:102D60006068716080FD726083FD746082FD7860D0
:102D700085FD70618091FF05909100068101091B1E
:102D80001109222717FD2095322F182B042B152B04
:102D9000262B372B4091010650E060E070E08091D7
:102DA0000206F101E81BF109CF01AA2797FDA095C2
:102DB000BA2FF0910506742F662755274427E09116
:102DC00006064E2B5F2BDC0199278827482B592BB1
:102DD0006A2B7B2B579A5F9880E237FF09C0F5E09A
:102DE000FA95F1F700005F9A95E19A95F1F708C01E
:102DF000A5E1AA95F1F700005F9AB5E0BA95F1F761
:102E000000005F98000F111F221F331F815029F708
:102E100080E277FF09C0E5E0EA95F1F700005F9AEC
:102E2000F5E1FA95F1F708C095E19A95F1F7000000
:102E30005F9AA5E0AA95F1F700005F98440F551F2F
:102E4000661F771F815029F7BD89B13469F480E18D
:102E5000E5E1EA95F1F700005F9AF5E0FA95F1F700
:102E600000005F988150A1F785E08A95F1F7000096
:102E700057985F9A81E054DE8D8B24CF80911E0697
:102E8000882319F09093D60502C01092D605659656
:102E90000FB6F894DEBF0FBECDBFDF91CF911F916B
:102EA0000F91FF90EF90DF90CF90BF90AF909F90E9
:102EB0008F907F906F905F904F903F902F900895EC
:102EC00029DE80E02DDE99B120E12A95F1F781110C
:102ED00006C04F9B04C097FD02C081E1089580E0C9
:102EE00008958AE391E008950895109222061092C1
:102EF000210657985F9A0895089520E22A95F1F7E0
:102F0000579A5F9894E09A95F1F7000098E087FF50
:102F100005C05F9A2DE02A95F1F708C029E02A95AF
:102F2000F1F700005F9A24E02A95F1F700005F981E
:102F3000880F24E02A95F1F7915049F784E08A95AB
:102F4000F1F757985F9A08953AE03A95F1F700C083
:102F5000579A5F9884E08A95F1F7000020E180E0BD
:102F600095E097FF05C05F9A3DE03A95F1F708C0FC
:102F700039E03A95F1F700005F9A34E03A95F1F7BD
:102F800000005F98880F991F34E03A95F1F72150BF
:102F900041F728E081E090E087FF05C05F9A3DE0BF
:102FA0003A95F1F708C039E03A95F1F700005F9AD9
:102FB00034E03A95F1F700005F98880F991F34E0EC
:102FC0003A95F1F7215041F784E08A95F1F7579847
:102FD0005F9A089557989BB19BB98F3F19F44F9909
:102FE000FECF14C041E050E060E070E08130A9F411
:102FF0004F9B10C000004F5F5F4F6F4F7F4F403DB2
:1030000037E053076105710599F704C041E050E0CE
:1030100060E070E028E090E026C08230D9F44F9B59
:10302000F9CF00004F5F5F4F6F4F7F4F403990EDFA
:10303000590793E06907710591F7ECCF00004F5FE6
:103040005F4F6F4F7F4F403930ED530733E06307D9
:10305000710501F34F99F2CFDDCF3AE03A95F1F7E0
:1030600000C0215041F0990F39E03A95F1F74F9B9C
:10307000F4CF9160F2CF811107C040325E44610508
:10308000710589F0892F0895813031F4403D574012
:1030900061057105B9F707C08230A1F74039504D7D
:1030A0006340710579F78EEF08951FDF82E092DFAC
:1030B0009AE19A95F1F700C099B1813031F4892FE6
:1030C0008078803811F483E2089580E0089580913B
:1030D0001706882309F4A1C080911A0621E08332E3
:1030E00009F020E091E0803109F090E0922B21E09E
:1030F0008F3209F020E0292B91E0813409F090E033
:10310000922B31E0893709F030E0392B21E0873705
:1031100009F020E0232B91E0382F3F7D333509F073
:1031200090E0922B21F48B7F8B3109F048C0809185
:10313000FC05982F9C709C3021F480618093FC05E5
:103140003EC082FF04C08B7F8093FC05089583FFFF
:1031500036C0982F977F9093FC058091FE058630AE
:1031600011F4946013C0823021F48091FD058260D7
:103170001BC0811104C08091FD05816015C08430A1
:1031800011F4986003C0873021F495609093FC059A
:1031900041C0853021F48091FD058C6005C08130EF
:1031A00031F48091FD0583608093FD0533C0833049
:1031B00089F58091FC058A608093FC052BC0809185
:1031C000FE058630B9F08230E1F0811103C0109223
:1031D000000620C0843021F48FEF809300061AC0CF
:1031E000873019F41092000605C0853031F48FEF56
:1031F000809300061092FF050DC0813021F41092DB
:1032000000068FEF05C0833029F48FEF809300060E
:103210008093FF058FEF8093FE050895DF92EF9274
:10322000FF920F931F93CF93DF931F92CDB7DEB71B
:103230008BB18F7C8BB925E32A95F1F700008FEFD6
:10324000EFECEE2EFFE2DF2E1FE70FEFFF24F394EB
:1032500020ED37E090E049B1440F440B9F5F942389
:10326000215031092115310509F403C2953098F335
:103270001092200610921F06109224061092230628
:10328000898325DF9091FE058981963031F4209164
:103290001F0630912006326037C0923031F4209101
:1032A0001F063091200631602FC0911106C0209179
:1032B0001F0630912006386027C0943031F42091E9
:1032C0001F063091200634601FC0953031F42091E4
:1032D0001F0630912006366017C0973031F42091D8
:1032E0001F06309120063A600FC0913031F42091D2
:1032F0001F0630912006396007C0933049F42091B1
:103300001F063091200635603093200620931F065B
:103310009091FC0594FF09C020911F063091200672
:1033200030623093200620931F0697FF09C020913A
:103330001F063091200620613093200620931F063F
:1033400096FF09C020911F0630912006206230931D
:10335000200620931F064091FD0540FD04C02091EA
:103360000206243648F420911F063091200628607A
:103370003093200620931F0693FD04C0209102067F
:10338000273948F020911F063091200624603093A1
:10339000200620931F0692FD04C0209101062436CA
:1033A00048F420911F0630912006226030932006B9
:1033B00020931F0641FD04C020910106273948F0E3
:1033C00020911F0630912006216030932006209323
:1033D0001F0691FF09C020911F063091200630681A
:1033E0003093200620931F0690FF09C020911F06EE
:1033F0003091200630643093200620931F0695FFFD
:1034000009C020911F0630912006306130932006BC
:1034100020931F069091FF05903D10F0E092FF056C
:103420009091FF059F3210F4D092FF059091000615
:10343000903D10F0E0920006909100069F3210F44B
:10344000D09200062091FF05205830E0322F22272D
:1034500090910006412F491B242B30932406209382
:103460002306B8DD813009F051C08AE08A95F1F772
:1034700000C0579A5F9894E09A95F1F7000020E118
:1034800080911F069091200697FF05C05F9AEDE09E
:10349000EA95F1F708C0F9E0FA95F1F700C05F9AF4
:1034A00034E03A95F1F700005F9880911F06909103
:1034B0002006880F991F9093200680931F062150A5
:1034C000F9F620E1809123069091240697FF05C02C
:1034D0005F9A4DE04A95F1F708C089E08A95F1F7C7
:1034E00000C05F9A94E09A95F1F700005F98809190
:1034F000230690912406880F991F909324068093A9
:1035000023062150F9F600C000C084C0811103C019
:103510001BDD81E09DCE8F3F49F40F90DF91CF916D
:103520001F910F91FF90EF90DF900ECD823009F048
:1035300075C0E3E0F1E03197F1F700C00000809141
:103540002106882309F452C0FAE2FA95F1F700C087
:10355000579A5F9822E02A95F1F7000080E091E009
:1035600020E827FF0AC032E03A95F1F700005F9AA1
:103570004DE04A95F1F7000008C0E8E0EA95F1F760
:1035800000C05F9AF5E0FA95F1F75F98269529F06B
:1035900032E03A95F1F700C001C020E801970097AA
:1035A00001F700C000C0000088E098EB97FF05C05D
:1035B0005F9A4DE04A95F1F708C0E9E0EA95F1F726
:1035C00000005F9AF4E0FA95F1F700005F98990F18
:1035D00024E02A95F1F7815049F734E03A95F1F764
:1035E000000057985F9A1092210693CF40E24A95C7
:1035F000F1F7579A80E191E05F9AE4E0EA95F1F7FC
:103600005F98FCE0FA95F1F701970097A9F725E09C
:103610002A95F1F7000057985F9A7BCF833031F5F8
:1036200087EF90E00197F1F700C0000080E0D2DC66
:10363000E8EDFFE03197F1F7803821F4F0922106B0
:1036400088EB12C08E3F11F481EE0EC08B3111F465
:1036500080E00AC0813021F40093D6058BEE04C0CF
:10366000811157CF1092D60548DC53CF8E3F09F019
:1036700050CF0F90DF91CF911F910F91FF90EF905E
:10368000DF90089584E491E0089508958AB18C70E4
:103690008AB98BB1836F8BB983EF809336048093A3
:1036A0003704809338048093390480933A04469811
:1036B0003E9888E08093810082E080936F008FEFD6
:1036C00091E0909389008093880010923C041092BE
:1036D0003B041092D7050895B19A1092850010927C
:1036E000840010928100F894089589B1837F833F0C
:1036F000A9F48FEF9CE7369B16C0369B04C0019758
:103700000097D9F70BC089B1837F833F39F480E5F7
:103710008A95F1F789B1837F833F41F080E0089576
:1037200001970097D9F3369BFBCF04C0369BF6CFA9
:1037300085E2089589B1837F833F81F780E58A958B
:10374000F1F789B1837F833F49F7369BF1CFE6CF0D
:103750001092D705909181009560909381007894A4
:103760001092850010928400813031F4862FF82F5A
:103770003699FECFFBB905C0862FF82F369BFECFBA
:10378000FBB9B19A109285001092840010928100CA
:10379000F8948091D705882369F03E988AE68A9547
:1037A000F1F700C0369903C08BB18F7302C08BB1A3
:1037B000836F8BB98091D70508958AB1836F8AB9D9
:1037C00083EF80933604809337048093380480938A
:1037D000390480933A048091FC0585FF03C092EF81
:1037E00090933A0480FF05C090913A049D7F909396
:1037F0003A0490913A049F7390933A0487FF03C070
:1038000092EF9093390481FF05C0809139048D7F38
:10381000809339040E94C3098091FE059FEF980FA1
:10382000933078F490913604906890933604909198
:103830003A049F7790933A04909139049F7790933C
:1038400039049BEF980F933090F490913604906474
:103850009093360490913A049F7B90933A04909110
:1038600039049F7B90933904873099F402C0811109
:1038700010C09091360490619093360490913A0470
:103880009F7E90933A04909139049F7E90933904DF
:1038900002C0813071F38350833078F48091360414
:1038A00080628093360480913A048F7D80933A043D
:1038B000809139048F7D809339048091FC0586FFC7
:1038C00005C0909137049F7E9093370483FF05C015
:1038D000909137049F7D9093370482FF05C09091AB
:1038E00037049F7B9093370484FF05C08091370491
:1038F0008F778093370436990AC06091390480E04D
:1039000027DF81110DC060913A0481E008C0609109
:103910003A0481E01DDF811103C06091390418CFA2
:1039200008954BCF8EE491E00895089510923D04E0
:1039300081E080933E04579856988AB18F7C8AB96B
:103940003E985E9A5F9A8BB180638BB9469A88E005
:103950008093810082E080936F00E8E8F0E08FEFD1
:1039600091E09183808386E090E091838083089545
:1039700008954E9BFECF8FEC97E00197F1F700C0C2
:1039800000004F9B14C04E9912C04E9BFECF4F9922
:10399000FECF8FE891E00197F1F700C000004F9B48
:1039A00002C080E001C08FE24F9903C0089580E01B
:1039B000089581E20895559A549A3E9A8091F805A7
:1039C000813211F08F3219F40E94C3094EC08F3139
:1039D00009F04BC0909100068091FF059E3420F4C1
:1039E0008E3440F487E01EC0933B60F08E3430F498
:1039F00085E018C0833B30F081E014C0833B10F0B9
:103A000083E010C08E3410F486E00CC0833B10F0CD
:103A100082E008C09E3418F41092FE0505C0933B66
:103A200018F084E08093FE059091020680910106D3
:103A30009E3418F48E34E0F005C0933B40F08E3491
:103A4000D0F003C0833B18F502C0833BB8F48E343A
:103A5000C0F0833BC8F49E34D0F031E020E0933BCB
:103A600008F430E0832F922F14C080E090E011C062
:103A700082E290E00EC083E090E00BC081E190E034
:103A800008C082E090E005C080E190E002C080E3E1
:103A900090E02091FE05211102C080611BC02430FE
:103AA00011F4806217C0263011F4806413C02230F4
:103AB00011F480680FC0273011F480650BC02530E9
:103AC00011F4806607C0213011F4806903C02330EF
:103AD00009F4806A4091FC0545FD886044FD8460DE
:103AE0002091F8052132A1F541FD816040FD826001
:103AF0002091030621110FC02091040621110BC053
:103B0000209117062111F2C02091FF0530E0211508
:103B1000310509F4EDC0642F637041E050E011F00D
:103B200040E050E051954195510931EE321B330F81
:103B3000311D232F31FB27F932FB26F933FB25F901
:103B400035FB23F936FB22F937FB21F930E0D2C0EF
:103B50002F31B1F440FD906141FD9062342F3470FB
:103B600042FD8260242F287043FD816031119260F4
:103B70002111916046FD946047FD9860906CB6C03D
:103B80002F3209F0B3C040FD816042FD826043FDE9
:103B9000926041FD916046FD946047FF02C09860CD
:103BA000A5C030913E04209117063430C1F1211197
:103BB00005C020913D042F5F20933D0420913D04DA
:103BC000233310F12091FF0530E02B303105CCF488
:103BD0002091010630E02B3031059CF42091000645
:103BE00030E02B3031056CF42091020630E02B30B0
:103BF00031053CF420910306211103C020910406F5
:103C00002111906810923D0434E63093420420EA7A
:103C1000209341043093400420933F0467C0906890
:103C2000222351F021E020933E049F77EFE3FCE94B
:103C30003197F1F700C0000060910306E091FC05A8
:103C400020911A0661112DC060910406611129C0EE
:103C5000E6FD02C0253429F420E8209302062093D3
:103C60000106E7FF05C020E8209300062093FF052A
:103C70007091FF0560910106472F50E0262F30E03C
:103C8000421753070CF0672FF0910006709102065F
:103C90004F2F50E0272F30E0421753071CF07F2FA3
:103CA00001C070E820914104271710F4709341047B
:103CB00020914204721710F47093420420913F0443
:103CC000261710F460933F0420914004621710F40B
:103CD0006093400470934304609344048827907F6A
:103CE0002E2F2F7009F09260E5FD916020E030E00A
:103CF00040E050E06091F8056F3221F06F3111F033
:103D0000A8E001C0A0E16FE074EA4E993FC06150A5
:103D1000710961157105C9F769C0FB01E823F92331
:103D2000EF2B09F43AC05D98FB01E423F523EF2B58
:103D300009F435C05C98FB01E223F323EF2B89F1F2
:103D40004698660F771FE091F805E13261F5E09142
:103D50008100E560E09381007894109285001092D4
:103D600084001092D705B1992AC04F99FCCFB19A1F
:103D7000109285001092840010928100F894BF5F29
:103D8000BA1758F26091F8056132C9F46BB16063FB
:103D90006BB9B0E061E070E0C0CF5D9AC5CF5C9ACE
:103DA000CACF469ACECFEF3119F44F99FECFE7CF65
:103DB000EF3229F74F99FECF4F9BFECFE0CFB19A5C
:103DC000109285001092840010928100F8948091E6
:103DD000F805813241F4F0E5FA95F1F74F9903C007
:103DE0008FE18093F8055D985C98469887EC90E0A9
:103DF0000197F1F700C00000089588E591E008956B
:103E000008955198599A3E98469A509A10924604AD
:103E1000109245040895089570E090E061157105D1
:103E200069F19B0128233923232B11F0589A0AC0EA
:103E3000589808C0369917C02F5F3F4F30936D01D7
:103E400020936C0120916C0130916D01283840E97C
:103E5000340780F308C0369B0EC02F5F3F4F30936E
:103E60006D0120936C0120916C0130916D01283817
:103E700040E9340780F376956795D0CF5898089538
:103E8000DF92EF92FF920F931F93CF93DF93D09027
:103E9000FF05E0900006F090040680911706882345
:103EA00029F010924604109245040AC08EEC8D0D44
:103EB000873930F081E090E0909346048093450488
:103EC00080914504909146042091FE053091FC05B7
:103ED0004091FD05019741F5243049F0222351F02E
:103EE000223059F0263061F000E010E00BC000E015
:103EF00014E008C000E018E005C000E012E002C0D5
:103F000000E011E030FD106431FD106136FD1068F5
:103F100037FD106135FD006834FD006441FD00612E
:103F200040FF37C0006235C0253009F404C1273096
:103F300009F404C1213059F02330B1F02430B9F034
:103F4000C0E0D0E8211106C0C0E0D8E812C0C0E04F
:103F5000D4E90FC0223019F4C0E0D4E80AC02630FA
:103F600041F4C0E0D2E805C0C0E0D2E902C0C0E040
:103F7000D0E930FDD16031FDC06837FDC06435FD4A
:103F8000C06234FDC06141FDC86040FF04C0C46030
:103F900002C0CBE7D1E020ED37E080E0369902C0E7
:103FA0008F5F01C080E090E19A95F1F721503109CF
:103FB0002115310509F4C5C0853080F3509A209150
:103FC0006C0130916D01283880E9380748F4369942
:103FD00013C02F5F3F4F30936D0120936C01EFCFE3
:103FE0002838304949F4ADC0369B0EC02F5F3F4F93
:103FF00030936D0120936C0120916C0130916D0123
:10400000283880E9380780F3809145049091460470
:10401000019711F458980AC0589A08C036990EC0F2
:104020002F5F3F4F30936D0120936C0120916C0105
:1040300030916D01283890E9390780F381E090E0F4
:1040400090936D0180936C01D7FF02C0589A01C014
:10405000589885E18A95F1F7000036996AC060E4C6
:104060008D2FDADE60E88C2FD7DE20914504309169
:104070004604232B09F45DC060E888E0CDDE60E8EB
:104080008D2DCADE82E020916C0130916D012838BF
:1040900090E9390788F436990FC02F5F3F4F30936E
:1040A0006D0120936C01EFCF369B0EC02F5F3F4F09
:1040B00030936D0120936C0120916C0130916D0162
:1040C000283890E9390780F38150E9F660E88E2DB1
:1040D000A3DE82E020916C0130916D01283890E9D7
:1040E000390788F436990FC02F5F3F4F30936D0129
:1040F00020936C01EFCF369B0EC02F5F3F4F309364
:104100006D0120936C0120916C0130916D01283874
:1041100090E9390780F38150E9F660E88F2D7CDE65
:1041200068E082E079DE60E8812F76DE60E8802F4B
:1041300073DE589A06C0C0E0D2EA1BCFC0E0D4EAD2
:1041400018CFDF91CF911F910F91FF90EF90DF90EB
:10415000089581E090E090936D0180936C018091CF
:104160006C0190916D01883820E9920720F436990E
:1041700007C00196F0CF8838904911F480E0089587
:1041800087E998E00197F1F700C000003699F6CF73
:1041900081E090E090936D0180936C0180916C01BF
:1041A00090916D01883820E9920720F4369905C076
:1041B0000196F0CF8838904909F3499BDFCF8FED06
:1041C0009EE20197F1F700C000004F9BD7CF8BE232
:1041D000089582E691E008950895109226061092BF
:1041E00025060895089583B18E3F59F481E090E04B
:1041F0009093260680932506909348048093470465
:104200000DC083B18C3F61F481E090E0909326066D
:1042100080932506109248041092470481E3089584
:1042200080E008950E94C3098091FE05843081F0EA
:10423000823081F0882381F0863081F0873081F0F0
:10424000853081F0813081F0833081F020E00FC033
:1042500020E40DC020E10BC020E809C020E207C027
:1042600020EA05C020E603C020E901C020E5409116
:10427000FC05642F617040FD02C050E001C050E4B5
:104280008091250690912606342F32708130910559
:1042900071F4611121603111226030910F0632FDFD
:1042A000206C44FD206345FF1DC0206E1BC06111C2
:1042B00021603111226042FD02C030E001C030E8CF
:1042C00043FD306446FD306247FD30614091FD059D
:1042D00040FD386041FD346046FD326047FF03C059
:1042E000316001C030E0EBB178B165B1009709F4FD
:1042F00099C0422F4095E36F4E23019719F483E054
:10430000842701C0842F8BB9809147049091480481
:10431000892B09F068C04091030641110DC08091BE
:104320000406811109C080911706811157C0809140
:10433000FC05807F09F452C08AB1816F8AB93E9A28
:104340008091FC0580FF02C0469801C0469A411149
:1043500026C040910406411122C0809117068111A8
:104360001EC08091FC05807FD1F05091FF054091E7
:104370000106252F30E02058310937FF03C0319561
:1043800021953109842F90E08058910997FF03C04F
:10439000919581959109281739070CF0452F40FB1D
:1043A00087F941FB86F942FB85F943FB84F9042E2A
:1043B00004FA47F905FA46F906FA45F907FA44F905
:1043C000589A807F8BB983ED90E00197F1F700C098
:1043D00000005898407F41604BB908958BB18360CD
:1043E0008BB921FD5898852F8095972F906489234C
:1043F00088B9832F8095962F9E6F892385B98091E8
:10440000250690912606019709F423602AB9809128
:10441000470490914804892B19F48AB183608AB9C2
:1044200057B934B908958EE691E008950895089536
:104430001092500410924A043E9A469A8AB1806FB4
:104440008AB98BB18FEF8BB91092520482E08093BE
:1044500051041092490408958FEC8BB989B183708F
:10446000833011F580E090E029B12370213029F0EC
:10447000019681152AEF9207B9F72FEF2BB9811515
:104480009A4F91F020E030E089B18370813031F4AF
:104490002F5F3F4F21158AEF3807B1F78FEC8BB9AB
:1044A00081E021153A4F09F480E008953E9A46983C
:1044B0008AE38A95F1F700C0469ACEDF882359F047
:1044C0008FE39CE90197F1F700C00000C5DF89B1D7
:1044D000837019F0089580E0089585E0089599B1FA
:1044E0009370E9F7982F9F609BB9469899B19370A4
:1044F0009130E1F720E1829FC00111248F608BB9D8
:10450000469A08951F93CF93DF938091FE058530DF
:1045100089F0873091F0813099F08330A1F08823C1
:10452000A9F08430B1F08630B9F08230C1F0CFEF1D
:10453000DFEF17C0CFE9DFEF14C0CFEADFEF11C024
:10454000CFE6DFEF0EC0CFE5DFEF0BC0CFEEDFEF42
:1045500008C0CFEDDFEF05C0CFEBDFEF02C0CFE744
:10456000DFEF9091FC05792F727091FDCE7F97FF60
:1045700005C0811102C0DF7701C0CD7F90FDCB7FE8
:1045800095FDC77FF92FF07496FF05C0811102C019
:10459000D77F01C0DF7E93FDDF7DE92FE47092FDC0
:1045A000DF7B2091FD0521FDDF7720FDD77F209166
:1045B0001A06522F5B7F31E0293709F030E061E0C5
:1045C000233209F060E041E0203109F040E0462B61
:1045D00061E02F3209F060E0462B61E0213409F000
:1045E00060E0462B432B61E0273709F060E0462B63
:1045F00061E0A22FAF7DA33509F060E0642B11F4D8
:104600005B31A1F4492F4F704F3081F4882321F0A2
:1046100040910006423320F441E04093490406C033
:10462000843011F04B3A10F0109249044091490443
:10463000442309F446C09E0122273071CE018270C6
:104640009927AE0141705527C2FF03C0C560D061F4
:1046500003C0CE7FC460D061452B09F4DF7E232BDD
:1046600009F4D77F892B09F4DF778091FF058E3419
:1046700010F4CF7B0DC0833B10F0CF7709C0809141
:1046800000068E3410F4CF7E03C0833B08F0CF7D4C
:10469000809101068E3410F4DF7B0DC0833B10F057
:1046A000DF7E09C0809102068E3410F4DF7D03C0E6
:1046B000833B08F0CE7F8FE18BB989B18370E9F736
:1046C0005FC040915004413009F448C010924A0440
:1046D000253451F0203431F02A3079F4FF2321F0D1
:1046E000CE7F02C0E111D77F1092500422E02093C8
:1046F000520423E02093510421C020910306222379
:1047000091F0533711F0332371F07111CB7F23E017
:104710002093510422E0209352042093500421E07E
:1047200020934A040BC02091FF052253273930F013
:1047300026E02093510421E020935204843071F448
:104740009378933859F482E08093520483E0809305
:10475000510481E08093500480934A0480911706AD
:10476000882349F01092520482E080935104109201
:10477000500410924A048FE18BB989B18370E9F734
:10478000109151048091520420E1829FC0011124B4
:10479000812BA5DE133009F078C0C095D0958091AB
:1047A0005004823019F42091030607C0833019F4B5
:1047B0002091040602C02091FF05822F90E03091E5
:1047C0004F04831B910920934F0497FD02C0CF7EB5
:1047D00001C0C06130911A0640914A04343471F02E
:1047E000442361F0283C20F0CF7E88E39FEF13C084
:1047F000213420F4C06188EC90E00DC09C012A5166
:104800003F4F2D3C314038F0CF7E80914D0484FDE8
:10481000C06180914C0491E0980F9093FF058093C4
:104820004C0420910006822F90E030914E04831BAF
:10483000910920934E041816190614F4C06201C0A1
:10484000CF7D442361F0283C20F0C06282E390E0F9
:1048500013C0213420F4CF7D8EEC9FEF0DC09C015E
:1048600026503F4F253F314038F0CF7D80914D0499
:1048700085FDC06280914B04982F9195909300061E
:1048800080934B04CF73C0934D048C2F28DE1330DC
:10489000E1F48091FF0523DE8091000620DE1530D3
:1048A00040F0809105061BDE153019F08091060658
:1048B00016DE81E014DE87EC90E00197F1F700C08E
:1048C0000000DF91CF911F9108958D2F08DE1330E6
:1048D00080F3DFCF88E791E0089508958AB1836F70
:1048E0008AB988E08093810082E080936F00E8E8D5
:1048F000F0E08FEF91E0918380838FEF808381E000
:10490000809389000895B19A1092850010928400D6
:1049100010928100F89408951C9903C020E22A9512
:10492000F1F780E090E01C9B0BC0019681152AEF07
:104930009207C9F712C0019681152AEF920769F014
:104940001C9BF9CF1D9908C08FE99FE00197F1F7F3
:1049500000C0000085E10895089508950E94C309EC
:104960009091FC0595FD02C03FEF01C03DEF97FD22
:104970003F778091FE05823011F43F7B1BC086306B
:1049800011F43F7D17C0843011F43F7E13C08111B4
:1049900002C03E7F0FC0873011F43E7D0BC08530D2
:1049A00011F43F7C07C0813011F43E7B03C083309B
:1049B00009F43F7A91FD02C02FEF01C02FE78091EB
:1049C000FD05F82FF17080FD2F7B83FD2F7D86FD87
:1049D0002F7E60910F0661FD2E7F90FD02C05FEF7C
:1049E00001C05FE7E82FE27081FD5F7B84FD5F7DA2
:1049F00087FD5F7E62FD5E7F94FD02C04FEF01C0C8
:104A00004FE782FD4F7B85FD4F7D60FD4F7E63FD4F
:104A10004E7F8091F80571E0823309F070E061E02B
:104A2000853209F060E0762B61E0A82FAD7FA932D6
:104A300009F060E0762B692F6074711103C08F7EDE
:104A4000853071F4F1112F7D2064E1114F7D6111EA
:104A50004F7E93FD5F7E506492FF06C02F7E04C0A0
:104A600061112F7D97FD4F7D1F9B04C01C9B04C0CF
:104A700080E003C081E001C082E0909181009560F8
:104A80009093810078941092850010928400813078
:104A900029F08230A1F080E090E029C01F9BFECF7A
:104AA0008091D70581114FC03BB91C9BFECF2BB91C
:104AB0001D9BFECF5BB91E9BFECF4BB944C01C9B18
:104AC000FECF8091D70581113EC02BB91D9BFECF33
:104AD0005BB91E9BFECF4BB91F9BFECF3BB91C9B06
:104AE000FECF31C0019681156AEF9607B1F11C998E
:104AF000F9CF6091D705611126C03BB91C9906C05A
:104B0000019681153AEF9307C9F727C02BB91D9974
:104B100006C0019681156AEF9607C9F71EC05BB9FA
:104B20001E9906C0019681152AEF9207C9F715C094
:104B30004BB91F9906C0019681153AEF9307C9F743
:104B40000CC083EF8BB9B19A10928500109284004B
:104B500010928100F8941092D705089582E891E0B0
:104B6000089508958AB181678AB908950895CF9309
:104B7000DF93F8DFC03184EAD80720F44F9906C0EC
:104B80002196F8CFC03184EAD80739F088E08A95B9
:104B9000F1F7369B02C04F9905C080E01FC0369BDD
:104BA00009C02196C03184EAD807C8F3C03184EA2D
:104BB000D80799F34F9BF1CF03C04F9B08C02196B4
:104BC000C03184EAD807C8F3C031D44A31F396B172
:104BD000892F807496FDE1CF4F9B87E2DF91CF91C3
:104BE0000895CF93DF930E94C3093091FC0535FDF2
:104BF00002C09FEF01C09FEE2091FE05223009F414
:104C00006AC0263009F469C0243049F0222389F0B3
:104C1000273089F08FEF253021F48FEA0DC08FEB1C
:104C20000BC0213011F48EED07C0233029F48EEB38
:104C300003C08FED01C08FEC31FD9F7D30FD9E7F65
:104C400034FD9F7B232F2C7C69F037FD02C02FEFB2
:104C500001C02FED33FD2F7E32FD2F7B36FF07C0C5
:104C60002E7F05C0292F382F9FEF8FEF05C03EE81C
:104C700003C0369905C02196C03144EAD407C8F371
:104C80003BB903C04F9B05C02196C03144EAD4070D
:104C9000C8F32BB93E3841F084EF91E0369906C055
:104CA00001970097D9F702C0292F382F80E090E0B4
:104CB000369905C00196843F41E09407C9F73BB996
:104CC0004F9B05C00196803134EA9307C8F32BB996
:104CD000DF91CF9108958EEFAFCF8FEEADCF8CE8FF
:104CE00091E00895089584B18FEF84B908950895EF
:104CF0008BE10895CF93E6ECF1E020E030E0C0E0F6
:104D0000DC01022E02C0B595A7950A94E2F7AB012B
:104D1000022E02C0559547950A94E2F71816190617
:104D20003CF46A0F7B1F841B950B4081C40F06C0A7
:104D30006A1B7B0B840F951F4081C41B2F5F3F4F65
:104D4000319625303105E1F68C2FCF910895CF9320
:104D5000DF93D091FF05D058C0910006C0586D2F49
:104D6000772767FD709577FF03C07195619571098D
:104D70008C2F992787FD90956333710564F49C010E
:104D800097FF04C022273327281B390B2333310513
:104D900014F48FEF68C097FF03C091958195910936
:104DA000A9DF90E0D7FD1FC01C1674F48B3091056D
:104DB0000CF444C081329105DCF188339105D4F1C3
:104DC0008E349105CCF12EC0CC2319F38B30910594
:104DD000ACF181329105A4F1883391059CF18E34B8
:104DE000910594F10EC0C7FF11C08B309105A4F15D
:104DF000813291055CF18833910554F18E3491052F
:104E00004CF18A3591052CF68FEB2DC08B30910536
:104E10001CF18132910514F1883391050CF18E3427
:104E2000910504F18A3591050CF0B3CF8FEE1BC0CC
:104E30008EED19C08EEC17C08FEC15C08FED13C02E
:104E40008FE911C08EE90FC08EEB0DC08EE70BC04D
:104E50008EE309C08FE307C08FE705C08FE603C06C
:104E60008EE601C08EEE9091FE052091FC059F3FDD
:104E700001F1943011F48F7E3CC0923011F48F7D9B
:104E800038C0911102C08F7B34C0963011F48F77F7
:104E900030C0973011F48E732CC0953011F48E769B
:104EA00028C0913011F48E7924C0933011F58E7C96
:104EB00020C09091FD0590FD877E91FD8B7E92FD37
:104EC0008D7E93FD877D94FD8B7D95FD8D7D96FD7B
:104ED000877B97FD8B7B90910F0690FD8D7B91FDDD
:104EE00001C024FD877792FD8B7793FD01C025FDDE
:104EF0008D7720FD897F21FD857F22FD01C027FD63
:104F0000837F85B9DF91CF91089586E991E0089577
:104F1000089510925A04109259048FEF85B98BB9F5
:104F20003E988AB18F738AB98FE084B98AB1806361
:104F30008AB90895089510925804109257048091E8
:104F4000570490915804883622E4920778F41C9B09
:104F50000DC001969093580480935704F0CF1D9B89
:104F600015C001969093580480935704809157047C
:104F700090915804883622E4920788F307C01E9B5C
:104F800015C001969093580480935704809157045C
:104F900090915804883622E4920788F307C01F9B3B
:104FA00012C001969093580480935704809157043F
:104FB00090915804883622E4920788F38836924408
:104FC00011F480E008958BE008958FEF80935604EC
:104FD0008093550480935404809353041092580492
:104FE000109257048091FD0580FF03C09DEF9093C0
:104FF000550481FF03C09DEF9093540482FF03C0CA
:105000009DEF9093530483FF05C0909155049B7FBF
:105010009093550484FF05C0909154049B7F909316
:10502000540485FF05C0909153049B7F90935304D3
:1050300086FF05C090915504977F9093550487FF94
:1050400005C080915404877F8093540480910F069B
:1050500080FF05C090915304977F9093530481FF84
:1050600005C0909155049E7F9093550482FF05C022
:10507000909154049E7F9093540483FF05C08091C7
:1050800053048E7F809353048091FC0584FF03C0FA
:105090009DEF9093560485FF05C0909156049B7F29
:1050A0009093560482FF05C090915604977F909389
:1050B000560480FF02C05C9801C05C9A8091FC0598
:1050C00081FF02C05D9801C05D9A409103064111C5
:1050D00004C080910406882369F08091FC0580FF5C
:1050E00009C05D9807C04E9B11C00196909358046B
:1050F000809357048091570490915804883622E495
:10510000920788F38836924409F425C11092580416
:10511000109257041C9B17C080915704909158041B
:10512000853FF1E09F0710F0589A6BC0019690936D
:10513000580480935704EECF1C9B0DC001969093AA
:1051400058048093570480915704909158048836EE
:1051500022E4920788F38091560485B98091570420
:10516000909158048836E2E49E0740F41D9B06C0E7
:1051700001969093580480935704F0CF8091550482
:1051800085B980915704909158048836F2E49F07BE
:1051900040F41E9B06C001969093580480935704D8
:1051A000F0CF8091540485B98091570490915804B0
:1051B000883622E4920740F41F9B06C00196909324
:1051C000580480935704F0CF8091530485B980919F
:1051D0005704909158048836E2E49E0740F41C9BE3
:1051E00006C001969093580480935704F0CF8FEF38
:1051F00085B907C04E990DC00196909358048093CD
:10520000570480915704909158048836F2E49F0720
:1052100088F38AB1806C8AB98BB18F738BB98AB1EC
:10522000806C8AB95091000660910206252F30E00B
:105230002058310937FF03C0319521953109862F58
:1052400090E08058910997FF03C09195819591094D
:10525000281739070CF0652F442309F1242F30E07B
:105260008091590490915A04A901481B590B7AE086
:10527000749FC001759F900D112430935A042093A0
:105280005904803891057CF59C012F5F3F4F2330F6
:10529000310568F181382FEF92073CF129C0209148
:1052A0000406222341F130E08091590490915A0480
:1052B000A901481B590B7AE0749FC001759F900D9E
:1052C000112430935A0420935904803891055CF4DA
:1052D0008138EFEF9E074CF09C012F5F3F4F23304A
:1052E000310528F005C08FE703C081E801C080E0E8
:1052F00040E8480F1AC05091FF0540910106252F44
:1053000030E02058310937FF03C03195219531092C
:10531000842F90E08058910997FF03C09195819563
:105320009109281739070CF0452F90E0941708F0E1
:105330005F9A961708F05E9AEBEDF0E03197F1F77F
:1053400000C000009F5F9F3F89F78BB1806C8BB9D5
:105350008AB18F738AB9089580EA91E0089508951B
:10536000579A82E080932A0608950895E3E0FDE0CD
:105370003197F1F700C000005F9AE3E0FDE031975C
:10538000F1F700C0000020E030E090E0AC01022E18
:1053900002C0559547950A94E2F740FF02C05F9816
:1053A00001C05F9AE3E0FDE03197F1F700C0000033
:1053B0002F5F3F4F2730310549F75F9883E09DE02D
:1053C0000197F1F700C00000E3E0FDE03197F1F74D
:1053D00000C000005F980895CF93DF936091FC05B3
:1053E000909127068091FE0569130FC02091FF055B
:1053F00090912906291309C0209100069091280652
:10540000291303C08F3F09F4D0C065FF09C09091F4
:105410002A06923011F49AE001C092E090932A0695
:10542000811105C020E880912A06281B05C0843020
:1054300029F420912A06205890E891C0863029F45A
:1054400090E880912A06981B05C0823029F490913B
:105450002A06905820E883C0873029F490E880918C
:105460002A06981B16C0853039F480912A0620E858
:10547000280F90E8981B73C0813031F490912A0670
:1054800020E8291B90586BC0833029F490912A069C
:105490009058292F64C05091000640910206252F94
:1054A00030E02058310937FF03C03195219531098B
:1054B000842F90E08058910997FF03C091958195C2
:1054C0009109281739070CF0452F7091FF0550916D
:1054D0000106272F30E02058310937FF03C03195EE
:1054E00021953109852F90E08058910997FF03C0DD
:1054F000919581959109281739070CF0572F5093F2
:10550000FF054093000689E8850F833110F0952F41
:1055100001C090E889E8840F833110F0242F01C086
:1055200020E88091030681110CC08091040681114E
:1055300008C080911A06853421F0803411F08A3039
:1055400071F420E880912906922F981B950F809185
:105550002806281B240F50932906409328066093A1
:10556000270660FD02C030E401C030E561FD306215
:1055700066FD30E7D0E8D90FC0E8C20F4C2F459543
:105580004595459545954C708D2F829586958695C8
:105590008370482B842F832BE9DE8D2F8F73E6DEFB
:1055A0008C2F8F73DF91CF91E1CEDF91CF91089552
:1055B0004D9BFECF8CE2DACE80915B04882311F004
:1055C00080E0089581E080935B044D99F9CF25E355
:1055D0002A95F1F700004D99F3CFC2DEE9DFE8DF4D
:1055E0004D9BFECF8AE4C2DE80E0C0DE80E0BEDEFE
:1055F00080E0BCDE4D99FECF4D9BFECF8AE4B6DE47
:1056000080E0B4DE80E0B2DE80E0B0DE8FEF99E6CD
:1056100028E1815090402040E1F700C0000082E383
:1056200008958AEA91E00895089584B1806C84B960
:1056300085B1806C85B92F9888E020E495B19227D8
:1056400095B98150D9F785B1806C85B908958BB132
:105650008F738BB98AB18F738AB985B1806C85B924
:1056600084B18F7384B980916B00806880936B00E4
:105670007894809168008E7F809368001092630414
:1056800080E28093620480911A06853421F0803490
:1056900011F08A3019F480E092E002C081E090E0DD
:1056A0009093600480935F040895E8E6F0E08081C1
:1056B0008E7F8083089528E030E040E89FEB60E330
:1056C00070EC592F5095E42FE82395B9EE2329F07B
:1056D00000C075B900C055B902C000C065B9952FAA
:1056E0004695215031092115310559F70895CF927A
:1056F000DF92EF92FF920F931F93CF93DF931F924E
:10570000CDB7DEB7E82E6C01F12C8C2D8E198617E3
:1057100058F48601F60181916F016983CCDFF801AD
:105720008081F8266981F1CF8F2D0F90DF91CF9185
:105730001F910F91FF90EF90DF90CF90089587DF3A
:10574000109261041092F905D89A809168008160E6
:105750008093680083B12FEF8AE693E02150804068
:105760009040E1F700C000008091F905811102C06E
:1057700080E00895809161048823D1F38DE108953C
:10578000CF93DF93109261041092F905D89A80911B
:1057900068008160809368008091F905811105C0DF
:1057A00025E02A95F1F70000F7CF209161048FEFF3
:1057B000820F8E3F08F019C2213008F403C2233053
:1057C00020F0293009F452C0FDC185E08093930494
:1057D0008091630480939204809162048093910489
:1057E0008CE18093900480915F04909160048130FB
:1057F000910521F480E7EBE3F2E006C081159240C9
:1058000049F480E7EBECF1E0A4E9B4E001900D92FB
:105810008A95E1F7213029F408DF64E780E994E014
:10582000CFC18091900490919104A0919204B09185
:1058300093048093040590930505A0930605B09307
:10584000070580E7E4E9F4E0A8E0B5E001900D92F7
:105850008A95E1F740E550E06BEA72E088E795E071
:10586000CED4E3DE64EC84E095E0AAC16091FE054D
:10587000653089F0673091F0613099F06330A1F0C4
:105880006623A9F06430B1F06630B9F06230C1F03F
:105890002FEF30E017C02FE930E014C02FEA30E0DE
:1058A00011C02FE630E00EC02FE530E00BC02FEE28
:1058B00030E008C02FED30E005C02FEB30E002C033
:1058C0002FE730E07091FC0570FD2B7F71FD2D7F7F
:1058D00077FF03C08FEF8093060672FD03C04FEF82
:1058E00050E002C04BEF50E073FD4D7FE72FE074B6
:1058F00076FF03C08FEF8093050675FD277FB0917B
:105900000006D09102067F3011F5643071F480E01A
:1059100092E09093600480935F044FEF85EA9EE0ED
:10592000415080409040E1F70FC0611110C081E00C
:1059300090E09093600480935F042FEF35EA4EE08F
:10594000215030404040E1F700C000004EC180913E
:105950005F04909160048130910509F04CC0809102
:105960001A068A30A1F46091FF0590E8960F8091A5
:105970005E04981B80E88B0F70915D04871BB093C9
:105980005D0460935E049093FF058093000688E0B9
:1059900080938304809163048093820480916204E5
:1059A0008093810483E08093800481E090E0A0E014
:1059B000B0E08093840490938504A0938604B09310
:1059C0008704809105068093880480910606809361
:1059D000890440938A0420938B0480E880938C048C
:1059E00080938D048091000680938E048091FF0542
:1059F00080938F04CFC08115924009F0CBC0909165
:105A00001A06C091FF0580915E049534E9F0903448
:105A1000D9F09A30D9F5E1112B7F77FD2D7F6230D7
:105A200028F0673019F0E0E0F0E002C0EFE0F0E0CD
:105A30006350633010F4E1EFFFEF6B2F70E0909153
:105A40005D04691B710904C0E0E0F0E060E070E013
:105A5000AC2F4C2F50E0481B5109CB0177FF04C0FD
:105A600088279927861B970B8138910514F060E0F1
:105A700070E0CA0157FF04C088279927841B950B43
:105A80008138910564F140E050E029C0A0910306FF
:105A9000A11104C0A0910406AA2351F04A2F50E09E
:105AA0005E5F481B5109E0E0F0E060E070E017C085
:105AB000AC2F4C2F50E0481B5109440F551F6B2F42
:105AC00070E080915D04681B7109660F771FED2FF0
:105AD000F0E080915C04E81BF109EE0FFF1FCA5053
