:100000007AC5000094C5000092C5000090C50000AC
:100010008EC500008CC500008AC5000088C50000A0
:1000200086C5000084C500000C945A2B80C50000D2
:100030007EC500007CC500007AC5000078C50000C0
:1000400076C5000075C5000072C5000070C50000CF
:100050006EC500006CC500006AC5000068C50000E0
:1000600066C5000064C5000062C5000060C50000F0
:100070005EC500005CC500005AC5000058C5000000
:1000800056C5000054C5000052C5000050C5000010
:100090000C9490134CC500004AC5000048C50000F0
:1000A00046C5000044C5000042C50000740D7C0D2B
:1000B000F20C440D960DA70DC50DE20DDF0EDF0EFF
:1000C000DF0EDF0EF00D080EDF0E190E70510386E5
:1000D000400D4FEB3ECCD18735BDF50B5ED0F8F22D
:1000E000D5E26C310CADFC21C378C106C24C55E69B
:1000F0004A3448111EDAE71A84A096A7E37FAF635B
:100100009CFA235B79C89EBAB2C922124BB3A1B63E
:100110003249A2E189391066C5078F54EA91CA3F76
:10012000F919F0D746BC281B61E82F6AAE9DF64E40
:100130000914774DDB1F2E7B7CF143A300B8138C91
:1001400085B9297588FDD2561C509741E53B60B5AD
:10015000C064EE98D62D25A4AACD7DA883C6ABBEDB
:100160004499263CCE9FBFD3CB767A7E82018A9A71
:10017000801D0EB05CD43862F430E08E53B7025765
:10018000ACA6520A6D9265172433457274B1B4F768
:100190005DED2CFF47375A90BBDF2A165995D9C41D
:1001A000276773C768FEA5DD6B5F93D8EC053A8DB2
:1001B0006EFB3DA96936F394DEEF156F8B9B080F3C
:1001C000DC81182004E471CFE92B425801A0A96218
:1001D000D63F85A7B6D4FA15661709BD5D14342637
:1001E00059729154064FF8B05B7493998CF245CDD7
:1001F000EA4EAD104AE5CAEEDFC66F9F888E02CC8C
:1002000008A877946D21B128E43979966071811638
:100210002EE678B9C4469A42AEB77C43B3221A861A
:10022000C2323D2D9CD229E9639BD131385E1E3606
:1002300041BB03182B3EBF6861FC52C0DEE00A5888
:10024000135A00BE1C900E5312FDE26EBACE242744
:10025000447F87A3A1D55040E3F983F7C7A235C8EF
:10026000DB19AB2F1125ED339E55E148AF7384DACE
:100270002AAA51EB9D95B2CBE77080FE4C6504EF46
:10028000C5F1C33AB4F55F2389DD30A58BD3F6DC25
:100290004D64D7F08FEC56375CA40D07768A2C0B93
:1002A000B5D8C11FE83BF44B1B476C49677B92CF25
:1002B000757E20D97D3C977AD0056B0F1DFB829807
:1002C000578DF36ABCACC9A6FFB8690C4C4D7207D8
:1002D0005A49338DA2AB463D630DA097FFF0F5FA66
:1002E000C0E9DB62E4E17443DC86182937F406E2F6
:1002F000ED6F90481E2D1DEA739454DF25F64727B5
:10030000D91177C9841C5B5C5181A6223E2496C812
:100310008AEC827C09B8454A57BB2F50758E6170B4
:100320008C6CAFD0FDB41BAEDEFE3BB536BD5501C7
:100330000E9C41565FB3260383BA134BCAC50AF815
:1003400060A5B9C7C39832FB12F9A792AA68F378DF
:100350007E05202102E8BFF2B0598FD2CB87651508
:10036000F11AB230ADEE58A38B661F2CD75D1985FC
:10037000A8E6D36BA10C91936A5E0B79E3DD004F85
:100380003C896E7169A9AC40E59928C6314E7ACD99
:10039000089E7DEF17FC88D8A46D4495D1B7D49BF7
:1003A000BE2A34642BCF2EEB38CE23E03A3FF77BC6
:1003B0009F1053BC526716E7807604C4B6C1C27F53
:1003C0009ADAD53942149DB10F35D6CCB9DA380C4A
:1003D000A29C091F06B1B6FD1A692330C4DE01D103
:1003E000F45829371C7DD5BFFFBDC8C9CF65BE7B7A
:1003F0007897986708B32657F7FA40AD8E75A67CB4
:10040000DB918B5199D4177A908DCE63CB4EA0ABF4
:10041000183A5B507F2174C1BBB8B7BA0B35953120
:10042000599A4D04071E5A7613F37183D08603A898
:100430003942AA28E6E4D85DD3D06E6F96FB5EBC45
:1004400056C25F859BE7AFD23B846AA753C5444938
:10045000A5F936723D2CD91BA1F54F939D684741F4
:1004600016CA2A4CA387D6E5192E77156D70C0DF02
:10047000B20046EDC66C4360922DA922458F3455DB
:10048000AEA40A6632E0DC02ACE8208C89624AFE47
:10049000EEC3E33CF17905E9F62733CCF29E1181F6
:1004A0007E80108A829F480DD7B4FC2FB5C7DD88A7
:1004B000146B2B54EA1D945CB0EF1224CDEBE1E2F7
:1004C00064733F0E5261253EF80F4BECC00030F6CE
:1004D00002493D106E20C9A62FFE2C2B752E4526F5
:1004E000AB48A980FC04CCD3B5BAA338317D01D97F
:1004F000A77B96B663694EF7DEE078CA50AA4191B1
:100500006588E42185DA3A27BE1C3E425E17527F99
:100510001F89246F8F5C67740E12878DE934ED7329
:10052000C4F8615B05DF594C97798318A45595EBA6
:10053000BD53F5F15766469FB2810951862216DDFB
:1005400023937629C2D71DD4BF363FEA4B1132B967
:10055000625460D66D439A0D929CB0EF586C9D77B3
:100560002D70FAF3B30BE2407EF48AE58C3C5671B1
:10057000D164E1820ACB131590EC0399AF145D0F9F
:10058000334A94A5A8351BE36AC628FF4DE72584A6
:10059000AC08AEC5A22AB8370C7AA0C3CEAD061AF5
:1005A0009E8BFBD5D0C11ED0B49BB144F247C76827
:1005B000CF72BB4F5AF9DC6BDBD2E87CC8EE98A156
:1005C000E6D839075FFD8E19B73BBCCD7CE381735C
:1005D000B211BF6F2098FE7596EF6CDA50E1097288
:1005E0005445BA34805BED3E532C87A457F3333F18
:1005F0003CB767B4A325604F076B1B47150FE40A90
:10060000EAD1327836498D4BD2BCA5DC1D0D4DCDDB
:100610009A825FFC9465BEE2F4C91E44CB9E0C64D2
:10062000712663B314E840708A0E19426DAC8810CD
:100630005CDF41A9ADE5FB74CCD5068E5986CE1F93
:100640003D76E08FB977277BA6D829D3ECB813F78E
:10065000FAC3516ADE4A5AEBC28B234892CF62A892
:1006600099F8D02E856143C8BDF00593CA4EF17D3F
:1006700030FDC469662F08B152F921E67A2BDD39C5
:1006800084FFC091D637D47F2D9B5DA13B6EB5C54D
:100690004604F590EE7E831C0356B6AA001701357A
:1006A00055790B12BB1A31E7022816C1F6A2DB18E6
:1006B0009C89683897ABC72AD73AF2C6244CB05801
:1006C000A0225E9DD9A7E9AEAF8C959F28B720D711
:1006D000B030C30919C067D6003C7EE7E9F4085A78
:1006E000F8B82E05A6259E5CD8150DE1F611546BC1
:1006F000CD2146665E84AD06382944C5A2CEF1AA56
:10070000C1407186B5EFFC36A8CB0A48274564A3E3
:10071000AF8CB2C69F0789DC17D34979FBFE1DD089
:10072000B9884352BC01782B7D94C70EDEA5D59BBA
:10073000CCF7617AC274813903AB96A037BD2D72B4
:10074000753FC9D48E6FF98DED62DB1CDF04AC1BE5
:100750006C144B63D0BFB482EC7B1A5992D21060F8
:10076000B63D5FE6806E70C4F235D97CEEE541A4FB
:100770005B50DDBB4CF31F9D5D57555197E35842CD
:100780004D9C73BAC877316926AEEA8ADA22B387FC
:1007900056FA930B341633E8E453BEA9B13A3EF54A
:1007A000906ACF3B12FD8F9AA7479199EB0F24FFD8
:1007B0002318854E7F0CE0A1D2D12C2A4A024F1E6D
:1007C00095688B98836D76CA6532132FC3829AA47D
:1007D000BA8160373435FC80A8516567ED305F1011
:1007E000D34A272F13B92AD2CCE1EFAEEBBEF4BD2A
:1007F000CF43B3C58884B7DD3940CE486D9B726165
:100800007EE7A14E532E773BE2C936221B6E73B1B1
:1008100003B24C87A9D44D0FD8156CAA18F64957C6
:100820005DFB7A149463A011B09EDE0546C8EE47C6
:10083000DBDC24899C919729E97BC1071EB8FDFE6A
:10084000ACC662984FF179E0E86B7856B68D0450EB
:1008500086CA6F20E6EAE576171C747FBC0D2C85EE
:10086000F76696E48B753F4BD938AF7CDA0B832D56
:100870003132A2F51D594145BF3C1FF8F98AD01607
:10088000256912999D2195AB01A6D7B5C07DFF586A
:100890000E3A92D155E3089FD63E528EFAA3C70274
:1008A000CDDF8F64198CF3A70C5E0A6A09F0935BA5
:1008B00042C20623EC71ADB4CBBB7028D51A5C33B1
:1008C000685A004490A5C4263D2BF25496ADDA1F19
:1008D000ED33E18169080D0ADB35779A64D1FC7844
:1008E000AA1BD067A0DDFA6C63710584176A894F73
:1008F000667FC65055926FBDE7D240728DBBEC0645
:10090000428AE4889D7E7A822713411AAFC8A47672
:10091000B4C2FE6D1CD96130B37CEAF7290FF23BFB
:1009200051C1DE5FE52A2F990B5DA32B4AAB95A53C
:10093000D35856EE283100CC1546CAE686383C65B9
:10094000F5E39FD65B094983702D53A97DE2C4ACC2
:100950008E5EB825F4B957F3F16847B2A25920CE9C
:1009600034795C900E1EBED52223B1C91862162EB2
:10097000913E078FD83F933DD49BDF8521FB1174B7
:1009800097C7D7DC4C194598E943024BBCC3049C7C
:100990006BF07552A726F6C5BACFB0B7AE5AA1BF55
:1009A000038B80126E0CEBF9C04424EF10F8A88C76
:1009B000E87BFF9E2CCD603687B594A654733A141D
:1009C0004E011DB6FD37484D39CBE0320000000026
:1009D0000000000000000000000000000000000017
:1009E0000000000000000000000000000000000007
:1009F00000000000000000000000000000000000F7
:100A000000000000000000000000000000000000E6
:100A100000000000000000000000000000000000D6
:100A200000000000000000000000000000000000C6
:100A300000000000000000000000000000000000B6
:100A400000000000000000000000000000000000A6
:100A50000000000000000000000000000000000096
:100A60000000000000000000000000000000000086
:100A70000000000000000000000000000000000076
:100A80000000000000000000000000000000000066
:100A90000000000000000000000000000000000056
:100AA0000000000000000000000000000000000046
:100AB0000000000000000000000000000000000036
:100AC000000000000000000000000000A877A6E081
:100AD000F7435A3585E272978FB71A6287380D67E8
:100AE000C7BE4F3E2076378F68B7A9263F2B10E34D
:100AF000307E900E850A11241FBECFEFDAE0DEBFF4
:100B0000CDBF11E0A0E0B1E0EAEBF8E502C005904E
:100B10000D92A23CB107D9F723E0A2ECB1E001C0ED
:100B20001D92A33BB207E1F78ED20C945B2C68CAEE
:100B30001F920F920FB60F9211242F933F934F9352
:100B40005F936F937F938F939F93AF93BF93EF9335
:100B5000FF9381E0809350031092850010928400EF
:100B600080917303853151F4E0919503F0919603E0
:100B70000480F581E02D80E0099508C0853231F4CC
:100B8000369B02C0469801C0469A3E9AFF91EF916B
:100B9000BF91AF919F918F917F916F915F914F9195
:100BA0003F912F910F900FBE0F901F901895CF93EC
:100BB000E0919503F09196030480F581E02D81E2A8
:100BC0000995C82FE0919503F09196030280F38177
:100BD000E02D82E0099590915203892F81708093D6
:100BE0008E0393FB882780F98093930394FB8827D7
:100BF00080F98093920395FB882780F98093900376
:100C000096FB882780F980938F03991F9927991F56
:100C100090939103CF3F51F4E0919503F0919603A7
:100C20000480F581E02D80E00995C2CFC03F08F037
:100C3000BFCFCF91089580919403893721F08333FA
:100C400011F08F3749F491E090938D03893759F46F
:100C500081E080938C03089510928D038337C1F354
:100C6000893041F4F5CF982F9F7B933389F38F37E9
:100C7000B9F7EECF8251823058F310928C03089569
:100C8000CF9380918E03811105C080918D038111D6
:100C90000EC032C0E0919503F09196030480F58177
:100CA000E02D80E009958F3F81F78EEFEFC0E09156
:100CB0009503F09196030480F581E02D82E009957B
:100CC000E0919503F09196030280F381E02D8DE091
:100CD0000995EFEAF4E03197F1F700C00000803F9A
:100CE00008F0D4C0E2E5F3E0A3E4B3E081918D9392
:100CF00083E0EE35F807D1F7E0919503F091960384
:100D00000480F581E02D81E00995E0919503F09153
:100D100096030280F381E02D8DE00995C82F803F76
:100D200008F0B3C0809194038C1731F1E0919503E2
:100D3000F09196030480F581E02D80E0099537DF7E
:100D4000E0919503F09196030480F581E02D81E018
:100D50000995E0919503F09196030280F381E02DCF
:100D60008DE00995C82F8FEF90E0909363038093F7
:100D70006203C03F08F089C080917103882309F4A1
:100D80006DC080918C03882309F468C090914F0353
:100D900080915E03981305C08091C201882309F4F5
:100DA0005DC0E0919503F09196030480F581E02DFC
:100DB0008CE10995E0919503F09196030480F5810B
:100DC000E02D80915E030995E0919503F0919603E3
:100DD00081E090915E03911101C080E00480F58173
:100DE000E02D81950995E0919503F091960304809B
:100DF000F581E02D81E10995E0919503F09196034D
:100E00000480F581E02D8CE10995E0919503F09146
:100E100096030480F581E02D80914F030995E091C0
:100E20009503F091960381E090914F03911101C0D9
:100E300080E00480F581E02D81950995E09195038E
:100E4000F09196030480F581E02D84E1099580916D
:100E50004F0390915E0389278093C2012091620322
:100E6000309163032115310539F021503109309358
:100E700063032093620364D1E0919503F09196039C
:100E80000480F581E02D80E009958C2FCF910895A5
:100E9000CF93DF931F92CDB7DEB7F2DE90918E0332
:100EA00091112AC0803FE0F09091530320915203AA
:100EB000922398239F3F29F08F3F19F481E080937C
:100EC0008E0381E0809391038DE0E4E6F3E0A1E5F9
:100ED000B3E001900D928A95E1F78091940319C0D7
:100EE0009DE0E1E5F3E0A4E6B3E001900D929A9570
:100EF000E1F7809394030DC09DE0E4E6F3E0A1E503
:100F0000B3E001900D929A95E1F7803F10F41092B2
:100F10008E0320918E0390916003222369F020912B
:100F20005203911105C091E090936003206201C0CB
:100F30002F7D209352030DC0992359F01092600326
:100F4000898335DE2FEF30E0309363032093620313
:100F50008981809361038F37E9F0833331F5809184
:100F60005903882329F080915203846080935203AF
:100F700080915503882329F08091520381608093EA
:100F8000520380915603882329F080915203806494
:100F900080935203809158038093550380E8809397
:100FA000560380935803809359030CD280915203C7
:100FB0008093760380915303809377038091540349
:100FC0008093890380915503809379038091560320
:100FD00080937A039091570390937F0380915803F5
:100FE00080937B038091590380937C0380915A0303
:100FF0008093800320919403293741F020915B0373
:1010000020937E0320915C0320937D0320918D0328
:10101000211104C090934D0380934E0380915D0392
:101020008093780308DE80917503833318F0109263
:101030007503BDDD809175038F5F809375030F90FD
:10104000DF91CF91089510928E0310926003109259
:10105000C201109275038FEF90E090936303809329
:10106000620380E8809361001092610085B7806818
:1010700085BF85B7806885BF1AB817B814B88FEFD9
:101080008BB988B985B9AFD10E94302B8091D80037
:1010900080628093D80089B58D7F89BD8091D8000A
:1010A0008F778093D8001CBC1092CA001092C800A1
:1010B0001092C90010927A008091BC008B7F8093BF
:1010C000BC001092C000109291001092900015BCCC
:1010D00014BC10928100109280008FE99FE001976C
:1010E000F1F700C0000093D18823E9F30E94F82AA9
:1010F0009093960380939503DC01ED91FC91099503
:101100001092C3011092C4011092C5011092C60141
:101110001092C7011092C8011092C9011092CA0121
:1011200051D1E0919503F09196030480F581E02D73
:1011300080E00995A5DD803FE8F7AADE60D1FDCF0C
:101140008091730321E0823309F020E091E0853241
:1011500009F090E0292B91E0382F3D7F393209F0DA
:1011600090E0922BE0919503F0919603911104C0C9
:10117000982F9F7E9530C1F58091940331E08031A6
:1011800009F030E091E0833209F090E0392B91E0F2
:101190008F3109F090E0932B31E08F3209F030E08D
:1011A000392B21E0813409F020E0232B91E08937AD
:1011B00009F090E0922B51F4982F9F7D933531F0F8
:1011C000893021F0877F833109F09BC00480F5814D
:1011D000E02D84E20995E0919503F0919603048057
:1011E000F581E02D84E08CC021E0893109F020E018
:1011F00091E08F3209F090E0292B91E08F3109F0D6
:1012000090E0922B21F4982F9B7F933161F5809190
:101210009403982F977F31E0933009F030E0982FB6
:101220009F7E985021E0923008F020E0232B91E03F
:10123000382F3B7F313209F090E0922B31F4883225
:1012400021F08351833008F05CC00480F581E02DEB
:1012500085E20995E0919503F09196030480F5816C
:10126000E02D83E04DC0833209F044C080919403A7
:10127000982F977F21E0933009F020E091E0382FFC
:101280003F7D383009F090E0922B21E03CEE380FA2
:10129000323008F020E0292B91E038EE380F33305F
:1012A00008F090E0922B31F4982F9B7F913211F04F
:1012B000863339F50480F581E02D84E20995E091CB
:1012C0009503F09196030480F581E02D84E0099563
:1012D000E0919503F09196030480F581E02D85E27D
:1012E0000995E0919503F09196030480F581E02D36
:1012F00081E006C08B3029F40480F581E02D80E286
:101300000995E0919503F09196030480F581E02D15
:1013100080E1099440917A0390917C0321E09E340E
:1013200008F020E081E04E3408F080E0282B809126
:101330007B03222341F08E3420F0309179033E3438
:1013400010F487E03CC031E0933B08F430E091E0DA
:10135000433B08F490E0932B41F08E3420F0309121
:1013600079033E3410F485E02AC0222341F0833B08
:1013700020F430917903333B10F081E020C09923B1
:1013800041F0833B20F430917903333B10F083E04C
:1013900016C0309179038E3410F03E3410F486E09C
:1013A0000EC0833B10F4333B10F082E008C02223D0
:1013B00019F0109278030895992319F084E080932E
:1013C0007803089510927703109276038FE080934C
:1013D000780380E880937C0380937B0380937A0377
:1013E00080937903089514BEA89588E10FB6F89408
:1013F00080936000109260000FBEF8940895E09111
:101400008A03F0918B030280F381E02D09940F93FE
:101410001F93CF93DF931F92CDB7DEB71092710366
:10142000109272031AB817B814B80FEF0BB908B9B5
:1014300005B90E94CC2990938B0380938A03DC0129
:10144000ED91FC910995E0918A03F0918B03048062
:10145000F581E02D099580937303811186C0E09199
:101460008A03F0918B030084F185E02D09950E9499
:10147000812890938B0380938A03DC01ED91FC918A
:101480000995E0918A03F0918B030480F581E02DAA
:10149000099580937303811168C0E0918A03F091EC
:1014A0008B030084F185E02D09951AB817B814B89C
:1014B0000BB908B905B995D490938B0380938A032F
:1014C000DC01ED91FC910995E0918A03F0918B0389
:1014D0000480F581E02D099580937303882331F012
:1014E00081E080937103809372035EC1E0918A036F
:1014F000F0918B030084F185E02D09951AB817B897
:1015000014B80BB908B905B90E94822490938B03D3
:1015100080938A03DC01ED91FC910995E0918A03A7
:10152000F0918B030480F581E02D0995809373037E
:1015300081111BC0E0918A03F0918B030084F18537
:10154000E02D099589B18C3F91F41AB817B814B8F9
:101550000BB908B905B90E94542690938B03809368
:101560008A03DC01ED91FC91099581E01DC1E091B8
:101570008A03F0918B030084F185E02D099513B166
:101580001F3F09F0E6C01AB817B814B81BB918B94C
:1015900015B90E94CC1D90938B0380938A03DC01C4
:1015A000ED91FC910995E0918A03F0918B03048001
:1015B000F581E02D0995809373038111D6CFE091D9
:1015C0008A03F0918B030084F185E02D09951AB808
:1015D00017B814B81BB918B915B90E94881690939A
:1015E0008B0380938A03DC01ED91FC910995E091D6
:1015F0008A03F0918B030480F581E02D0995809397
:101600007303811124C0E0918A03F0918B0300845D
:10161000F185E02D09951AB817B814B81BB918B997
:1016200015B90E94531A90938B0380938A03DC01AF
:10163000ED91FC910995E0918A03F0918B03048070
:10164000F581E02D099580937303882321F081E0D3
:1016500080937103A9C0E0918A03F0918B03008409
:10166000F185E02D09951AB817B814B81BB918B947
:1016700015B90E94A21B90938B0380938A03DC010F
:10168000ED91FC910995E0918A03F0918B03048020
:10169000F581E02D099580937303811166CFE09168
:1016A0008A03F0918B030084F185E02D09951AB827
:1016B00017B814B81FEF1BB918B915B90E94B81F95
:1016C00090938B0380938A03DC01ED91FC91099543
:1016D000E0918A03F0918B030480F581E02D099558
:1016E00080937303811141CFE0918A03F0918B03C2
:1016F0000084F185E02D09951AB817B814B81BB904
:1017000018B915B90E94372390938B0380938A03ED
:10171000DC01ED91FC910995E0918A03F0918B0336
:101720000480F581E02D09958093730381111DCF0D
:10173000E0918A03F0918B030084F185E02D0995F7
:101740001AB817B814B81BB918B915B90E943E25B4
:101750000DC083B11AB817B814B80BB908B905B9D8
:101760008F3511F46FD402C00E94E22090938B0356
:1017700080938A03DC01ED91FC910995E0918A0345
:10178000F0918B030480F581E02D0995809373031C
:101790008111EBCEE0918A03F0918B030084F185F7
:1017A000E02D8983099589810F90DF91CF911F9159
:1017B0000F9108950895809191038093CD01109227
:1017C000D2011092D3011092D1011092D00188E180
:1017D00084B98FEF85B98FE68CBD08951CBC089540
:1017E0006EBD0DB407FEFDCF882371F08091D3014B
:1017F000811104C08AE28A95F1F700C02C9885E037
:101800008A95F1F700002C9A189902C08EB50895B8
:1018100080E00895CF93C82F60917B0381E0E0DFE3
:1018200081508E3F38F48FEA94E00197F1F700C0C1
:101830000000C1DF60917C0381E0D2DF6091790319
:1018400081E0CEDF60917A038C2FCF91C9CFCF9307
:1018500080E194EA189B07C025E82A95F1F700007B
:1018600001970097B9F787EC90E00197F1F700C076
:10187000000083B1C82FC17080FD0EC08FE891E0D9
:101880000197F1F700C000008FE99FE00197F1F7A1
:1018900000C00000189903C01CBCC0E023C060E079
:1018A00080E09EDF6FEF80E09BDF8130D1F46FEF4F
:1018B00097DF61E481E094DF6AE581E091DF6FEF1B
:1018C00081E08EDF6FEF81E08BDF95E39A95F1F792
:1018D00000008CB58F7B8CBD84B1877E84B9C7E155
:1018E00001C01CBC8C2FCF9108951F93CF93DF9321
:1018F000189BFECF8AEB98E8189B06C001970097CB
:10190000D9F788EC8093D00180917803882309F47B
:1019100064C2823009F463C2843049F0863089F0B1
:10192000813089F0DFEF833021F4DFE90DC0DFEB98
:101930000BC0853011F4DFE307C0873029F4DFE600
:1019400003C0DFE701C0DFEC8091760384FDDE7F1A
:1019500085FDD77F9091770396FDDD7F97FDDB7F37
:1019600080FD02C0CFEF01C0CFEB81FDCF7D82FDB6
:10197000CF7783FDCF7E86FDCB7F87FDC77F90FD30
:10198000CE7F91FDCD7F8CB580648CBD84B18861A4
:1019900084B98091D00187FD0EDF8091D0018F5FE7
:1019A0008093D0016FEF81E01BDF813009F007C227
:1019B0001092D0018091D101813009F04AC163EFCA
:1019C0000FDF182F6AE581E00BDF812F90E0FC012B
:1019D000E054F109E031F10508F0F1C1EA5AFF4F96
:1019E0000C943F2C6D2F81E0FBDE80934F038091A0
:1019F000CB01882331F081508093CB016C2F81E0A3
:101A00002AC08091CC01882331F081508093CC0191
:101A10006C2F80E029C08091D3018230C9F46C2FF3
:101A200081E0DEDE80935E0381E0F4DE8091D3010D
:101A30008230E9F4C3E4D3E0699181E0D1DE83E050
:101A4000CE34D807C9F760914E0380E0C9DE0FC0DD
:101A5000813039F46C2FC4DE80935E0380E0DADEDF
:101A600006C0811104C06C2FBBDE80935E038091A1
:101A7000CF018F5F8093CF018B3008F4A0C110920B
:101A8000CF011092D1019BC160E081E0A9DE80937B
:101A9000D101813099F48091D301823011F0C4E0FA
:101AA00007C0CCE060E081E09BDEC150D9F7F7CF02
:101AB00060E081E095DEC150D9F7A6C060E081E02A
:101AC0008FDE8A3561F460E081E08ADE60E081E0EB
:101AD00087DE60E081E084DE60E080E081DE80918E
:101AE000D2018093D3016BC160E081E079DE60E0D8
:101AF00081E076DE62E010C081E08093CC019091BD
:101B0000D201911102C08093D2016FEF81E068DEB3
:101B10006FEF81E065DE63E081E062DE60E081E03E
:101B20005FDE60E081E05CDE6AE56FC060E081E07E
:101B300057DE8093D2018091CD0181111092D201A4
:101B4000C4E060E081E04CDEC150D9F75DC081E0C7
:101B50008093CC018091CD01882311F060E007C013
:101B600080918D03882311F063E001C061E081E082
:101B700037DE62E081E034DE61E08091CD018111E9
:101B800060E081E02DDE62E027C060E081E028DED9
:101B9000811102C0CAE001C0C4E160E081E020DE42
:101BA00061E081E01DDECA3011F462E001C061E055
:101BB00081E016DE61E0CA3009F460E081E010DE09
:101BC0006C2F23C060E081E00BDE60E081E008DE86
:101BD00062E081E005DE60E081E002DE61E012C0EB
:101BE00060E081E0FDDD811102C0C4E001C0C7E01A
:101BF00060E081E0F5DD60E081E0F2DD6C2F81E006
:101C0000EFDD60E081E0ECDD60E080E0E9DDD7C0A1
:101C100060E081E0E5DD61E081E0E2DD6FEF81E041
:101C2000DFDD6FEF81E0DCDD6FEF81E0D9DD6FEFAD
:101C3000ECCF81E08093CB0182E08093D20160E021
:101C400081E0CEDDC4E060E081E0CADDC150D9F7BB
:101C5000DBCF8111B4C08091D301882381F09091B2
:101C60009403993721F4823061F063E70FC0933316
:101C700051F09F3751F09335C1F763E507C061E438
:101C800005C069E703C063E201C063EE9091CE0135
:101C9000891729F09091CC019E5F9093CC0180939D
:101CA000CE0181E09DDD182F6AE581E099DD6D2F81
:101CB00081E0133471F594DD8093D101811102C06C
:101CC00060E025C08091CB0181112AC08091CC01B8
:101CD000811130C08091D301823009F04AC06C2F4D
:101CE00081E07EDD80935E0381E094DD8091D3010D
:101CF000823009F04DC0C3E4D3E0699181E070DD2A
:101D000083E0CE34D807C9F760914E0380E068DDE8
:101D10003FC066DD80934F038091CB01882331F073
:101D200081508093CB016C2F81E026C08091CC0143
:101D3000882331F081508093CC016C2F80E025C046
:101D40008091D3018230A9F46C2F81E049DD80932A
:101D50005E0381E05FDD8091D3018230C9F4C3E48A
:101D6000D3E0699181E03CDD83E0CE34D807C9F748
:101D7000CBCF813039F46C2F33DD80935E0380E06C
:101D800049DD06C0811104C06C2F2ADD80935E03FB
:101D900040919103242F30E08091CD0190E02817ED
:101DA000390769F04093CD0181E09091D301911101
:101DB00080E08093D3018093CE018093D20185E3AC
:101DC0008A95F1F700008CB58F7B8CBD84B1877E3E
:101DD00084B9DF91CF911F910895DFEEB5CDDFED8E
:101DE000B3CD80E091E00895089581E08093D4011F
:101DF0000895ECEBF0E080818B7F80830895109252
:101E0000D4018091D4018823E1F389E108951092EF
:101E1000D4018091D4018823E1F38FE99FE00197F9
:101E2000F1F700C0000085E1E5EDF1E0DF011D9272
:101E30008A95E9F780E88093D8018093D701809351
:101E4000D6018093D5018091790392E9980F94325D
:101E500010F08093D50180917B0392E9980F943222
:101E600010F08093D60180917A0392E9980F943212
:101E700018F080958093D70180917C0392E9980FA8
:101E8000943218F080958093D8018CE08093D9012A
:101E900088E08093DA018FEF8093DB018093DC018F
:101EA0008091760387FF03C09DEF9093DB0185FF50
:101EB00005C09091DB019B7F9093DB01909189039A
:101EC00092FF05C09091DB01977F9093DB0184FF27
:101ED00005C09091DB019F7E9093DB0186FF05C0DA
:101EE0009091DB019F7D9093DB019091780394307A
:101EF00021F49091DB019F7B05C0923031F49091E9
:101F0000DB019F779093DB0109C0911102C09EEF26
:101F100003C0963019F49DEF9093DC012091770374
:101F200021FF05C09091DC019B7F9093DC0120FF95
:101F300005C09091DC019F779093DC0180FF05C084
:101F40009091DC019F7B9093DC0181FF05C0909113
:101F5000DC019F7E9093DC0182FF05C09091DC0143
:101F60009F7D9093DC0183FF05C08091DC01877F1A
:101F70008093DC0180919703811145C08091D60147
:101F8000869586958695282F2871B8E02B9F90011D
:101F900011249091D50196959695922B9093D50109
:101FA000867020E2829FC00111249091D7019695FE
:101FB0009695982B9093D60180914D0386958695A2
:101FC0008695282F287194E0299F900111249091E3
:101FD000D801969596959695922B9093D701A0E26D
:101FE0008A9FC001112490914E03969596959695DF
:101FF000982B9093D8018091DB018093D901809137
:10200000DC018093DA0165E185ED91E014C30F9363
:102010001F938BB183608BB98AB18C7F8AB985E1BC
:10202000E5EDF1E0DF011D928A95E9F705EF1EE08D
:1020300024E131E045E1BF0184E391E003D31F9146
:102040000F9160C38AE091E008952F923F924F92E2
:102050005F926F927F928F929F92AF92BF92CF9238
:10206000DF92EF92FF920F931F93CF93DF93CDB741
:10207000DEB7E2970FB6F894DEBF0FBECDBF1DA648
:102080001CA6A12CB12C78E0E72EF12CDE01519694
:1020900080E090E02CA53DA52453354FF901E80FD1
:1020A000F91FE491ED93019686309105B9F7DE01B1
:1020B000119680E090E0FC01E35FFC4FE081F0E0EE
:1020C000E453FF4FE491ED9301968A30910599F71F
:1020D000AB817E818989872790E04A2F47702A85C6
:1020E00028ABFD819701241B31093AAB29AB9C0138
:1020F00009A802C0220F331F0A94E2F702C0959587
:1021000087954A95E2F7822B38A9831B8F278B8707
:10211000B9814A814EA78A89842790E04B2F477066
:10212000E8859701241B31093AAB29AB9C0109A82A
:1021300002C0220F331F0A94E2F702C095958795DB
:102140004A95E2F7822B871B8E278C873F813FA71A
:102150002B89232730E069856770C701861B9109A9
:10216000A901082E01C0440F0A94EAF7062E02C006
:10217000359527950A94E2F7242B2A1B2B272D87C8
:102180002C892F2730E04E2F47704BA79C81A70149
:10219000BBA54B1B51095AAB49ABA90109A802C009
:1021A000440F551F0A94E2F702C035952795BA955A
:1021B000E2F7242B291B2A272E872D895EA52527A8
:1021C00030E0AFA5A770A7014A1B51095AAB49AB34
:1021D000A90109A802C0440F551F0A94E2F75AAB9F
:1021E00049AB02C035952795AA95E2F7242B291B08
:1021F0002F272F872E892E2730E0F90102C0EE0FFE
:10220000FF1F8A95E2F7CF0102C0359527956A95A1
:10221000E2F7822B871BF8A98F27888B46E050E0D6
:1022200067E073E0CE010B960E94452C95012F5F6D
:102230003F4F892B79F059012CA53DA52A5F3F4FCF
:102240003DA72CA737E0A316B10409F01FCF1092C9
:10225000180380C1822F90910B03122F00E0090F09
:10226000111D04531F4FF8010491F2E0AF0EB11C91
:1022700090911003FA2DEE27E90FF11DE453FF4F63
:10228000E491E027E093FF0290910903782E612CFE
:10229000690E711C930124533F4FF9016490909192
:1022A0001203FA2DEE27E90FF11DE453FF4FE491DD
:1022B000E625E093000390910C03582E412C490E23
:1022C000511C920124533F4FF90144909091140303
:1022D000FA2DEE27E90FF11DE453FF4FE491E425B9
:1022E000E093010390910703D82EC12CC90ED11C95
:1022F000960124533F4FF901949120910F03FA2D39
:10230000EE27E20FF11DE453FF4FE491E927E0933C
:10231000020390910803982E812C890E911C940140
:1023200024533F4FF901949120911103FA2DEE2788
:10233000E20FF11DE453FF4FE491E927E09303031B
:1023400090910A03888F1F8A2F89388D290F311D9C
:1023500024533F4FF901949120911603FA2DEE2753
:10236000E20FF11DE453FF4FE491E927E0930403EA
:1023700090910D038A8F198E298D3A8D290F311D69
:1023800024533F4FF901949120911303FA2DEE2726
:10239000E20FF11DE453FF4FE491E927E0930503B9
:1023A00090910E038C8F1B8E2B8D3C8D290F311D30
:1023B00024533F4FF901949120911503FA2DEE27F4
:1023C000E20FF11DE453FF4FE491E927E093060388
:1023D000909107038E8F1D8E2D8D3E8D290F311DFF
:1023E00024533F4FF901949120910E03FA2DEE27CB
:1023F000E20FF11DE453FF4FE491E927E093F70268
:1024000090910C0388A31F8E2F8D38A1290F311DA9
:1024100024533F4FF901949120911103FA2DEE2797
:10242000E20FF11DE453FF4FE491E927E093F80236
:1024300090910A038AA319A229A13AA1290F311D5B
:1024400024533F4FF901949120910D03FA2DEE276B
:10245000E20FF11DE453FF4FE491E927E093F90205
:10246000909109038CA31BA22BA13CA1290F311D24
:1024700024533F4FF901949120911603FA2DEE2732
:10248000E20FF11DE453FF4FE491E927E093FA02D4
:1024900090910B038EA31DA22DA13EA1290F311DEA
:1024A00024533F4FF901949120911403FA2DEE2704
:1024B000E20FF11DE453FF4FE491E927E093FB02A3
:1024C0009091080388A71FA22FA138A5290F311DBD
:1024D00024533F4FF901949120911503FA2DEE27D3
:1024E000E20FF11DE453FF4FE491E927E093FC0272
:1024F000909110038AA719A629A53AA5290F311D85
:1025000024533F4FF901949120911203FA2DEE27A5
:10251000E20FF11DE453FF4FE491E927E093FD0240
:1025200090910F03382E212C290E311C9101245338
:102530003F4FF901249080911303FA2DEE27E80F05
:10254000F11DE453FF4FE491E225E093FE0281E0A8
:1025500080931803E2960FB6F894DEBF0FBECDBF8E
:10256000DF91CF911F910F91FF90EF90DF90CF906F
:10257000BF90AF909F908F907F906F905F904F90A3
:102580003F902F900895863028F4E0911903F09140
:102590001A030994089590EC980F963098F480E40B
:1025A00090E029E430E0F901E81BF90BDC01A950C7
:1025B000BE4F4C91E35FFC4F4083019686349105FA
:1025C00091F708959AEB980F9630C8F480913D02E8
:1025D0008093100380913E0280930F0380913F020D
:1025E00080930E038091400280930D0380914102FD
:1025F00080930C038091420280930B03089594EB27
:10260000980F9430B8F49091430290930A039091FC
:10261000440290930903909145029093080390918E
:1026200046029093070370E0680F711D60357105D5
:1026300009F40BCD0895462F50E0BC0187EF91E0DF
:102640000C94522CEF92FF920F931F93CF93DF9332
:1026500000D0CDB7DEB77C01CB01109217031093E9
:102660001A0300931903642F29833A83E4DF10923D
:10267000E70286E0F701A5EEB1E001900D928A95A0
:10268000E1F786E0E5EEF1E0A1EFB2E001900D9216
:102690008A95E1F72981E22F3A81F32F80E290E0D9
:1026A0002191DC01A950BE4F2C93019680349105F5
:1026B000B9F72FEF89E698E1215080409040E1F78B
:1026C00000C0000058985998509A8AB18C7F8AB9F6
:1026D0001092F6011092F50184EA8093BA001092EC
:1026E000B90088E48093B80081EC8093BC0010921C
:1026F00097030F900F90DF91CF911F910F91FF9053
:10270000EF90089580911703811109C08091BC005A
:1027100084608093BC0081E08093170378940895CF
:102720001F920F920FB60F9211242F933F934F9346
:102730005F936F937F938F939F93AF93BF93EF9329
:10274000FF938091B900887F803951F188F48037F8
:1027500021F128F4803609F18836F9F0DEC080389E
:10276000F9F0883809F4D9C0883709F0D6C015C007
:10277000803B09F498C038F4803A09F489C0883A5B
:1027800009F0CBC090C0803C09F4C5C0883C09F476
:10279000C2C0883B09F48EC0C0C01092F401BBC017
:1027A0008091F401882309F466C02091BB008091D8
:1027B000F5019091F6018E3F910529F4233019F42B
:1027C00081E0809397038091F5019091F601803F1D
:1027D000910589F4253511F02A3A69F4109218030D
:1027E00086E0E5EEF1E0A1EFB2E001900D928A956E
:1027F000E1F71092F1018091F5019091F601892B9A
:1028000091F4243681F48091F201882361F086E00E
:10281000EBEEF1E0A1EFB2E001900D928A95E1F7C5
:1028200081E08093F101809118038823E1F0A09169
:10283000F501B091F601E091F501F091F601E77034
:10284000FF27E950FD4F8081E091F501F091F601FD
:10285000E770FF27E150FD4F90818227890FA95033
:10286000BE4F8C934AC0E091F501F091F601E9501A
:10287000FE4F208342C08091BB0090E09093F60110
:102880008093F50181E08093F4011092F30143C03D
:102890006091F3018091F5019091F6019091F3011F
:1028A000891B79DE38C08091F5019091F6016BDECD
:1028B0001092F30180911803E091F501F091F60177
:1028C000E950FE4F8823B1F08081E091F501F0914D
:1028D000F601E770FF27E150FD4F2081E091F501FF
:1028E000F091F601E770FF27E950FD4F9081821BC0
:1028F000892701C080818093BB008091F501909170
:10290000F60101969093F6018093F5018091F30111
:102910008F5F8093F30185EC01C085E88093BC0054
:10292000FF91EF91BF91AF919F918F917F916F91A7
:102930005F914F913F912F910F900FBE0F901F907D
:10294000189508951092980357985F9A08950895DE
:10295000549A57989BB19BB9811105C081E090E0D2
:10296000A0E0B0E01CC081E090E0A0E0B0E04F9BB0
:102970001FC000000196A11DB11D883E23E09207F3
:10298000A105B105A1F712C000000196A11DB11D5E
:10299000811523E5920727E0A207B10539F04F9989
:1029A000F3CF883E9340A105B10511F48FEF089550
:1029B00098E080E0880F2BE02A95F1F700004F990E
:1029C00081602CE02A95F1F70000915099F780344E
:1029D00061F48FE291E00197F1F700C0000089B146
:1029E00080788093980380E4089508953AE03A95BA
:1029F000F1F700C0579A5F9828E180E093E0A0E0EB
:102A0000B9E0B7FF09C035E03A95F1F700005F9AE9
:102A100035E13A95F1F708C035E13A95F1F7000054
:102A20005F9A35E03A95F1F700005F98880F991F9B
:102A3000AA1FBB1F215029F78AE08A95F1F700C031
:102A400057985F9A81E084CF2F923F924F925F9286
:102A50006F927F928F929F92AF92BF92CF92DF92AE
:102A6000EF92FF920F931F93CF93DF93CDB7DEB713
:102A700065970FB6F894DEBF0FBECDBF10929803D6
:102A800080E066DF8D8B811102C0B0DF8D8B412C21
:102A9000512C3201D301C201A66089839A83AB8392
:102AA000BC83D301C201AA608D839E83AF83B887A4
:102AB000D301C201A96089879A87AB87BC87D301FC
:102AC000C201A5608D879E87AF87B88BD301C201F5
:102AD000A460898B9A8BAB8BBC8B73016201689469
:102AE000E3F8530142016894A1F8689460F8222445
:102AF0002A94312C9D899F3F09F4D8C09D8991115A
:102B000002C074DF8D8BA0E1AA95F1F78091780364
:102B1000863019F4B301A2012FC0823019F4B50137
:102B2000A4012AC0811103C0B701A60125C08430C9
:102B300029F449895A896B897C891EC0853029F41A
:102B40004D855E856F85788917C040E050E0BA01F9
:102B5000873029F449855A856B857C850DC0813085
:102B600029F44D815E816F81788506C0833021F420
:102B700049815A816B817C818091760384FD6061FB
:102B800087FD606286FD606481FD02C0606802C0EE
:102B90006068716080FD726083FD746082FD7860A2
:102BA00085FD70618091790390917A038101091B01
:102BB0001109222717FD2095322F182B042B152BD6
:102BC000262B372B40917B0350E060E070E0809132
:102BD0007C03F101E81BF109CF01AA2797FDA0951D
:102BE000BA2FF0914D03742F662755274427E091A3
:102BF0004E034E2B5F2BDC0199278827482B592B3E
:102C00006A2B7B2B579A5F9880E237FF09C0F5E06B
:102C1000FA95F1F700005F9A95E19A95F1F708C0EF
:102C2000A5E1AA95F1F700005F9AB5E0BA95F1F732
:102C300000005F98000F111F221F331F815029F7DA
:102C400080E277FF09C0E5E0EA95F1F700005F9ABE
:102C5000F5E1FA95F1F708C095E19A95F1F70000D2
:102C60005F9AA5E0AA95F1F700005F98440F551F01
:102C7000661F771F815029F7BD89B13469F480E15F
:102C8000E5E1EA95F1F700005F9AF5E0FA95F1F7D2
:102C900000005F988150A1F785E08A95F1F7000068
:102CA00057985F9A81E054DE8D8B24CF80919803F2
:102CB000882319F090934F0302C010924F0365963A
:102CC0000FB6F894DEBF0FBECDBFDF91CF911F913D
:102CD0000F91FF90EF90DF90CF90BF90AF909F90BB
:102CE0008F907F906F905F904F903F902F900895BE
:102CF00080E02EDE99B120E12A95F1F7811106C01E
:102D00004F9B04C097FD02C081E1089580E00895C3
:102D10008AE391E00895089510929C0310929B031A
:102D200057985F9A0895089520E22A95F1F7579AE7
:102D30005F9894E09A95F1F7000098E087FF05C04E
:102D40005F9A2DE02A95F1F708C029E02A95F1F75E
:102D500000005F9A24E02A95F1F700005F98880F41
:102D600024E02A95F1F7915049F784E08A95F1F72C
:102D700057985F9A08953AE03A95F1F700C0579A4C
:102D80005F9884E08A95F1F7000020E180E095E00B
:102D900097FF05C05F9A3DE03A95F1F708C039E02A
:102DA0003A95F1F700005F9A34E03A95F1F70000A8
:102DB0005F98880F991F34E03A95F1F7215041F759
:102DC00028E081E090E087FF05C05F9A3DE03A95FA
:102DD000F1F708C039E03A95F1F700005F9A34E066
:102DE0003A95F1F700005F98880F991F34E03A9503
:102DF000F1F7215041F784E08A95F1F757985F9AEF
:102E0000089557989BB19BB98F3F19F44F99FECF06
:102E100014C041E050E060E070E08130A9F44F9BC5
:102E200010C000004F5F5F4F6F4F7F4F403D37E056
:102E300053076105710599F704C041E050E060E077
:102E400070E028E090E026C08230D9F44F9BF9CFA3
:102E500000004F5F5F4F6F4F7F4F403990ED590734
:102E600093E06907710591F7ECCF00004F5F5F4F6A
:102E70006F4F7F4F403930ED530733E063077105E3
:102E800001F34F99F2CFDDCF3AE03A95F1F700C068
:102E9000215041F0990F39E03A95F1F74F9BF4CF6B
:102EA0009160F2CF811107C040325E446105710527
:102EB00089F0892F0895813031F4403D57406105F4
:102EC0007105B9F707C08230A1F74039504D634012
:102ED000710579F78EEF089582E093DF9AE19A9574
:102EE000F1F700C099B1813031F4892F80788038B2
:102EF00011F483E2089580E008958091910388237E
:102F000009F49CC08091940331E0833209F030E0F1
:102F100091E0803109F090E0392B91E08F3209F097
:102F200090E0932B31E0813409F030E0392B21E03F
:102F3000893709F020E0232B91E0382F3F7D33358E
:102F400009F090E0922B21F48B7F8B3109F048C07F
:102F500080917603982F9C709C3021F4806180933F
:102F600076033EC082FF04C08B7F80937603089572
:102F700083FF36C0982F977F9093760380917803D4
:102F8000863011F4946013C0823021F4809177036D
:102F900082601BC0811104C080917703816015C0DD
:102FA000843011F4986003C0873021F495609093C9
:102FB000760341C0853021F4809177038C6005C091
:102FC000813031F48091770383608093770333C03D
:102FD000833089F5809176038A60809376032BC0D5
:102FE000809178038630B9F08230E1F0811103C01E
:102FF00010927A0320C0843021F48FEF80937A03FB
:103000001AC0873019F410927A0305C0853031F464
:103010008FEF80937A03109279030DC0813021F4F1
:1030200010927A038FEF05C0833029F48FEF8093DD
:103030007A03809379038FEF809378030895DF926A
:10304000EF92FF920F931F93CF93DF931F92CDB711
:10305000DEB78BB18F7C8BB925E32A95F1F70000A1
:103060008FEFEFECEE2EFFE2DF2E1FE70FEFFF24D6
:10307000F39420ED37E090E049B1440F440B9F5F9B
:103080009423215031092115310509F403C29530EB
:1030900098F310929A031092990310929E03109243
:1030A0009D0389832ADF909178038981963031F4DA
:1030B0002091990330919A03326037C0923031F4F5
:1030C0002091990330919A0331602FC0911106C06D
:1030D0002091990330919A03386027C0943031F4DD
:1030E0002091990330919A0334601FC0953031F4D8
:1030F0002091990330919A03366017C0973031F4CC
:103100002091990330919A033A600FC0913031F4C5
:103110002091990330919A03396007C0933049F4A4
:103120002091990330919A03356030939A0320934C
:1031300099039091760394FF09C0209199033091EF
:103140009A03306230939A032093990397FF09C042
:103150002091990330919A03206130939A03209330
:10316000990396FF09C02091990330919A03206238
:1031700030939A03209399034091770340FD04C054
:1031800020917C03243648F42091990330919A03CE
:10319000286030939A032093990393FD04C02091F3
:1031A0007C03273948F02091990330919A032460D9
:1031B00030939A032093990392FD04C020917B03DE
:1031C000243648F42091990330919A032260309379
:1031D0009A032093990341FD04C020917B03273972
:1031E00048F02091990330919A03216030939A031B
:1031F0002093990391FF09C02091990330919A037C
:10320000306830939A032093990390FF09C020916E
:10321000990330919A03306430939A032093990371
:1032200095FF09C02091990330919A033061309342
:103230009A032093990390917903903D10F0E092C6
:103240007903909179039F3210F4D0927903909191
:103250007A03903D10F0E0927A0390917A039F32C6
:1032600010F4D0927A0320917903205830E0322F65
:10327000222790917A03412F491B242B30939E03E0
:1032800020939D03BEDD813009F051C08AE08A950C
:10329000F1F700C0579A5F9894E09A95F1F7000013
:1032A00020E18091990390919A0397FF05C05F9A5E
:1032B000EDE0EA95F1F708C0F9E0FA95F1F700C002
:1032C0005F9A34E03A95F1F700005F988091990396
:1032D00090919A03880F991F90939A038093990372
:1032E0002150F9F620E180919D0390919E0397FF74
:1032F00005C05F9A4DE04A95F1F708C089E08A95CC
:10330000F1F700C05F9A94E09A95F1F700005F989A
:1033100080919D0390919E03880F991F90939E0327
:1033200080939D032150F9F600C000C084C0811134
:1033300003C021DD81E09DCE8F3F49F40F90DF91E6
:10334000CF911F910F91FF90EF90DF9014CD8230BD
:1033500009F075C0E3E0F1E03197F1F700C000003B
:1033600080919B03882309F452C0FAE2FA95F1F7A1
:1033700000C0579A5F9822E02A95F1F7000080E09C
:1033800091E020E827FF0AC032E03A95F1F700000B
:103390005F9A4DE04A95F1F7000008C0E8E0EA9531
:1033A000F1F700C05F9AF5E0FA95F1F75F9826957E
:1033B00029F032E03A95F1F700C001C020E801970A
:1033C000009701F700C000C0000088E098EB97FF6D
:1033D00005C05F9A4DE04A95F1F708C0E9E0EA952B
:1033E000F1F700005F9AF4E0FA95F1F700005F98BA
:1033F000990F24E02A95F1F7815049F734E03A9586
:10340000F1F7000057985F9A10929B0393CF40E228
:103410004A95F1F7579A80E191E05F9AE4E0EA95E6
:10342000F1F75F98FCE0FA95F1F701970097A9F79B
:1034300025E02A95F1F7000057985F9A7BCF8330FB
:1034400031F587EF90E00197F1F700C0000080E0D0
:10345000D8DCE8EDFFE03197F1F7803821F4F09205
:103460009B0388EB12C08E3F11F481EE0EC08B31AE
:1034700011F480E00AC0813021F400934F038BEEF9
:1034800004C0811157CF10924F034EDC53CF8E3FB3
:1034900009F050CF0F90DF91CF911F910F91FF90C6
:1034A000EF90DF90089584E491E0089508958AB143
:1034B0008C708AB98BB1836F8BB983EF80931B03B8
:1034C00080931C0380931D0380931E0380931F032E
:1034D00046983E9888E08093810082E080936F0058
:1034E0008FEF91E0909389008093880010922103E0
:1034F00010922003109250030895B19A1092850003
:103500001092840010928100F894089589B1837F0D
:10351000833F09F008958FEF9CE7369B09C0369BE7
:103520000AC001970097D9F7F5CF0197009791F35B
:10353000369BFBCF0EC089B1837F833F59F780E56F
:103540008A95F1F789B1837F833F21F736990EC0C1
:10355000E1CF89B1837F833FE9F680E58A95F1F772
:1035600089B1837F833FB1F63699D4CF85E2089540
:10357000109250039091810095609093810078940F
:103580001092850010928400813031F4862FF82F3C
:103590003699FECFFBB905C0862FF82F369BFECF9C
:1035A000FBB9B19A109285001092840010928100AC
:1035B000F89480915003882369F03E988AE68A95B2
:1035C000F1F700C0369903C08BB18F7302C08BB185
:1035D000836F8BB98091500308958AB1836F8AB944
:1035E00083EF80931B0380931C0380931D038093C0
:1035F0001E0380931F038091760385FF03C092EF23
:1036000090931F0380FF05C090911F039D7F9093AF
:103610001F0390911F039F7390931F0387FF03C0A5
:1036200092EF90931E0381FF05C080911E038D7F52
:1036300080931E030E948A09809178039FEF980F60
:10364000933078F490911B03906890931B039091B2
:103650001F039F7790931F0390911E039F77909372
:103660001E039BEF980F933090F490911B0390648E
:1036700090931B0390911F039F7B90931F03909146
:103680001E039F7B90931E03873099F402C0811123
:1036900010C090911B03906190931B0390911F03A6
:1036A0009F7E90931F0390911E039F7E90931E0315
:1036B00002C0813071F38350833078F480911B0312
:1036C000806280931B0380911F038F7D80931F0373
:1036D00080911E038F7D80931E038091760386FF69
:1036E00005C090911C039F7E90931C0383FF05C02F
:1036F00090911C039F7D90931C0382FF05C09091C5
:103700001C039F7B90931C0384FF05C080911C03C6
:103710008F7780931C0336990AC060911E0380E066
:1037200027DF81110DC060911F0381E008C0609107
:103730001F0381E01DDF811103C060911E0318CFBC
:1037400008954BCF8EE491E00895089510922203DE
:1037500081E080932303579856988AB18F7C8AB969
:103760003E985E9A5F9A8BB180638BB9469A0895B2
:1037700008954E9BFECF8FEC97E00197F1F700C0C4
:1037800000004F9B14C04E9912C04E9BFECF4F9924
:10379000FECF8FE891E00197F1F700C000004F9B4A
:1037A00002C080E001C08FE24F9903C0089580E01D
:1037B000089581E20895CF93559A549A3E9A809144
:1037C0007303813211F08F3219F40E948A094EC0BE
:1037D0008F3109F04BC090917A03809179039E3428
:1037E00020F48E3440F487E01EC0933B60F08E34AA
:1037F00030F485E018C0833B30F081E014C0833B97
:1038000010F083E010C08E3410F486E00CC0833BCF
:1038100010F082E008C09E3418F41092780305C0BE
:10382000933B18F084E08093780390917C0380911F
:103830007B039E3418F48E34E0F005C0933B40F0D7
:103840008E34D0F003C0833B18F502C0833BB8F43C
:103850008E34C0F0833BC8F49E34D0F041E080E069
:10386000933B08F440E0242F382F14C020E030E0D0
:1038700011C022E230E00EC023E030E00BC021E1B5
:1038800030E008C022E030E005C020E130E002C0B6
:1038900020E330E080917803811102C020611BC0D9
:1038A000843011F4206217C0863011F4206413C0F4
:1038B000823011F420680FC0873011F420650BC0EE
:1038C000853011F4206607C0813011F4206903C0EF
:1038D000833009F4206A8091760385FD286084FD99
:1038E000246090917303913299F581FD216080FDF0
:1038F000226040917D0341110FC040917E03411130
:103900000BC0909191039111EDC04091790350E06B
:103910004115510509F4E8C0837061E070E011F0D1
:1039200060E070E071956195710981EE841B880FEC
:10393000811D482F81FB47F982FB46F983FB45F93E
:1039400085FB43F986FB42F987FB41F950E0CEC085
:103950009F31B1F480FD306181FD3062482F4470A9
:1039600082FD2260982F987083FD216041113260A2
:103970009111316086FD346087FD3860306CB2C0D3
:103980009F3209F0AFC080FD216082FD226083FD7F
:10399000316081FD326086FD346087FF02C038608F
:1039A000A1C090912303809191039430A1F18111E2
:1039B00005C0809122038F5F8093220380912203B0
:1039C0008333F0F08091790390E00B97B4F4809109
:1039D0007B0390E00B978CF480917A0390E00B9737
:1039E00064F480917C0390E00B973CF480917D031C
:1039F000811103C080917E038111306810922203EF
:103A000094E69093270380EA8093260390932503FE
:103A10008093240367C03068882351F081E080934D
:103A200023033F778FE39CE90197F1F700C0000083
:103A300060917D03E09176038091940361112DC024
:103A400060917E03611129C0E6FD02C0853429F42E
:103A500080E880937C0380937B03E7FF05C080E8C8
:103A600080937A03809379037091790360917B034B
:103A7000472F50E0862F90E0481759070CF0672F2A
:103A8000F0917A0370917C034F2F50E0872F90E0E4
:103A9000481759071CF07F2F01C070E8809126035A
:103AA000871710F47093260380912703781710F47A
:103AB0007093270380912403861710F460932403E6
:103AC00080912503681710F46093250370932803F1
:103AD000609329032227307F8E2F8F7009F0326088
:103AE000E5FD316040E050E060E070E0A0917303DC
:103AF000AF3221F0AF3111F0B8E001C0B0E18FE09A
:103B000094EA4E9904C001970097D9F73DC08BB154
:103B100080638BB9C0E0E1E0F0E0CF018223932322
:103B2000892B11F05D9801C05D9ACF018623972300
:103B3000892B11F05C9801C05C9ACF0184239523F6
:103B4000892B11F0469801C0469AEE0FFF1FA13253
:103B500039F488EB9BE00197A1F04F99FCCF0BC0A3
:103B6000AF3119F44F99FECF06C0AF3221F44F990F
:103B7000FECF4F9BFECFCF5FCB1778F2A13209F477
:103B8000C6CF5D985C98469887EC90E00197F1F776
:103B900000C00000CF91089588E591E00895089550
:103BA0005198599A3E98469A509A10922B03109227
:103BB0002A030895089570E090E06115710569F198
:103BC0009B0128233923232B11F0589A0AC05898B7
:103BD00008C0369917C02F5F3F4F30936D01209377
:103BE0006C0120916C0130916D01283840E9340757
:103BF00080F308C0369B0EC02F5F3F4F30936D019E
:103C000020936C0120916C0130916D01283840E9BE
:103C1000340780F376956795D0CF58980895DF9252
:103C2000EF92FF920F931F93CF93DF93D09079037E
:103C3000E0907A03F0907E0380919103882329F02D
:103C400010922B0310922A030AC08EEC8D0D873937
:103C500030F081E090E090932B0380932A038091D1
:103C60002A0390912B0320917803309176034091A1
:103C70007703019741F5243049F0222351F0223097
:103C800059F0263061F000E010E00BC000E014E0D5
:103C900008C000E018E005C000E012E002C000E04B
:103CA00011E030FD106431FD106136FD106837FD04
:103CB000106135FD006834FD006441FD006140FF86
:103CC00037C0006235C0253009F404C1273009F43B
:103CD00004C1213059F02330B1F02430B9F0C0E0F4
:103CE000D0E8211106C0C0E0D8E812C0C0E0D4E995
:103CF0000FC0223019F4C0E0D4E80AC0263041F4E5
:103D0000C0E0D2E805C0C0E0D2E902C0C0E0D0E91E
:103D100030FDD16031FDC06837FDC06435FDC06243
:103D200034FDC06141FDC86040FF04C0C46002C0F2
:103D3000CBE7D1E020ED37E080E0369902C08F5F1D
:103D400001C080E090E19A95F1F7215031092115E9
:103D5000310509F4C5C0853080F3509A20916C017B
:103D600030916D01283880E9380748F4369913C03E
:103D70002F5F3F4F30936D0120936C01EFCF2838B8
:103D8000304949F4ADC0369B0EC02F5F3F4F309392
:103D90006D0120936C0120916C0130916D012838E8
:103DA00080E9380780F380912A0390912B030197D3
:103DB00011F458980AC0589A08C036990EC02F5F5F
:103DC0003F4F30936D0120936C0120916C01309135
:103DD0006D01283890E9390780F381E090E09093F5
:103DE0006D0180936C01D7FF02C0589A01C05898AA
:103DF00085E18A95F1F7000036996AC060E48D2F5D
:103E0000DADE60E88C2FD7DE20912A0330912B0375
:103E1000232B09F45DC060E888E0CDDE60E88D2DDD
:103E2000CADE82E020916C0130916D01283890E962
:103E3000390788F436990FC02F5F3F4F30936D01DB
:103E400020936C01EFCF369B0EC02F5F3F4F309316
:103E50006D0120936C0120916C0130916D01283827
:103E600090E9390780F38150E9F660E88E2DA3DEF2
:103E700082E020916C0130916D01283890E939077A
:103E800088F436990FC02F5F3F4F30936D01209318
:103E90006C01EFCF369B0EC02F5F3F4F30936D010B
:103EA00020936C0120916C0130916D01283890E9CC
:103EB000390780F38150E9F660E88F2D7CDE68E0F9
:103EC00082E079DE60E8812F76DE60E8802F73DEA5
:103ED000589A06C0C0E0D2EA1BCFC0E0D4EA18CF9F
:103EE000DF91CF911F910F91FF90EF90DF90089598
:103EF00081E090E090936D0180936C0180916C0162
:103F000090916D01883820E9920720F4369907C016
:103F10000196F0CF8838904911F480E0089587E940
:103F200098E00197F1F700C000003699F6CF81E0E4
:103F300090E090936D0180936C0180916C01909161
:103F40006D01883820E9920720F4369905C0019662
:103F5000F0CF8838904909F3499BDFCF8FED9EE27F
:103F60000197F1F700C000004F9BD7CF8BE2089577
:103F700082E691E0089508951092A00310929F03A5
:103F80000895089583B18E3F59F481E090E09093B5
:103F9000A00380939F0390932D0380932C030FC065
:103FA00083B18C3F59F481E090E09093A00380931B
:103FB0009F0310922D0310922C0301C0089581E3FA
:103FC00008950E948A0980917803843081F08230BC
:103FD00081F0882381F0863081F0873081F0853050
:103FE00081F0813081F0833081F020E00FC020E447
:103FF0000DC020E10BC020E809C020E207C020EA84
:1040000005C020E603C020E901C020E54091760309
:10401000642F617040FD02C050E001C050E4809107
:104020009F039091A003342F32708130910571F479
:1040300061112160311122603091890332FD206CC1
:1040400044FD206345FF1DC0206E1BC0611121602F
:104050003111226042FD02C030E001C030E843FD72
:10406000306446FD306247FD30614091770340FD8A
:10407000386041FD346046FD326047FF03C0316067
:1040800001C030E0EBB178B165B1009709F499C097
:10409000422F4095E36F4E23019719F483E0842764
:1040A00001C0842F8BB980912C0390912D03892B13
:1040B00009F068C040917D0341110DC080917E03DD
:1040C000811109C080919103811157C080917603BD
:1040D000807F09F452C08AB1816F8AB93E9A80917B
:1040E000760380FF02C0469801C0469A411126C05F
:1040F00040917E03411122C08091910381111EC025
:1041000080917603807FD1F05091790340917B03B9
:10411000252F30E02058310937FF03C03195219514
:104120003109842F90E08058910997FF03C0919541
:1041300081959109281739070CF0452F40FB87F925
:1041400041FB86F942FB85F943FB84F9042E04FA0E
:1041500047F905FA46F906FA45F907FA44F9589A73
:10416000807F8BB983ED90E00197F1F700C00000EC
:104170005898407F41604BB908958BB183608BB9EB
:1041800021FD5898852F8095972F9064892388B9B1
:10419000832F8095962F9E6F892385B980919F03E9
:1041A0009091A003019709F423602AB980912C0310
:1041B00090912D03892B19F48AB183608AB957B97C
:1041C00034B908958EE691E0089508950895109207
:1041D000350310922F033E9A469A8AB1806F8AB9AE
:1041E0008BB18FEF8BB91092370382E08093360347
:1041F00010922E0308958FEC8BB989B183708330B0
:1042000011F580E090E029B12370213029F001966A
:1042100081152AEF9207B9F72FEF2BB981159A4F25
:1042200091F020E030E089B18370813031F42F5F6C
:104230003F4F21158AEF3807B1F78FEC8BB981E03A
:1042400021153A4F09F480E008953E9A46988AE392
:104250008A95F1F700C0469ACEDF882359F08FE3A4
:104260009CE90197F1F700C00000C5DF89B18370B8
:1042700019F0089580E0089585E0089599B193704C
:10428000E9F7982F9F609BB9469899B19370913048
:10429000E1F720E1829FC00111248F608BB9469A1B
:1042A00008951F93CF93DF93279A2F982F9A809189
:1042B0007803853089F0873091F0813099F0833030
:1042C000A1F08823A9F08430B1F08630B9F08230B3
:1042D000C1F0CFEFDFEF17C0CFE9DFEF14C0CFEAB7
:1042E000DFEF11C0CFE6DFEF0EC0CFE5DFEF0BC091
:1042F000CFEEDFEF08C0CFEDDFEF05C0CFEBDFEF94
:1043000002C0CFE7DFEF90917603692F627091FDD5
:10431000CE7F97FF05C0811102C0DF7701C0CD7F3E
:1043200090FDCB7F95FDC77FE92FE07496FF05C018
:10433000811102C0D77F01C0DF7E93FDDF7D792F21
:10434000747092FDDF7B2091770321FDDF7720FDE4
:10435000D77F2091940331E0293709F030E051E014
:10436000233209F050E041E0203109F040E0452BD4
:1043700051E02F3209F050E0452B51E0213409F093
:1043800050E0452B432B51E0F22FFF7DF33509F030
:1043900050E0452B21F4422F4B7F4B31A1F4492FA4
:1043A0004F704F3081F4882321F040917A034233DB
:1043B00020F441E040932E0306C0843011F04B3AC4
:1043C00010F010922E0340912E03442309F446C0AE
:1043D0009E0122273071CE0182709927AE01417073
:1043E0005527C2FF03C0C560D06103C0CE7FC46043
:1043F000D061452B09F4DF7E232B09F4D77F892B6D
:1044000009F4DF77809179038E3410F4CF7B0DC0EF
:10441000833B10F0CF7709C080917A038E3410F47B
:10442000CF7E03C0833B08F0CF7D80917B038E3429
:1044300010F4DF7B0DC0833B10F0DF7E09C080915C
:104440007C038E3410F4DF7D03C0833B08F0CE7F05
:104450008FE18BB989B18370E9F75FC04091350373
:10446000413009F448C010922F03253451F0203414
:1044700031F02A3079F4EE2321F0CE7F02C07111A1
:10448000D77F1092350322E02093370323E0209357
:10449000360321C040917D03442391F0233711F06E
:1044A000332371F06111CB7F23E02093360322E0A8
:1044B000209337032093350321E020932F030BC073
:1044C000209179032253273930F026E020933603D8
:1044D00021E020933703843071F49378933859F4B2
:1044E00082E08093370383E08093360381E08093FA
:1044F000350380932F0380919103882349F0109214
:10450000370382E0809336031092350310922F0315
:104510008FE18BB989B18370E9F7109136038091EF
:10452000370320E1829FC0011124812BA7DE1330C5
:1045300009F078C0C095D09580913503823019F488
:1045400020917D0307C0833019F420917E0302C0BF
:1045500020917903822F90E030913403831B9109DD
:104560002093340397FD02C0CF7E01C0C06130911B
:10457000940340912F03343471F0442361F0283CBC
:1045800020F0CF7E88E39FEF13C0213420F4C06178
:1045900088EC90E00DC09C012A513F4F2D3C3140EA
:1045A00038F0CF7E8091320384FDC0618091310369
:1045B00091E0980F909379038093310320917A03CF
:1045C000822F90E030913303831B910920933303B2
:1045D0001816190614F4C06201C0CF7D442361F09F
:1045E000283C20F0C06282E390E013C0213420F424
:1045F000CF7D8EEC9FEF0DC09C0126503F4F253F95
:10460000314038F0CF7D8091320385FDC0628091CA
:104610003003982F919590937A0380933003CF7352
:10462000C09332038C2F2ADE1330E1F4809179039A
:1046300025DE80917A0322DE153040F080917F03E1
:104640001DDE153019F08091800318DE81E016DE42
:1046500087EC90E00197F1F700C00000DF91CF9167
:104660001F9108958D2F0ADE133080F3DFCF88E786
:1046700091E0089508958AB1836F8AB988E08093A4
:10468000810082E080936F00E8E8F0E08FEF91E036
:10469000918380838FEF808381E0809389000895E8
:1046A000B19A109285001092840010928100F894C3
:1046B00008953E9A469825E72A95F1F70000469A14
:1046C0001C9903C080E28A95F1F780E090E01C9B82
:1046D0000BC0019681152AEF9207C9F712C0019607
:1046E00081152AEF920769F01C9BF9CF1D9908C02C
:1046F0008FE99FE00197F1F700C0000085E1089580
:10470000089508950E948A099091760395FD02C04C
:104710003FEF01C03DEF97FD3F77809178038230F6
:1047200011F43F7B1BC0863011F43F7D17C08430ED
:1047300011F43F7E13C0811102C03E7F0FC087304D
:1047400011F43E7D0BC0853011F43F7C07C08130F1
:1047500011F43E7B03C0833009F43F7A91FD02C01F
:104760002FEF01C02FE780917703F82FF17080FDC4
:104770002F7B83FD2F7D86FD2F7E6091890361FD58
:104780002E7F90FD02C05FEF01C05FE7E82FE2706F
:1047900081FD5F7B84FD5F7D87FD5F7E62FD5E7FC7
:1047A00094FD02C04FEF01C04FE782FD4F7B85FDB6
:1047B0004F7D60FD4F7E63FD4E7F8091730371E0FE
:1047C000823309F070E061E0853209F060E0762B19
:1047D00061E0A82FAD7FA93209F060E0762B692F48
:1047E0006074711103C08F7E853071F4F1112F7DDB
:1047F0002064E1114F7D61114F7E93FD5F7E506417
:1048000092FF06C02F7E04C061112F7D97FD4F7D62
:104810001F9B04C01C9B04C080E003C081E001C05A
:1048200082E090918100956090938100789410923D
:10483000850010928400813029F08230A1F080E060
:1048400090E029C01F9BFECF8091500381114FC083
:104850003BB91C9BFECF2BB91D9BFECF5BB91E9BAA
:10486000FECF4BB944C01C9BFECF809150038111F9
:104870003EC02BB91D9BFECF5BB91E9BFECF4BB933
:104880001F9BFECF3BB91C9BFECF31C0019681150B
:104890006AEF9607B1F11C99F9CF6091500361114D
:1048A00026C03BB91C9906C0019681153AEF9307C3
:1048B000C9F727C02BB91D9906C0019681156AEF6B
:1048C0009607C9F71EC05BB91E9906C001968115EF
:1048D0002AEF9207C9F715C04BB91F9906C0019678
:1048E00081153AEF9307C9F70CC083EF8BB9B19AE2
:1048F000109285001092840010928100F89410921A
:104900005003089582E891E0089508958AB181677F
:104910008AB908950895803124EA920720F44F99C6
:1049200006C00196F8CF803124EA920739F028E0DA
:104930002A95F1F7369B02C04F9905C080E0089593
:10494000369B09C00196803124EA9207C8F3803172
:1049500024EA920799F34F9BF1CF03C04F9B08C005
:104960000196803124EA9207C8F38031944A31F3EA
:1049700096B1892F807496FDE1CF4F9B87E2089511
:10498000CF93DF930E948A093091760335FD02C0F0
:104990009FEF01C09FEE20917803223009F46AC096
:1049A000263009F469C0243049F0222389F02730E9
:1049B00089F08FEF253021F48FEA0DC08FEB0BC00B
:1049C000213011F48EED07C0233029F48EEB03C0A3
:1049D0008FED01C08FEC31FD9F7D30FD9E7F34FD5A
:1049E0009F7B232F2C7C69F037FD02C02FEF01C085
:1049F0002FED33FD2F7E32FD2F7B36FF07C02E7F3C
:104A000005C0292F382F9FEF8FEF05C03EE803C068
:104A1000369905C02196C03144EAD407C8F33BB9A2
:104A200003C04F9B05C02196C03144EAD407C8F3A8
:104A30002BB93E3841F084EF91E0369906C00197DA
:104A40000097D9F702C0292F382F80E090E03699DF
:104A500005C00196843F41E09407C9F73BB94F9BDD
:104A600005C00196803134EA9307C8F32BB9DF9172
:104A7000CF9108958EEFAFCF8FEEADCF8CE891E060
:104A80000895089584B18FEF84B9089508958BE156
:104A90000895CF93EDEBF1E020E030E0C0E0DC01E1
:104AA000022E02C0B595A7950A94E2F7AB01022E3B
:104AB00002C0559547950A94E2F7181619063CF47A
:104AC0006A0F7B1F841B950B4081C40F06C06A1BB5
:104AD0007B0B840F951F4081C41B2F5F3F4F319686
:104AE00025303105E1F68C2FCF910895CF93DF93D8
:104AF000D0917903D058C0917A03C0586D2F772791
:104B000067FD709577FF03C07195619571098C2FD2
:104B1000992787FD90956333710564F49C0197FF95
:104B200004C022273327281B390B2333310514F403
:104B30008FEF68C097FF03C0919581959109A9DF18
:104B400090E0D7FD1FC01C1674F48B3091050CF457
:104B500044C081329105DCF188339105D4F18E3463
:104B60009105CCF12EC0CC2319F38B309105ACF11B
:104B700081329105A4F1883391059CF18E34910521
:104B800094F10EC0C7FF11C08B309105A4F18132A2
:104B900091055CF18833910554F18E3491054CF107
:104BA0008A3591052CF68FEB2DC08B3091051CF1C9
:104BB0008132910514F1883391050CF18E34910501
:104BC00004F18A3591050CF0B3CF8FEE1BC08EED4A
:104BD00019C08EEC17C08FEC15C08FED13C08FE994
:104BE00011C08EE90FC08EEB0DC08EE70BC08EE3B7
:104BF00009C08FE307C08FE705C08FE603C08EE6CC
:104C000001C08EEE90917803209176039F3F01F1D1
:104C1000943011F48F7E3CC0923011F48F7D38C0F7
:104C2000911102C08F7B34C0963011F48F7730C061
:104C3000973011F48E732CC0953011F48E7628C005
:104C4000913011F48E7924C0933011F58E7C20C000
:104C50009091770390FD877E91FD8B7E92FD8D7EF6
:104C600093FD877D94FD8B7D95FD8D7D96FD877BE6
:104C700097FD8B7B9091890390FD8D7B91FD01C009
:104C800024FD877792FD8B7793FD01C025FD8D77FD
:104C900020FD897F21FD857F22FD01C027FD837FC7
:104CA00085B9DF91CF91089586E991E0089508953F
:104CB00010923F0310923E038FEF85B98BB98FE0BE
:104CC00084B93E988AB180638AB98AB18F738AB9F0
:104CD000089508958FEF80933B0380933A03809368
:104CE00039038093380310923D0310923C03809166
:104CF000770380FF03C09DEF90933A0381FF03C0C9
:104D00009DEF9093390382FF03C09DEF909338038A
:104D100083FF05C090913A039B7F90933A0384FFF1
:104D200005C0909139039B7F9093390385FF05C09F
:104D3000909138039B7F9093380386FF05C0909134
:104D40003A03977F90933A0387FF05C08091390318
:104D5000877F809339038091890380FF05C09091FC
:104D60003803977F9093380381FF05C090913A03F1
:104D70009E7F90933A0382FF05C0909139039E7FF6
:104D80009093390383FF05C0809138038E7F809311
:104D900038038091760384FF03C09DEF90933B031B
:104DA00085FF05C090913B039B7F90933B0382FF5F
:104DB00005C090913B03977F90933B0380FF02C017
:104DC0005C9801C05C9A8091760381FF02C05D9877
:104DD00001C05D9A40917D03411104C080917E0322
:104DE000882369F08091760380FF09C05D9807C031
:104DF0004E9B11C0019690933D0380933C0380919C
:104E00003C0390913D03883622E4920788F388366C
:104E1000924409F425C110923D0310923C031C9B5F
:104E200017C080913C0390913D03853FF1E09F07BF
:104E300010F0589A6BC0019690933D0380933C0309
:104E4000EECF1C9B0DC0019690933D0380933C03D5
:104E500080913C0390913D03883622E4920788F3C9
:104E600080913B0385B980913C0390913D03883646
:104E7000E2E49E0740F41D9B06C0019690933D031B
:104E800080933C03F0CF80913A0385B980913C0335
:104E900090913D038836F2E49F0740F41E9B06C0C4
:104EA000019690933D0380933C03F0CF80913903AA
:104EB00085B980913C0390913D03883622E49207A6
:104EC00040F41F9B06C0019690933D0380933C03E2
:104ED000F0CF8091380385B980913C0390913D03D8
:104EE0008836E2E49E0740F41C9B06C0019690932E
:104EF0003D0380933C03F0CF8FEF85B907C04E99F7
:104F00000DC0019690933D0380933C0380913C0338
:104F100090913D038836F2E49F0788F38AB1806C54
:104F20008AB98BB18F738BB98AB1806C8AB9509171
:104F30007A0360917C03252F30E02058310937FF38
:104F400003C0319521953109862F90E08058910951
:104F500097FF03C0919581959109281739070CF0A7
:104F6000652F442309F1242F30E080913E03909176
:104F70003F03A901481B590B7AE0749FC001759F3C
:104F8000900D112430933F0320933E038038910508
:104F90007CF59C012F5F3F4F2330310568F181384C
:104FA0002FEF92073CF129C020917E03222341F18B
:104FB00030E080913E0390913F03A901481B590BBB
:104FC0007AE0749FC001759F900D112430933F03C8
:104FD00020933E03803891055CF48138EFEF9E0703
:104FE0004CF09C012F5F3F4F2330310528F005C066
:104FF0008FE703C081E801C080E040E8480F1AC095
:105000005091790340917B03252F30E020583109DE
:1050100037FF03C0319521953109842F90E08058E6
:10502000910997FF03C09195819591092817390738
:105030000CF0452F90E0941708F05F9A961708F04F
:105040005E9AEBEDF0E03197F1F700C000009F5F52
:105050009F3F89F78BB1806C8BB98AB18F738AB906
:1050600008958FE193E00197F1F700C000001092DE
:105070003D0310923C0380913C0390913D038836A0
:1050800022E4920778F41C9B0DC0019690933D0397
:1050900080933C03F0CF1D9B15C0019690933D0378
:1050A00080933C0380913C0390913D03883622E439
:1050B000920788F307C01E9B15C0019690933D038D
:1050C00080933C0380913C0390913D03883622E419
:1050D000920788F307C01F9B12C0019690933D036F
:1050E00080933C0380913C0390913D03883622E4F9
:1050F000920788F38836924411F480E008958BE09B
:10510000089580EA91E0089508950895E3E0FDE0B0
:105110003197F1F700C000005F9AE3E0FDE03197BE
:10512000F1F700C0000020E030E090E0AC01022E7A
:1051300002C0559547950A94E2F740FF02C05F9878
:1051400001C05F9AE3E0FDE03197F1F700C0000095
:105150002F5F3F4F2730310549F75F9883E09DE08F
:105160000197F1F700C00000E3E0FDE03197F1F7AF
:1051700000C000005F980895CF93DF93709176038D
:1051800075FF09C08091A403823011F48AE001C048
:1051900082E08093A40380917803E0917A03F091F8
:1051A0007903811105C060E88091A403681B05C0E4
:1051B000843029F46091A403605890E881C086305F
:1051C00029F490E88091A403981B05C0823029F44B
:1051D0009091A403905860E873C0873029F490E858
:1051E0008091A403981B16C0853039F48091A403E4
:1051F00060E8680F90E8981B63C0813031F49091AB
:10520000A40360E8691B90585BC0833029F4909137
:10521000A4039058692F54C060917C034E2F50E036
:105220004058510957FF03C0519541955109262F08
:1052300030E02058310937FF03C0319521953109FD
:10524000421753070CF06E2F90917B034F2F50E0C5
:105250004058510957FF03C0519541955109292FD5
:1052600030E02058310937FF03C0319521953109CD
:10527000421753070CF09F2F89E8890F833108F4F8
:1052800090E889E8860F833108F460E880917D0317
:1052900081110CC080917E03811108C0809194031C
:1052A000853421F0803411F08A3051F490E89F0F5A
:1052B0008091A303981B60E86E0F8091A203681B86
:1052C0007093A103F093A303E093A20370FD02C0C7
:1052D00020E401C020E571FD206276FD20E7D0E8E2
:1052E000D90FC0E8C60F3C2F3595359535953595C6
:1052F0003C708D2F8295869586958370382B832FF1
:10530000822B04DF8D2F8F7301DF8C2F8F73DF9142
:10531000CF91FCCE5598579A82E08093A4035F9872
:105320008AE18A95F1F700C05F9808954D9BFECF02
:105330008CE2ECCE8091400381112DC081E08093FE
:10534000400389B1807A29F54D9925C0EFDFEEDF62
:105350004D9BFECF8AE4DADE80E0D8DE80E0D6DE48
:1053600080E0D4DE4D99FECF4D9BFECF8AE4CEDEA9
:1053700080E0CCDE80E0CADE80E0C8DE2FEF89E688
:1053800098E1215080409040E1F700C0000082E3A6
:10539000089580E0089508958AEA91E0089580B321
:1053A000806680BB81B3806681BB089520B380B3E3
:1053B0008F7980BB9FB120BB907681E009F480E0BB
:1053C00008959FB1907651F428E632E49FB190762B
:1053D00039F42150310921153105C1F78EEF0895B7
:1053E00096E09A95F1F700C09FB19076B9F790E1F9
:1053F0009A95F1F7E1E5F3E040E0481709F4B1C010
:10540000908196959083000000007D9B03C000C0B2
:1054100000C002C09068908394E19A95F1F7908162
:1054200096959083000000007D9B03C000C000C0E3
:1054300002C09068908394E19A95F1F790819695D7
:105440009083000000007D9B03C000C000C002C02C
:105450009068908394E19A95F1F790819695908366
:10546000000000007D9B03C000C000C002C0906827
:10547000908394E19A95F1F790819695908300003E
:1054800000007D9B03C000C000C002C090689083F4
:1054900094E19A95F1F79081969590830000000031
:1054A0007D9B03C000C000C002C09068908394E15F
:1054B0009A95F1F7908196959083000000007D9B6E
:1054C00003C000C000C002C09068908394E19A9528
:1054D000F1F7908196959083000000007D9B03C0BA
:1054E00000C000C002C0906890837D9B17C020E080
:1054F00030E07D9B0BC02F5F3F4F2C3D95E039077F
:10550000C1F704C07D9906C02F5F3F4F2C3D95E049
:105510003907C1F796E09A95F1F720C020E030E016
:105520007D990BC02F5F3F4F2C3D95E03907C1F7A8
:1055300004C07D9B0BC02F5F3F4F2C3D95E039078A
:10554000C1F704C07D9906C02F5F3F4F2C3D95E009
:105550003907C1F795E09A95F1F700004F5F319652
:105560004CCF85E38A95F1F70000809151030895AF
:1055700090B39F7990BB28E632E49FB1907639F4DE
:105580002150310921153105C1F78FEF08959AE1B6
:105590009A95F1F700C090B3906690BB91B39F7954
:1055A00091BB27E02A95F1F798E08D9A2AE02A9599
:1055B000F1F700C080FD8D982AE02A95F1F700C030
:1055C0008695915091F78D9A85E08A95F1F70000C4
:1055D0008D9890E19A95F1F781B3806681BB80B395
:1055E0008F7980BB2AE12A95F1F700C080E0089509
:1055F00084EB91E00895982F973058F59093E90047
:10560000981739F07091EC002091ED005091F00066
:1056100003C0242F762F50E021FF19C03091EB00FA
:105620003E7F3093EB003091ED003D7F3093ED00F5
:105630003091EB0031603093EB007093EC002093DD
:10564000ED005093F0002091EE0027FF07C09F5F10
:10565000D3CF8F708093E90081E0089580E00895B2
:105660001CD023D08091E00081608093E000809185
:10567000D8008F778093D8008091A50382FF19BC52
:105680008091D7008E7F8093D7008091D8008F7E45
:105690008093D8001092A9030895E8EDF0E080818E
:1056A0008E7F80831092E20008951092DA001092AB
:1056B000E10008951F920F920FB60F9211242F93BD
:1056C0003F934F935F936F937F938F939F93AF938A
:1056D000BF93EF93FF938091E10082FF0AC0809116
:1056E000E20082FF06C08091E1008B7F8093E100A1
:1056F000C5D08091DA0080FF25C08091D80080FF5E
:1057000021C08091DA008E7F8093DA008091D900E9
:1057100080FF11C08091A50382FF05C081E08093C6
:10572000AA03ACD00FC080E189BD82E189BD09B474
:1057300000FEFDCFF3CF8091A50382FF19BC10922C
:10574000AA039CD08091E10080FF1BC08091E20001
:1057500080FF17C08091E2008E7F8093E2008091ED
:10576000E20080618093E2008091D80080628093A3
:10577000D8008091A50382FF19BC85E08093AA031D
:105780007DD08091E10084FF33C08091E20084FFEE
:105790002FC08091A50382FF19C08091D8008F7D12
:1057A0008093D8008091E1008F7E8093E10080910A
:1057B000E2008F7E8093E2008091E200816080931E
:1057C000E2008091A60381110DC008C080E189BD6F
:1057D00082E189BD09B400FEFDCFDFCF8091E300F7
:1057E00087FF02C084E001C081E08093AA0346D015
:1057F0008091E10083FF31C08091E20083FF2DC0E2
:105800008091E100877F8093E10082E08093AA038A
:105810001092A6038091E1008E7F8093E100809139
:10582000E2008E7F8093E2008091E20080618093AD
:10583000E2002091BC0130E088E090E040E0821777
:10584000930720F44F5F880F991FF9CF4295407F4F
:10585000426060E080E0CFDE11D0FF91EF91BF9118
:10586000AF919F918F917F916F915F914F913F91F8
:105870002F910F900FBE0F901F9018950895EE0F67
:10588000FF1F0590F491E02D0994FB01DC0104C099
:105890008D910190801921F441505040C8F7881B28
:1058A000990B0895FB01DC0102C001900D9241505B
:0A58B0005040D8F70895F894FFCF98
:1058BA00DB0B750C270CDA0BEE0B0710070FFF0E2C
:1058CA00F40EF90EE02080E02080E02080E02080C5
:1058DA0000000000E02080E02080E02080E02080BE
:1058EA00000000000000A4200101A214241578166B
:1058FA00A114A7148C161F186C178B169316571A17
:10590A00A11B861A561A7D1AA61BDB1BB91BA51BDF
:10591A00B81BD01D0F1E781FCF1DDA1D0100BC1F3A
:10592A00E11FC21FBB1FC11FE72051212521E5200E
:10593A00E6203B23822359233A2350238624C0247A
:10594A008B2485248A244225762547254125462508
:10595A0058266A263128572669268A29BC289A2970
:10596A0084288528CF29E129B82AD629082D1B0E93
:02597A00070420
:00000001FF
