:10000000C1C00000DBC00000D9C00000D7C00000A4
:10001000D5C00000D3C00000D1C00000CFC0000098
:10002000CDC00000CBC00000D5C50000C7C0000097
:10003000C5C00000C3C00000C1C00000BFC00000B8
:10004000BDC00000BBC00000B9C00000B7C00000C8
:10005000B5C00000B3C00000B1C00000AFC00000D8
:10006000ADC00000ABC00000A9C00000A7C00000E8
:10007000A5C00000A3C00000A1C000009FC00000F8
:100080009DC000009BC0000099C0000097C0000008
:1000900095C0000093C0000091C000008FC0000018
:1000A0008DC000008BC0000089C000004C086E08A5
:1000B0005E096E085E09B008D3085E09300942097E
:1000C0001A034200720069006400670065002000A6
:1000D0002D0020005700690069005500000014033E
:1000E00042006C006900730073002D0042006F0035
:1000F00078000000040309040902290001010080BE
:10010000FA090400000203000000092111010001A6
:100110002250000705020340000507058103400047
:100120000512011001000000400D0FC10072050111
:1001300002000105010905A1011500250135004551
:10014000017501950E05091901290E81029502819B
:100150000105012507463B01750495016514093920
:10016000814265009501810126FF0046FF000930AC
:100170000931093209357508950481027508950120
:100180008101C00011241FBECFEFDAE0DEBFCDBF7A
:1001900011E0A0E0B1E0E8E4F3E102C005900D92C7
:1001A000A830B107D9F721E0A8E0B1E001C01D9265
:1001B000AB35B207E1F703D00C94A20921CF80E858
:1001C000809361001092610085B7806885BF85B714
:1001D000806885BF1AB817B814B88FEF8BB988B983
:1001E00085B9109215011092320181E089D211D4A3
:1001F00090934D0180934C01DC01ED91FC910995A8
:10020000109208011092090110920A0110920B013C
:1002100010920C0110920D0110920E0110920F011C
:100220005ED2CEEFDAE012E084D280911501811126
:1002300024C0C0933301E0914C01F0914D01048042
:10024000F581E02D81E00995E0914C01F0914D019F
:100250000280F381E02D8DE0099580933301803F8A
:10026000C0F4E0914C01F0914D010480F581E02D46
:1002700080E00995809133010CC0E0914C01F09130
:100280004D010480F581E02D80E009958F3F89F6CE
:100290008EEF809333019091150191111FC0803F23
:1002A00098F09091250120912401922398239F3F5B
:1002B00029F08F3F19F481E0809315018DE0E4E38C
:1002C000F1E0A3E2B1E005C08DE0E3E2F1E0A4E3F8
:1002D000B1E001900D928A95E1F70DC09DE0E4E355
:1002E000F1E0A3E2B1E001900D929A95E1F7803F31
:1002F00010F410921501909115018091320199230B
:10030000C1F081110AC0D093320180912401806232
:1003100080932401809335010FC0823020F08150FA
:100320008093320109C0809124018F7D8093240144
:1003300003C0811110923201D2D110924501109266
:100340004401B0912701B0934701A0912801A093E7
:10035000480150912A015093490140912B0140934B
:100360004A0180913301893749F080912D01811133
:1003700003C080912E01811180934701F0900F01FD
:1003800000910E0130910D0120910C01F0910B01B3
:10039000E0910A017091090160910801802F90E0BD
:1003A0008F0D911D830F911D820F911D8F0F911D38
:1003B0008E0F911D870F911D860F911D892B09F4BA
:1003C000B5C0BF3F21F0FB1610F4B0930F01AF3F53
:1003D00021F00A1710F4A0930E01BB2321F0B317EC
:1003E00010F4B0930D01AA2321F0A21710F4A093EA
:1003F0000C01BF3F71F000910F012B2F30E0802FD7
:1004000090E005978217930724F4B150B01BB09386
:100410002701AF3F71F0B0910E012A2F30E08B2FF2
:1004200090E005978217930724F4A150AB1BA0938B
:100430002801A0912701AA2369F0B0910D012A2F6C
:1004400030E08B2F90E00596281739071CF4AB1B82
:10045000A0932701A0912801AA2369F0B0910C0173
:100460002A2F30E08B2F90E00596281739071CF4CF
:10047000AB1BA09328015F3F21F0F51710F45093B8
:100480000B014F3F21F0E41710F440930A0155236C
:1004900021F0571710F450930901442321F0461717
:1004A00010F4409308015F3F71F060910B01252F1C
:1004B00030E0862F90E005978217930724F451507F
:1004C000561B50932A014F3F79F050910A01242F77
:1004D00030E0852F90E00597821793072CF48FEF7B
:1004E000840F851B80932B0150912A01552369F0BD
:1004F00060910901252F30E0862F90E0059628179E
:1005000039071CF4561B50932A0150912B01552397
:1005100069F060910801252F30E0862F90E0059664
:10052000281739071CF4561B50932B0110924B01CE
:100530008091240180FD1093440181FF05C09091BA
:10054000440194609093440182FF05C0909144015E
:1005500091609093440183FF05C09091440198609D
:100560009093440186FF05C090914401906190935F
:10057000440187FF05C0909144019062909344012B
:100580009091250190FF05C02091440120642093A3
:10059000440191FF05C0209144012068209344014B
:1005A00020912901233348F0483C38F4403829F0A1
:1005B0002091440120642093440120912C01233395
:1005C00048F0483C38F4403829F020914401206834
:1005D0002093440184FF03C021E02093450185FF5F
:1005E00005C02091450122602093450196FF05C07A
:1005F0002091450124602093450197FF05C090910B
:100600004501986090934501982F9073903329F499
:10061000909145019061909345018F708F3029F43E
:100620008091450180628093450180912F018093E4
:10063000460181D0F9CDE0911201F091130130977C
:1006400009F009940895E0911001F091110130979B
:1006500009F00994089542E361EC81E0DDC18091E5
:1006600043018F5F80934301809154018130F1F405
:1006700080915301813AD1F48091550190915601B6
:10068000892BA1F08091E800877F8093E80080911A
:1006900043018F5F8093430168E070E084E491E060
:1006A000A5D38091E8008B778093E800089580912E
:1006B0005201843099F481E08093E9008091E80050
:1006C00080FF0CC040E050E068E070E084E491E01E
:1006D00045D38091E8008E778093E80008951092CA
:1006E0004501109244018FE08093460180E8809399
:1006F0004A018093490180934801809347010895FE
:10070000882361F02FE088E190E00FB6F894A89577
:10071000809360000FBE2093600008C088E10FB690
:10072000F89480936000109260000FBE3BD27894E2
:100730000895A8950895BBDFDBC5292F3327233003
:100740003105B9F05CF42130310569F12230310511
:1007500079F589E290E028EF30E02EC021323105B2
:10076000E9F02232310521F580E590E023E331E024
:1007700023C099278130910541F08230910541F0E5
:10078000892BB1F4E4EFF0E005C0EEEDF0E002C03B
:10079000E0ECF0E0849190E09F010EC089E090E0F1
:1007A0002AE031E009C082E190E021E231E004C0BA
:1007B00080E090E020E030E0FA013183208308956A
:1007C00080B3806680BB81B3806681BB089520B30F
:1007D00080B38F7980BB9FB120BB907681E009F414
:1007E00080E008959FB1907651F428E632E49FB1FD
:1007F000907639F42150310921153105C1F78EEF7A
:10080000089596E09A95F1F700C09FB19076B9F7F8
:1008100090E19A95F1F7E3E2F1E040E0481709F43E
:10082000B1C0908196959083000000007D9B03C02D
:1008300000C000C002C09068908394E19A95F1F7DF
:10084000908196959083000000007D9B03C000C0BE
:1008500000C002C09068908394E19A95F1F790816E
:1008600096959083000000007D9B03C000C000C0EF
:1008700002C09068908394E19A95F1F790819695E3
:100880009083000000007D9B03C000C000C002C038
:100890009068908394E19A95F1F790819695908372
:1008A000000000007D9B03C000C000C002C0906833
:1008B000908394E19A95F1F790819695908300004A
:1008C00000007D9B03C000C000C002C09068908300
:1008D00094E19A95F1F7908196959083000000003D
:1008E0007D9B03C000C000C002C09068908394E16B
:1008F0009A95F1F7908196959083000000007D9B7A
:1009000003C000C000C002C0906890837D9B17C0E8
:1009100020E030E07D9B0BC02F5F3F4F2C3D95E0EA
:100920003907C1F704C07D9906C02F5F3F4F2C3DAA
:1009300095E03907C1F796E09A95F1F720C020E0DD
:1009400030E07D990BC02F5F3F4F2C3D95E039077C
:10095000C1F704C07D9B0BC02F5F3F4F2C3D95E03E
:100960003907C1F704C07D9906C02F5F3F4F2C3D6A
:1009700095E03907C1F795E09A95F1F700004F5FD0
:1009800031964CCF85E38A95F1F7000080912301E1
:10099000089590B39F7990BB28E632E49FB190769A
:1009A00039F42150310921153105C1F78FEF089530
:1009B0009AE19A95F1F700C090B3906690BB91B31D
:1009C0009F7991BB27E02A95F1F798E08D9A2AE06C
:1009D0002A95F1F700C080FD8D982AE02A95F1F75D
:1009E00000C08695915091F78D9A85E08A95F1F730
:1009F00000008D9890E19A95F1F781B3806681BBF4
:100A000080B38F7980BB2AE12A95F1F700C080E09E
:100A1000089580E091E00895982F973058F59093CD
:100A2000E900981739F07091EC002091ED00509199
:100A3000F00003C0242F762F50E021FF19C0309121
:100A4000EB003E7F3093EB003091ED003D7F309323
:100A5000ED003091EB0031603093EB007093EC00CF
:100A60002093ED005093F0002091EE0027FF07C087
:100A70009F5FD3CF8F708093E90081E0089580E07D
:100A800008958091530187FD05C08091E80080FFA3
:100A90000EC012C08091E80082FD05C08091520115
:100AA0008111F8CF08958091E8008B7708C080917C
:100AB00052018111EACF08958091E8008E778093EA
:100AC000E80008958091E4009091E50045E62091CA
:100AD000EC0020FF21C02091E80020FD21C02091E2
:100AE0005201222389F0253089F02091EB0025FD69
:100AF0000FC02091E4003091E5002817390739F341
:100B0000415041F0C901E3CF82E0089583E00895A8
:100B100081E0089584E008952091E80022FFDFCF6E
:100B200080E008950F931F93CF93DF9346D04DD06D
:100B3000C8EDD0E088818F7788838881806888833A
:100B400088818F7D888319BC1092520110924E01CA
:100B50001092500110924F0100EE10E0F8018081D8
:100B60008B7F808388818160888342E360E080E0BE
:100B700053DFE1EEF0E080818E7F8083E2EEF0E0F3
:100B8000808181608083808188608083F80180819A
:100B90008E7F8083888180618883DF91CF911F91D0
:100BA0000F910895E7EDF0E080818160808384E01B
:100BB00082BF81E080935101B5CFE8EDF0E0808104
:100BC0008E7F80831092E20008951092DA001092D6
:100BD000E10008951F920F920FB60F9211242F93E8
:100BE0003F934F935F936F937F938F939F93AF93B5
:100BF000BF93EF93FF938091E10082FF0AC0809141
:100C0000E20082FF06C08091E1008B7F8093E100CB
:100C10006ED38091DA0080FF1DC08091D80080FFE4
:100C200019C08091DA008E7F8093DA008091D9001C
:100C300080FF0CC080E189BD82E189BD09B400FE5E
:100C4000FDCF81E080935201F6DC04C019BC109204
:100C50005201F9DC8091E10080FF18C08091E20030
:100C600080FF14C08091E2008E7F8093E20080912B
:100C7000E20080618093E2008091D80080628093DE
:100C8000D80019BC85E08093520131D38091E100F6
:100C900084FF2DC08091E20084FF29C080E189BDDE
:100CA00082E189BD09B400FEFDCF8091D8008F7D1F
:100CB0008093D8008091E1008F7E8093E100809145
:100CC000E2008F7E8093E2008091E2008160809359
:100CD000E20080914E01811104C08091E30087FF02
:100CE00002C084E001C081E08093520100D3809172
:100CF000E10083FF22C08091E20083FF1EC080914B
:100D0000E100877F8093E10082E08093520110929E
:100D10004E018091E1008E7F8093E1008091E2009E
:100D20008E7F8093E2008091E20080618093E200F8
:100D300042E360E080E070DEDAD2FF91EF91BF9194
:100D4000AF919F918F917F916F915F914F913F9163
:100D50002F910F900FBE0F901F901895CF92DF929A
:100D6000EF92FF920F931F93CF93DF937C018B0140
:100D7000EA01A8DE811131C0209731F08881998184
:100D8000081B190BE80EF91EC12CD12C01151105F9
:100D900019F18091E80085FD14C08091E8008E77FC
:100DA0008093E800A5D2209741F0888199818C0D2D
:100DB0009D1D9983888385E010C084DE882331F3EC
:100DC0000CC0F70181917F018093F100015011095E
:100DD000FFEFCF1ADF0ADACF80E0DF91CF911F91CA
:100DE0000F91FF90EF90DF90CF90089520915901DF
:100DF00030915A012617370748F06115710539F40B
:100E00002091E8002E772093E80001C0B901FC0191
:100E100020E061157105B1F1809152018823F1F153
:100E20008530F1F18091E80083FD36C08091E800C3
:100E300082FF06C08091E80082FF27C080E008950D
:100E40008091E80080FFE5CF2091F3008091F200CF
:100E500090E0922B6115710551F08034910538F4C2
:100E600021912093F100615071090196F3CF21E0A7
:100E70008034910509F020E08091E8008E7780931E
:100E8000E800C7CF2111C8CFD5CF80915201882368
:100E900029F0853079F604C081E0089582E0089554
:100EA00083E008952091590130915A0126173707A0
:100EB00048F06115710539F42091E8002E772093F0
:100EC000E80001C0B901FC0120E061157105C9F11C
:100ED00080915201882309F440C0853009F43FC055
:100EE0008091E80083FD37C08091E80082FF06C052
:100EF0008091E80082FF28C080E008958091E8009A
:100F000080FFE3CF2091F3008091F20090E0922BDC
:100F10006115710559F08034910540F424912093B6
:100F2000F1003196615071090196F2CF21E08034D1
:100F3000910509F020E08091E8008E778093E80029
:100F4000C4CF2111C5CFD4CF80915201882329F07D
:100F5000853071F604C081E0089582E0089583E051
:100F60000895EF92FF920F931F93CF93DF938B011E
:100F70002091590130915A012617370748F0611521
:100F8000710539F42091E8002E772093E80001C024
:100F900089019C0140E00115110509F43FC08091D1
:100FA0005201882309F446C0853009F445C0809178
:100FB000E80083FD3DC08091E80082FF06C080917B
:100FC000E80082FF2EC080E038C08091E80080FFFA
:100FD000E2CF8091F300C091F200D0E0D82B7901EC
:100FE000EC1AFD0AC7018C0F9D1F0115110551F068
:100FF000C034D10538F49ED18093F100015011091D
:101000002196F0CF41E0C034D10509F040E02091B5
:10101000E8002E772093E8009C01BDCF4111BFCF9F
:10102000CECF80915201882329F0853041F604C04B
:1010300081E003C082E001C083E0DF91CF911F9186
:101040000F91FF90EF9008950F931F93CF93DF932D
:10105000CDB7DEB7AB970FB6F894DEBF0FBECDBFEE
:10106000E3E5F1E08091F100819321E0EB35F207B7
:10107000C9F7F5DA8091E80083FF20C12091530180
:1010800030915401832F90E08A30910508F016C109
:10109000FC01EA5AFF4F48C1203881F0223809F09C
:1010A0000DC1809157018F708093E9008091EB0012
:1010B00085FB882780F91092E90006C080914F01D6
:1010C00090915001911182609091E800977F9093E8
:1010D000E8008093F1001092F100CDC0822F8D7F47
:1010E00009F0ECC0222319F0223061F0E7C08091B2
:1010F0005501813009F0E2C0333009F080E080937F
:10110000500128C080915501811124C020915701C0
:101110002F7009F4D3C02093E9008091EB0080FF89
:1011200019C08091EB00333011F4806211C08061EE
:101130008093EB0081E090E0022E01C0880F0A94BA
:10114000EAF78093EA001092EA008091EB00886051
:101150008093EB001092E9008091E800877F8EC0B9
:101160002111ACC0109155011F770FB7F8948091F1
:10117000E800877F8093E80084DC8091E80080FFAE
:10118000FCCF8091E3008078812B8093E30080681E
:101190008093E300112311F083E001C082E080938B
:1011A00052010FBF8BC02058223008F087C08091B9
:1011B0005501909156018C3D23E0920769F583E03B
:1011C0008A838AE289834FB7F894DE01139620E080
:1011D0003EE051E2E32FF0E050935700E49120FF0E
:1011E00003C0E295EF703F5FEF708E2F90E0EA3022
:1011F00010F0C79601C0C0968D939D932F5F243148
:1012000049F74FBF8091E800877F8093E8006AE24A
:1012100070E0CE0101961DC09E01255D3F4FAE01DD
:101220004F5F5F4F6091570188DABC01009709F466
:1012300045C08091E800877F8093E8002BA58981D5
:101240009A81211102C02EDE05C0213011F489DE01
:1012500001C0CCDD8091E8008B778093E8002EC040
:10126000203861F58091E800877F8093E8008091C5
:101270004E018093F1008091E8008E778093E80022
:1012800000DC1CC021111AC0909155019230B0F4BD
:101290008091E800877F8093E80090934E01F1DB16
:1012A00080914E01811104C08091E30087FF02C04C
:1012B00084E001C081E080935201CDD98091E800A3
:1012C00083FF0AC08091EB0080628093EB008091E5
:1012D000E800877F8093E800AB960FB6F894DEBFF6
:1012E0000FBECDBFDF91CF911F910F91089508954B
:1012F000CF93809152018823A9F08091E9008F70EB
:101300009091EC0090FF02C090E801C090E0C92FDE
:10131000C82B1092E9008091E80083FD95DECF7024
:10132000C093E900CF910895EE0FFF1F0590F4914F
:10133000E02D0994F999FECF92BD81BDF89A9927C5
:0813400080B50895F894FFCF79
:08134800E003F203C904E7030E
:00000001FF
