:10000000CCC00000E6C00000E4C00000E2C0000078
:10001000E0C00000DEC00000DCC00000DAC000006C
:10002000D8C00000D6C0000023C60000D2C0000027
:10003000D0C00000CEC00000CCC00000CAC000008C
:10004000C8C00000C6C00000C4C00000C2C000009C
:10005000C0C00000BEC00000BCC00000BAC00000AC
:10006000B8C00000B6C00000B4C00000B2C00000BC
:10007000B0C00000AEC00000ACC00000AAC00000CC
:10008000A8C00000A6C00000A4C00000A2C00000DC
:10009000A0C000009EC000009CC000009AC00000EC
:1000A00098C0000096C0000094C0000027084908CE
:1000B0002E0949082E098B08AE082E0900091209DD
:1000C0001A034200720069006400670065002000A6
:1000D0002D00200070007300330000001403420064
:1000E0006C006900730073002D0042006F007800FF
:1000F0000000040309040902220001010080320902
:100100000400000103000000092100020001227028
:10011000000705810340000A1201110100000040A0
:100120004C05000000010102000105010905A101C3
:1001300015002501350045017501950D05091901C9
:10014000290D81029503810105012507463B0175B3
:1001500004950165140939814265009501810126E4
:10016000FF0046FF0009300931093209357508954D
:100170000481020600FF092009210922092309241C
:1001800009250926092709280929092A092B950C77
:1001900081020A21269508B102C011241FBECFEFAB
:1001A000DAE0DEBFCDBF11E0A0E0B1E0E8EDF2E1C2
:1001B00002C005900D92A031B107D9F721E0A0E16E
:1001C000B1E001C01D92AC36B207E1F757D10C94F3
:1001D0006A0916CF10923301109234011092360141
:1001E00010923801109248011092150110924701A7
:1001F0001092390108958091270189578E3018F4A3
:1002000080E8809327018091280189578E3018F467
:1002100080E88093280180912A0189578E3018F454
:1002200080E880932A0180912B0189578E3018F441
:1002300080E880932B010895E0913901A091470156
:10024000309115012091480140913801709136019B
:1002500060913401509133018A2F90E08E0F911DEF
:10026000830F911D820F911D840F911D870F911D8A
:10027000860F911D850F911D892B09F4BCC0F0914B
:100280002701FF3F21F0EF1710F4F0933901E091BF
:100290002801EF3F21F0AE1710F4E0934701FF2350
:1002A00021F0F31710F4F0931501EE2321F0E2177B
:1002B00010F4E0934801FF3F71F0A09139012F2F16
:1002C00030E08A2F90E005978217930724F4F150CD
:1002D000FA1BF0932701EF3F71F0F09147012E2FA9
:1002E00030E08F2F90E005978217930724F4E150B8
:1002F000EF1BE0932801E0912701EE2369F0F091D4
:1003000015012E2F30E08F2F90E005962817390722
:100310001CF4EF1BE0932701E0912801EE2369F024
:10032000F09148012E2F30E08F2F90E0059628178E
:1003300039071CF4EF1BE0932801E0912A01EF3FFD
:1003400021F04E1710F4E093380140912B014F3FFC
:1003500021F0741710F440933601EE2321F0E617D4
:1003600010F4E0933401442321F0451710F4409336
:100370003301EF3F71F0509138012E2F30E0852F7F
:1003800090E005978217930724F4E150E51BE09372
:100390002A014F3F71F050913601242F30E0852F14
:1003A00090E005978217930724F44150451B409332
:1003B0002B0140912A01442369F050913401242FEC
:1003C00030E0852F90E00596281739071CF4451B6F
:1003D00040932A0140912B01442369F0509133014D
:1003E000242F30E0852F90E00596281739071CF45C
:1003F000451B40932B010895E0915D01F0915E0152
:100400000480F581E02D80E00995E0915D01F09197
:100410005E010480F581E02D82E00995E0915D01A7
:10042000F0915E010280F381E02D8DE00995EFEA05
:10043000F4E03197F1F700C00000803FF0F4E4E20F
:10044000F1E0A6E1B1E081918D9381E0E033F8071E
:10045000D1F7E0915D01F0915E010480F581E02D1E
:1004600081E00995E0915D01F0915E010280F381E8
:10047000E02D8DE00995803F00F4089580E8809399
:100480006100109261001AB817B814B88FEF8BB9D9
:1004900088B985B985B7806885BF85B7806885BF0D
:1004A000109214011092370181E076D100D390931D
:1004B0005E0180935D01DC01ED91FC9109958ADE7E
:1004C0005AD1CDE0D1E081D197DF90911401911103
:1004D0001DC0803F88F09091250120912401922336
:1004E00098239F3F21F08F3F11F4D0931401EAE34A
:1004F000F1E0A3E2B1E004C0E3E2F1E0AAE3B1E09D
:100500008C2F01900D928A95E1F70DC0EAE3F1E09E
:10051000A3E2B1E09C2F01900D929A95E1F7803F04
:1005200010F41092140190911401809137019923D5
:1005300061F090912401811104C0D0933701906241
:1005400001C09F7D9093240103C081111092370157
:1005500012D110924B0110924A016EDE4CDE809156
:10056000270180934D018091280180934E01809155
:100570002A0180934F0180912B018093500180913B
:10058000240180FF05C090914A01926090934A0136
:1005900081FF05C090914A01946090934A0182FFC7
:1005A00005C090914A01916090934A0183FF05C074
:1005B00090914A01986090934A0186FF05C09091FE
:1005C0004A01906190934A0187FF05C090914A01CA
:1005D000906290934A019091250190FF05C020916F
:1005E0004A01206420934A0191FF05C020914A01ED
:1005F000206820934A0120912901253628F0209176
:100600004A01206420934A0120912C01253628F0CC
:1006100020914A01206820934A0184FF05C020915F
:100620004B01216020934B0185FF05C020914B01B8
:10063000226020934B0196FF05C020914B0124605E
:1006400020934B0197FF05C090914B0198609093C8
:100650004B01803329F480914B01806180934B01E1
:1006600080912F0180934C0180911601809351015C
:10067000809117018093520180911801809353015A
:10068000809119018093540180911A018093550142
:1006900080911B018093560180911C01809357012A
:1006A00080911D018093580180911E018093590112
:1006B00080911F0180935A018091200180935B01FA
:1006C0008091210180935C0182D0FDCEE0911201E6
:1006D000F0911301309709F009940895E091100109
:1006E000F0911101309709F00994089542E361EC0B
:1006F00081E0E0C180916501813021F58091640144
:10070000813A01F5809166019091670181159340CE
:1007100051F48091E800877F8093E80068E070E002
:1007200080E091E009C08091E800877F8093E80035
:1007300063E170E08AE491E0A7D38091E8008B77D1
:100740008093E800089580916301843099F481E0FA
:100750008093E9008091E80080FF0CC040E050E009
:1007600063E170E08AE491E047D38091E8008E77FE
:100770008093E800089510924B0110924A018FE097
:1007800080934C0180E88093500180934F018093C7
:100790004E0180934D010895882361F02FE088E198
:1007A00090E00FB6F894A895809360000FBE209358
:1007B000600008C088E10FB6F89480936000109242
:1007C00060000FBE3DD278940895A8950895BBDFD0
:1007D0005FC5292F332723303105B9F05CF4213070
:1007E000310569F12230310579F582E290E026EF9A
:1007F00030E02EC021323105E9F02232310521F5F9
:1008000080E790E02AE231E023C09927813091050A
:1008100041F08230910541F0892BB1F4E2EFF0E034
:1008200005C0ECEDF0E002C0E0ECF0E0849190E077
:100830009F010EC089E090E028E031E009C082E12C
:1008400090E028E131E004C080E090E020E030E07A
:10085000FA0131832083089580B3806680BB81B321
:10086000806681BB089520B380B38F7980BB9FB130
:1008700020BB907681E009F480E008959FB19076E6
:1008800019F420E137E207C08EEF089521503109B5
:100890002115310519F09FB19076C1F395E09A9535
:1008A000F1F700009FB1907679F790E19A95F1F712
:1008B000E3E2F1E040E0481709F4B1C09081969579
:1008C0009083000000007D9B03C000C000C002C0F8
:1008D0009068908394E19A95F1F790819695908332
:1008E000000000007D9B03C000C000C002C09068F3
:1008F000908394E19A95F1F790819695908300000A
:1009000000007D9B03C000C000C002C090689083BF
:1009100094E19A95F1F790819695908300000000FC
:100920007D9B03C000C000C002C09068908394E12A
:100930009A95F1F7908196959083000000007D9B39
:1009400003C000C000C002C09068908394E19A95F3
:10095000F1F7908196959083000000007D9B03C085
:1009600000C000C002C09068908394E19A95F1F7AE
:10097000908196959083000000007D9B03C000C08D
:1009800000C002C09068908394E19A95F1F790813D
:1009900096959083000000007D9B03C000C000C0BE
:1009A00002C0906890837D9B17C020E030E07D9B63
:1009B0000BC02F5F3F4F2C3D95E03907C1F704C0B6
:1009C0007D9906C02F5F3F4F2C3D95E03907C1F759
:1009D00096E09A95F1F720C020E030E07D990BC0B9
:1009E0002F5F3F4F2C3D95E03907C1F704C07D9B39
:1009F0000BC02F5F3F4F2C3D95E03907C1F704C076
:100A00007D9906C02F5F3F4F2C3D95E03907C1F718
:100A100095E09A95F1F700004F5F31964CCF5098D2
:100A200085E38A95F1F7000080912301089590B342
:100A30009F7990BB20E137E29FB1907639F4215045
:100A4000310921153105C1F78FEF08959AE19A9583
:100A5000F1F700C090B3906690BB91B39F7991BBC2
:100A600027E02A95F1F798E08D9A2AE02A95F1F788
:100A700000C080FD8D982AE02A95F1F700C0869588
:100A8000915091F78D9A85E08A95F1F700008D9845
:100A900090E19A95F1F781B3806681BB80B38F793D
:100AA00080BB2AE12A95F1F700C080E0089588E034
:100AB00091E00895982F973058F59093E900981792
:100AC00039F07091EC002091ED005091F00003C0DE
:100AD000242F762F50E021FF19C03091EB003E7F8C
:100AE0003093EB003091ED003D7F3093ED0030917D
:100AF000EB0031603093EB007093EC002093ED003D
:100B00005093F0002091EE0027FF07C09F5FD3CFE6
:100B10008F708093E90081E0089580E008958091CE
:100B2000640187FD05C08091E80080FF0EC012C0FF
:100B30008091E80082FD05C0809163018111F8CFAA
:100B400008958091E8008B7708C08091630181113E
:100B5000EACF08958091E8008E778093E8000895A9
:100B60008091E4009091E50045E62091EC0020FFA3
:100B700021C02091E80020FD21C0209163012223A3
:100B800089F0253089F02091EB0025FD0FC02091E0
:100B9000E4003091E5002817390739F3415041F05E
:100BA000C901E3CF82E0089583E0089581E00895CC
:100BB00084E008952091E80022FFDFCF80E00895CF
:100BC0000F931F93CF93DF9346D04DD0C8EDD0E065
:100BD00088818F77888388818068888388818F7DEA
:100BE000888319BC1092630110925F011092610119
:100BF0001092600100EE10E0F80180818B7F80830D
:100C000088818160888342E360E080E053DFE1EE29
:100C1000F0E080818E7F8083E2EEF0E08081816071
:100C20008083808188608083F80180818E7F8083CB
:100C3000888180618883DF91CF911F910F91089502
:100C4000E7EDF0E080818160808384E082BF81E015
:100C500080936201B5CFE8EDF0E080818E7F8083E4
:100C60001092E20008951092DA001092E1000895C7
:100C70001F920F920FB60F9211242F933F934F9311
:100C80005F936F937F938F939F93AF93BF93EF93F4
:100C9000FF938091E10082FF0AC08091E20082FF11
:100CA00006C08091E1008B7F8093E100F0D28091BB
:100CB000DA0080FF1DC08091D80080FF19C08091AC
:100CC000DA008E7F8093DA008091D90080FF0CC01B
:100CD00080E189BD82E189BD09B400FEFDCF81E0DC
:100CE00080936301F3DC04C019BC10926301F6DC4D
:100CF0008091E10080FF18C08091E20080FF14C065
:100D00008091E2008E7F8093E2008091E20080611A
:100D10008093E2008091D80080628093D80019BC53
:100D200085E080936301B3D28091E10084FF2DC000
:100D30008091E20084FF29C080E189BD82E189BD04
:100D400009B400FEFDCF8091D8008F7D8093D8003C
:100D50008091E1008F7E8093E1008091E2008F7EA0
:100D60008093E2008091E20081608093E2008091B4
:100D70005F01811104C08091E30087FF02C084E01D
:100D800001C081E08093630182D28091E10083FF02
:100D900022C08091E20083FF1EC08091E100877F26
:100DA0008093E10082E08093630110925F01809163
:100DB000E1008E7F8093E1008091E2008E7F80933E
:100DC000E2008091E20080618093E20042E360E013
:100DD00080E070DE5CD2FF91EF91BF91AF919F9167
:100DE0008F917F916F915F914F913F912F910F90D4
:100DF0000FBE0F901F901895CF92DF92EF92FF9247
:100E00000F931F93CF93DF937C018B01EA01A8DE40
:100E1000811131C0209731F088819981081B190B0D
:100E2000E80EF91EC12CD12C0115110519F1809184
:100E3000E80085FD14C08091E8008E778093E8007B
:100E400027D2209741F0888199818C0D9D1D99832F
:100E5000888385E010C084DE882331F30CC0F7015D
:100E600081917F018093F10001501109FFEFCF1AAA
:100E7000DF0ADACF80E0DF91CF911F910F91FF90D1
:100E8000EF90DF90CF90089520916A0130916B012F
:100E90002617370748F06115710539F42091E800ED
:100EA0002E772093E80001C0B901FC0120E0611514
:100EB0007105B1F1809163018823F1F18530F1F181
:100EC0008091E80083FD36C08091E80082FF06C073
:100ED0008091E80082FF27C080E008958091E800BB
:100EE00080FFE5CF2091F3008091F20090E0922BFB
:100EF0006115710551F08034910538F421912093EA
:100F0000F100615071090196F3CF21E08034910521
:100F100009F020E08091E8008E778093E800C7CF49
:100F20002111C8CFD5CF80916301882329F0853066
:100F300079F604C081E0089582E0089583E0089581
:100F400020916A0130916B012617370748F061152F
:100F5000710539F42091E8002E772093E80001C054
:100F6000B901FC0120E061157105C9F180916301AF
:100F7000882309F440C0853009F43FC08091E8001F
:100F800083FD37C08091E80082FF06C08091E800B1
:100F900082FF28C080E008958091E80080FFE3CFC1
:100FA0002091F3008091F20090E0922B6115710581
:100FB00059F08034910540F424912093F10031964A
:100FC000615071090196F2CF21E08034910509F05A
:100FD00020E08091E8008E778093E800C4CF211153
:100FE000C5CFD4CF80916301882329F0853071F675
:100FF00004C081E0089582E0089583E008950F938E
:101000001F93CF93DF93CDB7DEB7AA970FB6F894AF
:10101000DEBF0FBECDBFE4E6F1E08091F100819329
:1010200021E0EC36F207C9F765DB8091E80083FF29
:1010300015C12091640130916501832F90E08A30C1
:10104000910508F00BC1FC01EA5AFF4F3DC1203861
:1010500081F0223809F002C1809168018F7080937D
:10106000E9008091EB0085FB882780F91092E90068
:1010700006C0809160019091610191118260909110
:10108000E800977F9093E8008093F1001092F100C0
:10109000C2C0822F8D7F09F0E1C0222319F02230D7
:1010A00061F0DCC080916601813009F0D7C0333037
:1010B00009F080E08093610128C080916601811170
:1010C00024C0209168012F7009F4C8C02093E90062
:1010D0008091EB0080FF19C08091EB00333011F458
:1010E000806211C080618093EB0081E090E0022E6D
:1010F00001C0880F0A94EAF78093EA001092EA0090
:101100008091EB0088608093EB001092E900809161
:10111000E800877F83C02111A1C0109166011F776D
:101120000FB7F8948091E800877F8093E800F7DCA0
:101130008091E80080FFFCCF8091E3008078812BD4
:101140008093E30080688093E300112311F083E033
:1011500001C082E0809363010FBF80C0205822301D
:1011600008F07CC080916601909167018C3D23E07E
:10117000920771F583E08A838AE289834FB7F894F6
:10118000DE01139620E03EE051E2E32FF0E05093C1
:101190005700E49120FF03C0E295EF703F5FEF70CE
:1011A0008E2F90E0EA3010F0C79601C0C0968D9364
:1011B0009D932F5F243149F74FBF8091E800877FCF
:1011C0008093E8006AE270E0CE0101965DDE12C015
:1011D000AE014F5F5F4F60916801FBDA009709F441
:1011E0003DC02091E800277F2093E800BC01898161
:1011F0009A81A6DE8091E8008B778093E8002EC06C
:10120000203861F58091E800877F8093E800809125
:101210005F018093F1008091E8008E778093E80071
:101220007EDC1CC021111AC0909166019230B0F48E
:101230008091E800877F8093E80090935F016FDCE6
:1012400080915F01811104C08091E30087FF02C09B
:1012500084E001C081E08093630148DA8091E80076
:1012600083FF0AC08091EB0080628093EB00809145
:10127000E800877F8093E800AA960FB6F894DEBF57
:101280000FBECDBFDF91CF911F910F9108950895AB
:10129000CF93809163018823A9F08091E9008F703A
:1012A0009091EC0090FF02C090E801C090E0C92F3F
:1012B000C82B1092E9008091E80083FDA0DECF707A
:1012C000C093E900CF910895EE0FFF1F0590F491B0
:0812D000E02D0994F894FFCF12
:1012D80021260107000000002C043E0417053304F2
:00000001FF
