:100000007AC5000094C5000092C5000090C50000AC
:100010008EC500008CC500008AC5000088C50000A0
:1000200086C5000084C500000C941C2080C500001B
:100030007EC500007CC500007AC5000078C50000C0
:1000400076C5000074C5000072C5000070C50000D0
:100050006EC500000C9483176AC5000068C50000D7
:1000600066C5000064C5000062C5000060C50000F0
:100070005EC500005CC500005AC5000058C5000000
:1000800056C5000054C5000052C5000050C5000010
:100090000C94FB104CC500004AC5000048C5000088
:1000A00046C5000044C5000042C50000E50AED0A4F
:1000B000630AB50A070B180B360B530B500C500C88
:1000C000500C500C610B790B500C8A0B705103864D
:1000D000400D4FEB3ECCD18735BDF50B5ED0F8F22D
:1000E000D5E26C310CADFC21C378C106C24C55E69B
:1000F0004A3448111EDAE71A84A096A7E37FAF635B
:100100009CFA235B79C89EBAB2C922124BB3A1B63E
:100110003249A2E189391066C5078F54EA91CA3F76
:10012000F919F0D746BC281B61E82F6AAE9DF64E40
:100130000914774DDB1F2E7B7CF143A300B8138C91
:1001400085B9297588FDD2561C509741E53B60B5AD
:10015000C064EE98D62D25A4AACD7DA883C6ABBEDB
:100160004499263CCE9FBFD3CB767A7E82018A9A71
:10017000801D0EB05CD43862F430E08E53B7025765
:10018000ACA6520A6D9265172433457274B1B4F768
:100190005DED2CFF47375A90BBDF2A165995D9C41D
:1001A000276773C768FEA5DD6B5F93D8EC053A8DB2
:1001B0006EFB3DA96936F394DEEF156F8B9B080F3C
:1001C000DC81182004E471CFE92B425801A0A96218
:1001D000D63F85A7B6D4FA15661709BD5D14342637
:1001E00059729154064FF8B05B7493998CF245CDD7
:1001F000EA4EAD104AE5CAEEDFC66F9F888E02CC8C
:1002000008A877946D21B128E43979966071811638
:100210002EE678B9C4469A42AEB77C43B3221A861A
:10022000C2323D2D9CD229E9639BD131385E1E3606
:1002300041BB03182B3EBF6861FC52C0DEE00A5888
:10024000135A00BE1C900E5312FDE26EBACE242744
:10025000447F87A3A1D55040E3F983F7C7A235C8EF
:10026000DB19AB2F1125ED339E55E148AF7384DACE
:100270002AAA51EB9D95B2CBE77080FE4C6504EF46
:10028000C5F1C33AB4F55F2389DD30A58BD3F6DC25
:100290004D64D7F08FEC56375CA40D07768A2C0B93
:1002A000B5D8C11FE83BF44B1B476C49677B92CF25
:1002B000757E20D97D3C977AD0056B0F1DFB829807
:1002C000578DF36ABCACC9A6FFB8690C4C4D7207D8
:1002D0005A49338DA2AB463D630DA097FFF0F5FA66
:1002E000C0E9DB62E4E17443DC86182937F406E2F6
:1002F000ED6F90481E2D1DEA739454DF25F64727B5
:10030000D91177C9841C5B5C5181A6223E2496C812
:100310008AEC827C09B8454A57BB2F50758E6170B4
:100320008C6CAFD0FDB41BAEDEFE3BB536BD5501C7
:100330000E9C41565FB3260383BA134BCAC50AF815
:1003400060A5B9C7C39832FB12F9A792AA68F378DF
:100350007E05202102E8BFF2B0598FD2CB87651508
:10036000F11AB230ADEE58A38B661F2CD75D1985FC
:10037000A8E6D36BA10C91936A5E0B79E3DD004F85
:100380003C896E7169A9AC40E59928C6314E7ACD99
:10039000089E7DEF17FC88D8A46D4495D1B7D49BF7
:1003A000BE2A34642BCF2EEB38CE23E03A3FF77BC6
:1003B0009F1053BC526716E7807604C4B6C1C27F53
:1003C0009ADAD53942149DB10F35D6CCB9DA380C4A
:1003D000A29C091F06B1B6FD1A692330C4DE01D103
:1003E000F45829371C7DD5BFFFBDC8C9CF65BE7B7A
:1003F0007897986708B32657F7FA40AD8E75A67CB4
:10040000DB918B5199D4177A908DCE63CB4EA0ABF4
:10041000183A5B507F2174C1BBB8B7BA0B35953120
:10042000599A4D04071E5A7613F37183D08603A898
:100430003942AA28E6E4D85DD3D06E6F96FB5EBC45
:1004400056C25F859BE7AFD23B846AA753C5444938
:10045000A5F936723D2CD91BA1F54F939D684741F4
:1004600016CA2A4CA387D6E5192E77156D70C0DF02
:10047000B20046EDC66C4360922DA922458F3455DB
:10048000AEA40A6632E0DC02ACE8208C89624AFE47
:10049000EEC3E33CF17905E9F62733CCF29E1181F6
:1004A0007E80108A829F480DD7B4FC2FB5C7DD88A7
:1004B000146B2B54EA1D945CB0EF1224CDEBE1E2F7
:1004C00064733F0E5261253EF80F4BECC00030F6CE
:1004D00002493D106E20C9A62FFE2C2B752E4526F5
:1004E000AB48A980FC04CCD3B5BAA338317D01D97F
:1004F000A77B96B663694EF7DEE078CA50AA4191B1
:100500006588E42185DA3A27BE1C3E425E17527F99
:100510001F89246F8F5C67740E12878DE934ED7329
:10052000C4F8615B05DF594C97798318A45595EBA6
:10053000BD53F5F15766469FB2810951862216DDFB
:1005400023937629C2D71DD4BF363FEA4B1132B967
:10055000625460D66D439A0D929CB0EF586C9D77B3
:100560002D70FAF3B30BE2407EF48AE58C3C5671B1
:10057000D164E1820ACB131590EC0399AF145D0F9F
:10058000334A94A5A8351BE36AC628FF4DE72584A6
:10059000AC08AEC5A22AB8370C7AA0C3CEAD061AF5
:1005A0009E8BFBD5D0C11ED0B49BB144F247C76827
:1005B000CF72BB4F5AF9DC6BDBD2E87CC8EE98A156
:1005C000E6D839075FFD8E19B73BBCCD7CE381735C
:1005D000B211BF6F2098FE7596EF6CDA50E1097288
:1005E0005445BA34805BED3E532C87A457F3333F18
:1005F0003CB767B4A325604F076B1B47150FE40A90
:10060000EAD1327836498D4BD2BCA5DC1D0D4DCDDB
:100610009A825FFC9465BEE2F4C91E44CB9E0C64D2
:10062000712663B314E840708A0E19426DAC8810CD
:100630005CDF41A9ADE5FB74CCD5068E5986CE1F93
:100640003D76E08FB977277BA6D829D3ECB813F78E
:10065000FAC3516ADE4A5AEBC28B234892CF62A892
:1006600099F8D02E856143C8BDF00593CA4EF17D3F
:1006700030FDC469662F08B152F921E67A2BDD39C5
:1006800084FFC091D637D47F2D9B5DA13B6EB5C54D
:100690004604F590EE7E831C0356B6AA001701357A
:1006A00055790B12BB1A31E7022816C1F6A2DB18E6
:1006B0009C89683897ABC72AD73AF2C6244CB05801
:1006C000A0225E9DD9A7E9AEAF8C959F28B720D711
:1006D000B030C30919C067D6003C7EE7E9F4085A78
:1006E000F8B82E05A6259E5CD8150DE1F611546BC1
:1006F000CD2146665E84AD06382944C5A2CEF1AA56
:10070000C1407186B5EFFC36A8CB0A48274564A3E3
:10071000AF8CB2C69F0789DC17D34979FBFE1DD089
:10072000B9884352BC01782B7D94C70EDEA5D59BBA
:10073000CCF7617AC274813903AB96A037BD2D72B4
:10074000753FC9D48E6FF98DED62DB1CDF04AC1BE5
:100750006C144B63D0BFB482EC7B1A5992D21060F8
:10076000B63D5FE6806E70C4F235D97CEEE541A4FB
:100770005B50DDBB4CF31F9D5D57555197E35842CD
:100780004D9C73BAC877316926AEEA8ADA22B387FC
:1007900056FA930B341633E8E453BEA9B13A3EF54A
:1007A000906ACF3B12FD8F9AA7479199EB0F24FFD8
:1007B0002318854E7F0CE0A1D2D12C2A4A024F1E6D
:1007C00095688B98836D76CA6532132FC3829AA47D
:1007D000BA8160373435FC80A8516567ED305F1011
:1007E000D34A272F13B92AD2CCE1EFAEEBBEF4BD2A
:1007F000CF43B3C58884B7DD3940CE486D9B726165
:100800007EE7A14E532E773BE2C936221B6E73B1B1
:1008100003B24C87A9D44D0FD8156CAA18F64957C6
:100820005DFB7A149463A011B09EDE0546C8EE47C6
:10083000DBDC24899C919729E97BC1071EB8FDFE6A
:10084000ACC662984FF179E0E86B7856B68D0450EB
:1008500086CA6F20E6EAE576171C747FBC0D2C85EE
:10086000F76696E48B753F4BD938AF7CDA0B832D56
:100870003132A2F51D594145BF3C1FF8F98AD01607
:10088000256912999D2195AB01A6D7B5C07DFF586A
:100890000E3A92D155E3089FD63E528EFAA3C70274
:1008A000CDDF8F64198CF3A70C5E0A6A09F0935BA5
:1008B00042C20623EC71ADB4CBBB7028D51A5C33B1
:1008C000685A004490A5C4263D2BF25496ADDA1F19
:1008D000ED33E18169080D0ADB35779A64D1FC7844
:1008E000AA1BD067A0DDFA6C63710584176A894F73
:1008F000667FC65055926FBDE7D240728DBBEC0645
:10090000428AE4889D7E7A822713411AAFC8A47672
:10091000B4C2FE6D1CD96130B37CEAF7290FF23BFB
:1009200051C1DE5FE52A2F990B5DA32B4AAB95A53C
:10093000D35856EE283100CC1546CAE686383C65B9
:10094000F5E39FD65B094983702D53A97DE2C4ACC2
:100950008E5EB825F4B957F3F16847B2A25920CE9C
:1009600034795C900E1EBED52223B1C91862162EB2
:10097000913E078FD83F933DD49BDF8521FB1174B7
:1009800097C7D7DC4C194598E943024BBCC3049C7C
:100990006BF07552A726F6C5BACFB0B7AE5AA1BF55
:1009A000038B80126E0CEBF9C04424EF10F8A88C76
:1009B000E87BFF9E2CCD603687B594A654733A141D
:1009C0004E011DB6FD37484D39CBE0320000000026
:1009D0000000000000000000000000000000000017
:1009E0000000000000000000000000000000000007
:1009F00000000000000000000000000000000000F7
:100A000000000000000000000000000000000000E6
:100A100000000000000000000000000000000000D6
:100A200000000000000000000000000000000000C6
:100A300000000000000000000000000000000000B6
:100A400000000000000000000000000000000000A6
:100A50000000000000000000000000000000000096
:100A60000000000000000000000000000000000086
:100A70000000000000000000000000000000000076
:100A80000000000000000000000000000000000066
:100A90000000000000000000000000000000000056
:100AA0000000000000000000000000000000000046
:100AB0000000000000000000000000000000000036
:100AC000000000000000000000000000A877A6E081
:100AD000F7435A3585E272978FB71A6287380D67E8
:100AE000C7BE4F3E2076378F68B7A9263F2B10E34D
:100AF000307E900E850A11241FBECFEFDAE0DEBFF4
:100B0000CDBF11E0A0E0B1E0EEE3F2E402C0059059
:100B10000D92AE37B107D9F723E0AEE7B1E001C0DF
:100B20001D92A335B207E1F745D20C941D2168CA86
:100B300010920F03109211031092130310921403DA
:100B400010921A031092F1021092190310921503D9
:100B50000895CF93DF93E0913B03F0913C03048031
:100B6000F581E02D81E20995C82FE0913B03F091DA
:100B70003C030280F381E02D82E00995909100030F
:100B8000892F81708093340393FB882780F98093A9
:100B9000390394FB882780F98093380395FB8827D5
:100BA00080F98093360396FB882780F9809335037C
:100BB000991F9927991F909337038FE99FE0019719
:100BC000F1F700C00000CF3F51F4E0913B03F091FA
:100BD0003C030480F581E02D80E00995BCCFC03F47
:100BE00008F0B9CFDF91CF9108959091180381E07B
:100BF000953221F09B3211F080E008950895909194
:100C00003A039930B9F09031A9F0892F877F833169
:100C100089F0933279F09F3169F09F3259F0913425
:100C200049F0933739F081E0993731F0933521F06D
:100C300080E0089581E00895089580913A0389370E
:100C400021F0833311F08F3749F491E0909333030F
:100C5000893759F481E08093320308951092330369
:100C60008337C1F3893041F4F5CF982F9F7B9333BD
:100C700089F38F37B9F7EECF8251823058F3109253
:100C800032030895CF9380913403811105C0809180
:100C9000330381110EC032C0E0913B03F0913C035D
:100CA0000480F581E02D80E009958F3F81F78EEF7C
:100CB000ECC0E0913B03F0913C030480F581E02D12
:100CC00082E00995E0913B03F0913C030280F381BF
:100CD000E02D8DE00995EFEAF4E03197F1F700C0DF
:100CE0000000803F08F0D1C0E0E0F3E0A2EFB2E006
:100CF00081918D9383E0EC30F807D1F7E0913B03CD
:100D0000F0913C030480F581E02D81E00995E091AC
:100D10003B03F0913C030280F381E02D8DE00995C7
:100D2000C82F803F10F580913A038C1751F0E09165
:100D30003B03F0913C030480F581E02D80E00995B0
:100D400008DF80911603882321F0809132038111FE
:100D50000EC04BDF811182C0E0913B03F0913C0358
:100D60000480F581E02D80E009958C2F8EC081E014
:100D700090911003911101C080E091E02091FE025A
:100D8000211101C090E0890F90918101981709F31A
:100D9000E0913B03F0913C030480F581E02D8CE170
:100DA0000995E0913B03F0913C030480F581E02D2F
:100DB000809110030995E0913B03F0913C0381E0A1
:100DC00090911003911101C080E00480F581E02D25
:100DD00081950995E0913B03F0913C030480F581F6
:100DE000E02D81E10995E0913B03F0913C03048003
:100DF000F581E02D8CE10995E0913B03F0913C03F6
:100E00000480F581E02D8091FE020995E0913B037D
:100E1000F0913C0381E09091FE02911101C080E0CD
:100E20000480F581E02D81950995E0913B03F091D7
:100E30003C030480F581E02D84E1099591E08091E7
:100E4000FE02811101C090E081E020911003211188
:100E500001C080E0890F809381017BCFD0DE8823A1
:100E600009F47ACFE0913B03F0913C030480F581D3
:100E7000E02D84E20995E0913B03F0913C0304806E
:100E8000F581E02D84E0099567CFCF910895FADED2
:100E900090913403911125C0803FB8F090910103E7
:100EA00020910003922398239F3F29F08F3F19F44C
:100EB00081E0809334038DE0E2E8F1E0AFEFB2E04F
:100EC00001900D928A95E1F719C09DE0EFEFF2E0F5
:100ED000A2E8B1E001900D929A95E1F780933A0370
:100EE0000DC09DE0E2E8F1E0AFEFB2E001900D92BD
:100EF0009A95E1F7803F10F41092340390913403F7
:100F000080918001992369F090910003811105C0BF
:100F100081E080938001906201C09F7D90930003E7
:100F200005C0882319F01092800113DE8091000320
:100F300080931C038091010380931D038091020321
:100F400080932F038091030380931F0380910403F8
:100F500080932003809106038093210380910703EF
:100F60008093220380913A03893741F080910903ED
:100F70008093240380910A03809323038091330399
:100F8000811108C0809105038093FC0280910803C1
:100F90008093FD0280910B0380931E034EDE8091AF
:100FA0007F01811101C0D5DD80917F018F5F80932A
:100FB0007F010895109234031092800110928101F4
:100FC00010927F0180E8809361001092610085B7E4
:100FD000806885BF85B7806885BF1AB817B814B810
:100FE0008FEF8BB988B985B959D00E94F21F8091D3
:100FF000D80080628093D80089B58D7F89BD8091AB
:10100000D8008F778093D8001CBC1092CA00109231
:10101000C8001092C90010927A008091BC008B7FAA
:101020008093BC001092C00010929100109290002A
:1010300015BC14BC109281001092800043D088230C
:10104000E9F30E94BA1F90933C0380933B03DC01B9
:10105000ED91FC9109956CDD10D0E0913B03F0918E
:101060003C030480F581E02D80E009950BDE803F94
:10107000E8F703D00CDF1ED0FCCF10921D031092B6
:101080001C038FE080931E0380E8809322038093EB
:1010900021038093200380931F03089514BEA89515
:1010A00088E10FB6F89480936000109260000FBE44
:1010B000F8940895E0913003F09131030280F381B8
:1010C000E02D0994CF93DF9310921603109217032B
:1010D0001AB817B814B8DFEFDBB9D8B9D5B9F2D35D
:1010E0009093310380933003DC01ED91FC910995DD
:1010F000E0913003F09131030480F581E02D0995F2
:10110000882339F091E0909316039093170397E1A9
:10111000C9C01AB817B814B8DBB9D8B9D5B9C3B1B2
:10112000CF3F09F08CC00E94D91B9093310380936C
:101130003003DC01ED91FC910995E0913003F091D1
:1011400031030480F581E02D0995882311F091E2A7
:10115000A9C01AB817B814B8CBB9C8B9C5B90E9494
:10116000F7139093310380933003DC01ED91FC91F0
:101170000995E0913003F09131030480F581E02D71
:101180000995882329F091E09093160391E18AC094
:101190001AB817B814B8CBB9C8B9C5B90E94241782
:1011A0009093310380933003DC01ED91FC9109951C
:1011B000E0913003F09131030480F581E02D099531
:1011C000882329F091E09093160393E26BC01AB83C
:1011D00017B814B8CBB9C8B9C5B90E94F71890931D
:1011E000310380933003DC01ED91FC910995E0918E
:1011F0003003F09131030480F581E02D09958823B7
:1012000011F095E24FC01AB817B814B8CBB9C8B9E5
:10121000C5B90E947D1D9093310380933003DC019A
:10122000ED91FC910995E0913003F0913103048038
:10123000F581E02D09958823C1F19BE233C083B18C
:101240001AB817B814B8DBB9D8B9D5B98F35A9F41D
:1012500064D49093310380933003DC01ED91FC91D1
:101260000995E0913003F09131030480F581E02D80
:1012700009958823D1F099E115C00E948D1E9093A5
:10128000310380933003DC01ED91FC910995E091ED
:101290003003F09131030480F581E02D0995882316
:1012A00021F091E39093180301C080E0DF91CF918A
:1012B00008950895809137038093910110929601CB
:1012C00010929701109295011092940188E184B9CF
:1012D0008FEF85B98FE68CBD08956EBD0DB407FE06
:1012E000FDCF882371F080919701811104C08AE2BB
:1012F0008A95F1F700C02C9885E08A95F1F70000F7
:101300002C9A189902C08EB5089580E00895CF9365
:10131000C82F6091210381E0E0DF81508E3F38F4D7
:101320008FEA94E00197F1F700C00000C3DF6091FD
:10133000220381E0D2DF60911F0381E0CEDF609164
:1013400020038C2FCF91C9CF80E194EA189B03C072
:1013500001970097D9F787EC90E00197F1F700C06B
:101360000000189930C08FE891E00197F1F700C0B4
:1013700000008FE99FE00197F1F700C00000189B83
:1013800022C060E080E0A9DF6FEF80E0A6DF81305F
:10139000D1F46FEFA2DF61E481E09FDF6AE581E0D5
:1013A0009CDF6FEF81E099DF6FEF81E096DF95E3DF
:1013B0009A95F1F700008CB58F7B8CBD84B1877E48
:1013C00084B987E108951CBC80E008951F93CF93F2
:1013D000DF93189BFECF8AEB98E8189B06C0019715
:1013E0000097D9F788EC8093940180911E0388239D
:1013F00009F464C2823009F463C2843049F0863053
:1014000089F0813089F0DFEF833021F4DFE90DC00E
:10141000DFEB0BC0853011F4DFE307C0873029F420
:10142000DFE603C0DFE701C0DFEC80911C0384FD31
:10143000DE7F85FDD77F90911D0396FDDD7F97FDB3
:10144000DB7F80FD02C0CFEF01C0CFEB81FDCF7D00
:1014500082FDCF7783FDCF7E86FDCB7F87FDC77F63
:1014600090FDCE7F91FDCD7F8CB580648CBD84B125
:10147000886184B98091940187FD1CDF809194017B
:101480008F5F809394016FEF81E027DF813009F057
:1014900007C21092940180919501813009F04AC1F0
:1014A00063EF1BDF182F6AE581E017DF812F90E0E3
:1014B000FC01E054F109E031F10508F0F1C1EA5A0C
:1014C000FF4F0C9401216D2F81E007DF8093FE0216
:1014D00080918F01882331F0815080938F016C2F90
:1014E00081E02AC080919001882331F0815080935F
:1014F00090016C2F80E029C0809197018230C9F45F
:101500006C2F81E0EADE8093100381E000DF8091A0
:1015100097018230E9F4C2EFD2E0699181E0DDDE2B
:1015200082E0CD3FD807C9F76091FD0280E0D5DEAB
:101530000FC0813039F46C2FD0DE8093100380E02F
:10154000E6DE06C0811104C06C2FC7DE8093100355
:10155000809193018F5F809393018B3008F4A0C139
:1015600010929301109295019BC160E081E0B5DE7D
:1015700080939501813099F480919701823011F028
:10158000C4E007C0CCE060E081E0A7DEC150D9F73D
:10159000F7CF60E081E0A1DEC150D9F7A6C060E0DE
:1015A00081E09BDE8A3561F460E081E096DE60E0F8
:1015B00081E093DE60E081E090DE60E080E08DDE3F
:1015C00080919601809397016BC160E081E085DE98
:1015D00060E081E082DE62E010C081E080939001F3
:1015E00090919601911102C0809396016FEF81E076
:1015F00074DE6FEF81E071DE63E081E06EDE60E05B
:1016000081E06BDE60E081E068DE6AE56FC060E08B
:1016100081E063DE809396018091910181111092A7
:101620009601C4E060E081E058DEC150D9F75DC0AA
:1016300081E08093900180919101882311F060E016
:1016400007C080913303882311F063E001C061E09B
:1016500081E043DE62E081E040DE61E08091910163
:10166000811160E081E039DE62E027C060E081E066
:1016700034DE811102C0CAE001C0C4E160E081E053
:101680002CDE61E081E029DECA3011F462E001C0A5
:1016900061E081E022DE61E0CA3009F460E081E0CF
:1016A0001CDE6C2F23C060E081E017DE60E081E08B
:1016B00014DE62E081E011DE60E081E00EDE61E0D8
:1016C00012C060E081E009DE811102C0C4E001C007
:1016D000C7E060E081E001DE60E081E0FEDD6C2FCC
:1016E00081E0FBDD60E081E0F8DD60E080E0F5DDD9
:1016F000D7C060E081E0F1DD61E081E0EEDD6FEF19
:1017000081E0EBDD6FEF81E0E8DD6FEF81E0E5DDAB
:101710006FEFECCF81E080938F0182E080939601A0
:1017200060E081E0DADDC4E060E081E0D6DDC15058
:10173000D9F7DBCF8111B4C080919701882381F064
:1017400090913A03993721F4823061F063E70FC03A
:10175000933351F09F3751F09335C1F763E507C0DC
:1017600061E405C069E703C063E201C063EE9091E4
:101770009201891729F0909190019E5F90939001BA
:101780008093920181E0A9DD182F6AE581E0A5DD53
:101790006D2F81E0133471F5A0DD809395018111E7
:1017A00002C060E025C080918F0181112AC0809124
:1017B0009001811130C080919701823009F04AC0B8
:1017C0006C2F81E08ADD8093100381E0A0DD8091A1
:1017D0009701823009F04DC0C2EFD2E0699181E0FB
:1017E0007CDD82E0CD3FD807C9F76091FD0280E043
:1017F00074DD3FC072DD8093FE0280918F018823EB
:1018000031F0815080938F016C2F81E026C0809150
:101810009001882331F08150809390016C2F80E0FB
:1018200025C0809197018230A9F46C2F81E055DDAD
:101830008093100381E06BDD809197018230C9F4C1
:10184000C2EFD2E0699181E048DD82E0CD3FD80768
:10185000C9F7CBCF813039F46C2F3FDD8093100373
:1018600080E055DD06C0811104C06C2F36DD809309
:10187000100340913703242F30E08091910190E0D4
:101880002817390769F04093910181E09091970101
:10189000911180E08093970180939201809396014B
:1018A00085E38A95F1F700008CB58F7B8CBD84B100
:1018B000877E84B9DF91CF911F910895DFEEB5CD7A
:1018C000DFEDB3CD80E091E00895089581E080934D
:1018D0009801089510929801809198018823E1F36E
:1018E00081E0089510929801809198018823E1F396
:1018F0008FE99FE00197F1F700C0000085E1E9E979
:10190000F1E0DF011D928A95E9F780E880939C0160
:1019100080939B0180939A018093990180911F038A
:1019200092E9980F943210F08093990180912103ED
:1019300092E9980F943210F080939A0180912003DD
:1019400092E9980F943218F0809580939B018091D2
:10195000220392E9980F943218F0809580939C01AD
:101960008CE080939D0188E080939E018FEF8093AF
:101970009F018093A00180911C0387FF03C09DEF0E
:1019800090939F0185FF05C090919F019B7F90934D
:101990009F0190912F0392FF05C090919F01977F27
:1019A00090939F0184FF05C090919F019F7E90932B
:1019B0009F0186FF05C090919F019F7D90939F019D
:1019C00090911E03943021F490919F019F7B05C05C
:1019D000923031F490919F019F7790939F0109C0BD
:1019E000911102C09EEF03C0963019F49DEF9093C1
:1019F000A00120911D0321FF05C09091A0019B7FB4
:101A00009093A00120FF05C09091A0019F77909333
:101A1000A00180FF05C09091A0019F7B9093A00141
:101A200081FF05C09091A0019F7E9093A00182FF4D
:101A300005C09091A0019F7D9093A00183FF05C0F8
:101A40008091A001877F8093A00180913D03811147
:101A500045C080919A01869586958695282F287194
:101A6000B8E02B9F9001112490919901969596953D
:101A7000922B90939901867020E2829FC0011124DD
:101A800090919B0196959695982B90939A018091B1
:101A9000FC02869586958695282F287194E0299FCB
:101AA0009001112490919C01969596959695922B74
:101AB00090939B01A0E28A9FC00111249091FD02A6
:101AC000969596959695982B90939C0180919F0161
:101AD00080939D018091A00180939E0165E189E939
:101AE00091E014C30F931F938BB183608BB98AB1BC
:101AF0008C7F8AB985E1E9E9F1E0DF011D928A95E1
:101B0000E9F706E61CE020E131E045E1BF0180E3B2
:101B100091E003D31F910F9160C388E091E0089595
:101B20002F923F924F925F926F927F928F929F92ED
:101B3000AF92BF92CF92DF92EF92FF920F931F93DB
:101B4000CF93DF93CDB7DEB7E2970FB6F894DEBF41
:101B50000FBECDBF1DA61CA6A12CB12C78E0E72E90
:101B6000F12CDE01519680E090E02CA53DA5245398
:101B7000354FF901E80FF91FE491ED930196863096
:101B80009105B9F7DE01119680E090E0FC01EF527B
:101B9000FD4FE081F0E0E453FF4FE491ED930196B7
:101BA0008A30910599F7AB817E818989872790E0FA
:101BB0004A2F47702A8528ABFD819701241B3109E4
:101BC0003AAB29AB9C0109A802C0220F331F0A942B
:101BD000E2F702C0959587954A95E2F7822B38A9DE
:101BE000831B8F278B87B9814A814EA78A898427D7
:101BF00090E04B2F4770E8859701241B31093AABE1
:101C000029AB9C0109A802C0220F331F0A94E2F7F6
:101C100002C0959587954A95E2F7822B871B8E2700
:101C20008C873F813FA72B89232730E06985677028
:101C3000C701861B9109A901082E01C0440F0A940F
:101C4000EAF7062E02C0359527950A94E2F7242B71
:101C50002A1B2B272D872C892F2730E04E2F4770EA
:101C60004BA79C81A701BBA54B1B51095AAB49ABA4
:101C7000A90109A802C0440F551F0A94E2F702C047
:101C800035952795BA95E2F7242B291B2A272E870D
:101C90002D895EA5252730E0AFA5A770A7014A1BB7
:101CA00051095AAB49ABA90109A802C0440F551FFD
:101CB0000A94E2F75AAB49AB02C035952795AA952D
:101CC000E2F7242B291B2F272F872E892E2730E080
:101CD000F90102C0EE0FFF1F8A95E2F7CF0102C0A3
:101CE000359527956A95E2F7822B871BF8A98F27F0
:101CF000888B46E050E06BEC72E0CE010B960E94C0
:101D0000072195012F5F3F4F892B79F059012CA5B1
:101D10003DA52A5F3F4F3DA72CA737E0A316B1048E
:101D200009F01FCF1092DC0280C1822F9091CF0268
:101D3000122F00E0090F111D04531F4FF8010491E9
:101D4000F2E0AF0EB11C9091D402FA2DEE27E90F0C
:101D5000F11DE453FF4FE491E027E093C30290911B
:101D6000CD02782E612C690E711C930124533F4FD4
:101D7000F90164909091D602FA2DEE27E90FF11D3A
:101D8000E453FF4FE491E625E093C4029091D00222
:101D9000582E412C490E511C920124533F4FF901FA
:101DA00044909091D802FA2DEE27E90FF11DE453EB
:101DB000FF4FE491E425E093C5029091CB02D82E29
:101DC000C12CC90ED11C960124533F4FF9019491A7
:101DD0002091D302FA2DEE27E20FF11DE453FF4FBD
:101DE000E491E927E093C6029091CC02982E812CD1
:101DF000890E911C940124533F4FF9019491209135
:101E0000D502FA2DEE27E20FF11DE453FF4FE491C6
:101E1000E927E093C7029091CE02888F1F8A2F890D
:101E2000388D290F311D24533F4FF9019491209192
:101E3000DA02FA2DEE27E20FF11DE453FF4FE49191
:101E4000E927E093C8029091D1028A8F198E298DDB
:101E50003A8D290F311D24533F4FF9019491209160
:101E6000D702FA2DEE27E20FF11DE453FF4FE49164
:101E7000E927E093C9029091D2028C8F1B8E2B8DA3
:101E80003C8D290F311D24533F4FF901949120912E
:101E9000D902FA2DEE27E20FF11DE453FF4FE49132
:101EA000E927E093CA029091CB028E8F1D8E2D8D73
:101EB0003E8D290F311D24533F4FF90194912091FC
:101EC000D202FA2DEE27E20FF11DE453FF4FE49109
:101ED000E927E093BB029091D00288A31F8E2F8D3B
:101EE00038A1290F311D24533F4FF90194912091BE
:101EF000D502FA2DEE27E20FF11DE453FF4FE491D6
:101F0000E927E093BC029091CE028AA319A229A1ED
:101F10003AA1290F311D24533F4FF901949120918B
:101F2000D102FA2DEE27E20FF11DE453FF4FE491A9
:101F3000E927E093BD029091CD028CA31BA22BA1B7
:101F40003CA1290F311D24533F4FF9019491209159
:101F5000DA02FA2DEE27E20FF11DE453FF4FE49170
:101F6000E927E093BE029091CF028EA31DA22DA17E
:101F70003EA1290F311D24533F4FF9019491209127
:101F8000D802FA2DEE27E20FF11DE453FF4FE49142
:101F9000E927E093BF029091CC0288A71FA22FA14E
:101FA00038A5290F311D24533F4FF90194912091F9
:101FB000D902FA2DEE27E20FF11DE453FF4FE49111
:101FC000E927E093C0029091D4028AA719A629A517
:101FD0003AA5290F311D24533F4FF90194912091C7
:101FE000D602FA2DEE27E20FF11DE453FF4FE491E4
:101FF000E927E093C1029091D302382E212C290EBB
:10200000311C910124533F4FF90124908091D70254
:10201000FA2DEE27E80FF11DE453FF4FE491E2257E
:10202000E093C20281E08093DC02E2960FB6F8945E
:10203000DEBF0FBECDBFDF91CF911F910F91FF90FB
:10204000EF90DF90CF90BF90AF909F908F907F9058
:102050006F905F904F903F902F900895863028F4B6
:10206000E091DD02F091DE020994089590EC980F62
:10207000963098F480E490E029E430E0F901E81B20
:10208000F90BDC01A554BE4F4C91EF52FD4F40833C
:1020900001968634910591F708959AEB980F963042
:1020A000C8F4809101028093D4028091020280934F
:1020B000D302809103028093D20280910402809324
:1020C000D102809105028093D00280910602809314
:1020D000CF02089594EB980F9430B8F490910702D2
:1020E0009093CE02909108029093CD0290910902B4
:1020F0009093CC0290910A029093CB0270E0680F0B
:10210000711D6035710509F40BCD0895462F50E01F
:10211000BC018BEB91E00C941421EF92FF920F9392
:102120001F93CF93DF9300D0CDB7DEB77C01CB01F7
:102130001092DB021093DE020093DD02642F2983EC
:102140003A83E4DF1092AB0286E0F701A9EAB1E03E
:1021500001900D928A95E1F786E0E9EAF1E0A5EBBE
:10216000B2E001900D928A95E1F72981E22F3A8140
:10217000F32F80E290E02191DC01A554BE4F2C9317
:10218000019680349105B9F72FEF89E698E1215047
:1021900080409040E1F700C0000058985998509A4C
:1021A0008AB18C7F8AB91092BA011092B90184EA7F
:1021B0008093BA001092B90088E48093B80081EC53
:1021C0008093BC0010923D030F900F90DF91CF9150
:1021D0001F910F91FF90EF9008958091DB02811184
:1021E00009C08091BC0084608093BC0081E0809332
:1021F000DB02789408951F920F920FB60F9211246C
:102200002F933F934F935F936F937F938F939F93FE
:10221000AF93BF93EF93FF938091B900887F80398C
:1022200051F188F4803721F128F4803609F188369D
:10223000F9F0DEC08038F9F0883809F4D9C0883761
:1022400009F0D6C015C0803B09F498C038F4803A34
:1022500009F489C0883A09F0CBC090C0803C09F4E9
:10226000C5C0883C09F4C2C0883B09F48EC0C0C018
:102270001092B801BBC08091B801882309F466C0F0
:102280002091BB008091B9019091BA018E3F9105D8
:1022900029F4233019F481E080933D038091B90142
:1022A0009091BA01803F910589F4253511F02A3AC1
:1022B00069F41092DC0286E0E9EAF1E0A5EBB2E015
:1022C00001900D928A95E1F71092B5018091B901C4
:1022D0009091BA01892B91F4243681F48091B60152
:1022E000882361F086E0EFEAF1E0A5EBB2E001902F
:1022F0000D928A95E1F781E08093B5018091DC022F
:102300008823E1F0A091B901B091BA01E091B9013F
:10231000F091BA01E770FF27E554FD4F8081E0910D
:10232000B901F091BA01E770FF27ED53FD4F90819D
:102330008227890FA554BE4F8C934AC0E091B90102
:10234000F091BA01E554FE4F208342C08091BB005A
:1023500090E09093BA018093B90181E08093B80135
:102360001092B70143C06091B7018091B90190917B
:10237000BA019091B701891B79DE38C08091B9010B
:102380009091BA016BDE1092B7018091DC02E0916E
:10239000B901F091BA01E554FE4F8823B1F0808174
:1023A000E091B901F091BA01E770FF27ED53FD4FBD
:1023B0002081E091B901F091BA01E770FF27E5545F
:1023C000FD4F9081821B892701C080818093BB00D3
:1023D0008091B9019091BA0101969093BA018093CE
:1023E000B9018091B7018F5F8093B70185EC01C07F
:1023F00085E88093BC00FF91EF91BF91AF919F91D1
:102400008F917F916F915F914F913F912F910F909D
:102410000FBE0F901F901895089510923E03579885
:102420005F9A089557989BB19BB9811105C081E0CF
:1024300090E0A0E0B0E01CC081E090E0A0E0B0E05F
:102440004F9B1FC000000196A11DB11D883E23E0D7
:102450009207A105B105A1F712C000000196A11DC8
:10246000B11D811523E5920727E0A207B10539F0D8
:102470004F99F3CF883E9340A105B10511F48FEF3A
:10248000089598E080E0880F2BE02A95F1F700008E
:102490004F9981602CE02A95F1F70000915099F74F
:1024A000803461F48FE291E00197F1F700C0000001
:1024B00089B1807880933E0380E4089508953AE0DE
:1024C0003A95F1F700C0579A5F9828E180E093E0D1
:1024D000A0E0B9E0B7FF09C035E03A95F1F7000098
:1024E0005F9A35E13A95F1F708C035E13A95F1F791
:1024F00000005F9A35E03A95F1F700005F98880F89
:10250000991FAA1FBB1F215029F78AE08A95F1F76E
:1025100000C057985F9A81E085CF2F923F924F92EB
:102520005F926F927F928F929F92AF92BF92CF9263
:10253000DF92EF92FF920F931F93CF93DF93CDB76C
:10254000DEB765970FB6F894DEBF0FBECDBF109211
:102550003E0380E067DF8D8B811102C0B0DF8D8B81
:10256000412C512C3201D301C201A66089839A8388
:10257000AB83BC83D301C201AA608D839E83AF83EA
:10258000B887D301C201A96089879A87AB87BC87C6
:10259000D301C201A5608D879E87AF87B88BD30119
:1025A000C201A460898B9A8BAB8BBC8B73016201D7
:1025B0006894E3F8530142016894A1F8689460F8C4
:1025C00022242A94312C9D899F3F09F4D8C09D89EB
:1025D000911102C074DF8D8BA0E1AA95F1F7809173
:1025E0001E03863019F4B301A2012FC0823019F402
:1025F000B501A4012AC0811103C0B701A60125C0FD
:10260000843029F449895A896B897C891EC08530B8
:1026100029F44D855E856F85788917C040E050E0CC
:10262000BA01873029F449855A856B857C850DC0B0
:10263000813029F44D815E816F81788506C08330B9
:1026400021F449815A816B817C8180911C0384FD36
:10265000606187FD606286FD606481FD02C0606824
:1026600002C06068716080FD726083FD746082FDED
:10267000786085FD706180911F0390912003810136
:10268000091B1109222717FD2095322F182B042B27
:10269000152B262B372B4091210350E060E070E092
:1026A00080912203F101E81BF109CF01AA2797FDD0
:1026B000A095BA2FF091FC02742F66275527442766
:1026C000E091FD024E2B5F2BDC0199278827482BD8
:1026D000592B6A2B7B2B579A5F9880E237FF09C0F2
:1026E000F5E0FA95F1F700005F9A95E19A95F1F718
:1026F00008C0A5E1AA95F1F700005F9AB5E0BA9588
:10270000F1F700005F98000F111F221F331F815047
:1027100029F780E277FF09C0E5E0EA95F1F70000CC
:102720005F9AF5E1FA95F1F708C095E19A95F1F70E
:1027300000005F9AA5E0AA95F1F700005F98440FAA
:10274000551F661F771F815029F7BD89B13469F481
:1027500080E1E5E1EA95F1F700005F9AF5E0FA958E
:10276000F1F700005F988150A1F785E08A95F1F7B5
:10277000000057985F9A81E055DE8D8B24CF8091C1
:102780003E03882319F09093FE0202C01092FE02CD
:1027900065960FB6F894DEBF0FBECDBFDF91CF9127
:1027A0001F910F91FF90EF90DF90CF90BF90AF906F
:1027B0009F908F907F906F905F904F903F902F9061
:1027C000089580E02FDE22E02A95F1F700C099B14C
:1027D00020E12A95F1F7811108C04F9B06C0892F8F
:1027E0008095881F8827881F089580E0089586E3D4
:1027F00091E0089508951092420310924103579872
:102800005F9A089520E22A95F1F7579A5F9894E02D
:102810009A95F1F7000098E087FF05C05F9A2DE0D8
:102820002A95F1F708C029E02A95F1F700005F9A90
:1028300024E02A95F1F700005F98880F24E02A959C
:10284000F1F7915049F784E08A95F1F757985F9A2C
:1028500008953AE03A95F1F700C0579A5F9884E0FE
:102860008A95F1F7000020E180E095E097FF05C030
:102870005F9A3DE03A95F1F708C039E03A95F1F7F3
:1028800000005F9A34E03A95F1F700005F98880FF6
:10289000991F34E03A95F1F7215041F728E081E0A3
:1028A00090E087FF05C05F9A3DE03A95F1F708C0D8
:1028B00039E03A95F1F700005F9A34E03A95F1F784
:1028C00000005F98880F991F34E03A95F1F7215086
:1028D00041F784E08A95F1F757985F9A08955798E1
:1028E0009BB19BB98F3F19F44F99FECF14C041E0C3
:1028F00050E060E070E08130A9F44F9B10C0000010
:102900004F5F5F4F6F4F7F4F403D37E0530761058B
:10291000710599F704C041E050E060E070E028E004
:1029200090E026C08230D9F44F9BF9CF00004F5F72
:102930005F4F6F4F7F4F403990ED590793E0690724
:10294000710591F7ECCF00004F5F5F4F6F4F7F4FE6
:10295000403930ED530733E06307710501F34F99B8
:10296000F2CFDDCF3AE03A95F1F700C0215041F0C7
:10297000990F39E03A95F1F74F9BF4CF9160F2CF80
:10298000811107C040325E446105710589F0892FCD
:102990000895813031F4403D574061057105B9F724
:1029A00007C08230A1F74039504D6340710579F777
:1029B0008EEF089582E093DF9AE19A95F1F700C0D7
:1029C00099B1813019F49078903809F080E0089539
:1029D0007F928F929F92AF92BF92CF92DF92EF92AF
:1029E000FF920F931F93CF93DF938BB18F7C8BB9A3
:1029F00025E32A95F1F700008FEFC0E0D6E000E074
:102A000014E0E12CE8E0FE2EC12CDD24D394A12CAF
:102A1000A2E0BA2EBFEC9B2E9FE2892E2FE7722EEA
:102A200020ED37E090E049B1440F440B9F5F9423C1
:102A3000215031092115310509F4F8C1953098F379
:102A40001092400310923F0390911E03963029F498
:102A5000B0924003A0923F0331C0923029F4D0924B
:102A60004003C0923F032AC0911105C0F092400379
:102A7000E0923F0323C0943029F410934003009365
:102A80003F031CC0953029F4D0934003C0933F030B
:102A900015C0973019F420E03AE00CC0913019F4D9
:102AA00020E039E007C0933049F420913F03309192
:102AB000400335603093400320933F0390911C0303
:102AC00094FF09C020913F0330914003306230935E
:102AD000400320933F0397FF09C020913F033091AB
:102AE000400320613093400320933F0396FF09C0C9
:102AF00020913F03309140032062309340032093A4
:102B00003F0340911D0340FD04C020912203243661
:102B100048F420913F0330914003286030934003F4
:102B200020933F0393FD04C020912203273948F0EE
:102B300020913F0330914003246030934003209361
:102B40003F0392FD04C020912103243648F42091D4
:102B50003F033091400322603093400320933F03B2
:102B600041FD04C020912103273948F020913F0303
:102B70003091400321603093400320933F0391FF45
:102B800009C020913F0330914003306830934003E7
:102B900020933F0390FF09C020913F0330914003F1
:102BA00030643093400320933F0395FF09C0209188
:102BB0003F033091400330613093400320933F0343
:102BC00090911F03903D10F090921F0390911F036E
:102BD0009F3210F480921F0390912003903D10F0DB
:102BE00090922003909120039F3210F48092200352
:102BF00020911F03205830E0322F2227909120038C
:102C0000472D491B242B309344032093430367DE55
:102C1000813009F051C08AE08A95F1F700C0579AD7
:102C20005F9894E09A95F1F7000020E180913F03CE
:102C30009091400397FF05C05F9AEDE0EA95F1F7A8
:102C400008C0F9E0FA95F1F700C05F9A34E03A95D0
:102C5000F1F700005F9880913F0390914003880F47
:102C6000991F9093400380933F032150F9F620E190
:102C7000809143039091440397FF05C05F9A4DE014
:102C80004A95F1F708C089E08A95F1F700C05F9A8C
:102C900094E09A95F1F700005F988091430390913A
:102CA0004403880F991F909344038093430321505A
:102CB000F9F600C000C089C0811103C0CADD81E0FF
:102CC000AFCE8F3F71F4DF91CF911F910F91FF90A5
:102CD000EF90DF90CF90BF90AF909F908F907F90BC
:102CE000B8CD823009F075C0E3E0F1E03197F1F73B
:102CF00000C0000080914103882309F452C0FAE229
:102D0000FA95F1F700C0579A5F9822E02A95F1F7FB
:102D1000000080E091E020E827FF0AC032E03A9509
:102D2000F1F700005F9A4DE04A95F1F7000008C006
:102D3000E8E0EA95F1F700C05F9AF5E0FA95F1F75F
:102D40005F98269529F032E03A95F1F700C001C06E
:102D500020E80197009701F700C000C0000088E05C
:102D600098EB97FF05C05F9A4DE04A95F1F708C0D0
:102D7000E9E0EA95F1F700005F9AF4E0FA95F1F7DF
:102D800000005F98990F24E02A95F1F7815049F7E8
:102D900034E03A95F1F7000057985F9A109241039A
:102DA0008ECF40E24A95F1F7579A80E191E05F9A21
:102DB000E4E0EA95F1F75F98FCE0FA95F1F7019706
:102DC0000097A9F725E02A95F1F7000057985F9A38
:102DD00076CF833041F587EF90E00197F1F700C09F
:102DE000000080E07CDDE8EDFFE03197F1F780380E
:102DF00029F481E08093410388EB13C08E3F11F4E6
:102E000081EE0FC08B3111F480E00BC0813029F4CA
:102E10008FEF8093FE028BEE04C0811150CF109291
:102E2000FE02F0DC4CCF8E3F09F049CFDF91CF910D
:102E30001F910F91FF90EF90DF90CF90BF90AF90D8
:102E40009F908F907F9008958EE391E0089508956C
:102E50008AB18C708AB98BB1836F8BB946983E98D2
:102E60001092E1021092E20285E0809381001092BC
:102E7000800082E084BD80936E008FEF87BD10924A
:102E8000E0020895469A8AB1806C8AB98BB18F7C32
:102E90008BB98FE99FE00197F1F700C0000089B17D
:102EA00080738033A1F48BB180638BB9369B08C0EB
:102EB0008FEF9CE7369B0DC001970097D9F707C0AD
:102EC0008FEF9CE7369912C001970097D9F780E001
:102ED00008959FE724ED80E0915020408040E1F785
:102EE00000C00000369BECCF81E008958FEA94E0AB
:102EF0000197F1F700C0000086B186FB882780F9B2
:102F000091E0892708951F920F920FB60F92112416
:102F10008F93889A85E08A95F1F70000889883EF6F
:102F2000809358018BB981E08093E0028091E102A7
:102F3000882319F082E08093E0028F910F900FBEFA
:102F40000F901F90189583EF80935901809358013B
:102F500080935701809356018AB1836F8AB980911B
:102F6000E002882321F081508093E00289C085B57A
:102F7000856085BD789480911C0385FF05C0909184
:102F800059019E7F9093590180FF05C0909159018E
:102F90009D7F9093590130915901932F9F73909386
:102FA000590187FD02C093EF01C092EF9093580141
:102FB00081FF05C0909158019D7F90935801909199
:102FC0001E032FEF290F233050F420915601206863
:102FD00020935601209158012F77209358012BEF11
:102FE000290F233068F42091560120642093560164
:102FF000209158012F7B20935801973089F402C00B
:1030000091110EC0209156012061209356013F720C
:1030100030935901209158012F7E2093580102C00E
:10302000913081F39350933078F4909156019062EF
:1030300090935601909159019F7D909359019091E1
:1030400058019F7D9093580186FF05C090915701CC
:103050009F7E9093570183FF05C0909157019F7DFC
:103060009093570182FF05C0909157019F7B9093E9
:10307000570184FF05C0809157018F7780935701D6
:103080009091E20280915901923059F49091580147
:10309000F92F369BFECFFBB9F82F3699FECFFBB93F
:1030A00034C0933009F48BB990915901F92F3699B6
:1030B000FECFFBB92091E20280915801263009F041
:1030C00020C0E92FEF70E093DF02F82F369BFECF90
:1030D000FBB9F92F3699FECFFBB9F82F369BFECFFF
:1030E000FBB9FE2F3699FECFFBB990915701F92F0E
:1030F000369BFECFFBB990915601F92F3699FECF42
:10310000FBB9F82F369BFECFFBB9A99A16BC15BCAC
:10311000F89408958091E202811152C01092E10268
:103120008BB18F738BB92FE784ED90E021508040F5
:103130009040E1F700C000008FEF9CE736990BC08C
:10314000369903C001970097D9F782E024C0019710
:10315000009709F449C03699FACF8FEF9CE736996A
:1031600003C001970097D9F781E090E0369B06C035
:10317000019681152DE79207C9F704C0893E23E027
:10318000920710F083E007C09C01235031092D34D1
:10319000310520F486E08093E2020BC0815591094D
:1031A0008739934030F483E08093E20281E080939A
:1031B000E1028FE39FE10197F1F700C0000008955D
:1031C00081E086BB80E69AEE909385008093840030
:1031D000BADE8091E1028111B6DE8FEA94E00197B8
:1031E000F1F700C00000B0991092E202089586E461
:1031F00091E0089508951092E50281E08093E6023F
:10320000579856988AB18F7C8AB93E985E9A5F9A91
:103210008BB180638BB9469A08954E9BFECF8FEC9D
:1032200097E00197F1F700C000004F9B17C04E993F
:1032300015C04E9BFECF4F99FECF8FE891E00197CE
:10324000F1F700C000004F9903C081E08093ED02C8
:103250004F9B06C082E08093ED0202C080E008959B
:1032600081E0089525E02A95F1F7000021E0209300
:10327000E60220E130E041E050E0BA016823792322
:10328000672B11F05D9801C05D9A61E070E04F9B83
:1032900003C06F5F7F4FFBCF69397A4350F4440F0F
:1032A000551F215031092115310539F784E08093EC
:1032B000E602089585E08A95F1F7000081E08093A9
:1032C000E6021092E4021092E3028BE795E124E01B
:1032D0004E9907C04F992093E60201970097C1F7D6
:1032E00030C043E064E085E08A95F1F7000080910A
:1032F000E3029091E4029E5F9093E4028093E302E4
:103300005CE081E090E02091E3023091E402282328
:103310003923232B11F05D9801C05D9A880F991F06
:103320004F99FECF515079F76093E6025D9A83E89A
:1033300093E04E9904C001970097D9F702C041501D
:1033400091F608950F931F93CF93DF9390911E03EF
:10335000992309F40FC2943009F40FC2963059F042
:103360009230B1F09730B9F020E030E0953031F490
:1033700020E630E012C020E430E00FC0913019F4B4
:1033800020E930E00AC0933041F420EA30E005C083
:1033900020E830E002C020E530E090911C0395FD6C
:1033A000286094FD24604091ED02423091F591FD3A
:1033B000216090FD22606091230361110EC0609135
:1033C000240361110AC04091370341112AC0609162
:1033D0001F0370E06115710531F19370E1E0F0E0D9
:1033E00011F0E0E0F0E0F195E195F10991EE961B26
:1033F000990F911D692F91FB67F992FB66F993FB79
:1034000065F995FB63F996FB62F997FB61F970E04A
:103410005DC160E070E0E0E0F0E0413009F056C1ED
:1034200005C060E070E0E0E0F0E050C190FD216098
:1034300092FD226093FD316091FD326096FD346013
:1034400097FD38604091E602909137034430B9F01F
:10345000911105C09091E5029F5F9093E5029091D4
:10346000E502923309F4306844E64093EA0290EAB8
:103470009093E9024093E8029093E70227C13068F5
:10348000992361F091E09093E6023F771092E50274
:10349000AFE3BCE91197F1F700C00000909123035E
:1034A000911143C09091240391113FC050911F038B
:1034B000A09121030091200340912203503831F460
:1034C000A03821F4003811F4403871F19A2FC52F3B
:1034D000D0E0C058D109D7FF03C0D195C195D1091B
:1034E000B0E0A058B109B7FF03C0B195A195B109EB
:1034F000CA1718F0952FC0E001C0C1E0142FA02F0B
:10350000B0E0A058B109B7FF03C0B195A195B109CA
:1035100050E04058510957FF03C05195419551095A
:10352000A41728F0102F03C090E810E8C0E04091E5
:103530003A03443419F041E04C2701C040E0C42F65
:10354000C1704091E902411710F41093E9024091D3
:10355000EA02141710F41093EA024091E7024917A7
:1035600010F49093E7024091E802941710F49093BE
:10357000E802CC23A1F0A12FB0E04091E90250E095
:103580004E505109A417B5070CF0EEC04091EA0265
:1035900050E0425F5F4F4A175B070CF0E8C0509164
:1035A000EB025117A8F4412F451B542F550F511D05
:1035B000452F51FB47F952FB46F953FB45F955FBA3
:1035C00043F956FB42F957FB41F950E04E7F13C0D7
:1035D000511B550F511D052E01FA57F902FA56F9E4
:1035E00003FA55F905FA53F906FA52F907FA51F9AF
:1035F0005160452F50E0CC23A1F0C92FD0E0A0911D
:10360000E702B0E01E97CA17DB0714F05E6F34C004
:10361000A091E802B0E01E96AC17BD0714F05F6FF2
:103620002BC0A091EC02A917A8F4B92FBA1BAB2F9D
:10363000AA0FA11D0A2E01FAA7F902FAA6F903FAA8
:10364000A5F905FAA3F906FAA2F907FAA1F95A2B86
:103650005E7F12C0A91BAA0FA11D0A2E01FAA7F9AD
:1036600002FAA6F903FAA5F905FAA3F906FAA2F9EE
:1036700007FAA1F951605A2B1093EB029093EC02D8
:10368000A091E302B091E402ED01DB7FCD2B19F4B0
:103690004D775D770FC0A11512E0B10719F44D7396
:1036A0005D7308C0A115B64019F04D7F5D7F02C063
:1036B0004D735D712227307F90911C03A92FAF704D
:1036C00009F0326095FF04C0316002C040E050E074
:1036D0009091ED02913011F0D8E001C0D0E1882343
:1036E00041F083E893E04E9906C001970097D9F71F
:1036F00047C04E9BFECF8BB180638BB9C0E081E0A9
:1037000090E0DC01A223B323AB2B11F05D9801C044
:103710005D9ADC01AE23BF23AB2B11F05C9801C096
:103720005C9ADC01A623B723AB2B11F0469801C0AD
:10373000469A880F991F4F99FECFA091ED02A130B4
:1037400011F44F9BFECFCF5FCD17D8F237FF08C0E3
:103750008091E602813011F4ADDD02C0CA0182DD44
:103760005D985C9846980CC04EEF50E046CF4FEF06
:1037700050E043CF20E130E010CE20E230E00DCE2B
:10378000DF91CF911F910F910895559A549A3E9AC7
:1037900080E090E0D7DD8091ED02823019F481E085
:1037A00090E0D0DD87EC90E00197F1F700C00000D9
:1037B00008958AE591E0089508955198599A3E98A0
:1037C000469A0895509A81E090E0499909C001967F
:1037D00081152DE79207C9F703C0499B06C00196E2
:1037E00081153DE79307C9F713C15898369909C069
:1037F000019681152DE79207C9F703C0369B09C0D2
:10380000019681153DE79307C9F703C0369905C0B6
:10381000019681152DE79207C9F720911E032430E8
:1038200011F4589A05C0589803C0369B09C00196F8
:1038300081153DE79307C9F703C0369905C0019686
:1038400081153DE79307C9F7211102C0589A05C0B9
:10385000589803C0369B09C0019681153DE7930730
:10386000C9F703C0369905C0019681153DE7930756
:10387000C9F7223011F4589A05C0589803C0369BF6
:1038800009C0019681153DE79307C9F703C0369932
:1038900005C0019681153DE79307C9F7263011F45D
:1038A000589A05C0589803C0369B09C001968115E7
:1038B0002DE79207C9F703C0369905C00196811517
:1038C0003DE79307C9F720911C0320FF02C0589AD7
:1038D00005C0589803C0369B09C0019681152DE795
:1038E0009207C9F703C0369905C0019681153DE7D7
:1038F0009307C9F720911C0321FF02C0589A05C005
:10390000589803C0369B09C0019681152DE7920790
:10391000C9F703C0369905C0019681153DE79307A5
:10392000C9F720911C0327FF02C0589A05C0589878
:1039300003C0369B09C0019681152DE79207C9F790
:1039400003C0369905C0019681153DE79307C9F775
:1039500020911C0325FF02C0589A05C0589803C047
:10396000369B09C0019681152DE79207C9F703C060
:10397000369905C0019681153DE79307C9F7209157
:103980001C0324FF02C0589A05C0589803C0369BF8
:1039900009C0019681152DE79207C9F703C0369932
:1039A00005C0019681153DE79307C9F720911D03D6
:1039B00021FF02C0589A05C0589803C0369B09C021
:1039C000019681153DE79307C9F703C0369905C0F5
:1039D000019681153DE79307C9F720FF02C0589A69
:1039E00005C0589803C0369B09C0019681152DE784
:1039F0009207C9F703C0369905C0019681153DE7C6
:103A00009307C9F785E58A95F1F70000589A08955C
:103A100008958FEF9CE7369903C001970097D9F777
:103A20008FE097E20197F1F700C000008FEF9CE76D
:103A3000369903C001970097D9F7889A95E09A952F
:103A4000F1F7000088988FE891E00197F1F700C046
:103A50000000369902C080E00895889A95E09A9512
:103A6000F1F700008898889A85E08A95F1F70000C0
:103A700088988FEC97E00197F1F700C00000369925
:103A8000EACF499BE8CF889A95E09A95F1F7000034
:103A90008898889A85E08A95F1F700008898889A36
:103AA00095E09A95F1F7000088988FEC97E00197E0
:103AB000F1F700C000004999CECF889A95E09A9519
:103AC000F1F700008898889A85E08A95F1F7000060
:103AD0008898889A95E09A95F1F700008898889AD6
:103AE00085E08A95F1F7000088988FE39FE10197C0
:103AF000F1F700C0000081E0089582E691E00895AA
:103B0000089510927301109272010895409120035C
:103B10009091220321E09E3408F020E081E04E34B1
:103B200008F080E0282B80912103222341F08E347D
:103B300020F030911F033E3410F487E03CC031E0A8
:103B4000933B08F430E091E0433B08F490E0932B82
:103B500041F08E3420F030911F033E3410F485E0A4
:103B60002AC0222341F0833B20F430911F03333BD2
:103B700010F081E020C0992341F0833B20F4309184
:103B80001F03333B10F083E016C030911F038E34C7
:103B900010F03E3410F486E00EC0833B10F4333B4B
:103BA00010F082E008C0222319F010921E0305C015
:103BB000992319F084E080931E0380911E038430C2
:103BC00081F0823081F0882381F0863081F0873067
:103BD00081F0853081F0813081F0833081F020E008
:103BE0000FC020E40DC020E10BC020E809C020E296
:103BF00007C020EA05C020E603C020E901C020E597
:103C000040911C03642F617040FD02C050E001C070
:103C100050E48091720190917301342F32708130A1
:103C2000910571F4611121603111226030912F03EF
:103C300032FD206C44FD206345FF1BC0206E19C07F
:103C40003111216042FD226043FD02C030E001C01D
:103C500030E846FD306447FD306240911D0340FD71
:103C6000306141FD386046FD346047FF03C032607B
:103C700001C030E06BB1422F4095636F462368B1BD
:103C8000752F709560647623E5B1632F6095EE6FB4
:103C90006E23019719F483E0842701C0842F8BB928
:103CA0008091EE029091EF02892B19F48BB1836021
:103CB0008BB978B965B980917201909173010197C0
:103CC00009F423602AB98091EE029091EF02892BCA
:103CD00019F48AB183608AB957B934B9089583B1A8
:103CE0008E3F59F481E090E09093730180937201CC
:103CF0009093EF028093EE02089583B18C3F59F4C4
:103D000081E090E090937301809372011092EF0232
:103D10001092EE02089580E008958AE691E00895F9
:103D200080B3806680BB81B3806681BB089520B379
:103D300080B38F7980BB9FB120BB907681E009F47E
:103D400080E008959FB1907651F420E137E29FB171
:103D5000907639F42150310921153105C1F78EEFE4
:103D6000089596E09A95F1F700C09FB19076B9F763
:103D700090E19A95F1F7EFEFF2E040E0481709F48F
:103D8000B1C0908196959083000000007D9B03C098
:103D900000C000C002C09068908394E19A95F1F74A
:103DA000908196959083000000007D9B03C000C029
:103DB00000C002C09068908394E19A95F1F79081D9
:103DC00096959083000000007D9B03C000C000C05A
:103DD00002C09068908394E19A95F1F7908196954E
:103DE0009083000000007D9B03C000C000C002C0A3
:103DF0009068908394E19A95F1F7908196959083DD
:103E0000000000007D9B03C000C000C002C090689D
:103E1000908394E19A95F1F79081969590830000B4
:103E200000007D9B03C000C000C002C0906890836A
:103E300094E19A95F1F790819695908300000000A7
:103E40007D9B03C000C000C002C09068908394E1D5
:103E50009A95F1F7908196959083000000007D9BE4
:103E600003C000C000C002C0906890837D9B17C053
:103E700020E030E07D9B0BC02F5F3F4F2C3D95E055
:103E80003907C1F704C07D9906C02F5F3F4F2C3D15
:103E900095E03907C1F796E09A95F1F720C020E048
:103EA00030E07D990BC02F5F3F4F2C3D95E03907E7
:103EB000C1F704C07D9B0BC02F5F3F4F2C3D95E0A9
:103EC0003907C1F704C07D9906C02F5F3F4F2C3DD5
:103ED00095E03907C1F795E09A95F1F700004F5F3B
:103EE00031964CCF509885E38A95F1F70000809188
:103EF000FF02089590B39F7990BB20E137E29FB114
:103F0000907639F42150310921153105C1F78FEF31
:103F100008959AE19A95F1F700C090B3906690BB2E
:103F200091B39F7991BB27E02A95F1F798E08D9A9C
:103F30002AE02A95F1F700C080FD8D982AE02A95A5
:103F4000F1F700C08695915091F78D9A85E08A959A
:103F5000F1F700008D9890E19A95F1F781B38066B2
:103F600081BB80B38F7980BB2AE12A95F1F700C02D
:103F700080E0089584E791E00895982F973058F5F0
:103F80009093E900981739F07091EC002091ED00C2
:103F90005091F00003C0242F762F50E021FF19C06C
:103FA0003091EB003E7F3093EB003091ED003D7F90
:103FB0003093ED003091EB0031603093EB00709363
:103FC000EC002093ED005093F0002091EE0027FFCD
:103FD00007C09F5FD3CF8F708093E90081E0089581
:103FE00080E008951CD023D08091E0008160809310
:103FF000E0008091D8008F778093D80080914503AE
:1040000082FF19BC8091D7008E7F8093D70080916A
:10401000D8008F7E8093D800109249030895E8ED70
:10402000F0E080818E7F80831092E20008951092EC
:10403000DA001092E10008951F920F920FB60F92CE
:1040400011242F933F934F935F936F937F938F939D
:104050009F93AF93BF93EF93FF938091E10082FF13
:104060000AC08091E20082FF06C08091E1008B7F50
:104070008093E100C5D08091DA0080FF25C0809157
:10408000D80080FF21C08091DA008E7F8093DA0013
:104090008091D90080FF11C08091450382FF05C047
:1040A00081E080934A03ACD00FC080E189BD82E1FA
:1040B00089BD09B400FEFDCFF3CF8091450382FF97
:1040C00019BC10924A039CD08091E10080FF1BC074
:1040D0008091E20080FF17C08091E2008E7F809384
:1040E000E2008091E20080618093E2008091D8003C
:1040F00080628093D8008091450382FF19BC85E0DF
:1041000080934A037DD08091E10084FF33C0809189
:10411000E20084FF2FC08091450382FF19C0809187
:10412000D8008F7D8093D8008091E1008F7E8093AE
:10413000E1008091E2008F7E8093E2008091E200B6
:1041400081608093E2008091460381110DC008C018
:1041500080E189BD82E189BD09B400FEFDCFDFCFDA
:104160008091E30087FF02C084E001C081E080937A
:104170004A0346D08091E10083FF31C08091E20084
:1041800083FF2DC08091E100877F8093E10082E072
:1041900080934A03109246038091E1008E7F8093C2
:1041A000E1008091E2008E7F8093E2008091E20046
:1041B00080618093E20020917C0130E088E090E013
:1041C00040E08217930720F44F5F880F991FF9CFC3
:1041D0004295407F426060E080E0CFDE11D0FF91E9
:1041E000EF91BF91AF919F918F917F916F915F916F
:1041F0004F913F912F910F900FBE0F901F901895E8
:104200000895EE0FFF1F0590F491E02D0994FB0136
:10421000DC0104C08D910190801921F4415050407F
:10422000C8F7881B990B0895FB01DC0102C00190BF
:0E4230000D9241505040D8F70895F894FFCFFA
:10423E005A09E609A4095909720D720C6A0C650C2B
:10424E00E02080E02080E02080E020800000000060
:10425E00E02080E02080E02080E020800000000050
:10426E000000A42001010D128D12E1130C12FB139C
:10427E00E814DA14FA1328178A1842172717FFF3CF
:10428E00FFF3FFC3FFFFF3F3F3F3FB18C51B0D1989
:10429E00FA18DD1BE21B091DDC1B811D861D6F1E1E
:0E42AE00801D0100901EA21E7A1F971E0800A0
:00000001FF
