:1000000091C50000ABC50000A9C50000A7C5000050
:10001000A5C50000A3C50000A1C500009FC5000044
:100020009DC500009BC500000C94032897C50000E7
:1000300095C5000093C5000091C500008FC5000064
:100040008DC500008CC5000089C5000087C5000073
:1000500085C5000083C5000081C500007FC5000084
:100060007DC500007BC5000079C5000077C5000094
:1000700075C5000073C5000071C500006FC50000A4
:100080006DC500006BC5000069C5000067C50000B4
:100090000C944F1363C5000061C500005FC50000EC
:1000A0005DC500005BC5000059C50000330D3B0D68
:1000B000B10C030D550D660D840DA10D9E0E9E0E07
:1000C0009E0E9E0EAF0DC70D9E0ED80D084AD73B53
:1000D0003BCE016E84BCBFFDC12F3D6C74319ABD17
:1000E00056833DDA3D00C77F11BED9E4BB4C3E913B
:1000F0006BAAAABE000000803F0070510386400D2D
:100100004FEB3ECCD18735BDF50B5ED0F8F2D5E292
:100110006C310CADFC21C378C106C24C55E64A34A3
:1001200048111EDAE71A84A096A7E37FAF639CFA12
:10013000235B79C89EBAB2C922124BB3A1B6324929
:10014000A2E189391066C5078F54EA91CA3FF919AF
:10015000F0D746BC281B61E82F6AAE9DF64E091405
:10016000774DDB1F2E7B7CF143A300B8138C85B940
:10017000297588FDD2561C509741E53B60B5C06497
:10018000EE98D62D25A4AACD7DA883C6ABBE4499F2
:10019000263CCE9FBFD3CB767A7E82018A9A801D81
:1001A0000EB05CD43862F430E08E53B70257ACA680
:1001B000520A6D9265172433457274B1B4F75DED40
:1001C0002CFF47375A90BBDF2A165995D9C42767A9
:1001D00073C768FEA5DD6B5F93D8EC053A8D6EFBA7
:1001E0003DA96936F394DEEF156F8B9B080FDC8118
:1001F000182004E471CFE92B425801A0A962D63F30
:1002000085A7B6D4FA15661709BD5D143426597250
:100210009154064FF8B05B7493998CF245CDEA4E39
:10022000AD104AE5CAEEDFC66F9F888E02CC08A8E3
:1002300077946D21B128E4397996607181162EE6A4
:1002400078B9C4469A42AEB77C43B3221A86C2320A
:100250003D2D9CD229E9639BD131385E1E3641BBCE
:1002600003182B3EBF6861FC52C0DEE00A58135AE7
:1002700000BE1C900E5312FDE26EBACE2427447FBE
:1002800087A3A1D55040E3F983F7C7A235C8DB198E
:10029000AB2F1125ED339E55E148AF7384DA2AAABE
:1002A00051EB9D95B2CBE77080FE4C6504EFC5F134
:1002B000C33AB4F55F2389DD30A58BD3F6DC4D64FA
:1002C000D7F08FEC56375CA40D07768A2C0BB5D887
:1002D000C11FE83BF44B1B476C49677B92CF757E8F
:1002E00020D97D3C977AD0056B0F1DFB8298578DE6
:1002F000F36ABCACC9A6FFB8690C4C4D72075A49E9
:10030000338DA2AB463D630DA097FFF0F5FAC0E92F
:10031000DB62E4E17443DC86182937F406E2ED6F12
:1003200090481E2D1DEA739454DF25F64727D911F6
:1003300077C9841C5B5C5181A6223E2496C88AEC56
:10034000827C09B8454A57BB2F50758E61708C6C02
:10035000AFD0FDB41BAEDEFE3BB536BD55010E9CE5
:1003600041565FB3260383BA134BCAC50AF860A58A
:10037000B9C7C39832FB12F9A792AA68F3787E0531
:10038000202102E8BFF2B0598FD2CB876515F11A50
:10039000B230ADEE58A38B661F2CD75D1985A8E649
:1003A000D36BA10C91936A5E0B79E3DD004F3C891E
:1003B0006E7169A9AC40E59928C6314E7ACD089E88
:1003C0007DEF17FC88D8A46D4495D1B7D49BBE2A85
:1003D00034642BCF2EEB38CE23E03A3FF77B9F10CF
:1003E00053BC526716E7807604C4B6C1C27F9ADA5E
:1003F000D53942149DB10F35D6CCB9DA380CA29C50
:10040000091F06B1B6FD1A692330C4DE01D1F458C4
:1004100029371C7DD5BFFFBDC8C9CF65BE7B789786
:10042000986708B32657F7FA40AD8E75A67CDB9126
:100430008B5199D4177A908DCE63CB4EA0AB183ADE
:100440005B507F2174C1BBB8B7BA0B359531599A4F
:100450004D04071E5A7613F37183D08603A83942E0
:10046000AA28E6E4D85DD3D06E6F96FB5EBC56C278
:100470005F859BE7AFD23B846AA753C54449A5F982
:1004800036723D2CD91BA1F54F939D68474116CA82
:100490002A4CA387D6E5192E77156D70C0DFB20000
:1004A00046EDC66C4360922DA922458F3455AEA40B
:1004B0000A6632E0DC02ACE8208C89624AFEEEC3B8
:1004C000E33CF17905E9F62733CCF29E11817E8079
:1004D000108A829F480DD7B4FC2FB5C7DD88146BF6
:1004E0002B54EA1D945CB0EF1224CDEBE1E264736F
:1004F0003F0E5261253EF80F4BECC00030F602492A
:100500003D106E20C9A62FFE2C2B752E4526AB481C
:10051000A980FC04CCD3B5BAA338317D01D9A77B1F
:1005200096B663694EF7DEE078CA50AA41916588B5
:10053000E42185DA3A27BE1C3E425E17527F1F89AE
:10054000246F8F5C67740E12878DE934ED73C4F8E5
:10055000615B05DF594C97798318A45595EBBD5322
:10056000F5F15766469FB2810951862216DD239325
:100570007629C2D71DD4BF363FEA4B1132B9625437
:1005800060D66D439A0D929CB0EF586C9D772D709C
:10059000FAF3B30BE2407EF48AE58C3C5671D164E9
:1005A000E1820ACB131590EC0399AF145D0F334A27
:1005B00094A5A8351BE36AC628FF4DE72584AC083F
:1005C000AEC5A22AB8370C7AA0C3CEAD061A9E8B50
:1005D000FBD5D0C11ED0B49BB144F247C768CF72DF
:1005E000BB4F5AF9DC6BDBD2E87CC8EE98A1E6D8A9
:1005F00039075FFD8E19B73BBCCD7CE38173B21127
:10060000BF6F2098FE7596EF6CDA50E10972544581
:10061000BA34805BED3E532C87A457F3333F3CB78D
:1006200067B4A325604F076B1B47150FE40AEAD197
:10063000327836498D4BD2BCA5DC1D0D4DCD9A824A
:100640005FFC9465BEE2F4C91E44CB9E0C64712627
:1006500063B314E840708A0E19426DAC88105CDFF9
:1006600041A9ADE5FB74CCD5068E5986CE1F3D76EB
:10067000E08FB977277BA6D829D3ECB813F7FAC354
:10068000516ADE4A5AEBC28B234892CF62A899F88E
:10069000D02E856143C8BDF00593CA4EF17D30FD73
:1006A000C469662F08B152F921E67A2BDD3984FF3F
:1006B000C091D637D47F2D9B5DA13B6EB5C5460456
:1006C000F590EE7E831C0356B6AA001701355579C6
:1006D0000B12BB1A31E7022816C1F6A2DB189C895F
:1006E000683897ABC72AD73AF2C6244CB058A02234
:1006F0005E9DD9A7E9AEAF8C959F28B720D7B030C3
:10070000C30919C067D6003C7EE7E9F4085AF8B877
:100710002E05A6259E5CD8150DE1F611546BCD2152
:1007200046665E84AD06382944C5A2CEF1AAC14012
:100730007186B5EFFC36A8CB0A48274564A3AF8C79
:10074000B2C69F0789DC17D34979FBFE1DD0B98853
:100750004352BC01782B7D94C70EDEA5D59BCCF708
:10076000617AC274813903AB96A037BD2D72753F93
:10077000C9D48E6FF98DED62DB1CDF04AC1B6C14E9
:100780004B63D0BFB482EC7B1A5992D21060B63D55
:100790005FE6806E70C4F235D97CEEE541A45B5013
:1007A000DDBB4CF31F9D5D57555197E358424D9C5F
:1007B00073BAC877316926AEEA8ADA22B38756FA65
:1007C000930B341633E8E453BEA9B13A3EF5906A70
:1007D000CF3B12FD8F9AA7479199EB0F24FF231867
:1007E000854E7F0CE0A1D2D12C2A4A024F1E95687B
:1007F0008B98836D76CA6532132FC3829AA4BA810F
:1008000060373435FC80A8516567ED305F10D34AFE
:10081000272F13B92AD2CCE1EFAEEBBEF4BDCF4304
:10082000B3C58884B7DD3940CE486D9B72617EE7E1
:10083000A14E532E773BE2C936221B6E73B103B231
:100840004C87A9D44D0FD8156CAA18F649575DFBF3
:100850007A149463A011B09EDE0546C8EE47DBDC37
:1008600024899C919729E97BC1071EB8FDFEACC67F
:1008700062984FF179E0E86B7856B68D045086CADD
:100880006F20E6EAE576171C747FBC0D2C85F766B1
:1008900096E48B753F4BD938AF7CDA0B832D313220
:1008A000A2F51D594145BF3C1FF8F98AD0162569AC
:1008B00012999D2195AB01A6D7B5C07DFF580E3A80
:1008C00092D155E3089FD63E528EFAA3C702CDDFE0
:1008D0008F64198CF3A70C5E0A6A09F0935B42C21D
:1008E0000623EC71ADB4CBBB7028D51A5C33685AC3
:1008F000004490A5C4263D2BF25496ADDA1FED338B
:10090000E18169080D0ADB35779A64D1FC78AA1B6E
:10091000D067A0DDFA6C63710584176A894F667F22
:10092000C65055926FBDE7D240728DBBEC06428A2D
:10093000E4889D7E7A822713411AAFC8A476B4C298
:10094000FE6D1CD96130B37CEAF7290FF23B51C12F
:10095000DE5FE52A2F990B5DA32B4AAB95A5D358F3
:1009600056EE283100CC1546CAE686383C65F5E3DC
:100970009FD65B094983702D53A97DE2C4AC8E5E7E
:10098000B825F4B957F3F16847B2A25920CE3479AB
:100990005C900E1EBED52223B1C91862162E913E60
:1009A000078FD83F933DD49BDF8521FB117497C7F8
:1009B000D7DC4C194598E943024BBCC3049C6BF04F
:1009C0007552A726F6C5BACFB0B7AE5AA1BF038BF2
:1009D00080126E0CEBF9C04424EF10F8A88CE87B71
:1009E000FF9E2CCD603687B594A654733A144E0101
:1009F0001DB6FD37484D39CBE03200000000000045
:100A000000000000000000000000000000000000E6
:100A100000000000000000000000000000000000D6
:100A200000000000000000000000000000000000C6
:100A300000000000000000000000000000000000B6
:100A400000000000000000000000000000000000A6
:100A50000000000000000000000000000000000096
:100A60000000000000000000000000000000000086
:100A70000000000000000000000000000000000076
:100A80000000000000000000000000000000000066
:100A90000000000000000000000000000000000056
:100AA0000000000000000000000000000000000046
:100AB0000000000000000000000000000000000036
:100AC0000000000000000000000000000000000026
:100AD0000000000000000000000000000000000016
:100AE0000000000000000000000000000000000006
:100AF00000000000000000000000A877A6E0F74317
:100B00005A3585E272978FB71A6287380D67C7BE6C
:100B10004F3E2076378F68B7A9263F2B10E3307EF3
:100B2000900E850A11241FBECFEFDAE0DEBFCDBFE5
:100B300011E0A0E0B1E0ECE0F7E502C005900D9215
:100B4000AA3AB107D9F723E0AAEAB1E001C01D92A1
:100B5000AD38B207E1F762D20C94842B51CA1F92D0
:100B60000F920FB60F9211242F933F934F935F93E1
:100B70006F937F938F939F93AF93BF93EF93FF9365
:100B800081E080932E03109285001092840085E10D
:100B900080935103E0917303F09174030480F58115
:100BA000E02D80E0099585E280935103259A2D9AE6
:100BB00080E38A95F1F72D98369B02C0469801C0D4
:100BC000469A3E9AFF91EF91BF91AF919F918F917D
:100BD0007F916F915F914F913F912F910F900FBE39
:100BE0000F901F901895CF93DF93E0917303F091CE
:100BF00074030480F581E02D81E20995C82FE0910E
:100C00007303F09174030280F381E02D82E0099573
:100C100090913003892F817080936C0393FB882718
:100C200080F98093710394FB882780F98093700387
:100C300095FB882780F980936E0396FB882780F9BF
:100C400080936D03991F9927991F90936F038FE9E4
:100C50009FE00197F1F700C00000CF3F51F4E09111
:100C60007303F09174030480F581E02D80E0099511
:100C7000BCCFC03F08F0B9CFDF91CF9108958091EC
:100C80007203893721F0833311F08F3749F491E0F3
:100C900090936B03893759F481E080936A03089538
:100CA00010926B038337C1F3893041F4F5CF982F4D
:100CB0009F7B933389F38F37B9F7EECF8251823020
:100CC00058F310926A030895CF9380916C038111B9
:100CD00005C080916B0381110EC032C0E091730397
:100CE000F09174030480F581E02D80E009958F3F39
:100CF00081F78EEFEFC0E0917303F09174030480ED
:100D0000F581E02D82E00995E0917303F091740381
:100D10000280F381E02D8DE00995EFEAF4E0319750
:100D2000F1F700C00000803F08F0D4C0E0E3F3E03A
:100D3000A1E2B3E081918D9383E0EC33F807D1F722
:100D4000E0917303F09174030480F581E02D81E05C
:100D50000995E0917303F09174030280F381E02D13
:100D60008DE00995C82F803F08F0B3C080917203D1
:100D70008C1731F1E0917303F09174030480F581D5
:100D8000E02D80E009952FDFE0917303F09174036B
:100D90000480F581E02D81E00995E0917303F091E5
:100DA00074030280F381E02D8DE00995C82F8FEF49
:100DB00090E09093410380934003C03F08F089C0C6
:100DC00080914F03882309F46DC080916A038823C2
:100DD00009F468C090912D0380913C03981305C0DD
:100DE0008091AA01882309F45DC0E0917303F0911A
:100DF00074030480F581E02D8CE10995E091730383
:100E0000F09174030480F581E02D80913C030995F5
:100E1000E0917303F091740381E090913C03911190
:100E200001C080E00480F581E02D81950995E09175
:100E30007303F09174030480F581E02D81E109953D
:100E4000E0917303F09174030480F581E02D8CE14F
:100E50000995E0917303F09174030480F581E02D0E
:100E600080912D030995E0917303F091740381E063
:100E700090912D03911101C080E00480F581E02D57
:100E800081950995E0917303F09174030480F581D5
:100E9000E02D84E1099580912D0390913C038927F1
:100EA0008093AA012091400330914103211531051F
:100EB00039F02150310930934103209340032FD161
:100EC000E0917303F09174030480F581E02D80E0DC
:100ED00009958C2FCF910895F7DE90916C039111B5
:100EE00028C0803FD0F090913103209130039223AD
:100EF00098239F3F29F08F3F19F481E080936C0382
:100F000081E080936F038DE0E2E4F3E0AFE2B3E0D1
:100F100001900D928A95E1F719C09DE0EFE2F3E0B0
:100F2000A2E4B3E001900D929A95E1F780937203E9
:100F30000DC09DE0E2E4F3E0AFE2B3E001900D927A
:100F40009A95E1F7803F10F410926C0390916C0336
:100F500080913E03992369F090913003811105C07F
:100F600081E080933E03906201C09F7D90933003A7
:100F70000BC0882349F010923E0335DE8FEF90E0DE
:100F800090934103809340038091300380935403F6
:100F900080913103809355038091320380936703DE
:100FA00080913303809357038091340380935803D7
:100FB0009091350390935D0380913603809359039C
:100FC0008091370380935A038091380380935E03A6
:100FD00020917203293741F02091390320935C035B
:100FE00020913A0320935B0320916B03211104C0ED
:100FF00090932B0380932C0380913B0380935603A3
:101000003EDE80915303833318F010925303EBDDDF
:10101000809153038F5F80935303089510926C0364
:1010200010923E031092AA01109253038FEF90E0AA
:10103000909341038093400380E880936100109275
:10104000610085B7806885BF85B7806885BF1AB89D
:1010500017B814B88FEF8BB988B985B9A6D10E949B
:10106000D9278091D80080628093D80089B58D7F80
:1010700089BD8091D8008F778093D8001CBC1092D6
:10108000CA001092C8001092C90010927A00809194
:10109000BC008B7F8093BC001092C0001092910026
:1010A0001092900015BC14BC109281001092800028
:1010B0002FEF87EA91E6215080409040E1F700C091
:1010C000000087D18823E9F30E94A127909374033D
:1010D00080937303DC01ED91FC9109951092AB01B3
:1010E0001092AC011092AD011092AE011092AF01BE
:1010F0001092B0011092B1011092B20145D1E0916D
:101100007303F09174030480F581E02D80E009956C
:10111000DBDD803FE8F738D1DFDE53D1FCCF8091B3
:101120005103982F9D7F21E0993209F020E091E052
:10113000382F3F7E353009F090E0922B11F4853244
:10114000E1F58091720331E0803109F030E091E007
:10115000833209F090E0392B91E08F3109F090E073
:10116000932B31E08F3209F030E0392B21E08134CC
:1011700009F020E0232B91E0893709F090E0922BD1
:1011800051F4982F9F7D933531F0893021F0877F7E
:10119000833109F0A0C0E0917303F09174030480DF
:1011A000F581E02D84E20995E0917303F0917403D9
:1011B0000480F581E02D84E08DC021E0893109F0C3
:1011C00020E091E08F3209F090E0292B91E08F31FF
:1011D00009F090E0922B21F4982F9B7F933181F5B9
:1011E00080917203982F977F31E0933009F030E0BF
:1011F000982F9F7E985021E0923008F020E0232B1A
:1012000091E0382F3B7F313209F090E0922B31F49E
:10121000883221F08351833008F05DC0E091730380
:10122000F09174030480F581E02D85E20995E09149
:101230007303F09174030480F581E02D83E04AC0CC
:10124000833209F048C080917203982F977F21E084
:10125000933009F020E091E0382F3F7D383009F0DD
:1012600090E0922B21E03CEE380F323008F020E085
:10127000292B91E038EE380F333008F090E0922BB4
:1012800031F4982F9B7F913211F0863321F5E09154
:101290007303F09174030480F581E02D84E20995D5
:1012A000E0917303F09174030480F581E02D84E0F4
:1012B0000995E0917303F09174030480F581E02DAA
:1012C00085E20995E0917303F09174030480F58140
:1012D000E02D81E0099408954091580390915A03BC
:1012E00021E09E3408F020E081E04E3408F080E0F8
:1012F000282B80915903222341F08E3420F0309125
:1013000057033E3410F487E03CC031E0933B08F4CF
:1013100030E091E0433B08F490E0932B41F08E34B1
:1013200020F0309157033E3410F485E02AC0222388
:1013300041F0833B20F430915703333B10F081E0C0
:1013400020C0992341F0833B20F430915703333B75
:1013500010F083E016C0309157038E3410F03E3405
:1013600010F486E00EC0833B10F4333B10F082E0B3
:1013700008C0222319F0109256030895992319F0FA
:1013800084E08093560308951092550310925403FD
:101390008FE08093560380E880935A03809359032B
:1013A0008093580380935703089514BEA89588E14D
:1013B0000FB6F89480936000109260000FBEF8940E
:1013C0000895E0916803F09169030280F381E02DB4
:1013D0000994CF93DF9310924F03109250031AB8E1
:1013E00017B814B8CFEFCBB9C8B9C5B9B9D4909371
:1013F000690380936803DC01ED91FC910995E0910C
:101400006803F09169030480F581E02D09958093CC
:101410005103882331F081E080934F038093500380
:10142000B4C01AB817B814B8CBB9C8B9C5B90E94B6
:10143000B3249093690380936803DC01ED91FC91E0
:101440000995E0916803F09169030480F581E02D2E
:10145000099580935103811198C0E0916803F09140
:1014600069030084F185E02D09951AB817B814B8FE
:10147000CBB9C8B9C5B90E9475269093690380930A
:101480006803DC01ED91FC910995E0916803F0910E
:1014900069030480F581E02D0995C82F80935103DD
:1014A000811173C0E0916803F09169030084F185B4
:1014B000E02D0995D3B1DF3F09F002C11AB817B882
:1014C00014B8DBB9D8B9D5B90E94201F909369032D
:1014D00080936803DC01ED91FC910995E09168032C
:1014E000F09169030480F581E02D09958093510303
:1014F00081114BC0E0916803F09169030084F1858C
:10150000E02D09951AB817B814B8DBB9D8B9D5B910
:101510000E9447169093690380936803DC01ED9164
:10152000FC910995E0916803F09169030480F581CD
:10153000E02D099580935103811124C0E091680347
:10154000F09169030084F185E02D09951AB817B868
:1015500014B8DBB9D8B9D5B90E94121A90936903AF
:1015600080936803DC01ED91FC910995E09168039B
:10157000F09169030480F581E02D09958093510372
:10158000882329F081E080934F03C1E0CEC0E09131
:101590006803F09169030084F185E02D09951AB87C
:1015A00017B814B8DBB9D8B9D5B90E94961B909377
:1015B000690380936803DC01ED91FC910995E0914A
:1015C0006803F09169030480F581E02D099580930B
:1015D00051038111DACFE0916803F091690300842F
:1015E000F185E02D09951AB817B814B8DBB9D8B948
:1015F000D5B90E940C219093690380936803DC01A4
:10160000ED91FC910995E0916803F09169030480E4
:10161000F581E02D0995809351038111B6CFE091BA
:101620006803F09169030084F185E02D09951AB8EB
:1016300017B814B8DBB9D8B9D5B90E9496239093DE
:10164000690380936803DC01ED91FC910995E091B9
:101650006803F09169030480F581E02D099580937A
:101660005103811192CFE0916803F09169030084E6
:10167000F185E02D09951AB817B814B88FEF8BB91A
:1016800088B985B90E946F25909369038093680398
:10169000DC01ED91FC910995E0916803F0916903FB
:1016A0000480F581E02D09958093510381116DCF60
:1016B000E0916803F09169030084F185E02D0995BC
:1016C00083B18F3549F41AB817B814B88FEF8BB9B6
:1016D00088B985B976D40CC086B18C3F31F51AB87B
:1016E00017B814B88FEF8BB988B985B90E94D1218A
:1016F0009093690380936803DC01ED91FC91099557
:10170000E0916803F09169030480F581E02D09956B
:10171000C82F80935103811138CFE0916803F09175
:1017200069030084F185E02D09958C2FDF91CF911D
:101730000895089580916F038093B5011092BA01C6
:101740001092BB011092B9011092B80188E184B9DE
:101750008FEF85B98FE68CBD08951CBC08956EBDD2
:101760000DB407FEFDCF882371F08091BB0181117C
:1017700004C08AE28A95F1F700C02C9885E08A952A
:10178000F1F700002C9A189902C08EB5089580E0F8
:101790000895CF93C82F6091590381E0E0DF815015
:1017A0008E3F38F48FEA94E00197F1F700C0000013
:1017B000C1DF60915A0381E0D2DF6091570381E07D
:1017C000CEDF609158038C2FCF91C9CFCF9380E1AA
:1017D00094EA189B07C025E82A95F1F700000197C5
:1017E0000097B9F787EC90E00197F1F700C000008F
:1017F00083B1C82FC17080FD0EC08FE891E00197C2
:10180000F1F700C000008FE99FE00197F1F700C0F9
:101810000000189903C01CBCC0E023C060E080E059
:101820009EDF6FEF80E09BDF8130D1F46FEF97DFB9
:1018300061E481E094DF6AE581E091DF6FEF81E0B0
:101840008EDF6FEF81E08BDF95E39A95F1F7000073
:101850008CB58F7B8CBD84B1877E84B9C7E101C014
:101860001CBC8C2FCF9108951F93CF93DF93189BAF
:10187000FECF8AEB98E8189B06C001970097D9F72E
:1018800088EC8093B80180915603882309F464C2E0
:10189000823009F463C2843049F0863089F08130A7
:1018A00089F0DFEF833021F4DFE90DC0DFEB0BC0FF
:1018B000853011F4DFE307C0873029F4DFE603C089
:1018C000DFE701C0DFEC8091540384FDDE7F85FDFE
:1018D000D77F9091550396FDDD7F97FDDB7F80FDDF
:1018E00002C0CFEF01C0CFEB81FDCF7D82FDCF776E
:1018F00083FDCF7E86FDCB7F87FDC77F90FDCE7FAA
:1019000091FDCD7F8CB580648CBD84B1886184B934
:101910008091B80187FD0EDF8091B8018F5F8093C1
:10192000B8016FEF81E01BDF813009F007C2109230
:10193000B8018091B901813009F04AC163EF0FDF2E
:10194000182F6AE581E00BDF812F90E0FC01E05465
:10195000F109E031F10508F0F1C1EA5AFF4F0C94AA
:10196000E8286D2F81E0FBDE80932D038091B30189
:10197000882331F081508093B3016C2F81E02AC01D
:101980008091B401882331F081508093B4016C2F91
:1019900080E029C08091BB018230C9F46C2F81E0C6
:1019A000DEDE80933C0381E0F4DE8091BB01823077
:1019B000E9F4C1E2D3E0699181E0D1DE83E0CC3289
:1019C000D807C9F760912C0380E0C9DE0FC08130D1
:1019D00039F46C2FC4DE80933C0380E0DADE06C06D
:1019E000811104C06C2FBBDE80933C038091B70152
:1019F0008F5F8093B7018B3008F4A0C11092B701BC
:101A00001092B9019BC160E081E0A9DE8093B90129
:101A1000813099F48091BB01823011F0C4E007C09D
:101A2000CCE060E081E09BDEC150D9F7F7CF60E009
:101A300081E095DEC150D9F7A6C060E081E08FDE7D
:101A40008A3561F460E081E08ADE60E081E087DE73
:101A500060E081E084DE60E080E081DE8091BA01B8
:101A60008093BB016BC160E081E079DE60E081E0E2
:101A700076DE62E010C081E08093B4019091BA01FB
:101A8000911102C08093BA016FEF81E068DE6FEFC1
:101A900081E065DE63E081E062DE60E081E05FDEE0
:101AA00060E081E05CDE6AE56FC060E081E057DE07
:101AB0008093BA018091B50181111092BA01C4E0FE
:101AC00060E081E04CDEC150D9F75DC081E08093D9
:101AD000B4018091B501882311F060E007C08091C6
:101AE0006B03882311F063E001C061E081E037DE21
:101AF00062E081E034DE61E08091B501811160E057
:101B000081E02DDE62E027C060E081E028DE811107
:101B100002C0CAE001C0C4E160E081E020DE61E013
:101B200081E01DDECA3011F462E001C061E081E0B5
:101B300016DE61E0CA3009F460E081E010DE6C2F4F
:101B400023C060E081E00BDE60E081E008DE62E05F
:101B500081E005DE60E081E002DE61E012C060E06D
:101B600081E0FDDD811102C0C4E001C0C7E060E09A
:101B700081E0F5DD60E081E0F2DD6C2F81E0EFDDFA
:101B800060E081E0ECDD60E080E0E9DDD7C060E0AE
:101B900081E0E5DD61E081E0E2DD6FEF81E0DFDD46
:101BA0006FEF81E0DCDD6FEF81E0D9DD6FEFECCF2F
:101BB00081E08093B30182E08093BA0160E081E02C
:101BC000CEDDC4E060E081E0CADDC150D9F7DBCFF3
:101BD0008111B4C08091BB01882381F09091720380
:101BE000993721F4823061F063E70FC0933351F0ED
:101BF0009F3751F09335C1F763E507C061E405C035
:101C000069E703C063E201C063EE9091B6018917F2
:101C100029F09091B4019E5F9093B4018093B60136
:101C200081E09DDD182F6AE581E099DD6D2F81E06F
:101C3000133471F594DD8093B901811102C060E025
:101C400025C08091B30181112AC08091B401811116
:101C500030C08091BB01823009F04AC06C2F81E016
:101C60007EDD80933C0381E094DD8091BB01823076
:101C700009F04DC0C1E2D3E0699181E070DD83E0FD
:101C8000CC32D807C9F760912C0380E068DD3FC0F3
:101C900066DD80932D038091B301882331F081505C
:101CA0008093B3016C2F81E026C08091B40188231A
:101CB00031F081508093B4016C2F80E025C0809179
:101CC000BB018230A9F46C2F81E049DD80933C0395
:101CD00081E05FDD8091BB018230C9F4C1E2D3E0D5
:101CE000699181E03CDD83E0CC32D807C9F7CBCFE6
:101CF000813039F46C2F33DD80933C0380E049DD83
:101D000006C0811104C06C2F2ADD80933C034091F2
:101D10006F03242F30E08091B50190E02817390738
:101D200069F04093B50181E09091BB01911180E091
:101D30008093BB018093B6018093BA0185E38A95B5
:101D4000F1F700008CB58F7B8CBD84B1877E84B9A0
:101D5000DF91CF911F910895DFEEB5CDDFEDB3CDCB
:101D600080E091E00895089581E08093BC0108959A
:101D7000ECEBF0E080818B7F808308951092BC01B2
:101D80008091BC018823E1F389E108951092BC01A0
:101D90008091BC018823E1F38FE99FE00197F1F77F
:101DA00000C0000085E1EDEBF1E0DF011D928A95B6
:101DB000E9F780E88093C0018093BF018093BE0162
:101DC0008093BD018091570392E9980F943210F0EF
:101DD0008093BD018091590392E9980F943210F0DD
:101DE0008093BE018091580392E9980F943218F0C5
:101DF00080958093BF0180915A0392E9980F9432A5
:101E000018F080958093C0018CE08093C10188E038
:101E10008093C2018FEF8093C3018093C4018091AE
:101E2000540387FF03C09DEF9093C30185FF05C056
:101E30009091C3019B7F9093C3019091670392FFA0
:101E400005C09091C301977F9093C30184FF05C0A3
:101E50009091C3019F7E9093C30186FF05C090912E
:101E6000C3019F7D9093C30190915603943021F458
:101E70009091C3019F7B05C0923031F49091C301D2
:101E80009F779093C30109C0911102C09EEF03C0D8
:101E9000963019F49DEF9093C4012091550321FFD2
:101EA00005C09091C4019B7F9093C40120FF05C0A1
:101EB0009091C4019F779093C40180FF05C09091D9
:101EC000C4019F7B9093C40181FF05C09091C40120
:101ED0009F7E9093C40182FF05C09091C4019F7DB5
:101EE0009093C40183FF05C08091C401877F8093D4
:101EF000C40180917503811145C08091BE01869512
:101F000086958695282F2871B8E02B9F9001112483
:101F10009091BD0196959695922B9093BD018670F8
:101F200020E2829FC00111249091BF019695969561
:101F3000982B9093BE0180912B038695869586956C
:101F4000282F287194E0299F900111249091C001BD
:101F5000969596959695922B9093BF01A0E28A9FB5
:101F6000C001112490912C03969596959695982BE7
:101F70009093C0018091C3018093C1018091C401FD
:101F80008093C20165E18DEB91E014C30F931F9321
:101F90008BB183608BB98AB18C7F8AB985E1EDEB17
:101FA000F1E0DF011D928A95E9F704EB1EE024E1E0
:101FB00031E045E1BF0184E391E003D31F910F912C
:101FC00060C38AE091E008952F923F924F925F9212
:101FD0006F927F928F929F92AF92BF92CF92DF9239
:101FE000EF92FF920F931F93CF93DF93CDB7DEB79E
:101FF000E2970FB6F894DEBF0FBECDBF1DA61CA69C
:10200000A12CB12C78E0E72EF12CDE01519680E076
:1020100090E02CA53DA52650354FF901E80FF91F9A
:10202000E491ED93019686309105B9F7DE011196A2
:1020300080E090E0FC01EB50FD4FE081F0E0E650E5
:10204000FF4FE491ED9301968A30910599F7AB81AA
:102050007E818989872790E04A2F47702A8528AB9F
:10206000FD819701241B31093AAB29AB9C0109A8DA
:1020700002C0220F331F0A94E2F702C0959587959C
:102080004A95E2F7822B38A9831B8F278B87B9816A
:102090004A814EA78A89842790E04B2F4770E885B4
:1020A0009701241B31093AAB29AB9C0109A802C056
:1020B000220F331F0A94E2F702C0959587954A953F
:1020C000E2F7822B871B8E278C873F813FA72B89C6
:1020D000232730E069856770C701861B9109A90134
:1020E000082E01C0440F0A94EAF7062E02C0359567
:1020F00027950A94E2F7242B2A1B2B272D872C895E
:102100002F2730E04E2F47704BA79C81A701BBA51E
:102110004B1B51095AAB49ABA90109A802C0440F96
:10212000551F0A94E2F702C035952795BA95E2F754
:10213000242B291B2A272E872D895EA5252730E0F1
:10214000AFA5A770A7014A1B51095AAB49ABA9011A
:1021500009A802C0440F551F0A94E2F75AAB49ABD5
:1021600002C035952795AA95E2F7242B291B2F2726
:102170002F872E892E2730E0F90102C0EE0FFF1FB6
:102180008A95E2F7CF0102C0359527956A95E2F767
:10219000822B871BF8A98F27888B46E050E06FEED3
:1021A00072E0CE010B960E946E2B95012F5F3F4F80
:1021B000892B79F059012CA53DA52A5F3F4F3DA7FA
:1021C0002CA737E0A316B10409F01FCF109200032B
:1021D00080C1822F9091F302122F00E0090F111D90
:1021E00006501F4FF8010491F2E0AF0EB11C909120
:1021F000F802FA2DEE27E90FF11DE650FF4FE491AA
:10220000E027E093E7029091F102782E612C690EAD
:10221000711C930126503F4FF90164909091FA028E
:10222000FA2DEE27E90FF11DE650FF4FE491E62568
:10223000E093E8029091F402582E412C490E511C73
:10224000920126503F4FF90144909091FC02FA2DE3
:10225000EE27E90FF11DE650FF4FE491E425E093EE
:10226000E9029091EF02D82EC12CC90ED11C960123
:1022700026503F4FF90194912091F702FA2DEE2755
:10228000E20FF11DE650FF4FE491E927E093EA02E7
:102290009091F002982E812C890E911C9401265069
:1022A0003F4FF90194912091F902FA2DEE27E20FA8
:1022B000F11DE650FF4FE491E927E093EB02909186
:1022C000F202888F1F8A2F89388D290F311D2650E1
:1022D0003F4FF90194912091FE02FA2DEE27E20F73
:1022E000F11DE650FF4FE491E927E093EC02909155
:1022F000F5028A8F198E298D3A8D290F311D2650AE
:102300003F4FF90194912091FB02FA2DEE27E20F45
:10231000F11DE650FF4FE491E927E093ED02909123
:10232000F6028C8F1B8E2B8D3C8D290F311D265074
:102330003F4FF90194912091FD02FA2DEE27E20F13
:10234000F11DE650FF4FE491E927E093EE029091F2
:10235000EF028E8F1D8E2D8D3E8D290F311D265043
:102360003F4FF90194912091F602FA2DEE27E20FEA
:10237000F11DE650FF4FE491E927E093DF029091D1
:10238000F40288A31F8E2F8D38A1290F311D2650EE
:102390003F4FF90194912091F902FA2DEE27E20FB7
:1023A000F11DE650FF4FE491E927E093E0029091A0
:1023B000F2028AA319A229A13AA1290F311D2650A0
:1023C0003F4FF90194912091F502FA2DEE27E20F8B
:1023D000F11DE650FF4FE491E927E093E10290916F
:1023E000F1028CA31BA22BA13CA1290F311D265069
:1023F0003F4FF90194912091FE02FA2DEE27E20F52
:10240000F11DE650FF4FE491E927E093E20290913D
:10241000F3028EA31DA22DA13EA1290F311D26502E
:102420003F4FF90194912091FC02FA2DEE27E20F23
:10243000F11DE650FF4FE491E927E093E30290910C
:10244000F00288A71FA22FA138A5290F311D265001
:102450003F4FF90194912091FD02FA2DEE27E20FF2
:10246000F11DE650FF4FE491E927E093E4029091DB
:10247000F8028AA719A629A53AA5290F311D2650C9
:102480003F4FF90194912091FA02FA2DEE27E20FC5
:10249000F11DE650FF4FE491E927E093E5029091AA
:1024A000F702382E212C290E311C910126503F4F66
:1024B000F90124908091FB02FA2DEE27E80FF11D1F
:1024C000E650FF4FE491E225E093E60281E080933D
:1024D0000003E2960FB6F894DEBF0FBECDBFDF91CA
:1024E000CF911F910F91FF90EF90DF90CF90BF9011
:1024F000AF909F908F907F906F905F904F903F90A4
:102500002F900895863028F4E0910103F0910203A2
:102510000994089590EC980F963098F480E490E038
:1025200029E430E0F901E81BF90BDC01A152BE4FB0
:102530004C91EB50FD4F408301968634910591F705
:1025400008959AEB980F9630C8F4809125028093F5
:10255000F802809126028093F702809127028093EF
:10256000F602809128028093F502809129028093DF
:10257000F40280912A028093F302089594EB980F5D
:102580009430B8F490912B029093F20290912C0227
:102590009093F10290912D029093F00290912E026F
:1025A0009093EF0270E0680F711D6035710509F4BA
:1025B0000BCD0895462F50E0BC018FED91E00C94B7
:1025C0007B2BEF92FF920F931F93CF93DF9300D05B
:1025D000CDB7DEB77C01CB011092FF02109302034E
:1025E00000930103642F29833A83E4DF1092CF0222
:1025F00086E0F701ADECB1E001900D928A95E1F72C
:1026000086E0EDECF1E0A9EDB2E001900D928A9543
:10261000E1F72981E22F3A81F32F80E290E02191C6
:10262000DC01A152BE4F2C93019680349105B9F77D
:102630002FEF89E698E1215080409040E1F700C0FB
:10264000000058985998509A8AB18C7F8AB9109294
:10265000DE011092DD0184EA8093BA001092B90085
:1026600088E48093B80081EC8093BC0010927503DD
:102670000F900F90DF91CF911F910F91FF90EF90EE
:1026800008958091FF02811109C08091BC0084608F
:102690008093BC0081E08093FF02789408951F929C
:1026A0000F920FB60F9211242F933F934F935F9386
:1026B0006F937F938F939F93AF93BF93EF93FF930A
:1026C0008091B900887F803951F188F4803721F1F9
:1026D00028F4803609F18836F9F0DEC08038F9F048
:1026E000883809F4D9C0883709F0D6C015C0803BB6
:1026F00009F498C038F4803A09F489C0883A09F09E
:10270000CBC090C0803C09F4C5C0883C09F4C2C06D
:10271000883B09F48EC0C0C01092DC01BBC0809120
:10272000DC01882309F466C02091BB008091DD01A3
:102730009091DE018E3F910529F4233019F481E058
:10274000809375038091DD019091DE01803F9105BA
:1027500089F4253511F02A3A69F41092000386E0D5
:10276000EDECF1E0A9EDB2E001900D928A95E1F770
:102770001092D9018091DD019091DE01892B91F4B5
:10278000243681F48091DA01882361F086E0E3ED5C
:10279000F1E0A9EDB2E001900D928A95E1F781E0B8
:1027A0008093D901809100038823E1F0A091DD019D
:1027B000B091DE01E091DD01F091DE01E770FF27CD
:1027C000E152FD4F8081E091DD01F091DE01E77083
:1027D000FF27E951FD4F90818227890FA152BE4FFB
:1027E0008C934AC0E091DD01F091DE01E152FE4F91
:1027F000208342C08091BB0090E09093DE018093E3
:10280000DD0181E08093DC011092DB0143C0609127
:10281000DB018091DD019091DE019091DB01891B4C
:1028200079DE38C08091DD019091DE016BDE10927F
:10283000DB0180910003E091DD01F091DE01E152C6
:10284000FE4F8823B1F08081E091DD01F091DE013F
:10285000E770FF27E951FD4F2081E091DD01F09104
:10286000DE01E770FF27E152FD4F9081821B89272F
:1028700001C080818093BB008091DD019091DE01D9
:1028800001969093DE018093DD018091DB018F5FE3
:102890008093DB0185EC01C085E88093BC00FF914B
:1028A000EF91BF91AF919F918F917F916F915F91C8
:1028B0004F913F912F910F900FBE0F901F90189541
:1028C00008951092760357985F9A08950895549A40
:1028D00057989BB19BB9811105C081E090E0A0E0C1
:1028E000B0E01CC081E090E0A0E0B0E04F9B1FC0D2
:1028F00000000196A11DB11D883E23E09207A105AD
:10290000B105A1F712C000000196A11DB11D8115EE
:1029100023E5920727E0A207B10539F04F99F3CFDD
:10292000883E9340A105B10511F48FEF089598E01A
:1029300080E0880F2BE02A95F1F700004F99816025
:102940002CE02A95F1F70000915099F7803461F45A
:102950008FE291E00197F1F700C0000089B1807823
:102960008093760380E4089508953AE03A95F1F76C
:1029700000C0579A5F9828E180E093E0A0E0B9E0BA
:10298000B7FF09C035E03A95F1F700005F9A35E1ED
:102990003A95F1F708C035E13A95F1F700005F9AF2
:1029A00035E03A95F1F700005F98880F991FAA1F4C
:1029B000BB1F215029F78AE08A95F1F700C057988C
:1029C0005F9A81E084CF2F923F924F925F926F92F5
:1029D0007F928F929F92AF92BF92CF92DF92EF92AF
:1029E000FF920F931F93CF93DF93CDB7DEB7659719
:1029F0000FB6F894DEBF0FBECDBF1092760380E015
:102A000066DF8D8B811102C0B0DF8D8B412C512C84
:102A10003201D301C201A66089839A83AB83BC8350
:102A2000D301C201AA608D839E83AF83B887D3018F
:102A3000C201A96089879A87AB87BC87D301C2018D
:102A4000A5608D879E87AF87B88BD301C201A46034
:102A5000898B9A8BAB8BBC8B730162016894E3F812
:102A6000530142016894A1F8689460F822242A94E2
:102A7000312C9D899F3F09F4D8C09D89911102C0D6
:102A800074DF8D8BA0E1AA95F1F780915603863013
:102A900019F4B301A2012FC0823019F4B501A401C9
:102AA0002AC0811103C0B701A60125C0843029F4D2
:102AB00049895A896B897C891EC0853029F44D85E6
:102AC0005E856F85788917C040E050E0BA01873095
:102AD00029F449855A856B857C850DC0813029F4A0
:102AE0004D815E816F81788506C0833021F44981F4
:102AF0005A816B817C818091540384FD606187FDE4
:102B0000606286FD606481FD02C0606802C060682A
:102B1000716080FD726083FD746082FD786085FD68
:102B2000706180915703909158038101091B11092D
:102B3000222717FD2095322F182B042B152B262B1F
:102B4000372B4091590350E060E070E080915A03C8
:102B5000F101E81BF109CF01AA2797FDA095BA2F33
:102B6000F0912B03742F662755274427E0912C03FF
:102B70004E2B5F2BDC0199278827482B592B6A2B7A
:102B80007B2B579A5F9880E237FF09C0F5E0FA95F2
:102B9000F1F700005F9A95E19A95F1F708C0A5E179
:102BA000AA95F1F700005F9AB5E0BA95F1F7000039
:102BB0005F98000F111F221F331F815029F780E2F9
:102BC00077FF09C0E5E0EA95F1F700005F9AF5E1CB
:102BD000FA95F1F708C095E19A95F1F700005F9A30
:102BE000A5E0AA95F1F700005F98440F551F661FF6
:102BF000771F815029F7BD89B13469F480E1E5E19F
:102C0000EA95F1F700005F9AF5E0FA95F1F7000018
:102C10005F988150A1F785E08A95F1F700005798F9
:102C20005F9A81E054DE8D8B24CF809176038823D8
:102C300019F090932D0302C010922D0365960FB6E4
:102C4000F894DEBF0FBECDBFDF91CF911F910F91E2
:102C5000FF90EF90DF90CF90BF90AF909F908F90BC
:102C60007F906F905F904F903F902F90089580E0FD
:102C70002EDE99B120E12A95F1F7811106C04F9B14
:102C800004C097FD02C081E1089580E008958AE3C1
:102C900091E00895089510927A031092790357985D
:102CA0005F9A0895089520E22A95F1F7579A5F9860
:102CB00094E09A95F1F7000098E087FF05C05F9ACD
:102CC0002DE02A95F1F708C029E02A95F1F70000D8
:102CD0005F9A24E02A95F1F700005F98880F24E0BE
:102CE0002A95F1F7915049F784E08A95F1F75798C2
:102CF0005F9A08953AE03A95F1F700C0579A5F98C5
:102D000084E08A95F1F7000020E180E095E097FFEC
:102D100005C05F9A3DE03A95F1F708C039E03A9571
:102D2000F1F700005F9A34E03A95F1F700005F9800
:102D3000880F991F34E03A95F1F7215041F728E0C8
:102D400081E090E087FF05C05F9A3DE03A95F1F79A
:102D500008C039E03A95F1F700005F9A34E03A95FF
:102D6000F1F700005F98880F991F34E03A95F1F76A
:102D7000215041F784E08A95F1F757985F9A0895BA
:102D800057989BB19BB98F3F19F44F99FECF14C050
:102D900041E050E060E070E08130A9F44F9B10C04A
:102DA00000004F5F5F4F6F4F7F4F403D37E053074D
:102DB0006105710599F704C041E050E060E070E002
:102DC00028E090E026C08230D9F44F9BF9CF000074
:102DD0004F5F5F4F6F4F7F4F403990ED590793E042
:102DE0006907710591F7ECCF00004F5F5F4F6F4FA0
:102DF0007F4F403930ED530733E06307710501F32E
:102E00004F99F2CFDDCF3AE03A95F1F700C021506B
:102E100041F0990F39E03A95F1F74F9BF4CF91606B
:102E2000F2CF811107C040325E446105710589F01F
:102E3000892F0895813031F4403D57406105710577
:102E4000B9F707C08230A1F74039504D6340710592
:102E500079F78EEF089582E093DF9AE19A95F1F782
:102E600000C099B1813031F4892F8078803811F415
:102E700083E2089580E0089580916F03882309F428
:102E80009CC08091720331E0833209F030E091E020
:102E9000803109F090E0392B91E08F3209F090E019
:102EA000932B31E0813409F030E0392B21E0893770
:102EB00009F020E0232B91E0382F3F7D333509F0D6
:102EC00090E0922B21F48B7F8B3109F048C08091E8
:102ED0005403982F9C709C3021F48061809354039C
:102EE0003EC082FF04C08B7F80935403089583FF0C
:102EF00036C0982F977F9093540380915603863065
:102F000011F4946013C0823021F4809155038260E3
:102F10001BC0811104C080915503816015C08430AD
:102F200011F4986003C0873021F4956090935403A6
:102F300041C0853021F4809155038C6005C08130FB
:102F400031F48091550383608093550333C08330FF
:102F500089F5809154038A60809354032BC080913B
:102F600056038630B9F08230E1F0811103C010922F
:102F7000580320C0843021F48FEF809358031AC087
:102F8000873019F41092580305C0853031F48FEF63
:102F900080935803109257030DC0813021F4109292
:102FA00058038FEF05C0833029F48FEF80935803C7
:102FB000809357038FEF809356030895DF92EF922B
:102FC000FF920F931F93CF93DF931F92CDB7DEB77E
:102FD0008BB18F7C8BB925E32A95F1F700008FEF39
:102FE000EFECEE2EFFE2DF2E1FE70FEFFF24F3944E
:102FF00020ED37E090E049B1440F440B9F5F9423EC
:10300000215031092115310509F403C2953098F397
:10301000109278031092770310927C0310927B0336
:1030200089832ADF909156038981963031F420916B
:10303000770330917803326037C0923031F42091B9
:1030400077033091780331602FC0911106C0209131
:10305000770330917803386027C0943031F42091A1
:1030600077033091780334601FC0953031F420919C
:10307000770330917803366017C0973031F4209190
:103080007703309178033A600FC0913031F420918A
:10309000770330917803396007C0933049F4209169
:1030A000770330917803356030937803209377036A
:1030B0009091540394FF09C02091770330917803D5
:1030C0003062309378032093770397FF09C02091F3
:1030D000770330917803206130937803209377034E
:1030E00096FF09C0209177033091780320623093D6
:1030F0007803209377034091550340FD04C020914D
:103100005A03243648F420917703309178032860DD
:10311000309378032093770393FD04C020915A03E2
:10312000273948F020917703309178032460309359
:1031300078032093770392FD04C02091590324362D
:1031400048F420917703309178032260309378031C
:103150002093770341FD04C020915903273948F09B
:103160002091770330917803216030937803209386
:10317000770391FF09C0209177033091780330687D
:10318000309378032093770390FF09C02091770351
:10319000309178033064309378032093770395FF60
:1031A00009C0209177033091780330613093780320
:1031B0002093770390915703903D10F0E0925703CE
:1031C000909157039F3210F4D09257039091580377
:1031D000903D10F0E0925803909158039F3210F404
:1031E000D092580320915703205830E0322F2227E5
:1031F00090915803412F491B242B30937C0320933B
:103200007B03BEDD813009F051C08AE08A95F1F779
:1032100000C0579A5F9894E09A95F1F7000020E17A
:10322000809177039091780397FF05C05F9AEDE056
:10323000EA95F1F708C0F9E0FA95F1F700C05F9A56
:1032400034E03A95F1F700005F9880917703909110
:103250007803880F991F9093780380937703215008
:10326000F9F620E180917B0390917C0397FF05C0E4
:103270005F9A4DE04A95F1F708C089E08A95F1F729
:1032800000C05F9A94E09A95F1F700005F988091F2
:103290007B0390917C03880F991F90937C0380930C
:1032A0007B032150F9F600C000C084C0811103C027
:1032B00021DD81E09DCE8F3F49F40F90DF91CF91CA
:1032C0001F910F91FF90EF90DF9014CD823009F0A5
:1032D00075C0E3E0F1E03197F1F700C000008091A4
:1032E0007903882309F452C0FAE2FA95F1F700C095
:1032F000579A5F9822E02A95F1F7000080E091E06C
:1033000020E827FF0AC032E03A95F1F700005F9A03
:103310004DE04A95F1F7000008C0E8E0EA95F1F7C2
:1033200000C05F9AF5E0FA95F1F75F98269529F0CD
:1033300032E03A95F1F700C001C020E8019700970C
:1033400001F700C000C0000088E098EB97FF05C0BF
:103350005F9A4DE04A95F1F708C0E9E0EA95F1F788
:1033600000005F9AF4E0FA95F1F700005F98990F7A
:1033700024E02A95F1F7815049F734E03A95F1F7C6
:10338000000057985F9A1092790393CF40E24A95D4
:10339000F1F7579A80E191E05F9AE4E0EA95F1F75E
:1033A0005F98FCE0FA95F1F701970097A9F725E0FF
:1033B0002A95F1F7000057985F9A7BCF833031F55B
:1033C00087EF90E00197F1F700C0000080E0D8DCC3
:1033D000E8EDFFE03197F1F7803821F4F0927903BE
:1033E00088EB12C08E3F11F481EE0EC08B3111F4C8
:1033F00080E00AC0813021F400932D038BEE04C0DD
:10340000811157CF10922D034EDC53CF8E3F09F020
:1034100050CF0F90DF91CF911F910F91FF90EF90C0
:10342000DF90089584E491E0089508958AB18C7046
:103430008AB98BB1836F8BB983EF80930303809339
:103440000403809305038093060380930703469843
:103450003E9888E08093810082E080936F008FEF38
:103460008093880081E08093890010920903109274
:10347000080310922E030895B19A109285001092BD
:10348000840010928100F8940895259A2D9A8FE374
:103490009CE90197F1F700C000002D98259A2D9A1C
:1034A0008FE39CE90197F1F700C000002D98259A61
:1034B0002D9A8FE39CE90197F1F700C000002D9849
:1034C00089B1837F833F69F0259A2D9A9FEF29EF79
:1034D00080E0915020408040E1F700C000002D982E
:1034E00008958FEF9CE7369B09C0369B0AC0019771
:1034F0000097D9F7E9CF0197009731F3369BFBCFBF
:1035000011C089B1837F833FF9F6259A2D9A2D98B2
:1035100090E59A95F1F789B1837F833FA9F63699B3
:103520000EC0D2CF89B1837F833F71F620E52A9503
:10353000F1F789B1837F833F39F63699C5CF85E2AC
:10354000089510922E0390918100956090938100D0
:1035500078941092850010928400813031F4862F87
:10356000F82F3699FECFFBB905C0862FF82F369B72
:10357000FECFFBB9B19A1092850010928400109290
:103580008100F89480912E03882369F03E988AE6A2
:103590008A95F1F700C0369903C08BB18F7302C0D2
:1035A0008BB1836F8BB981E090912E03911101C093
:1035B00080E008958AB1836F8AB983EF8093030313
:1035C000809304038093050380930603809307038D
:1035D0008091540385FF03C092EF9093070380FF0F
:1035E00005C0909107039D7F909307039091070377
:1035F0009F739093070387FF03C092EF9093060396
:1036000081FF05C0809106038D7F809306030E9491
:103610006C09809156039FEF980F933078F4909146
:103620000303906890930303909107039F7790930F
:103630000703909106039F77909306039BEF980FE3
:10364000933090F4909103039064909303039091CE
:1036500007039F7B90930703909106039F7B9093B2
:103660000603873099F402C0811110C090910303C2
:10367000906190930303909107039F7E90930703BB
:10368000909106039F7E9093060302C0813071F3F0
:103690008350833078F48091030380628093030326
:1036A000809107038F7D80930703809106038F7DB0
:1036B000809306038091540386FF05C09091040314
:1036C0009F7E9093040383FF05C0909104039F7D28
:1036D0009093040382FF05C0909104039F7B909315
:1036E000040384FF05C0809104038F778093040353
:1036F00036990AC06091060380E023DF81110DC076
:103700006091070381E008C06091070381E019DF41
:10371000811103C06091060314CF0895259A2D9A54
:1037200085E08A95F1F700002D9844CF8EE491E072
:103730000895089510920A0381E080930B0357982F
:1037400056988AB18F7C8AB93E985E9A5F9A8BB1FF
:1037500080638BB9469A089508954E9BFECF8FECF7
:1037600097E00197F1F700C000004F9B14C04E99FD
:1037700012C04E9BFECF4F99FECF8FE891E001978C
:10378000F1F700C000004F9B02C080E001C08FE253
:103790004F9903C0089580E0089581E20895EF9263
:1037A000FF920F931F93CF93DF931F92CDB7DEB796
:1037B00090915103913211F09F3239F489830E9424
:1037C0006C0920E030E0898162C09F3109F04BC074
:1037D00020915803909157032E3420F49E3440F4E6
:1037E00097E01EC0233B60F09E3430F495E018C093
:1037F000933B30F091E014C0933B10F093E010C085
:103800009E3410F496E00CC0933B10F092E008C098
:103810002E3418F41092560305C0233B18F094E0A0
:103820009093560320915A03909159032E3418F423
:103830009E34E0F005C0233B40F09E34D0F003C03E
:10384000933B18F502C0933BB8F49E34C0F0933B11
:10385000C8F42E34D0F041E090E0233B08F440E07F
:10386000242F392F14C020E030E011C022E230E0D4
:103870000EC023E030E00BC021E130E008C022E0C0
:1038800030E005C020E130E002C020E330E090915C
:103890005603911102C020611BC0943011F42062C4
:1038A00017C0963011F4206413C0923011F42068D0
:1038B0000FC0973011F420650BC0953011F42066CD
:1038C00007C0913011F4206903C0933009F4206AD5
:1038D0009091540395FD286094FD2460409151031C
:1038E0004132A9F591FD216090FD226040915B037A
:1038F00041110FC040915C0341110BC040916F0317
:103900004111A1C14091570350E04115510509F4FF
:1039100097C1937061E070E011F060E070E0719524
:103920006195710991EE941B990F911D492F91FB9F
:1039300047F992FB46F993FB45F995FB43F996FB52
:1039400042F997FB41F950E0E0E0F0E082C14F31ED
:10395000B1F490FD306191FD3062592F547092FDA9
:103960002260492F487093FD21605111326041114E
:10397000316096FD346097FD3860306C64C14F3221
:1039800009F061C190FD216092FD226093FD3160DC
:1039900091FD326096FD346097FF02C0386053C1DC
:1039A00040910B0390916F034430C1F1911105C018
:1039B00090910A039F5F90930A0390910A039333B7
:1039C00010F14091570350E04B305105CCF4409139
:1039D000590350E04B3051059CF44091580350E09E
:1039E0004B3051056CF440915A0350E04B30510577
:1039F0003CF490915B03911103C090915C03911191
:103A0000306810920A0344E640930F0390EA9093C3
:103A10000E0340930D0390930C0315C13068992356
:103A200051F091E090930B033F77EFE3FCE931977E
:103A3000F1F700C00000A0915B0390915403E09166
:103A40007203A11130C0A0915C03A1112CC096FD9E
:103A500002C0E53429F440E840935A0340935903E7
:103A600097FF05C040E84093580340935703F091F7
:103A70005703A09159036F2F70E04A2F50E064174D
:103A800075071CF0AF2F10E001C011E0F091580352
:103A9000B0915A036F2F70E04B2F50E064177507F9
:103AA00024F0BF2F02C0B0E810E0E454E23018F078
:103AB00041E0412701C040E0E42FE17040910E0356
:103AC0004B1710F4B0930E0340910F03B41710F48A
:103AD000B0930F0340910C034A1710F4A0930C030A
:103AE00040910D03A41710F4A0930D03EE23A1F051
:103AF0006B2F70E040910E0350E04E505109641757
:103B000075070CF06DC140910F0350E0425F5F4FAD
:103B1000461757070CF067C1409110034B17D0F4BC
:103B2000FB2FF41B4F2FF93C08F040E01111469594
:103B3000440F411D042E01FA47F902FA46F903FA2F
:103B400045F905FA43F906FA42F907FA41F950E056
:103B50004E7F18C04B1B493C08F040E011114695C0
:103B6000440F411D542F41FB57F942FB56F943FBCB
:103B700055F945FB53F946FB52F947FB51F95160A2
:103B8000452F50E0EE23B1F0EA2FF0E060910C03F6
:103B900070E06E507109E617F70714F05E6F3FC0D2
:103BA00060910D0370E0625F7F4F6E177F0714F026
:103BB0005F6F35C0609111036A17D0F47A2F761BBE
:103BC000672F793C08F060E011116695660F611D62
:103BD000062E01FA67F902FA66F903FA65F905FAA1
:103BE00063F906FA62F907FA61F9562B5E7F17C08E
:103BF0006A1B693C08F060E011116695660F611D53
:103C0000062E01FA67F902FA66F903FA65F905FA70
:103C100063F906FA62F907FA61F95160562BB0931D
:103C20001003A0931103FA01ED7FFD7F2227307F5F
:103C3000492F4F7009F0326095FF07C0316005C011
:103C4000E0E0F0E004C0E0E0F0E040E050E060E000
:103C500070E0909151039F3221F09F3111F018E0F4
:103C600001C010E1811103C0AFE0B4EA0CC0A3EFC2
:103C7000B1E04E990AC011971097D9F7B7C01197C4
:103C8000109709F4B3C04E9BFACFABB1A063ABB9A8
:103C900000E0A1E0B0E07D01E222F322EF2811F084
:103CA0005D9801C05D9A7D01E622F722EF2811F0B0
:103CB0005C9801C05C9A7D01E422F522EF2811F0A6
:103CC000469801C0469AAA0FBB1F4F99FECF9F325C
:103CD00011F44F9BFECF0F5F0117E8F2913241F4D0
:103CE00090E59A95F1F74F9903C09FE190935103A6
:103CF00037FF72C0882309F46FC080910B038130B5
:103D000009F03DC0E5E0EA95F1F7000080930B0370
:103D10008BE795E124E04E9907C04F9B20930B035E
:103D200001970097C1F762C080E090E074E0F5E091
:103D3000FA95F1F700006CE021E030E0A90148239A
:103D40005923452B11F05D9801C05D9A220F331F56
:103D50004F99FECF615091F770930B039C5F5D9A72
:103D600023E833E04E9906C0215031092115310571
:103D7000C9F73CC081152CE09207C9F637C055E061
:103D80005A95F1F7000081E080930B0380E190E009
:103D900021E030E0A9014E235F23452B21F05D98FF
:103DA00041E050E002C05D9AFBCF4F9B03C04F5FE4
:103DB0005F4FFBCF49395A43C8F4220F331F019795
:103DC000009741F78FE99FE00197F1F700C00000ED
:103DD00084E080930B030AC05D985C98469806C007
:103DE0004EEF50E0D1CE4FEF50E0CECE0F90DF91AE
:103DF000CF911F910F91FF90EF900895559A549A8B
:103E00003E9A80E090E0CBDC80915103813219F43E
:103E100081E090E0C4DC80915103813219F481E0AB
:103E200090E0BDDC80915103813219F481E090E093
:103E3000B6DC87EC90E00197F1F700C00000089530
:103E400088E591E0089508955198599A3E98469AC8
:103E5000509A10921303109212030895089570E07F
:103E600090E06115710569F19B0128233923232B0B
:103E700011F0589A0AC0589808C0369917C02F5F99
:103E80003F4F30936D0120936C0120916C01309174
:103E90006D01283840E9340780F308C0369B0EC016
:103EA0002F5F3F4F30936D0120936C0120916C0187
:103EB00030916D01283840E9340780F37695679595
:103EC000D0CF58980895DF92EF92FF920F931F93EF
:103ED000CF93DF93D0905703E0905803F0905C03AA
:103EE00080916F03882329F010921303109212031C
:103EF0000AC08EEC8D0D873930F081E090E0909310
:103F00001303809312038091120390911303209165
:103F100056033091540340915503019741F52430E5
:103F200049F0222351F0223059F0263061F000E0B0
:103F300010E00BC000E014E008C000E018E005C08D
:103F400000E012E002C000E011E030FD106431FD3D
:103F5000106136FD106837FD106135FD006834FDD5
:103F6000006441FD006140FF37C0006235C025306C
:103F700009F404C1273009F404C1213059F0233079
:103F8000B1F02430B9F0C0E0D0E8211106C0C0E0A3
:103F9000D8E812C0C0E0D4E90FC0223019F4C0E064
:103FA000D4E80AC0263041F4C0E0D2E805C0C0E041
:103FB000D2E902C0C0E0D0E930FDD16031FDC06877
:103FC00037FDC06435FDC06234FDC06141FDC8608D
:103FD00040FF04C0C46002C0CBE7D1E020ED37E071
:103FE00080E0369902C08F5F01C080E090E19A9531
:103FF000F1F7215031092115310509F4C5C085308B
:1040000080F3509A20916C0130916D01283880E93D
:10401000380748F4369913C02F5F3F4F30936D0136
:1040200020936C01EFCF2838304949F4ADC0369B5E
:104030000EC02F5F3F4F30936D0120936C01209194
:104040006C0130916D01283880E9380780F3809148
:10405000120390911303019711F458980AC0589ACB
:1040600008C036990EC02F5F3F4F30936D012093EB
:104070006C0120916C0130916D01283890E939076D
:1040800080F381E090E090936D0180936C01D7FF05
:1040900002C0589A01C0589885E18A95F1F700004E
:1040A00036996AC060E48D2FDADE60E88C2FD7DEA7
:1040B0002091120330911303232B09F45DC060E8B3
:1040C00088E0CDDE60E88D2DCADE82E020916C01B3
:1040D00030916D01283890E9390788F436990FC07E
:1040E0002F5F3F4F30936D0120936C01EFCF369BD4
:1040F0000EC02F5F3F4F30936D0120936C012091D4
:104100006C0130916D01283890E9390780F38150B6
:10411000E9F660E88E2DA3DE82E020916C013091FB
:104120006D01283890E9390788F436990FC02F5F60
:104130003F4F30936D0120936C01EFCF369B0EC043
:104140002F5F3F4F30936D0120936C0120916C01E4
:1041500030916D01283890E9390780F38150E9F6F4
:1041600060E88F2D7CDE68E082E079DE60E8812FF8
:1041700076DE60E8802F73DE589A06C0C0E0D2EA8F
:104180001BCFC0E0D4EA18CFDF91CF911F910F91E0
:10419000FF90EF90DF90089581E090E090936D01A3
:1041A00080936C0180916C0190916D01883820E9B9
:1041B000920720F4369907C00196F0CF88389049CD
:1041C00011F480E0089587E998E00197F1F700C0C5
:1041D00000003699F6CF81E090E090936D018093D6
:1041E0006C0180916C0190916D01883820E99207F3
:1041F00020F4369905C00196F0CF8838904909F32C
:10420000499BDFCF8FED9EE20197F1F700C00000E0
:104210004F9BD7CF8BE2089582E691E008950895F1
:1042200010927E0310927D030895089583B18E3F0E
:1042300059F481E090E090937E0380937D03909306
:104240001503809314030FC083B18C3F59F481E0B0
:1042500090E090937E0380937D031092150310925B
:10426000140301C0089581E308950E946C098091B0
:104270005603843081F0823081F0882381F08630CB
:1042800081F0873081F0853081F0813081F083309A
:1042900081F020E00FC020E40DC020E10BC020E839
:1042A00009C020E207C020EA05C020E603C020E9DB
:1042B00001C020E540915403642F617040FD02C0AD
:1042C00050E001C050E480917D0390917E03342F33
:1042D00032708130910571F46111216031112260D9
:1042E0003091670332FD206C44FD206345FF1DC003
:1042F000206E1BC0611121603111226042FD02C09D
:1043000030E001C030E843FD306446FD306247FDD7
:1043100030614091550340FD386041FD346046FDF9
:10432000326047FF03C0316001C030E0EBB178B1CB
:1043300065B10097A9F1422F4095E36F4E23019795
:1043400019F483E0842701C0842F8BB98091140372
:1043500090911503892B29F48BB183608BB921FDD2
:104360005898852F8095972F9064892388B9832F3B
:104370008095962F9E6F892385B980917D039091BA
:104380007E03019709F423602AB980911403909168
:104390001503892B19F48AB183608AB957B934B9E6
:1043A00008958EE691E008950895089510921C03F3
:1043B000109216033E9A469A8AB1806F8AB98BB1E1
:1043C0008FEF8BB910921E0382E080931D03089536
:1043D0008FEC8BB989B18370833011F580E090E068
:1043E00029B12370213029F0019681152AEF920717
:1043F000B9F72FEF2BB981159A4F91F020E030E0FB
:1044000089B18370813031F42F5F3F4F21158AEFDE
:104410003807B1F78FEC8BB981E021153A4F09F4D9
:1044200080E00895D5DF882359F08FE39CE9019758
:10443000F1F700C00000CCDF89B1837019F0089556
:1044400080E0089589E1089599B19370E9F7982F74
:104450009F609BB9469899B193709130E1F720E144
:10446000829FC00111248F608BB9469A08951F93D3
:10447000CF93DF9390915603953089F0973091F068
:10448000913099F09330A1F09923A9F09430B1F0D4
:104490009630B9F09230C1F0CFEFDFEF17C0CFE91F
:1044A000DFEF14C0CFEADFEF11C0CFE6DFEF0EC0C1
:1044B000CFE5DFEF0BC0CFEEDFEF08C0CFEDDFEFD2
:1044C00005C0CFEBDFEF02C0CFE7DFEF80915403F1
:1044D000382F327081FDCE7F87FF05C0911102C059
:1044E000DF7701C0CD7F80FDCB7F85FDC77F582F53
:1044F000507486FF05C0911102C0D77F01C0DF7ED6
:1045000083FDDF7D482F447082FDDF7B20915503C2
:1045100021FDDF7720FDD77F20911C03213009F496
:1045200048C01092160320917203253451F02034B4
:1045300031F02A3079F4552321F0CE7F02C04111A9
:10454000D77F10921C0322E020931E0323E02093C8
:104550001D031FC040915B03442381F0233771F496
:104560003111CB7F23E020931D0322E020931E0313
:1045700020931C0321E0209316030BC020915703C6
:104580002253273930F026E020931D0321E02093A9
:104590001E03943071F48378833859F482E0809359
:1045A0001E0383E080931D0381E080931C038093AE
:1045B000160380916F03882349F010921E0382E056
:1045C00080931D0310921C03109216038FE18BB988
:1045D00089B18370E9F710911D0380911E0320E1DA
:1045E000829FC0011124812B2FDF133009F078C086
:1045F000C095D09580911C03823019F420915B0303
:1046000007C0833019F420915C0302C02091570346
:10461000822F90E030911B03831B910920931B0391
:1046200097FD02C0CF7E01C0C061309172034091FE
:104630001603343471F0442361F0283C20F0CF7E1F
:1046400088E39FEF13C0213420F4C06188EC90E030
:104650000DC09C012A513F4F2D3C314038F0CF7E98
:104660008091190384FDC0618091180391E0980F37
:10467000909357038093180320915803822F90E062
:1046800030911A03831B910920931A0318161906F7
:1046900014F4C06201C0CF7D442361F0283C20F0B7
:1046A000C06282E390E013C0213420F4CF7D8EEC11
:1046B0009FEF0DC09C0126503F4F253F314038F001
:1046C000CF7D8091190385FDC06280911703982FDB
:1046D00091959093580380931703CF73C093190358
:1046E0008C2FB2DE133049F480915703ADDE8091F8
:1046F0005803AADE153030F40DC08D2FA5DE13301F
:1047000048F0F2CF80915D039FDE153019F0809163
:104710005E039ADE81E098DE87EC90E00197F1F786
:1047200000C00000DF91CF911F91089588E791E0CC
:10473000089508958AB1836F8AB988E080938100D3
:1047400082E080936F00A8E8B0E09FEF9C93E9E8D7
:10475000F0E081E080839C9380830895B19A109269
:1047600085001092840010928100F89408952FEF34
:1047700089E698E1215080409040E1F700C00000B8
:104780001C9903C020E22A95F1F780E090E01C9B81
:104790000BC0019681152AEF9207C9F712C0019646
:1047A00081152AEF920769F01C9BF9CF1D9908C06B
:1047B0008FE99FE00197F1F700C0000085E10895BF
:1047C000089508950E946C099091540395FD02C0CC
:1047D0002FEF01C02DEF97FD2F7780915603823088
:1047E00011F42F7B1BC0863011F42F7D17C084304D
:1047F00011F42F7E13C0811102C02E7F0FC08730AD
:1048000011F42E7D0BC0853011F42F7C07C0813050
:1048100011F42E7B03C0833009F42F7A91FD02C07E
:104820005FEF01C05FE78091550380FD5F7B83FDF3
:104830005F7D86FD5F7E6091670361FD5E7F90FD19
:1048400002C04FEF01C04FE781FD4F7B84FD4F7DDC
:1048500087FD4F7E62FD4E7F94FF02C03FE701C09F
:104860003FEF82FD3F7B85FD3F7D60FD3F7E63FD29
:104870003E7F1F9B04C01C9B04C080E003C081E0FE
:1048800001C082E0909181009560909381007894BE
:104890001092850010928400813029F08230A1F0BE
:1048A00080E090E029C01F9BFECF80912E038111F4
:1048B0004FC02BB91C9BFECF5BB91D9BFECF4BB9E4
:1048C0001E9BFECF3BB944C01C9BFECF80912E03A4
:1048D00081113EC05BB91D9BFECF4BB91E9BFECF25
:1048E0003BB91F9BFECF2BB91C9BFECF31C001965D
:1048F00081156AEF9607B1F11C99F9CF60912E03EB
:10490000611126C02BB91C9906C0019681152AEFAA
:104910009207C9F727C05BB91D9906C0019681159A
:104920006AEF9607C9F71EC04BB91E9906C00196DB
:1049300081152AEF9207C9F715C03BB91F9906C028
:10494000019681156AEF9607C9F70CC083EF8BB902
:10495000B19A109285001092840010928100F89410
:1049600010922E03089582E891E0089508958AB187
:1049700081678AB908950895803124EA920720F466
:104980004F9906C00196F8CF803124EA920739F09A
:1049900028E02A95F1F7369B02C04F9905C080E0C8
:1049A0000895369B09C00196803124EA9207C8F326
:1049B000803124EA920799F34F9BF1CF03C04F9BBC
:1049C00008C00196803124EA9207C8F38031944AE6
:1049D00031F396B1892F807496FDE1CF4F9B87E22A
:1049E0000895CF93DF930E946C093091540335FDF5
:1049F00002C09FEF01C09FEE20915603223009F4C0
:104A00006AC0263009F469C0243049F0222389F0B5
:104A1000273089F08FEF253021F48FEA0DC08FEB1E
:104A20000BC0213011F48EED07C0233029F48EEB3A
:104A300003C08FED01C08FEC31FD9F7D30FD9E7F67
:104A400034FD9F7B232F2C7C69F037FD02C02FEFB4
:104A500001C02FED33FD2F7E32FD2F7B36FF07C0C7
:104A60002E7F05C0292F382F9FEF8FEF05C03EE81E
:104A700003C0369905C02196C03144EAD407C8F373
:104A80003BB903C04F9B05C02196C03144EAD4070F
:104A9000C8F32BB93E3841F084EF91E0369906C057
:104AA00001970097D9F702C0292F382F80E090E0B6
:104AB000369905C00196843F41E09407C9F73BB998
:104AC0004F9B05C00196803134EA9307C8F32BB998
:104AD000DF91CF9108958EEFAFCF8FEEADCF8CE801
:104AE00091E00895089584B18FEF84B908950895F1
:104AF0008BE108951F93CF93DF9300D000D0CDB703
:104B0000DEB760915703662311F0605801C061E879
:104B100010915803112311F0105801C011E8862F8D
:104B2000992787FD909597FF03C0919581959109ED
:104B3000C39764F4812F992787FD909597FF03C051
:104B4000919581959109C3970CF45AC0772767FD19
:104B50007095872F972F3DD49B01AC01612F77274C
:104B600067FD7095872F972F29833A834B835C834A
:104B700030D429813A814B815C813FD320E030E001
:104B800044E652E4DED4F2D368358FEF78070CF4B4
:104B900057C06E36EFEF7E07ACF16538FFEF7F0749
:104BA0009CF16B398FEF78078CF1623BEFEF7E075A
:104BB0007CF1683CFFEF7F076CF16F3D8FEF78076A
:104BC0005CF1653FEFEF7E074CF16B30710544F10E
:104BD000613271053CF16833710534F16E34710551
:104BE0002CF16536710524F16B3771051CF16239C2
:104BF000710514F1683A71050CF1653B710504F11A
:104C00008FEF1FC08EE71DC08EE31BC08FE319C05E
:104C10008FEB17C08EEB15C08EE913C08FE911C062
:104C20008FED0FC08EED0DC08EEC0BC08FEC09C068
:104C30008FEE07C08EEE05C08EE603C08FE601C082
:104C40008FE790915603943011F48F7E1BC0923001
:104C500011F48F7D17C0911102C08F7B13C0963065
:104C600011F48F770FC0973011F48E730BC095300D
:104C700011F48E7607C0913011F48E7903C0933011
:104C800009F48E7C2091540320FD897F21FD857FCE
:104C900022FD01C027FD837F9091550390FD877E03
:104CA00091FD8B7E92FD8D7E93FD877D94FD8B7DA6
:104CB00095FD8D7D96FD877B97FD8B7B909167039E
:104CC00090FD8D7B91FD01C024FD877792FD8B7750
:104CD00093FD01C025FD8D7785B90F900F900F9042
:104CE0000F90DF91CF911F91089586E991E008958B
:104CF00080B3806680BB81B3806681BB089520B39A
:104D000080B38F7980BB9FB120BB907681E009F49E
:104D100080E008959FB1907651F428E632E49FB187
:104D2000907639F42150310921153105C1F78EEF04
:104D3000089596E09A95F1F700C09FB19076B9F783
:104D400090E19A95F1F7EFE2F3E040E0481709F4BB
:104D5000B1C0908196959083000000007D9B03C0B8
:104D600000C000C002C09068908394E19A95F1F76A
:104D7000908196959083000000007D9B03C000C049
:104D800000C002C09068908394E19A95F1F79081F9
:104D900096959083000000007D9B03C000C000C07A
:104DA00002C09068908394E19A95F1F7908196956E
:104DB0009083000000007D9B03C000C000C002C0C3
:104DC0009068908394E19A95F1F7908196959083FD
:104DD000000000007D9B03C000C000C002C09068BE
:104DE000908394E19A95F1F79081969590830000D5
:104DF00000007D9B03C000C000C002C0906890838B
:104E000094E19A95F1F790819695908300000000C7
:104E10007D9B03C000C000C002C09068908394E1F5
:104E20009A95F1F7908196959083000000007D9B04
:104E300003C000C000C002C0906890837D9B17C073
:104E400020E030E07D9B0BC02F5F3F4F2C3D95E075
:104E50003907C1F704C07D9906C02F5F3F4F2C3D35
:104E600095E03907C1F796E09A95F1F720C020E068
:104E700030E07D990BC02F5F3F4F2C3D95E0390707
:104E8000C1F704C07D9B0BC02F5F3F4F2C3D95E0C9
:104E90003907C1F704C07D9906C02F5F3F4F2C3DF5
:104EA00095E03907C1F795E09A95F1F700004F5F5B
:104EB00031964CCF85E38A95F1F7000080912F035E
:104EC000089590B39F7990BB28E632E49FB1907625
:104ED00039F42150310921153105C1F78FEF0895BB
:104EE0009AE19A95F1F700C090B3906690BB91B3A8
:104EF0009F7991BB27E02A95F1F798E08D9A2AE0F7
:104F00002A95F1F700C080FD8D982AE02A95F1F7E7
:104F100000C08695915091F78D9A85E08A95F1F7BA
:104F200000008D9890E19A95F1F781B3806681BB7E
:104F300080B38F7980BB2AE12A95F1F700C080E029
:104F4000089580EA91E00895982F973058F590934E
:104F5000E900981739F07091EC002091ED00509124
:104F6000F00003C0242F762F50E021FF19C03091AC
:104F7000EB003E7F3093EB003091ED003D7F3093AE
:104F8000ED003091EB0031603093EB007093EC005A
:104F90002093ED005093F0002091EE0027FF07C012
:104FA0009F5FD3CF8F708093E90081E0089580E008
:104FB00008951CD023D08091E00081608093E000B0
:104FC0008091D8008F778093D80080917F0382FFF3
:104FD00019BC8091D7008E7F8093D7008091D80034
:104FE0008F7E8093D800109283030895E8EDF0E05F
:104FF00080818E7F80831092E20008951092DA0003
:105000001092E10008951F920F920FB60F92112493
:105010002F933F934F935F936F937F938F939F93C0
:10502000AF93BF93EF93FF938091E10082FF0AC09B
:105030008091E20082FF06C08091E1008B7F809327
:10504000E100C5D08091DA0080FF25C08091D800B2
:1050500080FF21C08091DA008E7F8093DA008091FA
:10506000D90080FF11C080917F0382FF05C081E0DD
:1050700080938403ACD00FC080E189BD82E189BDFB
:1050800009B400FEFDCFF3CF80917F0382FF19BCEE
:10509000109284039CD08091E10080FF1BC080911E
:1050A000E20080FF17C08091E2008E7F8093E200D3
:1050B0008091E20080618093E2008091D80080625C
:1050C0008093D80080917F0382FF19BC85E0809394
:1050D00084037DD08091E10084FF33C08091E200A1
:1050E00084FF2FC080917F0382FF19C08091D80078
:1050F0008F7D8093D8008091E1008F7E8093E100C6
:105100008091E2008F7E8093E2008091E2008160D6
:105110008093E2008091800381110DC008C080E17E
:1051200089BD82E189BD09B400FEFDCFDFCF80914A
:10513000E30087FF02C084E001C081E08093840324
:1051400046D08091E10083FF31C08091E20083FF6F
:105150002DC08091E100877F8093E10082E0809301
:105160008403109280038091E1008E7F8093E100A0
:105170008091E2008E7F8093E2008091E200806166
:105180008093E2002091A80130E088E090E040E0C8
:105190008217930720F44F5F880F991FF9CF42952C
:1051A000407F426060E080E0CFDE11D0FF91EF9160
:1051B000BF91AF919F918F917F916F915F914F912F
:1051C0003F912F910F900FBE0F901F90189508954B
:1051D000EE0FFF1F0590F491E02D099463D158F074
:1051E00080E891E009F49EEF64D128F040E851E0B6
:1051F00059F45EEF09C02EC196C1E92FE07871D154
:1052000068F3092E052AC1F32617370748075907FF
:1052100038F00E2E07F8E02569F0E025E0640AC0BA
:10522000EF6307F8009407FADB01B9019D01DC0187
:10523000CA01AD01EF9341D043D10AD05F9155230C
:1052400031F02BED3FE049E450FD49ECE1C1089518
:10525000DF93DD27B92FBF7740E85FE31616170607
:1052600048075B0710F4D92F65D19F938F937F93E5
:105270006F93CAD1ECECF0E0F0D022D12F913F91A6
:105280004F915F916AD1DD2349F09058A2EA2AED4F
:105290003FE049EC5FE3D0785D27CBD1DF9110C1CF
:1052A00008D140F0FFD030F021F45F3F19F0CCC0BE
:1052B00051113AC1CFC015D198F39923C9F35523A1
:1052C000B1F3951B550BBB27AA27621773078407F9
:1052D00038F09F5F5F4F220F331F441FAA1FA9F3AF
:1052E00033D00E2E3AF0E0E830D091505040E695A1
:1052F000001CCAF729D0FE2F27D0660F771F881F02
:10530000BB1F261737074807AB07B0E809F0BB0BF0
:10531000802DBF01FF2793585F4F2AF09E3F510514
:1053200068F092C001C15F3FECF3983EDCF38695D4
:1053300077956795B795F7959F5FC9F7880F911D8A
:105340009695879597F90895E1E0660F771F881F76
:10535000BB1F621773078407BA0720F0621B730B29
:10536000840BBA0BEE1F88F7E095089504D068947B
:10537000B111DAC00895BDD088F09F5790F0B92FD1
:105380009927B751A0F0D1F0660F771F881F991F9A
:105390001AF0BA95C9F712C0B13081F0C4D0B1E0AB
:1053A0000895C1C0672F782F8827B85F39F0B93FBB
:1053B000CCF3869577956795B395D9F73EF490959C
:1053C0008095709561957F4F8F4F9F4F0895E8941A
:1053D00009C097FB3EF490958095709561957F4F3D
:1053E0008F4F9F4F9923A9F0F92F96E9BB279395EB
:1053F000F695879577956795B795F111F8CFFAF4FB
:10540000BB0F11F460FF1BC06F5F7F4F8F4F9F4F2B
:1054100016C0882311F096E911C0772321F09EE889
:10542000872F762F05C0662371F096E8862F70E0EF
:1054300060E02AF09A95660F771F881FDAF7880FC9
:105440009695879597F9089597F99F6780E870E09A
:1054500060E008959FEF80EC0895DF93CF931F9352
:105460000F93FF92EF92DF927B018C01689405C04D
:10547000DA2EEF0172D0FE01E894A59125913591C5
:1054800045915591AEF3EF01D4D0FE019701A801EB
:10549000DA9479F7DF90EF90FF900F911F91CF9101
:1054A000DF91089500240A941616170618060906B7
:1054B000089500240A94121613061406050608958A
:1054C000092E0394000C11F4882352F0BB0F40F412
:1054D000BF2B11F460FF04C06F5F7F4F8F4F9F4F52
:1054E000089557FD9058440F551F59F05F3F71F0D4
:1054F0004795880F97FB991F61F09F3F79F087953B
:105500000895121613061406551FF2CF4695F1DFC3
:1055100008C0161617061806991FF1CF8695710553
:10552000610508940895E894BB2766277727CB0187
:1055300097F908959B01AC0160E070E080E89FE37B
:10554000CBC00BD0BDCFAEDF28F0B3DF18F0952372
:1055500009F07ACF7FCF1124E7CFC3DFA0F3959F67
:10556000D1F3950F50E0551F629FF001729FBB274A
:10557000F00DB11D639FAA27F00DB11DAA1F649FF6
:105580006627B00DA11D661F829F2227B00DA11DA9
:10559000621F739FB00DA11D621F839FA00D611D2F
:1055A000221F749F3327A00D611D231F849F600D50
:1055B000211D822F762F6A2F11249F5750408AF089
:1055C000E1F088234AF0EE0FFF1FBB1F661F771F15
:1055D000881F91505040A9F79E3F510570F034CF7D
:1055E000A3CF5F3FECF3983EDCF386957795679504
:1055F000B795F795E7959F5FC1F7FE2B880F911D33
:105600009695879597F908959B01AC019ACF5058CC
:10561000BB27AA270ED054CF45DF30F04ADF20F059
:1056200031F49F3F11F41EF415CF0EF4E095E7FB23
:105630000BCFE92F56DF80F3BA1762077307840791
:10564000950718F071F49EF56ECF0EF4E0950B2ED1
:10565000BA2FA02D0B01B90190010C01CA01A001C4
:105660001124FF27591B99F0593F50F4503E68F11F
:105670001A16F040A22F232F342F4427585FF3CF60
:10568000469537952795A795F0405395C9F77EF431
:105690001F16BA0B620B730B840BBAF09150A1F07A
:1056A000FF0FBB1F661F771F881FC2F70EC0BA0F00
:1056B000621F731F841F48F4879577956795B79588
:1056C000F7959E3F08F0B3CF9395880F08F0992780
:1056D000EE0F979587950895EEDDF2CEFB01DC0184
:1056E00004C08D910190801921F441505040C8F7B9
:1056F000881B990B0895FB01DC0102C001900D92FB
:0C57000041505040D8F70895F894FFCFB6
:10570C009A0B340CE60B990BAD0BC60FC60EBE0EE6
:10571C00B30EB80EE02080E02080E02080E02080F6
:10572C0000000000E02080E02080E02080E020806D
:10573C00000000000000A42001016114E3143716DE
:10574C00601466144B16DE172B174A165216161ACF
:10575C008E1B451A151A3C1A9A1BFE1EAD1B991B63
:10576C00AC1B241F631FCC20231F2E1F01001021F4
:10577C00352116210F211521D62137221222D421B1
:10578C00D5219A23E223B7239923AE23B724F124FE
:10579C00BC24B624BB2473257A257825722577255D
:0A57AC0078268A2661277F26080070
:00000001FF
