:10000000CCC00000E6C00000E4C00000E2C0000078
:10001000E0C00000DEC00000DCC00000DAC000006C
:10002000D8C00000D6C000009DC60000D2C00000AD
:10003000D0C00000CEC00000CCC00000CAC000008C
:10004000C8C00000C6C00000C4C00000C2C000009C
:10005000C0C00000BEC00000BCC00000BAC00000AC
:10006000B8C00000B6C00000B4C00000B2C00000BC
:10007000B0C00000AEC00000ACC00000AAC00000CC
:10008000A8C00000A6C00000A4C00000A2C00000DC
:10009000A0C000009EC000009CC000009AC00000EC
:1000A00098C0000096C0000094C00000A108C308DA
:1000B000A809C308A80905092809A8097A098C090B
:1000C0001A034200720069006400670065002000A6
:1000D0002D00200070007300330000001403420064
:1000E0006C006900730073002D0042006F007800FF
:1000F0000000040309040902220001010080320902
:100100000400000103000000092100020001227028
:10011000000705810340000A1201110100000040A0
:100120004C05000000010102000105010905A101C3
:1001300015002501350045017501950D05091901C9
:10014000290D81029503810105012507463B0175B3
:1001500004950165140939814265009501810126E4
:10016000FF0046FF0009300931093209357508954D
:100170000481020600FF092009210922092309241C
:1001800009250926092709280929092A092B950C77
:1001900081020A21269508B102C011241FBECFEFAB
:1001A000DAE0DEBFCDBF11E0A0E0B1E0ECECF3E1BE
:1001B00002C005900D92A031B107D9F721E0A0E16E
:1001C000B1E001C01D92A037B207E1F7D0D10C9485
:1001D000E40916CF109236011092380110923A01BC
:1001E00010923C0110924C011092170110924B0199
:1001F00010923D01089580912A0189578E3018F49C
:1002000080E880932A0180912B0189578E3018F461
:1002100080E880932B0180912D0189578E3018F44E
:1002200080E880932D0180912E0189578E3018F43B
:1002300080E880932E010895E0913D01A0914B014B
:100240003091170120914C0140913C0170913A018D
:1002500060913801509136018A2F90E08E0F911DE8
:10026000830F911D820F911D840F911D870F911D8A
:10027000860F911D850F911D892B09F4BCC0F0914B
:100280002A01FF3F21F0EF1710F4F0933D01E091B8
:100290002B01EF3F21F0AE1710F4E0934B01FF2349
:1002A00021F0F31710F4F0931701EE2321F0E21779
:1002B00010F4E0934C01FF3F71F0A0913D012F2F0E
:1002C00030E08A2F90E005978217930724F4F150CD
:1002D000FA1BF0932A01EF3F71F0F0914B012E2FA2
:1002E00030E08F2F90E005978217930724F4E150B8
:1002F000EF1BE0932B01E0912A01EE2369F0F091CE
:1003000017012E2F30E08F2F90E005962817390720
:100310001CF4EF1BE0932A01E0912B01EE2369F01E
:10032000F0914C012E2F30E08F2F90E0059628178A
:1003300039071CF4EF1BE0932B01E0912D01EF3FF7
:1003400021F04E1710F4E0933C0140912E014F3FF5
:1003500021F0741710F440933A01EE2321F0E617D0
:1003600010F4E0933801442321F0451710F4409332
:100370003601EF3F71F050913C012E2F30E0852F78
:1003800090E005978217930724F4E150E51BE09372
:100390002D014F3F71F050913A01242F30E0852F0D
:1003A00090E005978217930724F44150451B409332
:1003B0002E0140912D01442369F050913801242FE2
:1003C00030E0852F90E00596281739071CF4451B6F
:1003D00040932D0140912E01442369F05091360144
:1003E000242F30E0852F90E00596281739071CF45C
:1003F000451B40932E010895E0916101F091620147
:100400000480F581E02D80E00995E0916101F09193
:1004100062010480F581E02D82E00995E09161019F
:10042000F09162010280F381E02D8DE00995EFEA01
:10043000F4E03197F1F700C00000803F08F096C06B
:10044000E7E2F1E0A8E1B1E081918D9381E0E3334F
:10045000F807D1F7E0916101F09162010480F58124
:10046000E02D81E00995E0916101F0916201028047
:10047000F381E02D8DE00995803F08F077C081E0A1
:1004800090913701911101C080E091E02091250108
:10049000211101C090E0890F90911001981709F483
:1004A00065C0E0916101F09162010480F581E02D69
:1004B0008CE10995E0916101F09162010480F58180
:1004C000E02D809137010995E0916101F091620181
:1004D00081E090913701911101C080E00480F581A5
:1004E000E02D81950995E0916101F0916201048010
:1004F000F581E02D81E10995E0916101F0916201C2
:100500000480F581E02D8CE10995E0916101F09185
:1005100062010480F581E02D809125010995E0912B
:100520006101F091620181E090912501911101C07A
:1005300080E00480F581E02D81950995E0916101CD
:10054000F09162010480F581E02D84E1099591E04C
:1005500080912501811101C090E081E02091370157
:10056000211101C080E0890F80931001089580E877
:10057000809361001092610085B7806885BF85B760
:10058000806885BF1AB817B814B88FEF8BB988B9CF
:1005900085B91092160110923B0181E078D101D308
:1005A0009093620180936101DC01ED91FC910995CA
:1005B00011DE5CD1CDE0D1E083D11EDF9091160138
:1005C00091111DC0803F88F0909128012091270152
:1005D000922398239F3F21F08F3F11F4D09316016F
:1005E000EEE3F1E0A6E2B1E004C0E6E2F1E0AEE362
:1005F000B1E08C2F01900D928A95E1F70DC0EEE3EA
:10060000F1E0A6E2B1E09C2F01900D929A95E1F7FE
:10061000803F10F4109216019091160180913B01D9
:10062000992361F090912701811104C0D0933B017F
:10063000906201C09F7D9093270103C081111092A9
:100640003B0114D110924F0110924E01F5DDD3DD24
:1006500080912A018093510180912B018093520156
:1006600080912D018093530180912E01809354013C
:100670008091270180FF05C090914E019260909378
:100680004E0181FF05C090914E01946090934E0100
:1006900082FF05C090914E01916090934E0183FFBF
:1006A00005C090914E01986090934E0186FF05C061
:1006B00090914E01906190934E0187FF05C09091FB
:1006C0004E01906290934E019091280190FF05C0D9
:1006D00020914E01206420934E0191FF05C020918E
:1006E0004E01206820934E0120912C01253628F0E0
:1006F00020914E01206420934E0120912F01253638
:1007000028F020914E01206820934E0184FF05C0FF
:1007100020914F01216020934F0185FF05C08091FA
:100720004F01826080934F0196FF05C080914F0179
:10073000846080934F0197FF05C080914F018860CE
:1007400080934F018091290182FF05C080914F0164
:10075000806180934F01809132018093500180919C
:100760001801809355018091190180935601809161
:100770001A018093570180911B0180935801809149
:100780001C018093590180911D0180935A01809131
:100790001E0180935B0180911F0180935C01809119
:1007A000200180935D018091210180935E01809101
:1007B000220180935F01809123018093600182D0A8
:1007C000FBCEE0911401F0911501309709F00994E6
:1007D0000895E0911201F0911301309709F0099406
:1007E000089542E361EC81E0DFC1809169018130CD
:1007F00021F580916801813A01F580916A0190911B
:100800006B018115934051F48091E800877F8093BC
:10081000E80068E070E080E091E009C08091E800C5
:10082000877F8093E80063E170E08EE491E0A6D3D7
:100830008091E8008B778093E800089580916701AC
:10084000843099F481E08093E9008091E80080FF92
:100850000CC040E050E063E170E08EE491E046D3EC
:100860008091E8008E778093E800089510924F0100
:1008700010924E018FE08093500180E880935401E4
:1008800080935301809352018093510108958823EE
:1008900061F02FE088E190E00FB6F894A89580937E
:1008A00060000FBE2093600008C088E10FB6F89486
:1008B00080936000109260000FBE3CD2789408953F
:1008C000A8950895BBDF5EC5292F33272330310556
:1008D000B9F05CF42130310569F12230310579F548
:1008E00082E290E026EF30E02EC021323105E9F0BF
:1008F0002232310521F580E790E02AE231E023C081
:1009000099278130910541F08230910541F0892B82
:10091000B1F4E2EFF0E005C0ECEDF0E002C0E0EC95
:10092000F0E0849190E09F010EC089E090E028E023
:1009300031E009C082E190E028E131E004C080E0CC
:1009400090E020E030E0FA0131832083089580B305
:10095000806680BB81B3806681BB089520B380B37D
:100960008F7980BB9FB120BB907681E009F480E055
:1009700008959FB1907651F420E137E29FB19076CF
:1009800039F42150310921153105C1F78EEF089551
:1009900096E09A95F1F700C09FB19076B9F790E193
:1009A0009A95F1F7E6E2F1E040E0481709F4B1C0AA
:1009B000908196959083000000007D9B03C000C04D
:1009C00000C002C09068908394E19A95F1F79081FD
:1009D00096959083000000007D9B03C000C000C07E
:1009E00002C09068908394E19A95F1F79081969572
:1009F0009083000000007D9B03C000C000C002C0C7
:100A00009068908394E19A95F1F790819695908300
:100A1000000000007D9B03C000C000C002C09068C1
:100A2000908394E19A95F1F79081969590830000D8
:100A300000007D9B03C000C000C002C0906890838E
:100A400094E19A95F1F790819695908300000000CB
:100A50007D9B03C000C000C002C09068908394E1F9
:100A60009A95F1F7908196959083000000007D9B08
:100A700003C000C000C002C09068908394E19A95C2
:100A8000F1F7908196959083000000007D9B03C054
:100A900000C000C002C0906890837D9B17C020E01A
:100AA00030E07D9B0BC02F5F3F4F2C3D95E0390719
:100AB000C1F704C07D9906C02F5F3F4F2C3D95E0E4
:100AC0003907C1F796E09A95F1F720C020E030E0B1
:100AD0007D990BC02F5F3F4F2C3D95E03907C1F743
:100AE00004C07D9B0BC02F5F3F4F2C3D95E0390725
:100AF000C1F704C07D9906C02F5F3F4F2C3D95E0A4
:100B00003907C1F795E09A95F1F700004F5F3196EC
:100B10004CCF509885E38A95F1F70000809126012B
:100B2000089590B39F7990BB20E137E29FB1907612
:100B300039F42150310921153105C1F78FEF08959E
:100B40009AE19A95F1F700C090B3906690BB91B38B
:100B50009F7991BB27E02A95F1F798E08D9A2AE0DA
:100B60002A95F1F700C080FD8D982AE02A95F1F7CB
:100B700000C08695915091F78D9A85E08A95F1F79E
:100B800000008D9890E19A95F1F781B3806681BB62
:100B900080B38F7980BB2AE12A95F1F700C080E00D
:100BA000089588E091E00895982F973058F5909334
:100BB000E900981739F07091EC002091ED00509108
:100BC000F00003C0242F762F50E021FF19C0309190
:100BD000EB003E7F3093EB003091ED003D7F309392
:100BE000ED003091EB0031603093EB007093EC003E
:100BF0002093ED005093F0002091EE0027FF07C0F6
:100C00009F5FD3CF8F708093E90081E0089580E0EB
:100C100008958091680187FD05C08091E80080FFFC
:100C20000EC012C08091E80082FD05C0809167016E
:100C30008111F8CF08958091E8008B7708C08091EA
:100C400067018111EACF08958091E8008E77809343
:100C5000E80008958091E4009091E50045E6209138
:100C6000EC0020FF21C02091E80020FD21C0209150
:100C70006701222389F0253089F02091EB0025FDC2
:100C80000FC02091E4003091E5002817390739F3AF
:100C9000415041F0C901E3CF82E0089583E0089517
:100CA00081E0089584E008952091E80022FFDFCFDD
:100CB00080E008950F931F93CF93DF9346D04DD0DC
:100CC000C8EDD0E088818F778883888180688883A9
:100CD00088818F7D888319BC10926701109263010F
:100CE000109265011092640100EE10E0F80180811D
:100CF0008B7F808388818160888342E360E080E02D
:100D000053DFE1EEF0E080818E7F8083E2EEF0E061
:100D1000808181608083808188608083F801808108
:100D20008E7F8083888180618883DF91CF911F913E
:100D30000F910895E7EDF0E080818160808384E089
:100D400082BF81E080936601B5CFE8EDF0E080815D
:100D50008E7F80831092E20008951092DA00109244
:100D6000E10008951F920F920FB60F9211242F9356
:100D70003F934F935F936F937F938F939F93AF9323
:100D8000BF93EF93FF938091E10082FF0AC08091AF
:100D9000E20082FF06C08091E1008B7F8093E1003A
:100DA000F0D28091DA0080FF1DC08091D80080FFD2
:100DB00019C08091DA008E7F8093DA008091D9008B
:100DC00080FF0CC080E189BD82E189BD09B400FECD
:100DD000FDCF81E080936701F4DC04C019BC109260
:100DE0006701F7DC8091E10080FF18C08091E2008C
:100DF00080FF14C08091E2008E7F8093E20080919A
:100E0000E20080618093E2008091D800806280934C
:100E1000D80019BC85E080936701B3D28091E100CE
:100E200084FF2DC08091E20084FF29C080E189BD4C
:100E300082E189BD09B400FEFDCF8091D8008F7D8D
:100E40008093D8008091E1008F7E8093E1008091B3
:100E5000E2008F7E8093E2008091E20081608093C7
:100E6000E20080916301811104C08091E30087FF5B
:100E700002C084E001C081E08093670182D280914A
:100E8000E10083FF22C08091E20083FF1EC08091B9
:100E9000E100877F8093E10082E0809367011092F8
:100EA00063018091E1008E7F8093E1008091E200F8
:100EB0008E7F8093E2008091E20080618093E20067
:100EC00042E360E080E070DE5CD2FF91EF91BF9181
:100ED000AF919F918F917F916F915F914F913F91D2
:100EE0002F910F900FBE0F901F901895CF92DF9209
:100EF000EF92FF920F931F93CF93DF937C018B01AF
:100F0000EA01A8DE811131C0209731F088819981F2
:100F1000081B190BE80EF91EC12CD12C0115110567
:100F200019F18091E80085FD14C08091E8008E776A
:100F30008093E80027D2209741F0888199818C0D19
:100F40009D1D9983888385E010C084DE882331F35A
:100F50000CC0F70181917F018093F10001501109CC
:100F6000FFEFCF1ADF0ADACF80E0DF91CF911F9138
:100F70000F91FF90EF90DF90CF90089520916E0138
:100F800030916F012617370748F06115710539F464
:100F90002091E8002E772093E80001C0B901FC0100
:100FA00020E061157105B1F1809167018823F1F1AD
:100FB0008530F1F18091E80083FD36C08091E80032
:100FC00082FF06C08091E80082FF27C080E008957C
:100FD0008091E80080FFE5CF2091F3008091F2003E
:100FE00090E0922B6115710551F08034910538F431
:100FF00021912093F100615071090196F3CF21E016
:101000008034910509F020E08091E8008E7780938C
:10101000E800C7CF2111C8CFD5CF809167018823C1
:1010200029F0853079F604C081E0089582E00895C2
:1010300083E0089520916E0130916F0126173707E4
:1010400048F06115710539F42091E8002E7720935E
:10105000E80001C0B901FC0120E061157105C9F18A
:1010600080916701882309F440C0853009F43FC0AE
:101070008091E80083FD37C08091E80082FF06C0C0
:101080008091E80082FF28C080E008958091E80008
:1010900080FFE3CF2091F3008091F20090E0922B4B
:1010A0006115710559F08034910540F42491209325
:1010B000F1003196615071090196F2CF21E0803440
:1010C000910509F020E08091E8008E778093E80098
:1010D000C4CF2111C5CFD4CF80916701882329F0D7
:1010E000853071F604C081E0089582E0089583E0C0
:1010F00008950F931F93CF93DF93CDB7DEB7AA97D1
:101100000FB6F894DEBF0FBECDBFE8E6F1E08091E8
:10111000F100819321E0E037F207C9F766DB8091A7
:10112000E80083FF15C12091680130916901832F88
:1011300090E08A30910508F00BC1FC01EA5AFF4F9C
:101140003DC1203881F0223809F002C180916C0144
:101150008F708093E9008091EB0085FB882780F9F0
:101160001092E90006C0809164019091650191118F
:1011700082609091E800977F9093E8008093F1005F
:101180001092F100C2C0822F8D7F09F0E1C02223AE
:1011900019F0223061F0DCC080916A01813009F0E1
:1011A000D7C0333009F080E08093650128C080917A
:1011B0006A01811124C020916C012F7009F4C8C00C
:1011C0002093E9008091EB0080FF19C08091EB0033
:1011D000333011F4806211C080618093EB0081E0B4
:1011E00090E0022E01C0880F0A94EAF78093EA008B
:1011F0001092EA008091EB0088608093EB001092DF
:10120000E9008091E800877F83C02111A1C010917F
:101210006A011F770FB7F8948091E800877F809369
:10122000E800F7DC8091E80080FFFCCF8091E300CC
:101230008078812B8093E30080688093E300112302
:1012400011F083E001C082E0809367010FBF80C08E
:101250002058223008F07CC080916A0190916B0187
:101260008C3D23E0920771F583E08A838AE28983CB
:101270004FB7F894DE01139620E03EE051E2E32FF1
:10128000F0E050935700E49120FF03C0E295EF7027
:101290003F5FEF708E2F90E0EA3010F0C79601C0EC
:1012A000C0968D939D932F5F243149F74FBF809156
:1012B000E800877F8093E8006AE270E0CE01019643
:1012C0005DDE12C0AE014F5F5F4F60916C01FCDAD2
:1012D000009709F43DC02091E800277F2093E800A3
:1012E000BC0189819A81A6DE8091E8008B7780938A
:1012F000E8002EC0203861F58091E800877F809358
:10130000E800809163018093F1008091E8008E777E
:101310008093E8007EDC1CC021111AC090916A0104
:101320009230B0F48091E800877F8093E80090933A
:1013300063016FDC80916301811104C08091E3003F
:1013400087FF02C084E001C081E08093670149DA31
:101350008091E80083FF0AC08091EB008062809357
:10136000EB008091E800877F8093E800AA960FB693
:10137000F894DEBF0FBECDBFDF91CF911F910F91CB
:1013800008950895CF93809167018823A9F08091F3
:10139000E9008F709091EC0090FF02C090E801C0CE
:1013A00090E0C92FC82B1092E9008091E80083FDDE
:1013B000A0DECF70C093E900CF910895EE0FFF1F1C
:0C13C0000590F491E02D0994F894FFCF03
:1013CC002126010700000000A704B9049105AE0412
:00000001FF
