:100000000DC3000027C3000025C3000023C3000068
:1000100021C300001FC300001DC300001BC300005C
:1000200019C3000017C300000C94370913C3000064
:1000300011C300000FC300000DC300000BC300007C
:1000400009C3000007C3000005C3000003C300008C
:1000500001C30000FFC20000FDC20000FBC200009F
:10006000F9C20000F7C20000F5C20000F3C20000B0
:10007000F1C20000EFC20000EDC20000EBC20000C0
:10008000E9C20000E7C20000E5C20000E3C20000D0
:10009000E1C20000DFC20000DDC20000DBC20000E0
:1000A000D9C20000D7C20000D5C20000AE0BD00BF1
:1000B000B50CD00BB50C120C350CB50C870C990C8B
:1000C000180342006C006900730073002D004300A8
:1000D0006C006F006E0065000000140342006C00AD
:1000E0006900730073002D0042006F00780000006B
:1000F00004030904090229000101008064090400C5
:1001000000020300000009211101000122EC040794
:1001100005810340000107050203400001120100B0
:100120000200000040D016600A0002010200010532
:10013000010905A1018501050919012918150025E5
:1001400001750195188102A10005010930093109E5
:100150003209330934093509360937150026FF00FD
:10016000350046FF00750895088102C00501250786
:10017000463B017504950165140939814265009576
:100180000181010601FF09497501950181022501DF
:1001900075078103050F0992A1028502099F09A035
:1001A00009A509A61500250135004501750195052C
:1001B000810295038103099415002501350045014D
:1001C000750195018102092215012528350145286F
:1001D000750795018102C00921A102850109221537
:1001E000012528350145287508950191020925A1A9
:1001F000020926092709300931093209330934096E
:1002000040094109420943092825031501350145E3
:1002100003750895019100C0095009540951150052
:1002200026FF7F350046FF7F66031055FD7510954C
:1002300003910255006600000952150026FF0035A3
:1002400000461027750895019102095315012508EC
:10025000350145087508950191020955A10205016E
:100260000930093115002501750195029102C0057B
:100270000F095695019102950591030957A1020BAB
:1002800001000A000B02000A0066140055FE15006A
:1002900026FF00350047A08C000066000075089519
:1002A0000291025500660000C0050F09A766031001
:1002B00055FD150026FF7F350046FF7F751095011F
:1002C00091026600005500C0050F095AA10285027F
:1002D0000922150125283501452875089501910247
:1002E000095B095D150026FF0035004610279502C1
:1002F0009102095C095E66031055FD26FF7F46FFEB
:100300007F7510910245006600005500C0095FA18D
:100310000285030922150125283501452875089510
:100320000191020923150025013500450175049549
:100330000191020958A1020B01000A000B02000AF8
:1003400000750295029102C01580257F36F0D846CF
:100350001027096075089501910236F0D8461027DC
:100360000961096295029102150026FF00350046D9
:100370001027096309647508950291020965461002
:100380002795019102C0096EA10285040922150179
:100390002528350145287508950191020970150039
:1003A00026FF003500461027750895019102096F58
:1003B0001580257F36F0D8461027950191020971E6
:1003C00066140055FE150026FF00350047A08C007E
:1003D000009102097226FF7F46FF7F66031055FDDC
:1003E0007510950191026600005500C00973A102C5
:1003F000850509221501252835014528750895012F
:10040000910209701601FF26FF0036F0D84610272A
:10041000751095019102C00974A102850609221583
:1004200001252835014528750895019102097509AE
:10043000761580257F36F0D84610277508950291ED
:1004400002C00966A102850805010930093115813C
:10045000257F350046FF00750895029102C0050F03
:100460000977A102850A09221501252835014528A9
:100470007508950191020978A1020979097A097B29
:1004800015012503750895019100C0097C1500260A
:10049000FF00350046FF009102C00990A102850BC4
:1004A0000922252815013501452875089501910275
:1004B000C00996A102850C099709980999099A091A
:1004C0009B099C15012506750895019100C0097DC1
:1004D000A102850D097E150026FF00350046102774
:1004E000750895019102C009ABA102850F0925A1EC
:1004F000020926092709300931093209330934096B
:1005000040094109420943092825031501350145E0
:100510000375089501B100C00501093B150026FFD0
:1005200001350046FF01750A9501B1027506B1015A
:10053000C0050F0989A10285020922252815013568
:1005400001452875089501B102098BA102098C09A2
:100550008D098E250315013501450375089501B1F7
:1005600000C009AC150027FFFF0000350047FFFF62
:10057000000075109501B100C0097FA10285030933
:1005800080751095011500350027FFFF000047FF1B
:10059000FF0000B102098326FF0046FF00750895A1
:1005A00001B10209A909AA750195021500250135B5
:1005B000004501B10275069501B103C00901A10111
:1005C000150026FF0075088510950D0900B202017F
:1005D000851195050900B202018515950D0900B236
:1005E000020185169600010900B2020185179530B7
:1005F0000900B20201851295080900B202018513B3
:10060000951C0900B20201851895C00900B20201CB
:10061000851495C40900B20201C0C00011241FBE98
:10062000CFEFDAE0DEBFCDBF11E0A0E0B1E0E4E063
:10063000FAE102C005900D92A830B107D9F721E088
:10064000A8E0B1E001C01D92A83BB207E1F705D0D8
:100650000C94000DD5CC089508951AB817B814B8A5
:100660008FEF8BB988B985B9C0E8C093610010924B
:10067000610095B7906895BF95B7906895BF1AB817
:1006800017B814B88BB988B985B910926301109264
:10069000820188E090E00E94F80C8093990189E043
:1006A00090E00E94F80C809397018AE090E00E940D
:1006B000F80C809384018BE090E00E94F80C80930A
:1006C000720181E05FD3F2D49093AA018093A901D3
:1006D000DC01ED91FC910995C0930901C0930A01D9
:1006E000C0930B01C0930C01C0930D01C0930E0188
:1006F000C0930F01C093100134D3DEEF1AE00EE077
:100700005AD38091630181110EC0D0938301E0918F
:10071000A901F091AA010480F581E02D82E00995FC
:100720008F3F61F00DC0E091A901F091AA01048012
:10073000F581E02D80E009958F3F39F78EEFAEC04F
:10074000E091A901F091AA010280F381E02D8DE0F2
:100750000995809383018FEA94E00197F1F700C037
:10076000000080918301803F08F098C0E4E7F1E049
:10077000A4E6B1E081918D9391E0E038F907D1F7DB
:10078000D0938301E091A901F091AA010480F58141
:10079000E02D81E009958F3F89F2E091A901F09168
:1007A000AA010280F381E02D8DE0099580938301F9
:1007B000803F08F073C08091710190918001892B76
:1007C00029F480910801882309F45DC0E091A90112
:1007D000F091AA010480F581E02D8CE10995E0916A
:1007E000A901F091AA010480F581E02D809180019A
:1007F0000995E091A901F091AA0181E09091800111
:10080000911101C080E00480F581E02D819509956A
:10081000E091A901F091AA010480F581E02D81E128
:100820000995E091A901F091AA010480F581E02DDC
:100830008CE10995E091A901F091AA010480F5816C
:10084000E02D809171010995E091A901F091AA0133
:1008500081E090917101911101C080E00480F581E7
:10086000E02D81950995E091A901F091AA010480FC
:10087000F581E02D84E109958091710190918001CD
:10088000892780930801E091A901F091AA010480D1
:10089000F581E02D80E009958091830180938301AB
:1008A0009091630191111FC0803F98F09091750164
:1008B00020917401922398239F3F29F08F3F19F4D0
:1008C00081E0809363018DE0E8E8F1E0A3E7B1E027
:1008D00005C08DE0E3E7F1E0A8E8B1E001900D92FA
:1008E0008A95E1F70DC09DE0E8E8F1E0A3E7B1E00B
:1008F00001900D929A95E1F7803F10F410926301F8
:1009000090916301809182019923C1F081110AC005
:1009100010938201809174018062809374018093AE
:1009200089010FC0823020F081508093820109C07C
:10093000809174018F7D8093740103C081111092A6
:1009400082010FD2E3E7F1E0ABE9B1E0802F019043
:100950000D928A95E1F781E080939B01809184015B
:100960008F3FB1F0811106C08091A00180958093E6
:10097000A0010EC0813039F0823051F48091A00185
:1009800080958093A0018091A30180958093A3011D
:10099000809197018F3F89F560919F0170E06058C9
:1009A00071092091A00130E0205831098091720135
:1009B00090E00196982F8827990F229FA001239FEE
:1009C000500D500D112457FF03C051954195510909
:1009D000669F9001679F300D300D112437FF03C0D3
:1009E000319521953109240F351F28173907B0F4A7
:1009F000C093A001C0939F0111C040E020919701D6
:100A000030E0842F90E02817390734F2AFE9BFE0D7
:100A10001197F1F700C000004F5FF0CF6091A20185
:100A200070E0605871092091A30130E0205831092D
:100A3000229FA001239F500D500D112457FF03C08A
:100A4000519541955109669F9001679F300D300D7A
:100A5000112437FF03C0319521953109240F351F2B
:100A60002817390720F4C093A301C093A201A5D190
:100A700047CEE0911301F0911401309709F00994E9
:100A80000895E0911101F0911201309709F0099455
:100A9000089542E361EC81E00CD342E360EC82E034
:100AA00008C3EF92FF920F931F93CF93DF9300D071
:100AB00000D01F92CDB7DEB7EDB6FEB62091B201E1
:100AC0008091B3016091B6017091B7014DB75EB7E7
:100AD000461B570B0FB6F8945EBF0FBE4DBF0DB748
:100AE0001EB70F5F1F4F9091B101913021F09930E7
:100AF00009F43FC05BC09091B001913AD1F590915B
:100B0000E800977F9093E800833021F5223099F434
:100B100090915501892F8D7F11F0953010F082E072
:100B200001C081E022E029839A838B838AE08C8351
:100B300064E070E00CC02330B1F429838FEF9FEFA5
:100B40009B838A838AE08C832D8365E070E0CE01ED
:100B5000019608C0813039F4213029F46EE070E04C
:100B60008BE991E0D8D48091E8008B778093E800FE
:100B70001DC09091B0019132C9F49091E800977F27
:100B80009093E8009091E80092FFFCCF833041F40D
:100B90002F3031F4C8011BD5F801818180935501B4
:100BA0008091E8008E778093E800B8D20FB6F89471
:100BB000FEBE0FBEEDBE0F900F900F900F900F90E6
:100BC000DF91CF911F910F91FF90EF900895809149
:100BD000AF01843009F0C4C081E08093E9008091C6
:100BE000E80080FF0CC040E050E06EE070E08BE970
:100BF00091E001D48091E8008E778093E80082E054
:100C00008093E9008091E80082FFAAC08091E8000B
:100C100085FFA1C08091F3004091F20050E0582B75
:100C200060E070E085E191E0DCD68091F3006091B6
:100C3000F20070E0782B40E050E085E191E023D4B1
:100C40008111F3CF809115018C3081F480911601D0
:100C5000833009F080C060E070E080E090E0FBDC71
:100C600060E070E080E090E0F7DC75C0843051F423
:100C700080911601823008F46EC080911701809334
:100C80005F0169C08130B1F48091190190E0982F23
:100C9000882720911801822B909358018093570147
:100CA000019609F058C088EB9BE09093580180931F
:100CB000570151C0853099F480911601813009F0B7
:100CC0004AC08091180190E0982F88272091170141
:100CD000822B96958795805880935B013CC08A3023
:100CE000D1F58091570190915801892B31F48FEF04
:100CF0009FEF9093580180935701809116018130A6
:100D0000B1F480911701833029F460E070E080E055
:100D100090E007C0609157017091580180915B018C
:100D200090E09ADC809117018093600114C0835099
:100D3000823088F480911701833029F460E070E0FC
:100D400080E090E007C06091570170915801809158
:100D50005F0190E080DC8091E8008B778093E80071
:100D600008954BE050E060E870E08BE991E039D6FF
:100D700010929E0110929D0110929C018FEF809322
:100D8000A7010895882361F02FE088E190E00FB675
:100D9000F894A895809360000FBE2093600008C06F
:100DA00088E10FB6F89480936000109260000FBE47
:100DB00046D278940895A895089509DFF0C5292FA3
:100DC000332723303105B9F05CF42130310569F166
:100DD0002230310579F589E290E024EF30E02EC031
:100DE00021323105E9F02232310521F58CEE94E013
:100DF0002FE231E023C099278130910541F0823004
:100E0000910541F0892BB1F4E0EFF0E005C0EAED87
:100E1000F0E002C0E0ECF0E0849190E09F010EC0B1
:100E200089E090E026E031E009C082E190E02DE128
:100E300031E004C080E090E020E030E0FA0131834E
:100E40002083089580B3806680BB81B3806681BBB8
:100E5000089520B380B38F7980BB9FB120BB90767B
:100E600081E009F480E008959FB19076903661F0BA
:100E700020EF35E59FB1907649F4215031092115D5
:100E80003105C1F78EEF089586EF089596E09A95A3
:100E9000F1F700C09FB1907609F0C1C090E19A953A
:100EA000F1F7E3E7F1E040E0481709F4B1C09081C1
:100EB00096959083000000007D9B03C000C000C099
:100EC00002C09068908394E19A95F1F7908196958D
:100ED0009083000000007D9B03C000C000C002C0E2
:100EE0009068908394E19A95F1F79081969590831C
:100EF000000000007D9B03C000C000C002C09068DD
:100F0000908394E19A95F1F79081969590830000F3
:100F100000007D9B03C000C000C002C090689083A9
:100F200094E19A95F1F790819695908300000000E6
:100F30007D9B03C000C000C002C09068908394E114
:100F40009A95F1F7908196959083000000007D9B23
:100F500003C000C000C002C09068908394E19A95DD
:100F6000F1F7908196959083000000007D9B03C06F
:100F700000C000C002C09068908394E19A95F1F798
:100F8000908196959083000000007D9B03C000C077
:100F900000C002C0906890837D9B17C020E030E0C5
:100FA0007D9B0BC02F5F3F4F2C3D95E03907C1F76C
:100FB00004C07D9906C02F5F3F4F2C3D95E0390757
:100FC000C1F796E09A95F1F720C020E030E07D99D6
:100FD0000BC02F5F3F4F2C3D95E03907C1F704C090
:100FE0007D9B0BC02F5F3F4F2C3D95E03907C0F331
:100FF00004C07D9906C02F5F3F4F2C3D95E0390717
:10100000C0F395E09A95F1F700004F5F31964CCF11
:1010100085E38A95F1F7000080917301089587EFC9
:10102000089590B39F7990BB20E030E09FB1907617
:1010300031F42F5F3F4F203F95E53907B9F70000A6
:10104000203F354589F12AE12A95F1F700C090B398
:10105000906690BB91B39F7991BB97E09A95F1F719
:1010600098E08D9A2AE02A95F1F700C080FD8D98CE
:101070002AE02A95F1F700C08695915091F78D9A54
:1010800085E08A95F1F700008D9890E19A95F1F747
:1010900081B3806681BB80B38F7980BB2AE12A95BA
:1010A000F1F700C080E008958FEF089580E091E0AF
:1010B0000895982F973058F59093E900981739F0D4
:1010C0007091EC002091ED005091F00003C0242FAE
:1010D000762F50E021FF19C03091EB003E7F309316
:1010E000EB003091ED003D7F3093ED003091EB004F
:1010F00031603093EB007093EC002093ED0050933F
:10110000F0002091EE0027FF07C09F5FD3CF8F70C4
:101110008093E90081E0089580E008958091B00116
:1011200087FD05C08091E80080FF0EC012C080914D
:10113000E80082FD05C08091AF018111F8CF0895CC
:101140008091E8008B7708C08091AF018111EACFD0
:1011500008958091E8008E778093E800089580914B
:10116000E4009091E50045E62091EC0020FF21C0CD
:101170002091E80020FD21C02091AF01222389F0B9
:10118000253089F02091EB0025FD0FC02091E4006F
:101190003091E5002817390739F3415041F0C90172
:1011A000E3CF82E0089583E0089581E0089584E02C
:1011B00008952091E80022FFDFCF80E008950F938B
:1011C0001F93CF93DF9346D04DD0C8EDD0E08881F8
:1011D0008F77888388818068888388818F7D8883E2
:1011E00019BC1092AF011092AB011092AD01109298
:1011F000AC0100EE10E0F80180818B7F8083888154
:101200008160888342E360E080E053DFE1EEF0E05C
:1012100080818E7F8083E2EEF0E080818160808338
:10122000808188608083F80180818E7F80838881BF
:1012300080618883DF91CF911F910F910895E7ED31
:10124000F0E080818160808384E082BF81E08093D0
:10125000AE01B5CFE8EDF0E080818E7F8083109203
:10126000E20008951092DA001092E10008951F92B2
:101270000F920FB60F9211242F933F934F935F93CA
:101280006F937F938F939F93AF93BF93EF93FF934E
:101290008091E10082FF0AC08091E20082FF06C0D7
:1012A0008091E1008B7F8093E10078D38091DA0018
:1012B00080FF1DC08091D80080FF19C08091DA00A6
:1012C0008E7F8093DA008091D90080FF0CC080E18E
:1012D00089BD82E189BD09B400FEFDCF81E0809324
:1012E000AF01C7DB04C019BC1092AF01CADB80910B
:1012F000E10080FF18C08091E20080FF14C080915F
:10130000E2008E7F8093E2008091E2008061809312
:10131000E2008091D80080628093D80019BC85E0FB
:101320008093AF013BD38091E10084FF2DC0809179
:10133000E20084FF29C080E189BD82E189BD09B452
:1013400000FEFDCF8091D8008F7D8093D8008091E2
:10135000E1008F7E8093E1008091E2008F7E809398
:10136000E2008091E20081608093E2008091AB0115
:10137000811104C08091E30087FF02C084E001C0B6
:1013800081E08093AF010AD38091E10083FF22C006
:101390008091E20083FF1EC08091E100877F8093EF
:1013A000E10082E08093AF011092AB018091E100F7
:1013B0008E7F8093E1008091E2008E7F8093E20037
:1013C0008091E20080618093E20042E360E080E08F
:1013D00070DEE4D2FF91EF91BF91AF919F918F9119
:1013E0007F916F915F914F913F912F910F900FBE21
:1013F0000F901F901895CF92DF92EF92FF920F936C
:101400001F93CF93DF937C018B01EA01A8DE81114A
:1014100031C0209731F088819981081B190BE80EA3
:10142000F91EC12CD12C0115110519F18091E8008C
:1014300085FD14C08091E8008E778093E800AFD2DC
:10144000209741F0888199818C0D9D1D9983888317
:1014500085E010C084DE882331F30CC0F701819150
:101460007F018093F10001501109FFEFCF1ADF0ACD
:10147000DACF80E0DF91CF911F910F91FF90EF9035
:10148000DF90CF900895CF92DF92EF92FF920F936B
:101490001F93CF93DF937C018B01EA0160DE811102
:1014A00031C0209731F088819981081B190BE80E13
:1014B000F91EC12CD12C0115110519F18091E800FC
:1014C00085FD14C08091E8008B778093E80067D297
:1014D000209741F0888199818C0D9D1D9983888387
:1014E00085E010C03CDE882331F30CC08091F10010
:1014F000F70181937F0101501109FFEFCF1ADF0A35
:10150000DACF80E0DF91CF911F910F91FF90EF90A4
:10151000DF90CF9008952091B6013091B701261742
:10152000370748F06115710539F42091E8002E77EE
:101530002093E80001C0B901FC0120E061157105AC
:10154000B1F18091AF018823F1F18530F1F1809103
:10155000E80083FD36C08091E80082FF06C08091DC
:10156000E80082FF27C080E008958091E80080FFB6
:10157000E5CF2091F3008091F20090E0922B61156D
:10158000710551F08034910538F421912093F100D8
:10159000615071090196F3CF21E08034910509F083
:1015A00020E08091E8008E778093E800C7CF21117A
:1015B000C8CFD5CF8091AF01882329F0853079F647
:1015C00004C081E0089582E0089583E008956115E4
:1015D000710529F42091E8002B772093E80061152C
:1015E000710541F12091AF01222369F1253069F1A4
:1015F0002091E80023FD23C02091E80022FFF2CFD4
:10160000FC01CF014091F3002091F20030E0342B37
:10161000232B01F38091F1008193CF016150710977
:101620006115710571F7D6CF8091AF01882359F00C
:10163000853059F08091E80080FFF6CF02C081E04C
:10164000089580E0089582E0089583E00895209150
:10165000B6013091B7012617370748F061157105BB
:1016600039F42091E8002E772093E80001C0B901F9
:10167000FC0120E061157105C9F18091AF0188235B
:1016800009F440C0853009F43FC08091E80083FD33
:1016900037C08091E80082FF06C08091E80082FF99
:1016A00028C080E008958091E80080FFE3CF20917A
:1016B000F3008091F20090E0922B6115710559F0D2
:1016C0008034910540F424912093F10031966150CB
:1016D00071090196F2CF21E08034910509F020E0F4
:1016E0008091E8008E778093E800C4CF2111C5CFA8
:1016F000D4CF8091AF01882329F0853071F604C0E2
:1017000081E0089582E0089583E008950F931F9388
:10171000CF93DF93CDB7DEB7AA970FB6F894DEBFAD
:101720000FBECDBFE0EBF1E08091F100819321E0AD
:10173000E83BF207C9F7B5D98091E80083FF15C1EE
:101740002091B0013091B101832F90E08A30910552
:1017500008F00BC1FC01EA5AFF4F3DC1203881F06F
:10176000223809F002C18091B4018F708093E900A2
:101770008091EB0085FB882780F91092E90006C074
:101780008091AC019091AD01911182609091E8003F
:10179000977F9093E8008093F1001092F100C2C00F
:1017A000822F8D7F09F0E1C0222319F0223061F0F1
:1017B000DCC08091B201813009F0D7C0333009F02C
:1017C00080E08093AD0128C08091B201811124C0D6
:1017D0002091B4012F7009F4C8C02093E9008091D2
:1017E000EB0080FF19C08091EB00333011F4806270
:1017F00011C080618093EB0081E090E0022E01C077
:10180000880F0A94EAF78093EA001092EA00809128
:10181000EB0088608093EB001092E9008091E80073
:10182000877F83C02111A1C01091B2011F770FB72C
:10183000F8948091E800877F8093E8006FDC8091C6
:10184000E80080FFFCCF8091E3008078812B8093BB
:10185000E30080688093E300112311F083E001C06E
:1018600082E08093AF010FBF80C02058223008F083
:101870007CC08091B2019091B3018C3D23E092072E
:1018800071F583E08A838AE289834FB7F894DE0199
:10189000139620E03EE051E2E32FF0E05093570032
:1018A000E49120FF03C0E295EF703F5FEF708E2F51
:1018B00090E0EA3010F0C79601C0C0968D939D93DA
:1018C0002F5F243149F74FBF8091E800877F8093D5
:1018D000E8006AE270E0CE0101961DDE12C0AE01A2
:1018E0004F5F5F4F6091B4016ADA009709F43DC021
:1018F0002091E800277F2093E800BC0189819A812C
:10190000A6DE8091E8008B778093E8002EC0203817
:1019100061F58091E800877F8093E8008091AB01BA
:101920008093F1008091E8008E778093E800F6DBE9
:101930001CC021111AC09091B2019230B0F4809174
:10194000E800877F8093E8009093AB01E7DB80910C
:10195000AB01811104C08091E30087FF02C084E0E5
:1019600001C081E08093AF0194D88091E80083FFAB
:101970000AC08091EB0080628093EB008091E800C8
:10198000877F8093E800AA960FB6F894DEBF0FBE5B
:10199000CDBFDF91CF911F910F9108950895CF93FF
:1019A0008091AF018823A9F08091E9008F70909118
:1019B000EC0090FF02C090E801C090E0C92FC82B56
:1019C0001092E9008091E80083FDA0DECF70C09303
:1019D000E900CF910895EE0FFF1F0590F491E02DDF
:1019E0000994DC0101C06D9341505040E0F7089527
:1019F000F999FECF92BD81BDF89A992780B50895D7
:041A0000F894FFCF88
:081A040022073407110829072D
:00000001FF
