:10000000CCC00000E6C00000E4C00000E2C0000078
:10001000E0C00000DEC00000DCC00000DAC000006C
:10002000D8C00000D6C00000C3C60000D2C0000087
:10003000D0C00000CEC00000CCC00000CAC000008C
:10004000C8C00000C6C00000C4C00000C2C000009C
:10005000C0C00000BEC00000BCC00000BAC00000AC
:10006000B8C00000B6C00000B4C00000B2C00000BC
:10007000B0C00000AEC00000ACC00000AAC00000CC
:10008000A8C00000A6C00000A4C00000A2C00000DC
:10009000A0C000009EC000009CC000009AC00000EC
:1000A00098C0000096C0000094C000003A095C09A6
:1000B0004C0A5C094C0A9E09C1094C0A1E0A300A06
:1000C0001A034200720069006400670065002000A6
:1000D0002D00200070007300330000001403420064
:1000E0006C006900730073002D0042006F007800FF
:1000F0000000040309040902220001010080320902
:100100000400000103000000092100020001227028
:10011000000705810340000A1201110100000040A0
:100120004C05000000010102000105010905A101C3
:1001300015002501350045017501950D05091901C9
:10014000290D81029503810105012507463B0175B3
:1001500004950165140939814265009501810126E4
:10016000FF0046FF0009300931093209357508954D
:100170000481020600FF092009210922092309241C
:1001800009250926092709280929092A092B950C77
:1001900081020A21269508B102C011241FBECFEFAB
:1001A000DAE0DEBFCDBF11E0A0E0B1E0E4E2F5E1CE
:1001B00002C005900D92A031B107D9F721E0A0E16E
:1001C000B1E001C01D92AE36B207E1F703D00C9446
:1001D000900A16CF1AB817B814B88FEF8BB988B930
:1001E00085B990E8909361001092610095B790688E
:1001F00095BF95B7906895BF1AB817B814B88BB962
:1002000088B985B910921E0110923B0181E066D336
:10021000EED49093600180935F01DC01ED91FC913D
:10022000099510921101109212011092130110926F
:1002300014011092150110921601109217011092DC
:1002400018013BD3DEEFC0E81AE061D380911E01B4
:10025000811126C0D0933C01E0915F01F0916001D3
:100260000480F581E02D82E00995E0915F01F09135
:1002700060010280F381E02D8DE0099580933C01BF
:100280008FEA94E00197F1F700C0000080913C01F3
:10029000803F08F0A4C0EDE2F1E0AFE1B1E00DC0B5
:1002A000E0915F01F09160010480F581E02D80E034
:1002B00009958F3F79F68EEF92C081918D9391E0F1
:1002C000E933F907D1F7D0933C01E0915F01F09158
:1002D00060010480F581E02D81E00995E0915F01E6
:1002E000F09160010280F381E02D8DE0099580930B
:1002F0003C01803F08F073C080912B01909139013F
:10030000892B29F480911001882309F45DC0E091C4
:100310005F01F09160010480F581E02D8CE1099589
:10032000E0915F01F09160010480F581E02D809102
:1003300039010995E0915F01F091600181E09091B0
:100340003901911101C080E00480F581E02D819593
:100350000995E0915F01F09160010480F581E02D45
:1003600081E10995E0915F01F09160010480F581E0
:10037000E02D8CE10995E0915F01F091600104802E
:10038000F581E02D80912B010995E0915F01F091BD
:10039000600181E090912B01911101C080E0048007
:1003A000F581E02D81950995E0915F01F091600163
:1003B0000480F581E02D84E1099580912B019091D5
:1003C0003901892780931001E0915F01F09160016C
:1003D0000480F581E02D80E0099580913C018093B7
:1003E0003C018F37E9F0833329F59091340199234B
:1003F00029F090912D01946090932D0190913001FE
:10040000992329F090912D01916090932D01909165
:100410003101992329F090912D01906490932D0141
:100420009091330190933001C0933101C093330117
:10043000C093340190911E0191111FC0803F98F02C
:1004400090912E0120912D01922398239F3F29F016
:100450008F3F19F481E080931E018DE0EDE3F1E020
:10046000ACE2B1E005C08DE0ECE2F1E0ADE3B1E07B
:1004700001900D928A95E1F70DC09DE0EDE3F1E06A
:10048000ACE2B1E001900D929A95E1F7803F10F453
:1004900010921E0190911E0180913B019923C1F0A1
:1004A00081110AC010933B0180912D0180628093DD
:1004B0002D0180933E010FC0823020F08150809347
:1004C0003B0109C080912D018F7D80932D0103C0D8
:1004D000811110923B01F1D110924D0110924C010B
:1004E000E0911801A091170130911601209115019A
:1004F000709114016091130150911201409111010A
:100500008A2F90E08E0F911D830F911D820F911DF8
:10051000870F911D860F911D850F911D840F911DD1
:10052000892B09F4BCC0F0913001FF3F21F0EF1797
:1005300010F4F0931801E0913101EF3F21F0AE1774
:1005400010F4E0931701FF2321F0F31710F4F09358
:100550001601EE2321F0E21710F4E0931501FF3F9E
:1005600071F0A09118012F2F30E08A2F90E00597AD
:100570008217930724F4F150FA1BF0933001EF3FF8
:1005800071F0F09117012E2F30E08F2F90E005973A
:100590008217930724F4E150EF1BE0933101E091BF
:1005A0003001EE2369F0F09116012E2F30E08F2FED
:1005B00090E00596281739071CF4EF1BE0933001F3
:1005C000E0913101EE2369F0F09115012E2F30E01A
:1005D0008F2F90E00596281739071CF4EF1BE09346
:1005E0003101E0913301EF3F21F07E1710F4E093E9
:1005F0001401709134017F3F21F0671710F470935C
:100600001301EE2321F0E51710F4E0931201772394
:1006100021F0741710F470931101EF3F71F04091C5
:1006200014012E2F30E0842F90E005978217930756
:1006300024F4E150E41BE09333017F3F71F04091DB
:100640001301272F30E0842F90E00597821793073E
:1006500024F47150741B709334014091330144238E
:1006600069F050911201242F30E0852F90E005961B
:10067000281739071CF4451B40933301409134017E
:10068000442369F050911101242F30E0852F90E030
:100690000596281739071CF4451B409334018091B7
:1006A000300189578E3010F4C093300180913101B0
:1006B00089578E3010F4C0933101809133018957EE
:1006C0008E3010F4C09333018091340189578E30FD
:1006D00010F4C09334018091300180934F018091D8
:1006E00031018093500180913301809351018091B9
:1006F00034018093520180912D0180FF03C092E06C
:1007000090934C0181FF05C090914C0194609093AF
:100710004C0182FF05C090914C01916090934C0177
:1007200083FF05C090914C01986090934C0186FF27
:1007300005C090914C01906190934C0187FF05C0DA
:1007400090914C01906290934C0190912E0190FFFA
:1007500005C020914C01206420934C0191FF05C0FD
:1007600020914C01206820934C0140913201413886
:1007700028F020914C01206420934C0130913501E8
:10078000313828F020914C01206820934C0184FFDF
:1007900003C021E020934D0185FF05C080914D01EC
:1007A000826080934D0196FF05C080914D01846069
:1007B00080934D0197FF05C080914D018860809323
:1007C0004D0180912F0182FF05C080914D01806114
:1007D00080934D018091380180934E011092530116
:1007E0001092540110925501109256011092570127
:1007F000109258011092590110925A0110925B0107
:1008000010925C0140935D0130935E0182D01DCD5A
:10081000E0911B01F0911C01309709F009940895B3
:10082000E0911901F0911A01309709F009940895A7
:1008300042E361EC81E0DEC180916701813021F506
:1008400080916601813A01F580916801909169017A
:100850008115934051F48091E800877F8093E800F0
:1008600068E070E080E091E009C08091E800877F57
:100870008093E80063E170E08CE491E0A5D380917F
:10088000E8008B778093E8000895809165018430BB
:1008900099F481E08093E9008091E80080FF0CC02A
:1008A00040E050E063E170E08CE491E045D380915A
:1008B000E8008E778093E800089510924D01109221
:1008C0004C018FE080934E0180E880935201809329
:1008D00051018093500180934F010895882361F066
:1008E0002FE088E190E00FB6F894A895809360001F
:1008F0000FBE2093600008C088E10FB6F894809383
:100900006000109260000FBE3BD278940895A895C5
:100910000895BBDFDBC5292F332723303105B9F01C
:100920005CF42130310569F12230310579F582E23C
:1009300090E026EF30E02EC021323105E9F022327E
:10094000310521F580E790E02AE231E023C09927C4
:100950008130910541F08230910541F0892BB1F44D
:10096000E2EFF0E005C0ECEDF0E002C0E0ECF0E01A
:10097000849190E09F010EC089E090E028E031E092
:1009800009C082E190E028E131E004C080E090E01D
:1009900020E030E0FA0131832083089580B380663F
:1009A00080BB81B3806681BB089520B380B38F790B
:1009B00080BB9FB120BB907681E009F480E0089570
:1009C0009FB1907651F420E137E29FB1907639F4EF
:1009D0002150310921153105C1F78EEF089596E0B8
:1009E0009A95F1F700C09FB19076B9F790E19A958A
:1009F000F1F7ECE2F1E040E0481709F4B1C0908172
:100A000096959083000000007D9B03C000C000C04D
:100A100002C09068908394E19A95F1F79081969541
:100A20009083000000007D9B03C000C000C002C096
:100A30009068908394E19A95F1F7908196959083D0
:100A4000000000007D9B03C000C000C002C0906891
:100A5000908394E19A95F1F79081969590830000A8
:100A600000007D9B03C000C000C002C0906890835E
:100A700094E19A95F1F7908196959083000000009B
:100A80007D9B03C000C000C002C09068908394E1C9
:100A90009A95F1F7908196959083000000007D9BD8
:100AA00003C000C000C002C09068908394E19A9592
:100AB000F1F7908196959083000000007D9B03C024
:100AC00000C000C002C09068908394E19A95F1F74D
:100AD000908196959083000000007D9B03C000C02C
:100AE00000C002C0906890837D9B17C020E030E07A
:100AF0007D9B0BC02F5F3F4F2C3D95E03907C1F721
:100B000004C07D9906C02F5F3F4F2C3D95E039070B
:100B1000C0F396E09A95F1F720C020E030E07D998F
:100B20000BC02F5F3F4F2C3D95E03907C1F704C044
:100B30007D9B0BC02F5F3F4F2C3D95E03907C0F3E5
:100B400004C07D9906C02F5F3F4F2C3D95E03907CB
:100B5000C0F395E09A95F1F700004F5F31964CCFC6
:100B600085E38A95F1F7000080912C01089590B3F8
:100B70009F7990BB20E137E29FB1907639F4215004
:100B8000310921153105C1F78FEF08959AE19A9542
:100B9000F1F700C090B3906690BB91B39F7991BB81
:100BA00027E02A95F1F798E08D9A2AE02A95F1F747
:100BB00000C080FD8D982AE02A95F1F700C0869547
:100BC000915091F78D9A85E08A95F1F700008D9804
:100BD00090E19A95F1F781B3806681BB80B38F79FC
:100BE00080BB2AE12A95F1F700C080E0089588E0F3
:100BF00091E00895982F973058F59093E900981751
:100C000039F07091EC002091ED005091F00003C09C
:100C1000242F762F50E021FF19C03091EB003E7F4A
:100C20003093EB003091ED003D7F3093ED0030913B
:100C3000EB0031603093EB007093EC002093ED00FB
:100C40005093F0002091EE0027FF07C09F5FD3CFA5
:100C50008F708093E90081E0089580E0089580918D
:100C6000660187FD05C08091E80080FF0EC012C0BC
:100C70008091E80082FD05C0809165018111F8CF67
:100C800008958091E8008B7708C0809165018111FB
:100C9000EACF08958091E8008E778093E800089568
:100CA0008091E4009091E50045E62091EC0020FF62
:100CB00021C02091E80020FD21C020916501222360
:100CC00089F0253089F02091EB0025FD0FC020919F
:100CD000E4003091E5002817390739F3415041F01D
:100CE000C901E3CF82E0089583E0089581E008958B
:100CF00084E008952091E80022FFDFCF80E008958E
:100D00000F931F93CF93DF9346D04DD0C8EDD0E023
:100D100088818F77888388818068888388818F7DA8
:100D2000888319BC109265011092610110926301D1
:100D30001092620100EE10E0F80180818B7F8083C9
:100D400088818160888342E360E080E053DFE1EEE8
:100D5000F0E080818E7F8083E2EEF0E08081816030
:100D60008083808188608083F80180818E7F80838A
:100D7000888180618883DF91CF911F910F910895C1
:100D8000E7EDF0E080818160808384E082BF81E0D4
:100D900080936401B5CFE8EDF0E080818E7F8083A1
:100DA0001092E20008951092DA001092E100089586
:100DB0001F920F920FB60F9211242F933F934F93D0
:100DC0005F936F937F938F939F93AF93BF93EF93B3
:100DD000FF938091E10082FF0AC08091E20082FFD0
:100DE00006C08091E1008B7F8093E1006ED38091FB
:100DF000DA0080FF1DC08091D80080FF19C080916B
:100E0000DA008E7F8093DA008091D90080FF0CC0D9
:100E100080E189BD82E189BD09B400FEFDCF81E09A
:100E200080936501F5DC04C019BC10926501F8DC03
:100E30008091E10080FF18C08091E20080FF14C023
:100E40008091E2008E7F8093E2008091E2008061D9
:100E50008093E2008091D80080628093D80019BC12
:100E600085E08093650131D38091E10084FF2DC03E
:100E70008091E20084FF29C080E189BD82E189BDC3
:100E800009B400FEFDCF8091D8008F7D8093D800FB
:100E90008091E1008F7E8093E1008091E2008F7E5F
:100EA0008093E2008091E20081608093E200809173
:100EB0006101811104C08091E30087FF02C084E0DA
:100EC00001C081E08093650100D38091E10083FF40
:100ED00022C08091E20083FF1EC08091E100877FE5
:100EE0008093E10082E0809365011092610180911E
:100EF000E1008E7F8093E1008091E2008E7F8093FD
:100F0000E2008091E20080618093E20042E360E0D1
:100F100080E070DEDAD2FF91EF91BF91AF919F91A7
:100F20008F917F916F915F914F913F912F910F9092
:100F30000FBE0F901F901895CF92DF92EF92FF9205
:100F40000F931F93CF93DF937C018B01EA01A8DEFF
:100F5000811131C0209731F088819981081B190BCC
:100F6000E80EF91EC12CD12C0115110519F1809143
:100F7000E80085FD14C08091E8008E778093E8003A
:100F8000A5D2209741F0888199818C0D9D1D998370
:100F9000888385E010C084DE882331F30CC0F7011C
:100FA00081917F018093F10001501109FFEFCF1A69
:100FB000DF0ADACF80E0DF91CF911F910F91FF9090
:100FC000EF90DF90CF90089520916C0130916D01EA
:100FD0002617370748F06115710539F42091E800AC
:100FE0002E772093E80001C0B901FC0120E06115D3
:100FF0007105B1F1809165018823F1F18530F1F13E
:101000008091E80083FD36C08091E80082FF06C031
:101010008091E80082FF27C080E008958091E80079
:1010200080FFE5CF2091F3008091F20090E0922BB9
:101030006115710551F08034910538F421912093A8
:10104000F100615071090196F3CF21E080349105E0
:1010500009F020E08091E8008E778093E800C7CF08
:101060002111C8CFD5CF80916501882329F0853023
:1010700079F604C081E0089582E0089583E0089540
:1010800020916C0130916D012617370748F06115EA
:10109000710539F42091E8002E772093E80001C013
:1010A000B901FC0120E061157105C9F1809165016C
:1010B000882309F440C0853009F43FC08091E800DE
:1010C00083FD37C08091E80082FF06C08091E80070
:1010D00082FF28C080E008958091E80080FFE3CF80
:1010E0002091F3008091F20090E0922B6115710540
:1010F00059F08034910540F424912093F100319609
:10110000615071090196F2CF21E08034910509F018
:1011100020E08091E8008E778093E800C4CF211111
:10112000C5CFD4CF80916501882329F0853071F631
:1011300004C081E0089582E0089583E00895EF926D
:10114000FF920F931F93CF93DF938B0120916C013C
:1011500030916D012617370748F06115710539F494
:101160002091E8002E772093E80001C089019C01BE
:1011700040E00115110509F43FC080916501882305
:1011800009F446C0853009F445C08091E80083FD2C
:101190003DC08091E80082FF06C08091E80082FF98
:1011A0002EC080E038C08091E80080FFE2CF8091BF
:1011B000F300C091F200D0E0D82B7901EC1AFD0ABF
:1011C000C7018C0F9D1F0115110551F0C034D105C9
:1011D00038F49ED18093F100015011092196F0CF8F
:1011E00041E0C034D10509F040E02091E8002E77BD
:1011F0002093E8009C01BDCF4111BFCFCECF80919D
:101200006501882329F0853041F604C081E003C0E0
:1012100082E001C083E0DF91CF911F910F91FF9099
:10122000EF9008950F931F93CF93DF93CDB7DEB761
:10123000AB970FB6F894DEBF0FBECDBFE6E6F1E088
:101240008091F100819321E0EE36F207C9F7F4DADC
:101250008091E80083FF20C12091660130916701F1
:10126000832F90E08A30910508F016C1FC01EA5AFC
:10127000FF4F48C1203881F0223809F00DC180911C
:101280006A018F708093E9008091EB0085FB8827CD
:1012900080F91092E90006C080916201909163018B
:1012A000911182609091E800977F9093E80080937D
:1012B000F1001092F100CDC0822F8D7F09F0ECC0BB
:1012C000222319F0223061F0E7C08091680181305B
:1012D00009F0E2C0333009F080E08093630128C058
:1012E00080916801811124C020916A012F7009F456
:1012F000D3C02093E9008091EB0080FF19C080915A
:10130000EB00333011F4806211C080618093EB00F8
:1013100081E090E0022E01C0880F0A94EAF78093E2
:10132000EA001092EA008091EB0088608093EB0065
:101330001092E9008091E800877F8EC02111ACC037
:10134000109168011F770FB7F8948091E800877FAC
:101350008093E80084DC8091E80080FFFCCF8091DE
:10136000E3008078812B8093E30080688093E30022
:10137000112311F083E001C082E0809365010FBF6B
:101380008BC02058223008F087C08091680190916E
:1013900069018C3D23E0920769F583E08A838AE244
:1013A00089834FB7F894DE01139620E03EE051E2C6
:1013B000E32FF0E050935700E49120FF03C0E29543
:1013C000EF703F5FEF708E2F90E0EA3010F0C7961D
:1013D00001C0C0968D939D932F5F243149F74FBF75
:1013E0008091E800877F8093E8006AE270E0CE0198
:1013F00001961DC09E01255D3F4FAE014F5F5F4FBF
:1014000060916A0188DABC01009709F445C08091B7
:10141000E800877F8093E8002BA589819A812111BC
:1014200002C02EDE05C0213011F489DE01C0CCDD02
:101430008091E8008B778093E8002EC0203861F51A
:101440008091E800877F8093E8008091610180931C
:10145000F1008091E8008E778093E80000DC1CC0EA
:1014600021111AC0909168019230B0F48091E80087
:10147000877F8093E80090936101F1DB80916101A7
:10148000811104C08091E30087FF02C084E001C0A5
:1014900081E080936501CCD98091E80083FF0AC088
:1014A0008091EB0080628093EB008091E800877F61
:1014B0008093E800AB960FB6F894DEBF0FBECDBFA9
:1014C000DF91CF911F910F9108950895CF9380914F
:1014D00065018823A9F08091E9008F709091EC005C
:1014E00090FF02C090E801C090E0C92FC82B109275
:1014F000E9008091E80083FD95DECF70C093E9009C
:10150000CF910895EE0FFF1F0590F491E02D0994FF
:10151000F999FECF92BD81BDF89A992780B50895BB
:04152000F894FFCF6D
:101524002126010700000000CE04E004B705D5041D
:00000001FF
