:100000007AC5000094C5000092C5000090C50000AC
:100010008EC500008CC500008AC5000088C50000A0
:1000200086C5000084C500000C947A2080C50000BD
:100030007EC500007CC500007AC5000078C50000C0
:1000400076C5000074C5000072C5000070C50000D0
:100050006EC500000C9498176AC5000068C50000C2
:1000600066C5000064C5000062C5000060C50000F0
:100070005EC500005CC500005AC5000058C5000000
:1000800056C5000054C5000052C5000050C5000010
:100090000C9410114CC500004AC5000048C5000072
:1000A00046C5000044C5000042C50000FA0A020B24
:1000B000780ACA0A1C0B2D0B4B0B680B650C650CE0
:1000C000650C650C760B8E0B650C9F0B70510386CF
:1000D000400D4FEB3ECCD18735BDF50B5ED0F8F22D
:1000E000D5E26C310CADFC21C378C106C24C55E69B
:1000F0004A3448111EDAE71A84A096A7E37FAF635B
:100100009CFA235B79C89EBAB2C922124BB3A1B63E
:100110003249A2E189391066C5078F54EA91CA3F76
:10012000F919F0D746BC281B61E82F6AAE9DF64E40
:100130000914774DDB1F2E7B7CF143A300B8138C91
:1001400085B9297588FDD2561C509741E53B60B5AD
:10015000C064EE98D62D25A4AACD7DA883C6ABBEDB
:100160004499263CCE9FBFD3CB767A7E82018A9A71
:10017000801D0EB05CD43862F430E08E53B7025765
:10018000ACA6520A6D9265172433457274B1B4F768
:100190005DED2CFF47375A90BBDF2A165995D9C41D
:1001A000276773C768FEA5DD6B5F93D8EC053A8DB2
:1001B0006EFB3DA96936F394DEEF156F8B9B080F3C
:1001C000DC81182004E471CFE92B425801A0A96218
:1001D000D63F85A7B6D4FA15661709BD5D14342637
:1001E00059729154064FF8B05B7493998CF245CDD7
:1001F000EA4EAD104AE5CAEEDFC66F9F888E02CC8C
:1002000008A877946D21B128E43979966071811638
:100210002EE678B9C4469A42AEB77C43B3221A861A
:10022000C2323D2D9CD229E9639BD131385E1E3606
:1002300041BB03182B3EBF6861FC52C0DEE00A5888
:10024000135A00BE1C900E5312FDE26EBACE242744
:10025000447F87A3A1D55040E3F983F7C7A235C8EF
:10026000DB19AB2F1125ED339E55E148AF7384DACE
:100270002AAA51EB9D95B2CBE77080FE4C6504EF46
:10028000C5F1C33AB4F55F2389DD30A58BD3F6DC25
:100290004D64D7F08FEC56375CA40D07768A2C0B93
:1002A000B5D8C11FE83BF44B1B476C49677B92CF25
:1002B000757E20D97D3C977AD0056B0F1DFB829807
:1002C000578DF36ABCACC9A6FFB8690C4C4D7207D8
:1002D0005A49338DA2AB463D630DA097FFF0F5FA66
:1002E000C0E9DB62E4E17443DC86182937F406E2F6
:1002F000ED6F90481E2D1DEA739454DF25F64727B5
:10030000D91177C9841C5B5C5181A6223E2496C812
:100310008AEC827C09B8454A57BB2F50758E6170B4
:100320008C6CAFD0FDB41BAEDEFE3BB536BD5501C7
:100330000E9C41565FB3260383BA134BCAC50AF815
:1003400060A5B9C7C39832FB12F9A792AA68F378DF
:100350007E05202102E8BFF2B0598FD2CB87651508
:10036000F11AB230ADEE58A38B661F2CD75D1985FC
:10037000A8E6D36BA10C91936A5E0B79E3DD004F85
:100380003C896E7169A9AC40E59928C6314E7ACD99
:10039000089E7DEF17FC88D8A46D4495D1B7D49BF7
:1003A000BE2A34642BCF2EEB38CE23E03A3FF77BC6
:1003B0009F1053BC526716E7807604C4B6C1C27F53
:1003C0009ADAD53942149DB10F35D6CCB9DA380C4A
:1003D000A29C091F06B1B6FD1A692330C4DE01D103
:1003E000F45829371C7DD5BFFFBDC8C9CF65BE7B7A
:1003F0007897986708B32657F7FA40AD8E75A67CB4
:10040000DB918B5199D4177A908DCE63CB4EA0ABF4
:10041000183A5B507F2174C1BBB8B7BA0B35953120
:10042000599A4D04071E5A7613F37183D08603A898
:100430003942AA28E6E4D85DD3D06E6F96FB5EBC45
:1004400056C25F859BE7AFD23B846AA753C5444938
:10045000A5F936723D2CD91BA1F54F939D684741F4
:1004600016CA2A4CA387D6E5192E77156D70C0DF02
:10047000B20046EDC66C4360922DA922458F3455DB
:10048000AEA40A6632E0DC02ACE8208C89624AFE47
:10049000EEC3E33CF17905E9F62733CCF29E1181F6
:1004A0007E80108A829F480DD7B4FC2FB5C7DD88A7
:1004B000146B2B54EA1D945CB0EF1224CDEBE1E2F7
:1004C00064733F0E5261253EF80F4BECC00030F6CE
:1004D00002493D106E20C9A62FFE2C2B752E4526F5
:1004E000AB48A980FC04CCD3B5BAA338317D01D97F
:1004F000A77B96B663694EF7DEE078CA50AA4191B1
:100500006588E42185DA3A27BE1C3E425E17527F99
:100510001F89246F8F5C67740E12878DE934ED7329
:10052000C4F8615B05DF594C97798318A45595EBA6
:10053000BD53F5F15766469FB2810951862216DDFB
:1005400023937629C2D71DD4BF363FEA4B1132B967
:10055000625460D66D439A0D929CB0EF586C9D77B3
:100560002D70FAF3B30BE2407EF48AE58C3C5671B1
:10057000D164E1820ACB131590EC0399AF145D0F9F
:10058000334A94A5A8351BE36AC628FF4DE72584A6
:10059000AC08AEC5A22AB8370C7AA0C3CEAD061AF5
:1005A0009E8BFBD5D0C11ED0B49BB144F247C76827
:1005B000CF72BB4F5AF9DC6BDBD2E87CC8EE98A156
:1005C000E6D839075FFD8E19B73BBCCD7CE381735C
:1005D000B211BF6F2098FE7596EF6CDA50E1097288
:1005E0005445BA34805BED3E532C87A457F3333F18
:1005F0003CB767B4A325604F076B1B47150FE40A90
:10060000EAD1327836498D4BD2BCA5DC1D0D4DCDDB
:100610009A825FFC9465BEE2F4C91E44CB9E0C64D2
:10062000712663B314E840708A0E19426DAC8810CD
:100630005CDF41A9ADE5FB74CCD5068E5986CE1F93
:100640003D76E08FB977277BA6D829D3ECB813F78E
:10065000FAC3516ADE4A5AEBC28B234892CF62A892
:1006600099F8D02E856143C8BDF00593CA4EF17D3F
:1006700030FDC469662F08B152F921E67A2BDD39C5
:1006800084FFC091D637D47F2D9B5DA13B6EB5C54D
:100690004604F590EE7E831C0356B6AA001701357A
:1006A00055790B12BB1A31E7022816C1F6A2DB18E6
:1006B0009C89683897ABC72AD73AF2C6244CB05801
:1006C000A0225E9DD9A7E9AEAF8C959F28B720D711
:1006D000B030C30919C067D6003C7EE7E9F4085A78
:1006E000F8B82E05A6259E5CD8150DE1F611546BC1
:1006F000CD2146665E84AD06382944C5A2CEF1AA56
:10070000C1407186B5EFFC36A8CB0A48274564A3E3
:10071000AF8CB2C69F0789DC17D34979FBFE1DD089
:10072000B9884352BC01782B7D94C70EDEA5D59BBA
:10073000CCF7617AC274813903AB96A037BD2D72B4
:10074000753FC9D48E6FF98DED62DB1CDF04AC1BE5
:100750006C144B63D0BFB482EC7B1A5992D21060F8
:10076000B63D5FE6806E70C4F235D97CEEE541A4FB
:100770005B50DDBB4CF31F9D5D57555197E35842CD
:100780004D9C73BAC877316926AEEA8ADA22B387FC
:1007900056FA930B341633E8E453BEA9B13A3EF54A
:1007A000906ACF3B12FD8F9AA7479199EB0F24FFD8
:1007B0002318854E7F0CE0A1D2D12C2A4A024F1E6D
:1007C00095688B98836D76CA6532132FC3829AA47D
:1007D000BA8160373435FC80A8516567ED305F1011
:1007E000D34A272F13B92AD2CCE1EFAEEBBEF4BD2A
:1007F000CF43B3C58884B7DD3940CE486D9B726165
:100800007EE7A14E532E773BE2C936221B6E73B1B1
:1008100003B24C87A9D44D0FD8156CAA18F64957C6
:100820005DFB7A149463A011B09EDE0546C8EE47C6
:10083000DBDC24899C919729E97BC1071EB8FDFE6A
:10084000ACC662984FF179E0E86B7856B68D0450EB
:1008500086CA6F20E6EAE576171C747FBC0D2C85EE
:10086000F76696E48B753F4BD938AF7CDA0B832D56
:100870003132A2F51D594145BF3C1FF8F98AD01607
:10088000256912999D2195AB01A6D7B5C07DFF586A
:100890000E3A92D155E3089FD63E528EFAA3C70274
:1008A000CDDF8F64198CF3A70C5E0A6A09F0935BA5
:1008B00042C20623EC71ADB4CBBB7028D51A5C33B1
:1008C000685A004490A5C4263D2BF25496ADDA1F19
:1008D000ED33E18169080D0ADB35779A64D1FC7844
:1008E000AA1BD067A0DDFA6C63710584176A894F73
:1008F000667FC65055926FBDE7D240728DBBEC0645
:10090000428AE4889D7E7A822713411AAFC8A47672
:10091000B4C2FE6D1CD96130B37CEAF7290FF23BFB
:1009200051C1DE5FE52A2F990B5DA32B4AAB95A53C
:10093000D35856EE283100CC1546CAE686383C65B9
:10094000F5E39FD65B094983702D53A97DE2C4ACC2
:100950008E5EB825F4B957F3F16847B2A25920CE9C
:1009600034795C900E1EBED52223B1C91862162EB2
:10097000913E078FD83F933DD49BDF8521FB1174B7
:1009800097C7D7DC4C194598E943024BBCC3049C7C
:100990006BF07552A726F6C5BACFB0B7AE5AA1BF55
:1009A000038B80126E0CEBF9C04424EF10F8A88C76
:1009B000E87BFF9E2CCD603687B594A654733A141D
:1009C0004E011DB6FD37484D39CBE0320000000026
:1009D0000000000000000000000000000000000017
:1009E0000000000000000000000000000000000007
:1009F00000000000000000000000000000000000F7
:100A000000000000000000000000000000000000E6
:100A100000000000000000000000000000000000D6
:100A200000000000000000000000000000000000C6
:100A300000000000000000000000000000000000B6
:100A400000000000000000000000000000000000A6
:100A50000000000000000000000000000000000096
:100A60000000000000000000000000000000000086
:100A70000000000000000000000000000000000076
:100A80000000000000000000000000000000000066
:100A90000000000000000000000000000000000056
:100AA0000000000000000000000000000000000046
:100AB0000000000000000000000000000000000036
:100AC000000000000000000000000000A877A6E081
:100AD000F7435A3585E272978FB71A6287380D67E8
:100AE000C7BE4F3E2076378F68B7A9263F2B10E34D
:100AF000307E900E850A11241FBECFEFDAE0DEBFF4
:100B0000CDBF11E0A0E0B1E0EAEFF2E402C0059051
:100B10000D92A638B107D9F723E0A6E8B1E001C0ED
:100B20001D92A935B207E1F73DD20C947B2168CA2A
:100B300010920403109206031092090310920C0302
:100B400010921F031092E90210921E0310920D03DF
:100B50000895CF93DF93E0914103F0914203048025
:100B6000F581E02D81E20995C82FE0914103F091D4
:100B700042030280F381E02D82E009959091F80212
:100B8000892F817080933A0393FB882780F98093A3
:100B90003F0394FB882780F980933E0395FB8827C9
:100BA00080F980933C0396FB882780F980933B0370
:100BB000991F9927991F90933D038FE99FE0019713
:100BC000F1F700C00000CF3F51F4E0914103F091F4
:100BD00042030480F581E02D80E00995BCCFC03F41
:100BE00008F0B9CFDF91CF91089590911D0381E076
:100BF000953221F09B3211F080E008950895909194
:100C000040039930B9F09031A9F0892F877F833163
:100C100089F0933279F09F3169F09F3259F0913425
:100C200049F0933739F081E0993731F0933521F06D
:100C300080E0089581E00895089580914003893708
:100C400021F0833311F08F3749F491E09093390309
:100C5000893759F481E0809338030895109239035D
:100C60008337C1F3893041F4F5CF982F9F7B9333BD
:100C700089F38F37B9F7EECF8251823058F3109253
:100C800038030895CF9380913A03811105C0809174
:100C9000390381110EC032C0E0914103F09142034B
:100CA0000480F581E02D80E009958F3F81F78EEF7C
:100CB000DDC0E0914103F09142030480F581E02D15
:100CC00082E00995E0914103F09142030280F381B3
:100CD000E02D8DE00995EFEAF4E03197F1F700C0DF
:100CE0000000803F08F0C2C0E8EFF2E0AAEEB2E0F8
:100CF00081918D9383E0E430F807D1F7E0914103CF
:100D0000F09142030480F581E02D81E00995E091A6
:100D10004103F09142030280F381E02D8DE00995BB
:100D2000C82F803F10F5809140038C1751F0E0915F
:100D30004103F09142030480F581E02D80E00995A4
:100D400008DF80911B03882321F0809138038111F3
:100D50000EC04BDF811173C0E0914103F09142035B
:100D60000480F581E02D80E009958C2F7FC0909163
:100D7000F60280910503981304C08091080388232C
:100D800041F3E0914103F09142030480F581E02DAD
:100D90008CE10995E0914103F09142030480F581D3
:100DA000E02D809105030995E0914103F091420304
:100DB00081E090910503911101C080E00480F581EC
:100DC000E02D81950995E0914103F0914203048063
:100DD000F581E02D81E10995E0914103F091420315
:100DE0000480F581E02D8CE10995E0914103F091BB
:100DF00042030480F581E02D8091F6020995E0918F
:100E00004103F091420381E09091F602911101C0FB
:100E100080E00480F581E02D81950995E091410302
:100E2000F09142030480F581E02D84E109958091E1
:100E3000F602909105038927809308038ACFDFDEAD
:100E4000882309F489CFE0914103F09142030480A3
:100E5000F581E02D84E20995E0914103F091420390
:100E60000480F581E02D84E0099576CFCF91089537
:100E700009DF90913A03911128C0803FD0F0909102
:100E8000F9022091F802922398239F3F29F08F3F87
:100E900019F481E080933A0381E080933D038DE073
:100EA000EEE0F3E0A7EFB2E001900D928A95E1F752
:100EB00019C09DE0E7EFF2E0AEE0B3E001900D92E3
:100EC0009A95E1F7809340030DC09DE0EEE0F3E0DA
:100ED000A7EFB2E001900D929A95E1F7803F10F4F0
:100EE00010923A0390913A0380910A03992369F092
:100EF0009091F802811105C081E080930A0390620D
:100F000001C09F7D9093F80205C0882319F01092CC
:100F10000A031FDE8091F802809322038091F90278
:100F2000809323038091FA02809335038091FB0222
:100F3000809325038091FC02809326039091FD020B
:100F400090932B038091FE02809327038091FF02F0
:100F5000809328038091000380932C032091400309
:100F6000293741F02091010320932A0320910203A5
:100F70002093290320913903211104C09093F40296
:100F80008093F502809103038093240356DE8091C1
:100F90002103811101C0DDDD809121038F5F8093EA
:100FA0002103089510923A0310920A031092080345
:100FB0001092210380E8809361001092610085B750
:100FC000806885BF85B7806885BF1AB817B814B820
:100FD0008FEF8BB988B985B959D00E945020809184
:100FE000D80080628093D80089B58D7F89BD8091BB
:100FF000D8008F778093D8001CBC1092CA00109242
:10100000C8001092C90010927A008091BC008B7FBA
:101010008093BC001092C00010929100109290003A
:1010200015BC14BC109281001092800043D088231C
:10103000E9F30E9418209093420380934103DC015E
:10104000ED91FC91099574DD10D0E0914103F09190
:1010500042030480F581E02D80E0099513DE803F96
:10106000E8F703D005DF1ED0FCCF109223031092C7
:1010700022038FE08093240380E8809328038093E9
:1010800027038093260380932503089514BEA89513
:1010900088E10FB6F89480936000109260000FBE54
:1010A000F8940895E0913603F09137030280F381BC
:1010B000E02D0994CF93DF9310921B0310921C0331
:1010C0001AB817B814B8DFEFDBB9D8B9D5B90FD44F
:1010D0009093370380933603DC01ED91FC910995E1
:1010E000E0913603F09137030480F581E02D0995F6
:1010F000882339F081E080931B0380931C0387E1F0
:10110000E7C01AB817B814B8DBB9D8B9D5B9C3B1A4
:10111000CF3F09F0AAC00E94231C9093370380930D
:101120003603DC01ED91FC910995E0913603F091D5
:1011300037030480F581E02D0995882311F081E2C1
:10114000C7C01AB817B814B8CBB9C8B9C5B90E9486
:101150000C149093370380933603DC01ED91FC91DE
:101160000995E0913603F09137030480F581E02D75
:101170000995882329F081E080931B0381E1A8C0B1
:101180001AB817B814B8CBB9C8B9C5B90E9439177D
:101190009093370380933603DC01ED91FC91099520
:1011A000E0913603F09137030480F581E02D099535
:1011B000882329F081E080931B0383E289C01AB859
:1011C00017B814B8CBB9C8B9C5B90E940C19909317
:1011D000370380933603DC01ED91FC910995E09192
:1011E0003603F09137030480F581E02D09958823BB
:1011F00011F085E26DC01AB817B814B8CBB9C8B9E8
:10120000C5B90E94EC1C9093370380933603DC0130
:10121000ED91FC910995E0913603F091370304803C
:10122000F581E02D0995882311F08BE251C01AB8A1
:1012300017B814B8CBB9C8B9C5B90E94EB1E9093C2
:10124000370380933603DC01ED91FC910995E09121
:101250003603F09137030480F581E02D0995811163
:1012600002C080E038C085E033C083B11AB817B837
:1012700014B8DBB9D8B9D5B98F35A9F463D4909334
:10128000370380933603DC01ED91FC910995E091E1
:101290003603F09137030480F581E02D099588230A
:1012A00001F389E115C00E94FC1D909337038093E0
:1012B0003603DC01ED91FC910995E0913603F09144
:1012C00037030480F581E02D0995882351F281E3ED
:1012D00080931D0381E0DF91CF910895089580915F
:1012E0003D038093880110928D0110928E0110921F
:1012F0008C0110928B0188E184B98FEF85B98FE65C
:101300008CBD08956EBD0DB407FEFDCF882371F02E
:1013100080918E01811104C08AE28A95F1F700C0A4
:101320002C9885E08A95F1F700002C9A189902C054
:101330008EB5089580E00895CF93C82F609127035C
:1013400081E0E0DF81508E3F38F48FEA94E001972E
:10135000F1F700C00000C3DF6091280381E0D2DF15
:101360006091250381E0CEDF609126038C2FCF9121
:10137000C9CF80E194EA189B03C001970097D9F781
:1013800087EC90E00197F1F700C00000189930C099
:101390008FE891E00197F1F700C000008FE99FE02E
:1013A0000197F1F700C00000189B22C060E080E0C8
:1013B000A9DF6FEF80E0A6DF8130D1F46FEFA2DF0D
:1013C00061E481E09FDF6AE581E09CDF6FEF81E00F
:1013D00099DF6FEF81E096DF95E39A95F1F70000D2
:1013E0008CB58F7B8CBD84B1877E84B987E10895ED
:1013F0001CBC80E008951F93CF93DF93189BFECF12
:101400008AEB98E8189B06C001970097D9F788ECFB
:1014100080938B0180912403882309F464C2823075
:1014200009F463C2843049F0863089F0813089F054
:10143000DFEF833021F4DFE90DC0DFEB0BC0853037
:1014400011F4DFE307C0873029F4DFE603C0DFE7EC
:1014500001C0DFEC8091220384FDDE7F85FDD77F14
:101460009091230396FDDD7F97FDDB7F80FD02C019
:10147000CFEF01C0CFEB81FDCF7D82FDCF7783FD24
:10148000CF7E86FDCB7F87FDC77F90FDCE7F91FD10
:10149000CD7F8CB580648CBD84B1886184B9809126
:1014A0008B0187FD1CDF80918B018F5F80938B0107
:1014B0006FEF81E027DF813009F007C210928B01C6
:1014C00080918C01813009F04AC163EF1BDF182F36
:1014D0006AE581E017DF812F90E0FC01E054F1091B
:1014E000E031F10508F0F1C1EA5AFF4F0C945F2199
:1014F0006D2F81E007DF8093F602809186018823BB
:1015000031F08150809386016C2F81E02AC0809158
:101510008701882331F08150809387016C2F80E010
:1015200029C080918E018230C9F46C2F81E0EADEFF
:101530008093050381E000DF80918E018230E9F421
:10154000CAEED2E0699181E0DDDE82E0C53FD807D6
:10155000C9F76091F50280E0D5DE0FC0813039F423
:101560006C2FD0DE8093050380E0E6DE06C081119B
:1015700004C06C2FC7DE8093050380918A018F5FC2
:1015800080938A018B3008F4A0C110928A011092D6
:101590008C019BC160E081E0B5DE80938C018130DD
:1015A00099F480918E01823011F0C4E007C0CCE044
:1015B00060E081E0A7DEC150D9F7F7CF60E081E0BD
:1015C000A1DEC150D9F7A6C060E081E09BDE8A357C
:1015D00061F460E081E096DE60E081E093DE60E04F
:1015E00081E090DE60E080E08DDE80918D0180936F
:1015F0008E016BC160E081E085DE60E081E082DE2B
:1016000062E010C081E08093870190918D0191117B
:1016100002C080938D016FEF81E074DE6FEF81E097
:1016200071DE63E081E06EDE60E081E06BDE60E051
:1016300081E068DE6AE56FC060E081E063DE809390
:101640008D0180918801811110928D01C4E060E0CC
:1016500081E058DEC150D9F75DC081E080938701F9
:1016600080918801882311F060E007C080913903E0
:10167000882311F063E001C061E081E043DE62E0B5
:1016800081E040DE61E080918801811160E081E0CD
:1016900039DE62E027C060E081E034DE811102C003
:1016A000CAE001C0C4E160E081E02CDE61E081E0DD
:1016B00029DECA3011F462E001C061E081E022DE7F
:1016C00061E0CA3009F460E081E01CDE6C2F23C0C9
:1016D00060E081E017DE60E081E014DE62E081E03E
:1016E00011DE60E081E00EDE61E012C060E081E0CA
:1016F00009DE811102C0C4E001C0C7E060E081E002
:1017000001DE60E081E0FEDD6C2F81E0FBDD60E06A
:1017100081E0F8DD60E080E0F5DDD7C060E081E0E9
:10172000F1DD61E081E0EEDD6FEF81E0EBDD6FEF99
:1017300081E0E8DD6FEF81E0E5DD6FEFECCF81E088
:101740008093860182E080938D0160E081E0DADDA4
:10175000C4E060E081E0D6DDC150D9F7DBCF811174
:10176000B4C080918E01882381F090914003993715
:1017700021F4823061F063E70FC0933351F09F375B
:1017800051F09335C1F763E507C061E405C069E72F
:1017900003C063E201C063EE90918901891729F0CB
:1017A000909187019E5F909387018093890181E0EA
:1017B000A9DD182F6AE581E0A5DD6D2F81E01334E6
:1017C00071F5A0DD80938C01811102C060E025C01D
:1017D0008091860181112AC080918701811130C0DA
:1017E00080918E01823009F04AC06C2F81E08ADD41
:1017F0008093050381E0A0DD80918E01823009F0A5
:101800004DC0CAEED2E0699181E07CDD82E0C53F47
:10181000D807C9F76091F50280E074DD3FC072DD42
:101820008093F60280918601882331F08150809365
:1018300086016C2F81E026C080918701882331F0DA
:101840008150809387016C2F80E025C080918E01AC
:101850008230A9F46C2F81E055DD8093050381E08F
:101860006BDD80918E018230C9F4CAEED2E06991BD
:1018700081E048DD82E0C53FD807C9F7CBCF813092
:1018800039F46C2F3FDD8093050380E055DD06C001
:10189000811104C06C2F36DD8093050340913D0318
:1018A000242F30E08091880190E02817390769F0F3
:1018B0004093880181E090918E01911180E08093A6
:1018C0008E018093890180938D0185E38A95F1F7DC
:1018D00000008CB58F7B8CBD84B1877E84B9DF918D
:1018E000CF911F910895DFEEB5CDDFEDB3CD80E050
:1018F00091E00895089581E080938F0108951092FA
:101900008F0180918F018823E1F381E00895109287
:101910008F0180918F018823E1F38FE99FE0019788
:10192000F1F700C0000085E1E0E9F1E0DF011D9280
:101930008A95E9F780E880939301809392018093E0
:101940009101809390018091250392E9980F943240
:1019500010F0809390018091270392E9980F9432C0
:1019600010F0809391018091260392E9980F9432B0
:1019700018F08095809392018091280392E9980F46
:10198000943218F08095809393018CE080939401B9
:1019900088E0809395018FEF809396018093970163
:1019A0008091220387FF03C09DEF9093960185FFEE
:1019B00005C0909196019B7F90939601909135037D
:1019C00092FF05C090919601977F9093960184FFB6
:1019D00005C0909196019F7E9093960186FF05C069
:1019E000909196019F7D909396019091240394305D
:1019F00021F4909196019F7B05C0923031F4909133
:101A000096019F779093960109C0911102C09EEFB5
:101A100003C0963019F49DEF909397012091230312
:101A200021FF05C0909197019B7F9093970120FF24
:101A300005C0909197019F779093970180FF05C013
:101A4000909197019F7B9093970181FF05C09091A2
:101A500097019F7E9093970182FF05C09091970117
:101A60009F7D9093970183FF05C080919701877FA9
:101A70008093970180914303811145C0809191012A
:101A8000869586958695282F2871B8E02B9F900122
:101A900011249091900196959695922B9093900198
:101AA000867020E2829FC001112490919201969548
:101AB0009695982B909391018091F4028695869546
:101AC0008695282F287194E0299F900111249091E8
:101AD0009301969596959695922B90939201A0E2FC
:101AE0008A9FC00111249091F5029695969596953E
:101AF000982B90939301809196018093940180910B
:101B000097018093950165E180E991E014C30F93FB
:101B10001F938BB183608BB98AB18C7F8AB985E1C1
:101B2000E0E9F1E0DF011D928A95E9F70BE71CE09F
:101B300020E131E045E1BF0180E391E003D31F9153
:101B40000F9160C388E091E008952F923F924F92E9
:101B50005F926F927F928F929F92AF92BF92CF923D
:101B6000DF92EF92FF920F931F93CF93DF93CDB746
:101B7000DEB7E2970FB6F894DEBF0FBECDBF1DA64D
:101B80001CA6A12CB12C78E0E72EF12CDE01519699
:101B900080E090E02CA53DA52453354FF901E80FD6
:101BA000F91FE491ED93019686309105B9F7DE01B6
:101BB000119680E090E0FC01E853FD4FE081F0E0F9
:101BC000E453FF4FE491ED9301968A30910599F724
:101BD000AB817E818989872790E04A2F47702A85CB
:101BE00028ABFD819701241B31093AAB29AB9C013D
:101BF00009A802C0220F331F0A94E2F702C095958C
:101C000087954A95E2F7822B38A9831B8F278B870C
:101C1000B9814A814EA78A89842790E04B2F47706B
:101C2000E8859701241B31093AAB29AB9C0109A82F
:101C300002C0220F331F0A94E2F702C095958795E0
:101C40004A95E2F7822B871B8E278C873F813FA71F
:101C50002B89232730E069856770C701861B9109AE
:101C6000A901082E01C0440F0A94EAF7062E02C00B
:101C7000359527950A94E2F7242B2A1B2B272D87CD
:101C80002C892F2730E04E2F47704BA79C81A7014E
:101C9000BBA54B1B51095AAB49ABA90109A802C00E
:101CA000440F551F0A94E2F702C035952795BA955F
:101CB000E2F7242B291B2A272E872D895EA52527AD
:101CC00030E0AFA5A770A7014A1B51095AAB49AB39
:101CD000A90109A802C0440F551F0A94E2F75AABA4
:101CE00049AB02C035952795AA95E2F7242B291B0D
:101CF0002F272F872E892E2730E0F90102C0EE0F03
:101D0000FF1F8A95E2F7CF0102C0359527956A95A6
:101D1000E2F7822B871BF8A98F27888B46E050E0DB
:101D200062EC72E0CE010B960E94652195012F5F57
:101D30003F4F892B79F059012CA53DA52A5F3F4FD4
:101D40003DA72CA737E0A316B10409F01FCF1092CE
:101D5000D30280C1822F9091C602122F00E0090F9A
:101D6000111D04531F4FF8010491F2E0AF0EB11C96
:101D70009091CB02FA2DEE27E90FF11DE453FF4FAE
:101D8000E491E027E093BA029091C402782E612C8E
:101D9000690E711C930124533F4FF9016490909197
:101DA000CD02FA2DEE27E90FF11DE453FF4FE49128
:101DB000E625E093BB029091C702582E412C490EB4
:101DC000511C920124533F4FF90144909091CF024E
:101DD000FA2DEE27E90FF11DE453FF4FE491E425BE
:101DE000E093BC029091C202D82EC12CC90ED11C26
:101DF000960124533F4FF90194912091CA02FA2D84
:101E0000EE27E20FF11DE453FF4FE491E927E09341
:101E1000BD029091C302982E812C890E911C9401D1
:101E200024533F4FF90194912091CC02FA2DEE27D3
:101E3000E20FF11DE453FF4FE491E927E093BE0266
:101E40009091C502888F1F8A2F89388D290F311DE7
:101E500024533F4FF90194912091D102FA2DEE279E
:101E6000E20FF11DE453FF4FE491E927E093BF0235
:101E70009091C8028A8F198E298D3A8D290F311DB4
:101E800024533F4FF90194912091CE02FA2DEE2771
:101E9000E20FF11DE453FF4FE491E927E093C00204
:101EA0009091C9028C8F1B8E2B8D3C8D290F311D7B
:101EB00024533F4FF90194912091D002FA2DEE273F
:101EC000E20FF11DE453FF4FE491E927E093C102D3
:101ED0009091C2028E8F1D8E2D8D3E8D290F311D4A
:101EE00024533F4FF90194912091C902FA2DEE2716
:101EF000E20FF11DE453FF4FE491E927E093B202B2
:101F00009091C70288A31F8E2F8D38A1290F311DF4
:101F100024533F4FF90194912091CC02FA2DEE27E2
:101F2000E20FF11DE453FF4FE491E927E093B30280
:101F30009091C5028AA319A229A13AA1290F311DA6
:101F400024533F4FF90194912091C802FA2DEE27B6
:101F5000E20FF11DE453FF4FE491E927E093B4024F
:101F60009091C4028CA31BA22BA13CA1290F311D6F
:101F700024533F4FF90194912091D102FA2DEE277D
:101F8000E20FF11DE453FF4FE491E927E093B5021E
:101F90009091C6028EA31DA22DA13EA1290F311D35
:101FA00024533F4FF90194912091CF02FA2DEE274F
:101FB000E20FF11DE453FF4FE491E927E093B602ED
:101FC0009091C30288A71FA22FA138A5290F311D08
:101FD00024533F4FF90194912091D002FA2DEE271E
:101FE000E20FF11DE453FF4FE491E927E093B702BC
:101FF0009091CB028AA719A629A53AA5290F311DD0
:1020000024533F4FF90194912091CD02FA2DEE27F0
:10201000E20FF11DE453FF4FE491E927E093B8028A
:102020009091CA02382E212C290E311C9101245383
:102030003F4FF90124908091CE02FA2DEE27E80F50
:10204000F11DE453FF4FE491E225E093B90281E0F2
:102050008093D302E2960FB6F894DEBF0FBECDBFD9
:10206000DF91CF911F910F91FF90EF90DF90CF9074
:10207000BF90AF909F908F907F906F905F904F90A8
:102080003F902F900895863028F4E091D402F0918B
:10209000D5020994089590EC980F963098F480E456
:1020A00090E029E430E0F901E81BF90BDC01AE54C3
:1020B000BE4F4C91E853FD4F408301968634910505
:1020C00091F708959AEB980F9630C8F48091F80133
:1020D0008093CB028091F9018093CA028091FA012A
:1020E0008093C9028091FB018093C8028091FC011A
:1020F0008093C7028091FD018093C602089594EBFE
:10210000980F9430B8F49091FE019093C50290918D
:10211000FF019093C402909100029093C3029091AA
:1021200001029093C20270E0680F711D6035710565
:1021300009F40BCD0895462F50E0BC0182EB91E0ED
:102140000C947221EF92FF920F931F93CF93DF9322
:1021500000D0CDB7DEB77C01CB011092D202109334
:10216000D5020093D402642F29833A83E4DF1092CE
:10217000A20286E0F701A0EAB1E001900D928A95F3
:10218000E1F786E0E0EAF1E0ACEAB2E001900D921E
:102190008A95E1F72981E22F3A81F32F80E290E0DE
:1021A0002191DC01AE54BE4F2C93019680349105F1
:1021B000B9F72FEF89E698E1215080409040E1F790
:1021C00000C0000058985998509A8AB18C7F8AB9FB
:1021D0001092B1011092B00184EA8093BA0010927B
:1021E000B90088E48093B80081EC8093BC00109221
:1021F00043030F900F90DF91CF911F910F91FF90AC
:10220000EF9008958091D202811109C08091BC00A5
:1022100084608093BC0081E08093D202789408951A
:102220001F920F920FB60F9211242F933F934F934B
:102230005F936F937F938F939F93AF93BF93EF932E
:10224000FF938091B900887F803951F188F48037FD
:1022500021F128F4803609F18836F9F0DEC08038A3
:10226000F9F0883809F4D9C0883709F0D6C015C00C
:10227000803B09F498C038F4803A09F489C0883A60
:1022800009F0CBC090C0803C09F4C5C0883C09F47B
:10229000C2C0883B09F48EC0C0C01092AF01BBC061
:1022A0008091AF01882309F466C02091BB00809122
:1022B000B0019091B1018E3F910529F4233019F4BA
:1022C00081E0809343038091B0019091B101803F00
:1022D000910589F4253511F02A3A69F41092D30258
:1022E00086E0E0EAF1E0ACEAB2E001900D928A9576
:1022F000E1F71092AC018091B0019091B101892B6E
:1023000091F4243681F48091AD01882361F086E058
:10231000E6EAF1E0ACEAB2E001900D928A95E1F7CD
:1023200081E08093AC018091D3028823E1F0A091F9
:10233000B001B091B101E091B001F091B101E7704D
:10234000FF27EE54FD4F8081E091B001F091B10183
:10235000E770FF27E654FD4F90818227890FAE5426
:10236000BE4F8C934AC0E091B001F091B101EE54A0
:10237000FE4F208342C08091BB0090E09093B1015A
:102380008093B00181E08093AF011092AE0143C011
:102390006091AE018091B0019091B1019091AE0138
:1023A000891B79DE38C08091B0019091B1016BDE5C
:1023B0001092AE018091D302E091B001F091B10191
:1023C000EE54FE4F8823B1F08081E091B001F0918E
:1023D000B101E770FF27E654FD4F2081E091B00185
:1023E000F091B101E770FF27EE54FD4F9081821B01
:1023F000892701C080818093BB008091B0019091BA
:10240000B10101969093B1018093B0018091AE012A
:102410008F5F8093AE0185EC01C085E88093BC009E
:10242000FF91EF91BF91AF919F918F917F916F91AC
:102430005F914F913F912F910F900FBE0F901F9082
:10244000189508951092440357985F9A08955798E5
:102450009BB19BB9811105C081E090E0A0E0B0E0A4
:102460001CC081E090E0A0E0B0E04F9B1FC00000E6
:102470000196A11DB11D883E23E09207A105B1057B
:10248000A1F712C000000196A11DB11D811523E521
:10249000920727E0A207B10539F04F99F3CF883EA4
:1024A0009340A105B10511F48FEF089598E080E005
:1024B000880F2BE02A95F1F700004F9981602CE0FE
:1024C0002A95F1F70000915099F7803461F48FE27A
:1024D00091E00197F1F700C0000089B18078809306
:1024E000440380E4089508953AE03A95F1F700C076
:1024F000579A5F9828E180E093E0A0E0B9E0B7FF49
:1025000009C035E03A95F1F700005F9A35E13A9558
:10251000F1F708C035E13A95F1F700005F9A35E030
:102520003A95F1F700005F98880F991FAA1FBB1F0B
:10253000215029F78AE08A95F1F700C057985F9AF1
:1025400081E085CF2F923F924F925F926F927F9260
:102550008F929F92AF92BF92CF92DF92EF92FF92B3
:102560000F931F93CF93DF93CDB7DEB765970FB669
:10257000F894DEBF0FBECDBF1092440380E067DF4A
:102580008D8B811102C0B0DF8D8B412C512C32011B
:10259000D301C201A66089839A83AB83BC83D30134
:1025A000C201AA608D839E83AF83B887D301C20125
:1025B000A96089879A87AB87BC87D301C201A560D0
:1025C0008D879E87AF87B88BD301C201A460898BAA
:1025D0009A8BAB8BBC8B730162016894E3F8530157
:1025E00042016894A1F8689460F822242A94312C5E
:1025F0009D899F3F09F4D8C09D89911102C074DF65
:102600008D8BA0E1AA95F1F780912403863019F40F
:10261000B301A2012FC0823019F4B501A4012AC070
:10262000811103C0B701A60125C0843029F449896E
:102630005A896B897C891EC0853029F44D855E8559
:102640006F85788917C040E050E0BA01873029F4DF
:1026500049855A856B857C850DC0813029F44D8173
:102660005E816F81788506C0833021F449815A816B
:102670006B817C818091220384FD606187FD6062B3
:1026800086FD606481FD02C0606802C060687160A0
:1026900080FD726083FD746082FD786085FD7061ED
:1026A00080912503909126038101091B110922279E
:1026B00017FD2095322F182B042B152B262B372B8B
:1026C0004091270350E060E070E080912803F10121
:1026D000E81BF109CF01AA2797FDA095BA2FF09129
:1026E000F402742F662755274427E091F5024E2BFC
:1026F0005F2BDC0199278827482B592B6A2B7B2BD2
:10270000579A5F9880E237FF09C0F5E0FA95F1F734
:1027100000005F9A95E19A95F1F708C0A5E1AA95A6
:10272000F1F700005F9AB5E0BA95F1F700005F9805
:10273000000F111F221F331F815029F780E277FFFE
:1027400009C0E5E0EA95F1F700005F9AF5E1FA9536
:10275000F1F708C095E19A95F1F700005F9AA5E0BE
:10276000AA95F1F700005F98440F551F661F771F69
:10277000815029F7BD89B13469F480E1E5E1EA953A
:10278000F1F700005F9AF5E0FA95F1F700005F9825
:102790008150A1F785E08A95F1F7000057985F9A7C
:1027A00081E055DE8D8B24CF80914403882319F07E
:1027B0009093F60202C01092F60265960FB6F89456
:1027C000DEBF0FBECDBFDF91CF911F910F91FF9064
:1027D000EF90DF90CF90BF90AF909F908F907F90C1
:1027E0006F905F904F903F902F90089580E02FDE84
:1027F00022E02A95F1F700C099B120E12A95F1F77E
:10280000811108C04F9B06C0892F8095881F88279B
:10281000881F089580E0089586E391E00895089563
:10282000109248031092470357985F9A089520E248
:102830002A95F1F7579A5F9894E09A95F1F700007E
:1028400098E087FF05C05F9A2DE02A95F1F708C050
:1028500029E02A95F1F700005F9A24E02A95F1F724
:1028600000005F98880F24E02A95F1F7915049F70E
:1028700084E08A95F1F757985F9A08953AE03A957F
:10288000F1F700C0579A5F9884E08A95F1F700004D
:1028900020E180E095E097FF05C05F9A3DE03A9522
:1028A000F1F708C039E03A95F1F700005F9A34E09B
:1028B0003A95F1F700005F98880F991F34E03A9538
:1028C000F1F7215041F728E081E090E087FF05C053
:1028D0005F9A3DE03A95F1F708C039E03A95F1F793
:1028E00000005F9A34E03A95F1F700005F98880F96
:1028F000991F34E03A95F1F7215041F784E08A9529
:10290000F1F757985F9A089557989BB19BB98F3FFD
:1029100019F44F99FECF14C041E050E060E070E040
:102920008130A9F44F9B10C000004F5F5F4F6F4F85
:102930007F4F403D37E053076105710599F704C0AB
:1029400041E050E060E070E028E090E026C0823096
:10295000D9F44F9BF9CF00004F5F5F4F6F4F7F4F10
:10296000403990ED590793E06907710591F7ECCF75
:1029700000004F5F5F4F6F4F7F4F403930ED53077F
:1029800033E06307710501F34F99F2CFDDCF3AE0F1
:102990003A95F1F700C0215041F0990F39E03A958E
:1029A000F1F74F9BF4CF9160F2CF811107C0403215
:1029B0005E446105710589F0892F0895813031F4F5
:1029C000403D574061057105B9F707C08230A1F756
:1029D0004039504D6340710579F78EEF089582E0DC
:1029E00093DF9AE19A95F1F700C099B1813019F41B
:1029F0009078903809F080E008957F928F929F92AE
:102A0000AF92BF92CF92DF92EF92FF920F931F93FC
:102A1000CF93DF938BB18F7C8BB925E32A95F1F7A8
:102A200000008FEFC0E0D6E000E014E0E12CE8E029
:102A3000FE2EC12CDD24D394A12CA2E0BA2EBFEC33
:102A40009B2E9FE2892E2FE7722E20ED37E090E03B
:102A500049B1440F440B9F5F942321503109211544
:102A6000310509F4F8C1953098F31092460310929D
:102A7000450390912403963029F4B0924603A09226
:102A8000450331C0923029F4D0924603C0924503E9
:102A90002AC0911105C0F0924603E092450323C07D
:102AA000943029F410934603009345031CC09530DD
:102AB00029F4D0934603C093450315C0973019F409
:102AC00020E03AE00CC0913019F420E039E007C072
:102AD000933049F42091450330914603356030939B
:102AE0004603209345039091220394FF09C020914F
:102AF00045033091460330623093460320934503EB
:102B000097FF09C02091450330914603206130931F
:102B100046032093450396FF09C020914503309159
:102B200046032062309346032093450340912303DC
:102B300040FD04C020912803243648F42091450329
:102B4000309146032860309346032093450393FD5C
:102B500004C020912803273948F020914503309183
:102B600046032460309346032093450392FD04C03E
:102B700020912703243648F42091450330914603E1
:102B80002260309346032093450341FD04C0209109
:102B90002703273948F020914503309146032160EF
:102BA000309346032093450391FF09C020914503CC
:102BB000309146033068309346032093450390FFDD
:102BC00009C0209145033091460330643093460399
:102BD0002093450395FF09C020914503309146039A
:102BE0003061309346032093450390912503903D37
:102BF00010F090922503909125039F3210F480925B
:102C0000250390912603903D10F090922603909119
:102C100026039F3210F4809226032091250320582A
:102C200030E0322F222790912603472D491B242B79
:102C300030934A032093490367DE813009F051C085
:102C40008AE08A95F1F700C0579A5F9894E09A95C8
:102C5000F1F7000020E1809145039091460397FF32
:102C600005C05F9AEDE0EA95F1F708C0F9E0FA9542
:102C7000F1F700C05F9A34E03A95F1F700005F98F1
:102C80008091450390914603880F991F90934603C6
:102C9000809345032150F9F620E1809149039091FA
:102CA0004A0397FF05C05F9A4DE04A95F1F708C0C7
:102CB00089E08A95F1F700C05F9A94E09A95F1F760
:102CC00000005F988091490390914A03880F991FF3
:102CD00090934A03809349032150F9F600C000C045
:102CE00089C0811103C0CADD81E0AFCE8F3F71F48E
:102CF000DF91CF911F910F91FF90EF90DF90CF90D8
:102D0000BF90AF909F908F907F90B8CD823009F0A8
:102D100075C0E3E0F1E03197F1F700C00000809169
:102D20004703882309F452C0FAE2FA95F1F700C08C
:102D3000579A5F9822E02A95F1F7000080E091E031
:102D400020E827FF0AC032E03A95F1F700005F9AC9
:102D50004DE04A95F1F7000008C0E8E0EA95F1F788
:102D600000C05F9AF5E0FA95F1F75F98269529F093
:102D700032E03A95F1F700C001C020E801970097D2
:102D800001F700C000C0000088E098EB97FF05C085
:102D90005F9A4DE04A95F1F708C0E9E0EA95F1F74E
:102DA00000005F9AF4E0FA95F1F700005F98990F40
:102DB00024E02A95F1F7815049F734E03A95F1F78C
:102DC000000057985F9A109247038ECF40E24A95D1
:102DD000F1F7579A80E191E05F9AE4E0EA95F1F724
:102DE0005F98FCE0FA95F1F701970097A9F725E0C5
:102DF0002A95F1F7000057985F9A76CF833041F516
:102E000087EF90E00197F1F700C0000080E07CDDE3
:102E1000E8EDFFE03197F1F7803829F481E0809305
:102E2000470388EB13C08E3F11F481EE0FC08B3146
:102E300011F480E00BC0813029F48FEF8093F6020B
:102E40008BEE04C0811150CF1092F602F0DC4CCF13
:102E50008E3F09F049CFDF91CF911F910F91FF90E5
:102E6000EF90DF90CF90BF90AF909F908F907F902A
:102E700008958EE391E0089508958AB18C708AB91F
:102E80008BB1836F8BB946983E981092D8021092FE
:102E9000D90285E0809381001092800082E084BD99
:102EA00080936E008FEF87BD1092D7020895469AE7
:102EB0008AB1806C8AB98BB18F7C8BB98FE99FE026
:102EC0000197F1F700C0000089B180738033A1F44D
:102ED0008BB180638BB9369B08C08FEF9CE7369B24
:102EE0000DC001970097D9F707C08FEF9CE736997F
:102EF00012C001970097D9F780E008959FE724ED6D
:102F000080E0915020408040E1F700C00000369BF7
:102F1000ECCF81E008958FEA94E00197F1F700C0CB
:102F2000000086B186FB882780F991E08927089503
:102F30001F920F920FB60F9211248F93889A85E0FB
:102F40008A95F1F70000889883EF809358018BB938
:102F500081E08093D7028091D802882319F082E023
:102F60008093D7028F910F900FBE0F901F901895EE
:102F700083EF809359018093580180935701809388
:102F800056018AB1836F8AB98091D702882321F0D4
:102F900081508093D70289C085B5856085BD7894BE
:102FA0008091220385FF05C0909159019E7F9093E7
:102FB000590180FF05C0909159019D7F909359015F
:102FC00030915901932F9F739093590187FD02C04F
:102FD00093EF01C092EF9093580181FF05C090914B
:102FE00058019D7F90935801909124032FEF290F52
:102FF000233050F4209156012068209356012091EF
:1030000058012F77209358012BEF290F233068F4B4
:1030100020915601206420935601209158012F7B66
:1030200020935801973089F402C091110EC020916D
:1030300056012061209356013F723093590120912F
:1030400058012F7E2093580102C0913081F3935094
:10305000933078F49091560190629093560190913C
:1030600059019F7D90935901909158019F7D9093B4
:10307000580186FF05C0909157019F7E909357019C
:1030800083FF05C0909157019F7D9093570182FF68
:1030900005C0909157019F7B9093570184FF05C015
:1030A000809157018F77809357019091D902809139
:1030B0005901923059F490915801F92F369BFECF67
:1030C000FBB9F82F3699FECFFBB934C0933009F421
:1030D0008BB990915901F92F3699FECFFBB9209108
:1030E000D90280915801263009F020C0E92FEF70F5
:1030F000E093D602F82F369BFECFFBB9F92F369915
:10310000FECFFBB9F82F369BFECFFBB9FE2F3699C9
:10311000FECFFBB990915701F92F369BFECFFBB93B
:1031200090915601F92F3699FECFFBB9F82F369BB7
:10313000FECFFBB9A99A16BC15BCF89408958091EE
:10314000D902811152C01092D8028BB18F738BB902
:103150002FE784ED90E0215080409040E1F700C0DF
:1031600000008FEF9CE736990BC0369903C001979A
:103170000097D9F782E024C00197009709F449C06D
:103180003699FACF8FEF9CE7369903C001970097E5
:10319000D9F781E090E0369B06C0019681152DE7B6
:1031A0009207C9F704C0893E23E0920710F083E03C
:1031B00007C09C01235031092D34310520F486E0ED
:1031C0008093D9020BC0815591098739934030F41F
:1031D00083E08093D90281E08093D8028FE39FE15E
:1031E0000197F1F700C00000089581E086BB80E6FA
:1031F0009AEE9093850080938400BADE8091D80285
:103200008111B6DE8FEA94E00197F1F700C000006B
:10321000B0991092D902089586E491E00895089536
:103220001092DA0281E08093DB02579856988AB1B7
:103230008F7C8AB93E985E9A5F9A8BB180638BB916
:10324000469A08954E9BFECF8FEC97E00197F1F7D9
:1032500000C000004F9B17C04E9915C04E9BFECF7B
:103260004F99FECF8FE891E00197F1F700C0000081
:103270004F9903C081E08093E2024F9B06C082E039
:103280008093E20202C080E0089581E00895FF92F9
:103290000F931F93CF93DF9390912403992309F405
:1032A000B2C2943009F4B2C2963059F09230B1F003
:1032B0009730B9F020E030E0953031F420E630E08E
:1032C00012C020E430E00FC0913019F420E930E062
:1032D0000AC0933041F420EA30E005C020E830E035
:1032E00002C020E530E09091220395FD286094FD16
:1032F00024604091E202423091F591FD216090FD01
:1033000022606091290361110EC060912A0361114E
:103310000AC040913D0341112AC06091250370E02D
:103320006115710531F19370E1E0F0E011F0E0E03A
:10333000F0E0F195E195F10991EE961B990F911D41
:10334000692F91FB67F992FB66F993FB65F995FB91
:1033500063F996FB62F997FB61F970E09AC160E04E
:1033600070E0E0E0F0E0413009F093C105C060E0BA
:1033700070E0E0E0F0E08DC190FD216092FD226000
:1033800093FD316091FD326096FD346097FD3860A9
:103390004091DB0290913D03443009F450C09111FB
:1033A00005C09091DA029F5F9093DA029091DA0261
:1033B0009333D0F14091250350E04058510957FF15
:1033C00003C05195419551094B3058F54091270361
:1033D00050E04058510957FF03C05195419551099C
:1033E0004B30F8F44091260350E04058510957FF04
:1033F00003C05195419551094B3098F440912803F1
:1034000050E04058510957FF03C05195419551096B
:103410004B3038F490912903911103C090912A0305
:10342000911130681092DA0244E64093DF0290EA8C
:103430009093DE024093DD029093DC022AC1306853
:10344000992351F091E09093DB023F77AFE3BCE921
:103450001197F1F700C00000C09129039091220359
:1034600010914003C1114BC0C0912A03C11147C044
:1034700096FD02C0153429F440E840932803409398
:10348000270397FF05C040E8409326034093250398
:10349000D0912503C0912703AD2FB0E0A058B1090A
:1034A000B7FF03C0B195A195B1094C2F50E040582A
:1034B000510957FF03C0519541955109A41718F0C0
:1034C000CD2FF12C02C0FF24F39400912603D0915C
:1034D0002803A02FB0E0A058B109B7FF03C0B195F1
:1034E000A195B1094D2F50E04058510957FF03C035
:1034F000519541955109A41720F0D02F02C0D0E872
:10350000F12C1454123018F041E04F2501C040E076
:10351000142F11704091DE024D1710F4D093DE028B
:103520004091DF02D41710F4D093DF024091DC0207
:103530004C1710F4C093DC024091DD02C41710F464
:10354000C093DD021123A1F0AD2FB0E04091DE0267
:1035500050E04E505109A417B5070CF04EC14091F0
:10356000DF0250E0425F5F4F4A175B070CF048C133
:103570004091E0024D17D0F4BD2FB41B4B2FB93C46
:1035800008F040E0F1104695440F411D042E01FA69
:1035900047F902FA46F903FA45F905FA43F906FA3A
:1035A00042F907FA41F950E04E7F18C04D1B493CE3
:1035B00008F040E0F1104695440F411D542F41FBA7
:1035C00057F942FB56F943FB55F945FB53F946FBC6
:1035D00052F947FB51F95160452F50E01123A1F0FA
:1035E0000C2F10E0A091DC02B0E01E970A171B0719
:1035F00014F05E6F3EC0A091DD02B0E01E96A017F1
:10360000B10714F05F6F35C0A091E102AC17D0F4A0
:10361000BC2FBA1BAB2FB93C08F0A0E0F110A69567
:10362000AA0FA11D0A2E01FAA7F902FAA6F903FAB8
:10363000A5F905FAA3F906FAA2F907FAA1F95A2B96
:103640005E7F17C0AC1BA93C08F0A0E0F110A69566
:10365000AA0FA11D0A2E01FAA7F902FAA6F903FA88
:10366000A5F905FAA3F906FAA2F907FAA1F951603A
:103670005A2BD093E002C093E1024D7F5D7F222759
:10368000307FA92FAF7009F0326095FF04C0316020
:1036900002C040E050E09091E202913011F0D8E099
:1036A00001C0D0E1882341F083E893E04E9906C041
:1036B00001970097D9F7ADC04E9BFECF8BB18063C9
:1036C0008BB9C0E081E090E0DC01A223B323AB2BF7
:1036D00011F05D9801C05D9ADC01AE23BF23AB2BD6
:1036E00011F05C9801C05C9ADC01A623B723AB2BD8
:1036F00011F0469801C0469A880F991F4F99FECF46
:10370000A091E202A13011F44F9BFECFCF5FCD1705
:10371000D8F237FF6EC08091DB02813009F03DC0E6
:10372000E5E0EA95F1F700008093DB028BE795E195
:1037300024E04E9907C04F9B2093DB02019700972E
:10374000C1F757C080E090E074E025E02A95F1F7DA
:1037500000006CE021E030E0A90148235923452B0B
:1037600011F05D9801C05D9A220F331F4F99FECF73
:10377000615091F77093DB029C5F5D9A23E833E020
:103780004E9906C02150310921153105C9F731C0C4
:1037900081155CE09507C9F62CC085E08A95F1F7A4
:1037A000000081E08093DB0280E190E021E030E0E6
:1037B000B90164237523672B21F05D9861E070E007
:1037C00002C05D9AFBCF4F9B03C06F5F7F4FFBCF63
:1037D00069397A4370F4220F331F0197009741F73C
:1037E0008FE99FE00197F1F700C0000084E080932B
:1037F000DB025D985C9846980CC04EEF50E0F0CE2E
:103800004FEF50E0EDCE20E130E06DCD20E230E032
:103810006ACDDF91CF911F910F91FF900895559A36
:10382000549A3E9A80E090E032DD8091E20282304C
:1038300019F481E090E02BDD87EC90E00197F1F73F
:1038400000C0000008958AE591E008950895519818
:10385000599A3E98469A509A08952091240325300B
:1038600009F490C0273009F490C0213059F023307A
:10387000B1F02430B9F080E090E0211106C088E07A
:1038800090E012C088E190E00FC0223019F480E18E
:1038900090E00AC0263041F480E290E005C084E167
:1038A00090E002C084E090E02091220320FD80643B
:1038B00021FD806827FD916025FD926024FD9460C4
:1038C0002091230321FD986020FD906120ED37E0D9
:1038D00040E0369902C04F5F01C040E050E15A9588
:1038E000F1F7215031092115310509F451C0453056
:1038F00080F3509A21E030E036990DC02F5F3F4FA2
:10390000283860E93607C1F743C02F5F3F4F28389A
:1039100040E9340739F03699F8CF04C0369906C02B
:103920002F5F3F4F283850E93507C1F7589840E0DE
:1039300050E0E1E0F0E0BF01042E02C0660F771F07
:103940000A94E2F768237923672B11F0589A06C08E
:10395000589804C0369B0BC02F5F3F4F283860E952
:103960003607C1F704C0369906C02F5F3F4F28388D
:1039700060E93607C1F74F5F5F4F4F305105D9F609
:10398000589A089584E290E08FCF88E290E08CCF3F
:10399000089587E890E9369905C001970097D9F70F
:1039A00080E0089587E998E00197F1F700C00000F2
:1039B0003699F6CF87E890E9369904C001970097C9
:1039C000D9F7EECF499BECCF8FED9EE20197F1F74F
:1039D00000C0000081E0089582E691E00895089516
:1039E00010927301109272010895409126039091F4
:1039F000280321E09E3408F020E081E04E3408F0F6
:103A000080E0282B80912703222341F08E3420F080
:103A1000309125033E3410F487E03CC031E0933B05
:103A200008F430E091E0433B08F490E0932B41F040
:103A30008E3420F0309125033E3410F485E02AC006
:103A4000222341F0833B20F430912503333B10F0D7
:103A500081E020C0992341F0833B20F4309125037D
:103A6000333B10F083E016C0309125038E3410F004
:103A70003E3410F486E00EC0833B10F4333B10F06C
:103A800082E008C0222319F01092240305C0992374
:103A900019F084E08093240380912403843081F022
:103AA000823081F0882381F0863081F0873081F088
:103AB000853081F0813081F0833081F020E00FC0CB
:103AC00020E40DC020E10BC020E809C020E207C0BF
:103AD00020EA05C020E603C020E901C020E54091AE
:103AE0002203642F617040FD02C050E001C050E429
:103AF0008091720190917301342F32708130910561
:103B000071F461112160311122603091350332FD71
:103B1000206C44FD206345FF1BC0206E19C031118D
:103B2000216042FD226043FD02C030E001C030E868
:103B300046FD306447FD30624091230340FD306113
:103B400041FD386046FD346047FF03C0326001C06C
:103B500030E06BB1422F4095636F462368B1752FFB
:103B6000709560647623E5B1632F6095EE6F6E23E8
:103B7000019719F483E0842701C0842F8BB98091C9
:103B8000E3029091E402892B19F48BB183608BB925
:103B900078B965B98091720190917301019709F428
:103BA00023602AB98091E3029091E402892B19F4F1
:103BB0008AB183608AB957B934B9089583B18E3F09
:103BC00059F481E090E09093730180937201909397
:103BD000E4028093E302089583B18C3F59F481E0BD
:103BE00090E090937301809372011092E40210921E
:103BF000E302089580E008958AE691E0089508952B
:103C00003E9A469A8AB1806F8AB98BB18FEF8BB991
:103C10001092E60282E08093E50208958FEC8BB962
:103C200089B18370833071F489B183708130E1F799
:103C30008FEF8BB989B183708130E1F38FEC8BB951
:103C400081E0089580E00895E9DF882361F08FE343
:103C50009CE90197F1F700C00000E0DF89B18370B3
:103C6000823019F4089580E0089581E0089599B1B3
:103C70009370E9F725E32A95F1F70000982F9F60EC
:103C80009BB9469899B193709130E1F795E39A9575
:103C9000F1F7000020E1829FC00111248F608BB9F1
:103CA000469A0895CF93DF9380912403853089F05D
:103CB000873091F0813099F08330A1F08823A9F00A
:103CC0008430B1F08630B9F08230C1F0CFEFDFEF51
:103CD00017C0CFE9DFEF14C0CFEADFEF11C0CFE6A6
:103CE000DFEF0EC0CFE5DFEF0BC0CFEEDFEF08C098
:103CF000CFEDDFEF05C0CFEBDFEF02C0CFE7DFEFA7
:103D00008091220381FDCE7F87FDCD7F80FDCB7F1B
:103D100085FDC77F86FDDF7E83FDDF7D82FDDF7B46
:103D20008091230381FDDF7780FF02C0C0E0D4E0F3
:103D300080913D03882331F01092E60282E0809367
:103D4000E5020BC0809125038253873930F086E06D
:103D50008093E50281E08093E6028FE18BB989B11F
:103D60008370E9F725E32A95F1F700008091E602D8
:103D700020E1829FC00111249091E502892B77DF19
:103D80008C2F75DF8D2F73DF8091E502833018F063
:103D9000809125036CDF8091E502843018F08091DA
:103DA000260365DF8091E502853018F080912B03B2
:103DB0005EDF8091E502863018F080912C0357DF9A
:103DC00081E055DF8FE39CE90197F1F700C0000027
:103DD000DF91CF91089584E791E0089580B38066E4
:103DE00080BB81B3806681BB089520B380B38F7997
:103DF00080BB9FB120BB907681E009F480E00895FC
:103E00009FB1907651F420E137E29FB1907639F47A
:103E10002150310921153105C1F78EEF089596E043
:103E20009A95F1F700C09FB19076B9F790E19A9515
:103E3000F1F7E7EFF2E040E0481709F4B1C09081F4
:103E400096959083000000007D9B03C000C000C0D9
:103E500002C09068908394E19A95F1F790819695CD
:103E60009083000000007D9B03C000C000C002C022
:103E70009068908394E19A95F1F79081969590835C
:103E8000000000007D9B03C000C000C002C090681D
:103E9000908394E19A95F1F7908196959083000034
:103EA00000007D9B03C000C000C002C090689083EA
:103EB00094E19A95F1F79081969590830000000027
:103EC0007D9B03C000C000C002C09068908394E155
:103ED0009A95F1F7908196959083000000007D9B64
:103EE00003C000C000C002C09068908394E19A951E
:103EF000F1F7908196959083000000007D9B03C0B0
:103F000000C000C002C09068908394E19A95F1F7D8
:103F1000908196959083000000007D9B03C000C0B7
:103F200000C002C0906890837D9B17C020E030E005
:103F30007D9B0BC02F5F3F4F2C3D95E03907C1F7AC
:103F400004C07D9906C02F5F3F4F2C3D95E0390797
:103F5000C1F796E09A95F1F720C020E030E07D9916
:103F60000BC02F5F3F4F2C3D95E03907C1F704C0D0
:103F70007D9B0BC02F5F3F4F2C3D95E03907C1F76C
:103F800004C07D9906C02F5F3F4F2C3D95E0390757
:103F9000C1F795E09A95F1F700004F5F31964CCF4D
:103FA000509885E38A95F1F700008091F702089513
:103FB00090B39F7990BB20E137E29FB1907639F4BE
:103FC0002150310921153105C1F78FEF08959AE18C
:103FD0009A95F1F700C090B3906690BB91B39F792A
:103FE00091BB27E02A95F1F798E08D9A2AE02A956F
:103FF000F1F700C080FD8D982AE02A95F1F700C006
:104000008695915091F78D9A85E08A95F1F7000099
:104010008D9890E19A95F1F781B3806681BB80B36A
:104020008F7980BB2AE12A95F1F700C080E00895DE
:104030008CE791E00895982F973058F59093E90018
:10404000981739F07091EC002091ED005091F0003C
:1040500003C0242F762F50E021FF19C03091EB00D0
:104060003E7F3093EB003091ED003D7F3093ED00CB
:104070003091EB0031603093EB007093EC002093B3
:10408000ED005093F0002091EE0027FF07C09F5FE6
:10409000D3CF8F708093E90081E0089580E0089588
:1040A0001CD023D08091E00081608093E00080915B
:1040B000D8008F778093D80080914B0382FF19BC82
:1040C0008091D7008E7F8093D7008091D8008F7E1B
:1040D0008093D80010924F030895E8EDF0E08081BE
:1040E0008E7F80831092E20008951092DA00109281
:1040F000E10008951F920F920FB60F9211242F9393
:104100003F934F935F936F937F938F939F93AF935F
:10411000BF93EF93FF938091E10082FF0AC08091EB
:10412000E20082FF06C08091E1008B7F8093E10076
:10413000C5D08091DA0080FF25C08091D80080FF33
:1041400021C08091DA008E7F8093DA008091D900BF
:1041500080FF11C080914B0382FF05C081E08093F6
:104160005003ACD00FC080E189BD82E189BD09B4A4
:1041700000FEFDCFF3CF80914B0382FF19BC10925C
:1041800050039CD08091E10080FF1BC08091E20031
:1041900080FF17C08091E2008E7F8093E2008091C3
:1041A000E20080618093E2008091D8008062809379
:1041B000D80080914B0382FF19BC85E080935003A7
:1041C0007DD08091E10084FF33C08091E20084FFC4
:1041D0002FC080914B0382FF19C08091D8008F7D42
:1041E0008093D8008091E1008F7E8093E1008091E0
:1041F000E2008F7E8093E2008091E20081608093F4
:10420000E20080914C0381110DC008C080E189BD9E
:1042100082E189BD09B400FEFDCFDFCF8091E300CC
:1042200087FF02C084E001C081E08093500346D044
:104230008091E10083FF31C08091E20083FF2DC0B7
:104240008091E100877F8093E10082E080935003BA
:1042500010924C038091E1008E7F8093E100809169
:10426000E2008E7F8093E2008091E2008061809383
:10427000E2002091840130E088E090E040E0821785
:10428000930720F44F5F880F991FF9CF4295407F25
:10429000426060E080E0CFDE11D0FF91EF91BF91EE
:1042A000AF919F918F917F916F915F914F913F91CE
:1042B0002F910F900FBE0F901F9018950895EE0F3D
:1042C000FF1F0590F491E02D0994FB01DC0104C06F
:1042D0008D910190801921F441505040C8F7881BFE
:1042E000990B0895FB01DC0102C001900D92415031
:0A42F0005040D8F70895F894FFCF6E
:1042FA006F09FB09B9096E09870D870C7F0C7A0CC7
:10430A00E02080E02080E02080E0208000000000A3
:10431A00E02080E02080E02080E020800000000093
:10432A000000A42001012212A212F6132112101475
:10433A00FD14EF140F143D179F1857173C17FFF37E
:10434A00FFF3FFC3FFFFF3F3F3F310190F1C221956
:10435A000F19271C2D1CC91C261CF01CF51CDE1D60
:10436A00EF1C0100001E521E241EFF1DEE1E001F20
:06437A00D81FF51E08002B
:00000001FF
