:100000007AC5000094C5000092C5000090C50000AC
:100010008EC500008CC500008AC5000088C50000A0
:1000200086C5000084C500000C94F42580C500003E
:100030007EC500007CC500007AC5000078C50000C0
:1000400076C5000075C5000072C5000070C50000CF
:100050006EC500000C94B7196AC5000068C50000A1
:1000600066C5000064C5000062C5000060C50000F0
:100070005EC500005CC500005AC5000058C5000000
:1000800056C5000054C5000052C5000050C5000010
:100090000C9488124CC500004AC5000048C50000F9
:1000A00046C5000044C5000042C50000720C7A0C31
:1000B000F00B420C940CA50CC30CE00CDD0DDD0D17
:1000C000DD0DDD0DEE0C060DDD0D170D70510386F7
:1000D000400D4FEB3ECCD18735BDF50B5ED0F8F22D
:1000E000D5E26C310CADFC21C378C106C24C55E69B
:1000F0004A3448111EDAE71A84A096A7E37FAF635B
:100100009CFA235B79C89EBAB2C922124BB3A1B63E
:100110003249A2E189391066C5078F54EA91CA3F76
:10012000F919F0D746BC281B61E82F6AAE9DF64E40
:100130000914774DDB1F2E7B7CF143A300B8138C91
:1001400085B9297588FDD2561C509741E53B60B5AD
:10015000C064EE98D62D25A4AACD7DA883C6ABBEDB
:100160004499263CCE9FBFD3CB767A7E82018A9A71
:10017000801D0EB05CD43862F430E08E53B7025765
:10018000ACA6520A6D9265172433457274B1B4F768
:100190005DED2CFF47375A90BBDF2A165995D9C41D
:1001A000276773C768FEA5DD6B5F93D8EC053A8DB2
:1001B0006EFB3DA96936F394DEEF156F8B9B080F3C
:1001C000DC81182004E471CFE92B425801A0A96218
:1001D000D63F85A7B6D4FA15661709BD5D14342637
:1001E00059729154064FF8B05B7493998CF245CDD7
:1001F000EA4EAD104AE5CAEEDFC66F9F888E02CC8C
:1002000008A877946D21B128E43979966071811638
:100210002EE678B9C4469A42AEB77C43B3221A861A
:10022000C2323D2D9CD229E9639BD131385E1E3606
:1002300041BB03182B3EBF6861FC52C0DEE00A5888
:10024000135A00BE1C900E5312FDE26EBACE242744
:10025000447F87A3A1D55040E3F983F7C7A235C8EF
:10026000DB19AB2F1125ED339E55E148AF7384DACE
:100270002AAA51EB9D95B2CBE77080FE4C6504EF46
:10028000C5F1C33AB4F55F2389DD30A58BD3F6DC25
:100290004D64D7F08FEC56375CA40D07768A2C0B93
:1002A000B5D8C11FE83BF44B1B476C49677B92CF25
:1002B000757E20D97D3C977AD0056B0F1DFB829807
:1002C000578DF36ABCACC9A6FFB8690C4C4D7207D8
:1002D0005A49338DA2AB463D630DA097FFF0F5FA66
:1002E000C0E9DB62E4E17443DC86182937F406E2F6
:1002F000ED6F90481E2D1DEA739454DF25F64727B5
:10030000D91177C9841C5B5C5181A6223E2496C812
:100310008AEC827C09B8454A57BB2F50758E6170B4
:100320008C6CAFD0FDB41BAEDEFE3BB536BD5501C7
:100330000E9C41565FB3260383BA134BCAC50AF815
:1003400060A5B9C7C39832FB12F9A792AA68F378DF
:100350007E05202102E8BFF2B0598FD2CB87651508
:10036000F11AB230ADEE58A38B661F2CD75D1985FC
:10037000A8E6D36BA10C91936A5E0B79E3DD004F85
:100380003C896E7169A9AC40E59928C6314E7ACD99
:10039000089E7DEF17FC88D8A46D4495D1B7D49BF7
:1003A000BE2A34642BCF2EEB38CE23E03A3FF77BC6
:1003B0009F1053BC526716E7807604C4B6C1C27F53
:1003C0009ADAD53942149DB10F35D6CCB9DA380C4A
:1003D000A29C091F06B1B6FD1A692330C4DE01D103
:1003E000F45829371C7DD5BFFFBDC8C9CF65BE7B7A
:1003F0007897986708B32657F7FA40AD8E75A67CB4
:10040000DB918B5199D4177A908DCE63CB4EA0ABF4
:10041000183A5B507F2174C1BBB8B7BA0B35953120
:10042000599A4D04071E5A7613F37183D08603A898
:100430003942AA28E6E4D85DD3D06E6F96FB5EBC45
:1004400056C25F859BE7AFD23B846AA753C5444938
:10045000A5F936723D2CD91BA1F54F939D684741F4
:1004600016CA2A4CA387D6E5192E77156D70C0DF02
:10047000B20046EDC66C4360922DA922458F3455DB
:10048000AEA40A6632E0DC02ACE8208C89624AFE47
:10049000EEC3E33CF17905E9F62733CCF29E1181F6
:1004A0007E80108A829F480DD7B4FC2FB5C7DD88A7
:1004B000146B2B54EA1D945CB0EF1224CDEBE1E2F7
:1004C00064733F0E5261253EF80F4BECC00030F6CE
:1004D00002493D106E20C9A62FFE2C2B752E4526F5
:1004E000AB48A980FC04CCD3B5BAA338317D01D97F
:1004F000A77B96B663694EF7DEE078CA50AA4191B1
:100500006588E42185DA3A27BE1C3E425E17527F99
:100510001F89246F8F5C67740E12878DE934ED7329
:10052000C4F8615B05DF594C97798318A45595EBA6
:10053000BD53F5F15766469FB2810951862216DDFB
:1005400023937629C2D71DD4BF363FEA4B1132B967
:10055000625460D66D439A0D929CB0EF586C9D77B3
:100560002D70FAF3B30BE2407EF48AE58C3C5671B1
:10057000D164E1820ACB131590EC0399AF145D0F9F
:10058000334A94A5A8351BE36AC628FF4DE72584A6
:10059000AC08AEC5A22AB8370C7AA0C3CEAD061AF5
:1005A0009E8BFBD5D0C11ED0B49BB144F247C76827
:1005B000CF72BB4F5AF9DC6BDBD2E87CC8EE98A156
:1005C000E6D839075FFD8E19B73BBCCD7CE381735C
:1005D000B211BF6F2098FE7596EF6CDA50E1097288
:1005E0005445BA34805BED3E532C87A457F3333F18
:1005F0003CB767B4A325604F076B1B47150FE40A90
:10060000EAD1327836498D4BD2BCA5DC1D0D4DCDDB
:100610009A825FFC9465BEE2F4C91E44CB9E0C64D2
:10062000712663B314E840708A0E19426DAC8810CD
:100630005CDF41A9ADE5FB74CCD5068E5986CE1F93
:100640003D76E08FB977277BA6D829D3ECB813F78E
:10065000FAC3516ADE4A5AEBC28B234892CF62A892
:1006600099F8D02E856143C8BDF00593CA4EF17D3F
:1006700030FDC469662F08B152F921E67A2BDD39C5
:1006800084FFC091D637D47F2D9B5DA13B6EB5C54D
:100690004604F590EE7E831C0356B6AA001701357A
:1006A00055790B12BB1A31E7022816C1F6A2DB18E6
:1006B0009C89683897ABC72AD73AF2C6244CB05801
:1006C000A0225E9DD9A7E9AEAF8C959F28B720D711
:1006D000B030C30919C067D6003C7EE7E9F4085A78
:1006E000F8B82E05A6259E5CD8150DE1F611546BC1
:1006F000CD2146665E84AD06382944C5A2CEF1AA56
:10070000C1407186B5EFFC36A8CB0A48274564A3E3
:10071000AF8CB2C69F0789DC17D34979FBFE1DD089
:10072000B9884352BC01782B7D94C70EDEA5D59BBA
:10073000CCF7617AC274813903AB96A037BD2D72B4
:10074000753FC9D48E6FF98DED62DB1CDF04AC1BE5
:100750006C144B63D0BFB482EC7B1A5992D21060F8
:10076000B63D5FE6806E70C4F235D97CEEE541A4FB
:100770005B50DDBB4CF31F9D5D57555197E35842CD
:100780004D9C73BAC877316926AEEA8ADA22B387FC
:1007900056FA930B341633E8E453BEA9B13A3EF54A
:1007A000906ACF3B12FD8F9AA7479199EB0F24FFD8
:1007B0002318854E7F0CE0A1D2D12C2A4A024F1E6D
:1007C00095688B98836D76CA6532132FC3829AA47D
:1007D000BA8160373435FC80A8516567ED305F1011
:1007E000D34A272F13B92AD2CCE1EFAEEBBEF4BD2A
:1007F000CF43B3C58884B7DD3940CE486D9B726165
:100800007EE7A14E532E773BE2C936221B6E73B1B1
:1008100003B24C87A9D44D0FD8156CAA18F64957C6
:100820005DFB7A149463A011B09EDE0546C8EE47C6
:10083000DBDC24899C919729E97BC1071EB8FDFE6A
:10084000ACC662984FF179E0E86B7856B68D0450EB
:1008500086CA6F20E6EAE576171C747FBC0D2C85EE
:10086000F76696E48B753F4BD938AF7CDA0B832D56
:100870003132A2F51D594145BF3C1FF8F98AD01607
:10088000256912999D2195AB01A6D7B5C07DFF586A
:100890000E3A92D155E3089FD63E528EFAA3C70274
:1008A000CDDF8F64198CF3A70C5E0A6A09F0935BA5
:1008B00042C20623EC71ADB4CBBB7028D51A5C33B1
:1008C000685A004490A5C4263D2BF25496ADDA1F19
:1008D000ED33E18169080D0ADB35779A64D1FC7844
:1008E000AA1BD067A0DDFA6C63710584176A894F73
:1008F000667FC65055926FBDE7D240728DBBEC0645
:10090000428AE4889D7E7A822713411AAFC8A47672
:10091000B4C2FE6D1CD96130B37CEAF7290FF23BFB
:1009200051C1DE5FE52A2F990B5DA32B4AAB95A53C
:10093000D35856EE283100CC1546CAE686383C65B9
:10094000F5E39FD65B094983702D53A97DE2C4ACC2
:100950008E5EB825F4B957F3F16847B2A25920CE9C
:1009600034795C900E1EBED52223B1C91862162EB2
:10097000913E078FD83F933DD49BDF8521FB1174B7
:1009800097C7D7DC4C194598E943024BBCC3049C7C
:100990006BF07552A726F6C5BACFB0B7AE5AA1BF55
:1009A000038B80126E0CEBF9C04424EF10F8A88C76
:1009B000E87BFF9E2CCD603687B594A654733A141D
:1009C0004E011DB6FD37484D39CBE0320000000026
:1009D0000000000000000000000000000000000017
:1009E0000000000000000000000000000000000007
:1009F00000000000000000000000000000000000F7
:100A000000000000000000000000000000000000E6
:100A100000000000000000000000000000000000D6
:100A200000000000000000000000000000000000C6
:100A300000000000000000000000000000000000B6
:100A400000000000000000000000000000000000A6
:100A50000000000000000000000000000000000096
:100A60000000000000000000000000000000000086
:100A70000000000000000000000000000000000076
:100A80000000000000000000000000000000000066
:100A90000000000000000000000000000000000056
:100AA0000000000000000000000000000000000046
:100AB0000000000000000000000000000000000036
:100AC000000000000000000000000000A877A6E081
:100AD000F7435A3585E272978FB71A6287380D67E8
:100AE000C7BE4F3E2076378F68B7A9263F2B10E34D
:100AF000307E900E850A11241FBECFEFDAE0DEBFF4
:100B0000CDBF11E0A0E0B1E0EEEAFDE402C0059047
:100B10000D92A439B107D9F723E0A4E9B1E001C0EF
:100B20001D92A337B207E1F738D20C94D52668CAD4
:100B30001F920F920FB60F9211242F933F934F9352
:100B40005F936F937F938F939F93AF93BF93EF9335
:100B5000FF9381E080931503E0915A03F0915B03CA
:100B60000480F581E02D80E00995109285001092B7
:100B70008400FF91EF91BF91AF919F918F917F91F1
:100B80006F915F914F913F912F910F900FBE0F90FA
:100B90001F901895CF93DF93E0915A03F0915B0378
:100BA0000480F581E02D81E20995C82FE0915A0378
:100BB000F0915B030280F381E02D82E00995909132
:100BC0001703892F81708093530393FB882780F943
:100BD0008093580394FB882780F98093570395FBF3
:100BE000882780F98093550396FB882780F98093A6
:100BF0005403991F9927991F909356038FE99FE0FB
:100C00000197F1F700C00000CF3F51F4E0915A0383
:100C1000F0915B030480F581E02D80E00995BCCF65
:100C2000C03F08F0B9CFDF91CF910895809159036B
:100C3000893721F0833311F08F3749F491E0909395
:100C40005203893759F481E080935103089510923B
:100C500052038337C1F3893041F4F5CF982F9F7B3E
:100C6000933389F38F37B9F7EECF8251823058F33F
:100C7000109251030895CF9380915303811105C0C1
:100C80008091520381110EC032C0E0915A03F0915D
:100C90005B030480F581E02D80E009958F3F81F7AB
:100CA0008EEFD7C0E0915A03F0915B030480F58189
:100CB000E02D82E00995E0915A03F0915B030280F8
:100CC000F381E02D8DE00995EFEAF4E03197F1F73B
:100CD00000C00000803F08F0BCC0E7E1F3E0A8E0FE
:100CE000B3E081918D9383E0E332F807D1F7E0918F
:100CF0005A03F0915B030480F581E02D81E00995B2
:100D0000E0915A03F0915B030280F381E02D8DE0C6
:100D10000995C82F803F98F5809159038C1781F071
:100D2000E0915A03F0915B030480F581E02D80E0AF
:100D3000099530DF8FEF90E090932803809327038D
:100D400080913603882321F080915103811119C0CD
:100D500020912703309128032115310539F02150C6
:100D6000310930932803209327038FD1E0915A0350
:100D7000F0915B030480F581E02D80E009958C2FD4
:100D800068C09091140380912303981304C080914C
:100D900094018823E9F2E0915A03F0915B03048007
:100DA000F581E02D8CE10995E0915A03F0915B0308
:100DB0000480F581E02D809123030995E0915A0389
:100DC000F0915B0381E090912303911101C080E0D9
:100DD0000480F581E02D81950995E0915A03F09109
:100DE0005B030480F581E02D81E10995E0915A03D0
:100DF000F0915B030480F581E02D8CE10995E09191
:100E00005A03F0915B030480F581E02D8091140377
:100E10000995E0915A03F0915B0381E090911403EE
:100E2000911101C080E00480F581E02D8195099544
:100E3000E0915A03F0915B030480F581E02D84E199
:100E4000099580911403909123038927809394013D
:100E50007FCFCF9108950FDF90915303911128C058
:100E6000803FD0F09091180320911703922398238C
:100E70009F3F29F08F3F19F481E08093530381E075
:100E8000809356038DE0E9E2F3E0A6E1B3E0019040
:100E90000D928A95E1F719C09DE0E6E1F3E0A9E241
:100EA000B3E001900D929A95E1F7809359030DC03C
:100EB0009DE0E9E2F3E0A6E1B3E001900D929A959E
:100EC000E1F7803F10F41092530390915303809107
:100ED0002503992369F090911703811105C081E0E2
:100EE00080932503906201C09F7D909317030BC0F0
:100EF000882349F0109225034DDE8FEF90E0909308
:100F00002803809327038091170380933B038091EC
:100F1000180380933C038091190380934E038091C2
:100F20001A0380933E0380911B0380933F039091AB
:100F30001C039093440380911D0380934003809190
:100F40001E038093410380911F03809345032091EA
:100F50005903293741F02091200320934303209126
:100F600021032093420320915203211104C0909346
:100F70001203809313038091220380933D0356DE76
:100F800080913A03833318F010923A0303DE809184
:100F90003A038F5F80933A0308951092530310929F
:100FA00025031092940110923A038FEF90E09093F2
:100FB00028038093270380E88093610010926100EA
:100FC00085B7806885BF85B7806885BF1AB817B8B0
:100FD00014B88FEF8BB988B985B99FD10E94CF25FE
:100FE0008091D80080628093D80089B58D7F89BDBB
:100FF0008091D8008F778093D8001CBC1092CA00D3
:101000001092C8001092C90010927A008091BC0022
:101010008B7F8093BC001092C000109291001092C0
:10102000900015BC14BC109281001092800089D1F0
:101030008823E9F30E94972590935B0380935A03DA
:10104000DC01ED91FC9109951092950110929601A9
:1010500010929701109298011092990110929A01A2
:1010600010929B0110929C0147D1E0915A03F0919C
:101070005B030480F581E02D80E00995FCDD803F75
:10108000E8F73AD1E8DE55D1FCCF80913803982FAC
:101090009D7F21E0993209F020E091E0382F3F7EDA
:1010A000353009F090E0922B11F4853271F5809182
:1010B000590331E0803109F030E091E0833209F0EA
:1010C00090E0392B91E08F3109F090E0932B31E0E3
:1010D0008F3209F030E0392B21E0813409F020E033
:1010E000232B91E0893709F090E0922B09F099C009
:1010F000982F9F7D933509F494C0893009F491C0ED
:10110000877F833109F09FC08CC021E0893109F0CD
:1011100020E091E08F3209F090E0922B21F4982F9B
:101120009B7F933181F580915903982F977F31E010
:10113000933009F030E0982F9F7E985021E0923054
:1011400008F020E0232B91E0382F3B7F313209F06B
:1011500090E0922B31F4883221F08351833008F0F3
:1011600072C0E0915A03F0915B030480F581E02D99
:1011700085E20995E0915A03F0915B030480F581C3
:10118000E02D83E05FC0833209F05DC08091590398
:101190009CEE980F21E0923008F020E091E038EECC
:1011A000380F323008F090E0922B21E0382F377F53
:1011B000333009F020E0292B91E0382F3B7F31328A
:1011C00009F090E0922B19F48F7D883021F5E091A1
:1011D0005A03F0915B030480F581E02D84E20995C8
:1011E000E0915A03F0915B030480F581E02D84E0E7
:1011F0000995E0915A03F0915B030480F581E02D9D
:1012000085E20995E0915A03F0915B030480F58132
:10121000E02D81E0099580915903863311F08A31E0
:1012200091F4E0915A03F0915B030480F581E02D85
:1012300084E20995E0915A03F0915B030480F58103
:10124000E02D84E00994089540913F03909141037B
:1012500021E09E3408F020E081E04E3408F080E088
:10126000282B80914003222341F08E3420F03091CE
:101270003E033E3410F487E03CC031E0933B08F479
:1012800030E091E0433B08F490E0932B41F08E3442
:1012900020F030913E033E3410F485E02AC0222332
:1012A00041F0833B20F430913E03333B10F081E06A
:1012B00020C0992341F0833B20F430913E03333B1F
:1012C00010F083E016C030913E038E3410F03E34AF
:1012D00010F486E00EC0833B10F4333B10F082E044
:1012E00008C0222319F010923D030895992319F0A4
:1012F00084E080933D03089510923C0310923B03D9
:101300008FE080933D0380E8809341038093400306
:1013100080933F0380933E03089514BEA89588E10F
:101320000FB6F89480936000109260000FBEF8949E
:101330000895E0914F03F09150030280F381E02D76
:101340000994CF9310923603109237031AB817B846
:1013500014B8CFEFCBB9C8B9C5B941D490935003F5
:1013600080934F03DC01ED91FC910995E0914F03CF
:10137000F09150030480F581E02D099580933803A6
:10138000882331F081E080933603809337037CC05B
:101390001AB817B814B8CBB9C8B9C5B90E94B023E8
:1013A0009093500380934F03DC01ED91FC910995DC
:1013B000E0914F03F09150030480F581E02D0995F1
:1013C00080933803811160C0C3B1CF3F31F083B146
:1013D0008F3509F0CDC02ED5D4C01AB817B814B8BF
:1013E000CBB9C8B9C5B90E94291E90935003809308
:1013F0004F03DC01ED91FC910995E0914F03F091D1
:1014000050030480F581E02D099580933803811104
:101410003BC01AB817B814B8CBB9C8B9C5B90E943F
:101420007F159093500380934F03DC01ED91FC9165
:101430000995E0914F03F09150030480F581E02D70
:1014400009958093380381111CC01AB817B814B8D5
:10145000CBB9C8B9C5B90E9449199093500380937C
:101460004F03DC01ED91FC910995E0914F03F09160
:1014700050030480F581E02D09958093380388237B
:1014800029F081E08093360391E091C01AB817B833
:1014900014B8CBB9C8B9C5B90E943A1B9093500390
:1014A00080934F03DC01ED91FC910995E0914F038E
:1014B000F09150030480F581E02D09958093380365
:1014C0008111E2CF1AB817B814B8CBB9C8B9C5B9E9
:1014D0000E9414209093500380934F03DC01ED9100
:1014E000FC910995E0914F03F09150030480F58140
:1014F000E02D0995809338038111C6CF1AB817B82B
:1015000014B8CBB9C8B9C5B90E949C2290935003B6
:1015100080934F03DC01ED91FC910995E0914F031D
:10152000F09150030480F581E02D099580933803F4
:101530008111AACF1AB817B814B8CBB9C8B9C5B9B0
:101540000E946B249093500380934F03DC01ED9134
:10155000FC910995E0914F03F09150030480F581CF
:10156000E02D099580933803882309F430CF8CCF80
:101570001AB817B814B88FEF8BB988B985B90E941B
:10158000D8209093500380934F03DC01ED91FC91A0
:101590000995E0914F03F09150030480F581E02D0F
:1015A00009958093380391E0811101C090E0892F63
:1015B000CF91089508958091560380939F011092D2
:1015C000A4011092A5011092A3011092A20188E13A
:1015D00084B98FEF85B98FE68CBD08956EBD0DB4CB
:1015E00007FEFDCF882371F08091A501811104C011
:1015F0008AE28A95F1F700C02C9885E08A95F1F788
:1016000000002C9A189902C08EB5089580E00895C4
:10161000CF93C82F6091400381E0E0DF81508E3F7F
:1016200038F48FEA94E00197F1F700C00000C3DFBF
:101630006091410381E0D2DF60913E0381E0CEDF23
:1016400060913F038C2FCF91C9CFCF9380E194EA73
:10165000189B07C025E82A95F1F70000019700972D
:10166000B9F787EC90E00197F1F700C0000083B173
:10167000C82FC17080FD0EC08FE891E00197F1F78F
:1016800000C000008FE99FE00197F1F700C0000063
:10169000189903C01CBCC0E023C060E080E09EDF5E
:1016A0006FEF80E09BDF8130D1F46FEF97DF61E473
:1016B00081E094DF6AE581E091DF6FEF81E08EDF0A
:1016C0006FEF81E08BDF95E39A95F1F700008CB521
:1016D0008F7B8CBD84B1877E84B9C7E101C01CBCFF
:1016E0008C2FCF9108951F93CF93DF93189BFECF3C
:1016F0008AEB98E8189B06C001970097D9F788EC09
:101700008093A20180913D03882309F464C2823052
:1017100009F463C2843049F0863089F0813089F061
:10172000DFEF833021F4DFE90DC0DFEB0BC0853044
:1017300011F4DFE307C0873029F4DFE603C0DFE7F9
:1017400001C0DFEC80913B0384FDDE7F85FDD77F08
:1017500090913C0396FDDD7F97FDDB7F80FD02C00D
:10176000CFEF01C0CFEB81FDCF7D82FDCF7783FD31
:10177000CF7E86FDCB7F87FDC77F90FDCE7F91FD1D
:10178000CD7F8CB580648CBD84B1886184B9809133
:10179000A20187FD10DF8091A2018F5F8093A201DB
:1017A0006FEF81E01BDF813009F007C21092A201C8
:1017B0008091A301813009F04AC163EF0FDF182F38
:1017C0006AE581E00BDF812F90E0FC01E054F10934
:1017D000E031F10508F0F1C1EA5AFF4F0C94B92647
:1017E0006D2F81E0FBDE8093140380919D0188239F
:1017F00031F0815080939D016C2F81E02AC080914F
:101800009E01882331F0815080939E016C2F80E0EF
:1018100029C08091A5018230C9F46C2F81E0DEDE01
:101820008093230381E0F4DE8091A5018230E9F406
:10183000C8E0D3E0699181E0D1DE83E0C331D8070D
:10184000C9F76091130380E0C9DE0FC0813039F41D
:101850006C2FC4DE8093230380E0DADE06C08111A2
:1018600004C06C2FBBDE809323038091A1018F5FA6
:101870008093A1018B3008F4A0C11092A1011092B5
:10188000A3019BC160E081E0A9DE8093A3018130C8
:1018900099F48091A501823011F0C4E007C0CCE03A
:1018A00060E081E09BDEC150D9F7F7CF60E081E0D6
:1018B00095DEC150D9F7A6C060E081E08FDE8A35A1
:1018C00061F460E081E08ADE60E081E087DE60E074
:1018D00081E084DE60E080E081DE8091A40180937D
:1018E000A5016BC160E081E079DE60E081E076DE39
:1018F00062E010C081E080939E019091A40191115B
:1019000002C08093A4016FEF81E068DE6FEF81E099
:1019100065DE63E081E062DE60E081E05FDE60E082
:1019200081E05CDE6AE56FC060E081E057DE8093B5
:10193000A40180919F0181111092A401C4E060E094
:1019400081E04CDEC150D9F75DC081E080939E01FB
:1019500080919F01882311F060E007C080915203BD
:10196000882311F063E001C061E081E037DE62E0CE
:1019700081E034DE61E080919F01811160E081E0CF
:101980002DDE62E027C060E081E028DE811102C028
:10199000CAE001C0C4E160E081E020DE61E081E0F6
:1019A0001DDECA3011F462E001C061E081E016DEA4
:1019B00061E0CA3009F460E081E010DE6C2F23C0E2
:1019C00060E081E00BDE60E081E008DE62E081E063
:1019D00005DE60E081E002DE61E012C060E081E0EF
:1019E000FDDD811102C0C4E001C0C7E060E081E01C
:1019F000F5DD60E081E0F2DD6C2F81E0EFDD60E09D
:101A000081E0ECDD60E080E0E9DDD7C060E081E00E
:101A1000E5DD61E081E0E2DD6FEF81E0DFDD6FEFCA
:101A200081E0DCDD6FEF81E0D9DD6FEFECCF81E0AD
:101A300080939D0182E08093A40160E081E0CEDD8F
:101A4000C4E060E081E0CADDC150D9F7DBCF81118D
:101A5000B4C08091A501882381F0909159039937F2
:101A600021F4823061F063E70FC0933351F09F3768
:101A700051F09335C1F763E507C061E405C069E73C
:101A800003C063E201C063EE9091A001891729F0C1
:101A900090919E019E5F90939E018093A00181E0B2
:101AA0009DDD182F6AE581E099DD6D2F81E013340B
:101AB00071F594DD8093A301811102C060E025C01F
:101AC00080919D0181112AC080919E01811130C0B9
:101AD0008091A501823009F04AC06C2F81E07EDD43
:101AE0008093230381E094DD8091A501823009F089
:101AF0004DC0C8E0D3E0699181E070DD83E0C3317F
:101B0000D807C9F76091130380E068DD3FC066DD48
:101B10008093140380919D01882331F0815080933C
:101B20009D016C2F81E026C080919E01882331F0B9
:101B3000815080939E016C2F80E025C08091A5018B
:101B40008230A9F46C2F81E049DD8093230381E08A
:101B50005FDD8091A5018230C9F4C8E0D3E06991CE
:101B600081E03CDD83E0C331D807C9F7CBCF8130BA
:101B700039F46C2F33DD8093230380E049DD06C008
:101B8000811104C06C2F2ADD8093230340915603FA
:101B9000242F30E080919F0190E02817390769F0E9
:101BA00040939F0181E09091A501911180E0809385
:101BB000A5018093A0018093A40185E38A95F1F7A4
:101BC00000008CB58F7B8CBD84B1877E84B9DF919A
:101BD000CF911F910895DFEEB5CDDFEDB3CD80E05D
:101BE00091E00895089581E08093A60108951092F0
:101BF000A6018091A6018823E1F389E1089510925E
:101C0000A6018091A6018823E1F38FE99FE0019767
:101C1000F1F700C0000085E1E7EAF1E0DF011D9285
:101C20008A95E9F780E88093AA018093A9018093BF
:101C3000A8018093A70180913E0392E9980F943206
:101C400010F08093A7018091400392E9980F94329D
:101C500010F08093A80180913F0392E9980F94328D
:101C600018F080958093A9018091410392E9980F23
:101C7000943218F080958093AA018CE08093AB0198
:101C800088E08093AC018FEF8093AD018093AE012B
:101C900080913B0387FF03C09DEF9093AD0185FFCB
:101CA00005C09091AD019B7F9093AD0190914E0343
:101CB00092FF05C09091AD01977F9093AD0184FF95
:101CC00005C09091AD019F7E9093AD0186FF05C048
:101CD0009091AD019F7D9093AD0190913D03943023
:101CE00021F49091AD019F7B05C0923031F4909129
:101CF000AD019F779093AD0109C0911102C09EEF95
:101D000003C0963019F49DEF9093AE0120913C03EF
:101D100021FF05C09091AE019B7F9093AE0120FF03
:101D200005C09091AE019F779093AE0180FF05C0F2
:101D30009091AE019F7B9093AE0181FF05C0909181
:101D4000AE019F7E9093AE0182FF05C09091AE01DF
:101D50009F7D9093AE0183FF05C08091AE01877F88
:101D60008093AE0180915C03811145C08091A801F0
:101D7000869586958695282F2871B8E02B9F90012F
:101D800011249091A70196959695922B9093A70177
:101D9000867020E2829FC00111249091A90196953E
:101DA0009695982B9093A80180911203869586951D
:101DB0008695282F287194E0299F900111249091F5
:101DC000AA01969596959695922B9093A901A0E2DB
:101DD0008A9FC0011124909113039695969596952C
:101DE000982B9093AA018091AD018093AB018091D3
:101DF000AE018093AC0165E187EA91E014C30F93D3
:101E00001F938BB183608BB98AB18C7F8AB985E1CE
:101E1000E7EAF1E0DF011D928A95E9F703EF1DE0A3
:101E200020E131E045E1BF0180E391E003D31F9160
:101E30000F9160C388E091E008952F923F924F92F6
:101E40005F926F927F928F929F92AF92BF92CF924A
:101E5000DF92EF92FF920F931F93CF93DF93CDB753
:101E6000DEB7E2970FB6F894DEBF0FBECDBF1DA65A
:101E70001CA6A12CB12C78E0E72EF12CDE015196A6
:101E800080E090E02CA53DA52453354FF901E80FE3
:101E9000F91FE491ED93019686309105B9F7DE01C3
:101EA000119680E090E0FC01E152FD4FE081F0E00E
:101EB000E453FF4FE491ED9301968A30910599F731
:101EC000AB817E818989872790E04A2F47702A85D8
:101ED00028ABFD819701241B31093AAB29AB9C014A
:101EE00009A802C0220F331F0A94E2F702C0959599
:101EF00087954A95E2F7822B38A9831B8F278B871A
:101F0000B9814A814EA78A89842790E04B2F477078
:101F1000E8859701241B31093AAB29AB9C0109A83C
:101F200002C0220F331F0A94E2F702C095958795ED
:101F30004A95E2F7822B871B8E278C873F813FA72C
:101F40002B89232730E069856770C701861B9109BB
:101F5000A901082E01C0440F0A94EAF7062E02C018
:101F6000359527950A94E2F7242B2A1B2B272D87DA
:101F70002C892F2730E04E2F47704BA79C81A7015B
:101F8000BBA54B1B51095AAB49ABA90109A802C01B
:101F9000440F551F0A94E2F702C035952795BA956C
:101FA000E2F7242B291B2A272E872D895EA52527BA
:101FB00030E0AFA5A770A7014A1B51095AAB49AB46
:101FC000A90109A802C0440F551F0A94E2F75AABB1
:101FD00049AB02C035952795AA95E2F7242B291B1A
:101FE0002F272F872E892E2730E0F90102C0EE0F10
:101FF000FF1F8A95E2F7CF0102C0359527956A95B4
:10200000E2F7822B871BF8A98F27888B46E050E0E8
:1020100069ED72E0CE010B960E94BF2695012F5FFD
:102020003F4F892B79F059012CA53DA52A5F3F4FE1
:102030003DA72CA737E0A316B10409F01FCF1092DB
:10204000EA0280C1822F9091DD02122F00E0090F79
:10205000111D04531F4FF8010491F2E0AF0EB11CA3
:102060009091E202FA2DEE27E90FF11DE453FF4FA4
:10207000E491E027E093D1029091DB02782E612C6D
:10208000690E711C930124533F4FF90164909091A4
:10209000E402FA2DEE27E90FF11DE453FF4FE4911E
:1020A000E625E093D2029091DE02582E412C490E93
:1020B000511C920124533F4FF90144909091E60244
:1020C000FA2DEE27E90FF11DE453FF4FE491E425CB
:1020D000E093D3029091D902D82EC12CC90ED11C05
:1020E000960124533F4FF90194912091E102FA2D7A
:1020F000EE27E20FF11DE453FF4FE491E927E0934F
:10210000D4029091DA02982E812C890E911C9401B0
:1021100024533F4FF90194912091E302FA2DEE27C9
:10212000E20FF11DE453FF4FE491E927E093D5025C
:102130009091DC02888F1F8A2F89388D290F311DDD
:1021400024533F4FF90194912091E802FA2DEE2794
:10215000E20FF11DE453FF4FE491E927E093D6022B
:102160009091DF028A8F198E298D3A8D290F311DAA
:1021700024533F4FF90194912091E502FA2DEE2767
:10218000E20FF11DE453FF4FE491E927E093D702FA
:102190009091E0028C8F1B8E2B8D3C8D290F311D71
:1021A00024533F4FF90194912091E702FA2DEE2735
:1021B000E20FF11DE453FF4FE491E927E093D802C9
:1021C0009091D9028E8F1D8E2D8D3E8D290F311D40
:1021D00024533F4FF90194912091E002FA2DEE270C
:1021E000E20FF11DE453FF4FE491E927E093C902A8
:1021F0009091DE0288A31F8E2F8D38A1290F311DEB
:1022000024533F4FF90194912091E302FA2DEE27D8
:10221000E20FF11DE453FF4FE491E927E093CA0276
:102220009091DC028AA319A229A13AA1290F311D9C
:1022300024533F4FF90194912091DF02FA2DEE27AC
:10224000E20FF11DE453FF4FE491E927E093CB0245
:102250009091DB028CA31BA22BA13CA1290F311D65
:1022600024533F4FF90194912091E802FA2DEE2773
:10227000E20FF11DE453FF4FE491E927E093CC0214
:102280009091DD028EA31DA22DA13EA1290F311D2B
:1022900024533F4FF90194912091E602FA2DEE2745
:1022A000E20FF11DE453FF4FE491E927E093CD02E3
:1022B0009091DA0288A71FA22FA138A5290F311DFE
:1022C00024533F4FF90194912091E702FA2DEE2714
:1022D000E20FF11DE453FF4FE491E927E093CE02B2
:1022E0009091E2028AA719A629A53AA5290F311DC6
:1022F00024533F4FF90194912091E402FA2DEE27E7
:10230000E20FF11DE453FF4FE491E927E093CF0280
:102310009091E102382E212C290E311C9101245379
:102320003F4FF90124908091E502FA2DEE27E80F46
:10233000F11DE453FF4FE491E225E093D00281E0E8
:102340008093EA02E2960FB6F894DEBF0FBECDBFCF
:10235000DF91CF911F910F91FF90EF90DF90CF9081
:10236000BF90AF909F908F907F906F905F904F90B5
:102370003F902F900895863028F4E091EB02F09181
:10238000EC020994089590EC980F963098F480E44C
:1023900090E029E430E0F901E81BF90BDC01A753D8
:1023A000BE4F4C91E152FD4F40830196863491051A
:1023B00091F708959AEB980F9630C8F480910F0228
:1023C0008093E202809110028093E10280911102D9
:1023D0008093E002809112028093DF0280911302C9
:1023E0008093DE02809114028093DD02089594EBC5
:1023F000980F9430B8F4909115029093DC0290916C
:1024000016029093DB02909117029093DA0290915A
:1024100018029093D90270E0680F711D6035710544
:1024200009F40BCD0895462F50E0BC0189EC91E0F2
:102430000C94CC26EF92FF920F931F93CF93DF93D0
:1024400000D0CDB7DEB77C01CB011092E90210932A
:10245000EC020093EB02642F29833A83E4DF1092AD
:10246000B90286E0F701A7EBB1E001900D928A95E1
:10247000E1F786E0E7EBF1E0A3ECB2E001900D922A
:102480008A95E1F72981E22F3A81F32F80E290E0EB
:102490002191DC01A753BE4F2C9301968034910506
:1024A000B9F72FEF89E698E1215080409040E1F79D
:1024B00000C0000058985998509A8AB18C7F8AB908
:1024C0001092C8011092C70184EA8093BA0010925A
:1024D000B90088E48093B80081EC8093BC0010922E
:1024E0005C030F900F90DF91CF911F910F91FF90A0
:1024F000EF9008958091E902811109C08091BC009C
:1025000084608093BC0081E08093E9027894089510
:102510001F920F920FB60F9211242F933F934F9358
:102520005F936F937F938F939F93AF93BF93EF933B
:10253000FF938091B900887F803951F188F480370A
:1025400021F128F4803609F18836F9F0DEC08038B0
:10255000F9F0883809F4D9C0883709F0D6C015C019
:10256000803B09F498C038F4803A09F489C0883A6D
:1025700009F0CBC090C0803C09F4C5C0883C09F488
:10258000C2C0883B09F48EC0C0C01092C601BBC057
:102590008091C601882309F466C02091BB00809118
:1025A000C7019091C8018E3F910529F4233019F499
:1025B00081E080935C038091C7019091C801803FC6
:1025C000910589F4253511F02A3A69F41092EA024E
:1025D00086E0E7EBF1E0A3ECB2E001900D928A9582
:1025E000E1F71092C3018091C7019091C801892B36
:1025F00091F4243681F48091C401882361F086E04F
:10260000EDEBF1E0A3ECB2E001900D928A95E1F7D9
:1026100081E08093C3018091EA028823E1F0A091D8
:10262000C701B091C801E091C701F091C801E770FE
:10263000FF27E753FD4F8081E091C701F091C8016A
:10264000E770FF27EF52FD4F90818227890FA75334
:10265000BE4F8C934AC0E091C701F091C801E75387
:10266000FE4F208342C08091BB0090E09093C80150
:102670008093C70181E08093C6011092C50143C0D9
:102680006091C5018091C7019091C8019091C501E9
:10269000891B79DE38C08091C7019091C8016BDE3B
:1026A0001092C5018091EA02E091C701F091C80142
:1026B000E753FE4F8823B1F08081E091C701F0918C
:1026C000C801E770FF27EF52FD4F2081E091C7015D
:1026D000F091C801E770FF27E753FD4F9081821BFF
:1026E000892701C080818093BB008091C7019091B0
:1026F000C80101969093C8018093C7018091C501DC
:102700008F5F8093C50185EC01C085E88093BC0094
:10271000FF91EF91BF91AF919F918F917F916F91B9
:102720005F914F913F912F910F900FBE0F901F908F
:102730001895089510925D0357985F9A0895549ADA
:1027400057989BB19BB9811105C081E090E0A0E052
:10275000B0E01CC081E090E0A0E0B0E04F9B1FC063
:1027600000000196A11DB11D883E23E09207A1053E
:10277000B105A1F712C000000196A11DB11D811580
:1027800023E5920727E0A207B10539F04F99F3CF6F
:10279000883E9340A105B10511F48FEF089598E0AC
:1027A00080E0880F2BE02A95F1F700004F998160B7
:1027B0002CE02A95F1F70000915099F7803461F4EC
:1027C0008FE291E00197F1F700C0000089B18078B5
:1027D00080935D0380E4089508953AE03A95F1F717
:1027E00000C0579A5F9828E180E093E0A0E0B9E04C
:1027F000B7FF09C035E03A95F1F700005F9A35E17F
:102800003A95F1F708C035E13A95F1F700005F9A83
:1028100035E03A95F1F700005F98880F991FAA1FDD
:10282000BB1F215029F78AE08A95F1F700C057981D
:102830005F9A81E084CF2F923F924F925F926F9286
:102840007F928F929F92AF92BF92CF92DF92EF9240
:10285000FF920F931F93CF93DF93CDB7DEB76597AA
:102860000FB6F894DEBF0FBECDBF10925D0380E0BF
:1028700066DF8D8B811102C0B0DF8D8B412C512C16
:102880003201D301C201A66089839A83AB83BC83E2
:10289000D301C201AA608D839E83AF83B887D30121
:1028A000C201A96089879A87AB87BC87D301C2011F
:1028B000A5608D879E87AF87B88BD301C201A460C6
:1028C000898B9A8BAB8BBC8B730162016894E3F8A4
:1028D000530142016894A1F8689460F822242A9474
:1028E000312C9D899F3F09F4D8C09D89911102C068
:1028F00074DF8D8BA0E1AA95F1F780913D038630BE
:1029000019F4B301A2012FC0823019F4B501A4015A
:102910002AC0811103C0B701A60125C0843029F463
:1029200049895A896B897C891EC0853029F44D8577
:102930005E856F85788917C040E050E0BA01873026
:1029400029F449855A856B857C850DC0813029F431
:102950004D815E816F81788506C0833021F4498185
:102960005A816B817C8180913B0384FD606187FD8E
:10297000606286FD606481FD02C0606802C06068BC
:10298000716080FD726083FD746082FD786085FDFA
:10299000706180913E0390913F038101091B1109F1
:1029A000222717FD2095322F182B042B152B262BB1
:1029B000372B4091400350E060E070E0809141038C
:1029C000F101E81BF109CF01AA2797FDA095BA2FC5
:1029D000F0911203742F662755274427E0911303C3
:1029E0004E2B5F2BDC0199278827482B592B6A2B0C
:1029F0007B2B579A5F9880E237FF09C0F5E0FA9584
:102A0000F1F700005F9A95E19A95F1F708C0A5E10A
:102A1000AA95F1F700005F9AB5E0BA95F1F70000CA
:102A20005F98000F111F221F331F815029F780E28A
:102A300077FF09C0E5E0EA95F1F700005F9AF5E15C
:102A4000FA95F1F708C095E19A95F1F700005F9AC1
:102A5000A5E0AA95F1F700005F98440F551F661F87
:102A6000771F815029F7BD89B13469F480E1E5E130
:102A7000EA95F1F700005F9AF5E0FA95F1F70000AA
:102A80005F988150A1F785E08A95F1F7000057988B
:102A90005F9A81E054DE8D8B24CF80915D03882383
:102AA00019F09093140302C01092140365960FB6A8
:102AB000F894DEBF0FBECDBFDF91CF911F910F9174
:102AC000FF90EF90DF90CF90BF90AF909F908F904E
:102AD0007F906F905F904F903F902F90089580E08F
:102AE0002EDE99B120E12A95F1F7811106C04F9BA6
:102AF00004C097FD02C081E1089580E0089586E357
:102B000091E0089508951092610310926003579820
:102B10005F9A089520E22A95F1F7579A5F9894E01A
:102B20009A95F1F7000098E087FF05C05F9A2DE0C5
:102B30002A95F1F708C029E02A95F1F700005F9A7D
:102B400024E02A95F1F700005F98880F24E02A9589
:102B5000F1F7915049F784E08A95F1F757985F9A19
:102B600008953AE03A95F1F700C0579A5F9884E0EB
:102B70008A95F1F7000020E180E095E097FF05C01D
:102B80005F9A3DE03A95F1F708C039E03A95F1F7E0
:102B900000005F9A34E03A95F1F700005F98880FE3
:102BA000991F34E03A95F1F7215041F728E081E090
:102BB00090E087FF05C05F9A3DE03A95F1F708C0C5
:102BC00039E03A95F1F700005F9A34E03A95F1F771
:102BD00000005F98880F991F34E03A95F1F7215073
:102BE00041F784E08A95F1F757985F9A08955798CE
:102BF0009BB19BB98F3F19F44F99FECF14C041E0B0
:102C000050E060E070E08130A9F44F9B10C00000FC
:102C10004F5F5F4F6F4F7F4F403D37E05307610578
:102C2000710599F704C041E050E060E070E028E0F1
:102C300090E026C08230D9F44F9BF9CF00004F5F5F
:102C40005F4F6F4F7F4F403990ED590793E0690711
:102C5000710591F7ECCF00004F5F5F4F6F4F7F4FD3
:102C6000403930ED530733E06307710501F34F99A5
:102C7000F2CFDDCF3AE03A95F1F700C0215041F0B4
:102C8000990F39E03A95F1F74F9BF4CF9160F2CF6D
:102C9000811107C040325E446105710589F0892FBA
:102CA0000895813031F4403D574061057105B9F711
:102CB00007C08230A1F74039504D6340710579F764
:102CC0008EEF089582E093DF9AE19A95F1F700C0C4
:102CD00099B1813031F4892F8078803811F483E202
:102CE000089580E0089580915603882309F49CC0DC
:102CF0008091590331E0833209F030E091E0803176
:102D000009F090E0392B91E08F3209F090E0932B9D
:102D100031E0813409F030E0392B21E0893709F0C6
:102D200020E0232B91E0382F3F7D333509F090E0F0
:102D3000922B21F48B7F8B3109F048C080913B03AB
:102D4000982F9C709C3021F4806180933B033EC09F
:102D500082FF04C08B7F80933B03089583FF36C0BE
:102D6000982F977F90933B0380913D03863011F419
:102D7000946013C0823021F480913C0382601BC0B8
:102D8000811104C080913C03816015C0843011F42E
:102D9000986003C0873021F4956090933B0341C055
:102DA000853021F480913C038C6005C0813031F482
:102DB00080913C03836080933C0333C0833089F56A
:102DC00080913B038A6080933B032BC080913D033D
:102DD0008630B9F08230E1F0811103C010923F03D8
:102DE00020C0843021F48FEF80933F031AC08730D6
:102DF00019F410923F0305C0853031F48FEF8093B2
:102E00003F0310923E030DC0813021F410923F0326
:102E10008FEF05C0833029F48FEF80933F038093B9
:102E20003E038FEF80933D030895DF92EF92FF9270
:102E30000F931F93CF93DF931F92CDB7DEB78BB164
:102E40008F7C8BB925E32A95F1F700008FEFEFEC2B
:102E5000EE2EFFE2DF2E1FE70FEFFF24F39420EDAD
:102E600037E090E049B1440F440B9F5F9423215019
:102E700031092115310509F403C2953098F31092F8
:102E80005F0310925E0310926303109262038983C2
:102E90002ADF90913D038981963031F420915E03C1
:102EA00030915F03326037C0923031F420915E037D
:102EB00030915F0331602FC0911106C020915E03F5
:102EC00030915F03386027C0943031F420915E0365
:102ED00030915F0334601FC0953031F420915E0360
:102EE00030915F03366017C0973031F420915E0354
:102EF00030915F033A600FC0913031F420915E034E
:102F000030915F03396007C0933049F420915E032C
:102F100030915F03356030935F0320935E0390919F
:102F20003B0394FF09C020915E0330915F03306240
:102F300030935F0320935E0397FF09C020915E03E7
:102F400030915F03206130935F0320935E0396FF0F
:102F500009C020915E0330915F03206230935F03CC
:102F600020935E0340913C0340FD04C02091410347
:102F7000243648F420915E0330915F03286030933B
:102F80005F0320935E0393FD04C020914103273922
:102F900048F020915E0330915F03246030935F031B
:102FA00020935E0392FD04C020914003243648F430
:102FB00020915E0330915F03226030935F03209382
:102FC0005E0341FD04C020914003273948F0209161
:102FD0005E0330915F03216030935F0320935E03B3
:102FE00091FF09C020915E0330915F0330683093F8
:102FF0005F0320935E0390FF09C020915E03309130
:103000005F03306430935F0320935E0395FF09C034
:1030100020915E0330915F03306130935F03209312
:103020005E0390913E03903D10F0E0923E0390913C
:103030003E039F3210F4D0923E0390913F03903DA7
:1030400010F0E0923F0390913F039F3210F4D09232
:103050003F0320913E03205830E0322F22279091E9
:103060003F03412F491B242B3093630320936203BA
:10307000BEDD813009F051C08AE08A95F1F700C0C9
:10308000579A5F9894E09A95F1F7000020E18091BB
:103090005E0390915F0397FF05C05F9AEDE0EA95AC
:1030A000F1F708C0F9E0FA95F1F700C05F9A34E053
:1030B0003A95F1F700005F9880915E0390915F036D
:1030C000880F991F90935F0380935E032150F9F658
:1030D00020E1809162039091630397FF05C05F9A9E
:1030E0004DE04A95F1F708C089E08A95F1F700C0F4
:1030F0005F9A94E09A95F1F700005F9880916203DF
:1031000090916303880F991F9093630380936203E8
:103110002150F9F600C000C084C0811103C021DD38
:1031200081E09DCE8F3F49F40F90DF91CF911F91A9
:103130000F91FF90EF90DF9014CD823009F075C0B1
:10314000E3E0F1E03197F1F700C000008091600307
:10315000882309F452C0FAE2FA95F1F700C0579AB1
:103160005F9822E02A95F1F7000080E091E020E8E6
:1031700027FF0AC032E03A95F1F700005F9A4DE070
:103180004A95F1F7000008C0E8E0EA95F1F700C0C1
:103190005F9AF5E0FA95F1F75F98269529F032E00D
:1031A0003A95F1F700C001C020E80197009701F7B8
:1031B00000C000C0000088E098EB97FF05C05F9A50
:1031C0004DE04A95F1F708C0E9E0EA95F1F7000013
:1031D0005F9AF4E0FA95F1F700005F98990F24E008
:1031E0002A95F1F7815049F734E03A95F1F700005C
:1031F00057985F9A1092600393CF40E24A95F1F797
:10320000579A80E191E05F9AE4E0EA95F1F75F98E0
:10321000FCE0FA95F1F701970097A9F725E02A95C8
:10322000F1F7000057985F9A7BCF833031F587EF35
:1032300090E00197F1F700C0000080E0D8DCE8EDF5
:10324000FFE03197F1F7803821F4F092600388EBCA
:1032500012C08E3F11F481EE0EC08B3111F480E06C
:103260000AC0813021F4009314038BEE04C0811155
:1032700057CF109214034EDC53CF8E3F09F050CF3E
:103280000F90DF91CF911F910F91FF90EF90DF9002
:1032900008958EE391E0089508958AB18C708AB9FB
:1032A0008BB1836F8BB946983E981092EF021092C3
:1032B000F00285E0809381001092800082E084BD5E
:1032C00080936E008FEF87BD1092EE020895469AAC
:1032D0008AB1806C8AB98BB18F7C8BB98FE99FE002
:1032E0000197F1F700C0000089B180738033D9F5F0
:1032F00089B180738033B9F58BB180638BB9369B0C
:1033000013C08FEF9CE7369B04C001970097D9F755
:103310002AC02FE784ED90E0215080409040E1F7F3
:1033200000C00000369921C08FEF9CE7369904C099
:1033300001970097D9F717C08FEA94E00197F1F74A
:1033400000C00000579895E09A95F1F700004F9B58
:103350000AC0549A5C9895E19A95F1F700005C9A3E
:103360005498369B02C080E0089585E208951F922C
:103370000F920FB60F9211248F93889A85E08A9549
:10338000F1F70000889883EF809358018BB981E0B2
:103390008093EE028091EF02882319F082E08093FF
:1033A000EE028F910F900FBE0F901F90189583EF34
:1033B000809359018093580180935701809356015F
:1033C0008AB1836F8AB98091EE02882321F08150FF
:1033D0008093EE0298C085B5856085BD7894809114
:1033E0003B0385FF05C0909159019E7F9093590141
:1033F00080FF05C0909159019D7F90935901909154
:1034000059019F739093590187FD02C093EF01C04A
:1034100092EF9093580181FF05C0809158018D7FF4
:10342000809358010E94240980913D039FEF980FDB
:10343000933078F490915601906890935601909152
:1034400059019F7790935901909158019F779093DC
:1034500058019BEF980F933090F49091560190642F
:1034600090935601909159019F7B909359019091AF
:1034700058019F7B90935801873099F402C08111C5
:1034800010C090915601906190935601909159010E
:103490009F7E90935901909158019F7E909358017F
:1034A00002C0813071F38350833078F480915601EB
:1034B000806280935601809159018F7D80935901DC
:1034C000809158018F7D8093580180913B0386FF46
:1034D00005C0909157019F7E9093570183FF05C0CF
:1034E000909157019F7D9093570182FF05C0909165
:1034F00057019F7B9093570184FF05C0809157012E
:103500008F77809357019091F0028091590192300A
:1035100059F490915801F92F369BFECFFBB9F82F43
:103520003699FECFFBB934C0933009F48BB9909132
:103530005901F92F3699FECFFBB92091F002809105
:103540005801263009F020C0E92FEF70E093ED021A
:10355000F82F369BFECFFBB9F92F3699FECFFBB97A
:10356000F82F369BFECFFBB9FE2F3699FECFFBB965
:1035700090915701F92F369BFECFFBB990915601E0
:10358000F92F3699FECFFBB9F82F369BFECFFBB94A
:10359000A99A16BC15BCF89408958091F002811187
:1035A00052C01092EF028BB18F738BB92FE784ED6D
:1035B00090E0215080409040E1F700C000008FEF84
:1035C0009CE736990BC0369903C001970097D9F74D
:1035D00082E024C00197009709F449C03699FACFD8
:1035E0008FEF9CE7369903C001970097D9F781E0E8
:1035F00090E0369B06C0019681152DE79207C9F72A
:1036000004C0893E23E0920710F083E007C09C01CC
:10361000235031092D34310520F486E08093F002E7
:103620000BC0815591098739934030F483E0809332
:10363000F00281E08093EF028FE39FE10197F1F7C1
:1036400000C00000089581E086BB80E69AEE90936A
:10365000850080938400ABDE8091EF028111A7DEAC
:103660008FEA94E00197F1F700C00000B099109242
:10367000F002089586E491E0089508951092F10211
:1036800081E08093F202579856988AB18F7C8AB96C
:103690003E985E9A5F9A8BB180638BB9469A089583
:1036A0004E9BFECF8FEC97E00197F1F700C0000032
:1036B0004F9B14C04E9912C04E9BFECF4F99FECF28
:1036C0008FE891E00197F1F700C000004F9B02C026
:1036D00080E001C08FE24F9903C0089580E0089513
:1036E00081E20895CF92DF92FF920F931F93CF93C1
:1036F000DF931F92CDB7DEB789830E942409909192
:103700003D038981992309F481C2943009F481C26F
:10371000963059F09230B1F09730B9F020E030E0B7
:10372000953031F420E630E012C020E430E00FC0E4
:10373000913019F420E930E00AC0933041F420EAD6
:1037400030E005C020E830E002C020E530E0909194
:103750003B0395FD286094FD24604091380341327D
:1037600091F591FD216090FD22606091420361110D
:103770000EC06091430361110AC04091560341118C
:103780002AC060913E0370E06115710531F19370BC
:10379000E1E0F0E011F0E0E0F0E0F195E195F10911
:1037A00091EE961B990F911D692F91FB67F992FB82
:1037B00066F993FB65F995FB63F996FB62F997FB54
:1037C00061F970E069C160E070E0E0E0F0E04F3284
:1037D00009F062C105C060E070E0E0E0F0E05CC1CB
:1037E00090FD216092FD226093FD316091FD326079
:1037F00096FD346097FD38604091F2029091560337
:103800004430C1F1911105C09091F1029F5F9093F6
:10381000F1029091F102933310F140913E0350E098
:103820004B305105CCF44091400350E04B305105F2
:103830009CF440913F0350E04B3051056CF44091B3
:10384000410350E04B3051053CF4909142039111FB
:1038500003C090914303911130681092F10244E645
:103860004093F60290EA9093F5024093F40290930D
:10387000F30212C13068992351F091E09093F20263
:103880003F77AFE3BCE91197F1F700C0000010915A
:10389000420390913B03D0905903111132C0109113
:1038A000430311112EC096FD03C0B5E4DB1205C021
:1038B00040E8409341034093400397FF05C040E830
:1038C00040933F0340933E0300913E031091400319
:1038D000A02FB0E0412F50E0A417B5071CF0102F27
:1038E000F12C02C0FF24F394C0903F0300914103E8
:1038F000AC2DB0E0402F50E0A417B50724F00C2DFC
:1039000002C000E8F12C4CEB4D0D423018F041E0C4
:103910004F2501C040E04170D42E4091F502401780
:1039200010F40093F5024091F602041710F400938E
:10393000F6024091F302411710F41093F302409104
:10394000F402141710F41093F402DD20A1F0A02F5C
:10395000B0E04091F50250E04E505109A417B50770
:103960000CF04EC14091F60250E0425F5F4F4A17A3
:103970005B070CF048C14091F7024017D0F4502F7C
:10398000541B452F593C08F040E0F1104695440F78
:10399000411D042E01FA47F902FA46F903FA45F9E6
:1039A00005FA43F906FA42F907FA41F950E04E7F69
:1039B00018C0401B493C08F040E0F1104695440F08
:1039C000411D542F41FB57F942FB56F943FB55F972
:1039D00045FB53F946FB52F947FB51F95160452F1E
:1039E00050E0DD20A1F0C12ED12CA091F302B0E077
:1039F0001E97CA16DB0614F05E6F3EC0A091F4025B
:103A0000B0E01E96AC15BD0514F05F6F35C0A091F7
:103A1000F802A117D0F4B12FBA1BAB2FB93C08F0B4
:103A2000A0E0F110A695AA0FA11D0A2E01FAA7F990
:103A300002FAA6F903FAA5F905FAA3F906FAA2F91A
:103A400007FAA1F95A2B5E7F17C0A11BA93C08F009
:103A5000A0E0F110A695AA0FA11D0A2E01FAA7F960
:103A600002FAA6F903FAA5F905FAA3F906FAA2F9EA
:103A700007FAA1F951605A2B0093F7021093F8024C
:103A80004D7F5D7F2227307FA92FAF7009F0326014
:103A900095FF04C0316002C040E050E0109138034F
:103AA0001F3219F008E0F02E02C0B0E1FB2E88238F
:103AB00041F083E893E04E9906C001970097D9F74B
:103AC000ABC04E9BFECF8BB180638BB900E081E031
:103AD00090E0DC01A223B323AB2B11F05D9801C071
:103AE0005D9ADC01AE23BF23AB2B11F05C9801C0C3
:103AF0005C9ADC01A623B723AB2B11F0469801C0DA
:103B0000469A880F991F4F99FECF1F3211F44F9B91
:103B1000FECF0F5F0F15E8F237FF6EC08091F20203
:103B2000813009F03DC0E5E0EA95F1F700008093AF
:103B3000F2028BE795E124E04E9907C04F9B20935A
:103B4000F20201970097C1F757C080E090E074E05F
:103B5000F5E0FA95F1F700006CE021E030E0A90112
:103B600048235923452B11F05D9801C05D9A220F1F
:103B7000331F4F99FECF615091F77093F2029C5F13
:103B80005D9A23E833E04E9906C021503109211592
:103B90003105C9F731C081152CE09207C9F62CC058
:103BA00085E08A95F1F7000081E08093F20280E1E0
:103BB00090E021E030E0B90164237523672B21F008
:103BC0005D9861E070E002C05D9AFBCF4F9B03C03F
:103BD0006F5F7F4FFBCF69397A4370F4220F331F39
:103BE0000197009741F7EFE9FFE03197F1F700C047
:103BF000000084E08093F2025D985C9846980CC0C7
:103C00004EEF50E0F0CE4FEF50E0EDCE20E130E04F
:103C10009ECD20E230E09BCD0F90DF91CF911F91A0
:103C20000F91FF90DF90CF900895559A549A3E9A45
:103C300080E090E057DD80913803813219F481E013
:103C400090E050DD87EC90E00197F1F700C00000B4
:103C500008958AE591E0089508955198599A3E98FB
:103C6000469A509A1092FA021092F902089570E062
:103C700090E06115710569F19B0128233923232BFD
:103C800011F0589A0AC0589808C0369917C02F5F8B
:103C90003F4F30936B0120936A0120916A0130916C
:103CA0006B01283840E9340780F308C0369B0EC00A
:103CB0002F5F3F4F30936B0120936A0120916A017F
:103CC00030916B01283840E9340780F37695679589
:103CD000D0CF58980895DF92EF92FF920F931F93E1
:103CE000CF93DF93D0903E03E0903F03F0904303E7
:103CF00080915603882329F01092FA021092F9025B
:103D00000AC08EEC8D0D873930F081E090E0909301
:103D1000FA028093F9028091F9029091FA022091BF
:103D20003D0330913B0340913C03019741F5243022
:103D300049F0222351F0223059F0263061F000E0A2
:103D400010E00BC000E014E008C000E018E005C07F
:103D500000E012E002C000E011E030FD106431FD2F
:103D6000106136FD106837FD106135FD006834FDC7
:103D7000006441FD006140FF37C0006235C025305E
:103D800009F404C1273009F404C1213059F023306B
:103D9000B1F02430B9F0C0E0D0E8211106C0C0E095
:103DA000D8E812C0C0E0D4E90FC0223019F4C0E056
:103DB000D4E80AC0263041F4C0E0D2E805C0C0E033
:103DC000D2E902C0C0E0D0E930FDD16031FDC06869
:103DD00037FDC06435FDC06234FDC06141FDC8607F
:103DE00040FF04C0C46002C0CBE7D1E020ED37E063
:103DF00080E0369902C08F5F01C080E090E19A9523
:103E0000F1F7215031092115310509F4C5C085307C
:103E100080F3509A20916A0130916B01283880E933
:103E2000380748F4369913C02F5F3F4F30936B012A
:103E300020936A01EFCF2838304949F4ADC0369B52
:103E40000EC02F5F3F4F30936B0120936A0120918A
:103E50006A0130916B01283880E9380780F380913E
:103E6000F9029091FA02019711F458980AC0589AF1
:103E700008C036990EC02F5F3F4F30936B012093DF
:103E80006A0120916A0130916B01283890E9390765
:103E900080F381E090E090936B0180936A01D7FFFB
:103EA00002C0589A01C0589885E18A95F1F7000040
:103EB00036996AC060E48D2FDADE60E88C2FD7DE99
:103EC0002091F9023091FA02232B09F45DC060E8D9
:103ED00088E0CDDE60E88D2DCADE82E020916A01A7
:103EE00030916B01283890E9390788F436990FC072
:103EF0002F5F3F4F30936B0120936A01EFCF369BCA
:103F00000EC02F5F3F4F30936B0120936A012091C9
:103F10006A0130916B01283890E9390780F38150AC
:103F2000E9F660E88E2DA3DE82E020916A013091EF
:103F30006B01283890E9390788F436990FC02F5F54
:103F40003F4F30936B0120936A01EFCF369B0EC039
:103F50002F5F3F4F30936B0120936A0120916A01DC
:103F600030916B01283890E9390780F38150E9F6E8
:103F700060E88F2D7CDE68E082E079DE60E8812FEA
:103F800076DE60E8802F73DE589A06C0C0E0D2EA81
:103F90001BCFC0E0D4EA18CFDF91CF911F910F91D2
:103FA000FF90EF90DF90089581E090E090936B0197
:103FB00080936A0180916A0190916B01883820E9B1
:103FC000920720F4369907C00196F0CF88389049BF
:103FD00011F480E0089587E998E00197F1F700C0B7
:103FE00000003699F6CF81E090E090936B018093CA
:103FF0006A0180916A0190916B01883820E99207EB
:1040000020F4369905C00196F0CF8838904909F31D
:10401000499BDFCF8FED9EE20197F1F700C00000D2
:104020004F9BD7CF8BE2089582E691E008950895E3
:104030001092650310926403089583B18E3F59F482
:1040400081E090E090936503809364039093FC0279
:104050008093FB020FC083B18C3F59F481E090E064
:1040600090936503809364031092FC021092FB020C
:1040700001C0089581E308950E94240980913D03C1
:10408000843081F0823081F0882381F0863081F0A5
:10409000873081F0853081F0813081F0833081F08C
:1040A00020E00FC020E40DC020E10BC020E809C0D3
:1040B00020E207C020EA05C020E603C020E901C0D5
:1040C00020E540913B03642F617040FD02C050E049
:1040D00001C050E48091640390916503342F3270E5
:1040E0008130910571F461112160311122603091AC
:1040F0004E0332FD206C44FD206345FF1DC0206E41
:104100001BC0611121603111226042FD02C030E00C
:1041100001C030E843FD306446FD306247FD306148
:1041200040913C0340FD386041FD346046FD326003
:1041300047FF03C0316001C030E0EBB178B165B139
:104140000097A9F1422F4095E36F4E23019719F490
:1041500083E0842701C0842F8BB98091FB0290916A
:10416000FC02892B29F48BB183608BB921FD58980F
:10417000852F8095972F9064892388B9832F809508
:10418000962F9E6F892385B9809164039091650372
:10419000019709F423602AB98091FB029091FC02F7
:1041A000892B19F48AB183608AB957B934B9089553
:1041B0008CE691E008950895109203031092FD0299
:1041C0003E9A469A8AB1806F8AB98BB18FEF8BB9CC
:1041D0001092050382E08093040308958FEC8BB95D
:1041E00089B18370833011F580E090E029B12370AC
:1041F000213029F0019681152AEF9207B9F72FEFA8
:104200002BB981159A4F91F020E030E089B183708D
:10421000813031F42F5F3F4F21158AEF3807B1F716
:104220008FEC8BB981E021153A4F09F480E00895B5
:10423000D5DF882359F08FE39CE90197F1F700C09F
:104240000000CCDF89B1837019F0089580E00895F3
:1042500089E1089599B19370E9F7982F9F609BB910
:10426000469899B193709130E1F720E1829FC001A7
:1042700011248F608BB9469A08951F93CF93DF93D3
:1042800090913D03953089F0973091F0913099F0FD
:104290009330A1F09923A9F09430B1F09630B9F0A1
:1042A0009230C1F0CFEFDFEF17C0CFE9DFEF14C0DE
:1042B000CFEADFEF11C0CFE6DFEF0EC0CFE5DFEFD3
:1042C0000BC0CFEEDFEF08C0CFEDDFEF05C0CFEBC7
:1042D000DFEF02C0CFE7DFEF80913B03382F327072
:1042E00081FDCE7F87FF05C0911102C0DF7701C03D
:1042F000CD7F80FDCB7F85FDC77F582F507486FF13
:1043000005C0911102C0D77F01C0DF7E83FDDF7D34
:10431000482F447082FDDF7B20913C0321FDDF7735
:1043200020FDD77F20910303213009F448C010926B
:10433000FD0220915903253451F0203431F02A3008
:1043400079F4552321F0CE7F02C04111D77F10921E
:10435000030322E02093050323E0209304031FC0FE
:1043600040914203442381F0233771F43111CB7F14
:1043700023E02093040322E020930503209303030A
:1043800021E02093FD020BC020913E0322532739E8
:1043900030F026E02093040321E0209305039430BD
:1043A00071F48378833859F482E08093050383E0C5
:1043B0008093040381E0809303038093FD02809146
:1043C0005603882349F01092050382E0809304038A
:1043D000109203031092FD028FE18BB989B18370B3
:1043E000E9F7109104038091050320E1829FC00149
:1043F0001124812B2FDF133009F078C0C095D095A0
:1044000080910303823019F42091420307C0833066
:1044100019F42091430302C020913E03822F90E0C3
:1044200030910203831B91092093020397FD02C080
:10443000CF7E01C0C061309159034091FD023434F8
:1044400071F0442361F0283C20F0CF7E88E39FEF99
:1044500013C0213420F4C06188EC90E00DC09C01B1
:104460002A513F4F2D3C314038F0CF7E80910003E0
:1044700084FDC0618091FF0291E0980F90933E030C
:104480008093FF0220913F03822F90E0309101033F
:10449000831B9109209301031816190614F4C062B6
:1044A00001C0CF7D442361F0283C20F0C06282E34C
:1044B00090E013C0213420F4CF7D8EEC9FEF0DC02F
:1044C0009C0126503F4F253F314038F0CF7D8091F1
:1044D000000385FDC0628091FE02982F9195909314
:1044E0003F038093FE02CF73C09300038C2FB2DE94
:1044F000133049F480913E03ADDE80913F03AADE84
:10450000153030F40DC08D2FA5DE133048F0F2CFFA
:10451000809144039FDE153019F0809145039ADEA7
:1045200081E098DE87EC90E00197F1F700C0000091
:10453000DF91CF911F91089584E791E00895089548
:104540008AB1836F8AB988E08093810082E080938A
:104550006F00A8E8B0E09FEF9C93E9E8F0E081E00D
:1045600080839C93808308952FEF89E698E1215002
:1045700080409040E1F700C000001C9903C020E299
:104580002A95F1F780E090E01C9B0BC00196811505
:104590002AEF9207C9F712C0019681152AEF9207F8
:1045A00069F01C9BF9CF1D9908C08FE99FE0019726
:1045B000F1F700C0000085E10895089508950E9474
:1045C000240990913B0395FD02C02FEF01C02DEF10
:1045D00097FD2F7780913D03823011F42F7B1BC014
:1045E000863011F42F7D17C0843011F42F7E13C054
:1045F000811102C02E7F0FC0873011F42E7D0BC0B9
:10460000853011F42F7C07C0813011F42E7B03C05C
:10461000833009F42F7A91FD02C05FEF01C05FE79C
:1046200080913C0380FD5F7B83FD5F7D86FD5F7E27
:1046300060914E0361FD5E7F90FD02C04FEF01C0AF
:104640004FE781FD4F7B84FD4F7D87FD4F7E62FDEF
:104650004E7F94FF02C03FE701C03FEF82FD3F7BEA
:1046600085FD3F7D60FD3F7E63FD3E7F1F9B04C057
:104670001C9B04C080E003C081E001C082E09091F7
:10468000810095609093810078941092850010923B
:104690008400813029F08230A1F080E090E029C0D0
:1046A0001F9BFECF8091150381114FC02BB91C9B1E
:1046B000FECF5BB91D9BFECF4BB91E9BFECF3BB916
:1046C00044C01C9BFECF8091150381113EC05BB995
:1046D0001D9BFECF4BB91E9BFECF3BB91F9BFECF50
:1046E0002BB91C9BFECF31C0019681156AEF96074E
:1046F000B1F11C99F9CF60911503611126C02BB956
:104700001C9906C0019681152AEF9207C9F727C0A8
:104710005BB91D9906C0019681156AEF9607C9F726
:104720001EC04BB91E9906C0019681152AEF92074B
:10473000C9F715C03BB91F9906C0019681156AEFEC
:104740009607C9F70CC083EF8BB9B19A1092850018
:104750001092840010928100F8941092150308952D
:104760008CE791E0089508958AB181678AB9089528
:10477000803124EA920720F44F9906C00196F8CFC1
:10478000803124EA920739F028E02A95F1F7369B28
:1047900002C04F9905C080E00895369B09C001967C
:1047A000803124EA9207C8F3803124EA920799F312
:1047B0004F9BF1CF03C04F9B08C00196803124EA84
:1047C0009207C8F38031944A31F396B1892F8074EF
:1047D00096FDE1CF4F9B87E20895CF93DF930E9430
:1047E000240930913B0335FD02C09FEF01C09FEECD
:1047F00020913D03223009F46AC0263009F469C0D3
:10480000243049F0222389F0273089F08FEF2530BA
:1048100021F48FEA0DC08FEB0BC0213011F48EED27
:1048200007C0233029F48EEB03C08FED01C08FEC5D
:1048300031FD9F7D30FD9E7F34FD9F7B232F2C7C9F
:1048400069F037FD02C02FEF01C02FED33FD2F7E41
:1048500032FD2F7B36FF07C02E7F05C0292F382F52
:104860009FEF8FEF05C03EE803C0369905C0219643
:10487000C03144EAD407C8F33BB903C04F9B05C01D
:104880002196C03144EAD407C8F32BB93E3841F031
:1048900084EF91E0369906C001970097D9F702C0DE
:1048A000292F382F80E090E0369905C00196843F8B
:1048B00041E09407C9F73BB94F9B05C00196803191
:1048C00034EA9307C8F32BB9DF91CF9108958EEFA7
:1048D000AFCF8FEEADCF84E891E0089580B38066CE
:1048E00080BB81B3806681BB089520B380B38F798C
:1048F00080BB9FB120BB907681E009F480E00895F1
:104900009FB1907651F428E632E49FB1907639F465
:104910002150310921153105C1F78EEF089596E038
:104920009A95F1F700C09FB19076B9F790E19A950A
:10493000F1F7E6E1F3E040E0481709F4B1C09081F7
:1049400096959083000000007D9B03C000C000C0CE
:1049500002C09068908394E19A95F1F790819695C2
:104960009083000000007D9B03C000C000C002C017
:104970009068908394E19A95F1F790819695908351
:10498000000000007D9B03C000C000C002C0906812
:10499000908394E19A95F1F7908196959083000029
:1049A00000007D9B03C000C000C002C090689083DF
:1049B00094E19A95F1F7908196959083000000001C
:1049C0007D9B03C000C000C002C09068908394E14A
:1049D0009A95F1F7908196959083000000007D9B59
:1049E00003C000C000C002C09068908394E19A9513
:1049F000F1F7908196959083000000007D9B03C0A5
:104A000000C000C002C09068908394E19A95F1F7CD
:104A1000908196959083000000007D9B03C000C0AC
:104A200000C002C0906890837D9B17C020E030E0FA
:104A30007D9B0BC02F5F3F4F2C3D95E03907C1F7A1
:104A400004C07D9906C02F5F3F4F2C3D95E039078C
:104A5000C1F796E09A95F1F720C020E030E07D990B
:104A60000BC02F5F3F4F2C3D95E03907C1F704C0C5
:104A70007D9B0BC02F5F3F4F2C3D95E03907C1F761
:104A800004C07D9906C02F5F3F4F2C3D95E039074C
:104A9000C1F795E09A95F1F700004F5F31964CCF42
:104AA00085E38A95F1F7000080911603089590B38D
:104AB0009F7990BB28E632E49FB1907639F421507B
:104AC000310921153105C1F78FEF08959AE19A95C3
:104AD000F1F700C090B3906690BB91B39F7991BB02
:104AE00027E02A95F1F798E08D9A2AE02A95F1F7C8
:104AF00000C080FD8D982AE02A95F1F700C08695C8
:104B0000915091F78D9A85E08A95F1F700008D9884
:104B100090E19A95F1F781B3806681BB80B38F797C
:104B200080BB2AE12A95F1F700C080E008958CE867
:104B300091E00895982F973058F59093E9009817D1
:104B400039F07091EC002091ED005091F00003C01D
:104B5000242F762F50E021FF19C03091EB003E7FCB
:104B60003093EB003091ED003D7F3093ED003091BC
:104B7000EB0031603093EB007093EC002093ED007C
:104B80005093F0002091EE0027FF07C09F5FD3CF26
:104B90008F708093E90081E0089580E0089517D038
:104BA0001ED0E0EEF0E0808181608083E8EDF0E0EF
:104BB00080818F77808319BCA7EDB0E08C918E7FC8
:104BC0008C9380818F7E8083109269030895E8ED35
:104BD000F0E080818E7F80831092E2000895109231
:104BE000DA001092E10008951F920F920FB60F9213
:104BF00011242F933F934F935F936F937F938F93E2
:104C00009F93AF93BF93EF93FF938091E10082FF57
:104C10000AC08091E20082FF06C08091E1008B7F94
:104C20008093E100A5D08091DA0080FF1DC08091C3
:104C3000D80080FF19C08091DA008E7F8093DA005F
:104C40008091D90080FF0CC080E189BD82E189BDDF
:104C500009B400FEFDCF81E080936A0389D004C0CF
:104C600019BC10926A0384D08091E10080FF18C0C3
:104C70008091E20080FF14C08091E2008E7F8093DB
:104C8000E2008091E20080618093E2008091D80090
:104C900080628093D80019BC85E080936A0368D055
:104CA0008091E10084FF2DC08091E20084FF29C043
:104CB00080E189BD82E189BD09B400FEFDCF80910C
:104CC000D8008F7D8093D8008091E1008F7E809303
:104CD000E1008091E2008F7E8093E2008091E2000B
:104CE00081608093E20080916603811104C080910D
:104CF000E30087FF02C084E001C081E080936A0383
:104D000037D08091E10083FF22C08091E20083FFD1
:104D10001EC08091E100877F8093E10082E0809354
:104D20006A03109266038091E1008E7F8093E10018
:104D30008091E2008E7F8093E2008091E2008061AA
:104D40008093E20042E360E080E0F4DE11D0FF9166
:104D5000EF91BF91AF919F918F917F916F915F91F3
:104D60004F913F912F910F900FBE0F901F9018956C
:104D70000895EE0FFF1F0590F491E02D0994FB01BB
:104D8000DC0104C08D910190801921F44150504004
:104D9000C8F7881B990B0895FB01DC0102C0019044
:0E4DA0000D9241505040D8F70895F894FFCF7F
:104DAE00DB0A730B250BDA0AFF0EFF0DF70DF20D62
:104DBE00E02080E02080E02080E0208000000000E5
:104DCE00E02080E02080E02080E0208000000000D5
:104DDE000000A42001019A131B146F15991383155B
:104DEE001517621682154D19CD1A67194C19FFF356
:104DFE00FFF3FFC3FFFFF3F3F3F33E1B151E501B30
:104E0E003D1B2D1E6B1ED41F2C1E010018203C2096
:104E1E001D201720DC203D211821DB20A022DF22BF
:104E2E00B4229F22B423ED23B823B3236E2480240F
:044E3E00572575245B
:00000001FF
