:100000007AC5000094C5000092C5000090C50000AC
:100010008EC500008CC500008AC5000088C50000A0
:1000200086C5000084C500000C94E52980C5000049
:100030007EC500007CC500007AC5000078C50000C0
:1000400076C5000075C5000072C5000070C50000CF
:100050006EC500006CC500006AC5000068C50000E0
:1000600066C5000064C5000062C5000060C50000F0
:100070005EC500005CC500005AC5000058C5000000
:1000800056C5000054C5000052C5000050C5000010
:100090000C941E134CC500004AC5000048C5000062
:1000A00046C5000044C5000042C50000020D0A0D0F
:1000B000800CD20C240D350D530D700D6D0E6D0E90
:1000C0006D0E6D0E7E0D960D6D0EA70D7051038693
:1000D000400D4FEB3ECCD18735BDF50B5ED0F8F22D
:1000E000D5E26C310CADFC21C378C106C24C55E69B
:1000F0004A3448111EDAE71A84A096A7E37FAF635B
:100100009CFA235B79C89EBAB2C922124BB3A1B63E
:100110003249A2E189391066C5078F54EA91CA3F76
:10012000F919F0D746BC281B61E82F6AAE9DF64E40
:100130000914774DDB1F2E7B7CF143A300B8138C91
:1001400085B9297588FDD2561C509741E53B60B5AD
:10015000C064EE98D62D25A4AACD7DA883C6ABBEDB
:100160004499263CCE9FBFD3CB767A7E82018A9A71
:10017000801D0EB05CD43862F430E08E53B7025765
:10018000ACA6520A6D9265172433457274B1B4F768
:100190005DED2CFF47375A90BBDF2A165995D9C41D
:1001A000276773C768FEA5DD6B5F93D8EC053A8DB2
:1001B0006EFB3DA96936F394DEEF156F8B9B080F3C
:1001C000DC81182004E471CFE92B425801A0A96218
:1001D000D63F85A7B6D4FA15661709BD5D14342637
:1001E00059729154064FF8B05B7493998CF245CDD7
:1001F000EA4EAD104AE5CAEEDFC66F9F888E02CC8C
:1002000008A877946D21B128E43979966071811638
:100210002EE678B9C4469A42AEB77C43B3221A861A
:10022000C2323D2D9CD229E9639BD131385E1E3606
:1002300041BB03182B3EBF6861FC52C0DEE00A5888
:10024000135A00BE1C900E5312FDE26EBACE242744
:10025000447F87A3A1D55040E3F983F7C7A235C8EF
:10026000DB19AB2F1125ED339E55E148AF7384DACE
:100270002AAA51EB9D95B2CBE77080FE4C6504EF46
:10028000C5F1C33AB4F55F2389DD30A58BD3F6DC25
:100290004D64D7F08FEC56375CA40D07768A2C0B93
:1002A000B5D8C11FE83BF44B1B476C49677B92CF25
:1002B000757E20D97D3C977AD0056B0F1DFB829807
:1002C000578DF36ABCACC9A6FFB8690C4C4D7207D8
:1002D0005A49338DA2AB463D630DA097FFF0F5FA66
:1002E000C0E9DB62E4E17443DC86182937F406E2F6
:1002F000ED6F90481E2D1DEA739454DF25F64727B5
:10030000D91177C9841C5B5C5181A6223E2496C812
:100310008AEC827C09B8454A57BB2F50758E6170B4
:100320008C6CAFD0FDB41BAEDEFE3BB536BD5501C7
:100330000E9C41565FB3260383BA134BCAC50AF815
:1003400060A5B9C7C39832FB12F9A792AA68F378DF
:100350007E05202102E8BFF2B0598FD2CB87651508
:10036000F11AB230ADEE58A38B661F2CD75D1985FC
:10037000A8E6D36BA10C91936A5E0B79E3DD004F85
:100380003C896E7169A9AC40E59928C6314E7ACD99
:10039000089E7DEF17FC88D8A46D4495D1B7D49BF7
:1003A000BE2A34642BCF2EEB38CE23E03A3FF77BC6
:1003B0009F1053BC526716E7807604C4B6C1C27F53
:1003C0009ADAD53942149DB10F35D6CCB9DA380C4A
:1003D000A29C091F06B1B6FD1A692330C4DE01D103
:1003E000F45829371C7DD5BFFFBDC8C9CF65BE7B7A
:1003F0007897986708B32657F7FA40AD8E75A67CB4
:10040000DB918B5199D4177A908DCE63CB4EA0ABF4
:10041000183A5B507F2174C1BBB8B7BA0B35953120
:10042000599A4D04071E5A7613F37183D08603A898
:100430003942AA28E6E4D85DD3D06E6F96FB5EBC45
:1004400056C25F859BE7AFD23B846AA753C5444938
:10045000A5F936723D2CD91BA1F54F939D684741F4
:1004600016CA2A4CA387D6E5192E77156D70C0DF02
:10047000B20046EDC66C4360922DA922458F3455DB
:10048000AEA40A6632E0DC02ACE8208C89624AFE47
:10049000EEC3E33CF17905E9F62733CCF29E1181F6
:1004A0007E80108A829F480DD7B4FC2FB5C7DD88A7
:1004B000146B2B54EA1D945CB0EF1224CDEBE1E2F7
:1004C00064733F0E5261253EF80F4BECC00030F6CE
:1004D00002493D106E20C9A62FFE2C2B752E4526F5
:1004E000AB48A980FC04CCD3B5BAA338317D01D97F
:1004F000A77B96B663694EF7DEE078CA50AA4191B1
:100500006588E42185DA3A27BE1C3E425E17527F99
:100510001F89246F8F5C67740E12878DE934ED7329
:10052000C4F8615B05DF594C97798318A45595EBA6
:10053000BD53F5F15766469FB2810951862216DDFB
:1005400023937629C2D71DD4BF363FEA4B1132B967
:10055000625460D66D439A0D929CB0EF586C9D77B3
:100560002D70FAF3B30BE2407EF48AE58C3C5671B1
:10057000D164E1820ACB131590EC0399AF145D0F9F
:10058000334A94A5A8351BE36AC628FF4DE72584A6
:10059000AC08AEC5A22AB8370C7AA0C3CEAD061AF5
:1005A0009E8BFBD5D0C11ED0B49BB144F247C76827
:1005B000CF72BB4F5AF9DC6BDBD2E87CC8EE98A156
:1005C000E6D839075FFD8E19B73BBCCD7CE381735C
:1005D000B211BF6F2098FE7596EF6CDA50E1097288
:1005E0005445BA34805BED3E532C87A457F3333F18
:1005F0003CB767B4A325604F076B1B47150FE40A90
:10060000EAD1327836498D4BD2BCA5DC1D0D4DCDDB
:100610009A825FFC9465BEE2F4C91E44CB9E0C64D2
:10062000712663B314E840708A0E19426DAC8810CD
:100630005CDF41A9ADE5FB74CCD5068E5986CE1F93
:100640003D76E08FB977277BA6D829D3ECB813F78E
:10065000FAC3516ADE4A5AEBC28B234892CF62A892
:1006600099F8D02E856143C8BDF00593CA4EF17D3F
:1006700030FDC469662F08B152F921E67A2BDD39C5
:1006800084FFC091D637D47F2D9B5DA13B6EB5C54D
:100690004604F590EE7E831C0356B6AA001701357A
:1006A00055790B12BB1A31E7022816C1F6A2DB18E6
:1006B0009C89683897ABC72AD73AF2C6244CB05801
:1006C000A0225E9DD9A7E9AEAF8C959F28B720D711
:1006D000B030C30919C067D6003C7EE7E9F4085A78
:1006E000F8B82E05A6259E5CD8150DE1F611546BC1
:1006F000CD2146665E84AD06382944C5A2CEF1AA56
:10070000C1407186B5EFFC36A8CB0A48274564A3E3
:10071000AF8CB2C69F0789DC17D34979FBFE1DD089
:10072000B9884352BC01782B7D94C70EDEA5D59BBA
:10073000CCF7617AC274813903AB96A037BD2D72B4
:10074000753FC9D48E6FF98DED62DB1CDF04AC1BE5
:100750006C144B63D0BFB482EC7B1A5992D21060F8
:10076000B63D5FE6806E70C4F235D97CEEE541A4FB
:100770005B50DDBB4CF31F9D5D57555197E35842CD
:100780004D9C73BAC877316926AEEA8ADA22B387FC
:1007900056FA930B341633E8E453BEA9B13A3EF54A
:1007A000906ACF3B12FD8F9AA7479199EB0F24FFD8
:1007B0002318854E7F0CE0A1D2D12C2A4A024F1E6D
:1007C00095688B98836D76CA6532132FC3829AA47D
:1007D000BA8160373435FC80A8516567ED305F1011
:1007E000D34A272F13B92AD2CCE1EFAEEBBEF4BD2A
:1007F000CF43B3C58884B7DD3940CE486D9B726165
:100800007EE7A14E532E773BE2C936221B6E73B1B1
:1008100003B24C87A9D44D0FD8156CAA18F64957C6
:100820005DFB7A149463A011B09EDE0546C8EE47C6
:10083000DBDC24899C919729E97BC1071EB8FDFE6A
:10084000ACC662984FF179E0E86B7856B68D0450EB
:1008500086CA6F20E6EAE576171C747FBC0D2C85EE
:10086000F76696E48B753F4BD938AF7CDA0B832D56
:100870003132A2F51D594145BF3C1FF8F98AD01607
:10088000256912999D2195AB01A6D7B5C07DFF586A
:100890000E3A92D155E3089FD63E528EFAA3C70274
:1008A000CDDF8F64198CF3A70C5E0A6A09F0935BA5
:1008B00042C20623EC71ADB4CBBB7028D51A5C33B1
:1008C000685A004490A5C4263D2BF25496ADDA1F19
:1008D000ED33E18169080D0ADB35779A64D1FC7844
:1008E000AA1BD067A0DDFA6C63710584176A894F73
:1008F000667FC65055926FBDE7D240728DBBEC0645
:10090000428AE4889D7E7A822713411AAFC8A47672
:10091000B4C2FE6D1CD96130B37CEAF7290FF23BFB
:1009200051C1DE5FE52A2F990B5DA32B4AAB95A53C
:10093000D35856EE283100CC1546CAE686383C65B9
:10094000F5E39FD65B094983702D53A97DE2C4ACC2
:100950008E5EB825F4B957F3F16847B2A25920CE9C
:1009600034795C900E1EBED52223B1C91862162EB2
:10097000913E078FD83F933DD49BDF8521FB1174B7
:1009800097C7D7DC4C194598E943024BBCC3049C7C
:100990006BF07552A726F6C5BACFB0B7AE5AA1BF55
:1009A000038B80126E0CEBF9C04424EF10F8A88C76
:1009B000E87BFF9E2CCD603687B594A654733A141D
:1009C0004E011DB6FD37484D39CBE0320000000026
:1009D0000000000000000000000000000000000017
:1009E0000000000000000000000000000000000007
:1009F00000000000000000000000000000000000F7
:100A000000000000000000000000000000000000E6
:100A100000000000000000000000000000000000D6
:100A200000000000000000000000000000000000C6
:100A300000000000000000000000000000000000B6
:100A400000000000000000000000000000000000A6
:100A50000000000000000000000000000000000096
:100A60000000000000000000000000000000000086
:100A70000000000000000000000000000000000076
:100A80000000000000000000000000000000000066
:100A90000000000000000000000000000000000056
:100AA0000000000000000000000000000000000046
:100AB0000000000000000000000000000000000036
:100AC000000000000000000000000000A877A6E081
:100AD000F7435A3585E272978FB71A6287380D67E8
:100AE000C7BE4F3E2076378F68B7A9263F2B10E34D
:100AF000307E900E850A11241FBECFEFDAE0DEBFF4
:100B0000CDBF11E0A0E0B1E0E0E9F5E502C005905D
:100B10000D92A83BB107D9F723E0A8EBB1E001C0E3
:100B20001D92A03AB207E1F752D20C94C62A68CAC5
:100B30001F920F920FB60F9211242F933F934F9352
:100B40005F936F937F938F939F93AF93BF93EF9335
:100B5000FF9381E08093420380916503853151F4D6
:100B6000E0918703F09188030480F581E02D80E017
:100B7000099508C0853231F4369B02C0469801C001
:100B8000469A3E9AFF91EF91BF91AF919F918F91BD
:100B90007F916F915F914F913F912F910F900FBE79
:100BA0000F901F901895CF93E0918703F0918803E1
:100BB0000480F581E02D81E20995C82FE09187033B
:100BC000F09188030280F381E02D82E009959091F5
:100BD0004403892F81708093800393FB882780F9D9
:100BE0008093850394FB882780F98093840395FB89
:100BF000882780F98093820396FB882780F9809369
:100C00008103991F9927991F90938303CF3F51F434
:100C1000E0918703F09188030480F581E02D80E066
:100C20000995C2CFC03F08F0BFCFCF910895809102
:100C30008603893721F0833311F08F3749F491E02F
:100C400090937F03893759F481E080937E03089560
:100C500010927F038337C1F3893041F4F5CF982F89
:100C60009F7B933389F38F37B9F7EECF8251823070
:100C700058F310927E030895CF93809180038111E1
:100C800005C080917F0381110EC032C0E0918703BF
:100C9000F09188030480F581E02D80E009958F3F75
:100CA00081F78EEFEFC0E0918703F0918803048015
:100CB000F581E02D82E00995E0918703F0918803AA
:100CC0000280F381E02D8DE00995EFEAF4E03197A1
:100CD000F1F700C00000803F08F0D4C0E4E4F3E086
:100CE000A5E3B3E081918D9383E0E035F807D1F778
:100CF000E0918703F09188030480F581E02D81E085
:100D00000995E0918703F09188030280F381E02D3B
:100D10008DE00995C82F803F08F0B3C0809186030D
:100D20008C1731F1E0918703F09188030480F581FD
:100D3000E02D80E0099537DFE0918703F09188038B
:100D40000480F581E02D81E00995E0918703F09121
:100D500088030280F381E02D8DE00995C82F8FEF85
:100D600090E09093550380935403C03F08F089C0EE
:100D700080916303882309F46DC080917E038823EA
:100D800009F468C09091410380915003981305C005
:100D90008091B801882309F45DC0E0918703F09148
:100DA00088030480F581E02D8CE10995E0918703AB
:100DB000F09188030480F581E02D8091500309951E
:100DC000E0918703F091880381E0909150039111A5
:100DD00001C080E00480F581E02D81950995E091C6
:100DE0008703F09188030480F581E02D81E1099566
:100DF000E0918703F09188030480F581E02D8CE178
:100E00000995E0918703F09188030480F581E02D36
:100E1000809141030995E0918703F091880381E077
:100E200090914103911101C080E00480F581E02D93
:100E300081950995E0918703F09188030480F581FD
:100E4000E02D84E109958091410390915003892719
:100E50008093B80120915403309155032115310539
:100E600039F02150310930935503209354032FD189
:100E7000E0918703F09188030480F581E02D80E004
:100E800009958C2FCF910895F7DE909180039111F1
:100E900028C0803FD0F090914503209144039223D5
:100EA00098239F3F29F08F3F19F481E080938003BE
:100EB00081E0809383038DE0E6E5F3E0A3E4B3E013
:100EC00001900D928A95E1F719C09DE0E3E4F3E00B
:100ED000A6E5B3E001900D929A95E1F78093860321
:100EE0000DC09DE0E6E5F3E0A3E4B3E001900D92D0
:100EF0009A95E1F7803F10F410928003909180035F
:100F000080915203992369F090914403811105C0A7
:100F100081E080935203906201C09F7D90934403CF
:100F20000BC0882349F0109252033DDE8FEF90E012
:100F3000909355038093540307D280914403809388
:100F400068038091450380936903809146038093F1
:100F50007B038091470380936B03809148038093C8
:100F60006C03909149039093710380914A0380939D
:100F70006D0380914B0380936E0380914C038093AB
:100F8000720320918603293741F020914D0320936D
:100F9000700320914E0320936F0320917F03211152
:100FA00004C090933F038093400380914F0380934C
:100FB0006A033DDE80916703833318F01092670364
:100FC000F2DD809167038F5F80936703089510922D
:100FD0008003109252031092B801109267038FEFB2
:100FE00090E0909355038093540380E880936100D0
:100FF0001092610085B7806885BF85B7806885BF1E
:101000001AB817B814B88FEF8BB988B985B9ADD1B4
:101010000E94C0298091D80080628093D80089B551
:101020008D7F89BD8091D8008F778093D8001CBCBC
:101030001092CA001092C8001092C90010927A0053
:101040008091BC008B7F8093BC001092C0001092F6
:1010500091001092900015BC14BC10928100109267
:1010600080002FEF87EA91E6215080409040E1F721
:1010700000C000008ED18823E9F30E948829909354
:10108000880380938703DC01ED91FC910995109210
:10109000B9011092BA011092BB011092BC011092DA
:1010A000BD011092BE011092BF011092C0014CD13F
:1010B000E0918703F09188030480F581E02D80E0C2
:1010C0000995DADD803FE8F7DFDE5BD1FDCF809167
:1010D0006503982F9D7F21E0993209F020E091E08F
:1010E000382F3F7E353009F090E0922BE091870356
:1010F000F0918803911102C08532C1F58091860379
:1011000031E0803109F030E091E0833209F090E085
:10111000392B91E08F3109F090E0932B31E08F3241
:1011200009F030E0392B21E0813409F020E0232B55
:1011300091E0893709F090E0922B51F4982F9F7D30
:10114000933531F0893021F0877F833109F09BC0DE
:101150000480F581E02D84E20995E0918703F09108
:1011600088030480F581E02D84E08CC021E0893182
:1011700009F020E091E08F3209F090E0292B91E016
:101180008F3109F090E0922B21F4982F9B7F9331BF
:1011900061F580918603982F977F31E0933009F0B5
:1011A00030E0982F9F7E985021E0923008F020E0A8
:1011B000232B91E0382F3B7F313209F090E0922BC6
:1011C00031F4883221F08351833008F05CC0048010
:1011D000F581E02D85E20995E0918703F091880380
:1011E0000480F581E02D83E04DC0833209F044C0D6
:1011F00080918603982F977F21E0933009F020E0BB
:1012000091E0382F3F7D383009F090E0922B21E0BB
:101210003CEE380F323008F020E0292B91E038EE18
:10122000380F333008F090E0922B31F4982F9B7FE9
:10123000913211F0863339F50480F581E02D84E296
:101240000995E0918703F09188030480F581E02DF2
:1012500084E00995E0918703F09188030480F5818B
:10126000E02D85E20995E0918703F09188030480E1
:10127000F581E02D81E006C08B3029F40480F581F2
:10128000E02D80E20995E0918703F09188030480C6
:10129000F581E02D80E1099440916C0390916E03FB
:1012A00021E09E3408F020E081E04E3408F080E038
:1012B000282B80916D03222341F08E3420F0309151
:1012C0006B033E3410F487E03CC031E0933B08F4FC
:1012D00030E091E0433B08F490E0932B41F08E34F2
:1012E00020F030916B033E3410F485E02AC02223B5
:1012F00041F0833B20F430916B03333B10F081E0ED
:1013000020C0992341F0833B20F430916B03333BA1
:1013100010F083E016C030916B038E3410F03E3431
:1013200010F486E00EC0833B10F4333B10F082E0F3
:1013300008C0222319F010926A030895992319F026
:1013400084E080936A030895109269031092680301
:101350008FE080936A0380E880936E0380936D032F
:1013600080936C0380936B03089514BEA89588E165
:101370000FB6F89480936000109260000FBEF8944E
:101380000895E0917C03F0917D030280F381E02DCC
:1013900009940F931F93CF93DF931F92CDB7DEB7BE
:1013A00010926303109264031AB817B814B80FEFC1
:1013B0000BB908B905B90E945C2890937D0380930E
:1013C0007C03DC01ED91FC910995E0917C03F091A7
:1013D0007D030480F581E02D0995809365038111DB
:1013E0005AC0E0917C03F0917D030084F185E02DEB
:1013F000099585D490937D0380937C03DC01ED9166
:10140000FC910995E0917C03F0917D030480F581C6
:10141000E02D099580936503882331F081E0809366
:101420006303809364034EC11AB817B814B80BB99C
:1014300008B905B90E94B32490937D0380937C037F
:10144000DC01ED91FC910995E0917C03F0917D0325
:101450000480F581E02D09958093650381111BC0FF
:10146000E0917C03F0917D030084F185E02D0995E6
:1014700089B18C3F91F41AB817B814B80BB908B9F0
:1014800005B90E94852690937D0380937C03DC013F
:10149000ED91FC91099581E015C113B11F3F09F051
:1014A000E6C01AB817B814B81BB918B915B90E9414
:1014B000BA1E90937D0380937C03DC01ED91FC9137
:1014C0000995E0917C03F0917D030480F581E02D86
:1014D0000995809365038111DECFE0917C03F09143
:1014E0007D030084F185E02D09951AB817B814B86A
:1014F0001BB918B915B90E94161690937D038093F5
:101500007C03DC01ED91FC910995E0917C03F09165
:101510007D030480F581E02D099580936503811199
:1015200024C0E0917C03F0917D030084F185E02DDF
:1015300009951AB817B814B81BB918B915B90E948B
:10154000E11990937D0380937C03DC01ED91FC9184
:101550000995E0917C03F0917D030480F581E02DF5
:10156000099580936503882321F081E080936303CC
:10157000A9C0E0917C03F0917D030084F185E02D0A
:1015800009951AB817B814B81BB918B915B90E943B
:10159000301B90937D0380937C03DC01ED91FC91E3
:1015A0000995E0917C03F0917D030480F581E02DA5
:1015B00009958093650381116ECFE0917C03F091D2
:1015C0007D030084F185E02D09951AB817B814B889
:1015D0001BB918B915B90E94A62090937D0380937A
:1015E0007C03DC01ED91FC910995E0917C03F09185
:1015F0007D030480F581E02D0995809365038111B9
:101600004ACFE0917C03F0917D030084F185E02DC9
:1016100009951AB817B814B81FEF1BB918B915B93E
:101620000E94952390937D0380937C03DC01ED91D0
:10163000FC910995E0917C03F0917D030480F58194
:10164000E02D099580936503811125CFE0917C03FE
:10165000F0917D030084F185E02D09951AB817B843
:1016600014B81BB918B915B90E946F250DC083B104
:101670001AB817B814B80BB908B905B98F3511F4F1
:101680006FD402C00E94D02190937D0380937C038D
:10169000DC01ED91FC910995E0917C03F0917D03D3
:1016A0000480F581E02D0995809365038111F3CEC7
:1016B000E0917C03F0917D030084F185E02D898326
:1016C000099589810F90DF91CF911F910F91089516
:1016D0000895809183038093C3011092C8011092F2
:1016E000C9011092C7011092C60188E184B98FEF39
:1016F00085B98FE68CBD08951CBC08956EBD0DB4F0
:1017000007FEFDCF882371F08091C901811104C0CB
:101710008AE28A95F1F700C02C9885E08A95F1F766
:1017200000002C9A189902C08EB5089580E00895A3
:10173000CF93C82F60916D0381E0E0DF81508E3F31
:1017400038F48FEA94E00197F1F700C00000C1DFA0
:1017500060916E0381E0D2DF60916B0381E0CEDFA8
:1017600060916C038C2FCF91C9CFCF9380E194EA25
:10177000189B07C025E82A95F1F70000019700970C
:10178000B9F787EC90E00197F1F700C0000083B152
:10179000C82FC17080FD0EC08FE891E00197F1F76E
:1017A00000C000008FE99FE00197F1F700C0000042
:1017B000189903C01CBCC0E023C060E080E09EDF3D
:1017C0006FEF80E09BDF8130D1F46FEF97DF61E452
:1017D00081E094DF6AE581E091DF6FEF81E08EDFE9
:1017E0006FEF81E08BDF95E39A95F1F700008CB500
:1017F0008F7B8CBD84B1877E84B9C7E101C01CBCDE
:101800008C2FCF9108951F93CF93DF93189BFECF1A
:101810008AEB98E8189B06C001970097D9F788ECE7
:101820008093C60180916A03882309F464C28230E0
:1018300009F463C2843049F0863089F0813089F040
:10184000DFEF833021F4DFE90DC0DFEB0BC0853023
:1018500011F4DFE307C0873029F4DFE603C0DFE7D8
:1018600001C0DFEC8091680384FDDE7F85FDD77FBA
:101870009091690396FDDD7F97FDDB7F80FD02C0BF
:10188000CFEF01C0CFEB81FDCF7D82FDCF7783FD10
:10189000CF7E86FDCB7F87FDC77F90FDCE7F91FDFC
:1018A000CD7F8CB580648CBD84B1886184B9809112
:1018B000C60187FD0EDF8091C6018F5F8093C60150
:1018C0006FEF81E01BDF813009F007C21092C60183
:1018D0008091C701813009F04AC163EF0FDF182FF3
:1018E0006AE581E00BDF812F90E0FC01E054F10913
:1018F000E031F10508F0F1C1EA5AFF4F0C94AA2A31
:101900006D2F81E0FBDE809341038091C10188232C
:1019100031F081508093C1016C2F81E02AC0809109
:10192000C201882331F081508093C2016C2F80E086
:1019300029C08091C9018230C9F46C2F81E0DEDEBC
:101940008093500381E0F4DE8091C9018230E9F494
:10195000C5E3D3E0699181E0D1DE83E0C034D807EC
:10196000C9F76091400380E0C9DE0FC0813039F4CF
:101970006C2FC4DE8093500380E0DADE06C0811154
:1019800004C06C2FBBDE809350038091C5018F5F34
:101990008093C5018B3008F4A0C11092C50110924C
:1019A000C7019BC160E081E0A9DE8093C70181305F
:1019B00099F48091C901823011F0C4E007C0CCE0F5
:1019C00060E081E09BDEC150D9F7F7CF60E081E0B5
:1019D00095DEC150D9F7A6C060E081E08FDE8A3580
:1019E00061F460E081E08ADE60E081E087DE60E053
:1019F00081E084DE60E080E081DE8091C801809338
:101A0000C9016BC160E081E079DE60E081E076DEF3
:101A100062E010C081E08093C2019091C8019111F1
:101A200002C08093C8016FEF81E068DE6FEF81E054
:101A300065DE63E081E062DE60E081E05FDE60E061
:101A400081E05CDE6AE56FC060E081E057DE809394
:101A5000C8018091C30181111092C801C4E060E007
:101A600081E04CDEC150D9F75DC081E08093C201B6
:101A70008091C301882311F060E007C080917F034B
:101A8000882311F063E001C061E081E037DE62E0AD
:101A900081E034DE61E08091C301811160E081E08A
:101AA0002DDE62E027C060E081E028DE811102C007
:101AB000CAE001C0C4E160E081E020DE61E081E0D5
:101AC0001DDECA3011F462E001C061E081E016DE83
:101AD00061E0CA3009F460E081E010DE6C2F23C0C1
:101AE00060E081E00BDE60E081E008DE62E081E042
:101AF00005DE60E081E002DE61E012C060E081E0CE
:101B0000FDDD811102C0C4E001C0C7E060E081E0FA
:101B1000F5DD60E081E0F2DD6C2F81E0EFDD60E07B
:101B200081E0ECDD60E080E0E9DDD7C060E081E0ED
:101B3000E5DD61E081E0E2DD6FEF81E0DFDD6FEFA9
:101B400081E0DCDD6FEF81E0D9DD6FEFECCF81E08C
:101B50008093C10182E08093C80160E081E0CEDD26
:101B6000C4E060E081E0CADDC150D9F7DBCF81116C
:101B7000B4C08091C901882381F090918603993780
:101B800021F4823061F063E70FC0933351F09F3747
:101B900051F09335C1F763E507C061E405C069E71B
:101BA00003C063E201C063EE9091C401891729F07C
:101BB0009091C2019E5F9093C2018093C40181E025
:101BC0009DDD182F6AE581E099DD6D2F81E01334EA
:101BD00071F594DD8093C701811102C060E025C0DA
:101BE0008091C10181112AC08091C201811130C050
:101BF0008091C901823009F04AC06C2F81E07EDDFE
:101C00008093500381E094DD8091C901823009F016
:101C10004DC0C5E3D3E0699181E070DD83E0C0345D
:101C2000D807C9F76091400380E068DD3FC066DDFA
:101C3000809341038091C101882331F081508093CA
:101C4000C1016C2F81E026C08091C201882331F050
:101C500081508093C2016C2F80E025C08091C90122
:101C60008230A9F46C2F81E049DD8093500381E03C
:101C70005FDD8091C9018230C9F4C5E3D3E0699189
:101C800081E03CDD83E0C034D807C9F7CBCF813099
:101C900039F46C2F33DD8093500380E049DD06C0BA
:101CA000811104C06C2F2ADD80935003409183037F
:101CB000242F30E08091C30190E02817390769F0A4
:101CC0004093C30181E09091C901911180E080931C
:101CD000C9018093C4018093C80185E38A95F1F717
:101CE00000008CB58F7B8CBD84B1877E84B9DF9179
:101CF000CF911F910895DFEEB5CDDFEDB3CD80E03C
:101D000091E00895089581E08093CA010895ECEB75
:101D1000F0E080818B7F808308951092CA018091CA
:101D2000CA018823E1F389E108951092CA018091E4
:101D3000CA018823E1F38FE99FE00197F1F700C022
:101D4000000085E1EBECF1E0DF011D928A95E9F7F7
:101D500080E88093CE018093CD018093CC01809365
:101D6000CB0180916B0392E9980F943210F080932D
:101D7000CB0180916D0392E9980F943210F080931B
:101D8000CC0180916C0392E9980F943218F0809501
:101D90008093CD0180916E0392E9980F943218F0F0
:101DA00080958093CE018CE08093CF0188E0809372
:101DB000D0018FEF8093D1018093D201809168038D
:101DC00087FF03C09DEF9093D10185FF05C09091DF
:101DD000D1019B7F9093D10190917B0392FF05C02D
:101DE0009091D101977F9093D10184FF05C090918C
:101DF000D1019F7E9093D10186FF05C09091D101C2
:101E00009F7D9093D10190916A03943021F4909139
:101E1000D1019F7B05C0923031F49091D1019F7721
:101E20009093D10109C0911102C09EEF03C096307A
:101E300019F49DEF9093D2012091690321FF05C011
:101E40009091D2019B7F9093D20120FF05C0909189
:101E5000D2019F779093D20180FF05C09091D2016B
:101E60009F7B9093D20181FF05C09091D2019F7E0C
:101E70009093D20182FF05C09091D2019F7D9093F3
:101E8000D20183FF05C08091D201877F8093D20168
:101E900080918903811145C08091CC0186958695FA
:101EA0008695282F2871B8E02B9F900111249091DE
:101EB000CB0196959695922B9093CB01867020E25C
:101EC000829FC00111249091CD0196959695982BF3
:101ED0009093CC0180913F03869586958695282F17
:101EE000287194E0299F900111249091CE0196953C
:101EF00096959695922B9093CD01A0E28A9FC00172
:101F0000112490914003969596959695982B9093D1
:101F1000CE018091D1018093CF018091D201809335
:101F2000D00165E18BEC91E014C30F931F938BB14B
:101F300083608BB98AB18C7F8AB985E1EBECF1E0E3
:101F4000DF011D928A95E9F703E81EE024E131E004
:101F500045E1BF0184E391E003D31F910F9160C37A
:101F60008AE091E008952F923F924F925F926F9294
:101F70007F928F929F92AF92BF92CF92DF92EF9219
:101F8000FF920F931F93CF93DF93CDB7DEB7E29706
:101F90000FB6F894DEBF0FBECDBF1DA61CA6A12CA8
:101FA000B12C78E0E72EF12CDE01519680E090E034
:101FB0002CA53DA52453354FF901E80FF91FE491F5
:101FC000ED93019686309105B9F7DE01119680E018
:101FD00090E0FC01ED5FFC4FE081F0E0E453FF4F47
:101FE000E491ED9301968A30910599F7AB817E815A
:101FF0008989872790E04A2F47702A8528ABFD8181
:102000009701241B31093AAB29AB9C0109A802C0F6
:10201000220F331F0A94E2F702C0959587954A95DF
:10202000E2F7822B38A9831B8F278B87B9814A81DE
:102030004EA78A89842790E04B2F4770E885970147
:10204000241B31093AAB29AB9C0109A802C0220F1D
:10205000331F0A94E2F702C0959587954A95E2F7F7
:10206000822B871B8E278C873F813FA72B892327B5
:1020700030E069856770C701861B9109A901082EA8
:1020800001C0440F0A94EAF7062E02C03595279541
:102090000A94E2F7242B2A1B2B272D872C892F2724
:1020A00030E04E2F47704BA79C81A701BBA54B1B6F
:1020B00051095AAB49ABA90109A802C0440F551FE9
:1020C0000A94E2F702C035952795BA95E2F7242BDA
:1020D000291B2A272E872D895EA5252730E0AFA54D
:1020E000A770A7014A1B51095AAB49ABA90109A81E
:1020F00002C0440F551F0A94E2F75AAB49AB02C025
:1021000035952795AA95E2F7242B291B2F272F8792
:102110002E892E2730E0F90102C0EE0FFF1F8A95AD
:10212000E2F7CF0102C0359527956A95E2F7822B39
:10213000871BF8A98F27888B46E050E06DEF72E08F
:10214000CE010B960E94B02A95012F5F3F4F892B3D
:1021500079F059012CA53DA52A5F3F4F3DA72CA73B
:1021600037E0A316B10409F01FCF10920E0380C10F
:10217000822F90910103122F00E0090F111D0453CB
:102180001F4FF8010491F2E0AF0EB11C90910603CD
:10219000FA2DEE27E90FF11DE453FF4FE491E027FC
:1021A000E093F5029091FF02782E612C690E711C6C
:1021B000930124533F4FF901649090910803FA2D45
:1021C000EE27E90FF11DE453FF4FE491E625E0937C
:1021D000F60290910203582E412C490E511C920197
:1021E00024533F4FF901449090910A03FA2DEE27B2
:1021F000E90FF11DE453FF4FE491E425E093F7026A
:102200009091FD02D82EC12CC90ED11C96012453E9
:102210003F4FF901949120910503FA2DEE27E20F2B
:10222000F11DE453FF4FE491E927E093F802909108
:10223000FE02982E812C890E911C940124533F4F4D
:10224000F901949120910703FA2DEE27E20FF11D79
:10225000E453FF4FE491E927E093F90290910003E2
:10226000888F1F8A2F89388D290F311D24533F4FA6
:10227000F901949120910C03FA2DEE27E20FF11D44
:10228000E453FF4FE491E927E093FA0290910303AE
:102290008A8F198E298D3A8D290F311D24533F4F76
:1022A000F901949120910903FA2DEE27E20FF11D17
:1022B000E453FF4FE491E927E093FB02909104037C
:1022C0008C8F1B8E2B8D3C8D290F311D24533F4F3E
:1022D000F901949120910B03FA2DEE27E20FF11DE5
:1022E000E453FF4FE491E927E093FC029091FD0253
:1022F0008E8F1D8E2D8D3E8D290F311D24533F4F06
:10230000F901949120910403FA2DEE27E20FF11DBB
:10231000E453FF4FE491E927E093ED02909102032B
:1023200088A31F8E2F8D38A1290F311D24533F4FB5
:10233000F901949120910703FA2DEE27E20FF11D88
:10234000E453FF4FE491E927E093EE0290910003FC
:102350008AA319A229A13AA1290F311D24533F4F65
:10236000F901949120910303FA2DEE27E20FF11D5C
:10237000E453FF4FE491E927E093EF029091FF02CD
:102380008CA31BA22BA13CA1290F311D24533F4F2D
:10239000F901949120910C03FA2DEE27E20FF11D23
:1023A000E453FF4FE491E927E093F0029091010399
:1023B0008EA31DA22DA13EA1290F311D24533F4FF5
:1023C000F901949120910A03FA2DEE27E20FF11DF5
:1023D000E453FF4FE491E927E093F1029091FE026C
:1023E00088A71FA22FA138A5290F311D24533F4FC5
:1023F000F901949120910B03FA2DEE27E20FF11DC4
:10240000E453FF4FE491E927E093F2029091060331
:102410008AA719A629A53AA5290F311D24533F4F94
:10242000F901949120910803FA2DEE27E20FF11D96
:10243000E453FF4FE491E927E093F3029091050301
:10244000382E212C290E311C910124533F4FF901C4
:10245000249080910903FA2DEE27E80FF11DE45333
:10246000FF4FE491E225E093F40281E080930E03B4
:10247000E2960FB6F894DEBF0FBECDBFDF91CF91CD
:102480001F910F91FF90EF90DF90CF90BF90AF9092
:102490009F908F907F906F905F904F903F902F9084
:1024A0000895863028F4E0910F03F0911003099409
:1024B000089590EC980F963098F480E490E029E429
:1024C00030E0F901E81BF90BDC01A351BE4F4C9140
:1024D000ED5FFC4F408301968634910591F7089596
:1024E0009AEB980F9630C8F48091330280930603DC
:1024F0008091340280930503809135028093040318
:102500008091360280930303809137028093020307
:102510008091380280930103089594EB980F9430D2
:10252000B8F4909139029093000390913A029093FD
:10253000FF0290913B029093FE0290913C02909397
:10254000FD0270E0680F711D6035710509F40BCD57
:102550000895462F50E0BC018DEE91E00C94BD2A09
:10256000EF92FF920F931F93CF93DF9300D0CDB7DD
:10257000DEB77C01CB0110920D0310931003009382
:102580000F03642F29833A83E4DF1092DD0286E093
:10259000F701ABEDB1E001900D928A95E1F786E08D
:1025A000EBEDF1E0A7EEB2E001900D928A95E1F734
:1025B0002981E22F3A81F32F80E290E02191DC0122
:1025C000A351BE4F2C93019680349105B9F72FEF9C
:1025D00089E698E1215080409040E1F700C000007A
:1025E00058985998509A8AB18C7F8AB91092EC0108
:1025F0001092EB0184EA8093BA001092B90088E44B
:102600008093B80081EC8093BC00109289030F90F6
:102610000F90DF91CF911F910F91FF90EF90089550
:1026200080910D03811109C08091BC00846080936A
:10263000BC0081E080930D03789408951F920F925F
:102640000FB60F9211242F933F934F935F936F9385
:102650007F938F939F93AF93BF93EF93FF9380915B
:10266000B900887F803951F188F4803721F128F44E
:10267000803609F18836F9F0DEC08038F9F0883804
:1026800009F4D9C0883709F0D6C015C0803B09F4D9
:1026900098C038F4803A09F489C0883A09F0CBC070
:1026A00090C0803C09F4C5C0883C09F4C2C0883B96
:1026B00009F48EC0C0C01092EA01BBC08091EA014B
:1026C000882309F466C02091BB008091EB019091B2
:1026D000EC018E3F910529F4233019F481E08093B9
:1026E00089038091EB019091EC01803F910589F481
:1026F000253511F02A3A69F410920E0386E0EBEDCD
:10270000F1E0A7EEB2E001900D928A95E1F7109208
:10271000E7018091EB019091EC01892B91F4243633
:1027200081F48091E801882361F086E0E1EEF1E038
:10273000A7EEB2E001900D928A95E1F781E08093D7
:10274000E70180910E038823E1F0A091EB01B091A5
:10275000EC01E091EB01F091EC01E770FF27E35110
:10276000FD4F8081E091EB01F091EC01E770FF27D4
:10277000EB50FD4F90818227890FA351BE4F8C9360
:102780004AC0E091EB01F091EC01E351FE4F208350
:1027900042C08091BB0090E09093EC018093EB01EC
:1027A00081E08093EA011092E90143C06091E90160
:1027B0008091EB019091EC019091E901891B79DE08
:1027C00038C08091EB019091EC016BDE1092E90131
:1027D00080910E03E091EB01F091EC01E351FE4F8B
:1027E0008823B1F08081E091EB01F091EC01E7707A
:1027F000FF27EB50FD4F2081E091EB01F091EC01C0
:10280000E770FF27E351FD4F9081821B892701C0AC
:1028100080818093BB008091EB019091EC01019647
:102820009093EC018093EB018091E9018F5F80939D
:10283000E90185EC01C085E88093BC00FF91EF9130
:10284000BF91AF919F918F917F916F915F914F91C8
:102850003F912F910F900FBE0F901F9018950895E4
:1028600010928A0357985F9A08950895549A57983A
:102870009BB19BB9811105C081E090E0A0E0B0E080
:102880001CC081E090E0A0E0B0E04F9B1FC00000C2
:102890000196A11DB11D883E23E09207A105B10557
:1028A000A1F712C000000196A11DB11D811523E5FD
:1028B000920727E0A207B10539F04F99F3CF883E80
:1028C0009340A105B10511F48FEF089598E080E0E1
:1028D000880F2BE02A95F1F700004F9981602CE0DA
:1028E0002A95F1F70000915099F7803461F48FE256
:1028F00091E00197F1F700C0000089B180788093E2
:102900008A0380E4089508953AE03A95F1F700C00B
:10291000579A5F9828E180E093E0A0E0B9E0B7FF24
:1029200009C035E03A95F1F700005F9A35E13A9534
:10293000F1F708C035E13A95F1F700005F9A35E00C
:102940003A95F1F700005F98880F991FAA1FBB1FE7
:10295000215029F78AE08A95F1F700C057985F9ACD
:1029600081E084CF2F923F924F925F926F927F923D
:102970008F929F92AF92BF92CF92DF92EF92FF928F
:102980000F931F93CF93DF93CDB7DEB765970FB645
:10299000F894DEBF0FBECDBF10928A0380E066DFE1
:1029A0008D8B811102C0B0DF8D8B412C512C3201F7
:1029B000D301C201A66089839A83AB83BC83D30110
:1029C000C201AA608D839E83AF83B887D301C20101
:1029D000A96089879A87AB87BC87D301C201A560AC
:1029E0008D879E87AF87B88BD301C201A460898B86
:1029F0009A8BAB8BBC8B730162016894E3F8530133
:102A000042016894A1F8689460F822242A94312C39
:102A10009D899F3F09F4D8C09D89911102C074DF40
:102A20008D8BA0E1AA95F1F780916A03863019F4A5
:102A3000B301A2012FC0823019F4B501A4012AC04C
:102A4000811103C0B701A60125C0843029F449894A
:102A50005A896B897C891EC0853029F44D855E8535
:102A60006F85788917C040E050E0BA01873029F4BB
:102A700049855A856B857C850DC0813029F44D814F
:102A80005E816F81788506C0833021F449815A8147
:102A90006B817C818091680384FD606187FD606249
:102AA00086FD606481FD02C0606802C0606871607C
:102AB00080FD726083FD746082FD786085FD7061C9
:102AC00080916B0390916C038101091B11092227EE
:102AD00017FD2095322F182B042B152B262B372B67
:102AE00040916D0350E060E070E080916E03F10171
:102AF000E81BF109CF01AA2797FDA095BA2FF09105
:102B00003F03742F662755274427E09140034E2B3F
:102B10005F2BDC0199278827482B592B6A2B7B2BAD
:102B2000579A5F9880E237FF09C0F5E0FA95F1F710
:102B300000005F9A95E19A95F1F708C0A5E1AA9582
:102B4000F1F700005F9AB5E0BA95F1F700005F98E1
:102B5000000F111F221F331F815029F780E277FFDA
:102B600009C0E5E0EA95F1F700005F9AF5E1FA9512
:102B7000F1F708C095E19A95F1F700005F9AA5E09A
:102B8000AA95F1F700005F98440F551F661F771F45
:102B9000815029F7BD89B13469F480E1E5E1EA9516
:102BA000F1F700005F9AF5E0FA95F1F700005F9801
:102BB0008150A1F785E08A95F1F7000057985F9A58
:102BC00081E054DE8D8B24CF80918A03882319F015
:102BD0009093410302C01092410365960FB6F8949A
:102BE000DEBF0FBECDBFDF91CF911F910F91FF9040
:102BF000EF90DF90CF90BF90AF909F908F907F909D
:102C00006F905F904F903F902F90089580E02EDE60
:102C100099B120E12A95F1F7811106C04F9B04C0BC
:102C200097FD02C081E1089580E008958AE391E074
:102C30000895089510928E0310928D0357985F9A0D
:102C40000895089520E22A95F1F7579A5F9894E045
:102C50009A95F1F7000098E087FF05C05F9A2DE094
:102C60002A95F1F708C029E02A95F1F700005F9A4C
:102C700024E02A95F1F700005F98880F24E02A9558
:102C8000F1F7915049F784E08A95F1F757985F9AE8
:102C900008953AE03A95F1F700C0579A5F9884E0BA
:102CA0008A95F1F7000020E180E095E097FF05C0EC
:102CB0005F9A3DE03A95F1F708C039E03A95F1F7AF
:102CC00000005F9A34E03A95F1F700005F98880FB2
:102CD000991F34E03A95F1F7215041F728E081E05F
:102CE00090E087FF05C05F9A3DE03A95F1F708C094
:102CF00039E03A95F1F700005F9A34E03A95F1F740
:102D000000005F98880F991F34E03A95F1F7215041
:102D100041F784E08A95F1F757985F9A089557989C
:102D20009BB19BB98F3F19F44F99FECF14C041E07E
:102D300050E060E070E08130A9F44F9B10C00000CB
:102D40004F5F5F4F6F4F7F4F403D37E05307610547
:102D5000710599F704C041E050E060E070E028E0C0
:102D600090E026C08230D9F44F9BF9CF00004F5F2E
:102D70005F4F6F4F7F4F403990ED590793E06907E0
:102D8000710591F7ECCF00004F5F5F4F6F4F7F4FA2
:102D9000403930ED530733E06307710501F34F9974
:102DA000F2CFDDCF3AE03A95F1F700C0215041F083
:102DB000990F39E03A95F1F74F9BF4CF9160F2CF3C
:102DC000811107C040325E446105710589F0892F89
:102DD0000895813031F4403D574061057105B9F7E0
:102DE00007C08230A1F74039504D6340710579F733
:102DF0008EEF089582E093DF9AE19A95F1F700C093
:102E000099B1813031F4892F8078803811F483E2D0
:102E1000089580E0089580918303882309F49CC07D
:102E20008091860331E0833209F030E091E0803117
:102E300009F090E0392B91E08F3209F090E0932B6C
:102E400031E0813409F030E0392B21E0893709F095
:102E500020E0232B91E0382F3F7D333509F090E0BF
:102E6000922B21F48B7F8B3109F048C0809168034D
:102E7000982F9C709C3021F48061809368033EC041
:102E800082FF04C08B7F80936803089583FF36C060
:102E9000982F977F9093680380916A03863011F48E
:102EA000946013C0823021F48091690382601BC05A
:102EB000811104C080916903816015C0843011F4D0
:102EC000986003C0873021F495609093680341C0F7
:102ED000853021F4809169038C6005C0813031F424
:102EE0008091690383608093690333C0833089F5DF
:102EF000809168038A60809368032BC080916A0385
:102F00008630B9F08230E1F0811103C010926C0379
:102F100020C0843021F48FEF80936C031AC0873077
:102F200019F410926C0305C0853031F48FEF809353
:102F30006C0310926B030DC0813021F410926C036E
:102F40008FEF05C0833029F48FEF80936C0380935B
:102F50006B038FEF80936A030895DF92EF92FF92E5
:102F60000F931F93CF93DF931F92CDB7DEB78BB133
:102F70008F7C8BB925E32A95F1F700008FEFEFECFA
:102F8000EE2EFFE2DF2E1FE70FEFFF24F39420ED7C
:102F900037E090E049B1440F440B9F5F94232150E8
:102FA00031092115310509F403C2953098F31092C7
:102FB0008C0310928B031092900310928F038983DD
:102FC0002ADF90916A038981963031F420918B0336
:102FD00030918C03326037C0923031F420918B03F2
:102FE00030918C0331602FC0911106C020918B036A
:102FF00030918C03386027C0943031F420918B03DA
:1030000030918C0334601FC0953031F420918B03D4
:1030100030918C03366017C0973031F420918B03C8
:1030200030918C033A600FC0913031F420918B03C2
:1030300030918C03396007C0933049F420918B03A1
:1030400030918C03356030938C0320938B039091E7
:10305000680394FF09C020918B0330918C03306288
:1030600030938C0320938B0397FF09C020918B032F
:1030700030918C03206130938C0320938B0396FF57
:1030800009C020918B0330918C03206230938C0314
:1030900020938B034091690340FD04C020916E038F
:1030A000243648F420918B0330918C0328603093B0
:1030B0008C0320938B0393FD04C020916E0327396A
:1030C00048F020918B0330918C03246030938C0363
:1030D00020938B0392FD04C020916D03243648F4A5
:1030E00020918B0330918C03226030938C032093CA
:1030F0008B0341FD04C020916D03273948F02091D6
:103100008B0330918C03216030938C0320938B03CD
:1031100091FF09C020918B0330918C03306830936C
:103120008C0320938B0390FF09C020918B03309177
:103130008C03306430938C0320938B0395FF09C07C
:1031400020918B0330918C03306130938C0320935A
:103150008B0390916B03903D10F0E0926B03909184
:103160006B039F3210F4D0926B0390916C03903DEF
:1031700010F0E0926C0390916C039F3210F4D092A7
:103180006C0320916B03205830E0322F222790915E
:103190006C03412F491B242B3093900320938F0302
:1031A000BEDD813009F051C08AE08A95F1F700C098
:1031B000579A5F9894E09A95F1F7000020E180918A
:1031C0008B0390918C0397FF05C05F9AEDE0EA9521
:1031D000F1F708C0F9E0FA95F1F700C05F9A34E022
:1031E0003A95F1F700005F9880918B0390918C03E2
:1031F000880F991F90938C0380938B032150F9F6CD
:1032000020E180918F039091900397FF05C05F9A12
:103210004DE04A95F1F708C089E08A95F1F700C0C2
:103220005F9A94E09A95F1F700005F9880918F0380
:1032300090919003880F991F9093900380938F0330
:103240002150F9F600C000C084C0811103C021DD07
:1032500081E09DCE8F3F49F40F90DF91CF911F9178
:103260000F91FF90EF90DF9014CD823009F075C080
:10327000E3E0F1E03197F1F700C0000080918D03A9
:10328000882309F452C0FAE2FA95F1F700C0579A80
:103290005F9822E02A95F1F7000080E091E020E8B5
:1032A00027FF0AC032E03A95F1F700005F9A4DE03F
:1032B0004A95F1F7000008C0E8E0EA95F1F700C090
:1032C0005F9AF5E0FA95F1F75F98269529F032E0DC
:1032D0003A95F1F700C001C020E80197009701F787
:1032E00000C000C0000088E098EB97FF05C05F9A1F
:1032F0004DE04A95F1F708C0E9E0EA95F1F70000E2
:103300005F9AF4E0FA95F1F700005F98990F24E0D6
:103310002A95F1F7815049F734E03A95F1F700002A
:1033200057985F9A10928D0393CF40E24A95F1F738
:10333000579A80E191E05F9AE4E0EA95F1F75F98AF
:10334000FCE0FA95F1F701970097A9F725E02A9597
:10335000F1F7000057985F9A7BCF833031F587EF04
:1033600090E00197F1F700C0000080E0D8DCE8EDC4
:10337000FFE03197F1F7803821F4F0928D0388EB6C
:1033800012C08E3F11F481EE0EC08B3111F480E03B
:103390000AC0813021F4009341038BEE04C08111F7
:1033A00057CF109241034EDC53CF8E3F09F050CFE0
:1033B0000F90DF91CF911F910F91FF90EF90DF90D1
:1033C000089584E491E0089508958AB18C708AB9D3
:1033D0008BB1836F8BB983EF8093110380931203BA
:1033E00080931303809314038093150346983E98AB
:1033F00088E08093810082E080936F008FEF91E0FE
:1034000090938900809388001092170310921603FE
:10341000109242030895B19A109285001092840090
:1034200010928100F894089589B1837F833F09F059
:1034300008958FEF9CE7369B09C0369B0AC0019721
:103440000097D9F7F5CF0197009791F3369BFBCF03
:103450000EC089B1837F833F59F780E58A95F1F7E4
:1034600089B1837F833F21F736990EC0E1CF89B1BF
:10347000837F833FE9F680E58A95F1F789B1837F01
:10348000833FB1F63699D4CF85E208951092420376
:1034900090918100956090938100789410928500BE
:1034A00010928400813031F4862FF82F3699FECFA8
:1034B000FBB905C0862FF82F369BFECFFBB9B19A1A
:1034C000109285001092840010928100F8948091EF
:1034D0004203882369F03E988AE68A95F1F700C096
:1034E000369903C08BB18F7302C08BB1836F8BB9D8
:1034F0008091420308958AB1836F8AB983EF8093E4
:103500001103809312038093130380931403809319
:1035100015038091680385FF03C092EF9093150314
:1035200080FF05C0909115039D7F909315039091A6
:1035300015039F739093150387FF03C092EF909339
:10354000140381FF05C0809114038D7F80931403C1
:103550000E944C0980916A039FEF980F933078F492
:1035600090911103906890931103909115039F77A8
:1035700090931503909114039F77909314039BEFFE
:10358000980F933090F490911103906490931103ED
:10359000909115039F7B90931503909114039F7B4B
:1035A00090931403873099F402C0811110C0909158
:1035B0001103906190931103909115039F7E909356
:1035C0001503909114039F7E9093140302C08130E1
:1035D00071F38350833078F480911103806280937B
:1035E0001103809115038F7D80931503809114033F
:1035F0008F7D809314038091680386FF05C09091AE
:1036000012039F7E9093120383FF05C090911203D3
:103610009F7D9093120382FF05C0909112039F7BC0
:103620009093120384FF05C0809112038F778093DB
:10363000120336990AC06091140380E027DF8111DC
:103640000DC06091150381E008C06091150381E011
:103650001DDF811103C06091140318CF08954BCF73
:103660008EE491E0089508951092180381E080930C
:103670001903579856988AB18F7C8AB93E985E9AFA
:103680005F9A8BB180638BB9469A089508954E9BDB
:10369000FECF8FEC97E00197F1F700C000004F9B41
:1036A00014C04E9912C04E9BFECF4F99FECF8FE8AB
:1036B00091E00197F1F700C000004F9B02C080E04D
:1036C00001C08FE24F9903C0089580E0089581E220
:1036D0000895EF92FF920F931F93CF93DF931F9262
:1036E000CDB7DEB790916503913211F09F3239F476
:1036F00089830E944C0920E030E0898162C09F31BB
:1037000009F04BC020916C0390916B032E3420F490
:103710009E3440F497E01EC0233B60F09E3430F4AA
:1037200095E018C0933B30F091E014C0933B10F04B
:1037300093E010C09E3410F496E00CC0933B10F060
:1037400092E008C02E3418F410926A0305C0233B9F
:1037500018F094E090936A0320916E0390916D03AA
:103760002E3418F49E34E0F005C0233B40F09E3424
:10377000D0F003C0933B18F502C0933BB8F49E34DD
:10378000C0F0933BC8F42E34D0F041E090E0233BEE
:1037900008F440E0242F392F14C020E030E011C09D
:1037A00022E230E00EC023E030E00BC021E130E047
:1037B00008C022E030E005C020E130E002C020E394
:1037C00030E090916A03911102C020611BC09430D7
:1037D00011F4206217C0963011F4206413C09230A7
:1037E00011F420680FC0973011F420650BC095309C
:1037F00011F4206607C0913011F4206903C09330A2
:1038000009F4206A9091680395FD286094FD246076
:10381000409165034132A9F591FD216090FD226040
:1038200040916F0341110FC04091700341110BC0D3
:10383000409183034111A1C140916B0350E04115B8
:10384000510509F497C1937061E070E011F060E0F8
:1038500070E071956195710991EE941B990F911D1E
:10386000492F91FB47F992FB46F993FB45F995FBEC
:1038700043F996FB42F997FB41F950E0E0E0F0E0B4
:1038800082C14F31B1F490FD306191FD3062592F0A
:10389000547092FD2260492F487093FD21605111B0
:1038A00032604111316096FD346097FD3860306CB4
:1038B00064C14F3209F061C190FD216092FD226028
:1038C00093FD316091FD326096FD346097FF02C038
:1038D000386053C140911903909183034430C1F182
:1038E000911105C0909118039F5F909318039091D8
:1038F0001803933310F140916B0350E04B305105A6
:10390000CCF440916D0350E04B3051059CF4409154
:103910006C0350E04B3051056CF440916E0350E065
:103920004B3051053CF490916F03911103C090917D
:103930007003911130681092180344E640931D0300
:1039400090EA90931C0340931B0390931A0315C1B4
:103950003068992351F091E0909319033F77EFE39A
:10396000FCE93197F1F700C00000A0916F0390913E
:103970006803E0918603A11130C0A0917003A111EA
:103980002CC096FD02C0E53429F440E840936E0354
:1039900040936D0397FF05C040E840936C0340934C
:1039A0006B03F0916B03A0916D036F2F70E04A2FB2
:1039B00050E0641775071CF0AF2F10E001C011E054
:1039C000F0916C03B0916E036F2F70E04B2F50E0BD
:1039D0006417750724F0BF2F02C0B0E810E0E4546C
:1039E000E23018F041E0412701C040E0E42FE170EF
:1039F00040911C034B1710F4B0931C0340911D031E
:103A0000B41710F4B0931D0340911A034A1710F431
:103A1000A0931A0340911B03A41710F4A0931B0357
:103A2000EE23A1F06B2F70E040911C0350E04E504C
:103A30005109641775070CF06DC140911D0350E0EA
:103A4000425F5F4F461757070CF067C140911E0356
:103A50004B17D0F4FB2FF41B4F2FF93C08F040E03C
:103A600011114695440F411D042E01FA47F902FA3F
:103A700046F903FA45F905FA43F906FA42F907FA55
:103A800041F950E04E7F18C04B1B493C08F040E024
:103A900011114695440F411D542F41FB57F942FB2C
:103AA00056F943FB55F945FB53F946FB52F947FBE1
:103AB00051F95160452F50E0EE23B1F0EA2FF0E0CC
:103AC00060911A0370E06E507109E617F70714F061
:103AD0005E6F3FC060911B0370E0625F7F4F6E17A7
:103AE0007F0714F05F6F35C060911F036A17D0F431
:103AF0007A2F761B672F793C08F060E011116695EC
:103B0000660F611D062E01FA67F902FA66F903FADB
:103B100065F905FA63F906FA62F907FA61F9562BB5
:103B20005E7F17C06A1B693C08F060E01111669562
:103B3000660F611D062E01FA67F902FA66F903FAAB
:103B400065F905FA63F906FA62F907FA61F9516055
:103B5000562BB0931E03A0931F03FA01ED7FFD7F48
:103B60002227307F492F4F7009F0326095FF07C040
:103B7000316005C0E0E0F0E004C0E0E0F0E040E0EB
:103B800050E060E070E0909165039F3221F09F313A
:103B900011F018E001C010E1811103C0AFE0B4EAF8
:103BA0000CC0A3EFB1E04E990AC011971097D9F756
:103BB000B7C01197109709F4B3C04E9BFACFABB1C1
:103BC000A063ABB900E0A1E0B0E07D01E222F32206
:103BD000EF2811F05D9801C05D9A7D01E622F72281
:103BE000EF2811F05C9801C05C9A7D01E422F52277
:103BF000EF2811F0469801C0469AAA0FBB1F4F99B3
:103C0000FECF9F3211F44F9BFECF0F5F0117E8F2FA
:103C1000913241F490E59A95F1F74F9903C09FE1F5
:103C20009093650337FF72C0882309F46FC08091B9
:103C30001903813009F03DC0E5E0EA95F1F7000095
:103C4000809319038BE795E124E04E9907C04F9BC1
:103C50002093190301970097C1F762C080E090E0BC
:103C600074E0F5E0FA95F1F700006CE021E030E057
:103C7000A90148235923452B11F05D9801C05D9A95
:103C8000220F331F4F99FECF615091F770931903A4
:103C90009C5F5D9A23E833E04E9906C021503109BC
:103CA00021153105C9F73CC081152CE09207C9F6F2
:103CB00037C055E05A95F1F7000081E08093190371
:103CC00080E190E021E030E0A9014E235F23452B05
:103CD00021F05D9841E050E002C05D9AFBCF4F9B20
:103CE00003C04F5F5F4FFBCF49395A43C8F4220FDF
:103CF000331F0197009741F78FE99FE00197F1F794
:103D000000C0000084E0809319030AC05D985C98AD
:103D1000469806C04EEF50E0D1CE4FEF50E0CECEE9
:103D20000F90DF91CF911F910F91FF90EF90089529
:103D3000559A549A3E9A80E090E0CBDC80916503DE
:103D4000813219F481E090E0C4DC80916503813216
:103D500019F481E090E0BDDC80916503813219F4B3
:103D600081E090E0B6DC87EC90E00197F1F700C0CD
:103D70000000089588E591E0089508955198599AB2
:103D80003E98469A509A109221031092200308956B
:103D9000089570E090E06115710569F19B01282399
:103DA0003923232B11F0589A0AC0589808C0369925
:103DB00017C02F5F3F4F30936D0120936C0120910E
:103DC0006C0130916D01283840E9340780F308C058
:103DD000369B0EC02F5F3F4F30936D0120936C01D7
:103DE00020916C0130916D01283840E9340780F34F
:103DF00076956795D0CF58980895DF92EF92FF920D
:103E00000F931F93CF93DF93D0906B03E0906C03DD
:103E1000F090700380918303882329F0109221038E
:103E2000109220030AC08EEC8D0D873930F081E0AE
:103E300090E0909321038093200380912003909140
:103E4000210320916A03309168034091690301972F
:103E500041F5243049F0222351F0223059F0263028
:103E600061F000E010E00BC000E014E008C000E0EA
:103E700018E005C000E012E002C000E011E030FDF3
:103E8000106431FD106136FD106837FD106135FD9D
:103E9000006834FD006441FD006140FF37C00062EE
:103EA00035C0253009F404C1273009F404C121309C
:103EB00059F02330B1F02430B9F0C0E0D0E821113E
:103EC00006C0C0E0D8E812C0C0E0D4E90FC022307C
:103ED00019F4C0E0D4E80AC0263041F4C0E0D2E8CA
:103EE00005C0C0E0D2E902C0C0E0D0E930FDD16039
:103EF00031FDC06837FDC06435FDC06234FDC0616E
:103F000041FDC86040FF04C0C46002C0CBE7D1E0FF
:103F100020ED37E080E0369902C08F5F01C080E07D
:103F200090E19A95F1F7215031092115310509F4F5
:103F3000C5C0853080F3509A20916C0130916D019D
:103F4000283880E9380748F4369913C02F5F3F4F6F
:103F500030936D0120936C01EFCF2838304949F43C
:103F6000ADC0369B0EC02F5F3F4F30936D01209345
:103F70006C0120916C0130916D01283880E938077F
:103F800080F38091200390912103019711F45898B8
:103F90000AC0589A08C036990EC02F5F3F4F309321
:103FA0006D0120936C0120916C0130916D012838D6
:103FB00090E9390780F381E090E090936D01809360
:103FC0006C01D7FF02C0589A01C0589885E18A95C4
:103FD000F1F7000036996AC060E48D2FDADE60E800
:103FE0008C2FD7DE2091200330912103232B09F45D
:103FF0005DC060E888E0CDDE60E88D2DCADE82E03D
:1040000020916C0130916D01283890E9390788F4CE
:1040100036990FC02F5F3F4F30936D0120936C0195
:10402000EFCF369B0EC02F5F3F4F30936D01209333
:104030006C0120916C0130916D01283890E93907AD
:1040400080F38150E9F660E88E2DA3DE82E02091B6
:104050006C0130916D01283890E9390788F4369960
:104060000FC02F5F3F4F30936D0120936C01EFCF56
:10407000369B0EC02F5F3F4F30936D0120936C0134
:1040800020916C0130916D01283890E9390780F357
:104090008150E9F660E88F2D7CDE68E082E079DE11
:1040A00060E8812F76DE60E8802F73DE589A06C0C4
:1040B000C0E0D2EA1BCFC0E0D4EA18CFDF91CF91A5
:1040C0001F910F91FF90EF90DF90089581E090E0B5
:1040D00090936D0180936C0180916C0190916D01C2
:1040E000883820E9920720F4369907C00196F0CF6E
:1040F0008838904911F480E0089587E998E00197A5
:10410000F1F700C000003699F6CF81E090E090937F
:104110006D0180936C0180916C0190916D018838E4
:1041200020E9920720F4369905C00196F0CF88382F
:10413000904909F3499BDFCF8FED9EE20197F1F79C
:1041400000C000004F9BD7CF8BE2089582E691E03C
:10415000089508951092920310929103089508957E
:1041600083B18E3F59F481E090E090939203809365
:10417000910390932303809322030FC083B18C3F5C
:1041800059F481E090E09093920380939103109210
:1041900023031092220301C0089581E308950E9431
:1041A0004C0980916A03843081F0823081F0882349
:1041B00081F0863081F0873081F0853081F0813068
:1041C00081F0833081F020E00FC020E40DC020E1B9
:1041D0000BC020E809C020E207C020EA05C020E6A5
:1041E00003C020E901C020E540916803642F61709D
:1041F00040FD02C050E001C050E4809191039091D5
:104200009203342F32708130910571F46111216075
:104210003111226030917B0332FD206C44FD20631C
:1042200045FF1DC0206E1BC061112160311122604D
:1042300042FD02C030E001C030E843FD306446FD7D
:10424000306247FD30614091690340FD386041FDB7
:10425000346046FD326047FF03C0316001C030E08A
:10426000EBB178B165B1009709F499C0422F409540
:10427000E36F4E23019719F483E0842701C0842F54
:104280008BB98091220390912303892B09F068C098
:1042900040916F0341110DC080917003811109C0DD
:1042A00080918303811157C080916803807F09F456
:1042B00052C08AB1816F8AB93E9A8091680380FFAB
:1042C00002C0469801C0469A411126C04091700331
:1042D000411122C08091830381111EC08091680327
:1042E000807FD1F050916B0340916D03252F30E01A
:1042F0002058310937FF03C0319521953109842FAA
:1043000090E08058910997FF03C09195819591099C
:10431000281739070CF0452F40FB87F941FB86F938
:1043200042FB85F943FB84F9042E04FA47F905FAA8
:1043300046F906FA45F907FA44F9589A807F8BB98D
:1043400083ED90E00197F1F700C000005898407F9E
:1043500041604BB908958BB183608BB921FD5898AA
:10436000852F8095972F9064892388B9832F809516
:10437000962F9E6F892385B9809191039091920326
:10438000019709F423602AB98091220390912303B5
:10439000892B19F48AB183608AB957B934B9089561
:1043A0008EE691E008950895089510922A031092E0
:1043B00024033E9A469A8AB1806F8AB98BB18FEFF7
:1043C0008BB910922C0382E080932B0308958FEC1D
:1043D0008BB989B18370833011F580E090E029B109
:1043E0002370213029F0019681152AEF9207B9F741
:1043F0002FEF2BB981159A4F91F020E030E089B171
:104400008370813031F42F5F3F4F21158AEF3807D9
:10441000B1F78FEC8BB981E021153A4F09F480E0B8
:104420000895D5DF882359F08FE39CE90197F1F7D0
:1044300000C00000CCDF89B1837019F0089580E0DE
:10444000089589E1089599B19370E9F7982F9F60D5
:104450009BB9469899B193709130E1F720E1829F22
:10446000C00111248F608BB9469A08951F93CF9392
:10447000DF9390916A03953089F0973091F09130F5
:1044800099F09330A1F09923A9F09430B1F09630CF
:10449000B9F09230C1F0CFEFDFEF17C0CFE9DFEF17
:1044A00014C0CFEADFEF11C0CFE6DFEF0EC0CFE5DB
:1044B000DFEF0BC0CFEEDFEF08C0CFEDDFEF05C0C1
:1044C000CFEBDFEF02C0CFE7DFEF80916803382F3B
:1044D000327081FDCE7F87FF05C0911102C0DF776A
:1044E00001C0CD7F80FDCB7F85FDC77F582F5074E5
:1044F00086FF05C0911102C0D77F01C0DF7E83FD1A
:10450000DF7D482F447082FDDF7B2091690321FD10
:10451000DF7720FDD77F20912A03213009F448C09E
:104520001092240320918603253451F0203431F079
:104530002A3079F4552321F0CE7F02C04111D77F74
:1045400010922A0322E020932C0323E020932B03D4
:104550001FC040916F03442381F0233771F4311160
:10456000CB7F23E020932B0322E020932C03209386
:104570002A0321E0209324030BC020916B032253D4
:10458000273930F026E020932B0321E020932C03E1
:10459000943071F48378833859F482E080932C034B
:1045A00083E080932B0381E080932A03809324038C
:1045B00080918303882349F010922C0382E080933A
:1045C0002B0310922A03109224038FE18BB989B137
:1045D0008370E9F710912B0380912C0320E1829FD7
:1045E000C0011124812B2FDF133009F078C0C09552
:1045F000D09580912A03823019F420916F0307C06F
:10460000833019F42091700302C020916B03822F34
:1046100090E030912903831B91092093290397FD92
:1046200002C0CF7E01C0C061309186034091240357
:10463000343471F0442361F0283C20F0CF7E88E3CD
:104640009FEF13C0213420F4C06188EC90E00DC0CE
:104650009C012A513F4F2D3C314038F0CF7E809154
:10466000270384FDC0618091260391E0980F909309
:104670006B038093260320916C03822F90E030918E
:104680002803831B9109209328031816190614F494
:10469000C06201C0CF7D442361F0283C20F0C0629D
:1046A00082E390E013C0213420F4CF7D8EEC9FEFA5
:1046B0000DC09C0126503F4F253F314038F0CF7D43
:1046C0008091270385FDC06280912503982F9195E5
:1046D00090936C0380932503CF73C09327038C2F93
:1046E000B2DE133049F480916B03ADDE80916C0330
:1046F000AADE153030F40DC08D2FA5DE133048F042
:10470000F2CF809171039FDE153019F08091720312
:104710009ADE81E098DE87EC90E00197F1F700C027
:104720000000DF91CF911F91089588E791E00895EF
:1047300008958AB1836F8AB988E08093810082E00E
:1047400080936F00E8E8F0E08FEF91E09183808341
:104750008FEF808381E0809389000895B19A109251
:1047600085001092840010928100F89408952FEF34
:1047700089E698E1215080409040E1F700C00000B8
:104780001C9903C020E22A95F1F780E090E01C9B81
:104790000BC0019681152AEF9207C9F712C0019646
:1047A00081152AEF920769F01C9BF9CF1D9908C06B
:1047B0008FE99FE00197F1F700C0000085E10895BF
:1047C000089508950E944C099091680395FD02C0D8
:1047D0002FEF01C02DEF97FD2F7780916A03823074
:1047E00011F42F7B1BC0863011F42F7D17C084304D
:1047F00011F42F7E13C0811102C02E7F0FC08730AD
:1048000011F42E7D0BC0853011F42F7C07C0813050
:1048100011F42E7B03C0833009F42F7A91FD02C07E
:104820005FEF01C05FE78091690380FD5F7B83FDDF
:104830005F7D86FD5F7E60917B0361FD5E7F90FD05
:1048400002C04FEF01C04FE781FD4F7B84FD4F7DDC
:1048500087FD4F7E62FD4E7F94FF02C03FE701C09F
:104860003FEF82FD3F7B85FD3F7D60FD3F7E63FD29
:104870003E7F1F9B04C01C9B04C080E003C081E0FE
:1048800001C082E0909181009560909381007894BE
:104890001092850010928400813029F08230A1F0BE
:1048A00080E090E029C01F9BFECF809142038111E0
:1048B0004FC02BB91C9BFECF5BB91D9BFECF4BB9E4
:1048C0001E9BFECF3BB944C01C9BFECF8091420390
:1048D00081113EC05BB91D9BFECF4BB91E9BFECF25
:1048E0003BB91F9BFECF2BB91C9BFECF31C001965D
:1048F00081156AEF9607B1F11C99F9CF60914203D7
:10490000611126C02BB91C9906C0019681152AEFAA
:104910009207C9F727C05BB91D9906C0019681159A
:104920006AEF9607C9F71EC04BB91E9906C00196DB
:1049300081152AEF9207C9F715C03BB91F9906C028
:10494000019681156AEF9607C9F70CC083EF8BB902
:10495000B19A109285001092840010928100F89410
:1049600010924203089582E891E0089508958AB173
:1049700081678AB908950895803124EA920720F466
:104980004F9906C00196F8CF803124EA920739F09A
:1049900028E02A95F1F7369B02C04F9905C080E0C8
:1049A0000895369B09C00196803124EA9207C8F326
:1049B000803124EA920799F34F9BF1CF03C04F9BBC
:1049C00008C00196803124EA9207C8F38031944AE6
:1049D00031F396B1892F807496FDE1CF4F9B87E22A
:1049E0000895CF93DF930E944C093091680335FD01
:1049F00002C09FEF01C09FEE20916A03223009F4AC
:104A00006AC0263009F469C0243049F0222389F0B5
:104A1000273089F08FEF253021F48FEA0DC08FEB1E
:104A20000BC0213011F48EED07C0233029F48EEB3A
:104A300003C08FED01C08FEC31FD9F7D30FD9E7F67
:104A400034FD9F7B232F2C7C69F037FD02C02FEFB4
:104A500001C02FED33FD2F7E32FD2F7B36FF07C0C7
:104A60002E7F05C0292F382F9FEF8FEF05C03EE81E
:104A700003C0369905C02196C03144EAD407C8F373
:104A80003BB903C04F9B05C02196C03144EAD4070F
:104A9000C8F32BB93E3841F084EF91E0369906C057
:104AA00001970097D9F702C0292F382F80E090E0B6
:104AB000369905C00196843F41E09407C9F73BB998
:104AC0004F9B05C00196803134EA9307C8F32BB998
:104AD000DF91CF9108958EEFAFCF8FEEADCF8CE801
:104AE00091E00895089584B18FEF84B908950895F1
:104AF0008BE10895CF93E2EBF1E020E030E0C0E0FD
:104B0000DC01022E02C0B595A7950A94E2F7AB012D
:104B1000022E02C0559547950A94E2F71816190619
:104B20003CF46A0F7B1F841B950B4081C40F06C0A9
:104B30006A1B7B0B840F951F4081C41B2F5F3F4F67
:104B4000319625303105E1F68C2FCF910895CF9322
:104B5000DF93D0916B03D058C0916C03C0586D2F78
:104B6000772767FD709577FF03C07195619571098F
:104B70008C2F992787FD90956333710564F49C0110
:104B800097FF04C022273327281B390B2333310515
:104B900014F48FEF68C097FF03C091958195910938
:104BA000A9DF90E0D7FD1FC01C1674F48B3091056F
:104BB0000CF444C081329105DCF188339105D4F1C5
:104BC0008E349105CCF12EC0CC2319F38B30910596
:104BD000ACF181329105A4F1883391059CF18E34BA
:104BE000910594F10EC0C7FF11C08B309105A4F15F
:104BF000813291055CF18833910554F18E34910531
:104C00004CF18A3591052CF68FEB2DC08B30910538
:104C10001CF18132910514F1883391050CF18E3429
:104C2000910504F18A3591050CF0B3CF8FEE1BC0CE
:104C30008EED19C08EEC17C08FEC15C08FED13C030
:104C40008FE911C08EE90FC08EEB0DC08EE70BC04F
:104C50008EE309C08FE307C08FE705C08FE603C06E
:104C60008EE601C08EEE90916A03209168039F3F0B
:104C700001F1943011F48F7E3CC0923011F48F7D9D
:104C800038C0911102C08F7B34C0963011F48F77F9
:104C900030C0973011F48E732CC0953011F48E769D
:104CA00028C0913011F48E7924C0933011F58E7C98
:104CB00020C09091690390FD877E91FD8B7E92FDCF
:104CC0008D7E93FD877D94FD8B7D95FD8D7D96FD7D
:104CD000877B97FD8B7B90917B0390FD8D7B91FD76
:104CE00001C024FD877792FD8B7793FD01C025FDE0
:104CF0008D7720FD897F21FD857F22FD01C027FD65
:104D0000837F85B9DF91CF91089586E991E0089579
:104D100008958FEF85B98BB98FE084B93E988AB139
:104D200080638AB98AB18F738AB9089508958FEF25
:104D30008093300380932F0380932E0380932D0361
:104D400010923203109231038091690380FF03C0F7
:104D50009DEF90932F0381FF03C09DEF90932E034F
:104D600082FF03C09DEF90932D0383FF05C09091B8
:104D70002F039B7F90932F0384FF05C090912E03F8
:104D80009B7F90932E0385FF05C090912D039B7F01
:104D900090932D0386FF05C090912F03977F9093EA
:104DA0002F0387FF05C080912E03877F80932E03FA
:104DB00080917B0380FF05C090912D03977F909396
:104DC0002D0381FF05C090912F039E7F90932F03A9
:104DD00082FF05C090912E039E7F90932E0383FF48
:104DE00005C080912D038E7F80932D0380916803F1
:104DF00084FF03C09DEF9093300385FF05C0909121
:104E000030039B7F9093300382FF05C09091300365
:104E1000977F9093300380FF02C05C9801C05C9A3A
:104E20008091680381FF02C05D9809C05D9A07C048
:104E30004E9B11C001969093320380933103809171
:104E4000310390913203883622E4920788F3883642
:104E5000924409F4E0C010923203109231031C9B7B
:104E600017C08091310390913203853FF1E09F0795
:104E700010F0589A6BC001969093320380933103DF
:104E8000EECF1C9B0DC001969093320380933103AB
:104E90008091310390913203883622E4920788F39F
:104EA0008091300385B98091310390913203883627
:104EB000E2E49E0740F41D9B06C0019690933203E6
:104EC00080933103F0CF80912F0385B98091310316
:104ED000909132038836F2E49F0740F41E9B06C08F
:104EE00001969093320380933103F0CF80912E038B
:104EF00085B98091310390913203883622E492077C
:104F000040F41F9B06C001969093320380933103B7
:104F1000F0CF80912D0385B98091310390913203B8
:104F20008836E2E49E0740F41C9B06C001969093ED
:104F3000320380933103F0CF8FEF85B907C04E99CC
:104F40000DC0019690933203809331038091310319
:104F5000909132038836F2E49F0788F38AB1806C1F
:104F60008AB98BB18F738BB98AB1806C8AB9409141
:104F70006B0350916D03242F30E02058310937FF27
:104F800003C0319521953109852F90E08058910912
:104F900097FF03C0919581959109281739070CF067
:104FA000542F60916C0340916E03262F30E02058FF
:104FB000310937FF03C0319521953109842F90E0E5
:104FC0008058910997FF03C0919581959109281701
:104FD00039070CF0462F80916F03811101C0852F96
:104FE00090917003911101C0982F80E0891708F00B
:104FF0005F9A841708F05E9AEBEDF0E03197F1F7D5
:1050000000C000008F5F8F3F89F78BB1806C8BB938
:105010008AB18F738AB908958FE193E00197F1F710
:1050200000C00000109232031092310380913103CE
:1050300090913203883622E4920778F41C9B0DC0CD
:1050400001969093320380933103F0CF1D9B15C0DE
:1050500001969093320380933103809131039091B4
:105060003203883622E4920788F307C01E9B15C0DE
:105070000196909332038093310380913103909194
:105080003203883622E4920788F307C01F9B12C0C0
:105090000196909332038093310380913103909174
:1050A0003203883622E4920788F38836924411F45A
:1050B00080E008958BE0089580EA91E0089580B340
:1050C000806680BB81B3806681BB089520B380B3C6
:1050D0008F7980BB9FB120BB907681E009F480E09E
:1050E00008959FB1907651F428E632E49FB190760E
:1050F00039F42150310921153105C1F78EEF08959A
:1051000096E09A95F1F700C09FB19076B9F790E1DB
:105110009A95F1F7E3E4F3E040E0481709F4B1C0F1
:10512000908196959083000000007D9B03C000C095
:1051300000C002C09068908394E19A95F1F7908145
:1051400096959083000000007D9B03C000C000C0C6
:1051500002C09068908394E19A95F1F790819695BA
:105160009083000000007D9B03C000C000C002C00F
:105170009068908394E19A95F1F790819695908349
:10518000000000007D9B03C000C000C002C090680A
:10519000908394E19A95F1F7908196959083000021
:1051A00000007D9B03C000C000C002C090689083D7
:1051B00094E19A95F1F79081969590830000000014
:1051C0007D9B03C000C000C002C09068908394E142
:1051D0009A95F1F7908196959083000000007D9B51
:1051E00003C000C000C002C09068908394E19A950B
:1051F000F1F7908196959083000000007D9B03C09D
:1052000000C000C002C0906890837D9B17C020E062
:1052100030E07D9B0BC02F5F3F4F2C3D95E0390761
:10522000C1F704C07D9906C02F5F3F4F2C3D95E02C
:105230003907C1F796E09A95F1F720C020E030E0F9
:105240007D990BC02F5F3F4F2C3D95E03907C1F78B
:1052500004C07D9B0BC02F5F3F4F2C3D95E039076D
:10526000C1F704C07D9906C02F5F3F4F2C3D95E0EC
:105270003907C1F795E09A95F1F700004F5F319635
:105280004CCF85E38A95F1F70000809143030895A0
:1052900090B39F7990BB28E632E49FB1907639F4C1
:1052A0002150310921153105C1F78FEF08959AE199
:1052B0009A95F1F700C090B3906690BB91B39F7937
:1052C00091BB27E02A95F1F798E08D9A2AE02A957C
:1052D000F1F700C080FD8D982AE02A95F1F700C013
:1052E0008695915091F78D9A85E08A95F1F70000A7
:1052F0008D9890E19A95F1F781B3806681BB80B378
:105300008F7980BB2AE12A95F1F700C080E00895EB
:105310008AEA91E00895982F973058F59093E90024
:10532000981739F07091EC002091ED005091F00049
:1053300003C0242F762F50E021FF19C03091EB00DD
:105340003E7F3093EB003091ED003D7F3093ED00D8
:105350003091EB0031603093EB007093EC002093C0
:10536000ED005093F0002091EE0027FF07C09F5FF3
:10537000D3CF8F708093E90081E0089580E0089595
:1053800017D01ED0E0EEF0E0808181608083E8EDF0
:10539000F0E080818F77808319BCA7EDB0E08C911D
:1053A0008E7F8C9380818F7E8083109296030895E8
:1053B000E8EDF0E080818E7F80831092E200089516
:1053C0001092DA001092E10008951F920F920FB62A
:1053D0000F9211242F933F934F935F936F937F937B
:1053E0008F939F93AF93BF93EF93FF938091E100CF
:1053F00082FF0AC08091E20082FF06C08091E10036
:105400008B7F8093E100A5D08091DA0080FF1DC0E2
:105410008091D80080FF19C08091DA008E7F809340
:10542000DA008091D90080FF0CC080E189BD82E163
:1054300089BD09B400FEFDCF81E08093970389D038
:1054400004C019BC1092970384D08091E10080FFC2
:1054500018C08091E20080FF14C08091E2008E7F2E
:105460008093E2008091E20080618093E20080916D
:10547000D80080628093D80019BC85E080939703A0
:1054800068D08091E10084FF2DC08091E20084FF0C
:1054900029C080E189BD82E189BD09B400FEFDCF4C
:1054A0008091D8008F7D8093D8008091E1008F7E1D
:1054B0008093E1008091E2008F7E8093E2008091F2
:1054C000E20081608093E20080919303811104C027
:1054D0008091E30087FF02C084E001C081E08093F7
:1054E000970337D08091E10083FF22C08091E200D2
:1054F00083FF1EC08091E100877F8093E10082E0FE
:1055000080939703109293038091E1008E7F8093A4
:10551000E1008091E2008E7F8093E2008091E200C2
:1055200080618093E20042E360E080E0F4DE11D02D
:10553000FF91EF91BF91AF919F918F917F916F916B
:105540005F914F913F912F910F900FBE0F901F9041
:1055500018950895EE0FFF1F0590F491E02D099422
:10556000FB01DC0104C08D910190801921F44150B0
:105570005040C8F7881B990B0895FB01DC0102C05D
:1055800001900D9241505040D8F70895F894FFCF04
:10559000690B030CB50B680B7C0B950F950E8D0EEC
:1055A000820E870EE02080E02080E02080E02080D6
:1055B00000000000E02080E02080E02080E02080EB
:1055C000000000000000A42001013014B2140616EF
:1055D0002F1435141A16AD17FA1619162116E519D7
:1055E0002F1B141AE4190B1A341B981E471B331B6C
:1055F000461BBE1EFD1E6620BD1EC81E0100AA2041
:10560000CF20B020A920AF20D52136221122D321CE
:10561000D4219923E223B7239823AE23B724F1247E
:10562000BC24B624BB247325A725782572257725AD
:10563000892697260C28882696265F2871284829CF
:0856400066282D1B0E07040073
:00000001FF
