:10000000C1C00000DBC00000D9C00000D7C00000A4
:10001000D5C00000D3C00000D1C00000CFC0000098
:10002000CDC00000CBC0000070C60000C7C00000FB
:10003000C5C00000C3C00000C1C00000BFC00000B8
:10004000BDC00000BBC00000B9C00000B7C00000C8
:10005000B5C00000B3C00000B1C00000AFC00000D8
:10006000ADC00000ABC00000A9C00000A7C00000E8
:10007000A5C00000A3C00000A1C000009FC00000F8
:100080009DC000009BC0000099C0000097C0000008
:1000900095C0000093C0000091C000008FC0000018
:1000A0008DC000008BC0000089C000007408960855
:1000B0007B0996087B09D808FB087B094D095F0975
:1000C0001A034200720069006400670065002000A6
:1000D0002D0020005700690069005500000014033E
:1000E00042006C006900730073002D0042006F0035
:1000F00078000000040309040902290001010080BE
:10010000FA090400000203000000092111010001A6
:100110002250000705020340000507058103400047
:100120000512011001000000400D0FC10072050111
:1001300002000105010905A1011500250135004551
:10014000017501950E05091901290E81029502819B
:100150000105012507463B01750495016514093920
:10016000814265009501810126FF0046FF000930AC
:100170000931093209357508950481027508950120
:100180008101C00011241FBECFEFDAE0DEBFCDBF7A
:1001900011E0A0E0B1E0E2E7F3E102C005900D92CA
:1001A000A830B107D9F721E0A8E0B1E001C01D9265
:1001B000AC35B207E1F70CD20C94B70921CF1092FD
:1001C000290110922B0110922E01109231011092F0
:1001D000410110920E0110924001109232010895D7
:1001E000E0913201A091400130910E012091410136
:1001F0004091310170912E0160912B0150912901A4
:100200008A2F90E08E0F911D830F911D820F911DFB
:10021000840F911D870F911D860F911D850F911DD4
:10022000892B09F4BCC0F0912001FF3F21F0EF17AA
:1002300010F4F0933201E0912101EF3F21F0AE176D
:1002400010F4E0934001FF2321F0F31710F4F09332
:100250000E01EE2321F0E21710F4E0934101FF3F7D
:1002600071F0A09132012F2F30E08A2F90E0059796
:100270008217930724F4F150FA1BF0932001EF3F0B
:1002800071F0F09140012E2F30E08F2F90E0059714
:100290008217930724F4E150EF1BE0932101E091D2
:1002A0002001EE2369F0F0910E012E2F30E08F2F08
:1002B00090E00596281739071CF4EF1BE093200106
:1002C000E0912101EE2369F0F09141012E2F30E001
:1002D0008F2F90E00596281739071CF4EF1BE09349
:1002E0002101E0912301EF3F21F04E1710F4E0933C
:1002F0003101409124014F3F21F0741710F44093D5
:100300002E01EE2321F0E61710F4E0932B01442395
:1003100021F0451710F440932901EF3F71F05091FF
:1003200031012E2F30E0852F90E00597821793073B
:1003300024F4E150E51BE09323014F3F71F050910D
:100340002E01242F30E0852F90E005978217930728
:1003500024F44150451B4093240140912301442340
:1003600069F050912B01242F30E0852F90E0059605
:10037000281739071CF4451B4093230140912401A1
:10038000442369F050912901242F30E0852F90E01B
:100390000596281739071CF4451B4093240108953E
:1003A00080910D01811121C090913001903F98F012
:1003B00080911D01892320911E0182238F3F29F006
:1003C0009F3F19F481E080930D018DE0E3E3F1E0BC
:1003D000ACE1B1E005C08DE0ECE1F1E0A3E3B1E018
:1003E00001900D928A95E1F70FC08DE0E3E3F1E013
:1003F000ACE1B1E001900D928A95E1F78091300176
:10040000803F10F410920D0190910D0180912F0109
:100410009923C9F081110BC08AE080932F0180914C
:100420001D01806280931D01809334010895823004
:1004300020F0815080932F01089580911D018F7DC0
:1004400080931D010895811110922F010895CF937B
:10045000C82FE0914D01F0914E010480F581E02D0F
:1004600080E00995C1111AC08EEF80933001E091B0
:100470004D01F0914E010480F581E02D81E0099558
:10048000E0914D01F0914E010280F381E02D8DE06D
:10049000099580933001803F70F198C08EEF809372
:1004A0003001E0914D01F0914E010480F581E02D85
:1004B00082E00995E0914D01F0914E010280F381B7
:1004C000E02D8DE00995809330018FEA94E001974B
:1004D000F1F700C0000080913001803F08F076C045
:1004E000EDE1F1E0AFE0B1E081918D9391E0E9328F
:1004F000F907D1F7B9CFCC2309F468C090911B015B
:1005000080912A01981305C080912D01882309F458
:100510005DC0E0914D01F0914E010480F581E02D28
:100520008CE10995E0914D01F0914E010480F58137
:10053000E02D80912A010995E0914D01F0914E0145
:1005400081E090912A01911101C080E00480F58141
:10055000E02D81950995E0914D01F0914E010480C7
:10056000F581E02D81E10995E0914D01F0914E0179
:100570000480F581E02D8CE10995E0914D01F09129
:100580004E010480F581E02D80911B010995E091D9
:100590004D01F0914E0181E090911B01911101C03C
:1005A00080E00480F581E02D81950995E0914D0171
:1005B000F0914E010480F581E02D84E10995809150
:1005C0001B0190912A01892780932D01CF910895D5
:1005D00080E8809361001092610085B7806885BFD4
:1005E00085B7806885BF1AB817B814B88FEF8BB974
:1005F00088B985B910920D0110922F0181E01AD1AE
:10060000A3D290934E0180934D01DC01ED91FC91BA
:100610000995D5DDFED0C2E0D1E025D160E080E0D3
:1006200016DF80933001BCDEF4D0109246011092A8
:1006300045018091200180934801809121018093A0
:1006400049018091230180934A0180912401809384
:100650004B01C6DD10924C011092450110924601EB
:1006600080911D0180FDC093450181FF05C09091DF
:10067000450194609093450182FF05C0909145012A
:1006800091609093450183FF05C09091450198606A
:100690009093450186FF05C090914501906190932C
:1006A000450187FF05C090914501906290934501F7
:1006B00090911E0190FF05C0209145012064209378
:1006C000450191FF05C02091450120682093450117
:1006D00020912201233358F020914B01283C38F41B
:1006E000203829F020914501206420934501209174
:1006F0002501233358F020914B01283C38F4203851
:1007000029F02091450120682093450184FDD09374
:10071000460185FF05C020914601226020934601D5
:1007200096FF05C02091460124602093460197FF63
:1007300005C090914601986090934601982F907360
:10074000903329F4909146019061909346018F7007
:100750008F3029F480914601806280934601809118
:1007600028018093470181D058CFE0910A01F09190
:100770000B01309709F009940895E0910801F09178
:100780000901309709F00994089542E361EC81E092
:10079000DEC1809144018F5F8093440180915501B7
:1007A0008130F1F480915401813AD1F48091560165
:1007B00090915701892BA1F08091E800877F809369
:1007C000E800809144018F5F8093440168E070E00D
:1007D00085E491E0A6D38091E8008B778093E800D0
:1007E000089580915301843099F481E08093E90069
:1007F0008091E80080FF0CC040E050E068E070E0CD
:1008000085E491E046D38091E8008E778093E800FC
:10081000089510924601109245018FE080934701A0
:1008200080E880934B0180934A0180934901809333
:1008300048010895882361F02FE088E190E00FB629
:10084000F894A895809360000FBE2093600008C0C4
:1008500088E10FB6F89480936000109260000FBE9C
:100860003CD278940895A8950895BBDF5EC5292FE2
:10087000332723303105B9F05CF42130310569F1BB
:100880002230310579F589E290E028EF30E02EC082
:1008900021323105E9F02232310521F580E590E081
:1008A00023E331E023C099278130910541F0823064
:1008B000910541F0892BB1F4E4EFF0E005C0EEEDD5
:1008C000F0E002C0E0ECF0E0849190E09F010EC007
:1008D00089E090E02AE031E009C082E190E021E285
:1008E00031E004C080E090E020E030E0FA013183A4
:1008F0002083089580B3806680BB81B3806681BB0E
:10090000089520B380B38F7980BB9FB120BB9076D0
:1009100081E009F480E008959FB1907651F420E1E0
:1009200037E29FB1907639F4215031092115310514
:10093000C1F78EEF089596E09A95F1F700C09FB148
:100940009076B9F790E19A95F1F7ECE1F1E040E0AB
:10095000481709F4B1C0908196959083000000007B
:100960007D9B03C000C000C002C09068908394E1EA
:100970009A95F1F7908196959083000000007D9BF9
:1009800003C000C000C002C09068908394E19A95B3
:10099000F1F7908196959083000000007D9B03C045
:1009A00000C000C002C09068908394E19A95F1F76E
:1009B000908196959083000000007D9B03C000C04D
:1009C00000C002C09068908394E19A95F1F79081FD
:1009D00096959083000000007D9B03C000C000C07E
:1009E00002C09068908394E19A95F1F79081969572
:1009F0009083000000007D9B03C000C000C002C0C7
:100A00009068908394E19A95F1F790819695908300
:100A1000000000007D9B03C000C000C002C09068C1
:100A2000908394E19A95F1F79081969590830000D8
:100A300000007D9B03C000C000C002C0906890838E
:100A40007D9B17C020E030E07D9B0BC02F5F3F4FA8
:100A50002C3D95E03907C1F704C07D9906C02F5F92
:100A60003F4F2C3D95E03907C1F796E09A95F1F795
:100A700020C020E030E07D990BC02F5F3F4F2C3D20
:100A800095E03907C1F704C07D9B0BC02F5F3F4F36
:100A90002C3D95E03907C1F704C07D9906C02F5F52
:100AA0003F4F2C3D95E03907C1F795E09A95F1F756
:100AB00000004F5F31964CCF509885E38A95F1F74F
:100AC000000080911C01089590B39F7990BB20E1B4
:100AD00037E29FB1907639F4215031092115310563
:100AE000C1F78FEF08959AE19A95F1F700C090B39E
:100AF000906690BB91B39F7991BB27E02A95F1F75F
:100B000098E08D9A2AE02A95F1F700C080FD8D9833
:100B10002AE02A95F1F700C08695915091F78D9AB9
:100B200085E08A95F1F700008D9890E19A95F1F7AC
:100B300081B3806681BB80B38F7980BB2AE12A951F
:100B4000F1F700C080E0089580E091E00895982FCB
:100B5000973058F59093E900981739F07091EC00B0
:100B60002091ED005091F00003C0242F762F50E02B
:100B700021FF19C03091EB003E7F3093EB003091A4
:100B8000ED003D7F3093ED003091EB00316030930C
:100B9000EB007093EC002093ED005093F000209157
:100BA000EE0027FF07C09F5FD3CF8F708093E900CF
:100BB00081E0089580E008958091540187FD05C08B
:100BC0008091E80080FF0EC012C08091E80082FD95
:100BD00005C0809153018111F8CF08958091E800FC
:100BE0008B7708C0809153018111EACF08958091DD
:100BF000E8008E778093E80008958091E40090915A
:100C0000E50045E62091EC0020FF21C02091E8009E
:100C100020FD21C020915301222389F0253089F045
:100C20002091EB0025FD0FC02091E4003091E500FC
:100C30002817390739F3415041F0C901E3CF82E069
:100C4000089583E0089581E0089584E00895209157
:100C5000E80022FFDFCF80E008950F931F93CF932A
:100C6000DF9346D04DD0C8EDD0E088818F77888360
:100C700088818068888388818F7D888319BC1092E1
:100C8000530110924F01109251011092500100EE49
:100C900010E0F80180818B7F808388818160888368
:100CA00042E360E080E053DFE1EEF0E080818E7FA0
:100CB0008083E2EEF0E080818160808380818860C3
:100CC0008083F80180818E7F808388818061888322
:100CD000DF91CF911F910F910895E7EDF0E08081B2
:100CE0008160808384E082BF81E080935201B5CF30
:100CF000E8EDF0E080818E7F80831092E20008951D
:100D00001092DA001092E10008951F920F920FB630
:100D10000F9211242F933F934F935F936F937F9381
:100D20008F939F93AF93BF93EF93FF938091E100D5
:100D300082FF0AC08091E20082FF06C08091E1003C
:100D40008B7F8093E100F0D28091DA0080FF1DC09C
:100D50008091D80080FF19C08091DA008E7F809347
:100D6000DA008091D90080FF0CC080E189BD82E16A
:100D700089BD09B400FEFDCF81E080935301F5DC0D
:100D800004C019BC10925301F8DC8091E10080FF8F
:100D900018C08091E20080FF14C08091E2008E7F35
:100DA0008093E2008091E20080618093E200809174
:100DB000D80080628093D80019BC85E080935301ED
:100DC000B3D28091E10084FF2DC08091E20084FFC6
:100DD00029C080E189BD82E189BD09B400FEFDCF53
:100DE0008091D8008F7D8093D8008091E1008F7E24
:100DF0008093E1008091E2008F7E8093E2008091F9
:100E0000E20081608093E20080914F01811104C073
:100E10008091E30087FF02C084E001C081E08093FD
:100E2000530182D28091E10083FF22C08091E200D1
:100E300083FF1EC08091E100877F8093E10082E004
:100E40008093530110924F018091E1008E7F809337
:100E5000E1008091E2008E7F8093E2008091E200C9
:100E600080618093E20042E360E080E070DE5CD26B
:100E7000FF91EF91BF91AF919F918F917F916F9172
:100E80005F914F913F912F910F900FBE0F901F9048
:100E90001895CF92DF92EF92FF920F931F93CF930B
:100EA000DF937C018B01EA01A8DE811131C020971C
:100EB00031F088819981081B190BE80EF91EC12CAD
:100EC000D12C0115110519F18091E80085FD14C0A0
:100ED0008091E8008E778093E80027D2209741F038
:100EE000888199818C0D9D1D9983888385E010C030
:100EF00084DE882331F30CC0F70181917F01809358
:100F0000F10001501109FFEFCF1ADF0ADACF80E0BC
:100F1000DF91CF911F910F91FF90EF90DF90CF90D5
:100F2000089520915A0130915B012617370748F048
:100F30006115710539F42091E8002E772093E800BF
:100F400001C0B901FC0120E061157105B1F180918A
:100F500053018823F1F18530F1F18091E80083FDA0
:100F600036C08091E80082FF06C08091E80082FFD1
:100F700027C080E008958091E80080FFE5CF2091B0
:100F8000F3008091F20090E0922B6115710551F011
:100F90008034910538F421912093F100615071095A
:100FA0000196F3CF21E08034910509F020E0809193
:100FB000E8008E778093E800C7CF2111C8CFD5CF46
:100FC00080915301882329F0853079F604C081E0AF
:100FD000089582E0089583E0089520915A013091A8
:100FE0005B012617370748F06115710539F4209128
:100FF000E8002E772093E80001C0B901FC0120E051
:1010000061157105C9F180915301882309F440C02D
:10101000853009F43FC08091E80083FD37C080919E
:10102000E80082FF06C08091E80082FF28C080E0CF
:1010300008958091E80080FFE3CF2091F300809134
:10104000F20090E0922B6115710559F08034910502
:1010500040F424912093F10031966150710901967A
:10106000F2CF21E08034910509F020E08091E80082
:101070008E778093E800C4CF2111C5CFD4CF809163
:101080005301882329F0853071F604C081E008956A
:1010900082E0089583E008950F931F93CF93DF9329
:1010A000CDB7DEB7AA970FB6F894DEBF0FBECDBF9F
:1010B000E4E5F1E08091F100819321E0EC35F20765
:1010C000C9F767DB8091E80083FF15C120915401C7
:1010D00030915501832F90E08A30910508F00BC1C3
:1010E000FC01EA5AFF4F3DC1203881F0223809F057
:1010F00002C1809158018F708093E9008091EB00CC
:1011000085FB882780F91092E90006C08091500184
:1011100090915101911182609091E800977F909396
:10112000E8008093F1001092F100C2C0822F8D7F01
:1011300009F0E1C0222319F0223061F0DCC0809177
:101140005601813009F0D7C0333009F080E0809338
:10115000510128C080915601811124C0209158016D
:101160002F7009F4C8C02093E9008091EB0080FF44
:1011700019C08091EB00333011F4806211C080619E
:101180008093EB0081E090E0022E01C0880F0A946A
:10119000EAF78093EA001092EA008091EB00886001
:1011A0008093EB001092E9008091E800877F83C074
:1011B0002111A1C0109156011F770FB7F8948091AB
:1011C000E800877F8093E800F7DC8091E80080FFEB
:1011D000FCCF8091E3008078812B8093E3008068CE
:1011E0008093E300112311F083E001C082E080933B
:1011F00053010FBF80C02058223008F07CC080917E
:101200005601909157018C3D23E0920771F583E0E0
:101210008A838AE289834FB7F894DE01139620E02F
:101220003EE051E2E32FF0E050935700E49120FFBD
:1012300003C0E295EF703F5FEF708E2F90E0EA30D1
:1012400010F0C79601C0C0968D939D932F5F2431F7
:1012500049F74FBF8091E800877F8093E8006AE2FA
:1012600070E0CE0101965DDE12C0AE014F5F5F4FB0
:1012700060915801FCDA009709F43DC02091E80024
:10128000277F2093E800BC0189819A81A6DE8091A6
:10129000E8008B778093E8002EC0203861F58091BC
:1012A000E800877F8093E80080914F018093F100F0
:1012B0008091E8008E778093E8007EDC1CC02111CD
:1012C0001AC0909156019230B0F48091E800877F67
:1012D0008093E80090934F016FDC80914F01811162
:1012E00004C08091E30087FF02C084E001C081E078
:1012F000809353014ADA8091E80083FF0AC080910D
:10130000EB0080628093EB008091E800877F809300
:10131000E800AA960FB6F894DEBF0FBECDBFDF91EE
:10132000CF911F910F9108950895CF93809153010C
:101330008823A9F08091E9008F709091EC0090FFD4
:1013400002C090E801C090E0C92FC82B1092E900BC
:101350008091E80083FDA0DECF70C093E900CF91BB
:101360000895EE0FFF1F0590F491E02D0994F89475
:02137000FFCFAD
:081372007A048C046405810477
:00000001FF
