:100000007AC5000094C5000092C5000090C50000AC
:100010008EC500008CC500008AC5000088C50000A0
:1000200086C5000084C500000C94E32980C500004B
:100030007EC500007CC500007AC5000078C50000C0
:1000400076C5000075C5000072C5000070C50000CF
:100050006EC500006CC500006AC5000068C50000E0
:1000600066C5000064C5000062C5000060C50000F0
:100070005EC500005CC500005AC5000058C5000000
:1000800056C5000054C5000052C5000050C5000010
:100090000C946D134CC500004AC5000048C5000013
:1000A00046C5000044C5000042C50000510D590D71
:1000B000CF0C210D730D840DA20DBF0DBC0EBC0E17
:1000C000BC0EBC0ECD0DE50DBC0EF60D70510386B9
:1000D000400D4FEB3ECCD18735BDF50B5ED0F8F22D
:1000E000D5E26C310CADFC21C378C106C24C55E69B
:1000F0004A3448111EDAE71A84A096A7E37FAF635B
:100100009CFA235B79C89EBAB2C922124BB3A1B63E
:100110003249A2E189391066C5078F54EA91CA3F76
:10012000F919F0D746BC281B61E82F6AAE9DF64E40
:100130000914774DDB1F2E7B7CF143A300B8138C91
:1001400085B9297588FDD2561C509741E53B60B5AD
:10015000C064EE98D62D25A4AACD7DA883C6ABBEDB
:100160004499263CCE9FBFD3CB767A7E82018A9A71
:10017000801D0EB05CD43862F430E08E53B7025765
:10018000ACA6520A6D9265172433457274B1B4F768
:100190005DED2CFF47375A90BBDF2A165995D9C41D
:1001A000276773C768FEA5DD6B5F93D8EC053A8DB2
:1001B0006EFB3DA96936F394DEEF156F8B9B080F3C
:1001C000DC81182004E471CFE92B425801A0A96218
:1001D000D63F85A7B6D4FA15661709BD5D14342637
:1001E00059729154064FF8B05B7493998CF245CDD7
:1001F000EA4EAD104AE5CAEEDFC66F9F888E02CC8C
:1002000008A877946D21B128E43979966071811638
:100210002EE678B9C4469A42AEB77C43B3221A861A
:10022000C2323D2D9CD229E9639BD131385E1E3606
:1002300041BB03182B3EBF6861FC52C0DEE00A5888
:10024000135A00BE1C900E5312FDE26EBACE242744
:10025000447F87A3A1D55040E3F983F7C7A235C8EF
:10026000DB19AB2F1125ED339E55E148AF7384DACE
:100270002AAA51EB9D95B2CBE77080FE4C6504EF46
:10028000C5F1C33AB4F55F2389DD30A58BD3F6DC25
:100290004D64D7F08FEC56375CA40D07768A2C0B93
:1002A000B5D8C11FE83BF44B1B476C49677B92CF25
:1002B000757E20D97D3C977AD0056B0F1DFB829807
:1002C000578DF36ABCACC9A6FFB8690C4C4D7207D8
:1002D0005A49338DA2AB463D630DA097FFF0F5FA66
:1002E000C0E9DB62E4E17443DC86182937F406E2F6
:1002F000ED6F90481E2D1DEA739454DF25F64727B5
:10030000D91177C9841C5B5C5181A6223E2496C812
:100310008AEC827C09B8454A57BB2F50758E6170B4
:100320008C6CAFD0FDB41BAEDEFE3BB536BD5501C7
:100330000E9C41565FB3260383BA134BCAC50AF815
:1003400060A5B9C7C39832FB12F9A792AA68F378DF
:100350007E05202102E8BFF2B0598FD2CB87651508
:10036000F11AB230ADEE58A38B661F2CD75D1985FC
:10037000A8E6D36BA10C91936A5E0B79E3DD004F85
:100380003C896E7169A9AC40E59928C6314E7ACD99
:10039000089E7DEF17FC88D8A46D4495D1B7D49BF7
:1003A000BE2A34642BCF2EEB38CE23E03A3FF77BC6
:1003B0009F1053BC526716E7807604C4B6C1C27F53
:1003C0009ADAD53942149DB10F35D6CCB9DA380C4A
:1003D000A29C091F06B1B6FD1A692330C4DE01D103
:1003E000F45829371C7DD5BFFFBDC8C9CF65BE7B7A
:1003F0007897986708B32657F7FA40AD8E75A67CB4
:10040000DB918B5199D4177A908DCE63CB4EA0ABF4
:10041000183A5B507F2174C1BBB8B7BA0B35953120
:10042000599A4D04071E5A7613F37183D08603A898
:100430003942AA28E6E4D85DD3D06E6F96FB5EBC45
:1004400056C25F859BE7AFD23B846AA753C5444938
:10045000A5F936723D2CD91BA1F54F939D684741F4
:1004600016CA2A4CA387D6E5192E77156D70C0DF02
:10047000B20046EDC66C4360922DA922458F3455DB
:10048000AEA40A6632E0DC02ACE8208C89624AFE47
:10049000EEC3E33CF17905E9F62733CCF29E1181F6
:1004A0007E80108A829F480DD7B4FC2FB5C7DD88A7
:1004B000146B2B54EA1D945CB0EF1224CDEBE1E2F7
:1004C00064733F0E5261253EF80F4BECC00030F6CE
:1004D00002493D106E20C9A62FFE2C2B752E4526F5
:1004E000AB48A980FC04CCD3B5BAA338317D01D97F
:1004F000A77B96B663694EF7DEE078CA50AA4191B1
:100500006588E42185DA3A27BE1C3E425E17527F99
:100510001F89246F8F5C67740E12878DE934ED7329
:10052000C4F8615B05DF594C97798318A45595EBA6
:10053000BD53F5F15766469FB2810951862216DDFB
:1005400023937629C2D71DD4BF363FEA4B1132B967
:10055000625460D66D439A0D929CB0EF586C9D77B3
:100560002D70FAF3B30BE2407EF48AE58C3C5671B1
:10057000D164E1820ACB131590EC0399AF145D0F9F
:10058000334A94A5A8351BE36AC628FF4DE72584A6
:10059000AC08AEC5A22AB8370C7AA0C3CEAD061AF5
:1005A0009E8BFBD5D0C11ED0B49BB144F247C76827
:1005B000CF72BB4F5AF9DC6BDBD2E87CC8EE98A156
:1005C000E6D839075FFD8E19B73BBCCD7CE381735C
:1005D000B211BF6F2098FE7596EF6CDA50E1097288
:1005E0005445BA34805BED3E532C87A457F3333F18
:1005F0003CB767B4A325604F076B1B47150FE40A90
:10060000EAD1327836498D4BD2BCA5DC1D0D4DCDDB
:100610009A825FFC9465BEE2F4C91E44CB9E0C64D2
:10062000712663B314E840708A0E19426DAC8810CD
:100630005CDF41A9ADE5FB74CCD5068E5986CE1F93
:100640003D76E08FB977277BA6D829D3ECB813F78E
:10065000FAC3516ADE4A5AEBC28B234892CF62A892
:1006600099F8D02E856143C8BDF00593CA4EF17D3F
:1006700030FDC469662F08B152F921E67A2BDD39C5
:1006800084FFC091D637D47F2D9B5DA13B6EB5C54D
:100690004604F590EE7E831C0356B6AA001701357A
:1006A00055790B12BB1A31E7022816C1F6A2DB18E6
:1006B0009C89683897ABC72AD73AF2C6244CB05801
:1006C000A0225E9DD9A7E9AEAF8C959F28B720D711
:1006D000B030C30919C067D6003C7EE7E9F4085A78
:1006E000F8B82E05A6259E5CD8150DE1F611546BC1
:1006F000CD2146665E84AD06382944C5A2CEF1AA56
:10070000C1407186B5EFFC36A8CB0A48274564A3E3
:10071000AF8CB2C69F0789DC17D34979FBFE1DD089
:10072000B9884352BC01782B7D94C70EDEA5D59BBA
:10073000CCF7617AC274813903AB96A037BD2D72B4
:10074000753FC9D48E6FF98DED62DB1CDF04AC1BE5
:100750006C144B63D0BFB482EC7B1A5992D21060F8
:10076000B63D5FE6806E70C4F235D97CEEE541A4FB
:100770005B50DDBB4CF31F9D5D57555197E35842CD
:100780004D9C73BAC877316926AEEA8ADA22B387FC
:1007900056FA930B341633E8E453BEA9B13A3EF54A
:1007A000906ACF3B12FD8F9AA7479199EB0F24FFD8
:1007B0002318854E7F0CE0A1D2D12C2A4A024F1E6D
:1007C00095688B98836D76CA6532132FC3829AA47D
:1007D000BA8160373435FC80A8516567ED305F1011
:1007E000D34A272F13B92AD2CCE1EFAEEBBEF4BD2A
:1007F000CF43B3C58884B7DD3940CE486D9B726165
:100800007EE7A14E532E773BE2C936221B6E73B1B1
:1008100003B24C87A9D44D0FD8156CAA18F64957C6
:100820005DFB7A149463A011B09EDE0546C8EE47C6
:10083000DBDC24899C919729E97BC1071EB8FDFE6A
:10084000ACC662984FF179E0E86B7856B68D0450EB
:1008500086CA6F20E6EAE576171C747FBC0D2C85EE
:10086000F76696E48B753F4BD938AF7CDA0B832D56
:100870003132A2F51D594145BF3C1FF8F98AD01607
:10088000256912999D2195AB01A6D7B5C07DFF586A
:100890000E3A92D155E3089FD63E528EFAA3C70274
:1008A000CDDF8F64198CF3A70C5E0A6A09F0935BA5
:1008B00042C20623EC71ADB4CBBB7028D51A5C33B1
:1008C000685A004490A5C4263D2BF25496ADDA1F19
:1008D000ED33E18169080D0ADB35779A64D1FC7844
:1008E000AA1BD067A0DDFA6C63710584176A894F73
:1008F000667FC65055926FBDE7D240728DBBEC0645
:10090000428AE4889D7E7A822713411AAFC8A47672
:10091000B4C2FE6D1CD96130B37CEAF7290FF23BFB
:1009200051C1DE5FE52A2F990B5DA32B4AAB95A53C
:10093000D35856EE283100CC1546CAE686383C65B9
:10094000F5E39FD65B094983702D53A97DE2C4ACC2
:100950008E5EB825F4B957F3F16847B2A25920CE9C
:1009600034795C900E1EBED52223B1C91862162EB2
:10097000913E078FD83F933DD49BDF8521FB1174B7
:1009800097C7D7DC4C194598E943024BBCC3049C7C
:100990006BF07552A726F6C5BACFB0B7AE5AA1BF55
:1009A000038B80126E0CEBF9C04424EF10F8A88C76
:1009B000E87BFF9E2CCD603687B594A654733A141D
:1009C0004E011DB6FD37484D39CBE0320000000026
:1009D0000000000000000000000000000000000017
:1009E0000000000000000000000000000000000007
:1009F00000000000000000000000000000000000F7
:100A000000000000000000000000000000000000E6
:100A100000000000000000000000000000000000D6
:100A200000000000000000000000000000000000C6
:100A300000000000000000000000000000000000B6
:100A400000000000000000000000000000000000A6
:100A50000000000000000000000000000000000096
:100A60000000000000000000000000000000000086
:100A70000000000000000000000000000000000076
:100A80000000000000000000000000000000000066
:100A90000000000000000000000000000000000056
:100AA0000000000000000000000000000000000046
:100AB0000000000000000000000000000000000036
:100AC000000000000000000000000000A877A6E081
:100AD000F7435A3585E272978FB71A6287380D67E8
:100AE000C7BE4F3E2076378F68B7A9263F2B10E34D
:100AF000307E900E850A11241FBECFEFDAE0DEBFF4
:100B0000CDBF11E0A0E0B1E0ECE8F5E502C0059052
:100B10000D92A83BB107D9F723E0A8EBB1E001C0E3
:100B20001D92A33AB207E1F78ED20C94C42A68CA88
:100B30001F920F920FB60F9211242F933F934F9352
:100B40005F936F937F938F939F93AF93BF93EF9335
:100B5000FF9381E0809345031092850010928400FA
:100B600080916803853151F4E0918A03F0918B0301
:100B70000480F581E02D80E0099508C0853231F4CC
:100B8000369B02C0469801C0469A3E9AFF91EF916B
:100B9000BF91AF919F918F917F916F915F914F9195
:100BA0003F912F910F900FBE0F901F901895CF93EC
:100BB000E0918A03F0918B030480F581E02D81E2BE
:100BC0000995C82FE0918A03F0918B030280F3818D
:100BD000E02D82E0099590914703892F81708093E1
:100BE000830393FB882780F98093880394FB8827ED
:100BF00080F98093870395FB882780F9809385038C
:100C000096FB882780F980938403991F9927991F61
:100C100090938603CF3F51F4E0918A03F0918B03C8
:100C20000480F581E02D80E00995C2CFC03F08F037
:100C3000BFCFCF91089580918903893721F0833305
:100C400011F08F3749F491E090938203893759F47A
:100C500081E0809381030895109282038337C1F36A
:100C6000893041F4F5CF982F9F7B933389F38F37E9
:100C7000B9F7EECF8251823058F310928103089574
:100C8000CF9380918303811105C0809182038111EC
:100C90000EC032C0E0918A03F0918B030480F5818D
:100CA000E02D80E009958F3F81F78EEFEFC0E09156
:100CB0008A03F0918B030480F581E02D82E0099591
:100CC000E0918A03F0918B030280F381E02D8DE0A7
:100CD0000995EFEAF4E03197F1F700C00000803F9A
:100CE00008F0D4C0E7E4F3E0A8E3B3E081918D938A
:100CF00083E0E335F807D1F7E0918A03F0918B03A5
:100D00000480F581E02D81E00995E0918A03F0915E
:100D10008B030280F381E02D8DE00995C82F803F81
:100D200008F0B3C0809189038C1731F1E0918A03F8
:100D3000F0918B030480F581E02D80E0099537DF89
:100D4000E0918A03F0918B030480F581E02D81E02E
:100D50000995E0918A03F0918B030280F381E02DE5
:100D60008DE00995C82F8FEF90E090935803809302
:100D70005703C03F08F089C080916603882309F4B7
:100D80006DC080918103882309F468C09091440369
:100D900080915303981305C08091B801882309F40A
:100DA0005DC0E0918A03F0918B030480F581E02D12
:100DB0008CE10995E0918A03F0918B030480F58121
:100DC000E02D809153030995E0918A03F0918B0304
:100DD00081E090915303911101C080E00480F5817E
:100DE000E02D81950995E0918A03F0918B030480B1
:100DF000F581E02D81E10995E0918A03F0918B0363
:100E00000480F581E02D8CE10995E0918A03F09151
:100E10008B030480F581E02D809144030995E091D6
:100E20008A03F0918B0381E090914403911101C0FA
:100E300080E00480F581E02D81950995E0918A0399
:100E4000F0918B030480F581E02D84E10995809178
:100E500044039091530389278093B801209157034D
:100E6000309158032115310539F021503109309363
:100E700058032093570364D1E0918A03F0918B03C8
:100E80000480F581E02D80E009958C2FCF910895A5
:100E9000CF93DF931F92CDB7DEB7F2DE909183033D
:100EA00091112AC0803FE0F09091480320914703C0
:100EB000922398239F3F29F08F3F19F481E080937C
:100EC000830381E0809386038DE0E9E5F3E0A6E407
:100ED000B3E001900D928A95E1F78091890319C0E2
:100EE0009DE0E6E4F3E0A9E5B3E001900D929A9568
:100EF000E1F7809389030DC09DE0E9E5F3E0A6E406
:100F0000B3E001900D929A95E1F7803F10F41092B2
:100F100083032091830390915503222369F020914C
:100F20004703911105C091E090935503206201C0E1
:100F30002F7D209347030DC0992359F0109255033C
:100F4000898335DE2FEF30E0309358032093570329
:100F50008981809356038F37E9F0833331F580918F
:100F60004E03882329F080914703846080934703D0
:100F700080914A03882329F0809147038160809300
:100F8000470380914B03882329F0809147038064B5
:100F90008093470380914D0380934A0380E88093B8
:100FA0004B0380934D0380934E0307D280914703F8
:100FB00080936B038091480380936C038091490375
:100FC00080937E0380914A0380936E0380914B034C
:100FD00080936F0390914C039093740380914D0321
:100FE0008093700380914E038093710380914F032F
:100FF0008093750320918903293741F02091500394
:101000002093730320915103209372032091820354
:10101000211104C0909342038093430380915203B3
:1010200080936D0308DE80916A03833318F0109279
:101030006A03BDDD80916A038F5F80936A030F901E
:10104000DF91CF910895109283031092550310926F
:10105000B80110926A038FEF90E090935803809349
:10106000570380E8809361001092610085B7806823
:1010700085BF85B7806885BF1AB817B814B88FEFD9
:101080008BB988B985B9AAD10E94BE298091D800B0
:1010900080628093D80089B58D7F89BD8091D8000A
:1010A0008F778093D8001CBC1092CA001092C800A1
:1010B0001092C90010927A008091BC008B7F8093BF
:1010C000BC001092C000109291001092900015BCCC
:1010D00014BC10928100109280008FE99FE001976C
:1010E000F1F700C000008ED18823E9F30E94862921
:1010F00090938B0380938A03DC01ED91FC91099519
:101100001092B9011092BA011092BB011092BC0169
:101110001092BD011092BE011092BF011092C00149
:101120004CD1E0918A03F0918B030480F581E02D8E
:1011300080E00995A5DD803FE8F7AADE5BD1FDCF11
:1011400080916803982F9D7F21E0993209F020E07B
:1011500091E0382F3F7E353009F090E0922BE091FE
:101160008A03F0918B03911102C08532C1F5809101
:10117000890331E0803109F030E091E0833209F0F9
:1011800090E0392B91E08F3109F090E0932B31E022
:101190008F3209F030E0392B21E0813409F020E072
:1011A000232B91E0893709F090E0922B51F4982F8E
:1011B0009F7D933531F0893021F0877F833109F0AD
:1011C0009BC00480F581E02D84E20995E0918A03BB
:1011D000F0918B030480F581E02D84E08CC021E048
:1011E000893109F020E091E08F3209F090E0292B5D
:1011F00091E08F3109F090E0922B21F4982F9B7FA2
:10120000933161F580918903982F977F31E0933076
:1012100009F030E0982F9F7E985021E0923008F03E
:1012200020E0232B91E0382F3B7F313209F090E012
:10123000922B31F4883221F08351833008F05CC066
:101240000480F581E02D85E20995E0918A03F09113
:101250008B030480F581E02D83E04DC0833209F0DB
:1012600044C080918903982F977F21E0933009F043
:1012700020E091E0382F3F7D383009F090E0922B4C
:1012800021E03CEE380F323008F020E0292B91E0CD
:1012900038EE380F333008F090E0922B31F4982F6D
:1012A0009B7F913211F0863339F50480F581E02D72
:1012B00084E20995E0918A03F0918B030480F58123
:1012C000E02D84E00995E0918A03F0918B0304807E
:1012D000F581E02D85E20995E0918A03F0918B0379
:1012E0000480F581E02D81E006C08B3029F4048074
:1012F000F581E02D80E20995E0918A03F0918B035E
:101300000480F581E02D80E1099440916F03909174
:10131000710321E09E3408F020E081E04E3408F0B3
:1013200080E0282B80917003222341F08E3420F03E
:1013300030916E033E3410F487E03CC031E0933BC3
:1013400008F430E091E0433B08F490E0932B41F047
:101350008E3420F030916E033E3410F485E02AC0C4
:10136000222341F0833B20F430916E03333B10F095
:1013700081E020C0992341F0833B20F430916E033B
:10138000333B10F083E016C030916E038E3410F0C2
:101390003E3410F486E00EC0833B10F4333B10F073
:1013A00082E008C0222319F010926D03089599235A
:1013B00019F084E080936D03089510926C031092ED
:1013C0006B038FE080936D0380E8809371038093BB
:1013D000700380936F0380936E03089514BEA895E5
:1013E00088E10FB6F89480936000109260000FBE01
:1013F000F8940895E0917F03F09180030280F381D7
:10140000E02D09940F931F93CF93DF931F92CDB7D5
:10141000DEB710926603109267031AB817B814B8B3
:101420000FEF0BB908B905B90E945A2890938003B1
:1014300080937F03DC01ED91FC910995E0917F039E
:10144000F09180030480F581E02D09958093680375
:10145000811168C0E0917F03F09180030084F185E1
:10146000E02D09951AB817B814B80BB908B905B921
:1014700095D49093800380937F03DC01ED91FC91E0
:101480000995E0917F03F09180030480F581E02DC0
:10149000099580936803882331F081E08093660387
:1014A000809367035EC1E0917F03F0918003008425
:1014B000F185E02D09951AB817B814B80BB908B919
:1014C00005B90E945B249093800380937F03DC0125
:1014D000ED91FC910995E0917F03F09180030480E8
:1014E000F581E02D09958093680381111BC0E0917F
:1014F0007F03F09180030084F185E02D099589B187
:101500008C3F91F41AB817B814B80BB908B905B9DB
:101510000E942D269093800380937F03DC01ED9140
:10152000FC91099581E01DC1E0917F03F09180035A
:101530000084F185E02D099513B11F3F09F0E6C045
:101540001AB817B814B81BB918B915B90E94A91D53
:101550009093800380937F03DC01ED91FC910995CA
:10156000E0917F03F09180030480F581E02D0995DF
:10157000809368038111D6CFE0917F03F0918003BF
:101580000084F185E02D09951AB817B814B81BB975
:1015900018B915B90E9465169093800380937F0354
:1015A000DC01ED91FC910995E0917F03F0918003BE
:1015B0000480F581E02D099580936803811124C092
:1015C000E0917F03F09180030084F185E02D09957F
:1015D0001AB817B814B81BB918B915B90E94301A3F
:1015E0009093800380937F03DC01ED91FC9109953A
:1015F000E0917F03F09180030480F581E02D09954F
:1016000080936803882321F081E080936603A9C05A
:10161000E0917F03F09180030084F185E02D09952E
:101620001AB817B814B81BB918B915B90E947F1B9E
:101630009093800380937F03DC01ED91FC910995E9
:10164000E0917F03F09180030480F581E02D0995FE
:1016500080936803811166CFE0917F03F09180034E
:101660000084F185E02D09951AB817B814B81BB994
:1016700018B915B90E94951F9093800380937F033A
:10168000DC01ED91FC910995E0917F03F0918003DD
:101690000480F581E02D099580936803811142CF84
:1016A000E0917F03F09180030084F185E02D09959E
:1016B0001AB817B814B81FEF1BB918B915B90E949A
:1016C00014239093800380937F03DC01ED91FC91C0
:1016D0000995E0917F03F09180030480F581E02D6E
:1016E00009958093680381111DCFE0917F03F091EC
:1016F00080030084F185E02D09951AB817B814B855
:101700001BB918B915B90E9417250DC083B11AB8B5
:1017100017B814B80BB908B905B98F3511F46FD4DF
:1017200002C00E94BF209093800380937F03DC015E
:10173000ED91FC910995E0917F03F0918003048085
:10174000F581E02D0995809368038111EBCEE0913E
:101750007F03F09180030084F185E02D8983099552
:1017600089810F90DF91CF911F910F910895089576
:10177000809186038093C3011092C8011092C90121
:101780001092C7011092C60188E184B98FEF85B924
:101790008FE68CBD08951CBC08956EBD0DB407FE88
:1017A000FDCF882371F08091C901811104C08AE2C4
:1017B0008A95F1F700C02C9885E08A95F1F7000032
:1017C0002C9A189902C08EB5089580E00895CF93A1
:1017D000C82F6091700381E0E0DF81508E3F38F4C4
:1017E0008FEA94E00197F1F700C00000C1DF60913B
:1017F000710381E0D2DF60916E0381E0CEDF609102
:101800006F038C2FCF91C9CFCF9380E194EA189BBF
:1018100007C025E82A95F1F7000001970097B9F76E
:1018200087EC90E00197F1F700C0000083B1C82F6A
:10183000C17080FD0EC08FE891E00197F1F700C004
:1018400000008FE99FE00197F1F700C000001899B0
:1018500003C01CBCC0E023C060E080E09EDF6FEFEF
:1018600080E09BDF8130D1F46FEF97DF61E481E0AE
:1018700094DF6AE581E091DF6FEF81E08EDF6FEF4B
:1018800081E08BDF95E39A95F1F700008CB58F7BB3
:101890008CBD84B1877E84B9C7E101C01CBC8C2F8C
:1018A000CF9108951F93CF93DF93189BFECF8AEBC0
:1018B00098E8189B06C001970097D9F788EC8093A9
:1018C000C60180916D03882309F464C2823009F453
:1018D00063C2843049F0863089F0813089F0DFEFCF
:1018E000833021F4DFE90DC0DFEB0BC0853011F44C
:1018F000DFE307C0873029F4DFE603C0DFE701C07C
:10190000DFEC80916B0384FDDE7F85FDD77F9091B6
:101910006C0396FDDD7F97FDDB7F80FD02C0CFEF7E
:1019200001C0CFEB81FDCF7D82FDCF7783FDCF7EE0
:1019300086FDCB7F87FDC77F90FDCE7F91FDCD7F5C
:101940008CB580648CBD84B1886184B98091C601F6
:1019500087FD0EDF8091C6018F5F8093C6016FEF18
:1019600081E01BDF813009F007C21092C60180912F
:10197000C701813009F04AC163EF0FDF182F6AE514
:1019800081E00BDF812F90E0FC01E054F109E031B0
:10199000F10508F0F1C1EA5AFF4F0C94A82A6D2F07
:1019A00081E0FBDE809344038091C101882331F004
:1019B00081508093C1016C2F81E02AC08091C201C7
:1019C000882331F081508093C2016C2F80E029C0C0
:1019D0008091C9018230C9F46C2F81E0DEDE8093F2
:1019E000530381E0F4DE8091C9018230E9F4C8E359
:1019F000D3E0699181E0D1DE83E0C334D807C9F731
:101A00006091430380E0C9DE0FC0813039F46C2F50
:101A1000C4DE8093530380E0DADE06C0811104C087
:101A20006C2FBBDE809353038091C5018F5F809341
:101A3000C5018B3008F4A0C11092C5011092C701F6
:101A40009BC160E081E0A9DE8093C701813099F4F9
:101A50008091C901823011F0C4E007C0CCE060E0A1
:101A600081E09BDEC150D9F7F7CF60E081E095DEE1
:101A7000C150D9F7A6C060E081E08FDE8A3561F4FD
:101A800060E081E08ADE60E081E087DE60E081E0A6
:101A900084DE60E080E081DE8091C8018093C9012E
:101AA0006BC160E081E079DE60E081E076DE62E0DB
:101AB00010C081E08093C2019091C801911102C0D1
:101AC0008093C8016FEF81E068DE6FEF81E065DE33
:101AD00063E081E062DE60E081E05FDE60E081E0A3
:101AE0005CDE6AE56FC060E081E057DE8093C8018C
:101AF0008091C30181111092C801C4E060E081E0CF
:101B00004CDEC150D9F75DC081E08093C201809165
:101B1000C301882311F060E007C08091820388230D
:101B200011F063E001C061E081E037DE62E081E056
:101B300034DE61E08091C301811160E081E02DDE3F
:101B400062E027C060E081E028DE811102C0CAE0C7
:101B500001C0C4E160E081E020DE61E081E01DDEE3
:101B6000CA3011F462E001C061E081E016DE61E09C
:101B7000CA3009F460E081E010DE6C2F23C060E021
:101B800081E00BDE60E081E008DE62E081E005DEFE
:101B900060E081E002DE61E012C060E081E0FDDD36
:101BA000811102C0C4E001C0C7E060E081E0F5DD62
:101BB00060E081E0F2DD6C2F81E0EFDD60E081E04C
:101BC000ECDD60E080E0E9DDD7C060E081E0E5DDEC
:101BD00061E081E0E2DD6FEF81E0DFDD6FEF81E06A
:101BE000DCDD6FEF81E0D9DD6FEFECCF81E080933A
:101BF000C10182E08093C80160E081E0CEDDC4E0F5
:101C000060E081E0CADDC150D9F7DBCF8111B4C0FB
:101C10008091C901882381F090918903993721F43B
:101C2000823061F063E70FC0933351F09F3751F07A
:101C30009335C1F763E507C061E405C069E703C0F8
:101C400063E201C063EE9091C401891729F090917D
:101C5000C2019E5F9093C2018093C40181E09DDD2B
:101C6000182F6AE581E099DD6D2F81E0133471F55D
:101C700094DD8093C701811102C060E025C080918E
:101C8000C10181112AC08091C201811130C08091AF
:101C9000C901823009F04AC06C2F81E07EDD80935B
:101CA000530381E094DD8091C901823009F04DC079
:101CB000C8E3D3E0699181E070DD83E0C334D807E5
:101CC000C9F76091430380E068DD3FC066DD809323
:101CD00044038091C101882331F081508093C10178
:101CE0006C2F81E026C08091C201882331F08150A1
:101CF0008093C2016C2F80E025C08091C9018230A1
:101D0000A9F46C2F81E049DD8093530381E05FDD0E
:101D10008091C9018230C9F4C8E3D3E0699181E0C0
:101D20003CDD83E0C334D807C9F7CBCF813039F429
:101D30006C2F33DD8093530380E049DD06C08111B1
:101D400004C06C2F2ADD8093530340918603242F17
:101D500030E08091C30190E02817390769F0409383
:101D6000C30181E09091C901911180E08093C90184
:101D70008093C4018093C80185E38A95F1F7000040
:101D80008CB58F7B8CBD84B1877E84B9DF91CF9178
:101D90001F910895DFEEB5CDDFEDB3CD80E091E08A
:101DA0000895089581E08093CA010895ECEBF0E076
:101DB00080818B7F808308951092CA018091CA012F
:101DC0008823E1F389E108951092CA018091CA0144
:101DD0008823E1F38FE99FE00197F1F700C000004D
:101DE00085E1EBECF1E0DF011D928A95E9F780E8EF
:101DF0008093CE018093CD018093CC018093CB0161
:101E000080916E0392E9980F943210F08093CB0189
:101E10008091700392E9980F943210F08093CC0176
:101E200080916F0392E9980F943218F08095809317
:101E3000CD018091710392E9980F943218F080954A
:101E40008093CE018CE08093CF0188E08093D00115
:101E50008FEF8093D1018093D20180916B0387FF34
:101E600003C09DEF9093D10185FF05C09091D101F2
:101E70009B7F9093D10190917E0392FF05C090913A
:101E8000D101977F9093D10184FF05C09091D1013A
:101E90009F7E9093D10186FF05C09091D1019F7DD7
:101EA0009093D10190916D03943021F49091D101E0
:101EB0009F7B05C0923031F49091D1019F77909330
:101EC000D10109C0911102C09EEF03C0963019F4F0
:101ED0009DEF9093D20120916C0321FF05C090915A
:101EE000D2019B7F9093D20120FF05C09091D20137
:101EF0009F779093D20180FF05C09091D2019F7B84
:101F00009093D20181FF05C09091D2019F7E909362
:101F1000D20182FF05C09091D2019F7D9093D201A2
:101F200083FF05C08091D201877F8093D201809189
:101F30008C03811145C08091CC018695869586954C
:101F4000282F2871B8E02B9F900111249091CB018C
:101F500096959695922B9093CB01867020E2829F66
:101F6000C00111249091CD0196959695982B909350
:101F7000CC0180914203869586958695282F2871FD
:101F800094E0299F900111249091CE019695969509
:101F90009695922B9093CD01A0E28A9FC0011124C7
:101FA00090914303969596959695982B9093CE0194
:101FB0008091D1018093CF018091D2018093D00193
:101FC00065E18BEC91E014C30F931F938BB1836099
:101FD0008BB98AB18C7F8AB985E1EBECF1E0DF0146
:101FE0001D928A95E9F702ED1EE024E131E045E11A
:101FF000BF0184E391E003D31F910F9160C38AE096
:1020000091E008952F923F924F925F926F927F924C
:102010008F929F92AF92BF92CF92DF92EF92FF92F8
:102020000F931F93CF93DF93CDB7DEB7E2970FB631
:10203000F894DEBF0FBECDBF1DA61CA6A12CB12CEF
:1020400078E0E72EF12CDE01519680E090E02CA59F
:102050003DA52453354FF901E80FF91FE491ED93A5
:10206000019686309105B9F7DE01119680E090E087
:10207000FC01ED5FFC4FE081F0E0E453FF4FE491A1
:10208000ED9301968A30910599F7AB817E8189891C
:10209000872790E04A2F47702A8528ABFD8197015A
:1020A000241B31093AAB29AB9C0109A802C0220FBD
:1020B000331F0A94E2F702C0959587954A95E2F797
:1020C000822B38A9831B8F278B87B9814A814EA722
:1020D0008A89842790E04B2F4770E8859701241B5D
:1020E00031093AAB29AB9C0109A802C0220F331F6A
:1020F0000A94E2F702C0959587954A95E2F7822BFC
:10210000871B8E278C873F813FA72B89232730E0B1
:1021100069856770C701861B9109A901082E01C056
:10212000440F0A94EAF7062E02C0359527950A94C3
:10213000E2F7242B2A1B2B272D872C892F2730E011
:102140004E2F47704BA79C81A701BBA54B1B510984
:102150005AAB49ABA90109A802C0440F551F0A9404
:10216000E2F702C035952795BA95E2F7242B291B93
:102170002A272E872D895EA5252730E0AFA5A770D9
:10218000A7014A1B51095AAB49ABA90109A802C0D2
:10219000440F551F0A94E2F75AAB49AB02C035957C
:1021A0002795AA95E2F7242B291B2F272F872E8905
:1021B0002E2730E0F90102C0EE0FFF1F8A95E2F7EB
:1021C000CF0102C0359527956A95E2F7822B871BD0
:1021D000F8A98F27888B46E050E06DEF72E0CE01C2
:1021E0000B960E94AE2A95012F5F3F4F892B79F005
:1021F00059012CA53DA52A5F3F4F3DA72CA737E0ED
:10220000A316B10409F01FCF10920E0380C1822FD4
:1022100090910103122F00E0090F111D04531F4F6D
:10222000F8010491F2E0AF0EB11C90910603FA2D73
:10223000EE27E90FF11DE453FF4FE491E027E0930F
:10224000F5029091FF02782E612C690E711C9301AA
:1022500024533F4FF901649090910803FA2DEE2723
:10226000E90FF11DE453FF4FE491E625E093F602F8
:1022700090910203582E412C490E511C9201245377
:102280003F4FF901449090910A03FA2DEE27E90F90
:10229000F11DE453FF4FE491E425E093F7029091A0
:1022A000FD02D82EC12CC90ED11C960124533F4FDC
:1022B000F901949120910503FA2DEE27E20FF11D0B
:1022C000E453FF4FE491E927E093F8029091FE0276
:1022D000982E812C890E911C940124533F4FF901B3
:1022E000949120910703FA2DEE27E20FF11DE4539C
:1022F000FF4FE491E927E093F90290910003888F62
:102300001F8A2F89388D290F311D24533F4FF90122
:10231000949120910C03FA2DEE27E20FF11DE45366
:10232000FF4FE491E927E093FA02909103038A8F2B
:10233000198E298D3A8D290F311D24533F4FF901F4
:10234000949120910903FA2DEE27E20FF11DE45339
:10235000FF4FE491E927E093FB02909104038C8FF7
:102360001B8E2B8D3C8D290F311D24533F4FF901BE
:10237000949120910B03FA2DEE27E20FF11DE45307
:10238000FF4FE491E927E093FC029091FD028E8FCC
:102390001D8E2D8D3E8D290F311D24533F4FF90188
:1023A000949120910403FA2DEE27E20FF11DE453DE
:1023B000FF4FE491E927E093ED029091020388A397
:1023C0001F8E2F8D38A1290F311D24533F4FF90146
:1023D000949120910703FA2DEE27E20FF11DE453AB
:1023E000FF4FE491E927E093EE02909100038AA366
:1023F00019A229A13AA1290F311D24533F4FF901F8
:10240000949120910303FA2DEE27E20FF11DE4537E
:10241000FF4FE491E927E093EF029091FF028CA334
:102420001BA22BA13CA1290F311D24533F4FF901C1
:10243000949120910C03FA2DEE27E20FF11DE45345
:10244000FF4FE491E927E093F002909101038EA3FE
:102450001DA22DA13EA1290F311D24533F4FF9018B
:10246000949120910A03FA2DEE27E20FF11DE45317
:10247000FF4FE491E927E093F1029091FE0288A7D3
:102480001FA22FA138A5290F311D24533F4FF90159
:10249000949120910B03FA2DEE27E20FF11DE453E6
:1024A000FF4FE491E927E093F202909106038AA797
:1024B00019A629A53AA5290F311D24533F4FF9012B
:1024C000949120910803FA2DEE27E20FF11DE453B9
:1024D000FF4FE491E927E093F30290910503382E32
:1024E000212C290E311C910124533F4FF9012490D6
:1024F00080910903FA2DEE27E80FF11DE453FF4FF9
:10250000E491E225E093F40281E080930E03E296E9
:102510000FB6F894DEBF0FBECDBFDF91CF911F91F4
:102520000F91FF90EF90DF90CF90BF90AF909F9072
:102530008F907F906F905F904F903F902F90089575
:10254000863028F4E0910F03F09110030994089568
:1025500090EC980F963098F480E490E029E430E015
:10256000F901E81BF90BDC01A351BE4F4C91ED5F63
:10257000FC4F408301968634910591F708959AEBBC
:10258000980F9630C8F480913302809306038091AF
:102590003402809305038091350280930403809177
:1025A0003602809303038091370280930203809167
:1025B000380280930103089594EB980F9430B8F497
:1025C000909139029093000390913A029093FF0208
:1025D00090913B029093FE0290913C029093FD02F9
:1025E00070E0680F711D6035710509F40BCD089519
:1025F000462F50E0BC018DEE91E00C94BB2AEF9287
:10260000FF920F931F93CF93DF9300D0CDB7DEB728
:102610007C01CB0110920D031093100300930F0364
:10262000642F29833A83E4DF1092DD0286E0F7010C
:10263000ABEDB1E001900D928A95E1F786E0EBED0C
:10264000F1E0A7EEB2E001900D928A95E1F72981C1
:10265000E22F3A81F32F80E290E02191DC01A35137
:10266000BE4F2C93019680349105B9F72FEF89E680
:1026700098E1215080409040E1F700C00000589858
:102680005998509A8AB18C7F8AB91092EC011092B5
:10269000EB0184EA8093BA001092B90088E4809339
:1026A000B80081EC8093BC0010928C030F900F90C7
:1026B000DF91CF911F910F91FF90EF90089580913E
:1026C0000D03811109C08091BC0084608093BC001F
:1026D00081E080930D03789408951F920F920FB6B6
:1026E0000F9211242F933F934F935F936F937F9398
:1026F0008F939F93AF93BF93EF93FF938091B90014
:10270000887F803951F188F4803721F128F48036B0
:1027100009F18836F9F0DEC08038F9F0883809F41C
:10272000D9C0883709F0D6C015C0803B09F498C0DD
:1027300038F4803A09F489C0883A09F0CBC090C0D7
:10274000803C09F4C5C0883C09F4C2C0883B09F448
:102750008EC0C0C01092EA01BBC08091EA018823FC
:1027600009F466C02091BB008091EB019091EC01CF
:102770008E3F910529F4233019F481E080938C0376
:102780008091EB019091EC01803F910589F4253512
:1027900011F02A3A69F410920E0386E0EBEDF1E0B5
:1027A000A7EEB2E001900D928A95E1F71092E70151
:1027B0008091EB019091EC01892B91F4243681F406
:1027C0008091E801882361F086E0E1EEF1E0A7EE78
:1027D000B2E001900D928A95E1F781E08093E701E4
:1027E00080910E038823E1F0A091EB01B091EC0100
:1027F000E091EB01F091EC01E770FF27E351FD4F11
:102800008081E091EB01F091EC01E770FF27EB5044
:10281000FD4F90818227890FA351BE4F8C934AC0F0
:10282000E091EB01F091EC01E351FE4F208342C0B7
:102830008091BB0090E09093EC018093EB0181E0EC
:102840008093EA011092E90143C06091E90180910F
:10285000EB019091EC019091E901891B79DE38C080
:102860008091EB019091EC016BDE1092E901809177
:102870000E03E091EB01F091EC01E351FE4F882350
:10288000B1F08081E091EB01F091EC01E770FF275E
:10289000EB50FD4F2081E091EB01F091EC01E770EE
:1028A000FF27E351FD4F9081821B892701C0808162
:1028B0008093BB008091EB019091EC010196909385
:1028C000EC018093EB018091E9018F5F8093E90136
:1028D00085EC01C085E88093BC00FF91EF91BF912A
:1028E000AF919F918F917F916F915F914F913F91A8
:1028F0002F910F900FBE0F901F9018950895109272
:102900008D0357985F9A08950895549A57989BB1EC
:102910009BB9811105C081E090E0A0E0B0E01CC04F
:1029200081E090E0A0E0B0E04F9B1FC00000019666
:10293000A11DB11D883E23E09207A105B105A1F7B5
:1029400012C000000196A11DB11D811523E592075B
:1029500027E0A207B10539F04F99F3CF883E9340A5
:10296000A105B10511F48FEF089598E080E0880F7C
:102970002BE02A95F1F700004F9981602CE02A9511
:10298000F1F70000915099F7803461F48FE291E003
:102990000197F1F700C0000089B1807880938D0322
:1029A00080E4089508953AE03A95F1F700C0579A07
:1029B0005F9828E180E093E0A0E0B9E0B7FF09C0AC
:1029C00035E03A95F1F700005F9A35E13A95F1F775
:1029D00008C035E13A95F1F700005F9A35E03A9585
:1029E000F1F700005F98880F991FAA1FBB1F2150A5
:1029F00029F78AE08A95F1F700C057985F9A81E03D
:102A000084CF2F923F924F925F926F927F928F92DC
:102A10009F92AF92BF92CF92DF92EF92FF920F936D
:102A20001F93CF93DF93CDB7DEB765970FB6F894BA
:102A3000DEBF0FBECDBF10928D0380E066DF8D8BB1
:102A4000811102C0B0DF8D8B412C512C3201D3019A
:102A5000C201A66089839A83AB83BC83D301C20180
:102A6000AA608D839E83AF83B887D301C201A9601A
:102A700089879A87AB87BC87D301C201A5608D8700
:102A80009E87AF87B88BD301C201A460898B9A8BD4
:102A9000AB8BBC8B730162016894E3F85301420174
:102AA0006894A1F8689460F822242A94312C9D89B6
:102AB0009F3F09F4D8C09D89911102C074DF8D8BAE
:102AC000A0E1AA95F1F780916D03863019F4B30166
:102AD000A2012FC0823019F4B501A4012AC08111CE
:102AE00003C0B701A60125C0843029F449895A8959
:102AF0006B897C891EC0853029F44D855E856F8584
:102B0000788917C040E050E0BA01873029F4498540
:102B10005A856B857C850DC0813029F44D815E819D
:102B20006F81788506C0833021F449815A816B8199
:102B30007C8180916B0384FD606187FD606286FD0E
:102B4000606481FD02C0606802C06068716080FDE1
:102B5000726083FD746082FD786085FD7061809194
:102B60006E0390916F038101091B1109222717FD44
:102B70002095322F182B042B152B262B372B409109
:102B8000700350E060E070E080917103F101E81B98
:102B9000F109CF01AA2797FDA095BA2FF091420322
:102BA000742F662755274427E09143034E2B5F2B54
:102BB000DC0199278827482B592B6A2B7B2B579AA6
:102BC0005F9880E237FF09C0F5E0FA95F1F7000061
:102BD0005F9A95E19A95F1F708C0A5E1AA95F1F7FA
:102BE00000005F9AB5E0BA95F1F700005F98000F1A
:102BF000111F221F331F815029F780E277FF09C080
:102C0000E5E0EA95F1F700005F9AF5E1FA95F1F752
:102C100008C095E19A95F1F700005F9AA5E0AA95A2
:102C2000F1F700005F98440F551F661F771F815012
:102C300029F7BD89B13469F480E1E5E1EA95F1F75E
:102C400000005F9AF5E0FA95F1F700005F98815077
:102C5000A1F785E08A95F1F7000057985F9A81E027
:102C600054DE8D8B24CF80918D03882319F09093AF
:102C7000440302C01092440365960FB6F894DEBF79
:102C80000FBECDBFDF91CF911F910F91FF90EF90BD
:102C9000DF90CF90BF90AF909F908F907F906F907C
:102CA0005F904F903F902F90089580E02EDE99B175
:102CB00020E12A95F1F7811106C04F9B04C097FDD2
:102CC00002C081E1089580E008958AE391E00895CB
:102CD0000895109291031092900357985F9A089567
:102CE000089520E22A95F1F7579A5F9894E09A9513
:102CF000F1F7000098E087FF05C05F9A2DE02A9564
:102D0000F1F708C029E02A95F1F700005F9A24E066
:102D10002A95F1F700005F98880F24E02A95F1F7D3
:102D2000915049F784E08A95F1F757985F9A089592
:102D30003AE03A95F1F700C0579A5F9884E08A9597
:102D4000F1F7000020E180E095E097FF05C05F9A71
:102D50003DE03A95F1F708C039E03A95F1F7000007
:102D60005F9A34E03A95F1F700005F98880F991F59
:102D700034E03A95F1F7215041F728E081E090E006
:102D800087FF05C05F9A3DE03A95F1F708C039E04A
:102D90003A95F1F700005F9A34E03A95F1F70000B8
:102DA0005F98880F991F34E03A95F1F7215041F769
:102DB00084E08A95F1F757985F9A089557989BB1E8
:102DC0009BB98F3F19F44F99FECF14C041E050E0FA
:102DD00060E070E08130A9F44F9B10C000004F5FAD
:102DE0005F4F6F4F7F4F403D37E0530761057105DF
:102DF00099F704C041E050E060E070E028E090E026
:102E000026C08230D9F44F9BF9CF00004F5F5F4F4F
:102E10006F4F7F4F403990ED590793E06907710577
:102E200091F7ECCF00004F5F5F4F6F4F7F4F4039FE
:102E300030ED530733E06307710501F34F99F2CF8B
:102E4000DDCF3AE03A95F1F700C0215041F0990FFB
:102E500039E03A95F1F74F9BF4CF9160F2CF8111B1
:102E600007C040325E446105710589F0892F0895DD
:102E7000813031F4403D574061057105B9F707C015
:102E80008230A1F74039504D6340710579F78EEFDC
:102E9000089582E093DF9AE19A95F1F700C099B125
:102EA000813031F4892F8078803811F483E20895DD
:102EB00080E0089580918603882309F49CC0809166
:102EC000890331E0833209F030E091E0803109F08C
:102ED00090E0392B91E08F3209F090E0932B31E0B4
:102EE000813409F030E0392B21E0893709F020E006
:102EF000232B91E0382F3F7D333509F090E0922B62
:102F000021F48B7F8B3109F048C080916B03982F9F
:102F10009C709C3021F4806180936B033EC082FFE3
:102F200004C08B7F80936B03089583FF36C0982F76
:102F3000977F90936B0380916D03863011F49460BA
:102F400013C0823021F480916C0382601BC0811118
:102F500004C080916C03816015C0843011F49860C6
:102F600003C0873021F4956090936B0341C0853096
:102F700021F480916C038C6005C0813031F4809124
:102F80006C03836080936C0333C0833089F5809138
:102F90006B038A6080936B032BC080916D03863036
:102FA000B9F08230E1F0811103C010926F0320C0AC
:102FB000843021F48FEF80936F031AC0873019F4A7
:102FC00010926F0305C0853031F48FEF80936F034B
:102FD00010926E030DC0813021F410926F038FEFB9
:102FE00005C0833029F48FEF80936F0380936E03C5
:102FF0008FEF80936D030895DF92EF92FF920F930E
:103000001F93CF93DF931F92CDB7DEB78BB18F7C29
:103010008BB925E32A95F1F700008FEFEFECEE2E48
:10302000FFE2DF2E1FE70FEFFF24F39420ED37E0E0
:1030300090E049B1440F440B9F5F94232150310924
:103040002115310509F403C2953098F310928F03CE
:1030500010928E03109293031092920389832ADFB9
:1030600090916D038981963031F420918E033091D7
:103070008F03326037C0923031F420918E0330914B
:103080008F0331602FC0911106C020918E033091C3
:103090008F03386027C0943031F420918E03309133
:1030A0008F0334601FC0953031F420918E0330912E
:1030B0008F03366017C0973031F420918E03309122
:1030C0008F033A600FC0913031F420918E0330911C
:1030D0008F03396007C0933049F420918E033091FB
:1030E0008F03356030938F0320938E0390916B0391
:1030F00094FF09C020918E0330918F03306230938A
:103100008F0320938E0397FF09C020918E03309187
:103110008F03206130938F0320938E0396FF09C0A5
:1031200020918E0330918F03206230938F03209380
:103130008E0340916C0340FD04C02091710324363E
:1031400048F420918E0330918F03286030938F03D1
:1031500020938E0393FD04C020917103273948F01A
:1031600020918E0330918F03246030938F0320933E
:103170008E0392FD04C020917003243648F4209100
:103180008E0330918F03226030938F0320938E0340
:1031900041FD04C020917003273948F020918E032F
:1031A00030918F03216030938F0320938E0391FF22
:1031B00009C020918E0330918F03306830938F03C4
:1031C00020938E0390FF09C020918E0330918F03CE
:1031D000306430938F0320938E0395FF09C02091B4
:1031E0008E0330918F03306130938F0320938E03D1
:1031F00090916E03903D10F0E0926E0390916E03FB
:103200009F3210F4D0926E0390916F03903D10F0B6
:10321000E0926F0390916F039F3210F4D0926F038E
:1032200020916E03205830E0322F222790916F03B7
:10323000412F491B242B3093930320939203BEDD2F
:10324000813009F051C08AE08A95F1F700C0579AA1
:103250005F9894E09A95F1F7000020E180918E0349
:1032600090918F0397FF05C05F9AEDE0EA95F1F723
:1032700008C0F9E0FA95F1F700C05F9A34E03A959A
:10328000F1F700005F9880918E0390918F03880F73
:10329000991F90938F0380938E032150F9F620E1BC
:1032A000809192039091930397FF05C05F9A4DE040
:1032B0004A95F1F708C089E08A95F1F700C05F9A56
:1032C00094E09A95F1F700005F98809192039091B5
:1032D0009303880F991F9093930380939203215037
:1032E000F9F600C000C084C0811103C021DD81E077
:1032F0009DCE8F3F49F40F90DF91CF911F910F9199
:10330000FF90EF90DF9014CD823009F075C0E3E0BC
:10331000F1E03197F1F700C000008091900388231D
:1033200009F452C0FAE2FA95F1F700C0579A5F9893
:1033300022E02A95F1F7000080E091E020E827FFE5
:103340000AC032E03A95F1F700005F9A4DE04A95E5
:10335000F1F7000008C0E8E0EA95F1F700C05F9AD5
:10336000F5E0FA95F1F75F98269529F032E03A9565
:10337000F1F700C001C020E80197009701F700C0F5
:1033800000C0000088E098EB97FF05C05F9A4DE011
:103390004A95F1F708C0E9E0EA95F1F700005F9A75
:1033A000F4E0FA95F1F700005F98990F24E02A9570
:1033B000F1F7815049F734E03A95F1F7000057985A
:1033C0005F9A1092900393CF40E24A95F1F7579A93
:1033D00080E191E05F9AE4E0EA95F1F75F98FCE024
:1033E000FA95F1F701970097A9F725E02A95F1F7EB
:1033F000000057985F9A7BCF833031F587EF90E0DC
:103400000197F1F700C0000080E0D8DCE8EDFFE0B4
:103410003197F1F7803821F4F092900388EB12C0D5
:103420008E3F11F481EE0EC08B3111F480E00AC0A2
:10343000813021F4009344038BEE04C0811157CFF7
:10344000109244034EDC53CF8E3F09F050CF0F90C3
:10345000DF91CF911F910F91FF90EF90DF90089532
:1034600084E491E0089508958AB18C708AB98BB193
:10347000836F8BB983EF8093110380931203809342
:103480001303809314038093150346983E9888E0B5
:103490008093810082E080936F008FEF91E09093A2
:1034A00089008093880010921703109216031092DF
:1034B00045030895B19A10928500109284001092ED
:1034C0008100F894089589B1837F833F09F00895BE
:1034D0008FEF9CE7369B09C0369B0AC00197009787
:1034E000D9F7F5CF0197009791F3369BFBCF0EC02C
:1034F00089B1837F833F59F780E58A95F1F789B1D8
:10350000837F833F21F736990EC0E1CF89B1837F56
:10351000833FE9F680E58A95F1F789B1837F833FA0
:10352000B1F63699D4CF85E2089510924503909173
:10353000810095609093810078941092850010929C
:103540008400813031F4862FF82F3699FECFFBB9F5
:1035500005C0862FF82F369BFECFFBB9B19A10928B
:1035600085001092840010928100F89480914503A8
:10357000882369F03E988AE68A95F1F700C036996B
:1035800003C08BB18F7302C08BB1836F8BB98091F5
:10359000450308958AB1836F8AB983EF809311033D
:1035A0008093120380931303809314038093150375
:1035B00080916B0385FF03C092EF9093150380FF0A
:1035C00005C0909115039D7F90931503909115036D
:1035D0009F739093150387FF03C092EF909314039A
:1035E00081FF05C0809114038D7F809314030E9496
:1035F000850980916D039FEF980F933078F4909137
:103600001103906890931103909115039F77909305
:103610001503909114039F77909314039BEF980FD9
:10362000933090F4909111039064909311039091D2
:1036300015039F7B90931503909114039F7B9093A8
:103640001403873099F402C0811110C090911103C6
:10365000906190931103909115039F7E90931503B1
:10366000909114039F7E9093140302C0813071F3F4
:103670008350833078F4809111038062809311032A
:10368000809115038F7D80931503809114038F7DA6
:103690008093140380916B0386FF05C09091120301
:1036A0009F7E9093120383FF05C0909112039F7D2C
:1036B0009093120382FF05C0909112039F7B909319
:1036C000120384FF05C0809112038F778093120349
:1036D00036990AC06091140380E027DF81110DC084
:1036E0006091150381E008C06091150381E01DDF42
:1036F000811103C06091140318CF08954BCF8EE45D
:1037000091E0089508951092180381E080931903C1
:10371000579856988AB18F7C8AB93E985E9A5F9A7C
:103720008BB180638BB9469A089508954E9BFECF66
:103730008FEC97E00197F1F700C000004F9B14C099
:103740004E9912C04E9BFECF4F99FECF8FE891E06D
:103750000197F1F700C000004F9B02C080E001C05C
:103760008FE24F9903C0089580E0089581E20895A3
:10377000CF93559A549A3E9A80916803813211F002
:103780008F3219F40E9485094EC08F3109F04BC069
:1037900090916F0380916E039E3420F48E3440F438
:1037A00087E01EC0933B60F08E3430F485E018C093
:1037B000833B30F081E014C0833B10F083E010C005
:1037C0008E3410F486E00CC0833B10F082E008C019
:1037D0009E3418F410926D0305C0933B18F084E0FA
:1037E00080936D0390917103809170039E3418F45F
:1037F0008E34E0F005C0933B40F08E34D0F003C02F
:10380000833B18F502C0833BB8F48E34C0F0833B91
:10381000C8F49E34D0F041E080E0933B08F440E0EF
:10382000242F382F14C020E030E011C022E230E015
:103830000EC023E030E00BC021E130E008C022E000
:1038400030E005C020E130E002C020E330E08091AC
:103850006D03811102C020611BC0843011F420620D
:1038600017C0863011F4206413C0823011F4206830
:103870000FC0873011F420650BC0853011F420662D
:1038800007C0813011F4206903C0833009F4206A35
:1038900080916B0385FD286084FD2460909168030E
:1038A000913299F581FD216080FD22604091720383
:1038B00041110FC04091730341110BC090918603D9
:1038C0009111EDC040916E0350E04115510509F48E
:1038D000E8C0837061E070E011F060E070E0719525
:1038E0006195710981EE841B880F811D482F81FB32
:1038F00047F982FB46F983FB45F985FB43F986FBD3
:1039000042F987FB41F950E0CEC09F31B1F480FD10
:10391000306181FD3062482F447082FD2260982F13
:10392000987083FD2160411132609111316086FDF4
:10393000346087FD3860306CB2C09F3209F0AFC090
:1039400080FD216082FD226083FD316081FD326057
:1039500086FD346087FF02C03860A1C090911903D2
:10396000809186039430A1F1811105C080911803E4
:103970008F5F80931803809118038333F0F0809158
:103980006E0390E00B97B4F48091700390E00B9776
:103990008CF480916F0390E00B9764F48091710335
:1039A00090E00B973CF480917203811103C08091E9
:1039B0007303811130681092180394E690931D03ED
:1039C00080EA80931C0390931B0380931A0367C0C3
:1039D0003068882351F081E0809319033F778FE3AB
:1039E0009CE90197F1F700C0000060917203E0913B
:1039F0006B038091890361112DC060917303611184
:103A000029C0E6FD02C0853429F480E88093710363
:103A100080937003E7FF05C080E880936F03809375
:103A20006E0370916E0360917003472F50E0862FF4
:103A300090E0481759070CF0672FF0916F037091D1
:103A400071034F2F50E0872F90E0481759071CF063
:103A50007F2F01C070E880911C03871710F47093CA
:103A60001C0380911D03781710F470931D0380913F
:103A70001A03861710F460931A0380911B036817CA
:103A800010F460931B0370931E0360931F0322279F
:103A9000307F8E2F8F7009F03260E5FD316040E09D
:103AA00050E060E070E0A0916803AF3221F0AF31E8
:103AB00011F0B8E001C0B0E18FE094EA4E9904C083
:103AC00001970097D9F73DC08BB180638BB9C0E0F7
:103AD000E1E0F0E0CF0182239323892B11F05D9880
:103AE00001C05D9ACF0186239723892B11F05C9842
:103AF00001C05C9ACF0184239523892B11F046984D
:103B000001C0469AEE0FFF1FA13239F488EB9BE00B
:103B10000197A1F04F99FCCF0BC0AF3119F44F9929
:103B2000FECF06C0AF3221F44F99FECF4F9BFECFA0
:103B3000CF5FCB1778F2A13209F4C6CF5D985C98BD
:103B4000469887EC90E00197F1F700C00000CF9114
:103B5000089588E591E0089508955198599A3E98FE
:103B6000469A509A109221031092200308950895C6
:103B700070E090E06115710569F19B0128233923FC
:103B8000232B11F0589A0AC0589808C0369917C0CC
:103B90002F5F3F4F30936D0120936C0120916C019A
:103BA00030916D01283840E9340780F308C0369B16
:103BB0000EC02F5F3F4F30936D0120936C01209119
:103BC0006C0130916D01283840E9340780F3769517
:103BD0006795D0CF58980895DF92EF92FF920F9398
:103BE0001F93CF93DF93D0906E03E0906F03F0901C
:103BF000730380918603882329F010922103109289
:103C000020030AC08EEC8D0D873930F081E090E002
:103C100090932103809320038091200390912103AE
:103C200020916D0330916B0340916C03019741F536
:103C3000243049F0222351F0223059F0263061F02F
:103C400000E010E00BC000E014E008C000E018E065
:103C500005C000E012E002C000E011E030FD106499
:103C600031FD106136FD106837FD106135FD0068CB
:103C700034FD006441FD006140FF37C0006235C083
:103C8000253009F404C1273009F404C1213059F06A
:103C90002330B1F02430B9F0C0E0D0E8211106C0E3
:103CA000C0E0D8E812C0C0E0D4E90FC0223019F457
:103CB000C0E0D4E80AC0263041F4C0E0D2E805C034
:103CC000C0E0D2E902C0C0E0D0E930FDD16031FDF2
:103CD000C06837FDC06435FDC06234FDC06141FD80
:103CE000C86040FF04C0C46002C0CBE7D1E020ED53
:103CF00037E080E0369902C08F5F01C080E090E13C
:103D00009A95F1F7215031092115310509F4C5C003
:103D1000853080F3509A20916C0130916D012838E4
:103D200080E9380748F4369913C02F5F3F4F30932E
:103D30006D0120936C01EFCF2838304949F4ADC0B4
:103D4000369B0EC02F5F3F4F30936D0120936C0167
:103D500020916C0130916D01283880E9380780F39B
:103D60008091200390912103019711F458980AC083
:103D7000589A08C036990EC02F5F3F4F30936D019F
:103D800020936C0120916C0130916D01283890E9ED
:103D9000390780F381E090E090936D0180936C018E
:103DA000D7FF02C0589A01C0589885E18A95F1F76B
:103DB000000036996AC060E48D2FDADE60E88C2F4F
:103DC000D7DE2091200330912103232B09F45DC01D
:103DD00060E888E0CDDE60E88D2DCADE82E02091CB
:103DE0006C0130916D01283890E9390788F43699D3
:103DF0000FC02F5F3F4F30936D0120936C01EFCFC9
:103E0000369B0EC02F5F3F4F30936D0120936C01A6
:103E100020916C0130916D01283890E9390780F3C9
:103E20008150E9F660E88E2DA3DE82E020916C01DE
:103E300030916D01283890E9390788F436990FC020
:103E40002F5F3F4F30936D0120936C01EFCF369B76
:103E50000EC02F5F3F4F30936D0120936C01209176
:103E60006C0130916D01283890E9390780F3815059
:103E7000E9F660E88F2D7CDE68E082E079DE60E8BC
:103E8000812F76DE60E8802F73DE589A06C0C0E08E
:103E9000D2EA1BCFC0E0D4EA18CFDF91CF911F91B7
:103EA0000F91FF90EF90DF90089581E090E0909364
:103EB0006D0180936C0180916C0190916D01883847
:103EC00020E9920720F4369907C00196F0CF883890
:103ED000904911F480E0089587E998E00197F1F79F
:103EE00000C000003699F6CF81E090E090936D011C
:103EF00080936C0180916C0190916D01883820E96C
:103F0000920720F4369905C00196F0CF8838904981
:103F100009F3499BDFCF8FED9EE20197F1F700C0D7
:103F200000004F9BD7CF8BE2089582E691E0089581
:103F3000089510929503109294030895089583B103
:103F40008E3F59F481E090E0909395038093940321
:103F500090932303809322030FC083B18C3F59F4C5
:103F600081E090E090939503809394031092230353
:103F70001092220301C0089581E308950E948509EB
:103F800080916D03843081F0823081F0882381F04C
:103F9000863081F0873081F0853081F0813081F08A
:103FA000833081F020E00FC020E40DC020E10BC081
:103FB00020E809C020E207C020EA05C020E603C0CF
:103FC00020E901C020E540916B03642F617040FD42
:103FD00002C050E001C050E4809194039091950399
:103FE000342F32708130910571F4611121603111EB
:103FF000226030917E0332FD206C44FD206345FF3A
:104000001DC0206E1BC0611121603111226042FD74
:1040100002C030E001C030E843FD306446FD30624C
:1040200047FD306140916C0340FD386041FD3460D4
:1040300046FD326047FF03C0316001C030E0EBB1A4
:1040400078B165B1009709F499C0422F4095E36FAC
:104050004E23019719F483E0842701C0842F8BB984
:104060008091220390912303892B09F068C040912D
:10407000720341110DC080917303811109C08091B9
:104080008603811157C080916B03807F09F452C071
:104090008AB1816F8AB93E9A80916B0380FF02C01A
:1040A000469801C0469A411126C0409173034111C0
:1040B00022C08091860381111EC080916B03807F96
:1040C000D1F050916E0340917003252F30E02058BD
:1040D000310937FF03C0319521953109842F90E0D4
:1040E0008058910997FF03C09195819591092817F0
:1040F00039070CF0452F40FB87F941FB86F942FB5D
:1041000085F943FB84F9042E04FA47F905FA46F9C8
:1041100006FA45F907FA44F9589A807F8BB983ED7E
:1041200090E00197F1F700C000005898407F41608F
:104130004BB908958BB183608BB921FD5898852FB9
:104140008095972F9064892388B9832F8095962F27
:104150009E6F892385B9809194039091950301976F
:1041600009F423602AB98091220390912303892BBB
:1041700019F48AB183608AB957B934B908958EE6C3
:1041800091E008950895089510922B03109225034D
:104190003E9A469A8AB1806F8AB98BB18FEF8BB9FC
:1041A00010922D0382E080932C0310922403089533
:1041B0008FEC8BB989B18370833011F580E090E08A
:1041C00029B12370213029F0019681152AEF920739
:1041D000B9F72FEF2BB981159A4F91F020E030E01D
:1041E00089B18370813031F42F5F3F4F21158AEF01
:1041F0003807B1F78FEC8BB981E021153A4F09F4FC
:1042000080E008953E9A46988AE38A95F1F700C0C7
:10421000469ACEDF882359F08FE39CE90197F1F7A6
:1042200000C00000C5DF89B1837019F0089580E0F7
:10423000089585E0089599B19370E9F7982F9F60EC
:104240009BB9469899B193709130E1F720E1829F34
:10425000C00111248F608BB9469A08951F93CF93A4
:10426000DF93279A2F982F9A80916D03853089F0DC
:10427000873091F0813099F08330A1F08823A9F044
:104280008430B1F08630B9F08230C1F0CFEFDFEF8B
:1042900017C0CFE9DFEF14C0CFEADFEF11C0CFE6E0
:1042A000DFEF0EC0CFE5DFEF0BC0CFEEDFEF08C0D2
:1042B000CFEDDFEF05C0CFEBDFEF02C0CFE7DFEFE1
:1042C00090916B03692F627091FDCE7F97FF05C0BF
:1042D000811102C0DF7701C0CD7F90FDCB7F95FDBE
:1042E000C77FE92FE07496FF05C0811102C0D77F18
:1042F00001C0DF7E93FDDF7D792F747092FDDF7B3F
:1043000020916C0321FDDF7720FDD77F2091890369
:1043100031E0293709F030E051E0233209F050E074
:1043200041E0203109F040E0452B51E02F3209F007
:1043300050E0452B51E0213409F050E0452B432B50
:1043400051E0F22FFF7DF33509F050E0452B21F4C9
:10435000422F4B7F4B31A1F4492F4F704F3081F4E6
:10436000882321F040916F03423320F441E04093D1
:10437000240306C0843011F04B3A10F0109224034D
:1043800040912403442309F446C09E012227307142
:10439000CE0182709927AE0141705527C2FF03C03C
:1043A000C560D06103C0CE7FC460D061452B09F4E5
:1043B000DF7E232B09F4D77F892B09F4DF778091E7
:1043C0006E038E3410F4CF7B0DC0833B10F0CF779B
:1043D00009C080916F038E3410F4CF7E03C0833BFD
:1043E00008F0CF7D809170038E3410F4DF7B0DC018
:1043F000833B10F0DF7E09C0809171038E3410F48E
:10440000DF7D03C0833B08F0CE7F8FE18BB989B19C
:104410008370E9F75FC040912B03413009F448C035
:1044200010922503253451F0203431F02A3079F4EC
:10443000EE2321F0CE7F02C07111D77F10922B03A3
:1044400022E020932D0323E020932C0321C04091F0
:104450007203442391F0233711F0332371F061117B
:10446000CB7F23E020932C0322E020932D03209385
:104470002B0321E0209325030BC020916E032253D0
:10448000273930F026E020932C0321E020932D03E0
:10449000843071F49378933859F482E080932D033B
:1044A00083E080932C0381E080932B03809325038A
:1044B00080918603882349F010922D0382E0809337
:1044C0002C0310922B03109225038FE18BB989B135
:1044D0008370E9F710912C0380912D0320E1829FD6
:1044E000C0011124812BA7DE133009F078C0C095DC
:1044F000D09580912B03823019F42091720307C06C
:10450000833019F42091730302C020916E03822F2F
:1045100090E030912A03831B910920932A0397FD91
:1045200002C0CF7E01C0C061309189034091250354
:10453000343471F0442361F0283C20F0CF7E88E3CE
:104540009FEF13C0213420F4C06188EC90E00DC0CF
:104550009C012A513F4F2D3C314038F0CF7E809155
:10456000280384FDC0618091270391E0980F909308
:104570006E038093270320916F03822F90E0309188
:104580002903831B9109209329031816190614F493
:10459000C06201C0CF7D442361F0283C20F0C0629E
:1045A00082E390E013C0213420F4CF7D8EEC9FEFA6
:1045B0000DC09C0126503F4F253F314038F0CF7D44
:1045C0008091280385FDC06280912603982F9195E4
:1045D00090936F0380932603CF73C09328038C2F8F
:1045E0002ADE1330E1F480916E0325DE80916F03A3
:1045F00022DE153040F0809174031DDE153019F075
:104600008091750318DE81E016DE87EC90E001975B
:10461000F1F700C00000DF91CF911F9108958D2F19
:104620000ADE133080F3DFCF88E791E00895089524
:104630008AB1836F8AB988E08093810082E0809399
:104640006F00E8E8F0E08FEF91E0918380838FEFD7
:10465000808381E0809389000895B19A109285004B
:104660001092840010928100F89408953E9A469822
:1046700025E72A95F1F70000469A1C9903C080E2CD
:104680008A95F1F780E090E01C9B0BC001968115A4
:104690002AEF9207C9F712C0019681152AEF9207F7
:1046A00069F01C9BF9CF1D9908C08FE99FE0019725
:1046B000F1F700C0000085E10895089508950E9473
:1046C000850990916B0395FD02C03FEF01C03DEF5E
:1046D00097FD3F7780916D03823011F43F7B1BC0C3
:1046E000863011F43F7D17C0843011F43F7E13C033
:1046F000811102C03E7F0FC0873011F43E7D0BC098
:10470000853011F43F7C07C0813011F43E7B03C03B
:10471000833009F43F7A91FD02C02FEF01C02FE7EB
:1047200080916C03F82FF17080FD2F7B83FD2F7D2E
:1047300086FD2F7E60917E0361FD2E7F90FD02C07D
:104740005FEF01C05FE7E82FE27081FD5F7B84FDD2
:104750005F7D87FD5F7E62FD5E7F94FD02C04FEF4F
:1047600001C04FE782FD4F7B85FD4F7D60FD4F7E91
:1047700063FD4E7F80916803682F6D7F71E0693221
:1047800009F070E061E0A82FAF7EA53009F060E08D
:10479000762B692F6074711102C0853271F4F111AA
:1047A0002F7D2064E1114F7D61114F7E93FD5F7E6F
:1047B000506492FF06C02F7E04C061112F7D97FDCB
:1047C0004F7D1F9B04C01C9B04C080E003C081E0A0
:1047D00001C082E09091810095609093810078946F
:1047E0001092850010928400813029F08230A1F06F
:1047F00080E090E029C01F9BFECF8091450381118E
:104800004FC03BB91C9BFECF2BB91D9BFECF5BB9A4
:104810001E9BFECF4BB944C01C9BFECF809145032D
:1048200081113EC02BB91D9BFECF5BB91E9BFECFF5
:104830004BB91F9BFECF3BB91C9BFECF31C00196ED
:1048400081156AEF9607B1F11C99F9CF6091450384
:10485000611126C03BB91C9906C0019681153AEF3B
:104860009307C9F727C02BB91D9906C0019681157A
:104870006AEF9607C9F71EC05BB91E9906C001967C
:1048800081152AEF9207C9F715C04BB91F9906C0C9
:10489000019681153AEF9307C9F70CC083EF8BB9E6
:1048A000B19A109285001092840010928100F894C1
:1048B00010924503089582E891E0089508958AB121
:1048C00081678AB908950895803124EA920720F417
:1048D0004F9906C00196F8CF803124EA920739F04B
:1048E00028E02A95F1F7369B02C04F9905C080E079
:1048F0000895369B09C00196803124EA9207C8F3D7
:10490000803124EA920799F34F9BF1CF03C04F9B6C
:1049100008C00196803124EA9207C8F38031944A96
:1049200031F396B1892F807496FDE1CF4F9B87E2DA
:104930000895CF93DF930E94850930916B0335FD75
:1049400002C09FEF01C09FEE20916D03223009F459
:104950006AC0263009F469C0243049F0222389F066
:10496000273089F08FEF253021F48FEA0DC08FEBCF
:104970000BC0213011F48EED07C0233029F48EEBEB
:1049800003C08FED01C08FEC31FD9F7D30FD9E7F18
:1049900034FD9F7B232F2C7C69F037FD02C02FEF65
:1049A00001C02FED33FD2F7E32FD2F7B36FF07C078
:1049B0002E7F05C0292F382F9FEF8FEF05C03EE8CF
:1049C00003C0369905C02196C03144EAD407C8F324
:1049D0003BB903C04F9B05C02196C03144EAD407C0
:1049E000C8F32BB93E3841F084EF91E0369906C008
:1049F00001970097D9F702C0292F382F80E090E067
:104A0000369905C00196843F41E09407C9F73BB948
:104A10004F9B05C00196803134EA9307C8F32BB948
:104A2000DF91CF9108958EEFAFCF8FEEADCF8CE8B1
:104A300091E00895089584B18FEF84B908950895A1
:104A40008BE10895CF93E2EBF1E020E030E0C0E0AD
:104A5000DC01022E02C0B595A7950A94E2F7AB01DE
:104A6000022E02C0559547950A94E2F718161906CA
:104A70003CF46A0F7B1F841B950B4081C40F06C05A
:104A80006A1B7B0B840F951F4081C41B2F5F3F4F18
:104A9000319625303105E1F68C2FCF910895CF93D3
:104AA000DF93D0916E03D058C0916F03C0586D2F23
:104AB000772767FD709577FF03C071956195710940
:104AC0008C2F992787FD90956333710564F49C01C1
:104AD00097FF04C022273327281B390B23333105C6
:104AE00014F48FEF68C097FF03C0919581959109E9
:104AF000A9DF90E0D7FD1FC01C1674F48B30910520
:104B00000CF444C081329105DCF188339105D4F175
:104B10008E349105CCF12EC0CC2319F38B30910546
:104B2000ACF181329105A4F1883391059CF18E346A
:104B3000910594F10EC0C7FF11C08B309105A4F10F
:104B4000813291055CF18833910554F18E349105E1
:104B50004CF18A3591052CF68FEB2DC08B309105E9
:104B60001CF18132910514F1883391050CF18E34DA
:104B7000910504F18A3591050CF0B3CF8FEE1BC07F
:104B80008EED19C08EEC17C08FEC15C08FED13C0E1
:104B90008FE911C08EE90FC08EEB0DC08EE70BC000
:104BA0008EE309C08FE307C08FE705C08FE603C01F
:104BB0008EE601C08EEE90916D0320916B039F3FB6
:104BC00001F1943011F48F7E3CC0923011F48F7D4E
:104BD00038C0911102C08F7B34C0963011F48F77AA
:104BE00030C0973011F48E732CC0953011F48E764E
:104BF00028C0913011F48E7924C0933011F58E7C49
:104C000020C090916C0390FD877E91FD8B7E92FD7C
:104C10008D7E93FD877D94FD8B7D95FD8D7D96FD2D
:104C2000877B97FD8B7B90917E0390FD8D7B91FD23
:104C300001C024FD877792FD8B7793FD01C025FD90
:104C40008D7720FD897F21FD857F22FD01C027FD15
:104C5000837F85B9DF91CF91089586E991E008952A
:104C6000089510923503109234038FEF85B98BB9F4
:104C70008FE084B93E988AB180638AB98AB18F7314
:104C80008AB9089508958FEF80933103809330039C
:104C900080932F0380932E031092330310923203DC
:104CA00080916C0380FF03C09DEF9093300381FFE0
:104CB00003C09DEF90932F0382FF03C09DEF90935D
:104CC0002E0383FF05C0909130039B7F90933003A8
:104CD00084FF05C090912F039B7F90932F0385FF46
:104CE00005C090912E039B7F90932E0386FF05C0F5
:104CF00090913003977F9093300387FF05C0809198
:104D00002F03877F80932F0380917E0380FF05C050
:104D100090912E03977F90932E0381FF05C0909171
:104D200030039E7F9093300382FF05C090912F0344
:104D30009E7F90932F0383FF05C080912E038E7F6B
:104D400080932E0380916B0384FF03C09DEF9093AB
:104D5000310385FF05C0909131039B7F9093310310
:104D600082FF05C090913103977F9093310380FFBC
:104D700002C05C9801C05C9A80916B0381FF02C005
:104D80005D9801C05D9A40917203411104C0809109
:104D90007303882369F080916B0380FF09C05D98DD
:104DA00007C04E9B11C0019690933303809332034A
:104DB0008091320390913303883622E4920788F37E
:104DC0008836924409F425C11092330310923203BD
:104DD0001C9B17C08091320390913303853FF1E013
:104DE0009F0710F0589A6BC00196909333038093FD
:104DF0003203EECF1C9B0DC001969093330380933A
:104E000032038091320390913303883622E4920773
:104E100088F38091310385B98091320390913303F7
:104E20008836E2E49E0740F41D9B06C001969093ED
:104E3000330380933203F0CF8091300385B98091A2
:104E40003203909133038836F2E49F0740F41E9BAF
:104E500006C001969093330380933203F0CF809184
:104E60002F0385B98091320390913303883622E471
:104E7000920740F41F9B06C00196909333038093E2
:104E80003203F0CF80912E0385B980913203909147
:104E900033038836E2E49E0740F41C9B06C001966B
:104EA0009093330380933203F0CF8FEF85B907C01F
:104EB0004E990DC0019690933303809332038091F5
:104EC0003203909133038836F2E49F0788F38AB166
:104ED000806C8AB98BB18F738BB98AB1806C8AB9B7
:104EE00050916F0360917103252F30E020583109F4
:104EF00037FF03C0319521953109862F90E0805806
:104F0000910997FF03C09195819591092817390759
:104F10000CF0652F442309F1242F30E080913403F5
:104F200090913503A901481B590B7AE0749FC00189
:104F3000759F900D112430933503209334038038EE
:104F400091057CF59C012F5F3F4F2330310568F1BF
:104F500081382FEF92073CF129C02091730322235F
:104F600041F130E08091340390913503A901481B51
:104F7000590B7AE0749FC001759F900D11243093F6
:104F8000350320933403803891055CF48138EFEFCA
:104F90009E074CF09C012F5F3F4F2330310528F0D6
:104FA00005C08FE703C081E801C080E040E8480FFA
:104FB0001AC050916E0340917003252F30E02058A5
:104FC000310937FF03C0319521953109842F90E0D5
:104FD0008058910997FF03C09195819591092817F1
:104FE00039070CF0452F90E0941708F05F9A961758
:104FF00008F05E9AEBEDF0E03197F1F700C00000A9
:105000009F5F9F3F89F78BB1806C8BB98AB18F739B
:105010008AB908958FE193E00197F1F700C000008D
:105020001092330310923203809132039091330334
:10503000883622E4920778F41C9B0DC00196909369
:10504000330380933203F0CF1D9B15C001969093DC
:105050003303809332038091320390913303883677
:1050600022E4920788F307C01E9B15C00196909317
:105070003303809332038091320390913303883657
:1050800022E4920788F307C01F9B12C001969093F9
:105090003303809332038091320390913303883637
:1050A00022E4920788F38836924411F480E0089550
:1050B0008BE0089580EA91E0089580B3806680BB1C
:1050C00081B3806681BB089520B380B38F7980BBA4
:1050D0009FB120BB907681E009F480E008959FB1F4
:1050E000907651F428E632E49FB1907639F421505D
:1050F000310921153105C1F78EEF089596E09A9593
:10510000F1F700C09FB19076B9F790E19A95F1F769
:10511000E6E4F3E040E0481709F4B1C090819695C9
:105120009083000000007D9B03C000C000C002C04F
:105130009068908394E19A95F1F790819695908389
:10514000000000007D9B03C000C000C002C090684A
:10515000908394E19A95F1F7908196959083000061
:1051600000007D9B03C000C000C002C09068908317
:1051700094E19A95F1F79081969590830000000054
:105180007D9B03C000C000C002C09068908394E182
:105190009A95F1F7908196959083000000007D9B91
:1051A00003C000C000C002C09068908394E19A954B
:1051B000F1F7908196959083000000007D9B03C0DD
:1051C00000C000C002C09068908394E19A95F1F706
:1051D000908196959083000000007D9B03C000C0E5
:1051E00000C002C09068908394E19A95F1F7908195
:1051F00096959083000000007D9B03C000C000C016
:1052000002C0906890837D9B17C020E030E07D9BBA
:105210000BC02F5F3F4F2C3D95E03907C1F704C00D
:105220007D9906C02F5F3F4F2C3D95E03907C1F7B0
:1052300096E09A95F1F720C020E030E07D990BC010
:105240002F5F3F4F2C3D95E03907C1F704C07D9B90
:105250000BC02F5F3F4F2C3D95E03907C1F704C0CD
:105260007D9906C02F5F3F4F2C3D95E03907C1F770
:1052700095E09A95F1F700004F5F31964CCF85E3AA
:105280008A95F1F7000080914603089590B39F79C5
:1052900090BB28E632E49FB1907639F42150310971
:1052A00021153105C1F78FEF08959AE19A95F1F72D
:1052B00000C090B3906690BB91B39F7991BB27E0FB
:1052C0002A95F1F798E08D9A2AE02A95F1F700C027
:1052D00080FD8D982AE02A95F1F700C086959150BF
:1052E00091F78D9A85E08A95F1F700008D9890E10D
:1052F0009A95F1F781B3806681BB80B38F7980BBCB
:105300002AE12A95F1F700C080E008958AEA91E049
:105310000895982F973058F59093E900981739F031
:105320007091EC002091ED005091F00003C0242F0B
:10533000762F50E021FF19C03091EB003E7F309373
:10534000EB003091ED003D7F3093ED003091EB00AC
:1053500031603093EB007093EC002093ED0050939C
:10536000F0002091EE0027FF07C09F5FD3CF8F7022
:105370008093E90081E0089580E0089517D01ED061
:10538000E0EEF0E0808181608083E8EDF0E08081F4
:105390008F77808319BCA7EDB0E08C918E7F8C93C2
:1053A00080818F7E8083109299030895E8EDF0E06C
:1053B00080818E7F80831092E20008951092DA003F
:1053C0001092E10008951F920F920FB60F921124D0
:1053D0002F933F934F935F936F937F938F939F93FD
:1053E000AF93BF93EF93FF938091E10082FF0AC0D8
:1053F0008091E20082FF06C08091E1008B7F809364
:10540000E100A5D08091DA0080FF1DC08091D80016
:1054100080FF19C08091DA008E7F8093DA0080913E
:10542000D90080FF0CC080E189BD82E189BD09B44B
:1054300000FEFDCF81E080939A0389D004C019BC9F
:1054400010929A0384D08091E10080FF18C080916F
:10545000E20080FF14C08091E2008E7F8093E20022
:105460008091E20080618093E2008091D8008062A8
:105470008093D80019BC85E080939A0368D080910E
:10548000E10084FF2DC08091E20084FF29C080E10B
:1054900089BD82E189BD09B400FEFDCF8091D800AD
:1054A0008F7D8093D8008091E1008F7E8093E10012
:1054B0008091E2008F7E8093E2008091E200816023
:1054C0008093E20080919603811104C08091E300F3
:1054D00087FF02C084E001C081E080939A0337D047
:1054E0008091E10083FF22C08091E20083FF1EC013
:1054F0008091E100877F8093E10082E080939A03AE
:10550000109296038091E1008E7F8093E10080915C
:10551000E2008E7F8093E2008091E20080618093C0
:10552000E20042E360E080E0F4DE11D0FF91EF9111
:10553000BF91AF919F918F917F916F915F914F91AB
:105540003F912F910F900FBE0F901F9018950895C7
:10555000EE0FFF1F0590F491E02D0994FB01DC0193
:1055600004C08D910190801921F441505040C8F73A
:10557000881B990B0895FB01DC0102C001900D927C
:0C55800041505040D8F70895F894FFCF38
:10558C00B80B520C040CB70BCB0BE40FE40EDC0E77
:10559C00D10ED60EE02080E02080E02080E020803C
:1055AC0000000000E02080E02080E02080E02080EF
:1055BC00000000000000A42001017F140115551605
:1055CC007E1484146916FC17491768167016341A61
:1055DC007E1B631A331A5A1A831BB81B961B821B29
:1055EC00951BAD1DEC1D551FAC1DB71D0100991F62
:1055FC00BE1F9F1F981F9E1FC4202E210221C22058
:10560C00C32018235F23362317232D235F249924CB
:10561C0064245E2463241B254F2520251A251F2571
:10562C00312643260A28302642265D286F28462933
:08563C0064282D1B0E07040079
:00000001FF
