:100000007AC5000094C5000092C5000090C50000AC
:100010008EC500008CC500008AC5000088C50000A0
:1000200086C500000C94F02E0C94E33180C50000CE
:100030007EC500007CC500007AC5000078C50000C0
:1000400076C5000075C5000072C5000070C50000CF
:100050006EC500006CC500006AC5000068C50000E0
:1000600066C5000064C5000062C5000060C50000F0
:100070005EC500005CC500005AC5000058C5000000
:1000800056C5000054C5000052C5000050C5000010
:100090000C948E154CC500004AC5000048C50000F0
:1000A00046C5000044C5000042C500002A103210B9
:1000B000A70FFA0F4C105D1075109210D910D910BF
:1000C000D910D910A010B610D910C91070510386DC
:1000D000400D4FEB3ECCD18735BDF50B5ED0F8F22D
:1000E000D5E26C310CADFC21C378C106C24C55E69B
:1000F0004A3448111EDAE71A84A096A7E37FAF635B
:100100009CFA235B79C89EBAB2C922124BB3A1B63E
:100110003249A2E189391066C5078F54EA91CA3F76
:10012000F919F0D746BC281B61E82F6AAE9DF64E40
:100130000914774DDB1F2E7B7CF143A300B8138C91
:1001400085B9297588FDD2561C509741E53B60B5AD
:10015000C064EE98D62D25A4AACD7DA883C6ABBEDB
:100160004499263CCE9FBFD3CB767A7E82018A9A71
:10017000801D0EB05CD43862F430E08E53B7025765
:10018000ACA6520A6D9265172433457274B1B4F768
:100190005DED2CFF47375A90BBDF2A165995D9C41D
:1001A000276773C768FEA5DD6B5F93D8EC053A8DB2
:1001B0006EFB3DA96936F394DEEF156F8B9B080F3C
:1001C000DC81182004E471CFE92B425801A0A96218
:1001D000D63F85A7B6D4FA15661709BD5D14342637
:1001E00059729154064FF8B05B7493998CF245CDD7
:1001F000EA4EAD104AE5CAEEDFC66F9F888E02CC8C
:1002000008A877946D21B128E43979966071811638
:100210002EE678B9C4469A42AEB77C43B3221A861A
:10022000C2323D2D9CD229E9639BD131385E1E3606
:1002300041BB03182B3EBF6861FC52C0DEE00A5888
:10024000135A00BE1C900E5312FDE26EBACE242744
:10025000447F87A3A1D55040E3F983F7C7A235C8EF
:10026000DB19AB2F1125ED339E55E148AF7384DACE
:100270002AAA51EB9D95B2CBE77080FE4C6504EF46
:10028000C5F1C33AB4F55F2389DD30A58BD3F6DC25
:100290004D64D7F08FEC56375CA40D07768A2C0B93
:1002A000B5D8C11FE83BF44B1B476C49677B92CF25
:1002B000757E20D97D3C977AD0056B0F1DFB829807
:1002C000578DF36ABCACC9A6FFB8690C4C4D7207D8
:1002D0005A49338DA2AB463D630DA097FFF0F5FA66
:1002E000C0E9DB62E4E17443DC86182937F406E2F6
:1002F000ED6F90481E2D1DEA739454DF25F64727B5
:10030000D91177C9841C5B5C5181A6223E2496C812
:100310008AEC827C09B8454A57BB2F50758E6170B4
:100320008C6CAFD0FDB41BAEDEFE3BB536BD5501C7
:100330000E9C41565FB3260383BA134BCAC50AF815
:1003400060A5B9C7C39832FB12F9A792AA68F378DF
:100350007E05202102E8BFF2B0598FD2CB87651508
:10036000F11AB230ADEE58A38B661F2CD75D1985FC
:10037000A8E6D36BA10C91936A5E0B79E3DD004F85
:100380003C896E7169A9AC40E59928C6314E7ACD99
:10039000089E7DEF17FC88D8A46D4495D1B7D49BF7
:1003A000BE2A34642BCF2EEB38CE23E03A3FF77BC6
:1003B0009F1053BC526716E7807604C4B6C1C27F53
:1003C0009ADAD53942149DB10F35D6CCB9DA380C4A
:1003D000A29C091F06B1B6FD1A692330C4DE01D103
:1003E000F45829371C7DD5BFFFBDC8C9CF65BE7B7A
:1003F0007897986708B32657F7FA40AD8E75A67CB4
:10040000DB918B5199D4177A908DCE63CB4EA0ABF4
:10041000183A5B507F2174C1BBB8B7BA0B35953120
:10042000599A4D04071E5A7613F37183D08603A898
:100430003942AA28E6E4D85DD3D06E6F96FB5EBC45
:1004400056C25F859BE7AFD23B846AA753C5444938
:10045000A5F936723D2CD91BA1F54F939D684741F4
:1004600016CA2A4CA387D6E5192E77156D70C0DF02
:10047000B20046EDC66C4360922DA922458F3455DB
:10048000AEA40A6632E0DC02ACE8208C89624AFE47
:10049000EEC3E33CF17905E9F62733CCF29E1181F6
:1004A0007E80108A829F480DD7B4FC2FB5C7DD88A7
:1004B000146B2B54EA1D945CB0EF1224CDEBE1E2F7
:1004C00064733F0E5261253EF80F4BECC00030F6CE
:1004D00002493D106E20C9A62FFE2C2B752E4526F5
:1004E000AB48A980FC04CCD3B5BAA338317D01D97F
:1004F000A77B96B663694EF7DEE078CA50AA4191B1
:100500006588E42185DA3A27BE1C3E425E17527F99
:100510001F89246F8F5C67740E12878DE934ED7329
:10052000C4F8615B05DF594C97798318A45595EBA6
:10053000BD53F5F15766469FB2810951862216DDFB
:1005400023937629C2D71DD4BF363FEA4B1132B967
:10055000625460D66D439A0D929CB0EF586C9D77B3
:100560002D70FAF3B30BE2407EF48AE58C3C5671B1
:10057000D164E1820ACB131590EC0399AF145D0F9F
:10058000334A94A5A8351BE36AC628FF4DE72584A6
:10059000AC08AEC5A22AB8370C7AA0C3CEAD061AF5
:1005A0009E8BFBD5D0C11ED0B49BB144F247C76827
:1005B000CF72BB4F5AF9DC6BDBD2E87CC8EE98A156
:1005C000E6D839075FFD8E19B73BBCCD7CE381735C
:1005D000B211BF6F2098FE7596EF6CDA50E1097288
:1005E0005445BA34805BED3E532C87A457F3333F18
:1005F0003CB767B4A325604F076B1B47150FE40A90
:10060000EAD1327836498D4BD2BCA5DC1D0D4DCDDB
:100610009A825FFC9465BEE2F4C91E44CB9E0C64D2
:10062000712663B314E840708A0E19426DAC8810CD
:100630005CDF41A9ADE5FB74CCD5068E5986CE1F93
:100640003D76E08FB977277BA6D829D3ECB813F78E
:10065000FAC3516ADE4A5AEBC28B234892CF62A892
:1006600099F8D02E856143C8BDF00593CA4EF17D3F
:1006700030FDC469662F08B152F921E67A2BDD39C5
:1006800084FFC091D637D47F2D9B5DA13B6EB5C54D
:100690004604F590EE7E831C0356B6AA001701357A
:1006A00055790B12BB1A31E7022816C1F6A2DB18E6
:1006B0009C89683897ABC72AD73AF2C6244CB05801
:1006C000A0225E9DD9A7E9AEAF8C959F28B720D711
:1006D000B030C30919C067D6003C7EE7E9F4085A78
:1006E000F8B82E05A6259E5CD8150DE1F611546BC1
:1006F000CD2146665E84AD06382944C5A2CEF1AA56
:10070000C1407186B5EFFC36A8CB0A48274564A3E3
:10071000AF8CB2C69F0789DC17D34979FBFE1DD089
:10072000B9884352BC01782B7D94C70EDEA5D59BBA
:10073000CCF7617AC274813903AB96A037BD2D72B4
:10074000753FC9D48E6FF98DED62DB1CDF04AC1BE5
:100750006C144B63D0BFB482EC7B1A5992D21060F8
:10076000B63D5FE6806E70C4F235D97CEEE541A4FB
:100770005B50DDBB4CF31F9D5D57555197E35842CD
:100780004D9C73BAC877316926AEEA8ADA22B387FC
:1007900056FA930B341633E8E453BEA9B13A3EF54A
:1007A000906ACF3B12FD8F9AA7479199EB0F24FFD8
:1007B0002318854E7F0CE0A1D2D12C2A4A024F1E6D
:1007C00095688B98836D76CA6532132FC3829AA47D
:1007D000BA8160373435FC80A8516567ED305F1011
:1007E000D34A272F13B92AD2CCE1EFAEEBBEF4BD2A
:1007F000CF43B3C58884B7DD3940CE486D9B726165
:100800007EE7A14E532E773BE2C936221B6E73B1B1
:1008100003B24C87A9D44D0FD8156CAA18F64957C6
:100820005DFB7A149463A011B09EDE0546C8EE47C6
:10083000DBDC24899C919729E97BC1071EB8FDFE6A
:10084000ACC662984FF179E0E86B7856B68D0450EB
:1008500086CA6F20E6EAE576171C747FBC0D2C85EE
:10086000F76696E48B753F4BD938AF7CDA0B832D56
:100870003132A2F51D594145BF3C1FF8F98AD01607
:10088000256912999D2195AB01A6D7B5C07DFF586A
:100890000E3A92D155E3089FD63E528EFAA3C70274
:1008A000CDDF8F64198CF3A70C5E0A6A09F0935BA5
:1008B00042C20623EC71ADB4CBBB7028D51A5C33B1
:1008C000685A004490A5C4263D2BF25496ADDA1F19
:1008D000ED33E18169080D0ADB35779A64D1FC7844
:1008E000AA1BD067A0DDFA6C63710584176A894F73
:1008F000667FC65055926FBDE7D240728DBBEC0645
:10090000428AE4889D7E7A822713411AAFC8A47672
:10091000B4C2FE6D1CD96130B37CEAF7290FF23BFB
:1009200051C1DE5FE52A2F990B5DA32B4AAB95A53C
:10093000D35856EE283100CC1546CAE686383C65B9
:10094000F5E39FD65B094983702D53A97DE2C4ACC2
:100950008E5EB825F4B957F3F16847B2A25920CE9C
:1009600034795C900E1EBED52223B1C91862162EB2
:10097000913E078FD83F933DD49BDF8521FB1174B7
:1009800097C7D7DC4C194598E943024BBCC3049C7C
:100990006BF07552A726F6C5BACFB0B7AE5AA1BF55
:1009A000038B80126E0CEBF9C04424EF10F8A88C76
:1009B000E87BFF9E2CCD603687B594A654733A141D
:1009C0004E011DB6FD37484D39CBE0320000000026
:1009D0000000000000000000000000000000000017
:1009E0000000000000000000000000000000000007
:1009F00000000000000000000000000000000000F7
:100A000000000000000000000000000000000000E6
:100A100000000000000000000000000000000000D6
:100A200000000000000000000000000000000000C6
:100A300000000000000000000000000000000000B6
:100A400000000000000000000000000000000000A6
:100A50000000000000000000000000000000000096
:100A60000000000000000000000000000000000086
:100A70000000000000000000000000000000000076
:100A80000000000000000000000000000000000066
:100A90000000000000000000000000000000000056
:100AA0000000000000000000000000000000000046
:100AB0000000000000000000000000000000000036
:100AC000000000000000000000000000A877A6E081
:100AD000F7435A3585E272978FB71A6287380D67E8
:100AE000C7BE4F3E2076378F68B7A9263F2B10E34D
:100AF000307E900E850A11241FBECFEFDAE0DEBFF4
:100B0000CDBF12E0A0E0B1E0EEE3F8E602C0059050
:100B10000D92A83EB107D9F726E0A8EEB2E001C0D9
:100B20001D92AA34B207E1F7D6D20C941D3468CADC
:100B30001F920F920FB60F9211242F933F934F9352
:100B40005F936F937F938F939F93AF93BF93EF9335
:100B5000FF9381E08093E00510928500109284005D
:100B600080910506853151F4E0912C06F0912D0617
:100B70000480F581E02D80E0099508C0853231F4CC
:100B8000369B02C0469801C0469A3E9AFF91EF916B
:100B9000BF91AF919F918F917F916F915F914F9195
:100BA0003F912F910F900FBE0F901F901895E091DD
:100BB0002C06F0912D060480F581E02D81E2099547
:100BC0008F3FC1F1E0912C06F0912D060280F38158
:100BD000E02D82E00995803F50F0E0912C06F091E5
:100BE0002D060480F581E02D80E00995E0CF80910D
:100BF000E10580932B068091E205982F91709093E8
:100C0000250683FB992790F990932A0684FB992760
:100C100090F99093290685FB992790F990932706E0
:100C200086FB992790F990932606881F8827881FAE
:100C300080932806089580912B06893721F083330D
:100C400011F08F3721F491E09093240602C01092A6
:100C50002406982F977F973759F0893749F0982FB6
:100C60009F7B933329F0893019F08251823020F430
:100C700081E0809323060895109223060895CF9370
:100C800080912506882311F1E0912C06F0912D0624
:100C90000480F581E02D80E009958F3F11F48EEFFF
:100CA000F1C0E0912C06F0912D060480F581E02D35
:100CB00081E009958F3F99F3E0912C06F0912D0684
:100CC0000280F381E02D8DE0CF91099480910A0696
:100CD000893218F010920A066ADF80910A068F5F47
:100CE00080930A06E0912C06F0912D060480F58190
:100CF000E02D81E009958F3F91F2E0912C06F09173
:100D00002D060280F381E02D8DE00995C82F803FEC
:100D100048F580912B068C1791F1E0912C06F0910B
:100D20002D060480F581E02D80E0099540DFE091FB
:100D30002C06F0912D060480F581E02D81E00995C7
:100D40008F3F09F4ACCFE0912C06F0912D06028084
:100D5000F381E02D8DE00995C82F81E08093E802B2
:100D6000C03F68F0E0912C06F0912D060480F581DB
:100D7000E02D80E009958F3F09F083C090CF8091EE
:100D80000306882309F46DC080912306882309F4A3
:100D900068C09091DE058091EE05981305C08091A2
:100DA000E902882309F45DC0E0912C06F0912D063C
:100DB0000480F581E02D8CE10995E0912C06F091FD
:100DC0002D060480F581E02D8091EE050995E091D6
:100DD0002C06F0912D0681E09091EE05911101C055
:100DE00080E00480F581E02D81950995E0912C0645
:100DF000F0912D060480F581E02D81E10995E091C7
:100E00002C06F0912D060480F581E02D8CE10995EA
:100E1000E0912C06F0912D060480F581E02D809163
:100E2000DE050995E0912C06F0912D0681E0909168
:100E3000DE05911101C080E00480F581E02D8195EF
:100E40000995E0912C06F0912D060480F581E02DA6
:100E500084E109958091DE059091EE0589278093C4
:100E6000E9028091E802882319F01092E80255D235
:100E7000E0912C06F0912D060480F581E02D80E0B4
:100E800009958C2FCF910895CF93DF931F92CDB703
:100E9000DEB7F5DE8F3F19F491E09093250690912F
:100EA000250691112AC0803FE0F09091E305209142
:100EB000E205922398239F3F29F08F3F19F481E0A8
:100EC0008093250681E0809328068DE0E6EFF5E02B
:100ED000A1EEB5E001900D928A95E1F780912B0685
:100EE00019C09DE0E1EEF5E0A6EFB5E001900D92AE
:100EF0009A95E1F780932B060DC09DE0E6EFF5E0B3
:100F0000A1EEB5E001900D929A95E1F7803F10F4C3
:100F100010922506209125069091F005222369F074
:100F20002091E205911105C091E09093F0052062B7
:100F300001C02F7D2093E2050AC0992341F0109251
:100F4000F005898334DE91E09093E80289819091E5
:100F50002B06993009F484C09091F102F091F002CF
:100F6000E091EF027091EE024F2F49274E2747275D
:100F70002091ED0242272091EC0242272091EB02C2
:100F8000422750E021E030E06091EA02662311F050
:100F900020E030E04217530709F062C06091E50598
:100FA0006F3F21F0961710F46093F1029091E605DF
:100FB0009F3F21F0F91710F49093F002662321F07F
:100FC0006E1710F46093EF02992321F0971710F435
:100FD0009093EE026F3F79F07091F102462F50E04E
:100FE000272F30E0255031092417350724F46150AC
:100FF000671B6093E5059F3F79F06091F002492FF0
:1010000050E0262F30E0255031092417350724F40D
:101010009150961B9093E6059091E505992371F008
:101020006091EF02492F50E0262F30E02B5F3F4FB9
:10103000421753071CF4961B9093E5059091E60523
:10104000992371F06091EE02492F50E0262F30E095
:101050002B5F3F4F421753071CF4961B9093E605F6
:101060008093F105D2D28091E20580930D068091A4
:10107000E30580930E068091E4058093200680911D
:10108000E505809310068091E60580931106809116
:10109000E705809316068091E805809312068091FB
:1010A000E905809313068091EA05809317068091E5
:1010B0002B06893741F08091EB05809315068091CE
:1010C000EC05809314068091ED0580930F060F9038
:1010D000DF91CF91B0CDCF93DF931F92CDB7DEB725
:1010E0001AB817B814B88FEF8BB988B985B990E8DA
:1010F000909361001092610095B7906895BF95B785
:10110000906895BF1AB817B814B88BB988B985B963
:1011100088E090E00E94153480930B0689E090E00F
:101120000E941534809309068AE090E00E941534ED
:101130008093F2058BE090E00E9415348093DF05E8
:10114000509A589A58982FEF88E393E021508040A6
:101150009040E1F700C00000589A109225061092C6
:10116000F0051092E90210920A0681E08093E802ED
:101170005FD20E94B9318091D80080628093D800FC
:1011800089B58D7F89BD8091D8008F778093D800F5
:101190001CBC1092CA001092C8001092C900109294
:1011A0007A008091BC008B7F8093BC001092C000BD
:1011B000109291001092900015BC14BC1092810006
:1011C00010928000AFE9BFE01197F1F700C0000076
:1011D00043D28823E9F30E94813190932D068093B6
:1011E0002C06DC01ED91FC91099580E88093EA02E0
:1011F0008093EB028093EC028093ED028093EE02E9
:101200008093EF028093F0028093F102FED1E0918F
:101210002C06F0912D060480F581E02D80E00995E3
:101220002EDD803FE8F78983C2DC898180932B061D
:1012300010E82ADE8091F2058F3FA1F0209111067F
:10124000811104C02095209311060CC090911306C3
:10125000813029F0823031F4209520931106909549
:10126000909313066091100670E060587109209108
:10127000110630E0205831098091DF0590E0019699
:10128000982F8827990F229FA001239F500D500D62
:10129000112457FF03C0519541955109669F900154
:1012A000679F300D300D112437FF03C03195219514
:1012B0003109240F351F2817390720F41093110620
:1012C000109310066091120670E060587109209129
:1012D000130630E020583109229FA001239F500DB2
:1012E000500D112457FF03C0519541955109669F38
:1012F0009001679F300D300D112437FF03C03195E9
:1013000021953109240F351F2817390720F4109330
:1013100013061093120698D18CCFE0912C06F09111
:101320002D060480F581E02D84E20995E0912C06DC
:10133000F0912D060480F581E02D80E00995E09183
:101340002C06F0912D060480F581E02D85E20995AB
:10135000E0912C06F0912D060480F581E02D80E0CF
:1013600009958091050621E0823309F020E091E0A3
:10137000853209F090E0292B91E0382F3D7F3932FA
:1013800009F090E0922B29F4982F9F7E953009F078
:1013900041C080912B0621E0803109F020E091E0EE
:1013A000833209F090E0922B21E08F3109F020E0A8
:1013B000292B91E08F3209F090E0922B31E08134BB
:1013C00009F030E0392B21E0893709F020E0232BA8
:1013D00091E0382F3F7D333509F090E0922B41F4B6
:1013E000873731F0893021F0877F833109F0B4C02D
:1013F000E0912C06F0912D060480F581E02D84E229
:101400000995E0912C06F0912D060480F581E02DE0
:1014100084E0A1C021E0893109F020E091E08F3221
:1014200009F090E0292B91E08F3109F090E0922BA8
:1014300021F4982F9B7F933181F580912B06982F73
:10144000977F31E0933009F030E0982F9F7E9850DD
:1014500021E0923008F020E0232B91E0382F3B7FF1
:10146000313209F090E0922B31F4883221F083512F
:10147000833008F071C0E0912C06F0912D060480B5
:10148000F581E02D85E20995E0912C06F0912D067D
:101490000480F581E02D83E05EC0833209F048C00E
:1014A00080912B06982F977F21E0933009F020E060
:1014B00091E0382F3F7D383009F090E0922B21E009
:1014C0003CEE380F323008F020E0292B91E038EE66
:1014D000380F333008F090E0922B31F4982F9B7F37
:1014E000913211F08633C1F5E0912C06F0912D0672
:1014F0000480F581E02D84E20995E0912C06F091BD
:101500002D060480F581E02D84E00995E0912C06FC
:10151000F0912D060480F581E02D85E20995E0919A
:101520002C06F0912D060480F581E02D81E013C09A
:101530008B3091F4E0912C06F0912D060480F5811A
:10154000E02D80E20995E0912C06F0912D060480B3
:10155000F581E02D80E10994089540911106909164
:10156000130621E09E3408F020E081E04E3408F0BC
:1015700080E0282B80911206222341F08E3420F047
:10158000309110063E3410F487E03CC031E0933BCC
:1015900008F430E091E0433B08F490E0932B41F0F5
:1015A0008E3420F0309110063E3410F485E02AC0CD
:1015B000222341F0833B20F430911006333B10F09E
:1015C00081E020C0992341F0833B20F43091100644
:1015D000333B10F083E016C0309110068E3410F0CB
:1015E0003E3410F486E00EC0833B10F4333B10F021
:1015F00082E008C0222319F010920F060895992363
:1016000019F084E080930F06089510921706109247
:101610000E0610920D068FE080930F0680E88093EF
:101620001306809312068093110680931006089586
:1016300014BEA89588E10FB6F894809360001092CC
:1016400060000FBEF8940895E0912106F091220603
:101650000280F381E02D0994CF93DF93509A589A3A
:1016600058988FE697E10197F1F700C00000589A6B
:10167000AFE9BFE01197F1F700C000001092030638
:10168000109204061AB817B814B88FEF8BB988B93E
:1016900085B90E944F309093220680932106DC0189
:1016A0001496ED91FC911597099580930506E091AC
:1016B0002106F091220681110CC20084F185E02DF3
:1016C0000995509A589A58988FE39CE90197F1F739
:1016D00000C00000589A1AB817B814B88FEF8BB929
:1016E00088B985B90E94872F90932206809321069E
:1016F000DC011496ED91FC911597099580930506F0
:10170000E0912106F09122068111E3C10084F18568
:10171000E02D0995509A589A58988FED9BEA0197B9
:10172000F1F700C00000589A1AB817B814B88FEF34
:101730008BB988B985B90E94092C909322068093B1
:101740002106DC011496ED91FC9115970995809383
:101750000506E0912106F09122068111BAC10084AC
:10176000F185E02D0995509A589A58988FE79BEB90
:101770000197F1F700C00000589A1AB817B814B8CA
:101780008FEF8BB988B985B90E94A42A909322065D
:1017900080932106DC011496ED91FC911597099533
:1017A00080930506E0912106F0912206811191C1F6
:1017B0000084F185E02D0995509A589A58988FE148
:1017C0009BEC0197F1F700C00000589A1AB817B8BF
:1017D00014B88FEF8BB988B985B901D590932206DB
:1017E00080932106DC011496ED91FC9115970995E3
:1017F00080930506E0912106F0912206882351F09E
:101800000190F081E02D099581E08093030680939B
:10181000040690C10084F185E02D0995509A589AEC
:101820005898BFEF29EF80E0B15020408040E1F7A9
:1018300000C00000589A1AB817B814B88FEF8BB9C7
:1018400088B985B90E94A626909322068093210626
:10185000DC011496ED91FC9115970995809305068E
:10186000E0912106F0912206811133C10084F185B7
:10187000E02D0995509A589A5898BFE726E081E0E4
:10188000B15020408040E1F700C00000589A1AB8DB
:1018900017B814B88FEF8BB988B985B90E94751D38
:1018A0009093220680932106DC011496ED91FC9121
:1018B00015970995C82F80930506E0912106F091B0
:1018C0002206811106C10084F185E02D0995509A08
:1018D000589A5898BFEF22E181E0B15020408040F3
:1018E000E1F700C00000589A89B18C3F89F41AB81A
:1018F00017B814B88FEF8BB988B985B90E947D28C5
:101900009093220680932106DC01ED91FC91E4C0C6
:10191000E0912106F09122060084F185E02D0995E1
:1019200083B18F3F09F0DAC0509A589A5898BFEFA8
:1019300026E781E0B15020408040E1F700C0000080
:10194000589A1AB817B814B88FEF8BB988B985B9F7
:101950000E94F51F9093220680932106DC011496C5
:10196000ED91FC911597099580930506E09121066C
:10197000F09122068111ADC00084F185E02D09951A
:10198000509A589A5898BFE723E881E0B150204018
:101990008040E1F700C00000589A1AB817B814B890
:1019A000DFEFDBB9D8B9D5B90E948718909322062A
:1019B00080932106DC011496ED91FC911597099511
:1019C00080930506E0912106F091220681111EC048
:1019D0000084F185E02D09951AB817B814B8DBB961
:1019E000D8B9D5B90E947A1C90932206809321061B
:1019F000DC011496ED91FC911597099580930506ED
:101A0000E0912106F0912206882341F00190F081B7
:101A1000E02D099581E0809303068CC00084F18558
:101A2000E02D09951AB817B814B8DBB9D8B9D5B9EB
:101A30000E94E1219093220680932106DC011496F6
:101A4000ED91FC911597099580930506E09121068B
:101A5000F091220681113DC00084F185E02D0995A9
:101A60001AB817B814B8DBB9D8B9D5B90E9462252D
:101A70009093220680932106DC011496ED91FC914F
:101A80001597099580930506E0912106F0912206AD
:101A900081111FC00084F185E02D09951AB817B88F
:101AA00014B8DBB9D8B9D5B90E946727909322063C
:101AB00080932106DC011496ED91FC911597099510
:101AC00080930506E0912106F0912206882309F40F
:101AD0004BC00190F081E02D09952CC083B1509A44
:101AE000589A58988F3541F5BFEF23EF81E0B150F8
:101AF00020408040E1F700C00000589A1AB817B89B
:101B000014B88FEF8BB988B985B99AD4909322060F
:101B100080932106DC01ED91FC910995E09121066D
:101B2000F09122060480F581E02D09958093050649
:101B30008823B1F0C1E026C0BFEF20E782E0B150BA
:101B400020408040E1F700C00000589A1AB817B84A
:101B500014B88FEF8BB988B985B90E940B23D6CF03
:101B6000E0912106F09122060084F185E02D09958F
:101B7000509A589A58988FE99CE80197F1F700C05D
:101B80000000589A8C2FDF91CF91089508951CBCC6
:101B9000809128068093F4021092F9021092FA02C2
:101BA0001092F8021092F70288E184B98FEF85B99C
:101BB0008FE68CBD8CB58F7B8CBD2B9808951CBC9B
:101BC00008956EBD0DB407FEFDCF882371F080919E
:101BD000FA02811104C08AE28A95F1F700C02C98BC
:101BE00085E08A95F1F700002C9A189902C08EB50D
:101BF000089580E00895CBDF2B9A8CB580648CBD6E
:101C00000895CF93C82F6091120681E0DADF8150EA
:101C10008E3F38F48FEA94E00197F1F700C000009E
:101C2000EADF6091130681E0CCDF6091100681E06D
:101C3000C8DF609111068C2FCF91C3CFCF9380E086
:101C400090E0DC01189B0AC00196A11DB11D8430F3
:101C500027E1920723E0A207B105A1F7E7ECF0E046
:101C60003197F1F700C00000189B02C080E02FC040
:101C7000EFE9FFE03197F1F700C0000084309741B1
:101C8000A340B10599F3189BF1CFB5DF60E080E088
:101C900098DF813029F06FEF80E093DF813031F7FA
:101CA0006FEF81E08EDF61E481E08BDFC82F6AE5B2
:101CB00081E087DF6FEF81E084DF6FEF81E081DF1C
:101CC00025E32A95F1F70000C23451F787E1CF915F
:101CD00008951F93CF93DF93189BFECF8AEB98E86C
:101CE000189B06C001970097D9F788EC8093F702FC
:101CF00080910F06882309F46EC2823009F46DC208
:101D0000843049F0863089F0813089F0DFEF83300C
:101D100021F4DFE90DC0DFEB0BC0853011F4DFE308
:101D200007C0873029F4DFE603C0DFE701C0DFEC3E
:101D300080910D0684FDDE7F85FDD77F90910E0694
:101D400096FDDD7F97FDDB7F80FD02C0CFEF01C0F8
:101D5000CFEB81FDCF7D82FDCF7783FDCF7E86FDEA
:101D6000CB7F87FDC77F90FDCE7F91FDCD7F8CB56A
:101D700080648CBD84B1886184B92B9A8091F7020C
:101D800087FD39DF8091F7028F5F8093F7026FEF55
:101D900081E017DF813009F00CC28091F8028111D7
:101DA000C0C09091FA029923C1F080912B06893727
:101DB00051F0282F2D7F203131F08F3121F028EF85
:101DC000280F223010F4923051F0833351F08F37C6
:101DD00051F0833551F463E509C061E407C069E758
:101DE00005C063E203C063EE01C063E781E0E9DEA2
:101DF000182F2091FA028091F502281729F090916E
:101E0000F3029E5F9093F3022093F5026AE581E06E
:101E1000D8DE6D2F81E0133479F5D3DE8093F8029C
:101E2000811102C060E026C08091F20281112BC0B6
:101E30008091F302811131C08091FA02823009F061
:101E400048C06C2F81E0BDDE8093EE0581E0D9DED5
:101E50008091FA02823009F04BC0CAE060E081E074
:101E6000B0DEC150D9F76091160681E0AADE60911C
:101E7000170680E0A6DE3CC0A4DE8093DE058091DC
:101E8000F202882331F081508093F2026C2F81E0BE
:101E900023C08091F302882331F081508093F302B4
:101EA0006C2F80E022C08091FA02823091F46C2F76
:101EB00081E087DE8093EE0581E0A3DE8091FA0267
:101EC0008230B1F4CAE060E081E07BDEC150D9F736
:101ED000CACF813039F46C2F74DE8093EE0580E038
:101EE00090DE06C0811104C06C2F6BDE8093EE057E
:101EF00040912806242F30E08091F40290E02817CA
:101F0000390709F456C14093F40281E09091FA0236
:101F1000911180E08093FA028093F5028093F90298
:101F200048C1813009F045C163EF4BDE182F6AE5E7
:101F300081E047DE812F90E0FC01E054F109E031BF
:101F4000F10508F036C1EA5AFF4F0C94C8326D2FE4
:101F500081E037DE8093DE058091F202882331F044
:101F600081508093F2026C2F81E02BC08091F302AC
:101F7000882331F081508093F3026C2F80E02AC0D7
:101F80008091FA028230D1F46C2F81E01ADE8093C6
:101F9000EE0581E036DE8091FA028230F1F4CAE08B
:101FA00060E081E00EDEC150D9F76091160681E055
:101FB00008DE6091170680E004DE0FC0813039F43E
:101FC0006C2FFFDD8093EE0580E01BDE06C08111E3
:101FD00004C06C2FF6DD8093EE058091F6028F5FD2
:101FE0008093F6028B3008F4E4C01092F60210924F
:101FF000F802DFC060E081E0E4DD8093F802813028
:1020000099F48091FA02823011F0C4E007C0CCE06C
:1020100060E081E0D6DDC150D9F7F7CF60E081E024
:10202000D0DDC150D9F7A0C060E081E0CADD8A35BB
:1020300061F460E081E0C5DD60E081E0C2DD60E088
:1020400081E0BFDD60E080E0BCDD8091F90280933B
:10205000FA02AFC060E081E0B4DD60E081E0B1DDB4
:1020600062E010C081E08093F3029091F902911137
:1020700002C08093F9026FEF81E0A3DD6FEF81E092
:10208000A0DD63E081E09DDD60E081E09ADD60E05D
:1020900081E097DD6AE57AC060E081E092DD8093BF
:1020A000F9028091F40281111092F902C4E060E01B
:1020B00081E087DDC150D9F757C081E08093F302FA
:1020C00080912406882311F063E001C061E081E083
:1020D00078DD62E081E075DD61E08091F4028111DC
:1020E00060E081E06EDD62E027C060E081E069DDF4
:1020F000811102C0CAE001C0C4E160E081E061DD9D
:1021000061E081E05EDDCA3011F462E001C061E0AF
:1021100081E057DD61E0CA3009F460E081E051DD23
:102120006C2F34C060E081E04CDD60E081E049DD8F
:1021300062E081E046DD60E081E043DD61E012C005
:1021400060E081E03EDD811102C0C4E001C0C7E073
:1021500060E081E036DD60E081E033DD6C2F81E01E
:1021600030DD60E081E02DDD60E010C060E081E006
:1021700028DD61E081E025DD6FEF81E022DD6FEF9A
:1021800081E01FDD6FEF81E01CDD6FEF80E019DD86
:1021900010C081E08093F20282E08093F90260E057
:1021A00081E00FDDC4E060E081E00BDDC150D9F7D4
:1021B000DBCF1092F7028CB58F7B8CBD8FE193E063
:1021C0000197F1F700C0000084B1877E84B9DF91E8
:1021D000CF911F910895DFEEABCDDFEDA9CD80E06B
:1021E00091E00895089581E08093FB020895ECEB5F
:1021F000F0E080818B7F808308951092FB028091B4
:10220000FB028823E1F38FE99FE00197F1F700C01B
:10221000000085E1ECEFF2E0DF011D928A95E9F71D
:1022200080E88093FF028093FE028093FD028093FA
:10223000FC028091100692E9980F943210F080937E
:10224000FC028091120692E9980F943210F080936C
:10225000FD028091110692E9980F943218F0809552
:102260008093FE028091130692E9980F943218F041
:1022700080958093FF028091160680930003609101
:102280001706609301039FEF90930203909303035B
:1022900090910D0697FF03C02DEF2093020395FF49
:1022A00005C0209102032B7F20930203209120067A
:1022B00022FF05C020910203277F2093020394FF91
:1022C00005C0209102032F7E2093020396FF05C0D4
:1022D000209102032F7D2093020320910F062430CA
:1022E00021F4209102032F7B05C0223031F420918C
:1022F00002032F772093020309C0211102C02EEFA1
:1023000003C0263019F42DEF2093030330910E06FD
:1023100031FF05C0209103032B7F2093030330FF7F
:1023200005C0209103032F772093030390FF05C07E
:10233000209103032F7B2093030391FF05C020917D
:1023400003032F7E2093030392FF05C02091030314
:102350002F7D2093030393FF05C020910303277F64
:102360002093030390912E06911142C02091FD020B
:10237000269526952695422F4871B8E04B9FA001DF
:1023800011249091FC0296959695942B9093FC02C3
:10239000267090E2299F900111249091FE0296955B
:1023A0009695922B9093FD02869586958695282F7B
:1023B0002871A4E02A9F900111249091FF02969524
:1023C00096959695922B9093FE02B0E28B9FC0015A
:1023D0001124962F969596959695982B9093FF029B
:1023E0008091020380930003809103038093010393
:1023F00065E18CEF92E01DC30F931F938BB1836057
:102400008BB98AB18C7F8AB985E1ECEFF2E0DF010C
:102410001D928A95E9F703EF10E124E131E045E1EF
:10242000BF0184E391E00CD31F910F9169C3E4DFF6
:102430001092FB028091FB028823E1F389E1089569
:102440008AE091E008952F923F924F925F926F92AF
:102450007F928F929F92AF92BF92CF92DF92EF9234
:10246000FF920F931F93CF93DF93CDB7DEB7E29721
:102470000FB6F894DEBF0FBECDBF1DA61CA6A12CC3
:10248000B12C78E0E72EF12CDE01519680E090E04F
:102490002CA53DA52453354FF901E80FF91FE49110
:1024A000ED93019686309105B9F7DE01119680E033
:1024B00090E0FC01EC5CFB4FE081F0E0E453FF4F67
:1024C000E491ED9301968A30910599F7AB817E8175
:1024D0008989872790E04A2F47702A8528ABFD819C
:1024E0009701241B31093AAB29AB9C0109A802C012
:1024F000220F331F0A94E2F702C0959587954A95FB
:10250000E2F7822B38A9831B8F278B87B9814A81F9
:102510004EA78A89842790E04B2F4770E885970162
:10252000241B31093AAB29AB9C0109A802C0220F38
:10253000331F0A94E2F702C0959587954A95E2F712
:10254000822B871B8E278C873F813FA72B892327D0
:1025500030E069856770C701861B9109A901082EC3
:1025600001C0440F0A94EAF7062E02C0359527955C
:102570000A94E2F7242B2A1B2B272D872C892F273F
:1025800030E04E2F47704BA79C81A701BBA54B1B8A
:1025900051095AAB49ABA90109A802C0440F551F04
:1025A0000A94E2F702C035952795BA95E2F7242BF5
:1025B000291B2A272E872D895EA5252730E0AFA568
:1025C000A770A7014A1B51095AAB49ABA90109A839
:1025D00002C0440F551F0A94E2F75AAB49AB02C040
:1025E00035952795AA95E2F7242B291B2F272F87AE
:1025F0002E892E2730E0F90102C0EE0FFF1F8A95C9
:10260000E2F7CF0102C0359527956A95E2F7822B54
:10261000871BF8A98F27888B46E050E06EE274E0B4
:10262000CE010B960E94F03395012F5F3F4F892B0F
:1026300079F059012CA53DA52A5F3F4F3DA72CA756
:1026400037E0A316B10409F01FCF10923F0480C1F8
:10265000822F90913204122F00E0090F111D0453B4
:102660001F4FF8010491F2E0AF0EB11C90913704B6
:10267000FA2DEE27E90FF11DE453FF4FE491E02717
:10268000E093260490913004782E612C690E711C21
:10269000930124533F4FF901649090913904FA2D2E
:1026A000EE27E90FF11DE453FF4FE491E625E09397
:1026B000270490913304582E412C490E511C92014D
:1026C00024533F4FF901449090913B04FA2DEE279B
:1026D000E90FF11DE453FF4FE491E425E093280452
:1026E00090912E04D82EC12CC90ED11C96012453D2
:1026F0003F4FF901949120913604FA2DEE27E20F15
:10270000F11DE453FF4FE491E927E09329049091F0
:102710002F04982E812C890E911C940124533F4F35
:10272000F901949120913804FA2DEE27E20FF11D62
:10273000E453FF4FE491E927E0932A049091310498
:10274000888F1F8A2F89388D290F311D24533F4FC1
:10275000F901949120913D04FA2DEE27E20FF11D2D
:10276000E453FF4FE491E927E0932B049091340464
:102770008A8F198E298D3A8D290F311D24533F4F91
:10278000F901949120913A04FA2DEE27E20FF11D00
:10279000E453FF4FE491E927E0932C049091350432
:1027A0008C8F1B8E2B8D3C8D290F311D24533F4F59
:1027B000F901949120913C04FA2DEE27E20FF11DCE
:1027C000E453FF4FE491E927E0932D0490912E0408
:1027D0008E8F1D8E2D8D3E8D290F311D24533F4F21
:1027E000F901949120913504FA2DEE27E20FF11DA5
:1027F000E453FF4FE491E927E0931E0490913304E2
:1028000088A31F8E2F8D38A1290F311D24533F4FD0
:10281000F901949120913804FA2DEE27E20FF11D71
:10282000E453FF4FE491E927E0931F0490913104B2
:102830008AA319A229A13AA1290F311D24533F4F80
:10284000F901949120913404FA2DEE27E20FF11D45
:10285000E453FF4FE491E927E09320049091300482
:102860008CA31BA22BA13CA1290F311D24533F4F48
:10287000F901949120913D04FA2DEE27E20FF11D0C
:10288000E453FF4FE491E927E0932104909132044F
:102890008EA31DA22DA13EA1290F311D24533F4F10
:1028A000F901949120913B04FA2DEE27E20FF11DDE
:1028B000E453FF4FE491E927E093220490912F0421
:1028C00088A71FA22FA138A5290F311D24533F4FE0
:1028D000F901949120913C04FA2DEE27E20FF11DAD
:1028E000E453FF4FE491E927E093230490913704E8
:1028F0008AA719A629A53AA5290F311D24533F4FB0
:10290000F901949120913904FA2DEE27E20FF11D7F
:10291000E453FF4FE491E927E093240490913604B7
:10292000382E212C290E311C910124533F4FF901DF
:10293000249080913A04FA2DEE27E80FF11DE4531C
:10294000FF4FE491E225E093250481E080933F046A
:10295000E2960FB6F894DEBF0FBECDBFDF91CF91E8
:102960001F910F91FF90EF90DF90CF90BF90AF90AD
:102970009F908F907F906F905F904F903F902F909F
:102980000895863028F4E0914004F09141040994C0
:10299000089590EC980F963098F480E490E029E444
:1029A00030E0F901E81BF90BDC01A25EBC4F4C9151
:1029B000EC5CFB4F408301968634910591F70895B6
:1029C0009AEB980F9630C8F4809164038093370493
:1029D000809165038093360480916603809335046B
:1029E000809167038093340480916803809333045B
:1029F0008091690380933204089594EB980F94308A
:102A0000B8F490916A039093310490916B03909382
:102A1000300490916C0390932F0490916D039093E8
:102A20002E0470E0680F711D6035710509F40BCD3F
:102A30000895462F50E0BC018EE193E00C94FD33E5
:102A4000EF92FF920F931F93CF93DF9300D0CDB7F8
:102A5000DEB77C01CB0110923E0410934104009339
:102A60004004642F29833A83E4DF10920E0486E049
:102A7000F701ACE0B3E001900D928A95E1F786E0B2
:102A8000ECE0F3E0A8E1B4E001900D928A95E1F763
:102A90002981E22F3A81F32F80E290E02191DC013D
:102AA000A25EBC4F2C93019680349105B9F72FEFAD
:102AB00089E698E1215080409040E1F700C0000095
:102AC00058985998509A8AB18C7F8AB910921D03F0
:102AD00010921C0384EA8093BA001092B90088E433
:102AE0008093B80081EC8093BC0010922E060F906A
:102AF0000F90DF91CF911F910F91FF90EF9008956C
:102B000080913E04811109C08091BC008460809353
:102B1000BC0081E080933E04789408951F920F9248
:102B20000FB60F9211242F933F934F935F936F93A0
:102B30007F938F939F93AF93BF93EF93FF93809176
:102B4000B900887F803951F188F4803721F128F469
:102B5000803609F18836F9F0DEC08038F9F088381F
:102B600009F4D9C0883709F0D6C015C0803B09F4F4
:102B700098C038F4803A09F489C0883A09F0CBC08B
:102B800090C0803C09F4C5C0883C09F4C2C0883BB1
:102B900009F48EC0C0C010921B03BBC080911B0300
:102BA000882309F466C02091BB0080911C0390919A
:102BB0001D038E3F910529F4233019F481E08093A1
:102BC0002E0680911C0390911D03803F910589F48E
:102BD000253511F02A3A69F410923F0486E0ECE0C2
:102BE000F3E0A8E1B4E001900D928A95E1F710922C
:102BF000180380911C0390911D03892B91F42436B6
:102C000081F480911903882361F086E0E2E1F3E02A
:102C1000A8E1B4E001900D928A95E1F781E08093FC
:102C2000180380913F048823E1F0A0911C03B09128
:102C30001D03E0911C03F0911D03E770FF27E25E86
:102C4000FB4F8081E0911C03F0911D03E770FF278B
:102C5000EA5DFB4F90818227890FA25EBC4F8C9367
:102C60004AC0E0911C03F0911D03E25EFC4F2083FB
:102C700042C08091BB0090E090931D0380931C03A1
:102C800081E080931B0310921A0343C060911A03E2
:102C900080911C0390911D0390911A03891B79DE8A
:102CA00038C080911C0390911D036BDE10921A03B3
:102CB00080913F04E0911C03F0911D03E25EFC4F04
:102CC0008823B1F08081E0911C03F0911D03E7702F
:102CD000FF27EA5DFB4F2081E0911C03F0911D036B
:102CE000E770FF27E25EFB4F9081821B892701C0BE
:102CF00080818093BB0080911C0390911D030196FD
:102D000090931D0380931C0380911A038F5F80931F
:102D10001A0385EC01C085E88093BC00FF91EF9118
:102D2000BF91AF919F918F917F916F915F914F91E3
:102D30003F912F910F900FBE0F901F9018950895FF
:102D400010922F0657985F9A08950895549A5798AD
:102D50009BB19BB9811105C081E090E0A0E0B0E09B
:102D60001CC081E090E0A0E0B0E04F9B1FC00000DD
:102D70000196A11DB11D883E23E09207A105B10572
:102D8000A1F712C000000196A11DB11D811523E518
:102D9000920727E0A207B10539F04F99F3CF883E9B
:102DA0009340A105B10511F48FEF089598E080E0FC
:102DB000880F2BE02A95F1F700004F9981602CE0F5
:102DC0002A95F1F70000915099F7803461F48FE271
:102DD00091E00197F1F700C0000089B180788093FD
:102DE0002F0680E4089508953AE03A95F1F700C07F
:102DF000579A5F9828E180E093E0A0E0B9E0B7FF40
:102E000009C035E03A95F1F700005F9A35E13A954F
:102E1000F1F708C035E13A95F1F700005F9A35E027
:102E20003A95F1F700005F98880F991FAA1FBB1F02
:102E3000215029F78AE08A95F1F700C057985F9AE8
:102E400081E084CF2F923F924F925F926F927F9258
:102E50008F929F92AF92BF92CF92DF92EF92FF92AA
:102E60000F931F93CF93DF93CDB7DEB765970FB660
:102E7000F894DEBF0FBECDBF10922F0680E066DF54
:102E80008D8B811102C0B0DF8D8B412C512C320112
:102E9000D301C201A66089839A83AB83BC83D3012B
:102EA000C201AA608D839E83AF83B887D301C2011C
:102EB000A96089879A87AB87BC87D301C201A560C7
:102EC0008D879E87AF87B88BD301C201A460898BA1
:102ED0009A8BAB8BBC8B730162016894E3F853014E
:102EE00042016894A1F8689460F822242A94312C55
:102EF0009D899F3F09F4D8C09D89911102C074DF5C
:102F00008D8BA0E1AA95F1F780910F06863019F418
:102F1000B301A2012FC0823019F4B501A4012AC067
:102F2000811103C0B701A60125C0843029F4498965
:102F30005A896B897C891EC0853029F44D855E8550
:102F40006F85788917C040E050E0BA01873029F4D6
:102F500049855A856B857C850DC0813029F44D816A
:102F60005E816F81788506C0833021F449815A8162
:102F70006B817C8180910D0684FD606187FD6062BC
:102F800086FD606481FD02C0606802C06068716097
:102F900080FD726083FD746082FD786085FD7061E4
:102FA00080911006909111068101091B11092227B9
:102FB00017FD2095322F182B042B152B262B372B82
:102FC0004091120650E060E070E080911306F1013C
:102FD000E81BF109CF01AA2797FDA095BA2FF09120
:102FE0001606742F662755274427E09117064E2BA7
:102FF0005F2BDC0199278827482B592B6A2B7B2BC9
:10300000579A5F9880E237FF09C0F5E0FA95F1F72B
:1030100000005F9A95E19A95F1F708C0A5E1AA959D
:10302000F1F700005F9AB5E0BA95F1F700005F98FC
:10303000000F111F221F331F815029F780E277FFF5
:1030400009C0E5E0EA95F1F700005F9AF5E1FA952D
:10305000F1F708C095E19A95F1F700005F9AA5E0B5
:10306000AA95F1F700005F98440F551F661F771F60
:10307000815029F7BD89B13469F480E1E5E1EA9531
:10308000F1F700005F9AF5E0FA95F1F700005F981C
:103090008150A1F785E08A95F1F7000057985F9A73
:1030A00081E054DE8D8B24CF80912F06882319F088
:1030B0009093DE0502C01092DE0565960FB6F89477
:1030C000DEBF0FBECDBFDF91CF911F910F91FF905B
:1030D000EF90DF90CF90BF90AF909F908F907F90B8
:1030E0006F905F904F903F902F90089529DE80E081
:1030F0002DDE99B120E12A95F1F7811106C04F9B91
:1031000004C097FD02C081E1089580E008958AE33C
:1031100091E0089508951092330610923206579860
:103120005F9A0895089520E22A95F1F7579A5F98DB
:1031300094E09A95F1F7000098E087FF05C05F9A48
:103140002DE02A95F1F708C029E02A95F1F7000053
:103150005F9A24E02A95F1F700005F98880F24E039
:103160002A95F1F7915049F784E08A95F1F757983D
:103170005F9A08953AE03A95F1F700C0579A5F9840
:1031800084E08A95F1F7000020E180E095E097FF68
:1031900005C05F9A3DE03A95F1F708C039E03A95ED
:1031A000F1F700005F9A34E03A95F1F700005F987C
:1031B000880F991F34E03A95F1F7215041F728E044
:1031C00081E090E087FF05C05F9A3DE03A95F1F716
:1031D00008C039E03A95F1F700005F9A34E03A957B
:1031E000F1F700005F98880F991F34E03A95F1F7E6
:1031F000215041F784E08A95F1F757985F9A089536
:1032000057989BB19BB98F3F19F44F99FECF14C0CB
:1032100041E050E060E070E08130A9F44F9B10C0C5
:1032200000004F5F5F4F6F4F7F4F403D37E05307C8
:103230006105710599F704C041E050E060E070E07D
:1032400028E090E026C08230D9F44F9BF9CF0000EF
:103250004F5F5F4F6F4F7F4F403990ED590793E0BD
:103260006907710591F7ECCF00004F5F5F4F6F4F1B
:103270007F4F403930ED530733E06307710501F3A9
:103280004F99F2CFDDCF3AE03A95F1F700C02150E7
:1032900041F0990F39E03A95F1F74F9BF4CF9160E7
:1032A000F2CF811107C040325E446105710589F09B
:1032B000892F0895813031F4403D574061057105F3
:1032C000B9F707C08230A1F74039504D634071050E
:1032D00079F78EEF08951FDF82E092DF9AE19A95E9
:1032E000F1F700C099B1813031F4892F80788038AE
:1032F00011F483E2089580E00895809128068823E0
:1033000009F4A1C080912B0621E0833209F020E06E
:1033100091E0803109F090E0922B21E08F3209F0AA
:1033200020E0292B91E0813409F090E0922B31E0EC
:10333000893709F030E0392B21E0873709F020E0A8
:10334000232B91E0382F3F7D333509F090E0922B0D
:1033500021F48B7F8B3109F048C080910D06982FA6
:103360009C709C3021F4806180930D063EC082FFEA
:1033700004C08B7F80930D06089583FF36C0982F7D
:10338000977F90930D0680910F06863011F494601C
:1033900013C0823021F480910E0682601BC081111F
:1033A00004C080910E06816015C0843011F49860CD
:1033B00003C0873021F4956090930D0641C085309D
:1033C00021F480910E068C6005C0813031F480912B
:1033D0000E06836080930E0633C0833089F580919A
:1033E0000D068A6080930D062BC080910F068630F3
:1033F000B9F08230E1F0811103C01092110620C0B3
:10340000843021F48FEF809311061AC0873019F4AD
:103410001092110605C0853031F48FEF80931106AC
:10342000109210060DC0813021F4109211068FEF1A
:1034300005C0833029F48FEF809311068093100626
:103440008FEF80930F060895BF92CF92DF92EF9295
:10345000FF920F931F93CF93DF938BB18F7C8BB928
:1034600025E32A95F1F70000DD24DA94EFECFE2E37
:10347000FFE2EF2ECFE7D0E0CC24CA94BB24B39474
:1034800080ED97E020E039B1330F330B2F5F23231A
:103490000197009709F424C22530A8F31092310651
:1034A00010923006109235061092340626DF809175
:1034B0000F06863031F4809130069091310692608B
:1034C00037C0823031F4809130069091310691609E
:1034D0002FC0811106C0809130069091310698600E
:1034E00027C0843031F48091300690913106946089
:1034F0001FC0853031F4809130069091310696607E
:1035000017C0873031F480913006909131069A606F
:103510000FC0813031F4809130069091310699606E
:1035200007C0833049F48091300690913106956050
:10353000909331068093300620910D0624FF09C038
:10354000809130069091310690629093310680937D
:10355000300627FF09C080913006909131068061C6
:10356000909331068093300626FF09C08091300683
:1035700090913106806290933106809330063091AD
:103580000E0630FD04C080911306843648F4809105
:103590003006909131068860909331068093300612
:1035A00023FD04C080911306873948F080913006CE
:1035B000909131068460909331068093300622FD0D
:1035C00004C080911206843648F4809130069091B0
:1035D00031068260909331068093300631FD04C03D
:1035E00080911206873948F080913006909131061B
:1035F0008160909331068093300621FF09C080914D
:103600003006909131069068909331068093300691
:1036100020FF09C08091300690913106906490930C
:1036200031068093300625FF09C0809130069091C5
:103630003106906190933106809330068091100698
:10364000803D10F0F0921006809110068F3210F439
:10365000E092100680911106803D10F0F092110664
:10366000809111068F3210F4E092110660911006DD
:1036700070E060587109882777FD8095982F0E9427
:1036800064332DEC3CEC4CEC5FE30E94CE320E94A4
:103690003633062F10E0102F002780911106BE014F
:1036A000681B7109882777FD8095982F0E946433E5
:1036B0002DEC3CEC4CEC5FE30E94CE320E943633A2
:1036C000062B10933506009334068D2D99DD81303D
:1036D00009F051C03AE03A95F1F700C0579A5F9867
:1036E00084E08A95F1F7000020E180913006909106
:1036F000310697FF05C05F9A9DE09A95F1F708C0E3
:10370000E9E0EA95F1F700C05F9AF4E0FA95F1F785
:1037100000005F988091300690913106880F991FC4
:1037200090933106809330062150F9F620E1809184
:1037300034069091350697FF05C05F9A3DE03A95B3
:10374000F1F708C089E08A95F1F700C05F9A94E02C
:103750009A95F1F700005F988091340690913506B4
:10376000880F991F90933506809334062150F9F6FF
:1037700000C000C086C0811104C0FCDCDD24D394ED
:103780007FCE8F3F51F4DF91CF911F910F91FF902A
:10379000EF90DF90CF90BF90EDCC823009F075C0F4
:1037A000E3E0F1E03197F1F700C0000080913206CC
:1037B000882309F452C0FAE2FA95F1F700C0579A4B
:1037C0005F9822E02A95F1F7000080E091E020E880
:1037D00027FF0AC032E03A95F1F700005F9AEDE06A
:1037E000EA95F1F7000008C0F8E0FA95F1F700C09B
:1037F0005F9A35E03A95F1F75F98269529F0E2E077
:10380000EA95F1F700C001C020E80197009701F7A1
:1038100000C000C0000088E098EB97FF05C05F9AE9
:10382000FDE0FA95F1F708C029E02A95F1F70000CC
:103830005F9A34E03A95F1F700005F98990FE4E061
:10384000EA95F1F7815049F7F4E0FA95F1F70000B5
:1038500057985F9A1092320691CF20E22A95F1F79D
:10386000579A80E191E05F9A34E03A95F1F75F98DA
:10387000ECE0EA95F1F701970097A9F7F5E0FA95E2
:10388000F1F7000057985F9A79CF833031F587EFD1
:1038900090E00197F1F700C0000080E0B1DCE8EDB6
:1038A000FFE03197F1F7803821F4B092320688EBCF
:1038B00012C08E3F11F481EE0EC08B3111F480E006
:1038C0000AC0813021F4C092DE058BEE04C0811164
:1038D00055CF1092DE0527DC51CF8E3F09F04ECF39
:1038E000DF91CF911F910F91FF90EF90DF90CF90DC
:1038F000BF90089584E491E008950895089508958F
:103900008AB1836F8AB93E9A84B1886F84B9299944
:103910000AC0219A299A8FE193E00197F1F700C03C
:103920000000219829988BB1806F8BB980910F0688
:10393000873019F48BB18F7504C0813021F48BB1BD
:103940008F768BB919C0853019F48BB18F79F9CF87
:10395000833019F48BB18F7AF4CF811102C05F9854
:103960000BC0843011F45E9807C0863011F45D9866
:1039700003C0823009F45C9880910D0681FF02C07B
:10398000589801C0589A80910D0687FF02C0599837
:1039900001C0599A80910D0680FF02C0469801C06F
:1039A000469A80910D0685FF02C02B9801C02B9A84
:1039B00029991CC080910D0684FF02C02C9801C07B
:1039C0002C9A80910D0686FF02C02D9801C02D9A79
:1039D00080910D0683FF02C02E9801C02E9A80911F
:1039E0000D0682FF02C02F9801C02F9A1A9B03C0B8
:1039F0008FEC94E80AC09AE69A95F1F700C01A99FC
:103A0000F7CF3EC00197009711F01A99FBCF8FECCA
:103A100097E01A9903C001970097D9F78FEC97E0C8
:103A20001A9B04C001970097D9F72AC08FEC97E042
:103A30001A9904C001970097D9F724C08FEC97E03A
:103A40001A9B04C001970097D9F71CC08FEC97E030
:103A50001A9904C001970097D9F714C08FEC97E02A
:103A60001A9B04C001970097D9F70CC08FEC97E020
:103A70001A9903C001970097D9F7219829980895BA
:103A8000219A299A0895509A89B1837F833F11F032
:103A900080E0089583B1887F883FD1F781E090E08E
:103AA0001A9B15C01A9B05C00196803D24E8920719
:103AB000C9F720E52A95F1F7803D944849F31A9912
:103AC00010C0E6CF0196803D24E8920711F01A9BC2
:103AD000F9CF20E52A95F1F7803D9448C9F21A996B
:103AE000D7CF219A299A85E208958EE491E008952E
:103AF0000895109242041092430481E0809344049C
:103B0000579856988AB18F7C8AB93E985E9A5F9A88
:103B10008BB180638BB9469A88E08093810082E004
:103B200080936F00E8E8F0E08FEF91E0918380836D
:103B300086E090E091838083089508954E9BFECFA8
:103B40008FEC97E00197F1F700C000004F9B14C085
:103B50004E9912C04E9BFECF4F99FECF8FE891E059
:103B60000197F1F700C000004F9B02C080E001C048
:103B70008FE24F9903C0089580E0089581E208958F
:103B8000CF9380914204882369F080910D068823A9
:103B900009F429C2109242045D988FE891E00197E0
:103BA000F1F71FC2559A549A3E9A809105068132C8
:103BB00011F08F3219F40E94AD0A4EC08F3109F016
:103BC0004BC090911106809110069E3420F48E34E3
:103BD00040F487E01EC0933B60F08E3430F485E003
:103BE00018C0833B30F081E014C0833B10F083E0C9
:103BF00010C08E3410F486E00CC0833B10F082E0DD
:103C000008C09E3418F410920F0605C0933B18F0BC
:103C100084E080930F0690911306809112069E34E3
:103C200018F48E34E0F005C0933B40F08E34D0F0B1
:103C300003C0833B18F502C0833BB8F48E34C0F058
:103C4000833BC8F49E34D0F031E020E0933B08F48D
:103C500030E0832F922F14C080E090E011C082E208
:103C600090E00EC083E090E00BC081E190E008C0DE
:103C700082E090E005C080E190E002C080E390E047
:103C800020910F06211102C080611BC0243011F465
:103C9000806217C0263011F4806413C0223011F402
:103CA00080680FC0273011F480650BC0253011F4F7
:103CB000806607C0213011F4806903C0233009F405
:103CC000806A40910D0645FD886044FD8460209126
:103CD00005062132A1F541FD816040FD8260209101
:103CE000140621110FC02091150621110BC020913F
:103CF00028062111F2C02091100630E0211531056F
:103D000009F4EDC0642F637041E050E011F040E031
:103D100050E051954195510931EE321B330F311D61
:103D2000232F31FB27F932FB26F933FB25F935FB2D
:103D300023F936FB22F937FB21F930E0D2C02F31CD
:103D4000B1F440FD906141FD9062342F347042FD2A
:103D50008260242F287043FD81603111926021110F
:103D6000916046FD946047FD9860906CB6C02F321C
:103D700009F0B3C040FD816042FD826043FD926066
:103D800041FD916046FD946047FF02C09860A5C068
:103D900030914404209128063430C1F1211105C02E
:103DA000209143042F5F2093430420914304233345
:103DB00010F12091100630E02B303105CCF4209129
:103DC000120630E02B3031059CF42091110630E0D2
:103DD0002B3031056CF42091130630E02B30310587
:103DE0003CF420911406211103C0209115062111E5
:103DF00090681092430434E63093480420EA2093FC
:103E00004704309346042093450467C090682223FA
:103E100051F021E0209344049F77EFE3FCE93197D0
:103E2000F1F700C0000060911406E0910D062091AA
:103E30002B0661112DC060911506611129C0E6FDA8
:103E400002C0253429F420E820931306209312069B
:103E5000E7FF05C020E8209311062093100670911B
:103E6000100660911206472F50E0262F30E04217CF
:103E700053070CF0672FF0911106709113064F2F26
:103E800050E0272F30E0421753071CF07F2F01C06E
:103E900070E820914704271710F47093470420918D
:103EA0004804721710F470934804209145042617B3
:103EB00010F46093450420914604621710F4609357
:103EC00046047093490460934A048827907F2E2FFC
:103ED0002F7009F09260E5FD916020E030E040E055
:103EE00050E0609105066F3221F06F3111F0B8E1BA
:103EF00001C0B0E16FE074EA4E9906C061507109EB
:103F000061157105C9F769C0A9E16BB160636BB94F
:103F1000C0E061E070E0FB01E823F923EF2B11F032
:103F20005D9801C05D9AFB01E423F523EF2B11F0AE
:103F30005C9801C05C9AFB01E223F323EF2B11F0A4
:103F4000469801C0469A660F771FE0910506E13258
:103F5000C9F4E0918100E560E093810078941092CB
:103F60008500109284001092E005B19924C04F9909
:103F7000FCCFB19A109285001092840010928100BB
:103F8000F8940BC0EF3119F44F99FECF06C0EF3211
:103F900021F44F99FECF4F9BFECFCF5FCB1708F494
:103FA000BACFE0910506E13231F4A15009F0ADCF6E
:103FB00081E080934204B19A1092850010928400AF
:103FC00010928100F89480910506813219F46230D4
:103FD000710519F45D985C98469887EC90E001971C
:103FE000F1F700C00000CF91089588E591E00895B1
:103FF00008955198599A3E98469A509A10924C04B6
:1040000010924B040895089570E090E061157105D9
:1040100069F19B0128233923232B11F0589A0AC0F8
:10402000589808C0369917C02F5F3F4F30936D01E5
:1040300020936C0120916C0130916D01283840E98A
:10404000340780F308C0369B0EC02F5F3F4F30937C
:104050006D0120936C0120916C0130916D01283825
:1040600040E9340780F376956795D0CF5898089546
:10407000DF92EF92FF920F931F93CF93DF93D09035
:104080001006E0901106F09015068091280688230E
:1040900029F010924C0410924B040AC08EEC8D0D46
:1040A000873930F081E090E090934C0480934B048A
:1040B00080914B0490914C0420910F0630910D0695
:1040C00040910E06019741F5243049F0222351F02A
:1040D000223059F0263061F000E010E00BC000E023
:1040E00014E008C000E018E005C000E012E002C0E3
:1040F00000E011E030FD106431FD106136FD106804
:1041000037FD106135FD006834FD006441FD00613C
:1041100040FF37C0006235C0253009F404C12730A4
:1041200009F404C1213059F02330B1F02430B9F042
:10413000C0E0D0E8211106C0C0E0D8E812C0C0E05D
:10414000D4E90FC0223019F4C0E0D4E80AC0263008
:1041500041F4C0E0D2E805C0C0E0D2E902C0C0E04E
:10416000D0E930FDD16031FDC06837FDC06435FD58
:10417000C06234FDC06141FDC86040FF04C0C4603E
:1041800002C0CBE7D1E020ED37E080E0369902C0F5
:104190008F5F01C080E090E19A95F1F721503109DD
:1041A0002115310509F4C5C0853080F3509A20915E
:1041B0006C0130916D01283880E9380748F4369950
:1041C00013C02F5F3F4F30936D0120936C01EFCFF1
:1041D0002838304949F4ADC0369B0EC02F5F3F4FA1
:1041E00030936D0120936C0120916C0130916D0131
:1041F000283880E9380780F380914B0490914C0473
:10420000019711F458980AC0589A08C036990EC000
:104210002F5F3F4F30936D0120936C0120916C0113
:1042200030916D01283890E9390780F381E090E002
:1042300090936D0180936C01D7FF02C0589A01C022
:10424000589885E18A95F1F7000036996AC060E4D4
:104250008D2FDADE60E88C2FD7DE20914B04309171
:104260004C04232B09F45DC060E888E0CDDE60E8F3
:104270008D2DCADE82E020916C0130916D012838CD
:1042800090E9390788F436990FC02F5F3F4F30937C
:104290006D0120936C01EFCF369B0EC02F5F3F4F17
:1042A00030936D0120936C0120916C0130916D0170
:1042B000283890E9390780F38150E9F660E88E2DBF
:1042C000A3DE82E020916C0130916D01283890E9E5
:1042D000390788F436990FC02F5F3F4F30936D0137
:1042E00020936C01EFCF369B0EC02F5F3F4F309372
:1042F0006D0120936C0120916C0130916D01283883
:1043000090E9390780F38150E9F660E88F2D7CDE73
:1043100068E082E079DE60E8812F76DE60E8802F59
:1043200073DE589A06C0C0E0D2EA1BCFC0E0D4EAE0
:1043300018CFDF91CF911F910F91FF90EF90DF90F9
:10434000089581E090E090936D0180936C018091DD
:104350006C0190916D01883820E9920720F436991C
:1043600007C00196F0CF8838904911F480E0089595
:1043700087E998E00197F1F700C000003699F6CF81
:1043800081E090E090936D0180936C0180916C01CD
:1043900090916D01883820E9920720F4369905C084
:1043A0000196F0CF8838904909F3499BDFCF8FED14
:1043B0009EE20197F1F700C000004F9BD7CF8BE240
:1043C000089582E691E008950895109237061092BC
:1043D00036060895089583B18E3F59F481E090E048
:1043E000909337068093360690934E0480934D0445
:1043F0000DC083B18C3F61F481E090E0909337066B
:104400008093360610924E0410924D0481E3089575
:1044100080E008950E94AD0A80910F06843081F0FB
:10442000823081F0882381F0863081F0873081F0FE
:10443000853081F0813081F0833081F020E00FC041
:1044400020E40DC020E10BC020E809C020E207C035
:1044500020EA05C020E603C020E901C020E5409124
:104460000D06642F617040FD02C050E001C050E4B1
:104470008091360690913706342F32708130910545
:1044800071F461112160311122603091200632FDFA
:10449000206C44FD206345FF1DC0206E1BC06111D0
:1044A00021603111226042FD02C030E001C030E8DD
:1044B00043FD306446FD306247FD306140910E0699
:1044C00040FD386041FD346046FD326047FF03C067
:1044D000316001C030E0EBB178B165B1009709F40B
:1044E00099C0422F4095E36F4E23019719F483E062
:1044F000842701C0842F8BB980914D0490914E0484
:10450000892B09F068C04091140641110DC08091BB
:104510001506811109C080912806811157C080912C
:104520000D06807F09F452C08AB1816F8AB93E9A24
:1045300080910D0680FF02C0469801C0469A411145
:1045400026C040911506411122C080912806811194
:104550001EC080910D06807FD1F0509110064091D1
:104560001206252F30E02058310937FF03C031955E
:1045700021953109842F90E08058910997FF03C05D
:10458000919581959109281739070CF0452F40FB2B
:1045900087F941FB86F942FB85F943FB84F9042E38
:1045A00004FA47F905FA46F906FA45F907FA44F913
:1045B000589A807F8BB983ED90E00197F1F700C0A6
:1045C00000005898407F41604BB908958BB18360DB
:1045D0008BB921FD5898852F8095972F906489235A
:1045E00088B9832F8095962F9E6F892385B98091F6
:1045F000360690913706019709F423602AB9809115
:104600004D0490914E04892B19F48AB183608AB9C4
:1046100057B934B908958EE691E008950895089544
:1046200010925604109250043E9A469A8AB1806FB6
:104630008AB98BB18FEF8BB91092580482E08093C6
:10464000570410924F0408958FEC8BB989B1837091
:10465000833011F580E090E029B12370213029F0FA
:10466000019681152AEF9207B9F72FEF2BB9811523
:104670009A4F91F020E030E089B18370813031F4BD
:104680002F5F3F4F21158AEF3807B1F78FEC8BB9B9
:1046900081E021153A4F09F480E008953E9A46984A
:1046A0008AE38A95F1F700C0469ACEDF882359F055
:1046B0008FE39CE90197F1F700C00000C5DF89B1E5
:1046C000837019F0089580E0089585E0089599B108
:1046D0009370E9F7982F9F609BB9469899B19370B2
:1046E0009130E1F720E1829FC00111248F608BB9E6
:1046F000469A08951F93CF93DF9380910F068530DC
:1047000089F0873091F0813099F08330A1F08823CF
:10471000A9F08430B1F08630B9F08230C1F0CFEF2B
:10472000DFEF17C0CFE9DFEF14C0CFEADFEF11C032
:10473000CFE6DFEF0EC0CFE5DFEF0BC0CFEEDFEF50
:1047400008C0CFEDDFEF05C0CFEBDFEF02C0CFE752
:10475000DFEF90910D06792F727091FDCE7F97FF5C
:1047600005C0811102C0DF7701C0CD7F90FDCB7FF6
:1047700095FDC77FF92FF07496FF05C0811102C027
:10478000D77F01C0DF7E93FDDF7DE92FE47092FDCE
:10479000DF7B20910E0621FDDF7720FDD77F209162
:1047A0002B06522F5B7F31E0293709F030E061E0C2
:1047B000233209F060E041E0203109F040E0462B6F
:1047C00061E02F3209F060E0462B61E0213409F00E
:1047D00060E0462B432B61E0273709F060E0462B71
:1047E00061E0A22FAF7DA33509F060E0642B11F4E6
:1047F0005B31A1F4492F4F704F3081F4882321F0B1
:1048000040911106423320F441E040934F0406C02A
:10481000843011F04B3A10F010924F0440914F0445
:10482000442309F446C09E0122273071CE018270D4
:104830009927AE0141705527C2FF03C0C560D06102
:1048400003C0CE7FC460D061452B09F4DF7E232BEB
:1048500009F4D77F892B09F4DF77809110068E3415
:1048600010F4CF7B0DC0833B10F0CF7709C080914F
:1048700011068E3410F4CF7E03C0833B08F0CF7D49
:10488000809112068E3410F4DF7B0DC0833B10F054
:10489000DF7E09C0809113068E3410F4DF7D03C0E3
:1048A000833B08F0CE7F8FE18BB989B18370E9F744
:1048B0005FC040915604413009F448C01092500442
:1048C000253451F0203431F02A3079F4FF2321F0DF
:1048D000CE7F02C0E111D77F1092560422E02093D0
:1048E000580423E02093570421C02091140622236A
:1048F00091F0533711F0332371F07111CB7F23E026
:104900002093570422E0209358042093560421E07A
:10491000209350040BC0209110062253273930F009
:1049200026E02093570421E020935804843071F44A
:104930009378933859F482E08093580483E080930D
:10494000570481E080935604809350048091280698
:10495000882349F01092580482E080935704109203
:104960005604109250048FE18BB989B18370E9F736
:10497000109157048091580420E1829FC0011124B6
:10498000812BA5DE133009F078C0C095D0958091B9
:104990005604823019F42091140607C0833019F4AC
:1049A0002091150602C020911006822F90E03091D0
:1049B0005504831B91092093550497FD02C0CF7EB7
:1049C00001C0C06130912B0640915004343471F025
:1049D000442361F0283C20F0CF7E88E39FEF13C092
:1049E000213420F4C06188EC90E00DC09C012A5174
:1049F0003F4F2D3C314038F0CF7E8091530484FDF1
:104A0000C0618091520491E0980F909310068093BA
:104A1000520420911106822F90E030915404831BA0
:104A20009109209354041816190614F4C06201C0A9
:104A3000CF7D442361F0283C20F0C06282E390E007
:104A400013C0213420F4CF7D8EEC9FEF0DC09C016C
:104A500026503F4F253F314038F0CF7D80915304A1
:104A600085FDC06280915104982F91959093110615
:104A700080935104CF73C09353048C2F28DE1330DE
:104A8000E1F48091100623DE8091110620DE1530BE
:104A900040F0809116061BDE153019F08091170644
:104AA00016DE81E014DE87EC90E00197F1F700C09C
:104AB0000000DF91CF911F9108958D2F08DE1330F4
:104AC00080F3DFCF88E791E0089508958AB1836F7E
:104AD0008AB988E08093810082E080936F00E8E8E3
:104AE000F0E08FEF91E0918380838FEF808381E00E
:104AF000809389000895B19A1092850010928400E5
:104B000010928100F89408951C9903C020E22A9520
:104B1000F1F780E090E01C9B0BC0019681152AEF15
:104B20009207C9F712C0019681152AEF920769F022
:104B30001C9BF9CF1D9908C08FE99FE00197F1F701
:104B400000C0000085E10895089508950E94AD0A0F
:104B500090910D0695FD02C03FEF01C03DEF97FD1E
:104B60003F7780910F06823011F43F7B1BC0863067
:104B700011F43F7D17C0843011F43F7E13C08111C2
:104B800002C03E7F0FC0873011F43E7D0BC08530E0
:104B900011F43F7C07C0813011F43E7B03C08330A9
:104BA00009F43F7A91FD02C02FEF01C02FE78091F9
:104BB0000E06F82FF17080FD2F7B83FD2F7D86FD83
:104BC0002F7E6091200661FD2E7F90FD02C05FEF79
:104BD00001C05FE7E82FE27081FD5F7B84FD5F7DB0
:104BE00087FD5F7E62FD5E7F94FD02C04FEF01C0D6
:104BF0004FE782FD4F7B85FD4F7D60FD4F7E63FD5E
:104C00004E7F8091050671E0823309F070E061E02B
:104C1000853209F060E0762B61E0A82FAD7FA932E4
:104C200009F060E0762B692F6074711103C08F7EEC
:104C3000853071F4F1112F7D2064E1114F7D6111F8
:104C40004F7E93FD5F7E506492FF06C02F7E04C0AE
:104C500061112F7D97FD4F7D1F9B04C01C9B04C0DD
:104C600080E003C081E001C082E090918100956006
:104C70009093810078941092850010928400813086
:104C800029F08230A1F080E090E029C01F9BFECF88
:104C90008091E00581114FC03BB91C9BFECF2BB921
:104CA0001D9BFECF5BB91E9BFECF4BB944C01C9B26
:104CB000FECF8091E00581113EC02BB91D9BFECF38
:104CC0005BB91E9BFECF4BB91F9BFECF3BB91C9B14
:104CD000FECF31C0019681156AEF9607B1F11C999C
:104CE000F9CF6091E005611126C03BB91C9906C05F
:104CF000019681153AEF9307C9F727C02BB91D9983
:104D000006C0019681156AEF9607C9F71EC05BB908
:104D10001E9906C0019681152AEF9207C9F715C0A2
:104D20004BB91F9906C0019681153AEF9307C9F751
:104D30000CC083EF8BB9B19A109285001092840059
:104D400010928100F8941092E005089582E891E0B5
:104D5000089508958AB181678AB908950895CF9317
:104D6000DF93F8DFC03184EAD80720F44F9906C0FA
:104D70002196F8CFC03184EAD80739F088E08A95C7
:104D8000F1F7369B02C04F9905C080E01FC0369BEB
:104D900009C02196C03184EAD807C8F3C03184EA3B
:104DA000D80799F34F9BF1CF03C04F9B08C02196C2
:104DB000C03184EAD807C8F3C031D44A31F396B180
:104DC000892F807496FDE1CF4F9B87E2DF91CF91D1
:104DD0000895CF93DF930E94AD0A30910D0635FD03
:104DE00002C09FEF01C09FEE20910F06223009F410
:104DF0006AC0263009F469C0243049F0222389F0C2
:104E0000273089F08FEF253021F48FEA0DC08FEB2A
:104E10000BC0213011F48EED07C0233029F48EEB46
:104E200003C08FED01C08FEC31FD9F7D30FD9E7F73
:104E300034FD9F7B232F2C7C69F037FD02C02FEFC0
:104E400001C02FED33FD2F7E32FD2F7B36FF07C0D3
:104E50002E7F05C0292F382F9FEF8FEF05C03EE82A
:104E600003C0369905C02196C03144EAD407C8F37F
:104E70003BB903C04F9B05C02196C03144EAD4071B
:104E8000C8F32BB93E3841F084EF91E0369906C063
:104E900001970097D9F702C0292F382F80E090E0C2
:104EA000369905C00196843F41E09407C9F73BB9A4
:104EB0004F9B05C00196803134EA9307C8F32BB9A4
:104EC000DF91CF9108958EEFAFCF8FEEADCF8CE80D
:104ED00091E00895089584B18FEF84B908950895FD
:104EE0008BE10895CF93E1EDF1E020E030E0C0E008
:104EF000DC01022E02C0B595A7950A94E2F7AB013A
:104F0000022E02C0559547950A94E2F71816190625
:104F10003CF46A0F7B1F841B950B4081C40F06C0B5
:104F20006A1B7B0B840F951F4081C41B2F5F3F4F73
:104F3000319625303105E1F68C2FCF910895CF932E
:104F4000DF93D0911006D058C0911106C0586D2F34
:104F5000772767FD709577FF03C07195619571099B
:104F60008C2F992787FD90956333710564F49C011C
:104F700097FF04C022273327281B390B2333310521
:104F800014F48FEF68C097FF03C091958195910944
:104F9000A9DF90E0D7FD1FC01C1674F48B3091057B
:104FA0000CF444C081329105DCF188339105D4F1D1
:104FB0008E349105CCF12EC0CC2319F38B309105A2
:104FC000ACF181329105A4F1883391059CF18E34C6
:104FD000910594F10EC0C7FF11C08B309105A4F16B
:104FE000813291055CF18833910554F18E3491053D
:104FF0004CF18A3591052CF68FEB2DC08B30910545
:105000001CF18132910514F1883391050CF18E3435
:10501000910504F18A3591050CF0B3CF8FEE1BC0DA
:105020008EED19C08EEC17C08FEC15C08FED13C03C
:105030008FE911C08EE90FC08EEB0DC08EE70BC05B
:105040008EE309C08FE307C08FE705C08FE603C07A
:105050008EE601C08EEE90910F0620910D069F3FC7
:1050600001F1943011F48F7E3CC0923011F48F7DA9
:1050700038C0911102C08F7B34C0963011F48F7705
:1050800030C0973011F48E732CC0953011F48E76A9
:1050900028C0913011F48E7924C0933011F58E7CA4
:1050A00020C090910E0690FD877E91FD8B7E92FD33
:1050B0008D7E93FD877D94FD8B7D95FD8D7D96FD89
:1050C000877B97FD8B7B9091200690FD8D7B91FDDA
:1050D00001C024FD877792FD8B7793FD01C025FDEC
:1050E0008D7720FD897F21FD857F22FD01C027FD71
:1050F000837F85B9DF91CF91089586E991E0089586
:1051000008951092600410925F048FEF85B98BB9F7
:105110003E988AB18F738AB98FE084B98AB180636F
:105120008AB90895089510925E0410925D048091EA
:105130005D0490915E04883622E4920778F41C9B0B
:105140000DC0019690935E0480935D04F0CF1D9B8B
:1051500015C0019690935E0480935D0480915D0478
:1051600090915E04883622E4920788F307C01E9B64
:1051700015C0019690935E0480935D0480915D0458
:1051800090915E04883622E4920788F307C01F9B43
:1051900012C0019690935E0480935D0480915D043B
:1051A00090915E04883622E4920788F38836924410
:1051B00011F480E008958BE008958FEF80935C04F4
:1051C00080935B0480935A048093590410925E0488
:1051D00010925D0480910E0680FF03C09DEF9093B6
:1051E0005B0481FF03C09DEF90935A0482FF03C0CC
:1051F0009DEF9093590483FF05C090915B049B7FC2
:1052000090935B0484FF05C090915A049B7F909318
:105210005A0485FF05C0909159049B7F90935904CF
:1052200086FF05C090915B04977F90935B0487FF96
:1052300005C080915A04877F80935A04809120068C
:1052400080FF05C090915904977F9093590481FF86
:1052500005C090915B049E7F90935B0482FF05C024
:1052600090915A049E7F90935A0483FF05C08091C9
:1052700059048E7F8093590480910D0684FF03C0EA
:105280009DEF90935C0485FF05C090915C049B7F2B
:1052900090935C0482FF05C090915C04977F90938B
:1052A0005C0480FF02C05C9801C05C9A80910D068E
:1052B00081FF02C05D9801C05D9A409114064111C2
:1052C00004C080911506882369F080910D0680FF47
:1052D00009C05D9807C04E9B11C0019690935E0473
:1052E00080935D0480915D0490915E04883622E491
:1052F000920788F38836924409F425C110925E041F
:1053000010925D041C9B17C080915D0490915E0417
:10531000853FF1E09F0710F0589A6BC0019690937B
:105320005E0480935D04EECF1C9B0DC001969093AC
:105330005E0480935D0480915D0490915E048836E4
:1053400022E4920788F380915C0485B980915D0422
:1053500090915E048836E2E49E0740F41D9B06C0EF
:10536000019690935E0480935D04F0CF80915B047E
:1053700085B980915D0490915E048836F2E49F07C0
:1053800040F41E9B06C0019690935E0480935D04DA
:10539000F0CF80915A0485B980915D0490915E04AC
:1053A000883622E4920740F41F9B06C00196909332
:1053B0005E0480935D04F0CF8091590485B980919B
:1053C0005D0490915E048836E2E49E0740F41C9BE5
:1053D00006C0019690935E0480935D04F0CF8FEF3A
:1053E00085B907C04E990DC0019690935E048093D5
:1053F0005D0480915D0490915E048836F2E49F071D
:1054000088F38AB1806C8AB98BB18F738BB98AB1FA
:10541000806C8AB95091110660911306252F30E0F7
:105420002058310937FF03C0319521953109862F66
:1054300090E08058910997FF03C09195819591095B
:10544000281739070CF0652F442309F1242F30E089
:1054500080915F0490916004A901481B590B7AE088
:10546000749FC001759F900D1124309360042093A8
:105470005F04803891057CF59C012F5F3F4F2330FE
:10548000310568F181382FEF92073CF129C0209156
:105490001506222341F130E080915F049091600471
:1054A000A901481B590B7AE0749FC001759F900DAC
:1054B00011243093600420935F04803891055CF4DC
:1054C0008138EFEF9E074CF09C012F5F3F4F233058
:1054D000310528F005C08FE703C081E801C080E0F6
:1054E00040E8480F1AC05091100640911206252F2F
:1054F00030E02058310937FF03C03195219531093B
:10550000842F90E08058910997FF03C09195819571
:105510009109281739070CF0452F90E0941708F0EF
:105520005F9A961708F05E9AEBEDF0E03197F1F78D
:1055300000C000009F5F9F3F89F78BB1806C8BB9E3
:105540008AB18F738AB9089580EA91E00895089529
:10555000579A82E080933B0608950895E3E0FDE0CA
:105560003197F1F700C000005F9AE3E0FDE031976A
:10557000F1F700C0000020E030E090E0AC01022E26
:1055800002C0559547950A94E2F740FF02C05F9824
:1055900001C05F9AE3E0FDE03197F1F700C0000041
:1055A0002F5F3F4F2730310549F75F9883E09DE03B
:1055B0000197F1F700C00000E3E0FDE03197F1F75B
:1055C00000C000005F980895CF93DF9360910D06AF
:1055D0009091380680910F0669130FC02091100634
:1055E00090913A06291309C020911106909139062D
:1055F000291303C08F3F09F4D0C065FF09C0909103
:105600003B06923011F49AE001C092E090933B0681
:10561000811105C020E880913B06281B05C084301D
:1056200029F420913B06205890E891C0863029F457
:1056300090E880913B06981B05C0823029F4909138
:105640003B06905820E883C0873029F490E8809189
:105650003B06981B16C0853039F480913B0620E844
:10566000280F90E8981B73C0813031F490913B066D
:1056700020E8291B90586BC0833029F490913B0699
:105680009058292F64C05091110640911306252F80
:1056900030E02058310937FF03C031952195310999
:1056A000842F90E08058910997FF03C091958195D0
:1056B0009109281739070CF0452F70911006509169
:1056C0001206272F30E02058310937FF03C03195EB
:1056D00021953109852F90E08058910997FF03C0EB
:1056E000919581959109281739070CF0572F509300
:1056F00010064093110689E8850F833110F0952F2D
:1057000001C090E889E8840F833110F0242F01C094
:1057100020E88091140681110CC08091150681113A
:1057200008C080912B06853421F0803411F08A3036
:1057300071F420E880913A06922F981B950F809182
:105740003906281B240F50933A064093390660937C
:10575000380660FD02C030E401C030E561FD306212
:1057600066FD30E7D0E8D90FC0E8C20F4C2F459551
:105770004595459545954C708D2F829586958695D6
:105780008370482B842F832BE9DE8D2F8F73E6DE09
:105790008C2F8F73DF91CF91E1CEDF91CF91089560
:1057A0004D9BFECF8CE2DACE80916104882311F00C
:1057B00080E0089581E0809361044D99F9CF25E35D
:1057C0002A95F1F700004D99F3CFC2DEE9DFE8DF5B
:1057D0004D9BFECF8AE4C2DE80E0C0DE80E0BEDE0C
:1057E00080E0BCDE4D99FECF4D9BFECF8AE4B6DE55
:1057F00080E0B4DE80E0B2DE80E0B0DE8FEF99E6DC
:1058000028E1815090402040E1F700C0000082E391
:1058100008958AEA91E00895089584B1806C84B96E
:1058200085B1806C85B92F9888E020E495B19227E6
:1058300095B98150D9F785B1806C85B908958BB140
:105840008F738BB98AB18F738AB985B1806C85B932
:1058500084B18F7384B980916B00806880936B00F2
:105860007894809168008E7F80936800109269041C
:1058700080E28093680480912B06853421F0803487
:1058800011F08A3019F480E092E002C081E090E0EB
:1058900090936604809365040895E8E6F0E08081C3
:1058A0008E7F8083089528E030E040E89FEB60E33E
:1058B00070EC592F5095E42FE82395B9EE2329F089
:1058C00000C075B900C055B902C000C065B9952FB8
:1058D0004695215031092115310559F70895CF9288
:1058E000DF92EF92FF920F931F93CF93DF931F925C
:1058F000CDB7DEB7E82E6C01F12C8C2D8E198617F2
:1059000058F48601F60181916F016983CCDFF801BB
:105910008081F8266981F1CF8F2D0F90DF91CF9193
:105920001F910F91FF90EF90DF90CF90089587DF48
:105930001092670410920606D89A809168008160E0
:105940008093680083B12FEF8AE693E02150804076
:105950009040E1F700C0000080910606811102C06E
:1059600080E00895809167048823D1F38DE1089544
:10597000CF93DF931092670410920606D89A809115
:10598000680081608093680080910606811105C0DF
:1059900025E02A95F1F70000F7CF209167048FEFFB
:1059A000820F8E3F08F019C2213008F403C2233061
:1059B00020F0293009F452C0FDC185E0809399049C
:1059C000809169048093980480916804809397047F
:1059D0008CE18093960480916504909166048130F7
:1059E000910521F480E7E6E4F2E006C081159240DB
:1059F00049F480E7E6EDF1E0AAE9B4E001900D9208
:105A00008A95E1F7213029F408DF64E786E994E01C
:105A1000CFC18091960490919704A0919804B09181
:105A2000990480930A0590930B05A0930C05B093FD
:105A30000D0580E7EAE9F4E0AEE0B5E001900D92F3
:105A40008A95E1F740E550E066EB72E08EE795E07D
:105A5000DDD6E3DE64EC8AE095E0AAC160910F0632
:105A6000653089F0673091F0613099F06330A1F0D2
:105A70006623A9F06430B1F06630B9F06230C1F04D
:105A80002FEF30E017C02FE930E014C02FEA30E0EC
:105A900011C02FE630E00EC02FE530E00BC02FEE36
:105AA00030E008C02FED30E005C02FEB30E002C041
:105AB0002FE730E070910D0670FD2B7F71FD2D7F7B
:105AC00077FF03C08FEF8093170672FD03C04FEF7F
:105AD00050E002C04BEF50E073FD4D7FE72FE074C4
